{
  "contractName": "EthDealer",
  "abi": [
    {
      "constant": true,
      "inputs": [],
      "name": "name",
      "outputs": [
        {
          "name": "",
          "type": "string"
        }
      ],
      "payable": false,
      "stateMutability": "view",
      "type": "function"
    },
    {
      "constant": true,
      "inputs": [],
      "name": "overSellTokenAmount_",
      "outputs": [
        {
          "name": "",
          "type": "uint256"
        }
      ],
      "payable": false,
      "stateMutability": "view",
      "type": "function"
    },
    {
      "constant": true,
      "inputs": [],
      "name": "onlyAmbassadors",
      "outputs": [
        {
          "name": "",
          "type": "bool"
        }
      ],
      "payable": false,
      "stateMutability": "view",
      "type": "function"
    },
    {
      "constant": true,
      "inputs": [],
      "name": "decimals",
      "outputs": [
        {
          "name": "",
          "type": "uint8"
        }
      ],
      "payable": false,
      "stateMutability": "view",
      "type": "function"
    },
    {
      "constant": false,
      "inputs": [],
      "name": "claimOwnership",
      "outputs": [],
      "payable": false,
      "stateMutability": "nonpayable",
      "type": "function"
    },
    {
      "constant": true,
      "inputs": [],
      "name": "stakingRequirement",
      "outputs": [
        {
          "name": "",
          "type": "uint256"
        }
      ],
      "payable": false,
      "stateMutability": "view",
      "type": "function"
    },
    {
      "constant": false,
      "inputs": [],
      "name": "renounceOwnership",
      "outputs": [],
      "payable": false,
      "stateMutability": "nonpayable",
      "type": "function"
    },
    {
      "constant": true,
      "inputs": [],
      "name": "owner",
      "outputs": [
        {
          "name": "",
          "type": "address"
        }
      ],
      "payable": false,
      "stateMutability": "view",
      "type": "function"
    },
    {
      "constant": true,
      "inputs": [],
      "name": "symbol",
      "outputs": [
        {
          "name": "",
          "type": "string"
        }
      ],
      "payable": false,
      "stateMutability": "view",
      "type": "function"
    },
    {
      "constant": true,
      "inputs": [
        {
          "name": "",
          "type": "address"
        }
      ],
      "name": "escapeTokenBalance_",
      "outputs": [
        {
          "name": "",
          "type": "uint256"
        }
      ],
      "payable": false,
      "stateMutability": "view",
      "type": "function"
    },
    {
      "constant": true,
      "inputs": [
        {
          "name": "",
          "type": "address"
        }
      ],
      "name": "overSellTokenBalance_",
      "outputs": [
        {
          "name": "",
          "type": "uint256"
        }
      ],
      "payable": false,
      "stateMutability": "view",
      "type": "function"
    },
    {
      "constant": true,
      "inputs": [
        {
          "name": "",
          "type": "address"
        }
      ],
      "name": "authorizedAddressInfos",
      "outputs": [
        {
          "name": "",
          "type": "bool"
        }
      ],
      "payable": false,
      "stateMutability": "view",
      "type": "function"
    },
    {
      "constant": true,
      "inputs": [],
      "name": "pendingOwner",
      "outputs": [
        {
          "name": "",
          "type": "address"
        }
      ],
      "payable": false,
      "stateMutability": "view",
      "type": "function"
    },
    {
      "constant": false,
      "inputs": [
        {
          "name": "newOwner",
          "type": "address"
        }
      ],
      "name": "transferOwnership",
      "outputs": [],
      "payable": false,
      "stateMutability": "nonpayable",
      "type": "function"
    },
    {
      "constant": true,
      "inputs": [],
      "name": "escapeTokenSuppley_",
      "outputs": [
        {
          "name": "",
          "type": "uint256"
        }
      ],
      "payable": false,
      "stateMutability": "view",
      "type": "function"
    },
    {
      "inputs": [],
      "payable": false,
      "stateMutability": "nonpayable",
      "type": "constructor"
    },
    {
      "payable": true,
      "stateMutability": "payable",
      "type": "fallback"
    },
    {
      "anonymous": false,
      "inputs": [
        {
          "indexed": true,
          "name": "customerAddress",
          "type": "address"
        },
        {
          "indexed": false,
          "name": "incomingEthereum",
          "type": "uint256"
        },
        {
          "indexed": false,
          "name": "tokensMinted",
          "type": "uint256"
        },
        {
          "indexed": true,
          "name": "referredBy",
          "type": "address"
        }
      ],
      "name": "onTokenPurchase",
      "type": "event"
    },
    {
      "anonymous": false,
      "inputs": [
        {
          "indexed": true,
          "name": "customerAddress",
          "type": "address"
        },
        {
          "indexed": false,
          "name": "tokensBurned",
          "type": "uint256"
        },
        {
          "indexed": false,
          "name": "ethereumEarned",
          "type": "uint256"
        }
      ],
      "name": "onTokenSell",
      "type": "event"
    },
    {
      "anonymous": false,
      "inputs": [
        {
          "indexed": true,
          "name": "customerAddress",
          "type": "address"
        },
        {
          "indexed": false,
          "name": "ethereumReinvested",
          "type": "uint256"
        },
        {
          "indexed": false,
          "name": "tokensMinted",
          "type": "uint256"
        }
      ],
      "name": "onReinvestment",
      "type": "event"
    },
    {
      "anonymous": false,
      "inputs": [
        {
          "indexed": true,
          "name": "customerAddress",
          "type": "address"
        },
        {
          "indexed": false,
          "name": "ethereumWithdrawn",
          "type": "uint256"
        }
      ],
      "name": "onWithdraw",
      "type": "event"
    },
    {
      "anonymous": false,
      "inputs": [
        {
          "indexed": true,
          "name": "customerAddress",
          "type": "address"
        },
        {
          "indexed": false,
          "name": "tokensEscaped",
          "type": "uint256"
        }
      ],
      "name": "onTokenEscape",
      "type": "event"
    },
    {
      "anonymous": false,
      "inputs": [
        {
          "indexed": true,
          "name": "customerAddress",
          "type": "address"
        },
        {
          "indexed": false,
          "name": "tokensBurned",
          "type": "uint256"
        },
        {
          "indexed": false,
          "name": "ethereumEarned",
          "type": "uint256"
        }
      ],
      "name": "onTokenArbitrage",
      "type": "event"
    },
    {
      "anonymous": false,
      "inputs": [
        {
          "indexed": true,
          "name": "from",
          "type": "address"
        },
        {
          "indexed": true,
          "name": "to",
          "type": "address"
        },
        {
          "indexed": false,
          "name": "tokens",
          "type": "uint256"
        }
      ],
      "name": "Transfer",
      "type": "event"
    },
    {
      "anonymous": false,
      "inputs": [
        {
          "indexed": true,
          "name": "previousOwner",
          "type": "address"
        }
      ],
      "name": "OwnershipRenounced",
      "type": "event"
    },
    {
      "anonymous": false,
      "inputs": [
        {
          "indexed": true,
          "name": "previousOwner",
          "type": "address"
        },
        {
          "indexed": true,
          "name": "newOwner",
          "type": "address"
        }
      ],
      "name": "OwnershipTransferred",
      "type": "event"
    },
    {
      "constant": false,
      "inputs": [
        {
          "name": "buyer",
          "type": "address"
        },
        {
          "name": "amountTokens",
          "type": "uint256"
        },
        {
          "name": "_referredBy",
          "type": "address"
        }
      ],
      "name": "buy",
      "outputs": [
        {
          "name": "",
          "type": "uint256"
        }
      ],
      "payable": true,
      "stateMutability": "payable",
      "type": "function"
    },
    {
      "constant": false,
      "inputs": [
        {
          "name": "buyer",
          "type": "address"
        },
        {
          "name": "buyAmount",
          "type": "uint256"
        }
      ],
      "name": "reinvest",
      "outputs": [],
      "payable": false,
      "stateMutability": "nonpayable",
      "type": "function"
    },
    {
      "constant": false,
      "inputs": [
        {
          "name": "buyer",
          "type": "address"
        }
      ],
      "name": "exit",
      "outputs": [],
      "payable": false,
      "stateMutability": "nonpayable",
      "type": "function"
    },
    {
      "constant": false,
      "inputs": [
        {
          "name": "buyer",
          "type": "address"
        },
        {
          "name": "withdrawAmount",
          "type": "uint256"
        }
      ],
      "name": "withdraw",
      "outputs": [],
      "payable": false,
      "stateMutability": "nonpayable",
      "type": "function"
    },
    {
      "constant": false,
      "inputs": [
        {
          "name": "buyer",
          "type": "address"
        }
      ],
      "name": "withdraw",
      "outputs": [],
      "payable": false,
      "stateMutability": "nonpayable",
      "type": "function"
    },
    {
      "constant": false,
      "inputs": [
        {
          "name": "seller",
          "type": "address"
        },
        {
          "name": "_amountOfTokens",
          "type": "uint256"
        }
      ],
      "name": "sell",
      "outputs": [],
      "payable": false,
      "stateMutability": "nonpayable",
      "type": "function"
    },
    {
      "constant": false,
      "inputs": [],
      "name": "disableInitialStage",
      "outputs": [],
      "payable": false,
      "stateMutability": "nonpayable",
      "type": "function"
    },
    {
      "constant": false,
      "inputs": [
        {
          "name": "_name",
          "type": "string"
        }
      ],
      "name": "setName",
      "outputs": [],
      "payable": false,
      "stateMutability": "nonpayable",
      "type": "function"
    },
    {
      "constant": false,
      "inputs": [
        {
          "name": "_symbol",
          "type": "string"
        }
      ],
      "name": "setSymbol",
      "outputs": [],
      "payable": false,
      "stateMutability": "nonpayable",
      "type": "function"
    },
    {
      "constant": true,
      "inputs": [],
      "name": "totalBalance",
      "outputs": [
        {
          "name": "",
          "type": "uint256"
        }
      ],
      "payable": false,
      "stateMutability": "view",
      "type": "function"
    },
    {
      "constant": true,
      "inputs": [],
      "name": "totalSupply",
      "outputs": [
        {
          "name": "",
          "type": "uint256"
        }
      ],
      "payable": false,
      "stateMutability": "view",
      "type": "function"
    },
    {
      "constant": true,
      "inputs": [
        {
          "name": "myAddress",
          "type": "address"
        },
        {
          "name": "_includeReferralBonus",
          "type": "bool"
        }
      ],
      "name": "myDividends",
      "outputs": [
        {
          "name": "",
          "type": "uint256"
        }
      ],
      "payable": false,
      "stateMutability": "view",
      "type": "function"
    },
    {
      "constant": true,
      "inputs": [
        {
          "name": "_customerAddress",
          "type": "address"
        }
      ],
      "name": "balanceOf",
      "outputs": [
        {
          "name": "",
          "type": "uint256"
        }
      ],
      "payable": false,
      "stateMutability": "view",
      "type": "function"
    },
    {
      "constant": true,
      "inputs": [
        {
          "name": "_customerAddress",
          "type": "address"
        }
      ],
      "name": "dividendsOf",
      "outputs": [
        {
          "name": "",
          "type": "uint256"
        }
      ],
      "payable": false,
      "stateMutability": "view",
      "type": "function"
    },
    {
      "constant": true,
      "inputs": [
        {
          "name": "_customerAddress",
          "type": "address"
        }
      ],
      "name": "referralBalanceOf",
      "outputs": [
        {
          "name": "",
          "type": "uint256"
        }
      ],
      "payable": false,
      "stateMutability": "view",
      "type": "function"
    },
    {
      "constant": true,
      "inputs": [],
      "name": "sellPrice",
      "outputs": [
        {
          "name": "",
          "type": "uint256"
        }
      ],
      "payable": false,
      "stateMutability": "view",
      "type": "function"
    },
    {
      "constant": true,
      "inputs": [],
      "name": "buyPrice",
      "outputs": [
        {
          "name": "",
          "type": "uint256"
        }
      ],
      "payable": false,
      "stateMutability": "view",
      "type": "function"
    },
    {
      "constant": true,
      "inputs": [
        {
          "name": "_ethereumToSpend",
          "type": "uint256"
        }
      ],
      "name": "calculateTokensReceived",
      "outputs": [
        {
          "name": "",
          "type": "uint256"
        }
      ],
      "payable": false,
      "stateMutability": "view",
      "type": "function"
    },
    {
      "constant": true,
      "inputs": [
        {
          "name": "_tokensToBuy",
          "type": "uint256"
        }
      ],
      "name": "calculateBuyTokenSpend",
      "outputs": [
        {
          "name": "",
          "type": "uint256"
        }
      ],
      "payable": false,
      "stateMutability": "view",
      "type": "function"
    },
    {
      "constant": true,
      "inputs": [
        {
          "name": "_tokensToSell",
          "type": "uint256"
        }
      ],
      "name": "calculateBuyTokenReceived",
      "outputs": [
        {
          "name": "",
          "type": "uint256"
        }
      ],
      "payable": false,
      "stateMutability": "view",
      "type": "function"
    },
    {
      "constant": false,
      "inputs": [
        {
          "name": "sellerAddress",
          "type": "address"
        },
        {
          "name": "_amountOfTokens",
          "type": "uint256"
        }
      ],
      "name": "escapeTokens",
      "outputs": [
        {
          "name": "",
          "type": "uint256"
        }
      ],
      "payable": false,
      "stateMutability": "nonpayable",
      "type": "function"
    },
    {
      "constant": false,
      "inputs": [
        {
          "name": "sellerAddress",
          "type": "address"
        },
        {
          "name": "sellTokenAddress",
          "type": "address"
        },
        {
          "name": "_amountOfTokens",
          "type": "uint256"
        }
      ],
      "name": "arbitrageTokens",
      "outputs": [],
      "payable": false,
      "stateMutability": "nonpayable",
      "type": "function"
    }
  ],
  "bytecode": "0x60806040526040805190810160405280600781526020017f4574682d53334400000000000000000000000000000000000000000000000000815250600290805190602001906200005192919062000197565b506040805190810160405280600781526020017f4574682d53334400000000000000000000000000000000000000000000000000815250600390805190602001906200009f92919062000197565b5068056bc75e2d631000006004556000600d556000600f5560006010556001601160006101000a81548160ff021916908315150217905550348015620000e457600080fd5b50336000806101000a81548173ffffffffffffffffffffffffffffffffffffffff021916908373ffffffffffffffffffffffffffffffffffffffff16021790555060016005600073cd16575a90ed9506bcf44c78845d93f1b647f48c73ffffffffffffffffffffffffffffffffffffffff1673ffffffffffffffffffffffffffffffffffffffff16815260200190815260200160002060006101000a81548160ff02191690831515021790555062000246565b828054600181600116156101000203166002900490600052602060002090601f016020900481019282601f10620001da57805160ff19168380011785556200020b565b828001600101855582156200020b579182015b828111156200020a578251825591602001919060010190620001ed565b5b5090506200021a91906200021e565b5090565b6200024391905b808211156200023f57600081600090555060010162000225565b5090565b90565b612fc980620002566000396000f3006080604052600436106101cc576000357c0100000000000000000000000000000000000000000000000000000000900463ffffffff16806265318b146101ce57806306fdde031461022557806310d0ffdd146102b5578063150c95a8146102f657806318160ddd14610337578063236ffbbf1461036257806327defa1f1461038d578063313ce567146103bc57806346534649146103ed5780634b750334146104445780634bd3bbe11461046f5780634e71e0c8146104dc57806351cff8d9146104f357806356d399e8146105365780636c197ff51461056157806370a08231146105ae578063715018a6146106055780638620410b1461061c5780638da5cb5b1461064757806395d89b411461069e5780639f40dd421461072e578063a19ec23314610785578063a798ec24146107dc578063a8e04f3414610837578063ad7a672f1461084e578063b42652e914610879578063b73f34b4146108bc578063b84c8246146108fd578063c383abaa14610966578063c47f0027146109c9578063d3d6dce714610a32578063d65a261714610a93578063db61c76e14610ae0578063e30c397814610b54578063f2fde38b14610bab578063f3fef3a314610bee578063f5aaee7b14610c3b575b005b3480156101da57600080fd5b5061020f600480360381019080803573ffffffffffffffffffffffffffffffffffffffff169060200190929190505050610c66565b6040518082815260200191505060405180910390f35b34801561023157600080fd5b5061023a610d08565b6040518080602001828103825283818151815260200191508051906020019080838360005b8381101561027a57808201518184015260208101905061025f565b50505050905090810190601f1680156102a75780820380516001836020036101000a031916815260200191505b509250505060405180910390f35b3480156102c157600080fd5b506102e060048036038101908080359060200190929190505050610da6565b6040518082815260200191505060405180910390f35b34801561030257600080fd5b5061032160048036038101908080359060200190929190505050610dde565b6040518082815260200191505060405180910390f35b34801561034357600080fd5b5061034c610e16565b6040518082815260200191505060405180910390f35b34801561036e57600080fd5b50610377610e20565b6040518082815260200191505060405180910390f35b34801561039957600080fd5b506103a2610e26565b604051808215151515815260200191505060405180910390f35b3480156103c857600080fd5b506103d1610e39565b604051808260ff1660ff16815260200191505060405180910390f35b3480156103f957600080fd5b5061042e600480360381019080803573ffffffffffffffffffffffffffffffffffffffff169060200190929190505050610e3e565b6040518082815260200191505060405180910390f35b34801561045057600080fd5b50610459610e87565b6040518082815260200191505060405180910390f35b34801561047b57600080fd5b506104da600480360381019080803573ffffffffffffffffffffffffffffffffffffffff169060200190929190803573ffffffffffffffffffffffffffffffffffffffff16906020019092919080359060200190929190505050610ee5565b005b3480156104e857600080fd5b506104f16111a4565b005b3480156104ff57600080fd5b50610534600480360381019080803573ffffffffffffffffffffffffffffffffffffffff169060200190929190505050611343565b005b34801561054257600080fd5b5061054b6114ec565b6040518082815260200191505060405180910390f35b34801561056d57600080fd5b506105ac600480360381019080803573ffffffffffffffffffffffffffffffffffffffff169060200190929190803590602001909291905050506114f2565b005b3480156105ba57600080fd5b506105ef600480360381019080803573ffffffffffffffffffffffffffffffffffffffff1690602001909291905050506116c9565b6040518082815260200191505060405180910390f35b34801561061157600080fd5b5061061a611712565b005b34801561062857600080fd5b50610631611814565b6040518082815260200191505060405180910390f35b34801561065357600080fd5b5061065c611872565b604051808273ffffffffffffffffffffffffffffffffffffffff1673ffffffffffffffffffffffffffffffffffffffff16815260200191505060405180910390f35b3480156106aa57600080fd5b506106b3611897565b6040518080602001828103825283818151815260200191508051906020019080838360005b838110156106f35780820151818401526020810190506106d8565b50505050905090810190601f1680156107205780820380516001836020036101000a031916815260200191505b509250505060405180910390f35b34801561073a57600080fd5b5061076f600480360381019080803573ffffffffffffffffffffffffffffffffffffffff169060200190929190505050611935565b6040518082815260200191505060405180910390f35b34801561079157600080fd5b506107c6600480360381019080803573ffffffffffffffffffffffffffffffffffffffff16906020019092919050505061194d565b6040518082815260200191505060405180910390f35b3480156107e857600080fd5b5061081d600480360381019080803573ffffffffffffffffffffffffffffffffffffffff169060200190929190505050611965565b604051808215151515815260200191505060405180910390f35b34801561084357600080fd5b5061084c611985565b005b34801561085a57600080fd5b506108636119fd565b6040518082815260200191505060405180910390f35b34801561088557600080fd5b506108ba600480360381019080803573ffffffffffffffffffffffffffffffffffffffff169060200190929190505050611a1c565b005b3480156108c857600080fd5b506108e760048036038101908080359060200190929190505050611a86565b6040518082815260200191505060405180910390f35b34801561090957600080fd5b50610964600480360381019080803590602001908201803590602001908080601f0160208091040260200160405190810160405280939291908181526020018383808284378201915050505050509192919290505050611acf565b005b34801561097257600080fd5b506109b3600480360381019080803573ffffffffffffffffffffffffffffffffffffffff169060200190929190803515159060200190929190505050611b44565b6040518082815260200191505060405180910390f35b3480156109d557600080fd5b50610a30600480360381019080803590602001908201803590602001908080601f0160208091040260200160405190810160405280939291908181526020018383808284378201915050505050509192919290505050611bb1565b005b348015610a3e57600080fd5b50610a7d600480360381019080803573ffffffffffffffffffffffffffffffffffffffff16906020019092919080359060200190929190505050611c26565b6040518082815260200191505060405180910390f35b348015610a9f57600080fd5b50610ade600480360381019080803573ffffffffffffffffffffffffffffffffffffffff16906020019092919080359060200190929190505050611e71565b005b610b3e600480360381019080803573ffffffffffffffffffffffffffffffffffffffff16906020019092919080359060200190929190803573ffffffffffffffffffffffffffffffffffffffff1690602001909291905050506120a9565b6040518082815260200191505060405180910390f35b348015610b6057600080fd5b50610b696120be565b604051808273ffffffffffffffffffffffffffffffffffffffff1673ffffffffffffffffffffffffffffffffffffffff16815260200191505060405180910390f35b348015610bb757600080fd5b50610bec600480360381019080803573ffffffffffffffffffffffffffffffffffffffff1690602001909291905050506120e4565b005b348015610bfa57600080fd5b50610c39600480360381019080803573ffffffffffffffffffffffffffffffffffffffff16906020019092919080359060200190929190505050612183565b005b348015610c4757600080fd5b50610c506123e9565b6040518082815260200191505060405180910390f35b600068010000000000000000600960008473ffffffffffffffffffffffffffffffffffffffff1673ffffffffffffffffffffffffffffffffffffffff16815260200190815260200160002054600760008573ffffffffffffffffffffffffffffffffffffffff1673ffffffffffffffffffffffffffffffffffffffff16815260200190815260200160002054600e540203811515610d0057fe5b049050919050565b60028054600181600116156101000203166002900480601f016020809104026020016040519081016040528092919081815260200182805460018160011615610100020316600290048015610d9e5780601f10610d7357610100808354040283529160200191610d9e565b820191906000526020600020905b815481529060010190602001808311610d8157829003601f168201915b505050505081565b600080600080610dba85600a60ff166123ef565b9250610dc68584612405565b9150610dd18261241e565b9050809350505050919050565b600080600080610ded856124b1565b9250610dfd83600a60ff166123ef565b9150610e098383612405565b9050809350505050919050565b6000600d54905090565b60105481565b601160009054906101000a900460ff1681565b601281565b6000600860008373ffffffffffffffffffffffffffffffffffffffff1673ffffffffffffffffffffffffffffffffffffffff168152602001908152602001600020549050919050565b6000806000806000600d541415610eac576402540be40064174876e800039350610edf565b610ebd670de0b6b3a76400006124b1565b9250610ecd83600a60ff166123ef565b9150610ed98383612405565b90508093505b50505090565b60008060008060008060008996508895508573ffffffffffffffffffffffffffffffffffffffff1663d3d6dce7888a6040518363ffffffff167c0100000000000000000000000000000000000000000000000000000000028152600401808373ffffffffffffffffffffffffffffffffffffffff1673ffffffffffffffffffffffffffffffffffffffff16815260200182815260200192505050602060405180830381600087803b158015610f9957600080fd5b505af1158015610fad573d6000803e3d6000fd5b505050506040513d6020811015610fc357600080fd5b810190808051906020019092919050505094508785141515610fe457600080fd5b610fed856124b1565b9350610ff76119fd565b841115151561100557600080fd5b61101384600a60ff166123ef565b925061101f8484612405565b915061102d60105486612561565b60108190555061107c600c60008973ffffffffffffffffffffffffffffffffffffffff1673ffffffffffffffffffffffffffffffffffffffff1681526020019081526020016000205486612561565b600c60008973ffffffffffffffffffffffffffffffffffffffff1673ffffffffffffffffffffffffffffffffffffffff168152602001908152602001600020819055506110c761257d565b905060008111156110fb576110f4600e54826801000000000000000086028115156110ee57fe5b04612561565b600e819055505b8673ffffffffffffffffffffffffffffffffffffffff166108fc839081150290604051600060405180830381858888f19350505050158015611141573d6000803e3d6000fd5b508673ffffffffffffffffffffffffffffffffffffffff167fe9d4fb0074327a194c752e06c8b2fce4a89cd86202090528bb81582a3f20fedd8684604051808381526020018281526020019250505060405180910390a250505050505050505050565b600160009054906101000a900473ffffffffffffffffffffffffffffffffffffffff1673ffffffffffffffffffffffffffffffffffffffff163373ffffffffffffffffffffffffffffffffffffffff1614151561120057600080fd5b600160009054906101000a900473ffffffffffffffffffffffffffffffffffffffff1673ffffffffffffffffffffffffffffffffffffffff166000809054906101000a900473ffffffffffffffffffffffffffffffffffffffff1673ffffffffffffffffffffffffffffffffffffffff167f8be0079c531659141344cd1fd0a4f28419497f9722a3daafe3b4186f6b6457e060405160405180910390a3600160009054906101000a900473ffffffffffffffffffffffffffffffffffffffff166000806101000a81548173ffffffffffffffffffffffffffffffffffffffff021916908373ffffffffffffffffffffffffffffffffffffffff1602179055506000600160006101000a81548173ffffffffffffffffffffffffffffffffffffffff021916908373ffffffffffffffffffffffffffffffffffffffff160217905550565b600080826000611354826001611b44565b11151561136057600080fd5b83925061136e836000611b44565b9150680100000000000000008202600960008573ffffffffffffffffffffffffffffffffffffffff1673ffffffffffffffffffffffffffffffffffffffff16815260200190815260200160002060008282540192505081905550600860008473ffffffffffffffffffffffffffffffffffffffff1673ffffffffffffffffffffffffffffffffffffffff16815260200190815260200160002054820191506000600860008573ffffffffffffffffffffffffffffffffffffffff1673ffffffffffffffffffffffffffffffffffffffff168152602001908152602001600020819055508273ffffffffffffffffffffffffffffffffffffffff166108fc839081150290604051600060405180830381858888f19350505050158015611497573d6000803e3d6000fd5b508273ffffffffffffffffffffffffffffffffffffffff167fccad973dcd043c7d680389db4378bd6b9775db7124092e9e0422c9e46d7985dc836040518082815260200191505060405180910390a250505050565b60045481565b600080600080600080876000611507826116c9565b11151561151357600080fd5b889650600760008873ffffffffffffffffffffffffffffffffffffffff1673ffffffffffffffffffffffffffffffffffffffff16815260200190815260200160002054881115151561156457600080fd5b879550611570866124b1565b945061158085600a60ff166123ef565b935061158c8585612405565b925061159a600d5487612405565b600d819055506115e9600760008973ffffffffffffffffffffffffffffffffffffffff1673ffffffffffffffffffffffffffffffffffffffff1681526020019081526020016000205487612405565b600760008973ffffffffffffffffffffffffffffffffffffffff1673ffffffffffffffffffffffffffffffffffffffff1681526020019081526020016000208190555061163461257d565b9150600082111561166857611661600e548368010000000000000000870281151561165b57fe5b04612561565b600e819055505b8673ffffffffffffffffffffffffffffffffffffffff167fc4823739c5787d2ca17e404aa47d5569ae71dfb49cbf21b3f6152ed238a311398785604051808381526020018281526020019250505060405180910390a2505050505050505050565b6000600760008373ffffffffffffffffffffffffffffffffffffffff1673ffffffffffffffffffffffffffffffffffffffff168152602001908152602001600020549050919050565b6000809054906101000a900473ffffffffffffffffffffffffffffffffffffffff1673ffffffffffffffffffffffffffffffffffffffff163373ffffffffffffffffffffffffffffffffffffffff1614151561176d57600080fd5b6000809054906101000a900473ffffffffffffffffffffffffffffffffffffffff1673ffffffffffffffffffffffffffffffffffffffff167ff8df31144d9c2f0f6b59d69b8b98abd5459d07f2742c4df920b25aae33c6482060405160405180910390a260008060006101000a81548173ffffffffffffffffffffffffffffffffffffffff021916908373ffffffffffffffffffffffffffffffffffffffff160217905550565b6000806000806000600d541415611839576402540be40064174876e80001935061186c565b61184a670de0b6b3a76400006124b1565b925061185a83600a60ff166123ef565b91506118668383612561565b90508093505b50505090565b6000809054906101000a900473ffffffffffffffffffffffffffffffffffffffff1681565b60038054600181600116156101000203166002900480601f01602080910402602001604051908101604052809291908181526020018280546001816001161561010002031660029004801561192d5780601f106119025761010080835404028352916020019161192d565b820191906000526020600020905b81548152906001019060200180831161191057829003601f168201915b505050505081565b600b6020528060005260406000206000915090505481565b600c6020528060005260406000206000915090505481565b60066020528060005260406000206000915054906101000a900460ff1681565b6000809054906101000a900473ffffffffffffffffffffffffffffffffffffffff1673ffffffffffffffffffffffffffffffffffffffff163373ffffffffffffffffffffffffffffffffffffffff161415156119e057600080fd5b6000601160006101000a81548160ff021916908315150217905550565b60003073ffffffffffffffffffffffffffffffffffffffff1631905090565b600080829150600760008373ffffffffffffffffffffffffffffffffffffffff1673ffffffffffffffffffffffffffffffffffffffff1681526020019081526020016000205490506000811115611a7857611a7783826114f2565b5b611a8183611343565b505050565b600080600080600d548511151515611a9d57600080fd5b611aa6856124b1565b9250611ab683600a60ff166123ef565b9150611ac28383612405565b9050809350505050919050565b6000809054906101000a900473ffffffffffffffffffffffffffffffffffffffff1673ffffffffffffffffffffffffffffffffffffffff163373ffffffffffffffffffffffffffffffffffffffff16141515611b2a57600080fd5b8060039080519060200190611b40929190612ef8565b5050565b60008083905082611b5d57611b5881610c66565b611ba8565b600860008273ffffffffffffffffffffffffffffffffffffffff1673ffffffffffffffffffffffffffffffffffffffff16815260200190815260200160002054611ba682610c66565b015b91505092915050565b6000809054906101000a900473ffffffffffffffffffffffffffffffffffffffff1673ffffffffffffffffffffffffffffffffffffffff163373ffffffffffffffffffffffffffffffffffffffff16141515611c0c57600080fd5b8060029080519060200190611c22929190612ef8565b5050565b600080600080856000611c38826116c9565b111515611c4457600080fd5b869350600760008573ffffffffffffffffffffffffffffffffffffffff1673ffffffffffffffffffffffffffffffffffffffff168152602001908152602001600020548611151515611c9557600080fd5b859250611ca4600f5484612561565b600f81905550611cf3600760008673ffffffffffffffffffffffffffffffffffffffff1673ffffffffffffffffffffffffffffffffffffffff1681526020019081526020016000205484612405565b600760008673ffffffffffffffffffffffffffffffffffffffff1673ffffffffffffffffffffffffffffffffffffffff16815260200190815260200160002081905550611d7f600b60008673ffffffffffffffffffffffffffffffffffffffff1673ffffffffffffffffffffffffffffffffffffffff1681526020019081526020016000205484612561565b600b60008673ffffffffffffffffffffffffffffffffffffffff1673ffffffffffffffffffffffffffffffffffffffff1681526020019081526020016000208190555082600e5402915081600960008673ffffffffffffffffffffffffffffffffffffffff1673ffffffffffffffffffffffffffffffffffffffff168152602001908152602001600020600082825403925050819055508373ffffffffffffffffffffffffffffffffffffffff167ff442d356b73f85e354ab3e2be58a493fbcbfc105e75bd7cef5c6d1882bd20715846040518082815260200191505060405180910390a28294505050505092915050565b6000806000846000611e84826001611b44565b111515611e9057600080fd5b611e9b866000611b44565b9350600860008773ffffffffffffffffffffffffffffffffffffffff1673ffffffffffffffffffffffffffffffffffffffff1681526020019081526020016000205492508284018511151515611ef057600080fd5b8385111515611f5657680100000000000000008502600960008873ffffffffffffffffffffffffffffffffffffffff1673ffffffffffffffffffffffffffffffffffffffff1681526020019081526020016000206000828254019250508190555061203d565b680100000000000000008402600960008873ffffffffffffffffffffffffffffffffffffffff1673ffffffffffffffffffffffffffffffffffffffff16815260200190815260200160002060008282540192505081905550611ff9600860008873ffffffffffffffffffffffffffffffffffffffff1673ffffffffffffffffffffffffffffffffffffffff16815260200190815260200160002054858703612405565b600860008873ffffffffffffffffffffffffffffffffffffffff1673ffffffffffffffffffffffffffffffffffffffff168152602001908152602001600020819055505b61204986866000612592565b91508573ffffffffffffffffffffffffffffffffffffffff167fbe339fc14b041c2b0e0f3dd2cd325d0c3668b78378001e53160eab36153264588684604051808381526020018281526020019250505060405180910390a2505050505050565b60006120b6843484612592565b509392505050565b600160009054906101000a900473ffffffffffffffffffffffffffffffffffffffff1681565b6000809054906101000a900473ffffffffffffffffffffffffffffffffffffffff1673ffffffffffffffffffffffffffffffffffffffff163373ffffffffffffffffffffffffffffffffffffffff1614151561213f57600080fd5b80600160006101000a81548173ffffffffffffffffffffffffffffffffffffffff021916908373ffffffffffffffffffffffffffffffffffffffff16021790555050565b600080836000612194826001611b44565b1115156121a057600080fd5b6121ab856000611b44565b9250600860008673ffffffffffffffffffffffffffffffffffffffff1673ffffffffffffffffffffffffffffffffffffffff168152602001908152602001600020549150818301841115151561220057600080fd5b828411151561226657680100000000000000008402600960008773ffffffffffffffffffffffffffffffffffffffff1673ffffffffffffffffffffffffffffffffffffffff1681526020019081526020016000206000828254019250508190555061234d565b680100000000000000008302600960008773ffffffffffffffffffffffffffffffffffffffff1673ffffffffffffffffffffffffffffffffffffffff16815260200190815260200160002060008282540192505081905550612309600860008773ffffffffffffffffffffffffffffffffffffffff1673ffffffffffffffffffffffffffffffffffffffff16815260200190815260200160002054848603612405565b600860008773ffffffffffffffffffffffffffffffffffffffff1673ffffffffffffffffffffffffffffffffffffffff168152602001908152602001600020819055505b8473ffffffffffffffffffffffffffffffffffffffff166108fc859081150290604051600060405180830381858888f19350505050158015612393573d6000803e3d6000fd5b508473ffffffffffffffffffffffffffffffffffffffff167fccad973dcd043c7d680389db4378bd6b9775db7124092e9e0422c9e46d7985dc856040518082815260200191505060405180910390a25050505050565b600f5481565b600081838115156123fc57fe5b04905092915050565b600082821115151561241357fe5b818303905092915050565b600080600080670de0b6b3a764000064174876e80002925061243e612e98565b9150816402540be40061249961249385876402540be40060020202026002870a60026402540be4000a02670de0b6b3a76400008b02670de0b6b3a76400006402540be400026002020260028a0a010101612ead565b86612405565b8115156124a257fe5b04039050809350505050919050565b600080600080670de0b6b3a764000085019250670de0b6b3a76400006124d5612e98565b019150670de0b6b3a764000061254a670de0b6b3a764000085036402540be400670de0b6b3a76400008681151561250857fe5b046402540be4000264174876e8000103026002670de0b6b3a7640000876002890a0381151561253357fe5b046402540be4000281151561254457fe5b04612405565b81151561255357fe5b049050809350505050919050565b6000818301905082811015151561257457fe5b80905092915050565b600061258d600d54600f54612405565b905090565b600080600080600080600089896000829050601160009054906101000a900460ff1680156125d257506801158e460913d00000826125ce6119fd565b0311155b15612ac45760011515600560008373ffffffffffffffffffffffffffffffffffffffff1673ffffffffffffffffffffffffffffffffffffffff16815260200190815260200160002060009054906101000a900460ff1615151480156126805750670de0b6b3a764000082600a60008473ffffffffffffffffffffffffffffffffffffffff1673ffffffffffffffffffffffffffffffffffffffff168152602001908152602001600020540111155b151561268b57600080fd5b6126d4600a60008373ffffffffffffffffffffffffffffffffffffffff1673ffffffffffffffffffffffffffffffffffffffff1681526020019081526020016000205483612561565b600a60008373ffffffffffffffffffffffffffffffffffffffff1673ffffffffffffffffffffffffffffffffffffffff168152602001908152602001600020819055506127258c600a60ff166123ef565b98506127328960036123ef565b975061273e8989612405565b965061274a8c8a612405565b95506127558661241e565b945068010000000000000000870293506000851180156127815750600d5461277f86600d54612561565b115b151561278c57600080fd5b600073ffffffffffffffffffffffffffffffffffffffff168b73ffffffffffffffffffffffffffffffffffffffff16141580156127f557508c73ffffffffffffffffffffffffffffffffffffffff168b73ffffffffffffffffffffffffffffffffffffffff1614155b80156128425750600454600760008d73ffffffffffffffffffffffffffffffffffffffff1673ffffffffffffffffffffffffffffffffffffffff1681526020019081526020016000205410155b156128d857612890600860008d73ffffffffffffffffffffffffffffffffffffffff1673ffffffffffffffffffffffffffffffffffffffff1681526020019081526020016000205489612561565b600860008d73ffffffffffffffffffffffffffffffffffffffff1673ffffffffffffffffffffffffffffffffffffffff168152602001908152602001600020819055506128f3565b6128e28789612561565b965068010000000000000000870293505b6000600d5411156129685761290a600d5486612561565b600d8190555061291861257d565b68010000000000000000880281151561292d57fe5b04600e6000828254019250508190555061294561257d565b68010000000000000000880281151561295a57fe5b048502840384039350612970565b84600d819055505b6129b9600760008f73ffffffffffffffffffffffffffffffffffffffff1673ffffffffffffffffffffffffffffffffffffffff1681526020019081526020016000205486612561565b600760008f73ffffffffffffffffffffffffffffffffffffffff1673ffffffffffffffffffffffffffffffffffffffff168152602001908152602001600020819055508385600e540203600960008f73ffffffffffffffffffffffffffffffffffffffff1673ffffffffffffffffffffffffffffffffffffffff168152602001908152602001600020600082825401925050819055508a73ffffffffffffffffffffffffffffffffffffffff168d73ffffffffffffffffffffffffffffffffffffffff167f022c0d992e4d873a3748436d960d5140c1f9721cf73f7ca5ec679d3d9f4fe2d58e88604051808381526020018281526020019250505060405180910390a3849950612e88565b6000601160006101000a81548160ff021916908315150217905550612aed8c600a60ff166123ef565b9850612afa8960036123ef565b9750612b068989612405565b9650612b128c8a612405565b9550612b1d8661241e565b94506801000000000000000087029350600085118015612b495750600d54612b4786600d54612561565b115b1515612b5457600080fd5b600073ffffffffffffffffffffffffffffffffffffffff168b73ffffffffffffffffffffffffffffffffffffffff1614158015612bbd57508c73ffffffffffffffffffffffffffffffffffffffff168b73ffffffffffffffffffffffffffffffffffffffff1614155b8015612c0a5750600454600760008d73ffffffffffffffffffffffffffffffffffffffff1673ffffffffffffffffffffffffffffffffffffffff1681526020019081526020016000205410155b15612ca057612c58600860008d73ffffffffffffffffffffffffffffffffffffffff1673ffffffffffffffffffffffffffffffffffffffff1681526020019081526020016000205489612561565b600860008d73ffffffffffffffffffffffffffffffffffffffff1673ffffffffffffffffffffffffffffffffffffffff16815260200190815260200160002081905550612cbb565b612caa8789612561565b965068010000000000000000870293505b6000600d541115612d3057612cd2600d5486612561565b600d81905550612ce061257d565b680100000000000000008802811515612cf557fe5b04600e60008282540192505081905550612d0d61257d565b680100000000000000008802811515612d2257fe5b048502840384039350612d38565b84600d819055505b612d81600760008f73ffffffffffffffffffffffffffffffffffffffff1673ffffffffffffffffffffffffffffffffffffffff1681526020019081526020016000205486612561565b600760008f73ffffffffffffffffffffffffffffffffffffffff1673ffffffffffffffffffffffffffffffffffffffff168152602001908152602001600020819055508385600e540203600960008f73ffffffffffffffffffffffffffffffffffffffff1673ffffffffffffffffffffffffffffffffffffffff168152602001908152602001600020600082825401925050819055508a73ffffffffffffffffffffffffffffffffffffffff168d73ffffffffffffffffffffffffffffffffffffffff167f022c0d992e4d873a3748436d960d5140c1f9721cf73f7ca5ec679d3d9f4fe2d58e88604051808381526020018281526020019250505060405180910390a38499505b5050505050505050509392505050565b6000612ea8600d54601054612405565b905090565b600080600260018401811515612ebf57fe5b0490508291505b81811015612ef2578091506002818285811515612edf57fe5b0401811515612eea57fe5b049050612ec6565b50919050565b828054600181600116156101000203166002900490600052602060002090601f016020900481019282601f10612f3957805160ff1916838001178555612f67565b82800160010185558215612f67579182015b82811115612f66578251825591602001919060010190612f4b565b5b509050612f749190612f78565b5090565b612f9a91905b80821115612f96576000816000905550600101612f7e565b5090565b905600a165627a7a72305820f1ec2ac4968ef7d58912002aaf875ee03c6a4918989fbe55a4fdc979761a6dfd0029",
  "source": "pragma solidity ^0.4.21;\r\n\r\nimport \"zeppelin-solidity/contracts/math/SafeMath.sol\";\r\nimport \"zeppelin-solidity/contracts/ownership/Claimable.sol\";\r\nimport \"../contracts/interface/TokenDealerInterface.sol\";\r\n\r\n\r\ncontract EthDealer is Claimable{\r\n    /*=================================\r\n    =            MODIFIERS            =\r\n    =================================*/\r\n    // eth-s3d\r\n    modifier onlyBagholders(address myAddress) {\r\n        require(balanceOf(myAddress) > 0);\r\n        _;\r\n    }\r\n    \r\n    // \r\n    modifier onlyStronghands(address myAddress) {\r\n        require(myDividends(myAddress, true) > 0);\r\n        _;\r\n    }\r\n    \r\n    // ensures that the first tokens in the contract will be equally distributed\r\n    // meaning, no divine dump will be ever possible\r\n    // result: healthy longevity.\r\n    modifier antiEarlyWhale(address buyer, uint256 _amountOfEthereum){\r\n        address _customerAddress = buyer;\r\n        \r\n        // are we still in the vulnerable phase?\r\n        // if so, enact anti early whale protocol \r\n        if( onlyAmbassadors && ((totalBalance() - _amountOfEthereum) <= ambassadorQuota_ )){\r\n            require(\r\n                // is the customer in the ambassador list?\r\n                ambassadors_[_customerAddress] == true &&\r\n                \r\n                // does the customer purchase exceed the max ambassador quota?\r\n                (ambassadorAccumulatedQuota_[_customerAddress] + _amountOfEthereum) <= ambassadorMaxPurchase_\r\n                \r\n            );\r\n            \r\n            // updated the accumulated quota    \r\n            ambassadorAccumulatedQuota_[_customerAddress] = SafeMath.add(ambassadorAccumulatedQuota_[_customerAddress], _amountOfEthereum);\r\n        \r\n            // execute\r\n            _;\r\n        } else {\r\n            // in case the ether count drops low, the ambassador phase won't reinitiate\r\n            onlyAmbassadors = false;\r\n            _;    \r\n        }   \r\n    }\r\n    \r\n    \r\n    /*==============================\r\n    =            EVENTS            =\r\n    ==============================*/\r\n    event onTokenPurchase(\r\n        address indexed customerAddress,\r\n        uint256 incomingEthereum,\r\n        uint256 tokensMinted,\r\n        address indexed referredBy\r\n    );\r\n    \r\n    event onTokenSell(\r\n        address indexed customerAddress,\r\n        uint256 tokensBurned,\r\n        uint256 ethereumEarned\r\n    );\r\n\r\n    event onReinvestment(\r\n        address indexed customerAddress,\r\n        uint256 ethereumReinvested,\r\n        uint256 tokensMinted\r\n    );\r\n    \r\n    event onWithdraw(\r\n        address indexed customerAddress,\r\n        uint256 ethereumWithdrawn\r\n    );\r\n\r\n    event onTokenEscape(\r\n        address indexed customerAddress,\r\n        uint256 tokensEscaped\r\n    );\r\n\r\n    event onTokenArbitrage(\r\n        address indexed customerAddress,\r\n        uint256 tokensBurned,\r\n        uint256 ethereumEarned\r\n    );\r\n    \r\n    // ERC20\r\n    event Transfer(\r\n        address indexed from,\r\n        address indexed to,\r\n        uint256 tokens\r\n    );\r\n    \r\n    \r\n    /*=====================================\r\n    =            CONFIGURABLES            =\r\n    =====================================*/\r\n    string public name = \"Eth-S3D\";\r\n    string public symbol = \"Eth-S3D\";\r\n    uint8 constant public decimals = 18;\r\n    uint8 constant internal dividendFee_ = 10;\r\n    uint256 constant internal tokenPriceInitial_ = 0.0000001 ether;\r\n    uint256 constant internal tokenPriceIncremental_ = 0.00000001 ether;\r\n    uint256 constant internal magnitude = 2**64;\r\n    \r\n    // proof of stake (defaults at 100 tokens)\r\n    uint256 public stakingRequirement = 100e18;\r\n    \r\n    // ambassador program\r\n    mapping(address => bool) internal ambassadors_;\r\n    uint256 constant internal ambassadorMaxPurchase_ = 1 ether;\r\n    uint256 constant internal ambassadorQuota_ = 20 ether;\r\n    \r\n    \r\n    mapping(address => bool) public authorizedAddressInfos;\r\n    modifier onlyAuthorized()\r\n    {\r\n        require(authorizedAddressInfos[msg.sender]);\r\n        _;\r\n    }\r\n\r\n   /*================================\r\n    =            DATASETS            =\r\n    ================================*/\r\n    // amount of shares for each address (scaled number)\r\n    mapping(address => uint256) internal tokenBalanceLedger_;\r\n    mapping(address => uint256) internal referralBalance_;\r\n    mapping(address => int256) internal payoutsTo_;\r\n    mapping(address => uint256) internal ambassadorAccumulatedQuota_;\r\n\r\n    mapping(address => uint256) public escapeTokenBalance_;\r\n    mapping(address => uint256) public overSellTokenBalance_;\r\n\r\n    uint256 internal tokenSupply_ = 0;\r\n    uint256 internal profitPerShare_;\r\n    \r\n    //NEED DO!! change to internal\r\n    uint256 public escapeTokenSuppley_ = 0;\r\n    uint256 public overSellTokenAmount_ = 0;\r\n\r\n    // when this is set to true, only ambassadors can purchase tokens (this prevents a whale premine, it ensures a fairly distributed upper pyramid)\r\n    bool public onlyAmbassadors = true;\r\n    \r\n    /*=======================================\r\n    =            PUBLIC FUNCTIONS            =\r\n    =======================================*/\r\n    /*\r\n    * -- APPLICATION ENTRY POINTS --  \r\n    */\r\n    function EthDealer()\r\n        public\r\n    {\r\n\r\n        // add the ambassadors here.\r\n        // mantso - lead solidity dev & lead web dev. \r\n        ambassadors_[0xCd16575A90eD9506BCf44C78845d93F1b647F48C] = true;\r\n    }\r\n    \r\n     \r\n    /**\r\n     * Converts all incoming ethereum to tokens for the caller, and passes down the referral addy (if any)\r\n     */\r\n    function buy(address buyer, uint amountTokens, address _referredBy)\r\n        public\r\n        payable\r\n        returns(uint256)\r\n    {\r\n        purchaseTokens(buyer, msg.value, _referredBy);\r\n    }\r\n    \r\n    /**\r\n     * Fallback function to handle ethereum that was send straight to the contract\r\n     * Unfortunately we cannot use a referral address this way.\r\n     */\r\n    function()\r\n        payable\r\n        public\r\n    {\r\n        //purchaseTokens(msg.value, 0x0);\r\n    }\r\n    \r\n    /**\r\n     * Converts all of caller's dividends to tokens.\r\n     */\r\n    //\r\n    // function reinvest(address buyer)\r\n    //     onlyStronghands(buyer)\r\n    //     public\r\n    // {\r\n    //     // fetch dividends\r\n    //     uint256 _dividends = myDividends(buyer, false); // retrieve ref. bonus later in the code\r\n        \r\n    //     // pay out the dividends virtually\r\n    //     address _customerAddress = buyer;\r\n    //     payoutsTo_[_customerAddress] +=  (int256) (_dividends * magnitude);\r\n        \r\n    //     // retrieve ref. bonus\r\n    //     _dividends += referralBalance_[_customerAddress];\r\n    //     referralBalance_[_customerAddress] = 0;\r\n        \r\n    //     // dispatch a buy order with the virtualized \"withdrawn dividends\"\r\n    //     uint256 _tokens = purchaseTokens(_customerAddress, _dividends, 0x0);\r\n        \r\n    //     // fire event\r\n    //     emit onReinvestment(_customerAddress, _dividends, _tokens);\r\n    // }\r\n    function reinvest(address buyer, uint buyAmount)\r\n        onlyStronghands(buyer)\r\n        public\r\n    {\r\n        // fetch dividends\r\n        uint256 _dividends = myDividends(buyer, false); // retrieve ref. bonus later in the code\r\n        uint256 _referralBalance = referralBalance_[buyer];\r\n        require(buyAmount <= (_dividends + _referralBalance));\r\n\r\n        if (buyAmount <= _dividends) {\r\n            // pay out the dividends virtually\r\n            payoutsTo_[buyer] +=  (int256)(buyAmount * magnitude);\r\n        } else {\r\n            // retrieve ref. bonus\r\n            payoutsTo_[buyer] +=  (int256) (_dividends * magnitude);\r\n            referralBalance_[buyer] = SafeMath.sub(referralBalance_[buyer], buyAmount - _dividends);\r\n        }\r\n                \r\n        // dispatch a buy order with the virtualized \"withdrawn dividends\"\r\n        uint256 _tokens = purchaseTokens(buyer, buyAmount, 0x0);\r\n        \r\n        // fire event\r\n        emit onReinvestment(buyer, buyAmount, _tokens);\r\n    }\r\n\r\n    \r\n    /**\r\n     * Alias of sell() and withdraw().\r\n    */\r\n    //token \r\n    function exit(address buyer)\r\n        public\r\n    {\r\n        // get token count for caller & sell them all\r\n        address _customerAddress = buyer;\r\n        uint256 _tokens = tokenBalanceLedger_[_customerAddress];\r\n        if(_tokens > 0) \r\n            sell(buyer, _tokens);\r\n        \r\n        // lambo delivery service\r\n        withdraw(buyer);\r\n    }\r\n\r\n    /**\r\n     * Withdraws all of the callers earnings.\r\n     */\r\n    function withdraw(address buyer)\r\n        onlyStronghands(buyer)\r\n        public\r\n    {\r\n        // setup data\r\n        address _customerAddress = buyer;\r\n        uint256 _dividends = myDividends(_customerAddress, false); // get ref. bonus later in the code\r\n        \r\n        // update dividend tracker\r\n        payoutsTo_[_customerAddress] +=  (int256) (_dividends * magnitude);\r\n        \r\n        // add ref. bonus\r\n        _dividends += referralBalance_[_customerAddress];\r\n        referralBalance_[_customerAddress] = 0;\r\n        \r\n        // lambo delivery service\r\n        _customerAddress.transfer(_dividends);\r\n        \r\n        // fire event\r\n        emit onWithdraw(_customerAddress, _dividends);\r\n    }\r\n    \r\n    function withdraw(address buyer, uint256 withdrawAmount)\r\n        onlyStronghands(buyer)\r\n        public\r\n    {\r\n        // setup data\r\n        uint256 _dividends = myDividends(buyer, false); // get ref. bonus later in the code\r\n        uint256 _referralBalance = referralBalance_[buyer];\r\n        require(withdrawAmount <= (_dividends + _referralBalance));\r\n\r\n        if (withdrawAmount <= _dividends) {\r\n            // pay out the dividends virtually\r\n            payoutsTo_[buyer] +=  (int256)(withdrawAmount * magnitude);\r\n        } else {\r\n            // retrieve ref. bonus\r\n            payoutsTo_[buyer] +=  (int256) (_dividends * magnitude);\r\n            referralBalance_[buyer] = SafeMath.sub(referralBalance_[buyer], withdrawAmount - _dividends);\r\n        }\r\n        \r\n        \r\n        // lambo delivery service\r\n        buyer.transfer(withdrawAmount);\r\n        \r\n        // fire event\r\n        emit onWithdraw(buyer, withdrawAmount);\r\n    }\r\n    /**\r\n     * Liquifies tokens to ethereum.\r\n     */\r\n    function sell(address seller, uint256 _amountOfTokens)\r\n        onlyBagholders(seller)\r\n        public\r\n    {\r\n        // setup data\r\n        address _customerAddress = seller;\r\n        // russian hackers BTFO\r\n        require(_amountOfTokens <= tokenBalanceLedger_[_customerAddress]);\r\n        uint256 _tokens = _amountOfTokens;\r\n        uint256 _ethereum = tokensToEthereum_(_tokens);\r\n        uint256 _dividends = SafeMath.div(_ethereum, dividendFee_);\r\n        uint256 _taxedEthereum = SafeMath.sub(_ethereum, _dividends);\r\n        \r\n        // burn the sold tokens\r\n        tokenSupply_ = SafeMath.sub(tokenSupply_, _tokens);\r\n        tokenBalanceLedger_[_customerAddress] = SafeMath.sub(tokenBalanceLedger_[_customerAddress], _tokens);\r\n        \r\n        // update dividends tracker\r\n        //int256 _updatedPayouts = (int256) (profitPerShare_ * _tokens + (_taxedEthereum * magnitude));\r\n        //payoutsTo_[_customerAddress] -= _updatedPayouts;       \r\n\r\n        \r\n        // dividing by zero is a bad idea\r\n        uint256 dividendTokenAmount_ =  getDividendTokenAmount();\r\n        if (dividendTokenAmount_ > 0) {\r\n            // update the amount of dividends per token\r\n            profitPerShare_ = SafeMath.add(profitPerShare_, (_dividends * magnitude) / dividendTokenAmount_);\r\n        }\r\n        \r\n        // fire event\r\n        emit onTokenSell(_customerAddress, _tokens, _taxedEthereum);\r\n    }\r\n\r\n    /**\r\n     * Transfer tokens from the caller to a new holder.\r\n     * Remember, there's a 10% fee here as well.\r\n     */\r\n    // function transfer(address _toAddress, uint256 _amountOfTokens)\r\n    //     onlyBagholders()\r\n    //     public\r\n    //     returns(bool)\r\n    // {\r\n    //     // setup\r\n    //     address _customerAddress = msg.sender;\r\n        \r\n    //     // make sure we have the requested tokens\r\n    //     // also disables transfers until ambassador phase is over\r\n    //     // ( we dont want whale premines )\r\n    //     require(!onlyAmbassadors && _amountOfTokens <= tokenBalanceLedger_[_customerAddress]);\r\n        \r\n    //     // withdraw all outstanding dividends first\r\n    //     if(myDividends(true) > 0) withdraw();\r\n        \r\n    //     // liquify 10% of the tokens that are transfered\r\n    //     // these are dispersed to shareholders\r\n    //     uint256 _tokenFee = SafeMath.div(_amountOfTokens, dividendFee_);\r\n    //     uint256 _taxedTokens = SafeMath.sub(_amountOfTokens, _tokenFee);\r\n    //     uint256 _dividends = tokensToEthereum_(_tokenFee);\r\n  \r\n    //     // burn the fee tokens\r\n    //     tokenSupply_ = SafeMath.sub(tokenSupply_, _tokenFee);\r\n\r\n    //     // exchange tokens\r\n    //     tokenBalanceLedger_[_customerAddress] = SafeMath.sub(tokenBalanceLedger_[_customerAddress], _amountOfTokens);\r\n    //     tokenBalanceLedger_[_toAddress] = SafeMath.add(tokenBalanceLedger_[_toAddress], _taxedTokens);\r\n        \r\n    //     // update dividend trackers\r\n    //     payoutsTo_[_customerAddress] -= (int256) (profitPerShare_ * _amountOfTokens);\r\n    //     payoutsTo_[_toAddress] += (int256) (profitPerShare_ * _taxedTokens);\r\n        \r\n    //     // disperse dividends among holders\r\n    //     profitPerShare_ = SafeMath.add(profitPerShare_, (_dividends * magnitude) / getDividendTokenAmount());\r\n        \r\n    //     // fire event\r\n    //     emit Transfer(_customerAddress, _toAddress, _taxedTokens);\r\n        \r\n    //     // ERC20\r\n    //     return true;\r\n       \r\n    // }\r\n    \r\n    /*----------  ADMINISTRATOR ONLY FUNCTIONS  ----------*/\r\n    /**\r\n     * In case the amassador quota is not met, the administrator can manually disable the ambassador phase.\r\n     */\r\n    function disableInitialStage()\r\n        onlyOwner()\r\n        public\r\n    {\r\n        onlyAmbassadors = false;\r\n    }\r\n    \r\n    /**\r\n     * Precautionary measures in case we need to adjust the masternode rate.\r\n     */\r\n    // function setStakingRequirement(uint256 _amountOfTokens)\r\n    //     onlyOwner()\r\n    //     public\r\n    // {\r\n    //     stakingRequirement = _amountOfTokens;\r\n    // }\r\n    \r\n    /**\r\n     * If we want to rebrand, we can.\r\n     */\r\n    function setName(string _name)\r\n        onlyOwner()\r\n        public\r\n    {\r\n        name = _name;\r\n    }\r\n    \r\n    /**\r\n     * If we want to rebrand, we can.\r\n     */\r\n    function setSymbol(string _symbol)\r\n        onlyOwner()\r\n        public\r\n    {\r\n        symbol = _symbol;\r\n    }\r\n\r\n    \r\n    /*----------  HELPERS AND CALCULATORS  ----------*/\r\n    /**\r\n     * Method to view the current Ethereum stored in the contract\r\n     * Example: totalEthereumBalance()\r\n     */\r\n    function totalBalance()\r\n        public\r\n        view\r\n        returns(uint)\r\n    {\r\n        return address(this).balance;\r\n    }\r\n    \r\n    /**\r\n     * Retrieve the total token supply.\r\n     */\r\n    function totalSupply()\r\n        public\r\n        view\r\n        returns(uint256)\r\n    {\r\n        return tokenSupply_;\r\n    }\r\n    \r\n    /**\r\n     * Retrieve the dividends owned by the caller.\r\n     * If `_includeReferralBonus` is to to 1/true, the referral bonus will be included in the calculations.\r\n     * The reason for this, is that in the frontend, we will want to get the total divs (global + ref)\r\n     * But in the internal calculations, we want them separate. \r\n     */ \r\n    function myDividends(address myAddress, bool _includeReferralBonus) \r\n        public \r\n        view \r\n        returns(uint256)\r\n    {\r\n        address _customerAddress = myAddress;\r\n        return _includeReferralBonus ? dividendsOf(_customerAddress) + referralBalance_[_customerAddress] : dividendsOf(_customerAddress) ;\r\n    }\r\n    \r\n    /**\r\n     * Retrieve the token balance of any single address.\r\n     */\r\n    function balanceOf(address _customerAddress)\r\n        view\r\n        public\r\n        returns(uint256)\r\n    {\r\n        return tokenBalanceLedger_[_customerAddress];\r\n    }\r\n    \r\n    /**\r\n     * Retrieve the dividend balance of any single address.\r\n     */\r\n    function dividendsOf(address _customerAddress)\r\n        view\r\n        public\r\n        returns(uint256)\r\n    {\r\n        return (uint256) ((int256)(profitPerShare_ * tokenBalanceLedger_[_customerAddress]) - payoutsTo_[_customerAddress]) / magnitude;\r\n    }\r\n    \r\n    function referralBalanceOf(address _customerAddress)\r\n        view\r\n        public \r\n        returns(uint256)\r\n    {\r\n        return referralBalance_[_customerAddress];\r\n    }\r\n\r\n    /**\r\n     * Return the buy price of 1 individual token.\r\n     */\r\n    function sellPrice() \r\n        public \r\n        view \r\n        returns(uint256)\r\n    {\r\n        // our calculation relies on the token supply, so we need supply. Doh.\r\n        if(tokenSupply_ == 0){\r\n            return tokenPriceInitial_ - tokenPriceIncremental_;\r\n        } else {\r\n            uint256 _ethereum = tokensToEthereum_(1e18);\r\n            uint256 _dividends = SafeMath.div(_ethereum, dividendFee_  );\r\n            uint256 _taxedEthereum = SafeMath.sub(_ethereum, _dividends);\r\n            return _taxedEthereum;\r\n        }\r\n    }\r\n    \r\n    /**\r\n     * Return the sell price of 1 individual token.\r\n     */\r\n    function buyPrice() \r\n        public \r\n        view \r\n        returns(uint256)\r\n    {\r\n        // our calculation relies on the token supply, so we need supply. Doh.\r\n        if(tokenSupply_ == 0){\r\n            return tokenPriceInitial_ + tokenPriceIncremental_;\r\n        } else {\r\n            uint256 _ethereum = tokensToEthereum_(1e18);\r\n            uint256 _dividends = SafeMath.div(_ethereum, dividendFee_  );\r\n            uint256 _taxedEthereum = SafeMath.add(_ethereum, _dividends);\r\n            return _taxedEthereum;\r\n        }\r\n    }\r\n    \r\n    /**\r\n     * Function for the frontend to dynamically retrieve the price scaling of buy orders.\r\n     */\r\n    function calculateTokensReceived(uint256 _ethereumToSpend) \r\n        public \r\n        view \r\n        returns(uint256)\r\n    {\r\n        uint256 _dividends = SafeMath.div(_ethereumToSpend, dividendFee_);\r\n        uint256 _taxedEthereum = SafeMath.sub(_ethereumToSpend, _dividends);\r\n        uint256 _amountOfTokens = ethereumToTokens_(_taxedEthereum);\r\n        \r\n        return _amountOfTokens;\r\n    }\r\n    \r\n    function calculateBuyTokenSpend(uint256 _tokensToBuy)\r\n        public \r\n        view\r\n        returns(uint256)\r\n    {\r\n        uint256 _ethereum = tokensToEthereum_(_tokensToBuy);\r\n        uint256 _dividends = SafeMath.div(_ethereum, dividendFee_);\r\n        uint256 _taxedEthereum = SafeMath.sub(_ethereum, _dividends);\r\n        return _taxedEthereum;\r\n    }\r\n\r\n    /**\r\n     * Function for the frontend to dynamically retrieve the price scaling of sell orders.\r\n     */\r\n    function calculateBuyTokenReceived(uint256 _tokensToSell) \r\n        public \r\n        view \r\n        returns(uint256)\r\n    {\r\n        require(_tokensToSell <= tokenSupply_);\r\n        uint256 _ethereum = tokensToEthereum_(_tokensToSell);\r\n        uint256 _dividends = SafeMath.div(_ethereum, dividendFee_);\r\n        uint256 _taxedEthereum = SafeMath.sub(_ethereum, _dividends);\r\n        return _taxedEthereum;\r\n    }\r\n    \r\n    \r\n    /*==========================================\r\n    =            INTERNAL FUNCTIONS            =\r\n    ==========================================*/\r\n    function purchaseTokens(address buyer, uint256 _incomingEthereum, address _referredBy)\r\n        antiEarlyWhale(buyer, _incomingEthereum)\r\n        internal\r\n        returns(uint256)\r\n    {\r\n        // data setup\r\n        //address _customerAddress = buyer;\r\n        uint256 _undividedDividends = SafeMath.div(_incomingEthereum, dividendFee_);\r\n        uint256 _referralBonus = SafeMath.div(_undividedDividends, 3);\r\n        uint256 _dividends = SafeMath.sub(_undividedDividends, _referralBonus);\r\n        uint256 _taxedEthereum = SafeMath.sub(_incomingEthereum, _undividedDividends);\r\n        uint256 _amountOfTokens = ethereumToTokens_(_taxedEthereum);\r\n        uint256 _fee = _dividends * magnitude;\r\n \r\n        // no point in continuing execution if OP is a poorfag russian hacker\r\n        // prevents overflow in the case that the pyramid somehow magically starts being used by everyone in the world\r\n        // (or hackers)\r\n        // and yes we know that the safemath function automatically rules out the \"greater then\" equasion.\r\n        require(_amountOfTokens > 0 && (SafeMath.add(_amountOfTokens,tokenSupply_) > tokenSupply_));\r\n        \r\n        // is the user referred by a masternode?\r\n        if(\r\n            // is this a referred purchase?\r\n            _referredBy != 0x0000000000000000000000000000000000000000 &&\r\n\r\n            // no cheating!\r\n            _referredBy != buyer &&\r\n            \r\n            // does the referrer have at least X whole tokens?\r\n            // i.e is the referrer a godly chad masternode\r\n            tokenBalanceLedger_[_referredBy] >= stakingRequirement\r\n        ){\r\n            // wealth redistribution\r\n            referralBalance_[_referredBy] = SafeMath.add(referralBalance_[_referredBy], _referralBonus);\r\n        } else {\r\n            // no ref purchase\r\n            // add the referral bonus back to the global dividends cake\r\n            _dividends = SafeMath.add(_dividends, _referralBonus);\r\n            _fee = _dividends * magnitude;\r\n        }\r\n        \r\n        // we can't give people infinite ethereum\r\n        if(tokenSupply_ > 0){\r\n            \r\n            // add tokens to the pool\r\n            tokenSupply_ = SafeMath.add(tokenSupply_, _amountOfTokens);\r\n \r\n            //uint256 dividendTokenAmount_ =  getDividendTokenAmount();\r\n\r\n            // take the amount of dividends gained through this transaction, and allocates them evenly to each shareholder\r\n            profitPerShare_ += (_dividends * magnitude / (getDividendTokenAmount()));\r\n            \r\n            // calculate the amount of tokens the customer receives over his purchase \r\n            _fee = _fee - (_fee-(_amountOfTokens * (_dividends * magnitude / (getDividendTokenAmount()))));\r\n        \r\n        } else {\r\n            // add tokens to the pool\r\n            tokenSupply_ = _amountOfTokens;\r\n        }\r\n        \r\n        // update circulating supply & the ledger address for the customer\r\n        tokenBalanceLedger_[buyer] = SafeMath.add(tokenBalanceLedger_[buyer], _amountOfTokens);\r\n        \r\n        // Tells the contract that the buyer doesn't deserve dividends for the tokens before they owned them;\r\n        //really i know you think you do but you don't\r\n        //int256 _updatedPayouts = (int256) ((profitPerShare_ * _amountOfTokens) - _fee);\r\n        payoutsTo_[buyer] += (int256) ((profitPerShare_ * _amountOfTokens) - _fee);\r\n        \r\n        // fire event\r\n        emit onTokenPurchase(buyer, _incomingEthereum, _amountOfTokens, _referredBy);\r\n        \r\n        return _amountOfTokens;\r\n    }\r\n\r\n    /**\r\n     * Calculate Token price based on an amount of incoming ethereum\r\n     * It's an algorithm, hopefully we gave you the whitepaper with it in scientific notation;\r\n     * Some conversions occurred to prevent decimal errors or underflows / overflows in solidity code.\r\n     */\r\n    function ethereumToTokens_(uint256 _ethereum)\r\n        internal\r\n        view\r\n        returns(uint256)\r\n    {\r\n        uint256 _tokenPriceInitial = tokenPriceInitial_ * 1e18;\r\n        uint256 _tokenSupply =  getPricedTokenAmount();\r\n        uint256 _tokensReceived = \r\n         (\r\n            (\r\n                // underflow attempts BTFO\r\n                SafeMath.sub(\r\n                    (sqrt\r\n                        (\r\n                            (_tokenPriceInitial**2)\r\n                            +\r\n                            (2*(tokenPriceIncremental_ * 1e18)*(_ethereum * 1e18))\r\n                            +\r\n                            (((tokenPriceIncremental_)**2)*(_tokenSupply**2))\r\n                            +\r\n                            (2*(tokenPriceIncremental_)*_tokenPriceInitial*_tokenSupply)\r\n                        )\r\n                    ), _tokenPriceInitial\r\n                )\r\n            )/(tokenPriceIncremental_)\r\n        )-(_tokenSupply)\r\n        ;\r\n  \r\n        return _tokensReceived;\r\n    }\r\n    \r\n    /**\r\n     * Calculate token sell value.\r\n     * It's an algorithm, hopefully we gave you the whitepaper with it in scientific notation;\r\n     * Some conversions occurred to prevent decimal errors or underflows / overflows in solidity code.\r\n     */\r\n     function tokensToEthereum_(uint256 _tokens)\r\n        internal\r\n        view\r\n        returns(uint256)\r\n    {\r\n\r\n        uint256 tokens_ = (_tokens + 1e18);\r\n        uint256 _tokenSupply = (getPricedTokenAmount() + 1e18);\r\n        uint256 _etherReceived =\r\n        (\r\n            // underflow attempts BTFO\r\n            SafeMath.sub(\r\n                (\r\n                    (\r\n                        (\r\n                            tokenPriceInitial_ +(tokenPriceIncremental_ * (_tokenSupply/1e18))\r\n                        )-tokenPriceIncremental_\r\n                    )*(tokens_ - 1e18)\r\n                ),(tokenPriceIncremental_*((tokens_**2-tokens_)/1e18))/2\r\n            )\r\n        /1e18);\r\n        return _etherReceived;\r\n    }\r\n    \r\n    \r\n    //This is where all your gas goes, sorry\r\n    //Not sorry, you probably only paid 1 gwei\r\n    function sqrt(uint x) internal pure returns (uint y) {\r\n        uint z = (x + 1) / 2;\r\n        y = x;\r\n        while (z < y) {\r\n            y = z;\r\n            z = (x / z + z) / 2;\r\n        }\r\n    }\r\n\r\n    //token\r\n    function getDividendTokenAmount() internal view returns (uint256) {\r\n        //exclude escape token\r\n        return SafeMath.sub(tokenSupply_ , escapeTokenSuppley_);\r\n    }\r\n\r\n    //tokenoverselltoken\r\n    function getPricedTokenAmount() internal view returns (uint256) {\r\n        return SafeMath.sub(tokenSupply_, overSellTokenAmount_);\r\n    }\r\n\r\n\r\n    //NEW FUNCTION        \r\n    function escapeTokens(address sellerAddress, uint256 _amountOfTokens) \r\n            onlyBagholders(sellerAddress) \r\n            public returns(uint256)\r\n    {\r\n        // setup data\r\n        address _customerAddress = sellerAddress;\r\n\r\n        // russian hackers BTFO\r\n        require(_amountOfTokens <= tokenBalanceLedger_[_customerAddress]);\r\n        uint256 _tokens = _amountOfTokens;\r\n\r\n        // add the sold tokens to escape tokens\r\n        escapeTokenSuppley_ = SafeMath.add(escapeTokenSuppley_, _tokens);\r\n        tokenBalanceLedger_[_customerAddress] = SafeMath.sub(tokenBalanceLedger_[_customerAddress], _tokens);\r\n        escapeTokenBalance_[_customerAddress] = SafeMath.add(escapeTokenBalance_[_customerAddress], _tokens);\r\n   \r\n        // update dividends tracker\r\n        // take you token dividends\r\n        int256 _updatedPayouts = (int256) (profitPerShare_ * _tokens);\r\n        payoutsTo_[_customerAddress] -= _updatedPayouts;       \r\n\r\n        // fire event\r\n        emit onTokenEscape(_customerAddress, _tokens);\r\n        return _tokens;\r\n    }\r\n\r\n    function arbitrageTokens(address sellerAddress, address sellTokenAddress, uint256 _amountOfTokens) public\r\n    {\r\n        // setup data\r\n        address _customerAddress = sellerAddress;\r\n        \r\n        TokenDealerInterface escapeContract = TokenDealerInterface(sellTokenAddress);\r\n        uint256 _tokens = escapeContract.escapeTokens(_customerAddress, _amountOfTokens);\r\n\r\n        require(_tokens == _amountOfTokens);\r\n\r\n        // russian hackers BTFO\r\n        uint256 _ethereum = tokensToEthereum_(_tokens);\r\n        require(_ethereum <= totalBalance());\r\n\r\n        uint256 _dividends = SafeMath.div(_ethereum, dividendFee_);\r\n        uint256 _taxedEthereum = SafeMath.sub(_ethereum, _dividends);\r\n        \r\n        // burn the sold tokens\r\n        //tokenSupply_ = SafeMath.sub(tokenSupply_, _tokens);\r\n        //tokenBalanceLedger_[_customerAddress] = SafeMath.sub(tokenBalanceLedger_[_customerAddress], _tokens);\r\n\r\n        // add escape tokens to oversell\r\n        overSellTokenAmount_ = SafeMath.add(overSellTokenAmount_, _tokens);\r\n        overSellTokenBalance_[_customerAddress] = SafeMath.add(overSellTokenBalance_[_customerAddress], _tokens);\r\n\r\n             \r\n        // dividing by zero is a bad idea\r\n        uint256 dividendTokenAmount_ =  getDividendTokenAmount();\r\n        if (dividendTokenAmount_ > 0) {\r\n            // update the amount of dividends per token\r\n            profitPerShare_ = SafeMath.add(profitPerShare_, (_dividends * magnitude) / dividendTokenAmount_);\r\n        }\r\n        \r\n        // lambo delivery service\r\n        _customerAddress.transfer(_taxedEthereum);\r\n\r\n        // fire event\r\n        emit onTokenArbitrage(_customerAddress, _tokens, _taxedEthereum);\r\n    }\r\n}\r\n",
  "sourcePath": "D:\\work\\truffle\\s3d\\contracts\\EthDealer.sol",
  "compiler": {
    "name": "solc",
    "version": "0.4.24+commit.e67f0147.Emscripten.clang"
  },
  "schemaVersion": "2.0.1",
  "updatedAt": "2018-08-16T11:34:05.548Z"
}