{
  "contractName": "EthDealer",
  "abi": [
    {
      "constant": false,
      "inputs": [
        {
          "name": "incomingToken",
          "type": "uint256"
        },
        {
          "name": "referredBy",
          "type": "address"
        }
      ],
      "name": "purchaseTokens",
      "outputs": [
        {
          "name": "",
          "type": "uint256"
        }
      ],
      "payable": true,
      "stateMutability": "payable",
      "type": "function"
    }
  ],
  "bytecode": "0x608060405234801561001057600080fd5b5060ce8061001f6000396000f300608060405260043610603f576000357c0100000000000000000000000000000000000000000000000000000000900463ffffffff168063504cceac146044575b600080fd5b608060048036038101908080359060200190929190803573ffffffffffffffffffffffffffffffffffffffff1690602001909291905050506096565b6040518082815260200191505060405180910390f35b600060649050929150505600a165627a7a7230582062d0361468335dd78f26c5367a1c6f560f83c815415d45e90930669c5714d8d50029",
  "source": "pragma solidity ^0.4.24;\r\n\r\n\r\ncontract EthDealer {\r\n    function purchaseTokens(uint256 incomingToken, address referredBy) external payable returns(uint256){\r\n        return 100;\r\n    }\r\n}",
  "sourcePath": "D:\\work\\truffle\\s3d\\contracts\\EthDealer.sol",
  "compiler": {
    "name": "solc",
    "version": "0.4.24+commit.e67f0147.Emscripten.clang"
  },
  "schemaVersion": "2.0.1",
  "updatedAt": "2018-08-08T11:30:20.937Z"
}