{
  "contractName": "EthDealer",
  "abi": [
    {
      "constant": true,
      "inputs": [
        {
          "name": "_customerAddress",
          "type": "address"
        }
      ],
      "name": "dividendsOf",
      "outputs": [
        {
          "name": "",
          "type": "uint256"
        }
      ],
      "payable": false,
      "stateMutability": "view",
      "type": "function"
    },
    {
      "constant": true,
      "inputs": [],
      "name": "name",
      "outputs": [
        {
          "name": "",
          "type": "string"
        }
      ],
      "payable": false,
      "stateMutability": "view",
      "type": "function"
    },
    {
      "constant": true,
      "inputs": [
        {
          "name": "_operator",
          "type": "address"
        },
        {
          "name": "_role",
          "type": "string"
        }
      ],
      "name": "checkRole",
      "outputs": [],
      "payable": false,
      "stateMutability": "view",
      "type": "function"
    },
    {
      "constant": true,
      "inputs": [
        {
          "name": "_buyTokenToSpend",
          "type": "uint256"
        }
      ],
      "name": "calculateTokensReceived",
      "outputs": [
        {
          "name": "",
          "type": "uint256"
        }
      ],
      "payable": false,
      "stateMutability": "view",
      "type": "function"
    },
    {
      "constant": true,
      "inputs": [
        {
          "name": "_tokensToBuy",
          "type": "uint256"
        }
      ],
      "name": "calculateBuyTokenSpend",
      "outputs": [
        {
          "name": "",
          "type": "uint256"
        }
      ],
      "payable": false,
      "stateMutability": "view",
      "type": "function"
    },
    {
      "constant": true,
      "inputs": [],
      "name": "totalSupply",
      "outputs": [
        {
          "name": "",
          "type": "uint256"
        }
      ],
      "payable": false,
      "stateMutability": "view",
      "type": "function"
    },
    {
      "constant": true,
      "inputs": [],
      "name": "ROLE_WHITELISTED",
      "outputs": [
        {
          "name": "",
          "type": "string"
        }
      ],
      "payable": false,
      "stateMutability": "view",
      "type": "function"
    },
    {
      "constant": true,
      "inputs": [],
      "name": "getProfitPerShare",
      "outputs": [
        {
          "name": "",
          "type": "uint256"
        }
      ],
      "payable": false,
      "stateMutability": "view",
      "type": "function"
    },
    {
      "constant": true,
      "inputs": [
        {
          "name": "_operator",
          "type": "address"
        },
        {
          "name": "_role",
          "type": "string"
        }
      ],
      "name": "hasRole",
      "outputs": [
        {
          "name": "",
          "type": "bool"
        }
      ],
      "payable": false,
      "stateMutability": "view",
      "type": "function"
    },
    {
      "constant": false,
      "inputs": [
        {
          "name": "_operators",
          "type": "address[]"
        }
      ],
      "name": "removeAddressesFromWhitelist",
      "outputs": [],
      "payable": false,
      "stateMutability": "nonpayable",
      "type": "function"
    },
    {
      "constant": true,
      "inputs": [],
      "name": "onlyAmbassadors",
      "outputs": [
        {
          "name": "",
          "type": "bool"
        }
      ],
      "payable": false,
      "stateMutability": "view",
      "type": "function"
    },
    {
      "constant": false,
      "inputs": [
        {
          "name": "_operator",
          "type": "address"
        }
      ],
      "name": "removeAddressFromWhitelist",
      "outputs": [],
      "payable": false,
      "stateMutability": "nonpayable",
      "type": "function"
    },
    {
      "constant": true,
      "inputs": [
        {
          "name": "_customerAddress",
          "type": "address"
        }
      ],
      "name": "referralBalanceOf",
      "outputs": [
        {
          "name": "",
          "type": "uint256"
        }
      ],
      "payable": false,
      "stateMutability": "view",
      "type": "function"
    },
    {
      "constant": true,
      "inputs": [],
      "name": "sellPrice",
      "outputs": [
        {
          "name": "",
          "type": "uint256"
        }
      ],
      "payable": false,
      "stateMutability": "view",
      "type": "function"
    },
    {
      "constant": false,
      "inputs": [],
      "name": "claimOwnership",
      "outputs": [],
      "payable": false,
      "stateMutability": "nonpayable",
      "type": "function"
    },
    {
      "constant": true,
      "inputs": [
        {
          "name": "_customerAddress",
          "type": "address"
        }
      ],
      "name": "balanceOf",
      "outputs": [
        {
          "name": "",
          "type": "uint256"
        }
      ],
      "payable": false,
      "stateMutability": "view",
      "type": "function"
    },
    {
      "constant": false,
      "inputs": [],
      "name": "renounceOwnership",
      "outputs": [],
      "payable": false,
      "stateMutability": "nonpayable",
      "type": "function"
    },
    {
      "constant": false,
      "inputs": [
        {
          "name": "_operator",
          "type": "address"
        }
      ],
      "name": "addAddressToWhitelist",
      "outputs": [],
      "payable": false,
      "stateMutability": "nonpayable",
      "type": "function"
    },
    {
      "constant": true,
      "inputs": [],
      "name": "buyPrice",
      "outputs": [
        {
          "name": "",
          "type": "uint256"
        }
      ],
      "payable": false,
      "stateMutability": "view",
      "type": "function"
    },
    {
      "constant": true,
      "inputs": [],
      "name": "owner",
      "outputs": [
        {
          "name": "",
          "type": "address"
        }
      ],
      "payable": false,
      "stateMutability": "view",
      "type": "function"
    },
    {
      "constant": true,
      "inputs": [],
      "name": "symbol",
      "outputs": [
        {
          "name": "",
          "type": "string"
        }
      ],
      "payable": false,
      "stateMutability": "view",
      "type": "function"
    },
    {
      "constant": true,
      "inputs": [
        {
          "name": "_operator",
          "type": "address"
        }
      ],
      "name": "whitelist",
      "outputs": [
        {
          "name": "",
          "type": "bool"
        }
      ],
      "payable": false,
      "stateMutability": "view",
      "type": "function"
    },
    {
      "constant": true,
      "inputs": [
        {
          "name": "_tokensToSell",
          "type": "uint256"
        }
      ],
      "name": "calculateBuyTokenReceived",
      "outputs": [
        {
          "name": "",
          "type": "uint256"
        }
      ],
      "payable": false,
      "stateMutability": "view",
      "type": "function"
    },
    {
      "constant": false,
      "inputs": [
        {
          "name": "_operators",
          "type": "address[]"
        }
      ],
      "name": "addAddressesToWhitelist",
      "outputs": [],
      "payable": false,
      "stateMutability": "nonpayable",
      "type": "function"
    },
    {
      "constant": true,
      "inputs": [],
      "name": "pendingOwner",
      "outputs": [
        {
          "name": "",
          "type": "address"
        }
      ],
      "payable": false,
      "stateMutability": "view",
      "type": "function"
    },
    {
      "constant": false,
      "inputs": [
        {
          "name": "newOwner",
          "type": "address"
        }
      ],
      "name": "transferOwnership",
      "outputs": [],
      "payable": false,
      "stateMutability": "nonpayable",
      "type": "function"
    },
    {
      "inputs": [],
      "payable": false,
      "stateMutability": "nonpayable",
      "type": "constructor"
    },
    {
      "payable": true,
      "stateMutability": "payable",
      "type": "fallback"
    },
    {
      "anonymous": false,
      "inputs": [
        {
          "indexed": true,
          "name": "customerAddress",
          "type": "address"
        },
        {
          "indexed": false,
          "name": "incomingTokens",
          "type": "uint256"
        },
        {
          "indexed": false,
          "name": "s3dMinted",
          "type": "uint256"
        },
        {
          "indexed": true,
          "name": "referredBy",
          "type": "address"
        }
      ],
      "name": "onTokenPurchase",
      "type": "event"
    },
    {
      "anonymous": false,
      "inputs": [
        {
          "indexed": true,
          "name": "customerAddress",
          "type": "address"
        },
        {
          "indexed": false,
          "name": "s3dBurned",
          "type": "uint256"
        },
        {
          "indexed": false,
          "name": "tokenEarned",
          "type": "uint256"
        }
      ],
      "name": "onTokenSell",
      "type": "event"
    },
    {
      "anonymous": false,
      "inputs": [
        {
          "indexed": true,
          "name": "customerAddress",
          "type": "address"
        },
        {
          "indexed": false,
          "name": "tokenReinvested",
          "type": "uint256"
        },
        {
          "indexed": false,
          "name": "s3dMinted",
          "type": "uint256"
        }
      ],
      "name": "onReinvestment",
      "type": "event"
    },
    {
      "anonymous": false,
      "inputs": [
        {
          "indexed": true,
          "name": "customerAddress",
          "type": "address"
        },
        {
          "indexed": false,
          "name": "tokenWithdrawn",
          "type": "uint256"
        }
      ],
      "name": "onWithdraw",
      "type": "event"
    },
    {
      "anonymous": false,
      "inputs": [
        {
          "indexed": true,
          "name": "customerAddress",
          "type": "address"
        },
        {
          "indexed": false,
          "name": "s3dEscaped",
          "type": "uint256"
        }
      ],
      "name": "onTokenEscape",
      "type": "event"
    },
    {
      "anonymous": false,
      "inputs": [
        {
          "indexed": true,
          "name": "customerAddress",
          "type": "address"
        },
        {
          "indexed": false,
          "name": "s3dBurned",
          "type": "uint256"
        },
        {
          "indexed": false,
          "name": "tokenEarned",
          "type": "uint256"
        }
      ],
      "name": "onTokenArbitrage",
      "type": "event"
    },
    {
      "anonymous": false,
      "inputs": [
        {
          "indexed": true,
          "name": "operator",
          "type": "address"
        },
        {
          "indexed": false,
          "name": "role",
          "type": "string"
        }
      ],
      "name": "RoleAdded",
      "type": "event"
    },
    {
      "anonymous": false,
      "inputs": [
        {
          "indexed": true,
          "name": "operator",
          "type": "address"
        },
        {
          "indexed": false,
          "name": "role",
          "type": "string"
        }
      ],
      "name": "RoleRemoved",
      "type": "event"
    },
    {
      "anonymous": false,
      "inputs": [
        {
          "indexed": true,
          "name": "previousOwner",
          "type": "address"
        }
      ],
      "name": "OwnershipRenounced",
      "type": "event"
    },
    {
      "anonymous": false,
      "inputs": [
        {
          "indexed": true,
          "name": "previousOwner",
          "type": "address"
        },
        {
          "indexed": true,
          "name": "newOwner",
          "type": "address"
        }
      ],
      "name": "OwnershipTransferred",
      "type": "event"
    },
    {
      "constant": false,
      "inputs": [
        {
          "name": "_buyer",
          "type": "address"
        },
        {
          "name": "_amountTokens",
          "type": "uint256"
        },
        {
          "name": "_referredBy",
          "type": "address"
        }
      ],
      "name": "buy",
      "outputs": [
        {
          "name": "",
          "type": "uint256"
        }
      ],
      "payable": true,
      "stateMutability": "payable",
      "type": "function"
    },
    {
      "constant": false,
      "inputs": [
        {
          "name": "_buyer",
          "type": "address"
        },
        {
          "name": "_buyAmount",
          "type": "uint256"
        }
      ],
      "name": "reinvest",
      "outputs": [],
      "payable": false,
      "stateMutability": "nonpayable",
      "type": "function"
    },
    {
      "constant": false,
      "inputs": [
        {
          "name": "_buyer",
          "type": "address"
        }
      ],
      "name": "exit",
      "outputs": [],
      "payable": false,
      "stateMutability": "nonpayable",
      "type": "function"
    },
    {
      "constant": false,
      "inputs": [
        {
          "name": "_buyer",
          "type": "address"
        }
      ],
      "name": "withdrawAll",
      "outputs": [],
      "payable": false,
      "stateMutability": "nonpayable",
      "type": "function"
    },
    {
      "constant": false,
      "inputs": [
        {
          "name": "_buyer",
          "type": "address"
        },
        {
          "name": "_withdrawAmount",
          "type": "uint256"
        }
      ],
      "name": "withdraw",
      "outputs": [],
      "payable": false,
      "stateMutability": "nonpayable",
      "type": "function"
    },
    {
      "constant": false,
      "inputs": [
        {
          "name": "_seller",
          "type": "address"
        },
        {
          "name": "_amountOfTokens",
          "type": "uint256"
        }
      ],
      "name": "sell",
      "outputs": [],
      "payable": false,
      "stateMutability": "nonpayable",
      "type": "function"
    },
    {
      "constant": false,
      "inputs": [],
      "name": "disableInitialStage",
      "outputs": [],
      "payable": false,
      "stateMutability": "nonpayable",
      "type": "function"
    },
    {
      "constant": true,
      "inputs": [],
      "name": "totalBalance",
      "outputs": [
        {
          "name": "",
          "type": "uint256"
        }
      ],
      "payable": false,
      "stateMutability": "view",
      "type": "function"
    },
    {
      "constant": false,
      "inputs": [
        {
          "name": "_sellerAddress",
          "type": "address"
        },
        {
          "name": "_amountOfTokens",
          "type": "uint256"
        }
      ],
      "name": "escapeTokens",
      "outputs": [
        {
          "name": "",
          "type": "uint256"
        }
      ],
      "payable": false,
      "stateMutability": "nonpayable",
      "type": "function"
    },
    {
      "constant": false,
      "inputs": [
        {
          "name": "_sellerAddress",
          "type": "address"
        },
        {
          "name": "_amountOfTokens",
          "type": "uint256"
        }
      ],
      "name": "arbitrageTokens",
      "outputs": [
        {
          "name": "",
          "type": "uint256"
        }
      ],
      "payable": false,
      "stateMutability": "nonpayable",
      "type": "function"
    }
  ],
  "bytecode": "0x608060405260006009556000600b556000600c5564174876e800600d556402540be400600e556001600f60006101000a81548160ff0219169083151502179055506040805190810160405280600781526020017f4574682d53334400000000000000000000000000000000000000000000000000815250601090805190602001906200008d929190620001b4565b506040805190810160405280600781526020017f4574682d5333440000000000000000000000000000000000000000000000000081525060119080519060200190620000db929190620001b4565b50348015620000e957600080fd5b50336000806101000a81548173ffffffffffffffffffffffffffffffffffffffff021916908373ffffffffffffffffffffffffffffffffffffffff16021790555064174876e800600d819055506402540be400600e8190555060016012600073cd16575a90ed9506bcf44c78845d93f1b647f48c73ffffffffffffffffffffffffffffffffffffffff1673ffffffffffffffffffffffffffffffffffffffff16815260200190815260200160002060006101000a81548160ff02191690831515021790555062000263565b828054600181600116156101000203166002900490600052602060002090601f016020900481019282601f10620001f757805160ff191683800117855562000228565b8280016001018555821562000228579182015b82811115620002275782518255916020019190600101906200020a565b5b5090506200023791906200023b565b5090565b6200026091905b808211156200025c57600081600090555060010162000242565b5090565b90565b61370180620002736000396000f3006080604052600436106101c1576000357c0100000000000000000000000000000000000000000000000000000000900463ffffffff16806265318b146101c357806306fdde031461021a5780630988ca8c146102aa57806310d0ffdd14610333578063150c95a81461037457806318160ddd146103b557806318b919e9146103e05780631aebcb8914610470578063217fe6c61461049b57806324953eaa1461053c57806327defa1f146105a2578063286dd3f5146105d15780633be8eb7e1461061457806346534649146106755780634b750334146106cc5780634e71e0c8146106f75780636c197ff51461070e57806370a082311461075b578063715018a6146107b25780637b9417c8146107c95780638620410b1461080c5780638da5cb5b1461083757806395d89b411461088e5780639b19251a1461091e578063a8e04f3414610979578063ad7a672f14610990578063b42652e9146109bb578063b73f34b4146109fe578063d3d6dce714610a3f578063d65a261714610aa0578063db61c76e14610aed578063e2ec6ec314610b61578063e30c397814610bc7578063f2fde38b14610c1e578063f3fef3a314610c61578063fa09e63014610cae575b005b3480156101cf57600080fd5b50610204600480360381019080803573ffffffffffffffffffffffffffffffffffffffff169060200190929190505050610cf1565b6040518082815260200191505060405180910390f35b34801561022657600080fd5b5061022f610d93565b6040518080602001828103825283818151815260200191508051906020019080838360005b8381101561026f578082015181840152602081019050610254565b50505050905090810190601f16801561029c5780820380516001836020036101000a031916815260200191505b509250505060405180910390f35b3480156102b657600080fd5b50610331600480360381019080803573ffffffffffffffffffffffffffffffffffffffff169060200190929190803590602001908201803590602001908080601f0160208091040260200160405190810160405280939291908181526020018383808284378201915050505050509192919290505050610e31565b005b34801561033f57600080fd5b5061035e60048036038101908080359060200190929190505050610eb2565b6040518082815260200191505060405180910390f35b34801561038057600080fd5b5061039f60048036038101908080359060200190929190505050610eea565b6040518082815260200191505060405180910390f35b3480156103c157600080fd5b506103ca610f22565b6040518082815260200191505060405180910390f35b3480156103ec57600080fd5b506103f5610f2c565b6040518080602001828103825283818151815260200191508051906020019080838360005b8381101561043557808201518184015260208101905061041a565b50505050905090810190601f1680156104625780820380516001836020036101000a031916815260200191505b509250505060405180910390f35b34801561047c57600080fd5b50610485610f65565b6040518082815260200191505060405180910390f35b3480156104a757600080fd5b50610522600480360381019080803573ffffffffffffffffffffffffffffffffffffffff169060200190929190803590602001908201803590602001908080601f0160208091040260200160405190810160405280939291908181526020018383808284378201915050505050509192919290505050610f6f565b604051808215151515815260200191505060405180910390f35b34801561054857600080fd5b506105a060048036038101908080359060200190820180359060200190808060200260200160405190810160405280939291908181526020018383602002808284378201915050505050509192919290505050610ff6565b005b3480156105ae57600080fd5b506105b7611092565b604051808215151515815260200191505060405180910390f35b3480156105dd57600080fd5b50610612600480360381019080803573ffffffffffffffffffffffffffffffffffffffff1690602001909291905050506110a5565b005b34801561062057600080fd5b5061065f600480360381019080803573ffffffffffffffffffffffffffffffffffffffff16906020019092919080359060200190929190505050611142565b6040518082815260200191505060405180910390f35b34801561068157600080fd5b506106b6600480360381019080803573ffffffffffffffffffffffffffffffffffffffff169060200190929190505050611367565b6040518082815260200191505060405180910390f35b3480156106d857600080fd5b506106e16113b0565b6040518082815260200191505060405180910390f35b34801561070357600080fd5b5061070c61140d565b005b34801561071a57600080fd5b50610759600480360381019080803573ffffffffffffffffffffffffffffffffffffffff169060200190929190803590602001909291905050506115ac565b005b34801561076757600080fd5b5061079c600480360381019080803573ffffffffffffffffffffffffffffffffffffffff169060200190929190505050611828565b6040518082815260200191505060405180910390f35b3480156107be57600080fd5b506107c7611871565b005b3480156107d557600080fd5b5061080a600480360381019080803573ffffffffffffffffffffffffffffffffffffffff169060200190929190505050611973565b005b34801561081857600080fd5b50610821611a10565b6040518082815260200191505060405180910390f35b34801561084357600080fd5b5061084c611a6d565b604051808273ffffffffffffffffffffffffffffffffffffffff1673ffffffffffffffffffffffffffffffffffffffff16815260200191505060405180910390f35b34801561089a57600080fd5b506108a3611a92565b6040518080602001828103825283818151815260200191508051906020019080838360005b838110156108e35780820151818401526020810190506108c8565b50505050905090810190601f1680156109105780820380516001836020036101000a031916815260200191505b509250505060405180910390f35b34801561092a57600080fd5b5061095f600480360381019080803573ffffffffffffffffffffffffffffffffffffffff169060200190929190505050611b30565b604051808215151515815260200191505060405180910390f35b34801561098557600080fd5b5061098e611b78565b005b34801561099c57600080fd5b506109a5611bf0565b6040518082815260200191505060405180910390f35b3480156109c757600080fd5b506109fc600480360381019080803573ffffffffffffffffffffffffffffffffffffffff169060200190929190505050611c0f565b005b348015610a0a57600080fd5b50610a2960048036038101908080359060200190929190505050611cb5565b6040518082815260200191505060405180910390f35b348015610a4b57600080fd5b50610a8a600480360381019080803573ffffffffffffffffffffffffffffffffffffffff16906020019092919080359060200190929190505050611d03565b6040518082815260200191505060405180910390f35b348015610aac57600080fd5b50610aeb600480360381019080803573ffffffffffffffffffffffffffffffffffffffff16906020019092919080359060200190929190505050611fa1565b005b610b4b600480360381019080803573ffffffffffffffffffffffffffffffffffffffff16906020019092919080359060200190929190803573ffffffffffffffffffffffffffffffffffffffff169060200190929190505050612220565b6040518082815260200191505060405180910390f35b348015610b6d57600080fd5b50610bc560048036038101908080359060200190820180359060200190808060200260200160405190810160405280939291908181526020018383602002808284378201915050505050509192919290505050612276565b005b348015610bd357600080fd5b50610bdc612312565b604051808273ffffffffffffffffffffffffffffffffffffffff1673ffffffffffffffffffffffffffffffffffffffff16815260200191505060405180910390f35b348015610c2a57600080fd5b50610c5f600480360381019080803573ffffffffffffffffffffffffffffffffffffffff169060200190929190505050612338565b005b348015610c6d57600080fd5b50610cac600480360381019080803573ffffffffffffffffffffffffffffffffffffffff169060200190929190803590602001909291905050506123d7565b005b348015610cba57600080fd5b50610cef600480360381019080803573ffffffffffffffffffffffffffffffffffffffff16906020019092919050505061268b565b005b600068010000000000000000600560008473ffffffffffffffffffffffffffffffffffffffff1673ffffffffffffffffffffffffffffffffffffffff16815260200190815260200160002054600360008573ffffffffffffffffffffffffffffffffffffffff1673ffffffffffffffffffffffffffffffffffffffff16815260200190815260200160002054600a540203811515610d8b57fe5b049050919050565b60108054600181600116156101000203166002900480601f016020809104026020016040519081016040528092919081815260200182805460018160011615610100020316600290048015610e295780601f10610dfe57610100808354040283529160200191610e29565b820191906000526020600020905b815481529060010190602001808311610e0c57829003601f168201915b505050505081565b610eae826002836040518082805190602001908083835b602083101515610e6d5780518252602082019150602081019050602083039250610e48565b6001836020036101000a038019825116818451168082178552505050505050905001915050908152602001604051809103902061287b90919063ffffffff16565b5050565b600080600080610ec685600a60ff16612894565b9250610ed285846128aa565b9150610edd826128c3565b9050809350505050919050565b600080600080610ef985612943565b9250610f0983600a60ff16612894565b9150610f1583836129b7565b9050809350505050919050565b6000600954905090565b6040805190810160405280600981526020017f77686974656c697374000000000000000000000000000000000000000000000081525081565b6000600a54905090565b6000610fee836002846040518082805190602001908083835b602083101515610fad5780518252602082019150602081019050602083039250610f88565b6001836020036101000a03801982511681845116808217855250505050505090500191505090815260200160405180910390206129d390919063ffffffff16565b905092915050565b60008060009054906101000a900473ffffffffffffffffffffffffffffffffffffffff1673ffffffffffffffffffffffffffffffffffffffff163373ffffffffffffffffffffffffffffffffffffffff1614151561105357600080fd5b600090505b815181101561108e57611081828281518110151561107257fe5b906020019060200201516110a5565b8080600101915050611058565b5050565b600f60009054906101000a900460ff1681565b6000809054906101000a900473ffffffffffffffffffffffffffffffffffffffff1673ffffffffffffffffffffffffffffffffffffffff163373ffffffffffffffffffffffffffffffffffffffff1614151561110057600080fd5b61113f816040805190810160405280600981526020017f77686974656c6973740000000000000000000000000000000000000000000000815250612a2c565b50565b6000806000806000803361118b816040805190810160405280600981526020017f77686974656c6973740000000000000000000000000000000000000000000000815250610e31565b611193612b60565b88111515156111a157600080fd5b8895506111ad88612b80565b94506111b7611bf0565b85111515156111c557600080fd5b6111d385600a60ff16612894565b93506111df85856128aa565b92506111ed600c54896129b7565b600c8190555061123c600860008873ffffffffffffffffffffffffffffffffffffffff1673ffffffffffffffffffffffffffffffffffffffff16815260200190815260200160002054896129b7565b600860008873ffffffffffffffffffffffffffffffffffffffff1673ffffffffffffffffffffffffffffffffffffffff16815260200190815260200160002081905550611287612c24565b915060008211156112bb576112b4600a54836801000000000000000087028115156112ae57fe5b046129b7565b600a819055505b8573ffffffffffffffffffffffffffffffffffffffff166108fc849081150290604051600060405180830381858888f19350505050158015611301573d6000803e3d6000fd5b508573ffffffffffffffffffffffffffffffffffffffff167fe9d4fb0074327a194c752e06c8b2fce4a89cd86202090528bb81582a3f20fedd8985604051808381526020018281526020019250505060405180910390a282965050505050505092915050565b6000600460008373ffffffffffffffffffffffffffffffffffffffff1673ffffffffffffffffffffffffffffffffffffffff168152602001908152602001600020549050919050565b60008060008060006113c0612b60565b14156113d457600e54600d54039350611407565b6113e5670de0b6b3a7640000612b80565b92506113f583600a60ff16612894565b915061140183836128aa565b90508093505b50505090565b600160009054906101000a900473ffffffffffffffffffffffffffffffffffffffff1673ffffffffffffffffffffffffffffffffffffffff163373ffffffffffffffffffffffffffffffffffffffff1614151561146957600080fd5b600160009054906101000a900473ffffffffffffffffffffffffffffffffffffffff1673ffffffffffffffffffffffffffffffffffffffff166000809054906101000a900473ffffffffffffffffffffffffffffffffffffffff1673ffffffffffffffffffffffffffffffffffffffff167f8be0079c531659141344cd1fd0a4f28419497f9722a3daafe3b4186f6b6457e060405160405180910390a3600160009054906101000a900473ffffffffffffffffffffffffffffffffffffffff166000806101000a81548173ffffffffffffffffffffffffffffffffffffffff021916908373ffffffffffffffffffffffffffffffffffffffff1602179055506000600160006101000a81548173ffffffffffffffffffffffffffffffffffffffff021916908373ffffffffffffffffffffffffffffffffffffffff160217905550565b60008060008060008060008860006115c382611828565b1115156115cf57600080fd5b3361160f816040805190810160405280600981526020017f77686974656c6973740000000000000000000000000000000000000000000000815250610e31565b8a9850600360008a73ffffffffffffffffffffffffffffffffffffffff1673ffffffffffffffffffffffffffffffffffffffff168152602001908152602001600020548a1115151561166057600080fd5b89975061166c88612b80565b965061167c87600a60ff16612894565b955061168887876128aa565b9450611696600954896128aa565b6009819055506116e5600360008b73ffffffffffffffffffffffffffffffffffffffff1673ffffffffffffffffffffffffffffffffffffffff16815260200190815260200160002054896128aa565b600360008b73ffffffffffffffffffffffffffffffffffffffff1673ffffffffffffffffffffffffffffffffffffffff1681526020019081526020016000208190555068010000000000000000850288600a540201935083600560008b73ffffffffffffffffffffffffffffffffffffffff1673ffffffffffffffffffffffffffffffffffffffff16815260200190815260200160002060008282540392505081905550611791612c24565b925060008311156117c5576117be600a54846801000000000000000089028115156117b857fe5b046129b7565b600a819055505b8873ffffffffffffffffffffffffffffffffffffffff167fc4823739c5787d2ca17e404aa47d5569ae71dfb49cbf21b3f6152ed238a311398987604051808381526020018281526020019250505060405180910390a25050505050505050505050565b6000600360008373ffffffffffffffffffffffffffffffffffffffff1673ffffffffffffffffffffffffffffffffffffffff168152602001908152602001600020549050919050565b6000809054906101000a900473ffffffffffffffffffffffffffffffffffffffff1673ffffffffffffffffffffffffffffffffffffffff163373ffffffffffffffffffffffffffffffffffffffff161415156118cc57600080fd5b6000809054906101000a900473ffffffffffffffffffffffffffffffffffffffff1673ffffffffffffffffffffffffffffffffffffffff167ff8df31144d9c2f0f6b59d69b8b98abd5459d07f2742c4df920b25aae33c6482060405160405180910390a260008060006101000a81548173ffffffffffffffffffffffffffffffffffffffff021916908373ffffffffffffffffffffffffffffffffffffffff160217905550565b6000809054906101000a900473ffffffffffffffffffffffffffffffffffffffff1673ffffffffffffffffffffffffffffffffffffffff163373ffffffffffffffffffffffffffffffffffffffff161415156119ce57600080fd5b611a0d816040805190810160405280600981526020017f77686974656c6973740000000000000000000000000000000000000000000000815250612c2e565b50565b6000806000806000611a20612b60565b1415611a3457600e54600d54019350611a67565b611a45670de0b6b3a7640000612b80565b9250611a5583600a60ff16612894565b9150611a6183836129b7565b90508093505b50505090565b6000809054906101000a900473ffffffffffffffffffffffffffffffffffffffff1681565b60118054600181600116156101000203166002900480601f016020809104026020016040519081016040528092919081815260200182805460018160011615610100020316600290048015611b285780601f10611afd57610100808354040283529160200191611b28565b820191906000526020600020905b815481529060010190602001808311611b0b57829003601f168201915b505050505081565b6000611b71826040805190810160405280600981526020017f77686974656c6973740000000000000000000000000000000000000000000000815250610f6f565b9050919050565b6000809054906101000a900473ffffffffffffffffffffffffffffffffffffffff1673ffffffffffffffffffffffffffffffffffffffff163373ffffffffffffffffffffffffffffffffffffffff16141515611bd357600080fd5b6000600f60006101000a81548160ff021916908315150217905550565b60003073ffffffffffffffffffffffffffffffffffffffff1631905090565b600033611c51816040805190810160405280600981526020017f77686974656c6973740000000000000000000000000000000000000000000000815250610e31565b600360008473ffffffffffffffffffffffffffffffffffffffff1673ffffffffffffffffffffffffffffffffffffffff1681526020019081526020016000205491506000821115611ca757611ca683836115ac565b5b611cb08361268b565b505050565b600080600080611cc3612b60565b8511151515611cd157600080fd5b611cda85612b80565b9250611cea83600a60ff16612894565b9150611cf683836128aa565b9050809350505050919050565b600080600080856000611d1582611828565b111515611d2157600080fd5b33611d61816040805190810160405280600981526020017f77686974656c6973740000000000000000000000000000000000000000000000815250610e31565b879450600360008673ffffffffffffffffffffffffffffffffffffffff1673ffffffffffffffffffffffffffffffffffffffff168152602001908152602001600020548711151515611db257600080fd5b869350611dc1600954856128aa565b600981905550611dd3600b54856129b7565b600b81905550611e22600360008773ffffffffffffffffffffffffffffffffffffffff1673ffffffffffffffffffffffffffffffffffffffff16815260200190815260200160002054856128aa565b600360008773ffffffffffffffffffffffffffffffffffffffff1673ffffffffffffffffffffffffffffffffffffffff16815260200190815260200160002081905550611eae600760008773ffffffffffffffffffffffffffffffffffffffff1673ffffffffffffffffffffffffffffffffffffffff16815260200190815260200160002054856129b7565b600760008773ffffffffffffffffffffffffffffffffffffffff1673ffffffffffffffffffffffffffffffffffffffff1681526020019081526020016000208190555083600a5402925082600560008773ffffffffffffffffffffffffffffffffffffffff1673ffffffffffffffffffffffffffffffffffffffff168152602001908152602001600020600082825403925050819055508473ffffffffffffffffffffffffffffffffffffffff167ff442d356b73f85e354ab3e2be58a493fbcbfc105e75bd7cef5c6d1882bd20715856040518082815260200191505060405180910390a2839550505050505092915050565b6000806000846000611fb282611367565b611fbb83610cf1565b01111515611fc857600080fd5b33612008816040805190810160405280600981526020017f77686974656c6973740000000000000000000000000000000000000000000000815250610e31565b61201187610cf1565b9450600460008873ffffffffffffffffffffffffffffffffffffffff1673ffffffffffffffffffffffffffffffffffffffff168152602001908152602001600020549350838501861115151561206657600080fd5b84861115156120cc57680100000000000000008602600560008973ffffffffffffffffffffffffffffffffffffffff1673ffffffffffffffffffffffffffffffffffffffff168152602001908152602001600020600082825401925050819055506121b3565b680100000000000000008502600560008973ffffffffffffffffffffffffffffffffffffffff1673ffffffffffffffffffffffffffffffffffffffff1681526020019081526020016000206000828254019250508190555061216f600460008973ffffffffffffffffffffffffffffffffffffffff1673ffffffffffffffffffffffffffffffffffffffff168152602001908152602001600020548688036128aa565b600460008973ffffffffffffffffffffffffffffffffffffffff1673ffffffffffffffffffffffffffffffffffffffff168152602001908152602001600020819055505b6121bf87876000612d62565b92508673ffffffffffffffffffffffffffffffffffffffff167fbe339fc14b041c2b0e0f3dd2cd325d0c3668b78378001e53160eab36153264588785604051808381526020018281526020019250505060405180910390a250505050505050565b600033612262816040805190810160405280600981526020017f77686974656c6973740000000000000000000000000000000000000000000000815250610e31565b61226d853485612d62565b50509392505050565b60008060009054906101000a900473ffffffffffffffffffffffffffffffffffffffff1673ffffffffffffffffffffffffffffffffffffffff163373ffffffffffffffffffffffffffffffffffffffff161415156122d357600080fd5b600090505b815181101561230e5761230182828151811015156122f257fe5b90602001906020020151611973565b80806001019150506122d8565b5050565b600160009054906101000a900473ffffffffffffffffffffffffffffffffffffffff1681565b6000809054906101000a900473ffffffffffffffffffffffffffffffffffffffff1673ffffffffffffffffffffffffffffffffffffffff163373ffffffffffffffffffffffffffffffffffffffff1614151561239357600080fd5b80600160006101000a81548173ffffffffffffffffffffffffffffffffffffffff021916908373ffffffffffffffffffffffffffffffffffffffff16021790555050565b6000808360006123e682611367565b6123ef83610cf1565b011115156123fc57600080fd5b3361243c816040805190810160405280600981526020017f77686974656c6973740000000000000000000000000000000000000000000000815250610e31565b61244586610cf1565b9350600460008773ffffffffffffffffffffffffffffffffffffffff1673ffffffffffffffffffffffffffffffffffffffff168152602001908152602001600020549250828401851115151561249a57600080fd5b838511151561250057680100000000000000008502600560008873ffffffffffffffffffffffffffffffffffffffff1673ffffffffffffffffffffffffffffffffffffffff168152602001908152602001600020600082825401925050819055506125ee565b680100000000000000008402600560008873ffffffffffffffffffffffffffffffffffffffff1673ffffffffffffffffffffffffffffffffffffffff168152602001908152602001600020600082825401925050819055506125aa600460008873ffffffffffffffffffffffffffffffffffffffff1673ffffffffffffffffffffffffffffffffffffffff168152602001908152602001600020546125a587876128aa565b6128aa565b600460008873ffffffffffffffffffffffffffffffffffffffff1673ffffffffffffffffffffffffffffffffffffffff168152602001908152602001600020819055505b8573ffffffffffffffffffffffffffffffffffffffff166108fc869081150290604051600060405180830381858888f19350505050158015612634573d6000803e3d6000fd5b508573ffffffffffffffffffffffffffffffffffffffff167fccad973dcd043c7d680389db4378bd6b9775db7124092e9e0422c9e46d7985dc866040518082815260200191505060405180910390a2505050505050565b60008082600061269a82611367565b6126a383610cf1565b011115156126b057600080fd5b336126f0816040805190810160405280600981526020017f77686974656c6973740000000000000000000000000000000000000000000000815250610e31565b8493506126fc84610cf1565b9250680100000000000000008302600560008673ffffffffffffffffffffffffffffffffffffffff1673ffffffffffffffffffffffffffffffffffffffff16815260200190815260200160002060008282540192505081905550600460008573ffffffffffffffffffffffffffffffffffffffff1673ffffffffffffffffffffffffffffffffffffffff16815260200190815260200160002054830192506000600460008673ffffffffffffffffffffffffffffffffffffffff1673ffffffffffffffffffffffffffffffffffffffff168152602001908152602001600020819055508373ffffffffffffffffffffffffffffffffffffffff166108fc849081150290604051600060405180830381858888f19350505050158015612825573d6000803e3d6000fd5b508373ffffffffffffffffffffffffffffffffffffffff167fccad973dcd043c7d680389db4378bd6b9775db7124092e9e0422c9e46d7985dc846040518082815260200191505060405180910390a25050505050565b61288582826129d3565b151561289057600080fd5b5050565b600081838115156128a157fe5b04905092915050565b60008282111515156128b857fe5b818303905092915050565b600080600080600d5492506128d6612b60565b9150600954600e5461292b61292560095487600e54600202020260026009540a6002600e540a02670de0b6b3a76400008b02670de0b6b3a7640000600e54026002020260028a0a0101016135ce565b866128aa565b81151561293457fe5b04039050809350505050919050565b6000806000806000612953612b60565b9350670de0b6b3a764000060095481151561296a57fe5b04600e5402600d54019250670de0b6b3a76400008681151561298857fe5b04600e540283019150671bc16d674ec8000086838501028115156129a857fe5b04905080945050505050919050565b600081830190508281101515156129ca57fe5b80905092915050565b60008260000160008373ffffffffffffffffffffffffffffffffffffffff1673ffffffffffffffffffffffffffffffffffffffff16815260200190815260200160002060009054906101000a900460ff16905092915050565b612aa9826002836040518082805190602001908083835b602083101515612a685780518252602082019150602081019050602083039250612a43565b6001836020036101000a038019825116818451168082178552505050505050905001915050908152602001604051809103902061361990919063ffffffff16565b8173ffffffffffffffffffffffffffffffffffffffff167fd211483f91fc6eff862467f8de606587a30c8fc9981056f051b897a418df803a826040518080602001828103825283818151815260200191508051906020019080838360005b83811015612b22578082015181840152602081019050612b07565b50505050905090810190601f168015612b4f5780820380516001836020036101000a031916815260200191505b509250505060405180910390a25050565b6000612b7b612b73600954600b546129b7565b600c546128aa565b905090565b600080600080670de0b6b3a764000085019250670de0b6b3a7640000612ba4612b60565b019150670de0b6b3a7640000612c0d670de0b6b3a76400008503600e54670de0b6b3a764000086811515612bd457fe5b04600e5402600d540103026002670de0b6b3a7640000876002890a03811515612bf957fe5b04600e5402811515612c0757fe5b046128aa565b811515612c1657fe5b049050809350505050919050565b6000600954905090565b612cab826002836040518082805190602001908083835b602083101515612c6a5780518252602082019150602081019050602083039250612c45565b6001836020036101000a038019825116818451168082178552505050505050905001915050908152602001604051809103902061367790919063ffffffff16565b8173ffffffffffffffffffffffffffffffffffffffff167fbfec83d64eaa953f2708271a023ab9ee82057f8f3578d548c1a4ba0b5b700489826040518080602001828103825283818151815260200191508051906020019080838360005b83811015612d24578082015181840152602081019050612d09565b50505050905090810190601f168015612d515780820380516001836020036101000a031916815260200191505b509250505060405180910390a25050565b600080600080600080600089896000829050600f60009054906101000a900460ff168015612da257506801158e460913d0000082612d9e611bf0565b0311155b156132475760011515601260008373ffffffffffffffffffffffffffffffffffffffff1673ffffffffffffffffffffffffffffffffffffffff16815260200190815260200160002060009054906101000a900460ff161515148015612e505750670de0b6b3a764000082600660008473ffffffffffffffffffffffffffffffffffffffff1673ffffffffffffffffffffffffffffffffffffffff168152602001908152602001600020540111155b1515612e5b57600080fd5b612ea4600660008373ffffffffffffffffffffffffffffffffffffffff1673ffffffffffffffffffffffffffffffffffffffff16815260200190815260200160002054836129b7565b600660008373ffffffffffffffffffffffffffffffffffffffff1673ffffffffffffffffffffffffffffffffffffffff16815260200190815260200160002081905550612ef58c600a60ff16612894565b9850612f02896003612894565b9750612f0e89896128aa565b9650612f1a8c8a6128aa565b9550612f25866128c3565b94506801000000000000000087029350600085118015612f515750600954612f4f866009546129b7565b115b1515612f5c57600080fd5b600073ffffffffffffffffffffffffffffffffffffffff168b73ffffffffffffffffffffffffffffffffffffffff1614158015612fc557508c73ffffffffffffffffffffffffffffffffffffffff168b73ffffffffffffffffffffffffffffffffffffffff1614155b1561305b57613013600460008d73ffffffffffffffffffffffffffffffffffffffff1673ffffffffffffffffffffffffffffffffffffffff16815260200190815260200160002054896129b7565b600460008d73ffffffffffffffffffffffffffffffffffffffff1673ffffffffffffffffffffffffffffffffffffffff16815260200190815260200160002081905550613076565b61306587896129b7565b965068010000000000000000870293505b600060095411156130eb5761308d600954866129b7565b60098190555061309b612c24565b6801000000000000000088028115156130b057fe5b04600a600082825401925050819055506130c8612c24565b6801000000000000000088028115156130dd57fe5b0485028403840393506130f3565b846009819055505b61313c600360008f73ffffffffffffffffffffffffffffffffffffffff1673ffffffffffffffffffffffffffffffffffffffff16815260200190815260200160002054866129b7565b600360008f73ffffffffffffffffffffffffffffffffffffffff1673ffffffffffffffffffffffffffffffffffffffff168152602001908152602001600020819055508385600a540203600560008f73ffffffffffffffffffffffffffffffffffffffff1673ffffffffffffffffffffffffffffffffffffffff168152602001908152602001600020600082825401925050819055508a73ffffffffffffffffffffffffffffffffffffffff168d73ffffffffffffffffffffffffffffffffffffffff167f022c0d992e4d873a3748436d960d5140c1f9721cf73f7ca5ec679d3d9f4fe2d58e88604051808381526020018281526020019250505060405180910390a38499506135be565b6000600f60006101000a81548160ff0219169083151502179055506132708c600a60ff16612894565b985061327d896003612894565b975061328989896128aa565b96506132958c8a6128aa565b95506132a0866128c3565b945068010000000000000000870293506000851180156132cc57506009546132ca866009546129b7565b115b15156132d757600080fd5b600073ffffffffffffffffffffffffffffffffffffffff168b73ffffffffffffffffffffffffffffffffffffffff161415801561334057508c73ffffffffffffffffffffffffffffffffffffffff168b73ffffffffffffffffffffffffffffffffffffffff1614155b156133d65761338e600460008d73ffffffffffffffffffffffffffffffffffffffff1673ffffffffffffffffffffffffffffffffffffffff16815260200190815260200160002054896129b7565b600460008d73ffffffffffffffffffffffffffffffffffffffff1673ffffffffffffffffffffffffffffffffffffffff168152602001908152602001600020819055506133f1565b6133e087896129b7565b965068010000000000000000870293505b6000600954111561346657613408600954866129b7565b600981905550613416612c24565b68010000000000000000880281151561342b57fe5b04600a60008282540192505081905550613443612c24565b68010000000000000000880281151561345857fe5b04850284038403935061346e565b846009819055505b6134b7600360008f73ffffffffffffffffffffffffffffffffffffffff1673ffffffffffffffffffffffffffffffffffffffff16815260200190815260200160002054866129b7565b600360008f73ffffffffffffffffffffffffffffffffffffffff1673ffffffffffffffffffffffffffffffffffffffff168152602001908152602001600020819055508385600a540203600560008f73ffffffffffffffffffffffffffffffffffffffff1673ffffffffffffffffffffffffffffffffffffffff168152602001908152602001600020600082825401925050819055508a73ffffffffffffffffffffffffffffffffffffffff168d73ffffffffffffffffffffffffffffffffffffffff167f022c0d992e4d873a3748436d960d5140c1f9721cf73f7ca5ec679d3d9f4fe2d58e88604051808381526020018281526020019250505060405180910390a38499505b5050505050505050509392505050565b6000806002600184018115156135e057fe5b0490508291505b8181101561361357809150600281828581151561360057fe5b040181151561360b57fe5b0490506135e7565b50919050565b60008260000160008373ffffffffffffffffffffffffffffffffffffffff1673ffffffffffffffffffffffffffffffffffffffff16815260200190815260200160002060006101000a81548160ff0219169083151502179055505050565b60018260000160008373ffffffffffffffffffffffffffffffffffffffff1673ffffffffffffffffffffffffffffffffffffffff16815260200190815260200160002060006101000a81548160ff02191690831515021790555050505600a165627a7a723058200c308827791bc4d029f1d9bd93f6bb921cf96fbd1b5e970277f75cd5efdacb2e0029",
  "source": "pragma solidity ^0.4.21;\r\n\r\nimport \"zeppelin-solidity/contracts/math/SafeMath.sol\";\r\nimport \"zeppelin-solidity/contracts/ownership/Claimable.sol\";\r\nimport \"zeppelin-solidity/contracts/access/Whitelist.sol\";\r\nimport \"../contracts/interface/TokenDealerInterface.sol\";\r\nimport \"./S3Devents.sol\";\r\nimport \"./SeeleDividendsToEth.sol\";\r\nimport \"./S3DTokenBase.sol\";\r\n\r\n\r\ncontract EthDealer is Claimable, Whitelist, S3DEvents, S3DTokenBase{\r\n\r\n    // ensures that the first tokens in the contract will be equally distributed\r\n    // meaning, no divine dump will be ever possible\r\n    // result: healthy longevity.\r\n    modifier antiEarlyWhale(address _buyer, uint256 _amountOfBuyToken){\r\n        address _customerAddress = _buyer;\r\n        \r\n        // are we still in the vulnerable phase?\r\n        // if so, enact anti early whale protocol \r\n        if( onlyAmbassadors && ((totalBalance() - _amountOfBuyToken) <= ambassadorQuota )){\r\n            require(\r\n                // is the customer in the ambassador list?\r\n                ambassadors[_customerAddress] == true &&\r\n                \r\n                // does the customer purchase exceed the max ambassador quota?\r\n                (ambassadorAccumulatedQuota[_customerAddress] + _amountOfBuyToken) <= ambassadorMaxPurchase\r\n                \r\n            );\r\n            \r\n            // updated the accumulated quota    \r\n            ambassadorAccumulatedQuota[_customerAddress] = SafeMath.add(ambassadorAccumulatedQuota[_customerAddress], _amountOfBuyToken);\r\n        \r\n            // execute\r\n            _;\r\n        } else {\r\n            // in case the ether count drops low, the ambassador phase won't reinitiate\r\n            onlyAmbassadors = false;\r\n            _;    \r\n        }   \r\n    }\r\n    \r\n\r\n    /*=====================================\r\n    =            CONFIGURABLES            =\r\n    =====================================*/\r\n    string public name = \"Eth-S3D\";\r\n    string public symbol = \"Eth-S3D\";\r\n\r\n\r\n    // ambassador program\r\n    mapping(address => bool) internal ambassadors;\r\n    uint256 constant internal ambassadorMaxPurchase = 1 ether;\r\n    uint256 constant internal ambassadorQuota = 20 ether;\r\n    \r\n\r\n    /*=======================================\r\n    =            PUBLIC FUNCTIONS            =\r\n    =======================================*/\r\n    /*\r\n    * -- APPLICATION ENTRY POINTS --  \r\n    */\r\n    function EthDealer()\r\n        public\r\n    {\r\n        tokenPriceInitial = 0.0000001 ether;\r\n        tokenPriceIncremental = 0.00000001 ether;\r\n\r\n        // add the ambassadors here.\r\n        // mantso - lead solidity dev & lead web dev. \r\n        ambassadors[0xCd16575A90eD9506BCf44C78845d93F1b647F48C] = true;\r\n    }\r\n    \r\n    /**\r\n     * Converts all incoming ethereum to tokens for the caller, and passes down the referral addy (if any)\r\n     */\r\n    function buy(address _buyer, uint _amountTokens, address _referredBy)\r\n        public\r\n        payable\r\n        onlyIfWhitelisted(msg.sender)\r\n        returns(uint256)\r\n    {\r\n        purchaseTokens(_buyer, msg.value, _referredBy);\r\n    }\r\n    \r\n    /**\r\n     * Fallback function to handle ethereum that was send straight to the contract\r\n     * Unfortunately we cannot use a referral address this way.\r\n     */\r\n    function()\r\n        public\r\n        payable\r\n    {\r\n        //purchaseTokens(msg.value, 0x0);\r\n    }\r\n    \r\n    /**\r\n     * Converts all of caller's dividends to tokens.\r\n     */\r\n    //\r\n    // function reinvest(address buyer)\r\n    //     onlyStronghands(buyer)\r\n    //     public\r\n    // {\r\n    //     // fetch dividends\r\n    //     uint256 _dividends = myDividends(buyer, false); // retrieve ref. bonus later in the code\r\n        \r\n    //     // pay out the dividends virtually\r\n    //     address _customerAddress = buyer;\r\n    //     payoutsTo_[_customerAddress] +=  (int256) (_dividends * magnitude);\r\n        \r\n    //     // retrieve ref. bonus\r\n    //     _dividends += referralBalance_[_customerAddress];\r\n    //     referralBalance_[_customerAddress] = 0;\r\n        \r\n    //     // dispatch a buy order with the virtualized \"withdrawn dividends\"\r\n    //     uint256 _tokens = purchaseTokens(_customerAddress, _dividends, 0x0);\r\n        \r\n    //     // fire event\r\n    //     emit onReinvestment(_customerAddress, _dividends, _tokens);\r\n    // }\r\n    function reinvest(address _buyer, uint _buyAmount)\r\n        public\r\n        onlyStronghands(_buyer)\r\n        onlyIfWhitelisted(msg.sender)\r\n    {\r\n        // fetch dividends\r\n        uint256 _dividends = dividendsOf(_buyer); // retrieve ref. bonus later in the code\r\n        uint256 _referralBalance = referralBalance[_buyer];\r\n        require(_buyAmount <= (_dividends + _referralBalance));\r\n\r\n        if (_buyAmount <= _dividends) {\r\n            // pay out the dividends virtually\r\n            payoutsTo[_buyer] +=  (int256)(_buyAmount * magnitude);\r\n        } else {\r\n            // retrieve ref. bonus\r\n            payoutsTo[_buyer] +=  (int256) (_dividends * magnitude);\r\n            referralBalance[_buyer] = SafeMath.sub(referralBalance[_buyer], _buyAmount - _dividends);\r\n        }\r\n                \r\n        // dispatch a buy order with the virtualized \"withdrawn dividends\"\r\n        uint256 _tokens = purchaseTokens(_buyer, _buyAmount, 0x0);\r\n        \r\n        // fire event\r\n        emit S3DEvents.onReinvestment(_buyer, _buyAmount, _tokens);\r\n    }\r\n\r\n    \r\n    /**\r\n     * Alias of sell() and withdraw().\r\n    */\r\n    //token \r\n    function exit(address _buyer)\r\n        public\r\n        onlyIfWhitelisted(msg.sender)\r\n    {\r\n        // get token count for caller & sell them all\r\n        uint256 _tokens = tokenBalanceLedger[_buyer];\r\n        if(_tokens > 0) \r\n            sell(_buyer, _tokens);\r\n        \r\n        // lambo delivery service\r\n        withdrawAll(_buyer);\r\n    }\r\n\r\n    /**\r\n     * Withdraws all of the callers earnings.\r\n     */\r\n    function withdrawAll(address _buyer)\r\n        public\r\n        onlyStronghands(_buyer)\r\n        onlyIfWhitelisted(msg.sender)\r\n    {\r\n        // setup data\r\n        address _customerAddress = _buyer;\r\n        uint256 _dividends = dividendsOf(_customerAddress); // get ref. bonus later in the code\r\n        \r\n        // update dividend tracker\r\n        payoutsTo[_customerAddress] +=  (int256) (_dividends * magnitude);\r\n        \r\n        // add ref. bonus\r\n        _dividends += referralBalance[_customerAddress];\r\n        referralBalance[_customerAddress] = 0;\r\n        \r\n        // lambo delivery service\r\n        _customerAddress.transfer(_dividends);\r\n        \r\n        // fire event\r\n        emit S3DEvents.onWithdraw(_customerAddress, _dividends);\r\n    }\r\n    \r\n    function withdraw(address _buyer, uint256 _withdrawAmount)\r\n        public\r\n        onlyStronghands(_buyer)\r\n        onlyIfWhitelisted(msg.sender)\r\n    {\r\n        // setup data\r\n        uint256 _dividends = dividendsOf(_buyer); // get ref. bonus later in the code\r\n        uint256 _referralBalance = referralBalance[_buyer];\r\n        require(_withdrawAmount <= (_dividends + _referralBalance));\r\n\r\n        if (_withdrawAmount <= _dividends) {\r\n            // pay out the dividends virtually\r\n            payoutsTo[_buyer] +=  (int256)(_withdrawAmount * magnitude);\r\n        } else {\r\n            // retrieve ref. bonus\r\n            payoutsTo[_buyer] +=  (int256) (_dividends * magnitude);\r\n            referralBalance[_buyer] = SafeMath.sub(referralBalance[_buyer], SafeMath.sub(_withdrawAmount,_dividends));\r\n        }\r\n          \r\n        // lambo delivery service\r\n        _buyer.transfer(_withdrawAmount);\r\n        \r\n        // fire event\r\n        emit S3DEvents.onWithdraw(_buyer, _withdrawAmount);\r\n    }\r\n    /**\r\n     * Liquifies tokens to ethereum.\r\n     */\r\n    function sell(address _seller, uint256 _amountOfTokens)\r\n        public\r\n        onlyBagholders(_seller)\r\n        onlyIfWhitelisted(msg.sender)\r\n    {\r\n        // setup data\r\n        address _customerAddress = _seller;\r\n        // russian hackers BTFO\r\n        require(_amountOfTokens <= tokenBalanceLedger[_customerAddress]);\r\n        uint256 _tokens = _amountOfTokens;\r\n        uint256 _ethereum = s3dToBuyTokens(_tokens);\r\n        uint256 _dividends = SafeMath.div(_ethereum, dividendFee);\r\n        uint256 _taxedEthereum = SafeMath.sub(_ethereum, _dividends);\r\n        \r\n        // burn the sold tokens\r\n        tokenSupply = SafeMath.sub(tokenSupply, _tokens);\r\n        tokenBalanceLedger[_customerAddress] = SafeMath.sub(tokenBalanceLedger[_customerAddress], _tokens);\r\n        \r\n        // update dividends tracker\r\n        int256 _updatedPayouts = (int256) (profitPerShare * _tokens + (_taxedEthereum * magnitude));\r\n        payoutsTo[_customerAddress] -= _updatedPayouts;       \r\n\r\n        //SeeleDividendsToEth(seeleDividendsToEthContractAddress).updatePayouts(_customerAddress, _tokens);\r\n\r\n        // dividing by zero is a bad idea\r\n        uint256 _dividendTokenAmount =  getDividendTokenAmount();\r\n        if (_dividendTokenAmount > 0) {\r\n            // update the amount of dividends per token\r\n            profitPerShare = SafeMath.add(profitPerShare, (_dividends * magnitude) / _dividendTokenAmount);\r\n        }\r\n        \r\n        // fire event\r\n        emit S3DEvents.onTokenSell(_customerAddress, _tokens, _taxedEthereum);\r\n    }\r\n\r\n    \r\n    /*----------  ADMINISTRATOR ONLY FUNCTIONS  ----------*/\r\n    /**\r\n     * In case the amassador quota is not met, the administrator can manually disable the ambassador phase.\r\n     */\r\n    function disableInitialStage()\r\n        public\r\n        onlyOwner()\r\n    {\r\n        onlyAmbassadors = false;\r\n    }\r\n    \r\n    \r\n    /*----------  HELPERS AND CALCULATORS  ----------*/\r\n    /**\r\n     * Method to view the current Ethereum stored in the contract\r\n     * Example: totalEthereumBalance()\r\n     */\r\n    function totalBalance()\r\n        public\r\n        view\r\n        returns(uint)\r\n    {\r\n        return address(this).balance;\r\n    }\r\n\r\n    \r\n    // /**\r\n    //  * Retrieve the dividends owned by the caller.\r\n    //  * If `_includeReferralBonus` is to to 1/true, the referral bonus will be included in the calculations.\r\n    //  * The reason for this, is that in the frontend, we will want to get the total divs (global + ref)\r\n    //  * But in the internal calculations, we want them separate. \r\n    //  */ \r\n    // function myDividends(address myAddress, bool _includeReferralBonus) \r\n    //     public \r\n    //     view \r\n    //     returns(uint256)\r\n    // {\r\n    //     address _customerAddress = myAddress;\r\n    //     return _includeReferralBonus ? dividendsOf(_customerAddress) + referralBalance_[_customerAddress] : dividendsOf(_customerAddress) ;\r\n    // }\r\n    \r\n\r\n\r\n    /*==========================================\r\n    =            INTERNAL FUNCTIONS            =\r\n    ==========================================*/\r\n    function purchaseTokens(address _buyer, uint256 _incomingEthereum, address _referredBy)\r\n        internal\r\n        antiEarlyWhale(_buyer, _incomingEthereum)\r\n        returns(uint256)\r\n    {\r\n        // data setup\r\n        //address _customerAddress = buyer;\r\n        uint256 _undividedDividends = SafeMath.div(_incomingEthereum, dividendFee);\r\n        uint256 _referralBonus = SafeMath.div(_undividedDividends, 3);\r\n        uint256 _dividends = SafeMath.sub(_undividedDividends, _referralBonus);\r\n        uint256 _taxedEthereum = SafeMath.sub(_incomingEthereum, _undividedDividends);\r\n        uint256 _amountOfTokens = buyTokensToS3d(_taxedEthereum);\r\n        uint256 _fee = _dividends * magnitude;\r\n \r\n        // no point in continuing execution if OP is a poorfag russian hacker\r\n        // prevents overflow in the case that the pyramid somehow magically starts being used by everyone in the world\r\n        // (or hackers)\r\n        // and yes we know that the safemath function automatically rules out the \"greater then\" equasion.\r\n        require(_amountOfTokens > 0 && (SafeMath.add(_amountOfTokens, tokenSupply) > tokenSupply));\r\n        \r\n        // is the user referred by a masternode?\r\n        if(\r\n            // is this a referred purchase?\r\n            _referredBy != 0x0000000000000000000000000000000000000000 &&\r\n\r\n            // no cheating!\r\n            _referredBy != _buyer \r\n        ){\r\n            // wealth redistribution\r\n            referralBalance[_referredBy] = SafeMath.add(referralBalance[_referredBy], _referralBonus);\r\n        } else {\r\n            // no ref purchase\r\n            // add the referral bonus back to the global dividends cake\r\n            _dividends = SafeMath.add(_dividends, _referralBonus);\r\n            _fee = _dividends * magnitude;\r\n        }\r\n        \r\n        // we can't give people infinite ethereum\r\n        if(tokenSupply > 0){\r\n            \r\n            // add tokens to the pool\r\n            tokenSupply = SafeMath.add(tokenSupply, _amountOfTokens);\r\n \r\n            //uint256 dividendTokenAmount_ =  getDividendTokenAmount();\r\n\r\n            // take the amount of dividends gained through this transaction, and allocates them evenly to each shareholder\r\n            profitPerShare += (_dividends * magnitude / (getDividendTokenAmount()));\r\n            \r\n            // calculate the amount of tokens the customer receives over his purchase \r\n            _fee = _fee - (_fee - (_amountOfTokens * (_dividends * magnitude / (getDividendTokenAmount()))));\r\n        \r\n        } else {\r\n            // add tokens to the pool\r\n            tokenSupply = _amountOfTokens;\r\n        }\r\n        \r\n        // update circulating supply & the ledger address for the customer\r\n        tokenBalanceLedger[_buyer] = SafeMath.add(tokenBalanceLedger[_buyer], _amountOfTokens);\r\n        \r\n        // Tells the contract that the buyer doesn't deserve dividends for the tokens before they owned them;\r\n        //really i know you think you do but you don't\r\n        //int256 _updatedPayouts = (int256) ((profitPerShare_ * _amountOfTokens) - _fee);\r\n        payoutsTo[_buyer] += (int256) ((profitPerShare * _amountOfTokens) - _fee);\r\n        \r\n        // fire event\r\n        emit S3DEvents.onTokenPurchase(_buyer, _incomingEthereum, _amountOfTokens, _referredBy);\r\n        \r\n        return _amountOfTokens;\r\n    }\r\n\r\n    //NEW FUNCTION        \r\n    function escapeTokens(address _sellerAddress, uint256 _amountOfTokens) \r\n             public \r\n             onlyBagholders(_sellerAddress) \r\n             onlyIfWhitelisted(msg.sender)\r\n             returns(uint256)\r\n    {\r\n        // setup data\r\n        address _customerAddress = _sellerAddress;\r\n\r\n        // russian hackers BTFO\r\n        require(_amountOfTokens <= tokenBalanceLedger[_customerAddress]);\r\n        uint256 _tokens = _amountOfTokens;\r\n\r\n        // add the sold tokens to escape tokens\r\n        tokenSupply = SafeMath.sub(tokenSupply, _tokens);\r\n        escapeTokenSuppley = SafeMath.add(escapeTokenSuppley, _tokens);\r\n        tokenBalanceLedger[_customerAddress] = SafeMath.sub(tokenBalanceLedger[_customerAddress], _tokens);\r\n        escapeTokenBalance[_customerAddress] = SafeMath.add(escapeTokenBalance[_customerAddress], _tokens);\r\n   \r\n        // update dividends tracker\r\n        // take you token dividends\r\n        int256 _updatedPayouts = (int256) (profitPerShare * _tokens);\r\n        payoutsTo[_customerAddress] -= _updatedPayouts;       \r\n\r\n        //SeeleDividendsToEth(seeleDividendsToEthContractAddress).updatePayouts(_customerAddress, _tokens);\r\n\r\n        // fire event\r\n        emit S3DEvents.onTokenEscape(_customerAddress, _tokens);\r\n        return _tokens;\r\n    }\r\n\r\n    function arbitrageTokens(address _sellerAddress, uint256 _amountOfTokens) \r\n        public \r\n        onlyIfWhitelisted(msg.sender)\r\n        returns(uint256)\r\n    {\r\n        require(_amountOfTokens <= getPricedTokenAmount());\r\n        \r\n        // setup data\r\n        address _customerAddress = _sellerAddress;\r\n        \r\n        // TokenDealerInterface escapeContract = TokenDealerInterface(sellTokenAddress);\r\n        // uint256 _tokens = escapeContract.escapeTokens(_customerAddress, _amountOfTokens);\r\n        // require(_tokens == _amountOfTokens);\r\n\r\n        // russian hackers BTFO\r\n        uint256 ethereum_ = s3dToBuyTokens(_amountOfTokens);\r\n        require(ethereum_ <= totalBalance());\r\n\r\n        uint256 dividends_ = SafeMath.div(ethereum_, dividendFee);\r\n        uint256 taxedEthereum_ = SafeMath.sub(ethereum_, dividends_);\r\n        \r\n        // burn the sold tokens\r\n        //tokenSupply_ = SafeMath.sub(tokenSupply_, _tokens);\r\n        //tokenBalanceLedger_[_customerAddress] = SafeMath.sub(tokenBalanceLedger_[_customerAddress], _tokens);\r\n\r\n        // add escape tokens to oversell\r\n        overSellTokenAmount = SafeMath.add(overSellTokenAmount, _amountOfTokens);\r\n        overSellTokenBalance[_customerAddress] = SafeMath.add(overSellTokenBalance[_customerAddress], _amountOfTokens);\r\n\r\n             \r\n        // dividing by zero is a bad idea\r\n        uint256 dividendTokenAmount_ =  getDividendTokenAmount();\r\n        if (dividendTokenAmount_ > 0) {\r\n            // update the amount of dividends per token\r\n            profitPerShare = SafeMath.add(profitPerShare, (dividends_ * magnitude) / dividendTokenAmount_);\r\n        }\r\n        \r\n        // lambo delivery service\r\n        _customerAddress.transfer(taxedEthereum_);\r\n\r\n        // fire event\r\n        emit S3DEvents.onTokenArbitrage(_customerAddress, _amountOfTokens, taxedEthereum_);\r\n        return taxedEthereum_;\r\n    }\r\n}\r\n",
  "sourcePath": "D:\\work\\truffle\\s3d\\contracts\\EthDealer.sol",
  "compiler": {
    "name": "solc",
    "version": "0.4.24+commit.e67f0147.Emscripten.clang"
  },
  "schemaVersion": "2.0.1",
  "updatedAt": "2018-08-27T10:34:14.335Z"
}