{
  "contractName": "EthDealer",
  "abi": [
    {
      "constant": true,
      "inputs": [
        {
          "name": "_customerAddress",
          "type": "address"
        }
      ],
      "name": "dividendsOf",
      "outputs": [
        {
          "name": "",
          "type": "uint256"
        }
      ],
      "payable": false,
      "stateMutability": "view",
      "type": "function"
    },
    {
      "constant": true,
      "inputs": [],
      "name": "name",
      "outputs": [
        {
          "name": "",
          "type": "string"
        }
      ],
      "payable": false,
      "stateMutability": "view",
      "type": "function"
    },
    {
      "constant": true,
      "inputs": [
        {
          "name": "_operator",
          "type": "address"
        },
        {
          "name": "_role",
          "type": "string"
        }
      ],
      "name": "checkRole",
      "outputs": [],
      "payable": false,
      "stateMutability": "view",
      "type": "function"
    },
    {
      "constant": true,
      "inputs": [
        {
          "name": "_seeleToSpend",
          "type": "uint256"
        }
      ],
      "name": "calculateTokensReceived",
      "outputs": [
        {
          "name": "",
          "type": "uint256"
        }
      ],
      "payable": false,
      "stateMutability": "view",
      "type": "function"
    },
    {
      "constant": true,
      "inputs": [
        {
          "name": "_tokensToBuy",
          "type": "uint256"
        }
      ],
      "name": "calculateBuyTokenSpend",
      "outputs": [
        {
          "name": "",
          "type": "uint256"
        }
      ],
      "payable": false,
      "stateMutability": "view",
      "type": "function"
    },
    {
      "constant": true,
      "inputs": [],
      "name": "totalSupply",
      "outputs": [
        {
          "name": "",
          "type": "uint256"
        }
      ],
      "payable": false,
      "stateMutability": "view",
      "type": "function"
    },
    {
      "constant": true,
      "inputs": [],
      "name": "ROLE_WHITELISTED",
      "outputs": [
        {
          "name": "",
          "type": "string"
        }
      ],
      "payable": false,
      "stateMutability": "view",
      "type": "function"
    },
    {
      "constant": true,
      "inputs": [
        {
          "name": "_operator",
          "type": "address"
        },
        {
          "name": "_role",
          "type": "string"
        }
      ],
      "name": "hasRole",
      "outputs": [
        {
          "name": "",
          "type": "bool"
        }
      ],
      "payable": false,
      "stateMutability": "view",
      "type": "function"
    },
    {
      "constant": false,
      "inputs": [
        {
          "name": "_operators",
          "type": "address[]"
        }
      ],
      "name": "removeAddressesFromWhitelist",
      "outputs": [],
      "payable": false,
      "stateMutability": "nonpayable",
      "type": "function"
    },
    {
      "constant": true,
      "inputs": [],
      "name": "onlyAmbassadors",
      "outputs": [
        {
          "name": "",
          "type": "bool"
        }
      ],
      "payable": false,
      "stateMutability": "view",
      "type": "function"
    },
    {
      "constant": false,
      "inputs": [
        {
          "name": "_operator",
          "type": "address"
        }
      ],
      "name": "removeAddressFromWhitelist",
      "outputs": [],
      "payable": false,
      "stateMutability": "nonpayable",
      "type": "function"
    },
    {
      "constant": true,
      "inputs": [],
      "name": "decimals",
      "outputs": [
        {
          "name": "",
          "type": "uint8"
        }
      ],
      "payable": false,
      "stateMutability": "view",
      "type": "function"
    },
    {
      "constant": true,
      "inputs": [
        {
          "name": "_customerAddress",
          "type": "address"
        }
      ],
      "name": "referralBalanceOf",
      "outputs": [
        {
          "name": "",
          "type": "uint256"
        }
      ],
      "payable": false,
      "stateMutability": "view",
      "type": "function"
    },
    {
      "constant": true,
      "inputs": [],
      "name": "sellPrice",
      "outputs": [
        {
          "name": "",
          "type": "uint256"
        }
      ],
      "payable": false,
      "stateMutability": "view",
      "type": "function"
    },
    {
      "constant": false,
      "inputs": [],
      "name": "claimOwnership",
      "outputs": [],
      "payable": false,
      "stateMutability": "nonpayable",
      "type": "function"
    },
    {
      "constant": true,
      "inputs": [],
      "name": "seeleDividendsToEthContractAddress",
      "outputs": [
        {
          "name": "",
          "type": "address"
        }
      ],
      "payable": false,
      "stateMutability": "view",
      "type": "function"
    },
    {
      "constant": true,
      "inputs": [
        {
          "name": "_customerAddress",
          "type": "address"
        }
      ],
      "name": "balanceOf",
      "outputs": [
        {
          "name": "",
          "type": "uint256"
        }
      ],
      "payable": false,
      "stateMutability": "view",
      "type": "function"
    },
    {
      "constant": false,
      "inputs": [],
      "name": "renounceOwnership",
      "outputs": [],
      "payable": false,
      "stateMutability": "nonpayable",
      "type": "function"
    },
    {
      "constant": false,
      "inputs": [
        {
          "name": "_operator",
          "type": "address"
        }
      ],
      "name": "addAddressToWhitelist",
      "outputs": [],
      "payable": false,
      "stateMutability": "nonpayable",
      "type": "function"
    },
    {
      "constant": true,
      "inputs": [],
      "name": "buyPrice",
      "outputs": [
        {
          "name": "",
          "type": "uint256"
        }
      ],
      "payable": false,
      "stateMutability": "view",
      "type": "function"
    },
    {
      "constant": true,
      "inputs": [],
      "name": "owner",
      "outputs": [
        {
          "name": "",
          "type": "address"
        }
      ],
      "payable": false,
      "stateMutability": "view",
      "type": "function"
    },
    {
      "constant": true,
      "inputs": [],
      "name": "symbol",
      "outputs": [
        {
          "name": "",
          "type": "string"
        }
      ],
      "payable": false,
      "stateMutability": "view",
      "type": "function"
    },
    {
      "constant": true,
      "inputs": [
        {
          "name": "_operator",
          "type": "address"
        }
      ],
      "name": "whitelist",
      "outputs": [
        {
          "name": "",
          "type": "bool"
        }
      ],
      "payable": false,
      "stateMutability": "view",
      "type": "function"
    },
    {
      "constant": true,
      "inputs": [
        {
          "name": "",
          "type": "address"
        }
      ],
      "name": "escapeTokenBalance_",
      "outputs": [
        {
          "name": "",
          "type": "uint256"
        }
      ],
      "payable": false,
      "stateMutability": "view",
      "type": "function"
    },
    {
      "constant": true,
      "inputs": [
        {
          "name": "",
          "type": "address"
        }
      ],
      "name": "overSellTokenBalance_",
      "outputs": [
        {
          "name": "",
          "type": "uint256"
        }
      ],
      "payable": false,
      "stateMutability": "view",
      "type": "function"
    },
    {
      "constant": true,
      "inputs": [
        {
          "name": "_tokensToSell",
          "type": "uint256"
        }
      ],
      "name": "calculateBuyTokenReceived",
      "outputs": [
        {
          "name": "",
          "type": "uint256"
        }
      ],
      "payable": false,
      "stateMutability": "view",
      "type": "function"
    },
    {
      "constant": false,
      "inputs": [
        {
          "name": "_operators",
          "type": "address[]"
        }
      ],
      "name": "addAddressesToWhitelist",
      "outputs": [],
      "payable": false,
      "stateMutability": "nonpayable",
      "type": "function"
    },
    {
      "constant": true,
      "inputs": [],
      "name": "pendingOwner",
      "outputs": [
        {
          "name": "",
          "type": "address"
        }
      ],
      "payable": false,
      "stateMutability": "view",
      "type": "function"
    },
    {
      "constant": false,
      "inputs": [
        {
          "name": "newOwner",
          "type": "address"
        }
      ],
      "name": "transferOwnership",
      "outputs": [],
      "payable": false,
      "stateMutability": "nonpayable",
      "type": "function"
    },
    {
      "inputs": [],
      "payable": false,
      "stateMutability": "nonpayable",
      "type": "constructor"
    },
    {
      "payable": true,
      "stateMutability": "payable",
      "type": "fallback"
    },
    {
      "anonymous": false,
      "inputs": [
        {
          "indexed": true,
          "name": "customerAddress",
          "type": "address"
        },
        {
          "indexed": false,
          "name": "incomingEthereum",
          "type": "uint256"
        },
        {
          "indexed": false,
          "name": "tokensMinted",
          "type": "uint256"
        },
        {
          "indexed": true,
          "name": "referredBy",
          "type": "address"
        }
      ],
      "name": "onTokenPurchase",
      "type": "event"
    },
    {
      "anonymous": false,
      "inputs": [
        {
          "indexed": true,
          "name": "customerAddress",
          "type": "address"
        },
        {
          "indexed": false,
          "name": "tokensBurned",
          "type": "uint256"
        },
        {
          "indexed": false,
          "name": "ethereumEarned",
          "type": "uint256"
        }
      ],
      "name": "onTokenSell",
      "type": "event"
    },
    {
      "anonymous": false,
      "inputs": [
        {
          "indexed": true,
          "name": "customerAddress",
          "type": "address"
        },
        {
          "indexed": false,
          "name": "ethereumReinvested",
          "type": "uint256"
        },
        {
          "indexed": false,
          "name": "tokensMinted",
          "type": "uint256"
        }
      ],
      "name": "onReinvestment",
      "type": "event"
    },
    {
      "anonymous": false,
      "inputs": [
        {
          "indexed": true,
          "name": "customerAddress",
          "type": "address"
        },
        {
          "indexed": false,
          "name": "ethereumWithdrawn",
          "type": "uint256"
        }
      ],
      "name": "onWithdraw",
      "type": "event"
    },
    {
      "anonymous": false,
      "inputs": [
        {
          "indexed": true,
          "name": "customerAddress",
          "type": "address"
        },
        {
          "indexed": false,
          "name": "tokensEscaped",
          "type": "uint256"
        }
      ],
      "name": "onTokenEscape",
      "type": "event"
    },
    {
      "anonymous": false,
      "inputs": [
        {
          "indexed": true,
          "name": "customerAddress",
          "type": "address"
        },
        {
          "indexed": false,
          "name": "tokensBurned",
          "type": "uint256"
        },
        {
          "indexed": false,
          "name": "ethereumEarned",
          "type": "uint256"
        }
      ],
      "name": "onTokenArbitrage",
      "type": "event"
    },
    {
      "anonymous": false,
      "inputs": [
        {
          "indexed": true,
          "name": "operator",
          "type": "address"
        },
        {
          "indexed": false,
          "name": "role",
          "type": "string"
        }
      ],
      "name": "RoleAdded",
      "type": "event"
    },
    {
      "anonymous": false,
      "inputs": [
        {
          "indexed": true,
          "name": "operator",
          "type": "address"
        },
        {
          "indexed": false,
          "name": "role",
          "type": "string"
        }
      ],
      "name": "RoleRemoved",
      "type": "event"
    },
    {
      "anonymous": false,
      "inputs": [
        {
          "indexed": true,
          "name": "previousOwner",
          "type": "address"
        }
      ],
      "name": "OwnershipRenounced",
      "type": "event"
    },
    {
      "anonymous": false,
      "inputs": [
        {
          "indexed": true,
          "name": "previousOwner",
          "type": "address"
        },
        {
          "indexed": true,
          "name": "newOwner",
          "type": "address"
        }
      ],
      "name": "OwnershipTransferred",
      "type": "event"
    },
    {
      "constant": false,
      "inputs": [
        {
          "name": "dividendsAddress",
          "type": "address"
        }
      ],
      "name": "setSeeleDividendsToEthContractAddress",
      "outputs": [],
      "payable": false,
      "stateMutability": "nonpayable",
      "type": "function"
    },
    {
      "constant": false,
      "inputs": [
        {
          "name": "buyer",
          "type": "address"
        },
        {
          "name": "amountTokens",
          "type": "uint256"
        },
        {
          "name": "_referredBy",
          "type": "address"
        }
      ],
      "name": "buy",
      "outputs": [
        {
          "name": "",
          "type": "uint256"
        }
      ],
      "payable": true,
      "stateMutability": "payable",
      "type": "function"
    },
    {
      "constant": false,
      "inputs": [
        {
          "name": "buyer",
          "type": "address"
        },
        {
          "name": "buyAmount",
          "type": "uint256"
        }
      ],
      "name": "reinvest",
      "outputs": [],
      "payable": false,
      "stateMutability": "nonpayable",
      "type": "function"
    },
    {
      "constant": false,
      "inputs": [
        {
          "name": "buyer",
          "type": "address"
        }
      ],
      "name": "exit",
      "outputs": [],
      "payable": false,
      "stateMutability": "nonpayable",
      "type": "function"
    },
    {
      "constant": false,
      "inputs": [
        {
          "name": "buyer",
          "type": "address"
        },
        {
          "name": "withdrawAmount",
          "type": "uint256"
        }
      ],
      "name": "withdraw",
      "outputs": [],
      "payable": false,
      "stateMutability": "nonpayable",
      "type": "function"
    },
    {
      "constant": false,
      "inputs": [
        {
          "name": "buyer",
          "type": "address"
        }
      ],
      "name": "withdraw",
      "outputs": [],
      "payable": false,
      "stateMutability": "nonpayable",
      "type": "function"
    },
    {
      "constant": false,
      "inputs": [
        {
          "name": "seller",
          "type": "address"
        },
        {
          "name": "_amountOfTokens",
          "type": "uint256"
        }
      ],
      "name": "sell",
      "outputs": [],
      "payable": false,
      "stateMutability": "nonpayable",
      "type": "function"
    },
    {
      "constant": false,
      "inputs": [],
      "name": "disableInitialStage",
      "outputs": [],
      "payable": false,
      "stateMutability": "nonpayable",
      "type": "function"
    },
    {
      "constant": true,
      "inputs": [],
      "name": "totalBalance",
      "outputs": [
        {
          "name": "",
          "type": "uint256"
        }
      ],
      "payable": false,
      "stateMutability": "view",
      "type": "function"
    },
    {
      "constant": false,
      "inputs": [
        {
          "name": "sellerAddress",
          "type": "address"
        },
        {
          "name": "_amountOfTokens",
          "type": "uint256"
        }
      ],
      "name": "escapeTokens",
      "outputs": [
        {
          "name": "",
          "type": "uint256"
        }
      ],
      "payable": false,
      "stateMutability": "nonpayable",
      "type": "function"
    },
    {
      "constant": false,
      "inputs": [
        {
          "name": "sellerAddress",
          "type": "address"
        },
        {
          "name": "_amountOfTokens",
          "type": "uint256"
        }
      ],
      "name": "arbitrageTokens",
      "outputs": [
        {
          "name": "",
          "type": "uint256"
        }
      ],
      "payable": false,
      "stateMutability": "nonpayable",
      "type": "function"
    }
  ],
  "bytecode": "0x608060405260006009556000600b556000600c5564174876e800600d556402540be400600e556001600f60006101000a81548160ff0219169083151502179055506040805190810160405280600781526020017f4574682d53334400000000000000000000000000000000000000000000000000815250601090805190602001906200008d92919062000209565b506040805190810160405280600781526020017f4574682d5333440000000000000000000000000000000000000000000000000081525060119080519060200190620000db92919062000209565b507347879ac781938cffd879392cd2164b9f7306188a601360006101000a81548173ffffffffffffffffffffffffffffffffffffffff021916908373ffffffffffffffffffffffffffffffffffffffff1602179055503480156200013e57600080fd5b50336000806101000a81548173ffffffffffffffffffffffffffffffffffffffff021916908373ffffffffffffffffffffffffffffffffffffffff16021790555064174876e800600d819055506402540be400600e8190555060016012600073cd16575a90ed9506bcf44c78845d93f1b647f48c73ffffffffffffffffffffffffffffffffffffffff1673ffffffffffffffffffffffffffffffffffffffff16815260200190815260200160002060006101000a81548160ff021916908315150217905550620002b8565b828054600181600116156101000203166002900490600052602060002090601f016020900481019282601f106200024c57805160ff19168380011785556200027d565b828001600101855582156200027d579182015b828111156200027c5782518255916020019190600101906200025f565b5b5090506200028c919062000290565b5090565b620002b591905b80821115620002b157600081600090555060010162000297565b5090565b90565b6138f580620002c86000396000f3006080604052600436106101ed576000357c0100000000000000000000000000000000000000000000000000000000900463ffffffff16806265318b146101ef57806306fdde03146102465780630988ca8c146102d657806310d0ffdd1461035f578063150c95a8146103a057806318160ddd146103e157806318b919e91461040c578063217fe6c61461049c57806324953eaa1461053d57806327defa1f146105a3578063286dd3f5146105d2578063313ce567146106155780633be8eb7e1461064657806346534649146106a75780634b750334146106fe5780634e71e0c81461072957806351cff8d91461074057806359e4644d146107835780636c197ff5146107da57806370a0823114610827578063715018a61461087e5780637b9417c8146108955780638620410b146108d85780638da5cb5b1461090357806395d89b411461095a5780639b19251a146109ea5780639f40dd4214610a45578063a19ec23314610a9c578063a8e04f3414610af3578063ad7a672f14610b0a578063b42652e914610b35578063b73f34b414610b78578063d18e97ad14610bb9578063d3d6dce714610bfc578063d65a261714610c5d578063db61c76e14610caa578063e2ec6ec314610d1e578063e30c397814610d84578063f2fde38b14610ddb578063f3fef3a314610e1e575b005b3480156101fb57600080fd5b50610230600480360381019080803573ffffffffffffffffffffffffffffffffffffffff169060200190929190505050610e6b565b6040518082815260200191505060405180910390f35b34801561025257600080fd5b5061025b610f0d565b6040518080602001828103825283818151815260200191508051906020019080838360005b8381101561029b578082015181840152602081019050610280565b50505050905090810190601f1680156102c85780820380516001836020036101000a031916815260200191505b509250505060405180910390f35b3480156102e257600080fd5b5061035d600480360381019080803573ffffffffffffffffffffffffffffffffffffffff169060200190929190803590602001908201803590602001908080601f0160208091040260200160405190810160405280939291908181526020018383808284378201915050505050509192919290505050610fab565b005b34801561036b57600080fd5b5061038a6004803603810190808035906020019092919050505061102c565b6040518082815260200191505060405180910390f35b3480156103ac57600080fd5b506103cb60048036038101908080359060200190929190505050611064565b6040518082815260200191505060405180910390f35b3480156103ed57600080fd5b506103f661109c565b6040518082815260200191505060405180910390f35b34801561041857600080fd5b506104216110a6565b6040518080602001828103825283818151815260200191508051906020019080838360005b83811015610461578082015181840152602081019050610446565b50505050905090810190601f16801561048e5780820380516001836020036101000a031916815260200191505b509250505060405180910390f35b3480156104a857600080fd5b50610523600480360381019080803573ffffffffffffffffffffffffffffffffffffffff169060200190929190803590602001908201803590602001908080601f01602080910402602001604051908101604052809392919081815260200183838082843782019150505050505091929192905050506110df565b604051808215151515815260200191505060405180910390f35b34801561054957600080fd5b506105a160048036038101908080359060200190820180359060200190808060200260200160405190810160405280939291908181526020018383602002808284378201915050505050509192919290505050611166565b005b3480156105af57600080fd5b506105b8611202565b604051808215151515815260200191505060405180910390f35b3480156105de57600080fd5b50610613600480360381019080803573ffffffffffffffffffffffffffffffffffffffff169060200190929190505050611215565b005b34801561062157600080fd5b5061062a6112b2565b604051808260ff1660ff16815260200191505060405180910390f35b34801561065257600080fd5b50610691600480360381019080803573ffffffffffffffffffffffffffffffffffffffff169060200190929190803590602001909291905050506112b7565b6040518082815260200191505060405180910390f35b3480156106b357600080fd5b506106e8600480360381019080803573ffffffffffffffffffffffffffffffffffffffff1690602001909291905050506114dc565b6040518082815260200191505060405180910390f35b34801561070a57600080fd5b50610713611525565b6040518082815260200191505060405180910390f35b34801561073557600080fd5b5061073e611582565b005b34801561074c57600080fd5b50610781600480360381019080803573ffffffffffffffffffffffffffffffffffffffff169060200190929190505050611721565b005b34801561078f57600080fd5b50610798611911565b604051808273ffffffffffffffffffffffffffffffffffffffff1673ffffffffffffffffffffffffffffffffffffffff16815260200191505060405180910390f35b3480156107e657600080fd5b50610825600480360381019080803573ffffffffffffffffffffffffffffffffffffffff16906020019092919080359060200190929190505050611937565b005b34801561083357600080fd5b50610868600480360381019080803573ffffffffffffffffffffffffffffffffffffffff169060200190929190505050611bb3565b6040518082815260200191505060405180910390f35b34801561088a57600080fd5b50610893611bfc565b005b3480156108a157600080fd5b506108d6600480360381019080803573ffffffffffffffffffffffffffffffffffffffff169060200190929190505050611cfe565b005b3480156108e457600080fd5b506108ed611d9b565b6040518082815260200191505060405180910390f35b34801561090f57600080fd5b50610918611df8565b604051808273ffffffffffffffffffffffffffffffffffffffff1673ffffffffffffffffffffffffffffffffffffffff16815260200191505060405180910390f35b34801561096657600080fd5b5061096f611e1d565b6040518080602001828103825283818151815260200191508051906020019080838360005b838110156109af578082015181840152602081019050610994565b50505050905090810190601f1680156109dc5780820380516001836020036101000a031916815260200191505b509250505060405180910390f35b3480156109f657600080fd5b50610a2b600480360381019080803573ffffffffffffffffffffffffffffffffffffffff169060200190929190505050611ebb565b604051808215151515815260200191505060405180910390f35b348015610a5157600080fd5b50610a86600480360381019080803573ffffffffffffffffffffffffffffffffffffffff169060200190929190505050611f03565b6040518082815260200191505060405180910390f35b348015610aa857600080fd5b50610add600480360381019080803573ffffffffffffffffffffffffffffffffffffffff169060200190929190505050611f1b565b6040518082815260200191505060405180910390f35b348015610aff57600080fd5b50610b08611f33565b005b348015610b1657600080fd5b50610b1f611fab565b6040518082815260200191505060405180910390f35b348015610b4157600080fd5b50610b76600480360381019080803573ffffffffffffffffffffffffffffffffffffffff169060200190929190505050611fca565b005b348015610b8457600080fd5b50610ba360048036038101908080359060200190929190505050612075565b6040518082815260200191505060405180910390f35b348015610bc557600080fd5b50610bfa600480360381019080803573ffffffffffffffffffffffffffffffffffffffff1690602001909291905050506120c3565b005b348015610c0857600080fd5b50610c47600480360381019080803573ffffffffffffffffffffffffffffffffffffffff16906020019092919080359060200190929190505050612162565b6040518082815260200191505060405180910390f35b348015610c6957600080fd5b50610ca8600480360381019080803573ffffffffffffffffffffffffffffffffffffffff16906020019092919080359060200190929190505050612400565b005b610d08600480360381019080803573ffffffffffffffffffffffffffffffffffffffff16906020019092919080359060200190929190803573ffffffffffffffffffffffffffffffffffffffff16906020019092919050505061267f565b6040518082815260200191505060405180910390f35b348015610d2a57600080fd5b50610d82600480360381019080803590602001908201803590602001908080602002602001604051908101604052809392919081815260200183836020028082843782019150505050505091929192905050506126d5565b005b348015610d9057600080fd5b50610d99612771565b604051808273ffffffffffffffffffffffffffffffffffffffff1673ffffffffffffffffffffffffffffffffffffffff16815260200191505060405180910390f35b348015610de757600080fd5b50610e1c600480360381019080803573ffffffffffffffffffffffffffffffffffffffff169060200190929190505050612797565b005b348015610e2a57600080fd5b50610e69600480360381019080803573ffffffffffffffffffffffffffffffffffffffff16906020019092919080359060200190929190505050612836565b005b600068010000000000000000600560008473ffffffffffffffffffffffffffffffffffffffff1673ffffffffffffffffffffffffffffffffffffffff16815260200190815260200160002054600360008573ffffffffffffffffffffffffffffffffffffffff1673ffffffffffffffffffffffffffffffffffffffff16815260200190815260200160002054600a540203811515610f0557fe5b049050919050565b60108054600181600116156101000203166002900480601f016020809104026020016040519081016040528092919081815260200182805460018160011615610100020316600290048015610fa35780601f10610f7857610100808354040283529160200191610fa3565b820191906000526020600020905b815481529060010190602001808311610f8657829003601f168201915b505050505081565b611028826002836040518082805190602001908083835b602083101515610fe75780518252602082019150602081019050602083039250610fc2565b6001836020036101000a0380198251168184511680821785525050505050509050019150509081526020016040518091039020612ae390919063ffffffff16565b5050565b60008060008061104085600a60ff16612afc565b925061104c8584612b12565b915061105782612b2b565b9050809350505050919050565b60008060008061107385612bab565b925061108383600a60ff16612afc565b915061108f8383612b12565b9050809350505050919050565b6000600954905090565b6040805190810160405280600981526020017f77686974656c697374000000000000000000000000000000000000000000000081525081565b600061115e836002846040518082805190602001908083835b60208310151561111d57805182526020820191506020810190506020830392506110f8565b6001836020036101000a0380198251168184511680821785525050505050509050019150509081526020016040518091039020612c4f90919063ffffffff16565b905092915050565b60008060009054906101000a900473ffffffffffffffffffffffffffffffffffffffff1673ffffffffffffffffffffffffffffffffffffffff163373ffffffffffffffffffffffffffffffffffffffff161415156111c357600080fd5b600090505b81518110156111fe576111f182828151811015156111e257fe5b90602001906020020151611215565b80806001019150506111c8565b5050565b600f60009054906101000a900460ff1681565b6000809054906101000a900473ffffffffffffffffffffffffffffffffffffffff1673ffffffffffffffffffffffffffffffffffffffff163373ffffffffffffffffffffffffffffffffffffffff1614151561127057600080fd5b6112af816040805190810160405280600981526020017f77686974656c6973740000000000000000000000000000000000000000000000815250612ca8565b50565b601281565b60008060008060008033611300816040805190810160405280600981526020017f77686974656c6973740000000000000000000000000000000000000000000000815250610fab565b611308612ddc565b881115151561131657600080fd5b88955061132288612bab565b945061132c611fab565b851115151561133a57600080fd5b61134885600a60ff16612afc565b93506113548585612b12565b9250611362600c5489612dfc565b600c819055506113b1600860008873ffffffffffffffffffffffffffffffffffffffff1673ffffffffffffffffffffffffffffffffffffffff1681526020019081526020016000205489612dfc565b600860008873ffffffffffffffffffffffffffffffffffffffff1673ffffffffffffffffffffffffffffffffffffffff168152602001908152602001600020819055506113fc612e18565b9150600082111561143057611429600a548368010000000000000000870281151561142357fe5b04612dfc565b600a819055505b8573ffffffffffffffffffffffffffffffffffffffff166108fc849081150290604051600060405180830381858888f19350505050158015611476573d6000803e3d6000fd5b508573ffffffffffffffffffffffffffffffffffffffff167fe9d4fb0074327a194c752e06c8b2fce4a89cd86202090528bb81582a3f20fedd8985604051808381526020018281526020019250505060405180910390a282965050505050505092915050565b6000600460008373ffffffffffffffffffffffffffffffffffffffff1673ffffffffffffffffffffffffffffffffffffffff168152602001908152602001600020549050919050565b6000806000806000611535612ddc565b141561154957600e54600d5403935061157c565b61155a670de0b6b3a7640000612bab565b925061156a83600a60ff16612afc565b91506115768383612b12565b90508093505b50505090565b600160009054906101000a900473ffffffffffffffffffffffffffffffffffffffff1673ffffffffffffffffffffffffffffffffffffffff163373ffffffffffffffffffffffffffffffffffffffff161415156115de57600080fd5b600160009054906101000a900473ffffffffffffffffffffffffffffffffffffffff1673ffffffffffffffffffffffffffffffffffffffff166000809054906101000a900473ffffffffffffffffffffffffffffffffffffffff1673ffffffffffffffffffffffffffffffffffffffff167f8be0079c531659141344cd1fd0a4f28419497f9722a3daafe3b4186f6b6457e060405160405180910390a3600160009054906101000a900473ffffffffffffffffffffffffffffffffffffffff166000806101000a81548173ffffffffffffffffffffffffffffffffffffffff021916908373ffffffffffffffffffffffffffffffffffffffff1602179055506000600160006101000a81548173ffffffffffffffffffffffffffffffffffffffff021916908373ffffffffffffffffffffffffffffffffffffffff160217905550565b600080826000611730826114dc565b61173983610e6b565b0111151561174657600080fd5b33611786816040805190810160405280600981526020017f77686974656c6973740000000000000000000000000000000000000000000000815250610fab565b84935061179284610e6b565b9250680100000000000000008302600560008673ffffffffffffffffffffffffffffffffffffffff1673ffffffffffffffffffffffffffffffffffffffff16815260200190815260200160002060008282540192505081905550600460008573ffffffffffffffffffffffffffffffffffffffff1673ffffffffffffffffffffffffffffffffffffffff16815260200190815260200160002054830192506000600460008673ffffffffffffffffffffffffffffffffffffffff1673ffffffffffffffffffffffffffffffffffffffff168152602001908152602001600020819055508373ffffffffffffffffffffffffffffffffffffffff166108fc849081150290604051600060405180830381858888f193505050501580156118bb573d6000803e3d6000fd5b508373ffffffffffffffffffffffffffffffffffffffff167fccad973dcd043c7d680389db4378bd6b9775db7124092e9e0422c9e46d7985dc846040518082815260200191505060405180910390a25050505050565b601360009054906101000a900473ffffffffffffffffffffffffffffffffffffffff1681565b600080600080600080600088600061194e82611bb3565b11151561195a57600080fd5b3361199a816040805190810160405280600981526020017f77686974656c6973740000000000000000000000000000000000000000000000815250610fab565b8a9850600360008a73ffffffffffffffffffffffffffffffffffffffff1673ffffffffffffffffffffffffffffffffffffffff168152602001908152602001600020548a111515156119eb57600080fd5b8997506119f788612bab565b9650611a0787600a60ff16612afc565b9550611a138787612b12565b9450611a2160095489612b12565b600981905550611a70600360008b73ffffffffffffffffffffffffffffffffffffffff1673ffffffffffffffffffffffffffffffffffffffff1681526020019081526020016000205489612b12565b600360008b73ffffffffffffffffffffffffffffffffffffffff1673ffffffffffffffffffffffffffffffffffffffff1681526020019081526020016000208190555068010000000000000000850288600a540201935083600560008b73ffffffffffffffffffffffffffffffffffffffff1673ffffffffffffffffffffffffffffffffffffffff16815260200190815260200160002060008282540392505081905550611b1c612e18565b92506000831115611b5057611b49600a5484680100000000000000008902811515611b4357fe5b04612dfc565b600a819055505b8873ffffffffffffffffffffffffffffffffffffffff167fc4823739c5787d2ca17e404aa47d5569ae71dfb49cbf21b3f6152ed238a311398987604051808381526020018281526020019250505060405180910390a25050505050505050505050565b6000600360008373ffffffffffffffffffffffffffffffffffffffff1673ffffffffffffffffffffffffffffffffffffffff168152602001908152602001600020549050919050565b6000809054906101000a900473ffffffffffffffffffffffffffffffffffffffff1673ffffffffffffffffffffffffffffffffffffffff163373ffffffffffffffffffffffffffffffffffffffff16141515611c5757600080fd5b6000809054906101000a900473ffffffffffffffffffffffffffffffffffffffff1673ffffffffffffffffffffffffffffffffffffffff167ff8df31144d9c2f0f6b59d69b8b98abd5459d07f2742c4df920b25aae33c6482060405160405180910390a260008060006101000a81548173ffffffffffffffffffffffffffffffffffffffff021916908373ffffffffffffffffffffffffffffffffffffffff160217905550565b6000809054906101000a900473ffffffffffffffffffffffffffffffffffffffff1673ffffffffffffffffffffffffffffffffffffffff163373ffffffffffffffffffffffffffffffffffffffff16141515611d5957600080fd5b611d98816040805190810160405280600981526020017f77686974656c6973740000000000000000000000000000000000000000000000815250612e22565b50565b6000806000806000611dab612ddc565b1415611dbf57600e54600d54019350611df2565b611dd0670de0b6b3a7640000612bab565b9250611de083600a60ff16612afc565b9150611dec8383612dfc565b90508093505b50505090565b6000809054906101000a900473ffffffffffffffffffffffffffffffffffffffff1681565b60118054600181600116156101000203166002900480601f016020809104026020016040519081016040528092919081815260200182805460018160011615610100020316600290048015611eb35780601f10611e8857610100808354040283529160200191611eb3565b820191906000526020600020905b815481529060010190602001808311611e9657829003601f168201915b505050505081565b6000611efc826040805190810160405280600981526020017f77686974656c69737400000000000000000000000000000000000000000000008152506110df565b9050919050565b60076020528060005260406000206000915090505481565b60086020528060005260406000206000915090505481565b6000809054906101000a900473ffffffffffffffffffffffffffffffffffffffff1673ffffffffffffffffffffffffffffffffffffffff163373ffffffffffffffffffffffffffffffffffffffff16141515611f8e57600080fd5b6000600f60006101000a81548160ff021916908315150217905550565b60003073ffffffffffffffffffffffffffffffffffffffff1631905090565b6000803361200d816040805190810160405280600981526020017f77686974656c6973740000000000000000000000000000000000000000000000815250610fab565b839250600360008473ffffffffffffffffffffffffffffffffffffffff1673ffffffffffffffffffffffffffffffffffffffff1681526020019081526020016000205491506000821115612066576120658483611937565b5b61206f84611721565b50505050565b600080600080612083612ddc565b851115151561209157600080fd5b61209a85612bab565b92506120aa83600a60ff16612afc565b91506120b68383612b12565b9050809350505050919050565b6000809054906101000a900473ffffffffffffffffffffffffffffffffffffffff1673ffffffffffffffffffffffffffffffffffffffff163373ffffffffffffffffffffffffffffffffffffffff1614151561211e57600080fd5b80601360006101000a81548173ffffffffffffffffffffffffffffffffffffffff021916908373ffffffffffffffffffffffffffffffffffffffff16021790555050565b60008060008085600061217482611bb3565b11151561218057600080fd5b336121c0816040805190810160405280600981526020017f77686974656c6973740000000000000000000000000000000000000000000000815250610fab565b879450600360008673ffffffffffffffffffffffffffffffffffffffff1673ffffffffffffffffffffffffffffffffffffffff16815260200190815260200160002054871115151561221157600080fd5b86935061222060095485612b12565b600981905550612232600b5485612dfc565b600b81905550612281600360008773ffffffffffffffffffffffffffffffffffffffff1673ffffffffffffffffffffffffffffffffffffffff1681526020019081526020016000205485612b12565b600360008773ffffffffffffffffffffffffffffffffffffffff1673ffffffffffffffffffffffffffffffffffffffff1681526020019081526020016000208190555061230d600760008773ffffffffffffffffffffffffffffffffffffffff1673ffffffffffffffffffffffffffffffffffffffff1681526020019081526020016000205485612dfc565b600760008773ffffffffffffffffffffffffffffffffffffffff1673ffffffffffffffffffffffffffffffffffffffff1681526020019081526020016000208190555083600a5402925082600560008773ffffffffffffffffffffffffffffffffffffffff1673ffffffffffffffffffffffffffffffffffffffff168152602001908152602001600020600082825403925050819055508473ffffffffffffffffffffffffffffffffffffffff167ff442d356b73f85e354ab3e2be58a493fbcbfc105e75bd7cef5c6d1882bd20715856040518082815260200191505060405180910390a2839550505050505092915050565b6000806000846000612411826114dc565b61241a83610e6b565b0111151561242757600080fd5b33612467816040805190810160405280600981526020017f77686974656c6973740000000000000000000000000000000000000000000000815250610fab565b61247087610e6b565b9450600460008873ffffffffffffffffffffffffffffffffffffffff1673ffffffffffffffffffffffffffffffffffffffff16815260200190815260200160002054935083850186111515156124c557600080fd5b848611151561252b57680100000000000000008602600560008973ffffffffffffffffffffffffffffffffffffffff1673ffffffffffffffffffffffffffffffffffffffff16815260200190815260200160002060008282540192505081905550612612565b680100000000000000008502600560008973ffffffffffffffffffffffffffffffffffffffff1673ffffffffffffffffffffffffffffffffffffffff168152602001908152602001600020600082825401925050819055506125ce600460008973ffffffffffffffffffffffffffffffffffffffff1673ffffffffffffffffffffffffffffffffffffffff16815260200190815260200160002054868803612b12565b600460008973ffffffffffffffffffffffffffffffffffffffff1673ffffffffffffffffffffffffffffffffffffffff168152602001908152602001600020819055505b61261e87876000612f56565b92508673ffffffffffffffffffffffffffffffffffffffff167fbe339fc14b041c2b0e0f3dd2cd325d0c3668b78378001e53160eab36153264588785604051808381526020018281526020019250505060405180910390a250505050505050565b6000336126c1816040805190810160405280600981526020017f77686974656c6973740000000000000000000000000000000000000000000000815250610fab565b6126cc853485612f56565b50509392505050565b60008060009054906101000a900473ffffffffffffffffffffffffffffffffffffffff1673ffffffffffffffffffffffffffffffffffffffff163373ffffffffffffffffffffffffffffffffffffffff1614151561273257600080fd5b600090505b815181101561276d57612760828281518110151561275157fe5b90602001906020020151611cfe565b8080600101915050612737565b5050565b600160009054906101000a900473ffffffffffffffffffffffffffffffffffffffff1681565b6000809054906101000a900473ffffffffffffffffffffffffffffffffffffffff1673ffffffffffffffffffffffffffffffffffffffff163373ffffffffffffffffffffffffffffffffffffffff161415156127f257600080fd5b80600160006101000a81548173ffffffffffffffffffffffffffffffffffffffff021916908373ffffffffffffffffffffffffffffffffffffffff16021790555050565b600080836000612845826114dc565b61284e83610e6b565b0111151561285b57600080fd5b3361289b816040805190810160405280600981526020017f77686974656c6973740000000000000000000000000000000000000000000000815250610fab565b6128a486610e6b565b9350600460008773ffffffffffffffffffffffffffffffffffffffff1673ffffffffffffffffffffffffffffffffffffffff16815260200190815260200160002054925082840185111515156128f957600080fd5b838511151561295f57680100000000000000008502600560008873ffffffffffffffffffffffffffffffffffffffff1673ffffffffffffffffffffffffffffffffffffffff16815260200190815260200160002060008282540192505081905550612a46565b680100000000000000008402600560008873ffffffffffffffffffffffffffffffffffffffff1673ffffffffffffffffffffffffffffffffffffffff16815260200190815260200160002060008282540192505081905550612a02600460008873ffffffffffffffffffffffffffffffffffffffff1673ffffffffffffffffffffffffffffffffffffffff16815260200190815260200160002054858703612b12565b600460008873ffffffffffffffffffffffffffffffffffffffff1673ffffffffffffffffffffffffffffffffffffffff168152602001908152602001600020819055505b8573ffffffffffffffffffffffffffffffffffffffff166108fc869081150290604051600060405180830381858888f19350505050158015612a8c573d6000803e3d6000fd5b508573ffffffffffffffffffffffffffffffffffffffff167fccad973dcd043c7d680389db4378bd6b9775db7124092e9e0422c9e46d7985dc866040518082815260200191505060405180910390a2505050505050565b612aed8282612c4f565b1515612af857600080fd5b5050565b60008183811515612b0957fe5b04905092915050565b6000828211151515612b2057fe5b818303905092915050565b600080600080600d549250612b3e612ddc565b9150600954600e54612b93612b8d60095487600e54600202020260026009540a6002600e540a02670de0b6b3a76400008b02670de0b6b3a7640000600e54026002020260028a0a0101016137c2565b86612b12565b811515612b9c57fe5b04039050809350505050919050565b600080600080670de0b6b3a764000085019250670de0b6b3a7640000612bcf612ddc565b019150670de0b6b3a7640000612c38670de0b6b3a76400008503600e54670de0b6b3a764000086811515612bff57fe5b04600e5402600d540103026002670de0b6b3a7640000876002890a03811515612c2457fe5b04600e5402811515612c3257fe5b04612b12565b811515612c4157fe5b049050809350505050919050565b60008260000160008373ffffffffffffffffffffffffffffffffffffffff1673ffffffffffffffffffffffffffffffffffffffff16815260200190815260200160002060009054906101000a900460ff16905092915050565b612d25826002836040518082805190602001908083835b602083101515612ce45780518252602082019150602081019050602083039250612cbf565b6001836020036101000a038019825116818451168082178552505050505050905001915050908152602001604051809103902061380d90919063ffffffff16565b8173ffffffffffffffffffffffffffffffffffffffff167fd211483f91fc6eff862467f8de606587a30c8fc9981056f051b897a418df803a826040518080602001828103825283818151815260200191508051906020019080838360005b83811015612d9e578082015181840152602081019050612d83565b50505050905090810190601f168015612dcb5780820380516001836020036101000a031916815260200191505b509250505060405180910390a25050565b6000612df7612def600954600b54612dfc565b600c54612b12565b905090565b60008183019050828110151515612e0f57fe5b80905092915050565b6000600954905090565b612e9f826002836040518082805190602001908083835b602083101515612e5e5780518252602082019150602081019050602083039250612e39565b6001836020036101000a038019825116818451168082178552505050505050905001915050908152602001604051809103902061386b90919063ffffffff16565b8173ffffffffffffffffffffffffffffffffffffffff167fbfec83d64eaa953f2708271a023ab9ee82057f8f3578d548c1a4ba0b5b700489826040518080602001828103825283818151815260200191508051906020019080838360005b83811015612f18578082015181840152602081019050612efd565b50505050905090810190601f168015612f455780820380516001836020036101000a031916815260200191505b509250505060405180910390a25050565b600080600080600080600089896000829050600f60009054906101000a900460ff168015612f9657506801158e460913d0000082612f92611fab565b0311155b1561343b5760011515601260008373ffffffffffffffffffffffffffffffffffffffff1673ffffffffffffffffffffffffffffffffffffffff16815260200190815260200160002060009054906101000a900460ff1615151480156130445750670de0b6b3a764000082600660008473ffffffffffffffffffffffffffffffffffffffff1673ffffffffffffffffffffffffffffffffffffffff168152602001908152602001600020540111155b151561304f57600080fd5b613098600660008373ffffffffffffffffffffffffffffffffffffffff1673ffffffffffffffffffffffffffffffffffffffff1681526020019081526020016000205483612dfc565b600660008373ffffffffffffffffffffffffffffffffffffffff1673ffffffffffffffffffffffffffffffffffffffff168152602001908152602001600020819055506130e98c600a60ff16612afc565b98506130f6896003612afc565b97506131028989612b12565b965061310e8c8a612b12565b955061311986612b2b565b94506801000000000000000087029350600085118015613145575060095461314386600954612dfc565b115b151561315057600080fd5b600073ffffffffffffffffffffffffffffffffffffffff168b73ffffffffffffffffffffffffffffffffffffffff16141580156131b957508c73ffffffffffffffffffffffffffffffffffffffff168b73ffffffffffffffffffffffffffffffffffffffff1614155b1561324f57613207600460008d73ffffffffffffffffffffffffffffffffffffffff1673ffffffffffffffffffffffffffffffffffffffff1681526020019081526020016000205489612dfc565b600460008d73ffffffffffffffffffffffffffffffffffffffff1673ffffffffffffffffffffffffffffffffffffffff1681526020019081526020016000208190555061326a565b6132598789612dfc565b965068010000000000000000870293505b600060095411156132df5761328160095486612dfc565b60098190555061328f612e18565b6801000000000000000088028115156132a457fe5b04600a600082825401925050819055506132bc612e18565b6801000000000000000088028115156132d157fe5b0485028403840393506132e7565b846009819055505b613330600360008f73ffffffffffffffffffffffffffffffffffffffff1673ffffffffffffffffffffffffffffffffffffffff1681526020019081526020016000205486612dfc565b600360008f73ffffffffffffffffffffffffffffffffffffffff1673ffffffffffffffffffffffffffffffffffffffff168152602001908152602001600020819055508385600a540203600560008f73ffffffffffffffffffffffffffffffffffffffff1673ffffffffffffffffffffffffffffffffffffffff168152602001908152602001600020600082825401925050819055508a73ffffffffffffffffffffffffffffffffffffffff168d73ffffffffffffffffffffffffffffffffffffffff167f022c0d992e4d873a3748436d960d5140c1f9721cf73f7ca5ec679d3d9f4fe2d58e88604051808381526020018281526020019250505060405180910390a38499506137b2565b6000600f60006101000a81548160ff0219169083151502179055506134648c600a60ff16612afc565b9850613471896003612afc565b975061347d8989612b12565b96506134898c8a612b12565b955061349486612b2b565b945068010000000000000000870293506000851180156134c057506009546134be86600954612dfc565b115b15156134cb57600080fd5b600073ffffffffffffffffffffffffffffffffffffffff168b73ffffffffffffffffffffffffffffffffffffffff161415801561353457508c73ffffffffffffffffffffffffffffffffffffffff168b73ffffffffffffffffffffffffffffffffffffffff1614155b156135ca57613582600460008d73ffffffffffffffffffffffffffffffffffffffff1673ffffffffffffffffffffffffffffffffffffffff1681526020019081526020016000205489612dfc565b600460008d73ffffffffffffffffffffffffffffffffffffffff1673ffffffffffffffffffffffffffffffffffffffff168152602001908152602001600020819055506135e5565b6135d48789612dfc565b965068010000000000000000870293505b6000600954111561365a576135fc60095486612dfc565b60098190555061360a612e18565b68010000000000000000880281151561361f57fe5b04600a60008282540192505081905550613637612e18565b68010000000000000000880281151561364c57fe5b048502840384039350613662565b846009819055505b6136ab600360008f73ffffffffffffffffffffffffffffffffffffffff1673ffffffffffffffffffffffffffffffffffffffff1681526020019081526020016000205486612dfc565b600360008f73ffffffffffffffffffffffffffffffffffffffff1673ffffffffffffffffffffffffffffffffffffffff168152602001908152602001600020819055508385600a540203600560008f73ffffffffffffffffffffffffffffffffffffffff1673ffffffffffffffffffffffffffffffffffffffff168152602001908152602001600020600082825401925050819055508a73ffffffffffffffffffffffffffffffffffffffff168d73ffffffffffffffffffffffffffffffffffffffff167f022c0d992e4d873a3748436d960d5140c1f9721cf73f7ca5ec679d3d9f4fe2d58e88604051808381526020018281526020019250505060405180910390a38499505b5050505050505050509392505050565b6000806002600184018115156137d457fe5b0490508291505b818110156138075780915060028182858115156137f457fe5b04018115156137ff57fe5b0490506137db565b50919050565b60008260000160008373ffffffffffffffffffffffffffffffffffffffff1673ffffffffffffffffffffffffffffffffffffffff16815260200190815260200160002060006101000a81548160ff0219169083151502179055505050565b60018260000160008373ffffffffffffffffffffffffffffffffffffffff1673ffffffffffffffffffffffffffffffffffffffff16815260200190815260200160002060006101000a81548160ff02191690831515021790555050505600a165627a7a72305820ce8bf67cafcc9161a0d37b51d91d3c04fa3af7748369f55774f075d7c7777f570029",
  "source": "pragma solidity ^0.4.21;\r\n\r\nimport \"zeppelin-solidity/contracts/math/SafeMath.sol\";\r\nimport \"zeppelin-solidity/contracts/ownership/Claimable.sol\";\r\nimport \"zeppelin-solidity/contracts/access/Whitelist.sol\";\r\nimport \"../contracts/interface/TokenDealerInterface.sol\";\r\nimport \"./S3Devents.sol\";\r\nimport \"./SeeleDividendsToEth.sol\";\r\nimport \"./S3DTokenBase.sol\";\r\n\r\n\r\ncontract EthDealer is Claimable, Whitelist, S3DEvents, S3DTokenBase{\r\n\r\n    // ensures that the first tokens in the contract will be equally distributed\r\n    // meaning, no divine dump will be ever possible\r\n    // result: healthy longevity.\r\n    modifier antiEarlyWhale(address buyer, uint256 _amountOfEthereum){\r\n        address _customerAddress = buyer;\r\n        \r\n        // are we still in the vulnerable phase?\r\n        // if so, enact anti early whale protocol \r\n        if( onlyAmbassadors && ((totalBalance() - _amountOfEthereum) <= ambassadorQuota_ )){\r\n            require(\r\n                // is the customer in the ambassador list?\r\n                ambassadors_[_customerAddress] == true &&\r\n                \r\n                // does the customer purchase exceed the max ambassador quota?\r\n                (ambassadorAccumulatedQuota_[_customerAddress] + _amountOfEthereum) <= ambassadorMaxPurchase_\r\n                \r\n            );\r\n            \r\n            // updated the accumulated quota    \r\n            ambassadorAccumulatedQuota_[_customerAddress] = SafeMath.add(ambassadorAccumulatedQuota_[_customerAddress], _amountOfEthereum);\r\n        \r\n            // execute\r\n            _;\r\n        } else {\r\n            // in case the ether count drops low, the ambassador phase won't reinitiate\r\n            onlyAmbassadors = false;\r\n            _;    \r\n        }   \r\n    }\r\n    \r\n\r\n    /*=====================================\r\n    =            CONFIGURABLES            =\r\n    =====================================*/\r\n    string public name = \"Eth-S3D\";\r\n    string public symbol = \"Eth-S3D\";\r\n\r\n\r\n    // ambassador program\r\n    mapping(address => bool) internal ambassadors_;\r\n    uint256 constant internal ambassadorMaxPurchase_ = 1 ether;\r\n    uint256 constant internal ambassadorQuota_ = 20 ether;\r\n    \r\n\r\n    address public seeleDividendsToEthContractAddress = 0x47879ac781938CFfd879392Cd2164b9F7306188a;\r\n\r\n    /*=======================================\r\n    =            PUBLIC FUNCTIONS            =\r\n    =======================================*/\r\n    /*\r\n    * -- APPLICATION ENTRY POINTS --  \r\n    */\r\n    function EthDealer()\r\n        public\r\n    {\r\n        tokenPriceInitial_ = 0.0000001 ether;\r\n        tokenPriceIncremental_ = 0.00000001 ether;\r\n\r\n        // add the ambassadors here.\r\n        // mantso - lead solidity dev & lead web dev. \r\n        ambassadors_[0xCd16575A90eD9506BCf44C78845d93F1b647F48C] = true;\r\n    }\r\n    \r\n    function setSeeleDividendsToEthContractAddress(address dividendsAddress)\r\n        public \r\n        onlyOwner()\r\n    {\r\n        seeleDividendsToEthContractAddress = dividendsAddress;\r\n    }\r\n\r\n    /**\r\n     * Converts all incoming ethereum to tokens for the caller, and passes down the referral addy (if any)\r\n     */\r\n    function buy(address buyer, uint amountTokens, address _referredBy)\r\n        public\r\n        payable\r\n        onlyIfWhitelisted(msg.sender)\r\n        returns(uint256)\r\n    {\r\n        purchaseTokens(buyer, msg.value, _referredBy);\r\n    }\r\n    \r\n    /**\r\n     * Fallback function to handle ethereum that was send straight to the contract\r\n     * Unfortunately we cannot use a referral address this way.\r\n     */\r\n    function()\r\n        payable\r\n        public\r\n    {\r\n        //purchaseTokens(msg.value, 0x0);\r\n    }\r\n    \r\n    /**\r\n     * Converts all of caller's dividends to tokens.\r\n     */\r\n    //\r\n    // function reinvest(address buyer)\r\n    //     onlyStronghands(buyer)\r\n    //     public\r\n    // {\r\n    //     // fetch dividends\r\n    //     uint256 _dividends = myDividends(buyer, false); // retrieve ref. bonus later in the code\r\n        \r\n    //     // pay out the dividends virtually\r\n    //     address _customerAddress = buyer;\r\n    //     payoutsTo_[_customerAddress] +=  (int256) (_dividends * magnitude);\r\n        \r\n    //     // retrieve ref. bonus\r\n    //     _dividends += referralBalance_[_customerAddress];\r\n    //     referralBalance_[_customerAddress] = 0;\r\n        \r\n    //     // dispatch a buy order with the virtualized \"withdrawn dividends\"\r\n    //     uint256 _tokens = purchaseTokens(_customerAddress, _dividends, 0x0);\r\n        \r\n    //     // fire event\r\n    //     emit onReinvestment(_customerAddress, _dividends, _tokens);\r\n    // }\r\n    function reinvest(address buyer, uint buyAmount)\r\n        onlyStronghands(buyer)\r\n        onlyIfWhitelisted(msg.sender)\r\n        public\r\n    {\r\n        // fetch dividends\r\n        uint256 _dividends = dividendsOf(buyer); // retrieve ref. bonus later in the code\r\n        uint256 _referralBalance = referralBalance_[buyer];\r\n        require(buyAmount <= (_dividends + _referralBalance));\r\n\r\n        if (buyAmount <= _dividends) {\r\n            // pay out the dividends virtually\r\n            payoutsTo_[buyer] +=  (int256)(buyAmount * magnitude);\r\n        } else {\r\n            // retrieve ref. bonus\r\n            payoutsTo_[buyer] +=  (int256) (_dividends * magnitude);\r\n            referralBalance_[buyer] = SafeMath.sub(referralBalance_[buyer], buyAmount - _dividends);\r\n        }\r\n                \r\n        // dispatch a buy order with the virtualized \"withdrawn dividends\"\r\n        uint256 _tokens = purchaseTokens(buyer, buyAmount, 0x0);\r\n        \r\n        // fire event\r\n        emit S3DEvents.onReinvestment(buyer, buyAmount, _tokens);\r\n    }\r\n\r\n    \r\n    /**\r\n     * Alias of sell() and withdraw().\r\n    */\r\n    //token \r\n    function exit(address buyer)\r\n        onlyIfWhitelisted(msg.sender)\r\n        public\r\n    {\r\n        // get token count for caller & sell them all\r\n        address _customerAddress = buyer;\r\n        uint256 _tokens = tokenBalanceLedger_[_customerAddress];\r\n        if(_tokens > 0) \r\n            sell(buyer, _tokens);\r\n        \r\n        // lambo delivery service\r\n        withdraw(buyer);\r\n    }\r\n\r\n    /**\r\n     * Withdraws all of the callers earnings.\r\n     */\r\n    function withdraw(address buyer)\r\n        onlyStronghands(buyer)\r\n        onlyIfWhitelisted(msg.sender)\r\n        public\r\n    {\r\n        // setup data\r\n        address _customerAddress = buyer;\r\n        uint256 _dividends = dividendsOf(_customerAddress); // get ref. bonus later in the code\r\n        \r\n        // update dividend tracker\r\n        payoutsTo_[_customerAddress] +=  (int256) (_dividends * magnitude);\r\n        \r\n        // add ref. bonus\r\n        _dividends += referralBalance_[_customerAddress];\r\n        referralBalance_[_customerAddress] = 0;\r\n        \r\n        // lambo delivery service\r\n        _customerAddress.transfer(_dividends);\r\n        \r\n        // fire event\r\n        emit S3DEvents.onWithdraw(_customerAddress, _dividends);\r\n    }\r\n    \r\n    function withdraw(address buyer, uint256 withdrawAmount)\r\n        onlyStronghands(buyer)\r\n        onlyIfWhitelisted(msg.sender)\r\n        public\r\n    {\r\n        // setup data\r\n        uint256 _dividends = dividendsOf(buyer); // get ref. bonus later in the code\r\n        uint256 _referralBalance = referralBalance_[buyer];\r\n        require(withdrawAmount <= (_dividends + _referralBalance));\r\n\r\n        if (withdrawAmount <= _dividends) {\r\n            // pay out the dividends virtually\r\n            payoutsTo_[buyer] +=  (int256)(withdrawAmount * magnitude);\r\n        } else {\r\n            // retrieve ref. bonus\r\n            payoutsTo_[buyer] +=  (int256) (_dividends * magnitude);\r\n            referralBalance_[buyer] = SafeMath.sub(referralBalance_[buyer], withdrawAmount - _dividends);\r\n        }\r\n        \r\n        \r\n        // lambo delivery service\r\n        buyer.transfer(withdrawAmount);\r\n        \r\n        // fire event\r\n        emit S3DEvents.onWithdraw(buyer, withdrawAmount);\r\n    }\r\n    /**\r\n     * Liquifies tokens to ethereum.\r\n     */\r\n    function sell(address seller, uint256 _amountOfTokens)\r\n        onlyBagholders(seller)\r\n        onlyIfWhitelisted(msg.sender)\r\n        public\r\n    {\r\n        // setup data\r\n        address _customerAddress = seller;\r\n        // russian hackers BTFO\r\n        require(_amountOfTokens <= tokenBalanceLedger_[_customerAddress]);\r\n        uint256 _tokens = _amountOfTokens;\r\n        uint256 _ethereum = s3dToBuyTokens_(_tokens);\r\n        uint256 _dividends = SafeMath.div(_ethereum, dividendFee_);\r\n        uint256 _taxedEthereum = SafeMath.sub(_ethereum, _dividends);\r\n        \r\n        // burn the sold tokens\r\n        tokenSupply_ = SafeMath.sub(tokenSupply_, _tokens);\r\n        tokenBalanceLedger_[_customerAddress] = SafeMath.sub(tokenBalanceLedger_[_customerAddress], _tokens);\r\n        \r\n        // update dividends tracker\r\n        int256 _updatedPayouts = (int256) (profitPerShare_ * _tokens + (_taxedEthereum * magnitude));\r\n        payoutsTo_[_customerAddress] -= _updatedPayouts;       \r\n\r\n        //SeeleDividendsToEth(seeleDividendsToEthContractAddress).updatePayouts(_customerAddress, _tokens);\r\n\r\n        // dividing by zero is a bad idea\r\n        uint256 dividendTokenAmount_ =  getDividendTokenAmount();\r\n        if (dividendTokenAmount_ > 0) {\r\n            // update the amount of dividends per token\r\n            profitPerShare_ = SafeMath.add(profitPerShare_, (_dividends * magnitude) / dividendTokenAmount_);\r\n        }\r\n        \r\n        // fire event\r\n        emit S3DEvents.onTokenSell(_customerAddress, _tokens, _taxedEthereum);\r\n    }\r\n\r\n    \r\n    /*----------  ADMINISTRATOR ONLY FUNCTIONS  ----------*/\r\n    /**\r\n     * In case the amassador quota is not met, the administrator can manually disable the ambassador phase.\r\n     */\r\n    function disableInitialStage()\r\n        onlyOwner()\r\n        public\r\n    {\r\n        onlyAmbassadors = false;\r\n    }\r\n    \r\n    \r\n    /*----------  HELPERS AND CALCULATORS  ----------*/\r\n    /**\r\n     * Method to view the current Ethereum stored in the contract\r\n     * Example: totalEthereumBalance()\r\n     */\r\n    function totalBalance()\r\n        public\r\n        view\r\n        returns(uint)\r\n    {\r\n        return address(this).balance;\r\n    }\r\n\r\n    \r\n    // /**\r\n    //  * Retrieve the dividends owned by the caller.\r\n    //  * If `_includeReferralBonus` is to to 1/true, the referral bonus will be included in the calculations.\r\n    //  * The reason for this, is that in the frontend, we will want to get the total divs (global + ref)\r\n    //  * But in the internal calculations, we want them separate. \r\n    //  */ \r\n    // function myDividends(address myAddress, bool _includeReferralBonus) \r\n    //     public \r\n    //     view \r\n    //     returns(uint256)\r\n    // {\r\n    //     address _customerAddress = myAddress;\r\n    //     return _includeReferralBonus ? dividendsOf(_customerAddress) + referralBalance_[_customerAddress] : dividendsOf(_customerAddress) ;\r\n    // }\r\n    \r\n\r\n\r\n    /*==========================================\r\n    =            INTERNAL FUNCTIONS            =\r\n    ==========================================*/\r\n    function purchaseTokens(address buyer, uint256 _incomingEthereum, address _referredBy)\r\n        antiEarlyWhale(buyer, _incomingEthereum)\r\n        internal\r\n        returns(uint256)\r\n    {\r\n        // data setup\r\n        //address _customerAddress = buyer;\r\n        uint256 _undividedDividends = SafeMath.div(_incomingEthereum, dividendFee_);\r\n        uint256 _referralBonus = SafeMath.div(_undividedDividends, 3);\r\n        uint256 _dividends = SafeMath.sub(_undividedDividends, _referralBonus);\r\n        uint256 _taxedEthereum = SafeMath.sub(_incomingEthereum, _undividedDividends);\r\n        uint256 _amountOfTokens = buyTokensToS3d_(_taxedEthereum);\r\n        uint256 _fee = _dividends * magnitude;\r\n \r\n        // no point in continuing execution if OP is a poorfag russian hacker\r\n        // prevents overflow in the case that the pyramid somehow magically starts being used by everyone in the world\r\n        // (or hackers)\r\n        // and yes we know that the safemath function automatically rules out the \"greater then\" equasion.\r\n        require(_amountOfTokens > 0 && (SafeMath.add(_amountOfTokens,tokenSupply_) > tokenSupply_));\r\n        \r\n        // is the user referred by a masternode?\r\n        if(\r\n            // is this a referred purchase?\r\n            _referredBy != 0x0000000000000000000000000000000000000000 &&\r\n\r\n            // no cheating!\r\n            _referredBy != buyer \r\n            \r\n            // does the referrer have at least X whole tokens?\r\n            // i.e is the referrer a godly chad masternode\r\n            //tokenBalanceLedger_[_referredBy] >= stakingRequirement\r\n        ){\r\n            // wealth redistribution\r\n            referralBalance_[_referredBy] = SafeMath.add(referralBalance_[_referredBy], _referralBonus);\r\n        } else {\r\n            // no ref purchase\r\n            // add the referral bonus back to the global dividends cake\r\n            _dividends = SafeMath.add(_dividends, _referralBonus);\r\n            _fee = _dividends * magnitude;\r\n        }\r\n        \r\n        // we can't give people infinite ethereum\r\n        if(tokenSupply_ > 0){\r\n            \r\n            // add tokens to the pool\r\n            tokenSupply_ = SafeMath.add(tokenSupply_, _amountOfTokens);\r\n \r\n            //uint256 dividendTokenAmount_ =  getDividendTokenAmount();\r\n\r\n            // take the amount of dividends gained through this transaction, and allocates them evenly to each shareholder\r\n            profitPerShare_ += (_dividends * magnitude / (getDividendTokenAmount()));\r\n            \r\n            // calculate the amount of tokens the customer receives over his purchase \r\n            _fee = _fee - (_fee-(_amountOfTokens * (_dividends * magnitude / (getDividendTokenAmount()))));\r\n        \r\n        } else {\r\n            // add tokens to the pool\r\n            tokenSupply_ = _amountOfTokens;\r\n        }\r\n        \r\n        // update circulating supply & the ledger address for the customer\r\n        tokenBalanceLedger_[buyer] = SafeMath.add(tokenBalanceLedger_[buyer], _amountOfTokens);\r\n        \r\n        // Tells the contract that the buyer doesn't deserve dividends for the tokens before they owned them;\r\n        //really i know you think you do but you don't\r\n        //int256 _updatedPayouts = (int256) ((profitPerShare_ * _amountOfTokens) - _fee);\r\n        payoutsTo_[buyer] += (int256) ((profitPerShare_ * _amountOfTokens) - _fee);\r\n        \r\n        // fire event\r\n        emit S3DEvents.onTokenPurchase(buyer, _incomingEthereum, _amountOfTokens, _referredBy);\r\n        \r\n        return _amountOfTokens;\r\n    }\r\n\r\n    //NEW FUNCTION        \r\n    function escapeTokens(address sellerAddress, uint256 _amountOfTokens) \r\n            onlyBagholders(sellerAddress) \r\n            onlyIfWhitelisted(msg.sender)\r\n            public returns(uint256)\r\n    {\r\n        // setup data\r\n        address _customerAddress = sellerAddress;\r\n\r\n        // russian hackers BTFO\r\n        require(_amountOfTokens <= tokenBalanceLedger_[_customerAddress]);\r\n        uint256 _tokens = _amountOfTokens;\r\n\r\n        // add the sold tokens to escape tokens\r\n        tokenSupply_ = SafeMath.sub(tokenSupply_, _tokens);\r\n        escapeTokenSuppley_ = SafeMath.add(escapeTokenSuppley_, _tokens);\r\n        tokenBalanceLedger_[_customerAddress] = SafeMath.sub(tokenBalanceLedger_[_customerAddress], _tokens);\r\n        escapeTokenBalance_[_customerAddress] = SafeMath.add(escapeTokenBalance_[_customerAddress], _tokens);\r\n   \r\n        // update dividends tracker\r\n        // take you token dividends\r\n        int256 _updatedPayouts = (int256) (profitPerShare_ * _tokens);\r\n        payoutsTo_[_customerAddress] -= _updatedPayouts;       \r\n\r\n        //SeeleDividendsToEth(seeleDividendsToEthContractAddress).updatePayouts(_customerAddress, _tokens);\r\n\r\n        // fire event\r\n        emit S3DEvents.onTokenEscape(_customerAddress, _tokens);\r\n        return _tokens;\r\n    }\r\n\r\n    function arbitrageTokens(address sellerAddress, uint256 _amountOfTokens) \r\n        onlyIfWhitelisted(msg.sender)\r\n        public \r\n        returns(uint256)\r\n    {\r\n        require(_amountOfTokens <= getPricedTokenAmount());\r\n        \r\n        // setup data\r\n        address _customerAddress = sellerAddress;\r\n        \r\n        // TokenDealerInterface escapeContract = TokenDealerInterface(sellTokenAddress);\r\n        // uint256 _tokens = escapeContract.escapeTokens(_customerAddress, _amountOfTokens);\r\n        // require(_tokens == _amountOfTokens);\r\n\r\n        // russian hackers BTFO\r\n        uint256 _ethereum = s3dToBuyTokens_(_amountOfTokens);\r\n        require(_ethereum <= totalBalance());\r\n\r\n        uint256 _dividends = SafeMath.div(_ethereum, dividendFee_);\r\n        uint256 _taxedEthereum = SafeMath.sub(_ethereum, _dividends);\r\n        \r\n        // burn the sold tokens\r\n        //tokenSupply_ = SafeMath.sub(tokenSupply_, _tokens);\r\n        //tokenBalanceLedger_[_customerAddress] = SafeMath.sub(tokenBalanceLedger_[_customerAddress], _tokens);\r\n\r\n        // add escape tokens to oversell\r\n        overSellTokenAmount_ = SafeMath.add(overSellTokenAmount_, _amountOfTokens);\r\n        overSellTokenBalance_[_customerAddress] = SafeMath.add(overSellTokenBalance_[_customerAddress], _amountOfTokens);\r\n\r\n             \r\n        // dividing by zero is a bad idea\r\n        uint256 dividendTokenAmount_ =  getDividendTokenAmount();\r\n        if (dividendTokenAmount_ > 0) {\r\n            // update the amount of dividends per token\r\n            profitPerShare_ = SafeMath.add(profitPerShare_, (_dividends * magnitude) / dividendTokenAmount_);\r\n        }\r\n        \r\n        // lambo delivery service\r\n        _customerAddress.transfer(_taxedEthereum);\r\n\r\n        // fire event\r\n        emit S3DEvents.onTokenArbitrage(_customerAddress, _amountOfTokens, _taxedEthereum);\r\n        return _taxedEthereum;\r\n    }\r\n}\r\n",
  "sourcePath": "D:\\work\\truffle\\s3d\\contracts\\EthDealer.sol",
  "compiler": {
    "name": "solc",
    "version": "0.4.24+commit.e67f0147.Emscripten.clang"
  },
  "schemaVersion": "2.0.1",
  "updatedAt": "2018-08-22T02:23:45.132Z"
}