{
  "contractName": "IterableMapping",
  "abi": [
    {
      "constant": false,
      "inputs": [
        {
          "name": "self",
          "type": "IterableMapping.itmap storage"
        },
        {
          "name": "key",
          "type": "uint256"
        },
        {
          "name": "value",
          "type": "uint256"
        }
      ],
      "name": "insert",
      "outputs": [
        {
          "name": "replaced",
          "type": "bool"
        }
      ],
      "payable": false,
      "stateMutability": "nonpayable",
      "type": "function"
    },
    {
      "constant": false,
      "inputs": [
        {
          "name": "self",
          "type": "IterableMapping.itmap storage"
        },
        {
          "name": "key",
          "type": "uint256"
        }
      ],
      "name": "remove",
      "outputs": [
        {
          "name": "success",
          "type": "bool"
        }
      ],
      "payable": false,
      "stateMutability": "nonpayable",
      "type": "function"
    },
    {
      "constant": true,
      "inputs": [
        {
          "name": "self",
          "type": "IterableMapping.itmap storage"
        },
        {
          "name": "key",
          "type": "uint256"
        }
      ],
      "name": "contains",
      "outputs": [
        {
          "name": "",
          "type": "bool"
        }
      ],
      "payable": false,
      "stateMutability": "view",
      "type": "function"
    },
    {
      "constant": true,
      "inputs": [
        {
          "name": "self",
          "type": "IterableMapping.itmap storage"
        }
      ],
      "name": "iterate_start",
      "outputs": [
        {
          "name": "keyIndex",
          "type": "uint256"
        }
      ],
      "payable": false,
      "stateMutability": "view",
      "type": "function"
    },
    {
      "constant": true,
      "inputs": [
        {
          "name": "self",
          "type": "IterableMapping.itmap storage"
        },
        {
          "name": "keyIndex",
          "type": "uint256"
        }
      ],
      "name": "iterate_valid",
      "outputs": [
        {
          "name": "",
          "type": "bool"
        }
      ],
      "payable": false,
      "stateMutability": "view",
      "type": "function"
    },
    {
      "constant": true,
      "inputs": [
        {
          "name": "self",
          "type": "IterableMapping.itmap storage"
        },
        {
          "name": "keyIndex",
          "type": "uint256"
        }
      ],
      "name": "iterate_next",
      "outputs": [
        {
          "name": "r_keyIndex",
          "type": "uint256"
        }
      ],
      "payable": false,
      "stateMutability": "view",
      "type": "function"
    },
    {
      "constant": true,
      "inputs": [
        {
          "name": "self",
          "type": "IterableMapping.itmap storage"
        },
        {
          "name": "keyIndex",
          "type": "uint256"
        }
      ],
      "name": "iterate_get",
      "outputs": [
        {
          "name": "key",
          "type": "uint256"
        },
        {
          "name": "value",
          "type": "uint256"
        }
      ],
      "payable": false,
      "stateMutability": "view",
      "type": "function"
    }
  ],
  "bytecode": "0x6105b9610030600b82828239805160001a6073146000811461002057610022565bfe5b5030600052607381538281f300730000000000000000000000000000000000000000301460806040526004361061009a576000357c0100000000000000000000000000000000000000000000000000000000900463ffffffff16806322c6faa41461009f57806375a3e8e8146100e15780637e5236451461012657806388d044371461017f578063a21ab716146101bd578063c8fccc69146101f1578063e11b7ea414610233575b600080fd5b6100c76004803603810190808035906020019092919080359060200190929190505050610282565b604051808215151515815260200191505060405180910390f35b61010960048036038101908080359060200190929190803590602001909291905050506102a7565b604051808381526020018281526020019250505060405180910390f35b81801561013257600080fd5b506101656004803603810190808035906020019092919080359060200190929190803590602001909291905050506102f1565b604051808215151515815260200191505060405180910390f35b6101a760048036038101908080359060200190929190803590602001909291905050506103be565b6040518082815260200191505060405180910390f35b6101db60048036038101908080359060200190929190505050610426565b6040518082815260200191505060405180910390f35b6102196004803603810190808035906020019092919080359060200190929190505050610459565b604051808215151515815260200191505060405180910390f35b81801561023f57600080fd5b50610268600480360381019080803590602001909291908035906020019092919050505061046d565b604051808215151515815260200191505060405180910390f35b6000808360000160008481526020019081526020016000206000015411905092915050565b60008083600101838154811015156102bb57fe5b90600052602060002090600202016000015491508360000160008381526020019081526020016000206001015490509250929050565b6000808460000160008581526020019081526020016000206000015490508285600001600086815260200190815260200160002060010181905550600081111561033e57600191506103b6565b8460010180548091906001016103549190610520565b9050600181018560000160008681526020019081526020016000206000018190555083856001018281548110151561038857fe5b9060005260206000209060020201600001819055508460020160008154809291906001019190505550600091505b509392505050565b600081806001019250505b82600101805490508210801561040b575082600101828154811015156103eb57fe5b906000526020600020906002020160010160009054906101000a900460ff165b1561041d5781806001019250506103c9565b81905092915050565b6000610452827fffffffffffffffffffffffffffffffffffffffffffffffffffffffffffffffff6103be565b9050919050565b600082600101805490508210905092915050565b600080836000016000848152602001908152602001600020600001549050600081141561049d5760009150610519565b83600001600084815260200190815260200160002060008082016000905560018201600090555050600184600101600183038154811015156104db57fe5b906000526020600020906002020160010160006101000a81548160ff0219169083151502179055508360020160008154809291906001900391905055505b5092915050565b81548183558181111561054d5760020281600202836000526020600020918201910161054c9190610552565b5b505050565b61058a91905b80821115610586576000808201600090556001820160006101000a81549060ff021916905550600201610558565b5090565b905600a165627a7a72305820f873a6aa833468a7f8a8b88c7b19d92e08b034ecbfd3cac2799bd026f840a6e20029",
  "source": "pragma solidity ^0.4.21;\r\n\r\n/// @dev Models a uint -> uint mapping where it is possible to iterate over all keys.\r\nlibrary IterableMapping\r\n{\r\n    struct KeyFlag { \r\n        uint key;\r\n        bool deleted; \r\n    }\r\n\r\n  struct IndexValue { uint keyIndex; uint value; }\r\n\r\n  struct itmap\r\n  {\r\n    mapping(uint => IndexValue) data;\r\n    KeyFlag[] keys;\r\n    uint size;\r\n  }\r\n \r\n  function insert(itmap storage self, uint key, uint value) public returns (bool replaced)\r\n  {\r\n    uint keyIndex = self.data[key].keyIndex;\r\n    self.data[key].value = value;\r\n    if (keyIndex > 0)\r\n      return true;\r\n    else\r\n    {\r\n      keyIndex = self.keys.length++;\r\n      self.data[key].keyIndex = keyIndex + 1;\r\n      self.keys[keyIndex].key = key;\r\n      self.size++;\r\n      return false;\r\n    }\r\n  }\r\n  function remove(itmap storage self, uint key) public returns (bool success)\r\n  {\r\n    uint keyIndex = self.data[key].keyIndex;\r\n    if (keyIndex == 0)\r\n      return false;\r\n    delete self.data[key];\r\n    self.keys[keyIndex - 1].deleted = true;\r\n    self.size --;\r\n  }\r\n  function contains(itmap storage self, uint key) public view returns (bool)\r\n  {\r\n    return self.data[key].keyIndex > 0;\r\n  }\r\n  function iterate_start(itmap storage self) public view returns (uint keyIndex)\r\n  {\r\n    return iterate_next(self, uint(-1));\r\n  }\r\n  function iterate_valid(itmap storage self, uint keyIndex) public view returns (bool)\r\n  {\r\n    return keyIndex < self.keys.length;\r\n  }\r\n  function iterate_next(itmap storage self, uint keyIndex) public view returns (uint r_keyIndex)\r\n  {\r\n    keyIndex++;\r\n    while (keyIndex < self.keys.length && self.keys[keyIndex].deleted)\r\n      keyIndex++;\r\n    return keyIndex;\r\n  }\r\n  function iterate_get(itmap storage self, uint keyIndex) public view returns (uint key, uint value)\r\n  {\r\n    key = self.keys[keyIndex].key;\r\n    value = self.data[key].value;\r\n  }\r\n}\r\n\r\n// How to use it:\r\ncontract User\r\n{\r\n  // Just a struct holding our data.\r\n  IterableMapping.itmap data;\r\n  // Insert something\r\n  function insert(uint k, uint v) public returns (uint size)\r\n  {\r\n    // Actually calls itmap_impl.insert, auto-supplying the first parameter for us.\r\n    IterableMapping.insert(data, k, v);\r\n    // We can still access members of the struct - but we should take care not to mess with them.\r\n    return data.size;\r\n  }\r\n  // Computes the sum of all stored data.\r\n  function sum() public view returns (uint s)\r\n  {\r\n    for (uint i = IterableMapping.iterate_start(data); IterableMapping.iterate_valid(data, i); i = IterableMapping.iterate_next(data, i))\r\n    {\r\n        uint key;\r\n        uint value;\r\n        (key, value) = IterableMapping.iterate_get(data, i);\r\n        s += value;\r\n    }\r\n  }\r\n}",
  "sourcePath": "D:\\work\\truffle\\s3d\\contracts\\testMyContract.sol",
  "compiler": {
    "name": "solc",
    "version": "0.4.24+commit.e67f0147.Emscripten.clang"
  },
  "schemaVersion": "2.0.1",
  "updatedAt": "2018-08-15T10:32:17.556Z"
}