{
  "contractName": "OMGDealer",
  "abi": [
    {
      "constant": true,
      "inputs": [
        {
          "name": "_customerAddress",
          "type": "address"
        }
      ],
      "name": "dividendsOf",
      "outputs": [
        {
          "name": "",
          "type": "uint256"
        }
      ],
      "payable": false,
      "stateMutability": "view",
      "type": "function"
    },
    {
      "constant": true,
      "inputs": [],
      "name": "name",
      "outputs": [
        {
          "name": "",
          "type": "string"
        }
      ],
      "payable": false,
      "stateMutability": "view",
      "type": "function"
    },
    {
      "constant": true,
      "inputs": [
        {
          "name": "_operator",
          "type": "address"
        },
        {
          "name": "_role",
          "type": "string"
        }
      ],
      "name": "checkRole",
      "outputs": [],
      "payable": false,
      "stateMutability": "view",
      "type": "function"
    },
    {
      "constant": true,
      "inputs": [
        {
          "name": "_seeleToSpend",
          "type": "uint256"
        }
      ],
      "name": "calculateTokensReceived",
      "outputs": [
        {
          "name": "",
          "type": "uint256"
        }
      ],
      "payable": false,
      "stateMutability": "view",
      "type": "function"
    },
    {
      "constant": true,
      "inputs": [
        {
          "name": "_tokensToBuy",
          "type": "uint256"
        }
      ],
      "name": "calculateBuyTokenSpend",
      "outputs": [
        {
          "name": "",
          "type": "uint256"
        }
      ],
      "payable": false,
      "stateMutability": "view",
      "type": "function"
    },
    {
      "constant": true,
      "inputs": [],
      "name": "totalSupply",
      "outputs": [
        {
          "name": "",
          "type": "uint256"
        }
      ],
      "payable": false,
      "stateMutability": "view",
      "type": "function"
    },
    {
      "constant": true,
      "inputs": [],
      "name": "ROLE_WHITELISTED",
      "outputs": [
        {
          "name": "",
          "type": "string"
        }
      ],
      "payable": false,
      "stateMutability": "view",
      "type": "function"
    },
    {
      "constant": true,
      "inputs": [
        {
          "name": "_operator",
          "type": "address"
        },
        {
          "name": "_role",
          "type": "string"
        }
      ],
      "name": "hasRole",
      "outputs": [
        {
          "name": "",
          "type": "bool"
        }
      ],
      "payable": false,
      "stateMutability": "view",
      "type": "function"
    },
    {
      "constant": false,
      "inputs": [
        {
          "name": "_operators",
          "type": "address[]"
        }
      ],
      "name": "removeAddressesFromWhitelist",
      "outputs": [],
      "payable": false,
      "stateMutability": "nonpayable",
      "type": "function"
    },
    {
      "constant": true,
      "inputs": [],
      "name": "onlyAmbassadors",
      "outputs": [
        {
          "name": "",
          "type": "bool"
        }
      ],
      "payable": false,
      "stateMutability": "view",
      "type": "function"
    },
    {
      "constant": false,
      "inputs": [
        {
          "name": "_operator",
          "type": "address"
        }
      ],
      "name": "removeAddressFromWhitelist",
      "outputs": [],
      "payable": false,
      "stateMutability": "nonpayable",
      "type": "function"
    },
    {
      "constant": true,
      "inputs": [],
      "name": "decimals",
      "outputs": [
        {
          "name": "",
          "type": "uint8"
        }
      ],
      "payable": false,
      "stateMutability": "view",
      "type": "function"
    },
    {
      "constant": true,
      "inputs": [
        {
          "name": "_customerAddress",
          "type": "address"
        }
      ],
      "name": "referralBalanceOf",
      "outputs": [
        {
          "name": "",
          "type": "uint256"
        }
      ],
      "payable": false,
      "stateMutability": "view",
      "type": "function"
    },
    {
      "constant": true,
      "inputs": [],
      "name": "sellPrice",
      "outputs": [
        {
          "name": "",
          "type": "uint256"
        }
      ],
      "payable": false,
      "stateMutability": "view",
      "type": "function"
    },
    {
      "constant": false,
      "inputs": [],
      "name": "claimOwnership",
      "outputs": [],
      "payable": false,
      "stateMutability": "nonpayable",
      "type": "function"
    },
    {
      "constant": true,
      "inputs": [
        {
          "name": "_customerAddress",
          "type": "address"
        }
      ],
      "name": "balanceOf",
      "outputs": [
        {
          "name": "",
          "type": "uint256"
        }
      ],
      "payable": false,
      "stateMutability": "view",
      "type": "function"
    },
    {
      "constant": false,
      "inputs": [],
      "name": "renounceOwnership",
      "outputs": [],
      "payable": false,
      "stateMutability": "nonpayable",
      "type": "function"
    },
    {
      "constant": false,
      "inputs": [
        {
          "name": "_operator",
          "type": "address"
        }
      ],
      "name": "addAddressToWhitelist",
      "outputs": [],
      "payable": false,
      "stateMutability": "nonpayable",
      "type": "function"
    },
    {
      "constant": true,
      "inputs": [],
      "name": "buyPrice",
      "outputs": [
        {
          "name": "",
          "type": "uint256"
        }
      ],
      "payable": false,
      "stateMutability": "view",
      "type": "function"
    },
    {
      "constant": true,
      "inputs": [],
      "name": "owner",
      "outputs": [
        {
          "name": "",
          "type": "address"
        }
      ],
      "payable": false,
      "stateMutability": "view",
      "type": "function"
    },
    {
      "constant": true,
      "inputs": [],
      "name": "symbol",
      "outputs": [
        {
          "name": "",
          "type": "string"
        }
      ],
      "payable": false,
      "stateMutability": "view",
      "type": "function"
    },
    {
      "constant": true,
      "inputs": [],
      "name": "OMGTokenAddress",
      "outputs": [
        {
          "name": "",
          "type": "address"
        }
      ],
      "payable": false,
      "stateMutability": "view",
      "type": "function"
    },
    {
      "constant": true,
      "inputs": [
        {
          "name": "_operator",
          "type": "address"
        }
      ],
      "name": "whitelist",
      "outputs": [
        {
          "name": "",
          "type": "bool"
        }
      ],
      "payable": false,
      "stateMutability": "view",
      "type": "function"
    },
    {
      "constant": true,
      "inputs": [
        {
          "name": "",
          "type": "address"
        }
      ],
      "name": "escapeTokenBalance_",
      "outputs": [
        {
          "name": "",
          "type": "uint256"
        }
      ],
      "payable": false,
      "stateMutability": "view",
      "type": "function"
    },
    {
      "constant": true,
      "inputs": [
        {
          "name": "",
          "type": "address"
        }
      ],
      "name": "overSellTokenBalance_",
      "outputs": [
        {
          "name": "",
          "type": "uint256"
        }
      ],
      "payable": false,
      "stateMutability": "view",
      "type": "function"
    },
    {
      "constant": true,
      "inputs": [
        {
          "name": "_tokensToSell",
          "type": "uint256"
        }
      ],
      "name": "calculateBuyTokenReceived",
      "outputs": [
        {
          "name": "",
          "type": "uint256"
        }
      ],
      "payable": false,
      "stateMutability": "view",
      "type": "function"
    },
    {
      "constant": false,
      "inputs": [
        {
          "name": "_operators",
          "type": "address[]"
        }
      ],
      "name": "addAddressesToWhitelist",
      "outputs": [],
      "payable": false,
      "stateMutability": "nonpayable",
      "type": "function"
    },
    {
      "constant": true,
      "inputs": [],
      "name": "pendingOwner",
      "outputs": [
        {
          "name": "",
          "type": "address"
        }
      ],
      "payable": false,
      "stateMutability": "view",
      "type": "function"
    },
    {
      "constant": false,
      "inputs": [
        {
          "name": "newOwner",
          "type": "address"
        }
      ],
      "name": "transferOwnership",
      "outputs": [],
      "payable": false,
      "stateMutability": "nonpayable",
      "type": "function"
    },
    {
      "inputs": [
        {
          "name": "tokenAddress",
          "type": "address"
        }
      ],
      "payable": false,
      "stateMutability": "nonpayable",
      "type": "constructor"
    },
    {
      "anonymous": false,
      "inputs": [
        {
          "indexed": true,
          "name": "customerAddress",
          "type": "address"
        },
        {
          "indexed": false,
          "name": "incomingTokens",
          "type": "uint256"
        },
        {
          "indexed": false,
          "name": "s3dMinted",
          "type": "uint256"
        },
        {
          "indexed": true,
          "name": "referredBy",
          "type": "address"
        }
      ],
      "name": "onTokenPurchase",
      "type": "event"
    },
    {
      "anonymous": false,
      "inputs": [
        {
          "indexed": true,
          "name": "customerAddress",
          "type": "address"
        },
        {
          "indexed": false,
          "name": "s3dBurned",
          "type": "uint256"
        },
        {
          "indexed": false,
          "name": "tokenEarned",
          "type": "uint256"
        }
      ],
      "name": "onTokenSell",
      "type": "event"
    },
    {
      "anonymous": false,
      "inputs": [
        {
          "indexed": true,
          "name": "customerAddress",
          "type": "address"
        },
        {
          "indexed": false,
          "name": "tokenReinvested",
          "type": "uint256"
        },
        {
          "indexed": false,
          "name": "s3dMinted",
          "type": "uint256"
        }
      ],
      "name": "onReinvestment",
      "type": "event"
    },
    {
      "anonymous": false,
      "inputs": [
        {
          "indexed": true,
          "name": "customerAddress",
          "type": "address"
        },
        {
          "indexed": false,
          "name": "tokenWithdrawn",
          "type": "uint256"
        }
      ],
      "name": "onWithdraw",
      "type": "event"
    },
    {
      "anonymous": false,
      "inputs": [
        {
          "indexed": true,
          "name": "customerAddress",
          "type": "address"
        },
        {
          "indexed": false,
          "name": "s3dEscaped",
          "type": "uint256"
        }
      ],
      "name": "onTokenEscape",
      "type": "event"
    },
    {
      "anonymous": false,
      "inputs": [
        {
          "indexed": true,
          "name": "customerAddress",
          "type": "address"
        },
        {
          "indexed": false,
          "name": "s3dBurned",
          "type": "uint256"
        },
        {
          "indexed": false,
          "name": "tokenEarned",
          "type": "uint256"
        }
      ],
      "name": "onTokenArbitrage",
      "type": "event"
    },
    {
      "anonymous": false,
      "inputs": [
        {
          "indexed": true,
          "name": "operator",
          "type": "address"
        },
        {
          "indexed": false,
          "name": "role",
          "type": "string"
        }
      ],
      "name": "RoleAdded",
      "type": "event"
    },
    {
      "anonymous": false,
      "inputs": [
        {
          "indexed": true,
          "name": "operator",
          "type": "address"
        },
        {
          "indexed": false,
          "name": "role",
          "type": "string"
        }
      ],
      "name": "RoleRemoved",
      "type": "event"
    },
    {
      "anonymous": false,
      "inputs": [
        {
          "indexed": true,
          "name": "previousOwner",
          "type": "address"
        }
      ],
      "name": "OwnershipRenounced",
      "type": "event"
    },
    {
      "anonymous": false,
      "inputs": [
        {
          "indexed": true,
          "name": "previousOwner",
          "type": "address"
        },
        {
          "indexed": true,
          "name": "newOwner",
          "type": "address"
        }
      ],
      "name": "OwnershipTransferred",
      "type": "event"
    },
    {
      "constant": false,
      "inputs": [
        {
          "name": "buyer",
          "type": "address"
        },
        {
          "name": "seeleAmount",
          "type": "uint256"
        },
        {
          "name": "_referredBy",
          "type": "address"
        }
      ],
      "name": "buy",
      "outputs": [
        {
          "name": "",
          "type": "uint256"
        }
      ],
      "payable": true,
      "stateMutability": "payable",
      "type": "function"
    },
    {
      "constant": false,
      "inputs": [
        {
          "name": "buyer",
          "type": "address"
        },
        {
          "name": "buyAmount",
          "type": "uint256"
        }
      ],
      "name": "reinvest",
      "outputs": [],
      "payable": false,
      "stateMutability": "nonpayable",
      "type": "function"
    },
    {
      "constant": false,
      "inputs": [
        {
          "name": "buyer",
          "type": "address"
        }
      ],
      "name": "exit",
      "outputs": [],
      "payable": false,
      "stateMutability": "nonpayable",
      "type": "function"
    },
    {
      "constant": false,
      "inputs": [
        {
          "name": "buyer",
          "type": "address"
        }
      ],
      "name": "withdraw",
      "outputs": [],
      "payable": false,
      "stateMutability": "nonpayable",
      "type": "function"
    },
    {
      "constant": false,
      "inputs": [
        {
          "name": "buyer",
          "type": "address"
        },
        {
          "name": "withdrawAmount",
          "type": "uint256"
        }
      ],
      "name": "withdraw",
      "outputs": [],
      "payable": false,
      "stateMutability": "nonpayable",
      "type": "function"
    },
    {
      "constant": false,
      "inputs": [
        {
          "name": "seller",
          "type": "address"
        },
        {
          "name": "_amountOfTokens",
          "type": "uint256"
        }
      ],
      "name": "sell",
      "outputs": [],
      "payable": false,
      "stateMutability": "nonpayable",
      "type": "function"
    },
    {
      "constant": false,
      "inputs": [],
      "name": "disableInitialStage",
      "outputs": [],
      "payable": false,
      "stateMutability": "nonpayable",
      "type": "function"
    },
    {
      "constant": true,
      "inputs": [],
      "name": "totalBalance",
      "outputs": [
        {
          "name": "",
          "type": "uint256"
        }
      ],
      "payable": false,
      "stateMutability": "view",
      "type": "function"
    },
    {
      "constant": false,
      "inputs": [
        {
          "name": "sellerAddress",
          "type": "address"
        },
        {
          "name": "_amountOfTokens",
          "type": "uint256"
        }
      ],
      "name": "escapeTokens",
      "outputs": [
        {
          "name": "",
          "type": "uint256"
        }
      ],
      "payable": false,
      "stateMutability": "nonpayable",
      "type": "function"
    },
    {
      "constant": false,
      "inputs": [
        {
          "name": "sellerAddress",
          "type": "address"
        },
        {
          "name": "_amountOfTokens",
          "type": "uint256"
        }
      ],
      "name": "arbitrageTokens",
      "outputs": [
        {
          "name": "",
          "type": "uint256"
        }
      ],
      "payable": false,
      "stateMutability": "nonpayable",
      "type": "function"
    }
  ],
  "bytecode": "0x608060405260006009556000600b556000600c5564174876e800600d556402540be400600e556001600f60006101000a81548160ff0219169083151502179055506040805190810160405280600781526020017f4f4d472d53334400000000000000000000000000000000000000000000000000815250601090805190602001906200008d9291906200028a565b506040805190810160405280600781526020017f4f4d472d5333440000000000000000000000000000000000000000000000000081525060119080519060200190620000db9291906200028a565b507347879ac781938cffd879392cd2164b9f7306188a601360006101000a81548173ffffffffffffffffffffffffffffffffffffffff021916908373ffffffffffffffffffffffffffffffffffffffff1602179055506001601360146101000a81548160ff0219169083151502179055503480156200015957600080fd5b5060405160208062003fb483398101806040528101908080519060200190929190505050336000806101000a81548173ffffffffffffffffffffffffffffffffffffffff021916908373ffffffffffffffffffffffffffffffffffffffff160217905550650746a5288000600d8190555064ba43b74000600e8190555080601360006101000a81548173ffffffffffffffffffffffffffffffffffffffff021916908373ffffffffffffffffffffffffffffffffffffffff16021790555060016012600073cd16575a90ed9506bcf44c78845d93f1b647f48c73ffffffffffffffffffffffffffffffffffffffff1673ffffffffffffffffffffffffffffffffffffffff16815260200190815260200160002060006101000a81548160ff0219169083151502179055505062000339565b828054600181600116156101000203166002900490600052602060002090601f016020900481019282601f10620002cd57805160ff1916838001178555620002fe565b82800160010185558215620002fe579182015b82811115620002fd578251825591602001919060010190620002e0565b5b5090506200030d919062000311565b5090565b6200033691905b808211156200033257600081600090555060010162000318565b5090565b90565b613c6b80620003496000396000f3006080604052600436106101e2576000357c0100000000000000000000000000000000000000000000000000000000900463ffffffff16806265318b146101e757806306fdde031461023e5780630988ca8c146102ce57806310d0ffdd14610357578063150c95a81461039857806318160ddd146103d957806318b919e914610404578063217fe6c61461049457806324953eaa1461053557806327defa1f1461059b578063286dd3f5146105ca578063313ce5671461060d5780633be8eb7e1461063e578063465346491461069f5780634b750334146106f65780634e71e0c81461072157806351cff8d9146107385780636c197ff51461077b57806370a08231146107c8578063715018a61461081f5780637b9417c8146108365780638620410b146108795780638da5cb5b146108a457806395d89b41146108fb57806399245a2b1461098b5780639b19251a146109e25780639f40dd4214610a3d578063a19ec23314610a94578063a8e04f3414610aeb578063ad7a672f14610b02578063b42652e914610b2d578063b73f34b414610b70578063d3d6dce714610bb1578063d65a261714610c12578063db61c76e14610c5f578063e2ec6ec314610cd3578063e30c397814610d39578063f2fde38b14610d90578063f3fef3a314610dd3575b600080fd5b3480156101f357600080fd5b50610228600480360381019080803573ffffffffffffffffffffffffffffffffffffffff169060200190929190505050610e20565b6040518082815260200191505060405180910390f35b34801561024a57600080fd5b50610253610ec2565b6040518080602001828103825283818151815260200191508051906020019080838360005b83811015610293578082015181840152602081019050610278565b50505050905090810190601f1680156102c05780820380516001836020036101000a031916815260200191505b509250505060405180910390f35b3480156102da57600080fd5b50610355600480360381019080803573ffffffffffffffffffffffffffffffffffffffff169060200190929190803590602001908201803590602001908080601f0160208091040260200160405190810160405280939291908181526020018383808284378201915050505050509192919290505050610f60565b005b34801561036357600080fd5b5061038260048036038101908080359060200190929190505050610fe1565b6040518082815260200191505060405180910390f35b3480156103a457600080fd5b506103c360048036038101908080359060200190929190505050611019565b6040518082815260200191505060405180910390f35b3480156103e557600080fd5b506103ee611051565b6040518082815260200191505060405180910390f35b34801561041057600080fd5b5061041961105b565b6040518080602001828103825283818151815260200191508051906020019080838360005b8381101561045957808201518184015260208101905061043e565b50505050905090810190601f1680156104865780820380516001836020036101000a031916815260200191505b509250505060405180910390f35b3480156104a057600080fd5b5061051b600480360381019080803573ffffffffffffffffffffffffffffffffffffffff169060200190929190803590602001908201803590602001908080601f0160208091040260200160405190810160405280939291908181526020018383808284378201915050505050509192919290505050611094565b604051808215151515815260200191505060405180910390f35b34801561054157600080fd5b506105996004803603810190808035906020019082018035906020019080806020026020016040519081016040528093929190818152602001838360200280828437820191505050505050919291929050505061111b565b005b3480156105a757600080fd5b506105b06111b7565b604051808215151515815260200191505060405180910390f35b3480156105d657600080fd5b5061060b600480360381019080803573ffffffffffffffffffffffffffffffffffffffff1690602001909291905050506111ca565b005b34801561061957600080fd5b50610622611267565b604051808260ff1660ff16815260200191505060405180910390f35b34801561064a57600080fd5b50610689600480360381019080803573ffffffffffffffffffffffffffffffffffffffff1690602001909291908035906020019092919050505061126c565b6040518082815260200191505060405180910390f35b3480156106ab57600080fd5b506106e0600480360381019080803573ffffffffffffffffffffffffffffffffffffffff169060200190929190505050611527565b6040518082815260200191505060405180910390f35b34801561070257600080fd5b5061070b611570565b6040518082815260200191505060405180910390f35b34801561072d57600080fd5b506107366115cd565b005b34801561074457600080fd5b50610779600480360381019080803573ffffffffffffffffffffffffffffffffffffffff16906020019092919050505061176c565b005b34801561078757600080fd5b506107c6600480360381019080803573ffffffffffffffffffffffffffffffffffffffff169060200190929190803590602001909291905050506119f2565b005b3480156107d457600080fd5b50610809600480360381019080803573ffffffffffffffffffffffffffffffffffffffff169060200190929190505050611c6e565b6040518082815260200191505060405180910390f35b34801561082b57600080fd5b50610834611cb7565b005b34801561084257600080fd5b50610877600480360381019080803573ffffffffffffffffffffffffffffffffffffffff169060200190929190505050611db9565b005b34801561088557600080fd5b5061088e611e56565b6040518082815260200191505060405180910390f35b3480156108b057600080fd5b506108b9611eb3565b604051808273ffffffffffffffffffffffffffffffffffffffff1673ffffffffffffffffffffffffffffffffffffffff16815260200191505060405180910390f35b34801561090757600080fd5b50610910611ed8565b6040518080602001828103825283818151815260200191508051906020019080838360005b83811015610950578082015181840152602081019050610935565b50505050905090810190601f16801561097d5780820380516001836020036101000a031916815260200191505b509250505060405180910390f35b34801561099757600080fd5b506109a0611f76565b604051808273ffffffffffffffffffffffffffffffffffffffff1673ffffffffffffffffffffffffffffffffffffffff16815260200191505060405180910390f35b3480156109ee57600080fd5b50610a23600480360381019080803573ffffffffffffffffffffffffffffffffffffffff169060200190929190505050611f9c565b604051808215151515815260200191505060405180910390f35b348015610a4957600080fd5b50610a7e600480360381019080803573ffffffffffffffffffffffffffffffffffffffff169060200190929190505050611fe4565b6040518082815260200191505060405180910390f35b348015610aa057600080fd5b50610ad5600480360381019080803573ffffffffffffffffffffffffffffffffffffffff169060200190929190505050611ffc565b6040518082815260200191505060405180910390f35b348015610af757600080fd5b50610b00612014565b005b348015610b0e57600080fd5b50610b1761208c565b6040518082815260200191505060405180910390f35b348015610b3957600080fd5b50610b6e600480360381019080803573ffffffffffffffffffffffffffffffffffffffff16906020019092919050505061218b565b005b348015610b7c57600080fd5b50610b9b60048036038101908080359060200190929190505050612236565b6040518082815260200191505060405180910390f35b348015610bbd57600080fd5b50610bfc600480360381019080803573ffffffffffffffffffffffffffffffffffffffff16906020019092919080359060200190929190505050612284565b6040518082815260200191505060405180910390f35b348015610c1e57600080fd5b50610c5d600480360381019080803573ffffffffffffffffffffffffffffffffffffffff16906020019092919080359060200190929190505050612522565b005b610cbd600480360381019080803573ffffffffffffffffffffffffffffffffffffffff16906020019092919080359060200190929190803573ffffffffffffffffffffffffffffffffffffffff1690602001909291905050506127a1565b6040518082815260200191505060405180910390f35b348015610cdf57600080fd5b50610d3760048036038101908080359060200190820180359060200190808060200260200160405190810160405280939291908181526020018383602002808284378201915050505050509192919290505050612908565b005b348015610d4557600080fd5b50610d4e6129a4565b604051808273ffffffffffffffffffffffffffffffffffffffff1673ffffffffffffffffffffffffffffffffffffffff16815260200191505060405180910390f35b348015610d9c57600080fd5b50610dd1600480360381019080803573ffffffffffffffffffffffffffffffffffffffff1690602001909291905050506129ca565b005b348015610ddf57600080fd5b50610e1e600480360381019080803573ffffffffffffffffffffffffffffffffffffffff16906020019092919080359060200190929190505050612a69565b005b600068010000000000000000600560008473ffffffffffffffffffffffffffffffffffffffff1673ffffffffffffffffffffffffffffffffffffffff16815260200190815260200160002054600360008573ffffffffffffffffffffffffffffffffffffffff1673ffffffffffffffffffffffffffffffffffffffff16815260200190815260200160002054600a540203811515610eba57fe5b049050919050565b60108054600181600116156101000203166002900480601f016020809104026020016040519081016040528092919081815260200182805460018160011615610100020316600290048015610f585780601f10610f2d57610100808354040283529160200191610f58565b820191906000526020600020905b815481529060010190602001808311610f3b57829003601f168201915b505050505081565b610fdd826002836040518082805190602001908083835b602083101515610f9c5780518252602082019150602081019050602083039250610f77565b6001836020036101000a0380198251168184511680821785525050505050509050019150509081526020016040518091039020612dac90919063ffffffff16565b5050565b600080600080610ff585600a60ff16612dc5565b92506110018584612ddb565b915061100c82612df4565b9050809350505050919050565b60008060008061102885612e74565b925061103883600a60ff16612dc5565b91506110448383612ddb565b9050809350505050919050565b6000600954905090565b6040805190810160405280600981526020017f77686974656c697374000000000000000000000000000000000000000000000081525081565b6000611113836002846040518082805190602001908083835b6020831015156110d257805182526020820191506020810190506020830392506110ad565b6001836020036101000a0380198251168184511680821785525050505050509050019150509081526020016040518091039020612ef590919063ffffffff16565b905092915050565b60008060009054906101000a900473ffffffffffffffffffffffffffffffffffffffff1673ffffffffffffffffffffffffffffffffffffffff163373ffffffffffffffffffffffffffffffffffffffff1614151561117857600080fd5b600090505b81518110156111b3576111a6828281518110151561119757fe5b906020019060200201516111ca565b808060010191505061117d565b5050565b601360149054906101000a900460ff1681565b6000809054906101000a900473ffffffffffffffffffffffffffffffffffffffff1673ffffffffffffffffffffffffffffffffffffffff163373ffffffffffffffffffffffffffffffffffffffff1614151561122557600080fd5b611264816040805190810160405280600981526020017f77686974656c6973740000000000000000000000000000000000000000000000815250612f4e565b50565b601281565b600080600080600080336112b5816040805190810160405280600981526020017f77686974656c6973740000000000000000000000000000000000000000000000815250610f60565b6112bd613082565b88111515156112cb57600080fd5b8895506112d7886130a2565b94506112e161208c565b85111515156112ef57600080fd5b6112fd85600a60ff16612dc5565b93506113098585612ddb565b9250611317600c5489613146565b600c81905550611366600860008873ffffffffffffffffffffffffffffffffffffffff1673ffffffffffffffffffffffffffffffffffffffff1681526020019081526020016000205489613146565b600860008873ffffffffffffffffffffffffffffffffffffffff1673ffffffffffffffffffffffffffffffffffffffff168152602001908152602001600020819055506113b1613162565b915060008211156113e5576113de600a54836801000000000000000087028115156113d857fe5b04613146565b600a819055505b601360009054906101000a900473ffffffffffffffffffffffffffffffffffffffff1673ffffffffffffffffffffffffffffffffffffffff1663a9059cbb87856040518363ffffffff167c0100000000000000000000000000000000000000000000000000000000028152600401808373ffffffffffffffffffffffffffffffffffffffff1673ffffffffffffffffffffffffffffffffffffffff16815260200182815260200192505050600060405180830381600087803b1580156114aa57600080fd5b505af11580156114be573d6000803e3d6000fd5b505050508573ffffffffffffffffffffffffffffffffffffffff167fe9d4fb0074327a194c752e06c8b2fce4a89cd86202090528bb81582a3f20fedd8985604051808381526020018281526020019250505060405180910390a282965050505050505092915050565b6000600460008373ffffffffffffffffffffffffffffffffffffffff1673ffffffffffffffffffffffffffffffffffffffff168152602001908152602001600020549050919050565b6000806000806000611580613082565b141561159457600e54600d540393506115c7565b6115a5670de0b6b3a76400006130a2565b92506115b583600a60ff16612dc5565b91506115c18383612ddb565b90508093505b50505090565b600160009054906101000a900473ffffffffffffffffffffffffffffffffffffffff1673ffffffffffffffffffffffffffffffffffffffff163373ffffffffffffffffffffffffffffffffffffffff1614151561162957600080fd5b600160009054906101000a900473ffffffffffffffffffffffffffffffffffffffff1673ffffffffffffffffffffffffffffffffffffffff166000809054906101000a900473ffffffffffffffffffffffffffffffffffffffff1673ffffffffffffffffffffffffffffffffffffffff167f8be0079c531659141344cd1fd0a4f28419497f9722a3daafe3b4186f6b6457e060405160405180910390a3600160009054906101000a900473ffffffffffffffffffffffffffffffffffffffff166000806101000a81548173ffffffffffffffffffffffffffffffffffffffff021916908373ffffffffffffffffffffffffffffffffffffffff1602179055506000600160006101000a81548173ffffffffffffffffffffffffffffffffffffffff021916908373ffffffffffffffffffffffffffffffffffffffff160217905550565b60008082600061177b82611527565b61178483610e20565b0111151561179157600080fd5b336117d1816040805190810160405280600981526020017f77686974656c6973740000000000000000000000000000000000000000000000815250610f60565b8493506117dd84610e20565b9250680100000000000000008302600560008673ffffffffffffffffffffffffffffffffffffffff1673ffffffffffffffffffffffffffffffffffffffff16815260200190815260200160002060008282540192505081905550600460008573ffffffffffffffffffffffffffffffffffffffff1673ffffffffffffffffffffffffffffffffffffffff16815260200190815260200160002054830192506000600460008673ffffffffffffffffffffffffffffffffffffffff1673ffffffffffffffffffffffffffffffffffffffff16815260200190815260200160002081905550601360009054906101000a900473ffffffffffffffffffffffffffffffffffffffff1673ffffffffffffffffffffffffffffffffffffffff1663a9059cbb85856040518363ffffffff167c0100000000000000000000000000000000000000000000000000000000028152600401808373ffffffffffffffffffffffffffffffffffffffff1673ffffffffffffffffffffffffffffffffffffffff16815260200182815260200192505050600060405180830381600087803b15801561198557600080fd5b505af1158015611999573d6000803e3d6000fd5b505050508373ffffffffffffffffffffffffffffffffffffffff167fccad973dcd043c7d680389db4378bd6b9775db7124092e9e0422c9e46d7985dc846040518082815260200191505060405180910390a25050505050565b6000806000806000806000886000611a0982611c6e565b111515611a1557600080fd5b33611a55816040805190810160405280600981526020017f77686974656c6973740000000000000000000000000000000000000000000000815250610f60565b8a9850600360008a73ffffffffffffffffffffffffffffffffffffffff1673ffffffffffffffffffffffffffffffffffffffff168152602001908152602001600020548a11151515611aa657600080fd5b899750611ab2886130a2565b9650611ac287600a60ff16612dc5565b9550611ace8787612ddb565b9450611adc60095489612ddb565b600981905550611b2b600360008b73ffffffffffffffffffffffffffffffffffffffff1673ffffffffffffffffffffffffffffffffffffffff1681526020019081526020016000205489612ddb565b600360008b73ffffffffffffffffffffffffffffffffffffffff1673ffffffffffffffffffffffffffffffffffffffff1681526020019081526020016000208190555068010000000000000000850288600a540201935083600560008b73ffffffffffffffffffffffffffffffffffffffff1673ffffffffffffffffffffffffffffffffffffffff16815260200190815260200160002060008282540392505081905550611bd7613162565b92506000831115611c0b57611c04600a5484680100000000000000008902811515611bfe57fe5b04613146565b600a819055505b8873ffffffffffffffffffffffffffffffffffffffff167fc4823739c5787d2ca17e404aa47d5569ae71dfb49cbf21b3f6152ed238a311398987604051808381526020018281526020019250505060405180910390a25050505050505050505050565b6000600360008373ffffffffffffffffffffffffffffffffffffffff1673ffffffffffffffffffffffffffffffffffffffff168152602001908152602001600020549050919050565b6000809054906101000a900473ffffffffffffffffffffffffffffffffffffffff1673ffffffffffffffffffffffffffffffffffffffff163373ffffffffffffffffffffffffffffffffffffffff16141515611d1257600080fd5b6000809054906101000a900473ffffffffffffffffffffffffffffffffffffffff1673ffffffffffffffffffffffffffffffffffffffff167ff8df31144d9c2f0f6b59d69b8b98abd5459d07f2742c4df920b25aae33c6482060405160405180910390a260008060006101000a81548173ffffffffffffffffffffffffffffffffffffffff021916908373ffffffffffffffffffffffffffffffffffffffff160217905550565b6000809054906101000a900473ffffffffffffffffffffffffffffffffffffffff1673ffffffffffffffffffffffffffffffffffffffff163373ffffffffffffffffffffffffffffffffffffffff16141515611e1457600080fd5b611e53816040805190810160405280600981526020017f77686974656c697374000000000000000000000000000000000000000000000081525061316c565b50565b6000806000806000611e66613082565b1415611e7a57600e54600d54019350611ead565b611e8b670de0b6b3a76400006130a2565b9250611e9b83600a60ff16612dc5565b9150611ea78383613146565b90508093505b50505090565b6000809054906101000a900473ffffffffffffffffffffffffffffffffffffffff1681565b60118054600181600116156101000203166002900480601f016020809104026020016040519081016040528092919081815260200182805460018160011615610100020316600290048015611f6e5780601f10611f4357610100808354040283529160200191611f6e565b820191906000526020600020905b815481529060010190602001808311611f5157829003601f168201915b505050505081565b601360009054906101000a900473ffffffffffffffffffffffffffffffffffffffff1681565b6000611fdd826040805190810160405280600981526020017f77686974656c6973740000000000000000000000000000000000000000000000815250611094565b9050919050565b60076020528060005260406000206000915090505481565b60086020528060005260406000206000915090505481565b6000809054906101000a900473ffffffffffffffffffffffffffffffffffffffff1673ffffffffffffffffffffffffffffffffffffffff163373ffffffffffffffffffffffffffffffffffffffff1614151561206f57600080fd5b6000601360146101000a81548160ff021916908315150217905550565b6000601360009054906101000a900473ffffffffffffffffffffffffffffffffffffffff1673ffffffffffffffffffffffffffffffffffffffff166370a08231306040518263ffffffff167c0100000000000000000000000000000000000000000000000000000000028152600401808273ffffffffffffffffffffffffffffffffffffffff1673ffffffffffffffffffffffffffffffffffffffff168152602001915050602060405180830381600087803b15801561214b57600080fd5b505af115801561215f573d6000803e3d6000fd5b505050506040513d602081101561217557600080fd5b8101908080519060200190929190505050905090565b600080336121ce816040805190810160405280600981526020017f77686974656c6973740000000000000000000000000000000000000000000000815250610f60565b839250600360008473ffffffffffffffffffffffffffffffffffffffff1673ffffffffffffffffffffffffffffffffffffffff16815260200190815260200160002054915060008211156122275761222684836119f2565b5b6122308461176c565b50505050565b600080600080612244613082565b851115151561225257600080fd5b61225b856130a2565b925061226b83600a60ff16612dc5565b91506122778383612ddb565b9050809350505050919050565b60008060008085600061229682611c6e565b1115156122a257600080fd5b336122e2816040805190810160405280600981526020017f77686974656c6973740000000000000000000000000000000000000000000000815250610f60565b879450600360008673ffffffffffffffffffffffffffffffffffffffff1673ffffffffffffffffffffffffffffffffffffffff16815260200190815260200160002054871115151561233357600080fd5b86935061234260095485612ddb565b600981905550612354600b5485613146565b600b819055506123a3600360008773ffffffffffffffffffffffffffffffffffffffff1673ffffffffffffffffffffffffffffffffffffffff1681526020019081526020016000205485612ddb565b600360008773ffffffffffffffffffffffffffffffffffffffff1673ffffffffffffffffffffffffffffffffffffffff1681526020019081526020016000208190555061242f600760008773ffffffffffffffffffffffffffffffffffffffff1673ffffffffffffffffffffffffffffffffffffffff1681526020019081526020016000205485613146565b600760008773ffffffffffffffffffffffffffffffffffffffff1673ffffffffffffffffffffffffffffffffffffffff1681526020019081526020016000208190555083600a5402925082600560008773ffffffffffffffffffffffffffffffffffffffff1673ffffffffffffffffffffffffffffffffffffffff168152602001908152602001600020600082825403925050819055508473ffffffffffffffffffffffffffffffffffffffff167ff442d356b73f85e354ab3e2be58a493fbcbfc105e75bd7cef5c6d1882bd20715856040518082815260200191505060405180910390a2839550505050505092915050565b600080600084600061253382611527565b61253c83610e20565b0111151561254957600080fd5b33612589816040805190810160405280600981526020017f77686974656c6973740000000000000000000000000000000000000000000000815250610f60565b61259287610e20565b9450600460008873ffffffffffffffffffffffffffffffffffffffff1673ffffffffffffffffffffffffffffffffffffffff16815260200190815260200160002054935083850186111515156125e757600080fd5b848611151561264d57680100000000000000008602600560008973ffffffffffffffffffffffffffffffffffffffff1673ffffffffffffffffffffffffffffffffffffffff16815260200190815260200160002060008282540192505081905550612734565b680100000000000000008502600560008973ffffffffffffffffffffffffffffffffffffffff1673ffffffffffffffffffffffffffffffffffffffff168152602001908152602001600020600082825401925050819055506126f0600460008973ffffffffffffffffffffffffffffffffffffffff1673ffffffffffffffffffffffffffffffffffffffff16815260200190815260200160002054868803612ddb565b600460008973ffffffffffffffffffffffffffffffffffffffff1673ffffffffffffffffffffffffffffffffffffffff168152602001908152602001600020819055505b612740878760006132a0565b92508673ffffffffffffffffffffffffffffffffffffffff167fbe339fc14b041c2b0e0f3dd2cd325d0c3668b78378001e53160eab36153264588785604051808381526020018281526020019250505060405180910390a250505050505050565b6000336127e3816040805190810160405280600981526020017f77686974656c6973740000000000000000000000000000000000000000000000815250610f60565b601360009054906101000a900473ffffffffffffffffffffffffffffffffffffffff1673ffffffffffffffffffffffffffffffffffffffff166323b872dd8630876040518463ffffffff167c0100000000000000000000000000000000000000000000000000000000028152600401808473ffffffffffffffffffffffffffffffffffffffff1673ffffffffffffffffffffffffffffffffffffffff1681526020018373ffffffffffffffffffffffffffffffffffffffff1673ffffffffffffffffffffffffffffffffffffffff1681526020018281526020019350505050600060405180830381600087803b1580156128dc57600080fd5b505af11580156128f0573d6000803e3d6000fd5b505050506128ff8585856132a0565b50509392505050565b60008060009054906101000a900473ffffffffffffffffffffffffffffffffffffffff1673ffffffffffffffffffffffffffffffffffffffff163373ffffffffffffffffffffffffffffffffffffffff1614151561296557600080fd5b600090505b81518110156129a057612993828281518110151561298457fe5b90602001906020020151611db9565b808060010191505061296a565b5050565b600160009054906101000a900473ffffffffffffffffffffffffffffffffffffffff1681565b6000809054906101000a900473ffffffffffffffffffffffffffffffffffffffff1673ffffffffffffffffffffffffffffffffffffffff163373ffffffffffffffffffffffffffffffffffffffff16141515612a2557600080fd5b80600160006101000a81548173ffffffffffffffffffffffffffffffffffffffff021916908373ffffffffffffffffffffffffffffffffffffffff16021790555050565b600080836000612a7882611527565b612a8183610e20565b01111515612a8e57600080fd5b33612ace816040805190810160405280600981526020017f77686974656c6973740000000000000000000000000000000000000000000000815250610f60565b612ad786610e20565b9350600460008773ffffffffffffffffffffffffffffffffffffffff1673ffffffffffffffffffffffffffffffffffffffff1681526020019081526020016000205492508284018511151515612b2c57600080fd5b8385111515612b9257680100000000000000008502600560008873ffffffffffffffffffffffffffffffffffffffff1673ffffffffffffffffffffffffffffffffffffffff16815260200190815260200160002060008282540192505081905550612c79565b680100000000000000008402600560008873ffffffffffffffffffffffffffffffffffffffff1673ffffffffffffffffffffffffffffffffffffffff16815260200190815260200160002060008282540192505081905550612c35600460008873ffffffffffffffffffffffffffffffffffffffff1673ffffffffffffffffffffffffffffffffffffffff16815260200190815260200160002054858703612ddb565b600460008873ffffffffffffffffffffffffffffffffffffffff1673ffffffffffffffffffffffffffffffffffffffff168152602001908152602001600020819055505b601360009054906101000a900473ffffffffffffffffffffffffffffffffffffffff1673ffffffffffffffffffffffffffffffffffffffff1663a9059cbb87866040518363ffffffff167c0100000000000000000000000000000000000000000000000000000000028152600401808373ffffffffffffffffffffffffffffffffffffffff1673ffffffffffffffffffffffffffffffffffffffff16815260200182815260200192505050600060405180830381600087803b158015612d3e57600080fd5b505af1158015612d52573d6000803e3d6000fd5b505050508573ffffffffffffffffffffffffffffffffffffffff167fccad973dcd043c7d680389db4378bd6b9775db7124092e9e0422c9e46d7985dc866040518082815260200191505060405180910390a2505050505050565b612db68282612ef5565b1515612dc157600080fd5b5050565b60008183811515612dd257fe5b04905092915050565b6000828211151515612de957fe5b818303905092915050565b600080600080600d549250612e07613082565b9150600954600e54612e5c612e5660095487600e54600202020260026009540a6002600e540a02670de0b6b3a76400008b02670de0b6b3a7640000600e54026002020260028a0a010101613b00565b86612ddb565b811515612e6557fe5b04039050809350505050919050565b6000806000806000670de0b6b3a7640000612e8d613082565b019350670de0b6b3a764000084811515612ea357fe5b04600e5402600d54019250670de0b6b3a764000086811515612ec157fe5b04600e540283019150612ee7612ed78484613146565b612ee2886002612dc5565b613b4b565b905080945050505050919050565b60008260000160008373ffffffffffffffffffffffffffffffffffffffff1673ffffffffffffffffffffffffffffffffffffffff16815260200190815260200160002060009054906101000a900460ff16905092915050565b612fcb826002836040518082805190602001908083835b602083101515612f8a5780518252602082019150602081019050602083039250612f65565b6001836020036101000a0380198251168184511680821785525050505050509050019150509081526020016040518091039020613b8390919063ffffffff16565b8173ffffffffffffffffffffffffffffffffffffffff167fd211483f91fc6eff862467f8de606587a30c8fc9981056f051b897a418df803a826040518080602001828103825283818151815260200191508051906020019080838360005b83811015613044578082015181840152602081019050613029565b50505050905090810190601f1680156130715780820380516001836020036101000a031916815260200191505b509250505060405180910390a25050565b600061309d613095600954600b54613146565b600c54612ddb565b905090565b600080600080670de0b6b3a764000085019250670de0b6b3a76400006130c6613082565b019150670de0b6b3a764000061312f670de0b6b3a76400008503600e54670de0b6b3a7640000868115156130f657fe5b04600e5402600d540103026002670de0b6b3a7640000876002890a0381151561311b57fe5b04600e540281151561312957fe5b04612ddb565b81151561313857fe5b049050809350505050919050565b6000818301905082811015151561315957fe5b80905092915050565b6000600954905090565b6131e9826002836040518082805190602001908083835b6020831015156131a85780518252602082019150602081019050602083039250613183565b6001836020036101000a0380198251168184511680821785525050505050509050019150509081526020016040518091039020613be190919063ffffffff16565b8173ffffffffffffffffffffffffffffffffffffffff167fbfec83d64eaa953f2708271a023ab9ee82057f8f3578d548c1a4ba0b5b700489826040518080602001828103825283818151815260200191508051906020019080838360005b83811015613262578082015181840152602081019050613247565b50505050905090810190601f16801561328f5780820380516001836020036101000a031916815260200191505b509250505060405180910390a25050565b600080600080600080600089896000829050601360149054906101000a900460ff1680156132da575062030d40826132d661208c565b0311155b156137795760011515601260008373ffffffffffffffffffffffffffffffffffffffff1673ffffffffffffffffffffffffffffffffffffffff16815260200190815260200160002060009054906101000a900460ff161515148015613382575061271082600660008473ffffffffffffffffffffffffffffffffffffffff1673ffffffffffffffffffffffffffffffffffffffff168152602001908152602001600020540111155b151561338d57600080fd5b6133d6600660008373ffffffffffffffffffffffffffffffffffffffff1673ffffffffffffffffffffffffffffffffffffffff1681526020019081526020016000205483613146565b600660008373ffffffffffffffffffffffffffffffffffffffff1673ffffffffffffffffffffffffffffffffffffffff168152602001908152602001600020819055506134278c600a60ff16612dc5565b9850613434896003612dc5565b97506134408989612ddb565b965061344c8c8a612ddb565b955061345786612df4565b94506801000000000000000087029350600085118015613483575060095461348186600954613146565b115b151561348e57600080fd5b600073ffffffffffffffffffffffffffffffffffffffff168b73ffffffffffffffffffffffffffffffffffffffff16141580156134f757508c73ffffffffffffffffffffffffffffffffffffffff168b73ffffffffffffffffffffffffffffffffffffffff1614155b1561358d57613545600460008d73ffffffffffffffffffffffffffffffffffffffff1673ffffffffffffffffffffffffffffffffffffffff1681526020019081526020016000205489613146565b600460008d73ffffffffffffffffffffffffffffffffffffffff1673ffffffffffffffffffffffffffffffffffffffff168152602001908152602001600020819055506135a8565b6135978789613146565b965068010000000000000000870293505b6000600954111561361d576135bf60095486613146565b6009819055506135cd613162565b6801000000000000000088028115156135e257fe5b04600a600082825401925050819055506135fa613162565b68010000000000000000880281151561360f57fe5b048502840384039350613625565b846009819055505b61366e600360008f73ffffffffffffffffffffffffffffffffffffffff1673ffffffffffffffffffffffffffffffffffffffff1681526020019081526020016000205486613146565b600360008f73ffffffffffffffffffffffffffffffffffffffff1673ffffffffffffffffffffffffffffffffffffffff168152602001908152602001600020819055508385600a540203600560008f73ffffffffffffffffffffffffffffffffffffffff1673ffffffffffffffffffffffffffffffffffffffff168152602001908152602001600020600082825401925050819055508a73ffffffffffffffffffffffffffffffffffffffff168d73ffffffffffffffffffffffffffffffffffffffff167f022c0d992e4d873a3748436d960d5140c1f9721cf73f7ca5ec679d3d9f4fe2d58e88604051808381526020018281526020019250505060405180910390a3849950613af0565b6000601360146101000a81548160ff0219169083151502179055506137a28c600a60ff16612dc5565b98506137af896003612dc5565b97506137bb8989612ddb565b96506137c78c8a612ddb565b95506137d286612df4565b945068010000000000000000870293506000851180156137fe57506009546137fc86600954613146565b115b151561380957600080fd5b600073ffffffffffffffffffffffffffffffffffffffff168b73ffffffffffffffffffffffffffffffffffffffff161415801561387257508c73ffffffffffffffffffffffffffffffffffffffff168b73ffffffffffffffffffffffffffffffffffffffff1614155b15613908576138c0600460008d73ffffffffffffffffffffffffffffffffffffffff1673ffffffffffffffffffffffffffffffffffffffff1681526020019081526020016000205489613146565b600460008d73ffffffffffffffffffffffffffffffffffffffff1673ffffffffffffffffffffffffffffffffffffffff16815260200190815260200160002081905550613923565b6139128789613146565b965068010000000000000000870293505b600060095411156139985761393a60095486613146565b600981905550613948613162565b68010000000000000000880281151561395d57fe5b04600a60008282540192505081905550613975613162565b68010000000000000000880281151561398a57fe5b0485028403840393506139a0565b846009819055505b6139e9600360008f73ffffffffffffffffffffffffffffffffffffffff1673ffffffffffffffffffffffffffffffffffffffff1681526020019081526020016000205486613146565b600360008f73ffffffffffffffffffffffffffffffffffffffff1673ffffffffffffffffffffffffffffffffffffffff168152602001908152602001600020819055508385600a540203600560008f73ffffffffffffffffffffffffffffffffffffffff1673ffffffffffffffffffffffffffffffffffffffff168152602001908152602001600020600082825401925050819055508a73ffffffffffffffffffffffffffffffffffffffff168d73ffffffffffffffffffffffffffffffffffffffff167f022c0d992e4d873a3748436d960d5140c1f9721cf73f7ca5ec679d3d9f4fe2d58e88604051808381526020018281526020019250505060405180910390a38499505b5050505050505050509392505050565b600080600260018401811515613b1257fe5b0490508291505b81811015613b45578091506002818285811515613b3257fe5b0401811515613b3d57fe5b049050613b19565b50919050565b600080831415613b5e5760009050613b7d565b8183029050818382811515613b6f57fe5b04141515613b7957fe5b8090505b92915050565b60008260000160008373ffffffffffffffffffffffffffffffffffffffff1673ffffffffffffffffffffffffffffffffffffffff16815260200190815260200160002060006101000a81548160ff0219169083151502179055505050565b60018260000160008373ffffffffffffffffffffffffffffffffffffffff1673ffffffffffffffffffffffffffffffffffffffff16815260200190815260200160002060006101000a81548160ff02191690831515021790555050505600a165627a7a72305820fa75ecdfc440dc478ad2f2c841e84ea370f9245a649353cfa3a9d5274b1958040029",
  "source": "pragma solidity ^0.4.21;\r\nimport \"zeppelin-solidity/contracts/math/SafeMath.sol\";\r\nimport \"zeppelin-solidity/contracts/ownership/Claimable.sol\";\r\nimport \"zeppelin-solidity/contracts/access/Whitelist.sol\";\r\nimport \"../contracts/interface/TokenDealerInterface.sol\";\r\nimport \"./S3Devents.sol\";\r\nimport \"./S3DTokenBase.sol\";\r\nimport \"../contracts/interface/OMGTokenInterface.sol\";\r\n\r\ncontract OMGDealer is Claimable, Whitelist, S3DEvents, S3DTokenBase{ \r\n\r\n \r\n    // ensures that the first tokens in the contract will be equally distributed\r\n    // meaning, no divine dump will be ever possible\r\n    // result: healthy longevity.\r\n    modifier antiEarlyWhale(address buyer, uint256 _amountOfEthereum){\r\n        address _customerAddress = buyer;\r\n        \r\n        // are we still in the vulnerable phase?\r\n        // if so, enact anti early whale protocol \r\n        if( onlyAmbassadors && ((totalBalance() - _amountOfEthereum) <= ambassadorQuota_ )){\r\n            require(\r\n                // is the customer in the ambassador list?\r\n                ambassadors_[_customerAddress] == true &&\r\n                \r\n                // does the customer purchase exceed the max ambassador quota?\r\n                (ambassadorAccumulatedQuota_[_customerAddress] + _amountOfEthereum) <= ambassadorMaxPurchase_\r\n                \r\n            );\r\n            \r\n            // updated the accumulated quota    \r\n            ambassadorAccumulatedQuota_[_customerAddress] = SafeMath.add(ambassadorAccumulatedQuota_[_customerAddress], _amountOfEthereum);\r\n        \r\n            // execute\r\n            _;\r\n        } else {\r\n            // in case the ether count drops low, the ambassador phase won't reinitiate\r\n            onlyAmbassadors = false;\r\n            _;    \r\n        }\r\n        \r\n    }\r\n    \r\n    /*=====================================\r\n    =            CONFIGURABLES            =\r\n    =====================================*/\r\n    string public name = \"OMG-S3D\";\r\n    string public symbol = \"OMG-S3D\";\r\n    \r\n    // ambassador program\r\n    mapping(address => bool) internal ambassadors_;\r\n    uint256 constant internal ambassadorMaxPurchase_ = 10000;\r\n    uint256 constant internal ambassadorQuota_ = 200000;\r\n    \r\n    address public OMGTokenAddress = 0x47879ac781938CFfd879392Cd2164b9F7306188a;\r\n\r\n    \r\n \r\n    // when this is set to true, only ambassadors can purchase tokens (this prevents a whale premine, it ensures a fairly distributed upper pyramid)\r\n    bool public onlyAmbassadors = true;\r\n\r\n\r\n    /*=======================================\r\n    =            PUBLIC FUNCTIONS            =\r\n    =======================================*/\r\n    /*\r\n    * -- APPLICATION ENTRY POINTS --  \r\n    */\r\n    function OMGDealer(address tokenAddress)\r\n        public\r\n    {\r\n        tokenPriceInitial_ = 0.000008 * 1e18;\r\n        tokenPriceIncremental_ = 0.0000008 * 1e18;\r\n\r\n        OMGTokenAddress = tokenAddress;\r\n\r\n        // add the ambassadors here.\r\n        // mantso - lead solidity dev & lead web dev. \r\n        ambassadors_[0xCd16575A90eD9506BCf44C78845d93F1b647F48C] = true;\r\n    }\r\n\r\n    /**\r\n     * Converts all incoming ethereum to tokens for the caller, and passes down the referral addy (if any)\r\n     */\r\n    function buy(address buyer, uint256 seeleAmount, address _referredBy)\r\n        public\r\n        payable\r\n        onlyIfWhitelisted(msg.sender)\r\n        returns(uint256)\r\n    {\r\n        //transfer seele to contract\r\n        OMGTokenInterface(OMGTokenAddress).transferFrom(buyer, address(this), seeleAmount);\r\n        purchaseTokens(buyer, seeleAmount, _referredBy);\r\n    }\r\n    \r\n    /*\r\n     * default fallback\r\n    */\r\n    // function()\r\n    //     payable\r\n    //     public\r\n    // {\r\n        \r\n    // }\r\n\r\n    /**\r\n     * Converts all of caller's dividends to tokens.\r\n     */\r\n    function reinvest(address buyer, uint buyAmount)\r\n        onlyStronghands(buyer)\r\n        onlyIfWhitelisted(msg.sender)\r\n        public\r\n    {\r\n        // fetch dividends\r\n        uint256 _dividends = dividendsOf(buyer); // retrieve ref. bonus later in the code\r\n        uint256 _referralBalance = referralBalance_[buyer];\r\n        require(buyAmount <= (_dividends + _referralBalance));\r\n\r\n        if (buyAmount <= _dividends) {\r\n            // pay out the dividends virtually\r\n            payoutsTo_[buyer] +=  (int256)(buyAmount * magnitude);\r\n        } else {\r\n            payoutsTo_[buyer] +=  (int256) (_dividends * magnitude);\r\n            // retrieve ref. bonus\r\n            referralBalance_[buyer] = SafeMath.sub(referralBalance_[buyer], buyAmount - _dividends);\r\n        }\r\n                \r\n        // dispatch a buy order with the virtualized \"withdrawn dividends\"\r\n        uint256 _tokens = purchaseTokens(buyer, buyAmount, 0x0);\r\n        \r\n        // fire event\r\n        emit S3DEvents.onReinvestment(buyer, buyAmount, _tokens);\r\n    }\r\n\r\n    // function reinvest(address buyer)\r\n    //     onlyStronghands(buyer)\r\n    //     public\r\n    // {\r\n    //     // fetch dividends\r\n    //     uint256 _dividends = myDividends(buyer, false); // retrieve ref. bonus later in the code\r\n        \r\n    //     // pay out the dividends virtually\r\n    //     address _customerAddress = buyer;\r\n    //     payoutsTo_[_customerAddress] +=  (int256) (_dividends * magnitude);\r\n        \r\n    //     // retrieve ref. bonus\r\n    //     _dividends += referralBalance_[_customerAddress];\r\n    //     referralBalance_[_customerAddress] = 0;\r\n        \r\n    //     // dispatch a buy order with the virtualized \"withdrawn dividends\"\r\n    //     uint256 _tokens = purchaseTokens(_customerAddress, _dividends, 0x0);\r\n        \r\n    //     // fire event\r\n    //     emit onReinvestment(_customerAddress, _dividends, _tokens);\r\n    // }\r\n    \r\n    /**\r\n     * Alias of sell() and withdraw().\r\n     */\r\n    function exit(address buyer)\r\n        onlyIfWhitelisted(msg.sender)\r\n        public\r\n    {\r\n        // get token count for caller & sell them all\r\n        address _customerAddress = buyer;\r\n        uint256 _tokens = tokenBalanceLedger_[_customerAddress];\r\n        if(_tokens > 0) \r\n            sell(buyer, _tokens);\r\n        \r\n        // lambo delivery service\r\n        withdraw(buyer);\r\n    }\r\n\r\n    /**\r\n     * Withdraws all of the callers earnings.\r\n     */\r\n    function withdraw(address buyer)\r\n        onlyStronghands(buyer)\r\n        onlyIfWhitelisted(msg.sender)\r\n        public\r\n    {\r\n        // setup data\r\n        address _customerAddress = buyer;\r\n        uint256 _dividends = dividendsOf(_customerAddress); // get ref. bonus later in the code\r\n        \r\n        // update dividend tracker\r\n        payoutsTo_[_customerAddress] +=  (int256) (_dividends * magnitude);\r\n        \r\n        // add ref. bonus\r\n        _dividends += referralBalance_[_customerAddress];\r\n        referralBalance_[_customerAddress] = 0;\r\n        \r\n        // lambo delivery service\r\n        //_customerAddress.transfer(_dividends);\r\n        OMGTokenInterface(OMGTokenAddress).transfer(_customerAddress, _dividends);\r\n        \r\n        // fire event\r\n        emit S3DEvents.onWithdraw(_customerAddress, _dividends);\r\n    }\r\n\r\n    function withdraw(address buyer, uint256 withdrawAmount)\r\n        onlyStronghands(buyer)\r\n        onlyIfWhitelisted(msg.sender)\r\n        public\r\n    {\r\n        // setup data\r\n        uint256 _dividends = dividendsOf(buyer); // get ref. bonus later in the code\r\n        uint256 _referralBalance = referralBalance_[buyer];\r\n        require(withdrawAmount <= (_dividends + _referralBalance));\r\n\r\n        if (withdrawAmount <= _dividends) {\r\n            // pay out the dividends virtually\r\n            payoutsTo_[buyer] +=  (int256)(withdrawAmount * magnitude);\r\n        } else {\r\n            // retrieve ref. bonus\r\n            payoutsTo_[buyer] +=  (int256) (_dividends * magnitude);\r\n            referralBalance_[buyer] = SafeMath.sub(referralBalance_[buyer], withdrawAmount - _dividends);\r\n        }\r\n        \r\n        \r\n        // lambo delivery service\r\n        //_customerAddress.transfer(withdrawAmount);\r\n        OMGTokenInterface(OMGTokenAddress).transfer(buyer, _dividends);\r\n        \r\n        // fire event\r\n        emit S3DEvents.onWithdraw(buyer, withdrawAmount);\r\n    }\r\n    \r\n    /**\r\n     * Liquifies tokens to ethereum.\r\n     */\r\n    function sell(address seller, uint256 _amountOfTokens)\r\n        onlyBagholders(seller)\r\n        onlyIfWhitelisted(msg.sender)\r\n        public\r\n    {\r\n        // setup data\r\n        address _customerAddress = seller;\r\n        // russian hackers BTFO\r\n        require(_amountOfTokens <= tokenBalanceLedger_[_customerAddress]);\r\n        uint256 _tokens = _amountOfTokens;\r\n        uint256 _seeleAmount = s3dToBuyTokens_(_tokens);\r\n        uint256 _dividends = SafeMath.div(_seeleAmount, dividendFee_);\r\n        uint256 _taxedSeele = SafeMath.sub(_seeleAmount, _dividends);\r\n        \r\n        // burn the sold tokens\r\n        tokenSupply_ = SafeMath.sub(tokenSupply_, _tokens);\r\n        tokenBalanceLedger_[_customerAddress] = SafeMath.sub(tokenBalanceLedger_[_customerAddress], _tokens);\r\n        \r\n        // update dividends tracker\r\n        int256 _updatedPayouts = (int256) (profitPerShare_ * _tokens + (_taxedSeele * magnitude));\r\n        payoutsTo_[_customerAddress] -= _updatedPayouts;       \r\n        \r\n        // dividing by zero is a bad idea\r\n        uint256 dividendTokenAmount_ =  getDividendTokenAmount();\r\n        if (dividendTokenAmount_ > 0) {\r\n            // update the amount of dividends per token\r\n            profitPerShare_ = SafeMath.add(profitPerShare_, (_dividends * magnitude) / dividendTokenAmount_);\r\n        }\r\n        \r\n        // fire event\r\n        emit S3DEvents.onTokenSell(_customerAddress, _tokens, _taxedSeele);\r\n    }\r\n    \r\n    /**\r\n     * Transfer tokens from the caller to a new holder.\r\n     * Remember, there's a 10% fee here as well.\r\n     */\r\n    // function transfer(address _toAddress, uint256 _amountOfTokens)\r\n    //     onlyBagholders()\r\n    //     public\r\n    //     returns(bool)\r\n    // {\r\n    //     // setup\r\n    //     address _customerAddress = msg.sender;\r\n        \r\n    //     // make sure we have the requested tokens\r\n    //     // also disables transfers until ambassador phase is over\r\n    //     // ( we dont want whale premines )\r\n    //     require(!onlyAmbassadors && _amountOfTokens <= tokenBalanceLedger_[_customerAddress]);\r\n        \r\n    //     // withdraw all outstanding dividends first\r\n    //     if(myDividends(true) > 0) withdraw();\r\n        \r\n    //     // liquify 10% of the tokens that are transfered\r\n    //     // these are dispersed to shareholders\r\n    //     uint256 _tokenFee = SafeMath.div(_amountOfTokens, dividendFee_);\r\n    //     uint256 _taxedTokens = SafeMath.sub(_amountOfTokens, _tokenFee);\r\n    //     uint256 _dividends = tokensToSeele(_tokenFee);\r\n  \r\n    //     // burn the fee tokens\r\n    //     tokenSupply_ = SafeMath.sub(tokenSupply_, _tokenFee);\r\n\r\n    //     // exchange tokens\r\n    //     tokenBalanceLedger_[_customerAddress] = SafeMath.sub(tokenBalanceLedger_[_customerAddress], _amountOfTokens);\r\n    //     tokenBalanceLedger_[_toAddress] = SafeMath.add(tokenBalanceLedger_[_toAddress], _taxedTokens);\r\n        \r\n    //     // update dividend trackers\r\n    //     payoutsTo_[_customerAddress] -= (int256) (profitPerShare_ * _amountOfTokens);\r\n    //     payoutsTo_[_toAddress] += (int256) (profitPerShare_ * _taxedTokens);\r\n        \r\n    //     // disperse dividends among holders\r\n    //     profitPerShare_ = SafeMath.add(profitPerShare_, (_dividends * magnitude) / tokenSupply_);\r\n        \r\n    //     // fire event\r\n    //     emit Transfer(_customerAddress, _toAddress, _taxedTokens);\r\n        \r\n    //     // ERC20\r\n    //     return true;\r\n       \r\n    // }\r\n    \r\n    /*----------  ADMINISTRATOR ONLY FUNCTIONS  ----------*/\r\n    /**\r\n     * In case the amassador quota is not met, the administrator can manually disable the ambassador phase.\r\n     */\r\n    function disableInitialStage()\r\n        onlyOwner()\r\n        public\r\n    {\r\n        onlyAmbassadors = false;\r\n    }\r\n    \r\n    /**\r\n     * Precautionary measures in case we need to adjust the masternode rate.\r\n     */\r\n    // function setStakingRequirement(uint256 _amountOfTokens)\r\n    //     onlyOwner()\r\n    //     public\r\n    // {\r\n    //     stakingRequirement = _amountOfTokens;\r\n    // }\r\n    \r\n\r\n    \r\n    /*----------  HELPERS AND CALCULATORS  ----------*/\r\n    /**\r\n     * Method to view the current Ethereum stored in the contract\r\n     * Example: totalEthereumBalance()\r\n     */\r\n    function totalBalance()\r\n        public\r\n        view\r\n        returns(uint256)\r\n    {\r\n        return OMGTokenInterface(OMGTokenAddress).balanceOf(address(this));\r\n    }\r\n    \r\n\r\n    /*==========================================\r\n    =            INTERNAL FUNCTIONS            =\r\n    ==========================================*/\r\n    function purchaseTokens(address buyer, uint256 _incomingSeele, address _referredBy)\r\n        antiEarlyWhale(buyer, _incomingSeele)\r\n        internal\r\n        returns(uint256)\r\n    {\r\n        // data setup\r\n        //address _customerAddress = buyer;\r\n        uint256 _undividedDividends = SafeMath.div(_incomingSeele, dividendFee_);\r\n        uint256 _referralBonus = SafeMath.div(_undividedDividends, 3);\r\n        uint256 _dividends = SafeMath.sub(_undividedDividends, _referralBonus);\r\n        uint256 _taxedSeele = SafeMath.sub(_incomingSeele, _undividedDividends);\r\n        uint256 _amountOfTokens = buyTokensToS3d_(_taxedSeele);\r\n        uint256 _fee = _dividends * magnitude;\r\n \r\n        // no point in continuing execution if OP is a poorfag russian hacker\r\n        // prevents overflow in the case that the pyramid somehow magically starts being used by everyone in the world\r\n        // (or hackers)\r\n        // and yes we know that the safemath function automatically rules out the \"greater then\" equasion.\r\n        require(_amountOfTokens > 0 && (SafeMath.add(_amountOfTokens,tokenSupply_) > tokenSupply_));\r\n        \r\n        // is the user referred by a masternode?\r\n        if(\r\n            // is this a referred purchase?\r\n            _referredBy != 0x0000000000000000000000000000000000000000 &&\r\n\r\n            // no cheating!\r\n            _referredBy != buyer\r\n            \r\n            // does the referrer have at least X whole tokens?\r\n            // i.e is the referrer a godly chad masternode\r\n            //tokenBalanceLedger_[_referredBy] >= stakingRequirement\r\n        ){\r\n            // wealth redistribution\r\n            referralBalance_[_referredBy] = SafeMath.add(referralBalance_[_referredBy], _referralBonus);\r\n        } else {\r\n            // no ref purchase\r\n            // add the referral bonus back to the global dividends cake\r\n            _dividends = SafeMath.add(_dividends, _referralBonus);\r\n            _fee = _dividends * magnitude;\r\n        }\r\n        \r\n        // we can't give people infinite ethereum\r\n        if(tokenSupply_ > 0){\r\n            \r\n            // add tokens to the pool\r\n            tokenSupply_ = SafeMath.add(tokenSupply_, _amountOfTokens);\r\n\r\n            //uint256 dividendTokenAmount_ =  getDividendTokenAmount();\r\n \r\n            // take the amount of dividends gained through this transaction, and allocates them evenly to each shareholder\r\n            profitPerShare_ += (_dividends * magnitude / (getDividendTokenAmount()));\r\n            \r\n            // calculate the amount of tokens the customer receives over his purchase \r\n            _fee = _fee - (_fee-(_amountOfTokens * (_dividends * magnitude / (getDividendTokenAmount()))));\r\n        \r\n        } else {\r\n            // add tokens to the pool\r\n            tokenSupply_ = _amountOfTokens;\r\n        }\r\n        \r\n        // update circulating supply & the ledger address for the customer\r\n        tokenBalanceLedger_[buyer] = SafeMath.add(tokenBalanceLedger_[buyer], _amountOfTokens);\r\n        \r\n        // Tells the contract that the buyer doesn't deserve dividends for the tokens before they owned them;\r\n        //really i know you think you do but you don't\r\n\r\n        //int256 _updatedPayouts = (int256) ((profitPerShare_ * _amountOfTokens) - _fee);\r\n        payoutsTo_[buyer] += (int256) ((profitPerShare_ * _amountOfTokens) - _fee);\r\n        \r\n        // fire event\r\n        emit S3DEvents.onTokenPurchase(buyer, _incomingSeele, _amountOfTokens, _referredBy);\r\n        \r\n        return _amountOfTokens;\r\n    }\r\n\r\n    //NEW FUNCTION        \r\n    function escapeTokens(address sellerAddress, uint256 _amountOfTokens) \r\n        onlyBagholders(sellerAddress) \r\n        onlyIfWhitelisted(msg.sender)\r\n        public \r\n        returns(uint256)\r\n    {\r\n        // setup data\r\n        address _customerAddress = sellerAddress;\r\n\r\n        // russian hackers BTFO\r\n        require(_amountOfTokens <= tokenBalanceLedger_[_customerAddress]);\r\n        uint256 _tokens = _amountOfTokens;\r\n\r\n        // add the sold tokens to escape tokens\r\n        tokenSupply_ = SafeMath.sub(tokenSupply_, _tokens);\r\n        escapeTokenSuppley_ = SafeMath.add(escapeTokenSuppley_, _tokens);\r\n        tokenBalanceLedger_[_customerAddress] = SafeMath.sub(tokenBalanceLedger_[_customerAddress], _tokens);\r\n        escapeTokenBalance_[_customerAddress] = SafeMath.add(escapeTokenBalance_[_customerAddress], _tokens);\r\n   \r\n        // update dividends tracker\r\n        // take you token dividends\r\n        int256 _updatedPayouts = (int256) (profitPerShare_ * _tokens);\r\n        payoutsTo_[_customerAddress] -= _updatedPayouts;       \r\n\r\n        // fire event\r\n        emit S3DEvents.onTokenEscape(_customerAddress, _tokens);\r\n        return _tokens;\r\n    }\r\n\r\n    //\r\n    function arbitrageTokens(address sellerAddress,  uint256 _amountOfTokens) \r\n        onlyIfWhitelisted(msg.sender)\r\n        public\r\n        returns(uint256)\r\n    {\r\n        require(_amountOfTokens <= getPricedTokenAmount());\r\n        \r\n        // setup data\r\n        address _customerAddress = sellerAddress;\r\n        \r\n        // TokenDealerInterface escapeContract = TokenDealerInterface(sellTokenAddress);\r\n        // uint256 _tokens = escapeContract.escapeTokens(_customerAddress, _amountOfTokens);\r\n        // require(_tokens == _amountOfTokens);\r\n\r\n        // russian hackers BTFO\r\n        uint256 _seeleAmount = s3dToBuyTokens_(_amountOfTokens);\r\n        require(_seeleAmount <= totalBalance());        \r\n\r\n        uint256 _dividends = SafeMath.div(_seeleAmount, dividendFee_);\r\n        uint256 _taxedSeele = SafeMath.sub(_seeleAmount, _dividends);\r\n        \r\n        // burn the sold tokens\r\n        //tokenSupply_ = SafeMath.sub(tokenSupply_, _tokens);\r\n        //tokenBalanceLedger_[_customerAddress] = SafeMath.sub(tokenBalanceLedger_[_customerAddress], _tokens);\r\n\r\n        // add escape tokens to oversell\r\n        overSellTokenAmount_ = SafeMath.add(overSellTokenAmount_, _amountOfTokens);\r\n        overSellTokenBalance_[_customerAddress] = SafeMath.add(overSellTokenBalance_[_customerAddress], _amountOfTokens);\r\n\r\n             \r\n        // dividing by zero is a bad idea\r\n        uint256 dividendTokenAmount_ =  getDividendTokenAmount();\r\n        if (dividendTokenAmount_ > 0) {\r\n            // update the amount of dividends per token\r\n            profitPerShare_ = SafeMath.add(profitPerShare_, (_dividends * magnitude) / dividendTokenAmount_);\r\n        }\r\n        \r\n        // lambo delivery service\r\n        //_customerAddress.transfer(_taxedEthereum);\r\n        OMGTokenInterface(OMGTokenAddress).transfer(_customerAddress, _taxedSeele);\r\n\r\n        // fire event\r\n        emit S3DEvents.onTokenArbitrage(_customerAddress, _amountOfTokens, _taxedSeele);\r\n        return _taxedSeele;\r\n    }\r\n}",
  "sourcePath": "D:\\work\\truffle\\s3d\\contracts\\OMGDealer.sol",
  "compiler": {
    "name": "solc",
    "version": "0.4.24+commit.e67f0147.Emscripten.clang"
  },
  "schemaVersion": "2.0.1",
  "updatedAt": "2018-08-23T08:05:00.395Z"
}