{
  "contractName": "S3DProtocol",
  "abi": [
    {
      "constant": true,
      "inputs": [],
      "name": "ethSymbol",
      "outputs": [
        {
          "name": "",
          "type": "string"
        }
      ],
      "payable": false,
      "stateMutability": "view",
      "type": "function"
    },
    {
      "constant": false,
      "inputs": [],
      "name": "claimOwnership",
      "outputs": [],
      "payable": false,
      "stateMutability": "nonpayable",
      "type": "function"
    },
    {
      "constant": true,
      "inputs": [],
      "name": "stakingRequirement",
      "outputs": [
        {
          "name": "",
          "type": "uint256"
        }
      ],
      "payable": false,
      "stateMutability": "view",
      "type": "function"
    },
    {
      "constant": false,
      "inputs": [],
      "name": "renounceOwnership",
      "outputs": [],
      "payable": false,
      "stateMutability": "nonpayable",
      "type": "function"
    },
    {
      "constant": true,
      "inputs": [],
      "name": "owner",
      "outputs": [
        {
          "name": "",
          "type": "address"
        }
      ],
      "payable": false,
      "stateMutability": "view",
      "type": "function"
    },
    {
      "constant": true,
      "inputs": [],
      "name": "pendingOwner",
      "outputs": [
        {
          "name": "",
          "type": "address"
        }
      ],
      "payable": false,
      "stateMutability": "view",
      "type": "function"
    },
    {
      "constant": false,
      "inputs": [
        {
          "name": "newOwner",
          "type": "address"
        }
      ],
      "name": "transferOwnership",
      "outputs": [],
      "payable": false,
      "stateMutability": "nonpayable",
      "type": "function"
    },
    {
      "anonymous": false,
      "inputs": [
        {
          "indexed": true,
          "name": "previousOwner",
          "type": "address"
        }
      ],
      "name": "OwnershipRenounced",
      "type": "event"
    },
    {
      "anonymous": false,
      "inputs": [
        {
          "indexed": true,
          "name": "previousOwner",
          "type": "address"
        },
        {
          "indexed": true,
          "name": "newOwner",
          "type": "address"
        }
      ],
      "name": "OwnershipTransferred",
      "type": "event"
    },
    {
      "constant": false,
      "inputs": [
        {
          "name": "symbol",
          "type": "string"
        },
        {
          "name": "dealerAddress",
          "type": "address"
        }
      ],
      "name": "addDealer",
      "outputs": [
        {
          "name": "size",
          "type": "uint256"
        }
      ],
      "payable": false,
      "stateMutability": "nonpayable",
      "type": "function"
    },
    {
      "constant": false,
      "inputs": [
        {
          "name": "_amountOfTokens",
          "type": "uint256"
        }
      ],
      "name": "setStakingRequirement",
      "outputs": [],
      "payable": false,
      "stateMutability": "nonpayable",
      "type": "function"
    },
    {
      "constant": true,
      "inputs": [],
      "name": "totalSupply",
      "outputs": [
        {
          "name": "sum",
          "type": "uint256"
        }
      ],
      "payable": false,
      "stateMutability": "view",
      "type": "function"
    },
    {
      "constant": true,
      "inputs": [
        {
          "name": "_customerAddress",
          "type": "address"
        }
      ],
      "name": "balanceOf",
      "outputs": [
        {
          "name": "sum",
          "type": "uint256"
        }
      ],
      "payable": false,
      "stateMutability": "view",
      "type": "function"
    },
    {
      "constant": false,
      "inputs": [
        {
          "name": "symbol",
          "type": "string"
        },
        {
          "name": "_tokenAmount",
          "type": "uint256"
        },
        {
          "name": "_referredBy",
          "type": "address"
        }
      ],
      "name": "buy",
      "outputs": [
        {
          "name": "",
          "type": "uint256"
        }
      ],
      "payable": true,
      "stateMutability": "payable",
      "type": "function"
    }
  ],
  "bytecode": "0x608060405268056bc75e2d63100000600555336000806101000a81548173ffffffffffffffffffffffffffffffffffffffff021916908373ffffffffffffffffffffffffffffffffffffffff160217905550611b7c806100606000396000f3006080604052600436106100ba576000357c0100000000000000000000000000000000000000000000000000000000900463ffffffff16806318160ddd146100bf5780632c0f7f4f146100ea578063365366fb1461017a5780634e71e0c81461021457806356d399e81461022b57806370a0823114610256578063715018a6146102ad5780638328b610146102c45780638da5cb5b146102f1578063b70aa4f914610348578063e30c3978146103e5578063f2fde38b1461043c575b600080fd5b3480156100cb57600080fd5b506100d461047f565b6040518082815260200191505060405180910390f35b3480156100f657600080fd5b506100ff61085e565b6040518080602001828103825283818151815260200191508051906020019080838360005b8381101561013f578082015181840152602081019050610124565b50505050905090810190601f16801561016c5780820380516001836020036101000a031916815260200191505b509250505060405180910390f35b6101fe600480360381019080803590602001908201803590602001908080601f016020809104026020016040519081016040528093929190818152602001838380828437820191505050505050919291929080359060200190929190803573ffffffffffffffffffffffffffffffffffffffff169060200190929190505050610897565b6040518082815260200191505060405180910390f35b34801561022057600080fd5b5061022961118f565b005b34801561023757600080fd5b5061024061132e565b6040518082815260200191505060405180910390f35b34801561026257600080fd5b50610297600480360381019080803573ffffffffffffffffffffffffffffffffffffffff169060200190929190505050611334565b6040518082815260200191505060405180910390f35b3480156102b957600080fd5b506102c261174c565b005b3480156102d057600080fd5b506102ef6004803603810190808035906020019092919050505061184e565b005b3480156102fd57600080fd5b506103066118b3565b604051808273ffffffffffffffffffffffffffffffffffffffff1673ffffffffffffffffffffffffffffffffffffffff16815260200191505060405180910390f35b34801561035457600080fd5b506103cf600480360381019080803590602001908201803590602001908080601f0160208091040260200160405190810160405280939291908181526020018383808284378201915050505050509192919290803573ffffffffffffffffffffffffffffffffffffffff1690602001909291905050506118d8565b6040518082815260200191505060405180910390f35b3480156103f157600080fd5b506103fa611a8b565b604051808273ffffffffffffffffffffffffffffffffffffffff1673ffffffffffffffffffffffffffffffffffffffff16815260200191505060405180910390f35b34801561044857600080fd5b5061047d600480360381019080803573ffffffffffffffffffffffffffffffffffffffff169060200190929190505050611ab1565b005b600080606060008073__TokenDealerMapping____________________632dc131b260026040518263ffffffff167c01000000000000000000000000000000000000000000000000000000000281526004018082815260200191505060206040518083038186803b1580156104f357600080fd5b505af4158015610507573d6000803e3d6000fd5b505050506040513d602081101561051d57600080fd5b810190808051906020019092919050505093505b73__TokenDealerMapping____________________634ca101476002866040518363ffffffff167c0100000000000000000000000000000000000000000000000000000000028152600401808381526020018281526020019250505060206040518083038186803b1580156105a557600080fd5b505af41580156105b9573d6000803e3d6000fd5b505050506040513d60208110156105cf57600080fd5b8101908080519060200190929190505050156108575773__TokenDealerMapping____________________63c6ae82086002866040518363ffffffff167c0100000000000000000000000000000000000000000000000000000000028152600401808381526020018281526020019250505060006040518083038186803b15801561065957600080fd5b505af415801561066d573d6000803e3d6000fd5b505050506040513d6000823e3d601f19601f82011682018060405250604081101561069757600080fd5b8101908080516401000000008111156106af57600080fd5b828101905060208101848111156106c557600080fd5b81518560018202830111640100000000821117156106e257600080fd5b505092919060200180519060200190929190505050925092508190508073ffffffffffffffffffffffffffffffffffffffff166318160ddd6040518163ffffffff167c0100000000000000000000000000000000000000000000000000000000028152600401602060405180830381600087803b15801561076257600080fd5b505af1158015610776573d6000803e3d6000fd5b505050506040513d602081101561078c57600080fd5b81019080805190602001909291905050508501945073__TokenDealerMapping____________________634a84c3996002866040518363ffffffff167c0100000000000000000000000000000000000000000000000000000000028152600401808381526020018281526020019250505060206040518083038186803b15801561081557600080fd5b505af4158015610829573d6000803e3d6000fd5b505050506040513d602081101561083f57600080fd5b81019080805190602001909291905050509350610531565b5050505090565b6040805190810160405280600381526020017f657468000000000000000000000000000000000000000000000000000000000081525081565b60008082600073ffffffffffffffffffffffffffffffffffffffff168173ffffffffffffffffffffffffffffffffffffffff16141515610d3a576005546108dd82611334565b101515156108ea57600080fd5b6002600001866040518082805190602001908083835b6020831015156109255780518252602082019150602081019050602083039250610900565b6001836020036101000a038019825116818451168082178552505050505050905001915050908152602001604051809103902060010160009054906101000a900473ffffffffffffffffffffffffffffffffffffffff169150600073ffffffffffffffffffffffffffffffffffffffff168273ffffffffffffffffffffffffffffffffffffffff16141515156109ba57600080fd5b600073__StringUtils___________________________633a96fdd7886040805190810160405280600381526020017f65746800000000000000000000000000000000000000000000000000000000008152506040518363ffffffff167c0100000000000000000000000000000000000000000000000000000000028152600401808060200180602001838103835285818151815260200191508051906020019080838360005b83811015610a7c578082015181840152602081019050610a61565b50505050905090810190601f168015610aa95780820380516001836020036101000a031916815260200191505b50838103825284818151815260200191508051906020019080838360005b83811015610ae2578082015181840152602081019050610ac7565b50505050905090810190601f168015610b0f5780820380516001836020036101000a031916815260200191505b5094505050505060206040518083038186803b158015610b2e57600080fd5b505af4158015610b42573d6000803e3d6000fd5b505050506040513d6020811015610b5857600080fd5b81019080805190602001909291905050501415610c55578173ffffffffffffffffffffffffffffffffffffffff16637deb6025346000876040518463ffffffff167c0100000000000000000000000000000000000000000000000000000000028152600401808381526020018273ffffffffffffffffffffffffffffffffffffffff1673ffffffffffffffffffffffffffffffffffffffff168152602001925050506020604051808303818588803b158015610c1357600080fd5b505af1158015610c27573d6000803e3d6000fd5b50505050506040513d6020811015610c3e57600080fd5b810190808051906020019092919050505050610d35565b8173ffffffffffffffffffffffffffffffffffffffff16637deb602586866040518363ffffffff167c0100000000000000000000000000000000000000000000000000000000028152600401808381526020018273ffffffffffffffffffffffffffffffffffffffff1673ffffffffffffffffffffffffffffffffffffffff16815260200192505050602060405180830381600087803b158015610cf857600080fd5b505af1158015610d0c573d6000803e3d6000fd5b505050506040513d6020811015610d2257600080fd5b8101908080519060200190929190505050505b611186565b6002600001866040518082805190602001908083835b602083101515610d755780518252602082019150602081019050602083039250610d50565b6001836020036101000a038019825116818451168082178552505050505050905001915050908152602001604051809103902060010160009054906101000a900473ffffffffffffffffffffffffffffffffffffffff169150600073ffffffffffffffffffffffffffffffffffffffff168273ffffffffffffffffffffffffffffffffffffffff1614151515610e0a57600080fd5b600073__StringUtils___________________________633a96fdd7886040805190810160405280600381526020017f65746800000000000000000000000000000000000000000000000000000000008152506040518363ffffffff167c0100000000000000000000000000000000000000000000000000000000028152600401808060200180602001838103835285818151815260200191508051906020019080838360005b83811015610ecc578082015181840152602081019050610eb1565b50505050905090810190601f168015610ef95780820380516001836020036101000a031916815260200191505b50838103825284818151815260200191508051906020019080838360005b83811015610f32578082015181840152602081019050610f17565b50505050905090810190601f168015610f5f5780820380516001836020036101000a031916815260200191505b5094505050505060206040518083038186803b158015610f7e57600080fd5b505af4158015610f92573d6000803e3d6000fd5b505050506040513d6020811015610fa857600080fd5b810190808051906020019092919050505014156110a5578173ffffffffffffffffffffffffffffffffffffffff16637deb6025346000876040518463ffffffff167c0100000000000000000000000000000000000000000000000000000000028152600401808381526020018273ffffffffffffffffffffffffffffffffffffffff1673ffffffffffffffffffffffffffffffffffffffff168152602001925050506020604051808303818588803b15801561106357600080fd5b505af1158015611077573d6000803e3d6000fd5b50505050506040513d602081101561108e57600080fd5b810190808051906020019092919050505050611185565b8173ffffffffffffffffffffffffffffffffffffffff16637deb602586866040518363ffffffff167c0100000000000000000000000000000000000000000000000000000000028152600401808381526020018273ffffffffffffffffffffffffffffffffffffffff1673ffffffffffffffffffffffffffffffffffffffff16815260200192505050602060405180830381600087803b15801561114857600080fd5b505af115801561115c573d6000803e3d6000fd5b505050506040513d602081101561117257600080fd5b8101908080519060200190929190505050505b5b50509392505050565b600160009054906101000a900473ffffffffffffffffffffffffffffffffffffffff1673ffffffffffffffffffffffffffffffffffffffff163373ffffffffffffffffffffffffffffffffffffffff161415156111eb57600080fd5b600160009054906101000a900473ffffffffffffffffffffffffffffffffffffffff1673ffffffffffffffffffffffffffffffffffffffff166000809054906101000a900473ffffffffffffffffffffffffffffffffffffffff1673ffffffffffffffffffffffffffffffffffffffff167f8be0079c531659141344cd1fd0a4f28419497f9722a3daafe3b4186f6b6457e060405160405180910390a3600160009054906101000a900473ffffffffffffffffffffffffffffffffffffffff166000806101000a81548173ffffffffffffffffffffffffffffffffffffffff021916908373ffffffffffffffffffffffffffffffffffffffff1602179055506000600160006101000a81548173ffffffffffffffffffffffffffffffffffffffff021916908373ffffffffffffffffffffffffffffffffffffffff160217905550565b60055481565b600080606060008073__TokenDealerMapping____________________632dc131b260026040518263ffffffff167c01000000000000000000000000000000000000000000000000000000000281526004018082815260200191505060206040518083038186803b1580156113a857600080fd5b505af41580156113bc573d6000803e3d6000fd5b505050506040513d60208110156113d257600080fd5b810190808051906020019092919050505093505b73__TokenDealerMapping____________________634ca101476002866040518363ffffffff167c0100000000000000000000000000000000000000000000000000000000028152600401808381526020018281526020019250505060206040518083038186803b15801561145a57600080fd5b505af415801561146e573d6000803e3d6000fd5b505050506040513d602081101561148457600080fd5b8101908080519060200190929190505050156117435773__TokenDealerMapping____________________63c6ae82086002866040518363ffffffff167c0100000000000000000000000000000000000000000000000000000000028152600401808381526020018281526020019250505060006040518083038186803b15801561150e57600080fd5b505af4158015611522573d6000803e3d6000fd5b505050506040513d6000823e3d601f19601f82011682018060405250604081101561154c57600080fd5b81019080805164010000000081111561156457600080fd5b8281019050602081018481111561157a57600080fd5b815185600182028301116401000000008211171561159757600080fd5b505092919060200180519060200190929190505050925092508190508073ffffffffffffffffffffffffffffffffffffffff166370a08231876040518263ffffffff167c0100000000000000000000000000000000000000000000000000000000028152600401808273ffffffffffffffffffffffffffffffffffffffff1673ffffffffffffffffffffffffffffffffffffffff168152602001915050602060405180830381600087803b15801561164e57600080fd5b505af1158015611662573d6000803e3d6000fd5b505050506040513d602081101561167857600080fd5b81019080805190602001909291905050508501945073__TokenDealerMapping____________________634a84c3996002866040518363ffffffff167c0100000000000000000000000000000000000000000000000000000000028152600401808381526020018281526020019250505060206040518083038186803b15801561170157600080fd5b505af4158015611715573d6000803e3d6000fd5b505050506040513d602081101561172b57600080fd5b810190808051906020019092919050505093506113e6565b50505050919050565b6000809054906101000a900473ffffffffffffffffffffffffffffffffffffffff1673ffffffffffffffffffffffffffffffffffffffff163373ffffffffffffffffffffffffffffffffffffffff161415156117a757600080fd5b6000809054906101000a900473ffffffffffffffffffffffffffffffffffffffff1673ffffffffffffffffffffffffffffffffffffffff167ff8df31144d9c2f0f6b59d69b8b98abd5459d07f2742c4df920b25aae33c6482060405160405180910390a260008060006101000a81548173ffffffffffffffffffffffffffffffffffffffff021916908373ffffffffffffffffffffffffffffffffffffffff160217905550565b6000809054906101000a900473ffffffffffffffffffffffffffffffffffffffff1673ffffffffffffffffffffffffffffffffffffffff163373ffffffffffffffffffffffffffffffffffffffff161415156118a957600080fd5b8060058190555050565b6000809054906101000a900473ffffffffffffffffffffffffffffffffffffffff1681565b60008060009054906101000a900473ffffffffffffffffffffffffffffffffffffffff1673ffffffffffffffffffffffffffffffffffffffff163373ffffffffffffffffffffffffffffffffffffffff1614151561193557600080fd5b73__TokenDealerMapping____________________63d3a54b0a600285856040518463ffffffff167c010000000000000000000000000000000000000000000000000000000002815260040180848152602001806020018373ffffffffffffffffffffffffffffffffffffffff1673ffffffffffffffffffffffffffffffffffffffff168152602001828103825284818151815260200191508051906020019080838360005b838110156119f65780820151818401526020810190506119db565b50505050905090810190601f168015611a235780820380516001836020036101000a031916815260200191505b5094505050505060206040518083038186803b158015611a4257600080fd5b505af4158015611a56573d6000803e3d6000fd5b505050506040513d6020811015611a6c57600080fd5b8101908080519060200190929190505050506002800154905092915050565b600160009054906101000a900473ffffffffffffffffffffffffffffffffffffffff1681565b6000809054906101000a900473ffffffffffffffffffffffffffffffffffffffff1673ffffffffffffffffffffffffffffffffffffffff163373ffffffffffffffffffffffffffffffffffffffff16141515611b0c57600080fd5b80600160006101000a81548173ffffffffffffffffffffffffffffffffffffffff021916908373ffffffffffffffffffffffffffffffffffffffff160217905550505600a165627a7a72305820e5782e6d376aca80c2a15684ccc8faab813ffe52dbeb246389afedb8314148b90029",
  "source": "pragma solidity ^0.4.21;\r\n\r\n\r\nimport \"zeppelin-solidity/contracts/ownership/Claimable.sol\";\r\nimport \"contracts/interface/TokenDealerInterface.sol\";\r\nimport \"contracts/library/TokenDealerMapping.sol\";\r\nimport \"contracts/library/StringUtils.sol\";\r\n\r\n\r\n\r\ncontract S3DProtocol is Claimable{\r\n\r\n    TokenDealerMapping.itmap tokenDealerMap;\r\n\r\n    // proof of stake (defaults at 100 tokens)\r\n    uint256 public stakingRequirement = 100e18;\r\n\r\n    string constant public ethSymbol = \"eth\";\r\n\r\n    function addDealer(string symbol, address dealerAddress) public onlyOwner returns (uint size) {\r\n        TokenDealerMapping.insert(tokenDealerMap, symbol, dealerAddress);\r\n        return tokenDealerMap.size;\r\n    }\r\n\r\n    function setStakingRequirement(uint256 _amountOfTokens) onlyOwner() public\r\n    {\r\n        stakingRequirement = _amountOfTokens;\r\n    }\r\n    \r\n\r\n    function totalSupply() public view returns (uint256 sum) \r\n    {\r\n        for (var i = TokenDealerMapping.iterate_start(tokenDealerMap); TokenDealerMapping.iterate_valid(tokenDealerMap, i); i = TokenDealerMapping.iterate_next(tokenDealerMap, i))\r\n        {\r\n            var (key, value) = TokenDealerMapping.iterate_get(tokenDealerMap, i);\r\n            TokenDealerInterface dealerContract = TokenDealerInterface(value);\r\n            sum += dealerContract.totalSupply();\r\n        }\r\n    }\r\n\r\n    //add all s3d\r\n    function balanceOf(address _customerAddress) view public returns (uint256 sum) \r\n    {\r\n        for (var i = TokenDealerMapping.iterate_start(tokenDealerMap); TokenDealerMapping.iterate_valid(tokenDealerMap, i); i = TokenDealerMapping.iterate_next(tokenDealerMap, i))\r\n        {\r\n            var (key, value) = TokenDealerMapping.iterate_get(tokenDealerMap, i);\r\n            TokenDealerInterface dealerContract = TokenDealerInterface(value);\r\n            sum += dealerContract.balanceOf(_customerAddress);\r\n        }\r\n    }\r\n\r\n    modifier referralBarrier(address _referredBy){\r\n \r\n        // are we still in the vulnerable phase?\r\n        // if so, enact anti early whale protocol \r\n        if( _referredBy != address(0)){\r\n            require(balanceOf(_referredBy) >= stakingRequirement);\r\n            \r\n            // execute\r\n            _;\r\n        } else {\r\n\r\n            _;    \r\n        }\r\n        \r\n    }\r\n\r\n    function buy(string symbol, uint256 _tokenAmount, address _referredBy)\r\n        referralBarrier(_referredBy)\r\n        public\r\n        payable\r\n        returns(uint256)\r\n    {\r\n        TokenDealerInterface dealerContract = TokenDealerInterface(tokenDealerMap.data[symbol].value);\r\n        require(dealerContract != address(0));\r\n        if(StringUtils.compare(symbol, ethSymbol) == 0) {\r\n            dealerContract.buy.value(msg.value)(0, _referredBy);\r\n        } else {\r\n            dealerContract.buy(_tokenAmount, _referredBy);\r\n        }\r\n    }\r\n\r\n}",
  "sourcePath": "D:\\work\\truffle\\s3d\\contracts\\S3DProtocol.sol",
  "compiler": {
    "name": "solc",
    "version": "0.4.24+commit.e67f0147.Emscripten.clang"
  },
  "schemaVersion": "2.0.1",
  "updatedAt": "2018-08-13T11:11:38.911Z"
}