{
  "contractName": "S3DProtocol",
  "abi": [
    {
      "constant": true,
      "inputs": [],
      "name": "name",
      "outputs": [
        {
          "name": "",
          "type": "string"
        }
      ],
      "payable": false,
      "stateMutability": "view",
      "type": "function"
    },
    {
      "constant": true,
      "inputs": [],
      "name": "ethSymbol",
      "outputs": [
        {
          "name": "",
          "type": "string"
        }
      ],
      "payable": false,
      "stateMutability": "view",
      "type": "function"
    },
    {
      "constant": true,
      "inputs": [],
      "name": "decimals",
      "outputs": [
        {
          "name": "",
          "type": "uint8"
        }
      ],
      "payable": false,
      "stateMutability": "view",
      "type": "function"
    },
    {
      "constant": false,
      "inputs": [],
      "name": "claimOwnership",
      "outputs": [],
      "payable": false,
      "stateMutability": "nonpayable",
      "type": "function"
    },
    {
      "constant": true,
      "inputs": [],
      "name": "stakingRequirement",
      "outputs": [
        {
          "name": "",
          "type": "uint256"
        }
      ],
      "payable": false,
      "stateMutability": "view",
      "type": "function"
    },
    {
      "constant": false,
      "inputs": [],
      "name": "renounceOwnership",
      "outputs": [],
      "payable": false,
      "stateMutability": "nonpayable",
      "type": "function"
    },
    {
      "constant": true,
      "inputs": [],
      "name": "owner",
      "outputs": [
        {
          "name": "",
          "type": "address"
        }
      ],
      "payable": false,
      "stateMutability": "view",
      "type": "function"
    },
    {
      "constant": true,
      "inputs": [],
      "name": "symbol",
      "outputs": [
        {
          "name": "",
          "type": "string"
        }
      ],
      "payable": false,
      "stateMutability": "view",
      "type": "function"
    },
    {
      "constant": true,
      "inputs": [],
      "name": "pendingOwner",
      "outputs": [
        {
          "name": "",
          "type": "address"
        }
      ],
      "payable": false,
      "stateMutability": "view",
      "type": "function"
    },
    {
      "constant": false,
      "inputs": [
        {
          "name": "newOwner",
          "type": "address"
        }
      ],
      "name": "transferOwnership",
      "outputs": [],
      "payable": false,
      "stateMutability": "nonpayable",
      "type": "function"
    },
    {
      "constant": true,
      "inputs": [],
      "name": "arbitrageRequirement",
      "outputs": [
        {
          "name": "",
          "type": "uint256"
        }
      ],
      "payable": false,
      "stateMutability": "view",
      "type": "function"
    },
    {
      "anonymous": false,
      "inputs": [
        {
          "indexed": true,
          "name": "previousOwner",
          "type": "address"
        }
      ],
      "name": "OwnershipRenounced",
      "type": "event"
    },
    {
      "anonymous": false,
      "inputs": [
        {
          "indexed": true,
          "name": "previousOwner",
          "type": "address"
        },
        {
          "indexed": true,
          "name": "newOwner",
          "type": "address"
        }
      ],
      "name": "OwnershipTransferred",
      "type": "event"
    },
    {
      "constant": false,
      "inputs": [
        {
          "name": "symbol",
          "type": "string"
        },
        {
          "name": "dealerAddress",
          "type": "address"
        }
      ],
      "name": "addDealer",
      "outputs": [
        {
          "name": "size",
          "type": "uint256"
        }
      ],
      "payable": false,
      "stateMutability": "nonpayable",
      "type": "function"
    },
    {
      "constant": true,
      "inputs": [
        {
          "name": "symbol",
          "type": "string"
        }
      ],
      "name": "getDealer",
      "outputs": [
        {
          "name": "",
          "type": "address"
        }
      ],
      "payable": false,
      "stateMutability": "view",
      "type": "function"
    },
    {
      "constant": false,
      "inputs": [
        {
          "name": "_amountOfTokens",
          "type": "uint256"
        }
      ],
      "name": "setStakingRequirement",
      "outputs": [],
      "payable": false,
      "stateMutability": "nonpayable",
      "type": "function"
    },
    {
      "constant": false,
      "inputs": [
        {
          "name": "_amountOfTokens",
          "type": "uint256"
        }
      ],
      "name": "setArbitrageRequirement",
      "outputs": [],
      "payable": false,
      "stateMutability": "nonpayable",
      "type": "function"
    },
    {
      "constant": true,
      "inputs": [
        {
          "name": "_customerAddress",
          "type": "address"
        }
      ],
      "name": "totalBalanceOf",
      "outputs": [
        {
          "name": "sum",
          "type": "uint256"
        }
      ],
      "payable": false,
      "stateMutability": "view",
      "type": "function"
    },
    {
      "constant": true,
      "inputs": [
        {
          "name": "symbol",
          "type": "string"
        },
        {
          "name": "_customerAddress",
          "type": "address"
        }
      ],
      "name": "balanceOf",
      "outputs": [
        {
          "name": "",
          "type": "uint256"
        }
      ],
      "payable": false,
      "stateMutability": "view",
      "type": "function"
    },
    {
      "constant": true,
      "inputs": [
        {
          "name": "_customerAddress",
          "type": "address"
        }
      ],
      "name": "balanceOf",
      "outputs": [
        {
          "name": "sum",
          "type": "uint256"
        }
      ],
      "payable": false,
      "stateMutability": "view",
      "type": "function"
    },
    {
      "constant": false,
      "inputs": [
        {
          "name": "symbol",
          "type": "string"
        },
        {
          "name": "_tokenAmount",
          "type": "uint256"
        },
        {
          "name": "_referredBy",
          "type": "address"
        }
      ],
      "name": "buy",
      "outputs": [
        {
          "name": "",
          "type": "uint256"
        }
      ],
      "payable": true,
      "stateMutability": "payable",
      "type": "function"
    },
    {
      "constant": false,
      "inputs": [
        {
          "name": "symbol",
          "type": "string"
        },
        {
          "name": "buyAmount",
          "type": "uint256"
        }
      ],
      "name": "reinvest",
      "outputs": [],
      "payable": false,
      "stateMutability": "nonpayable",
      "type": "function"
    },
    {
      "constant": false,
      "inputs": [
        {
          "name": "symbol",
          "type": "string"
        }
      ],
      "name": "exit",
      "outputs": [],
      "payable": false,
      "stateMutability": "nonpayable",
      "type": "function"
    },
    {
      "constant": false,
      "inputs": [],
      "name": "withdrawAll",
      "outputs": [
        {
          "name": "sum",
          "type": "uint256"
        }
      ],
      "payable": false,
      "stateMutability": "nonpayable",
      "type": "function"
    },
    {
      "constant": false,
      "inputs": [
        {
          "name": "symbol",
          "type": "string"
        },
        {
          "name": "withdrawAmount",
          "type": "uint256"
        }
      ],
      "name": "withdraw",
      "outputs": [],
      "payable": false,
      "stateMutability": "nonpayable",
      "type": "function"
    },
    {
      "constant": false,
      "inputs": [
        {
          "name": "symbol",
          "type": "string"
        },
        {
          "name": "_amountOfTokens",
          "type": "uint256"
        }
      ],
      "name": "sell",
      "outputs": [],
      "payable": false,
      "stateMutability": "nonpayable",
      "type": "function"
    },
    {
      "constant": true,
      "inputs": [
        {
          "name": "symbol",
          "type": "string"
        }
      ],
      "name": "totalBalance",
      "outputs": [
        {
          "name": "",
          "type": "uint256"
        }
      ],
      "payable": false,
      "stateMutability": "view",
      "type": "function"
    },
    {
      "constant": true,
      "inputs": [],
      "name": "totalSupply",
      "outputs": [
        {
          "name": "sum",
          "type": "uint256"
        }
      ],
      "payable": false,
      "stateMutability": "view",
      "type": "function"
    },
    {
      "constant": true,
      "inputs": [
        {
          "name": "symbol",
          "type": "string"
        }
      ],
      "name": "totalSupply",
      "outputs": [
        {
          "name": "sum",
          "type": "uint256"
        }
      ],
      "payable": false,
      "stateMutability": "view",
      "type": "function"
    },
    {
      "constant": true,
      "inputs": [
        {
          "name": "symbol",
          "type": "string"
        },
        {
          "name": "_includeReferralBonus",
          "type": "bool"
        }
      ],
      "name": "myDividends",
      "outputs": [
        {
          "name": "",
          "type": "uint256"
        }
      ],
      "payable": false,
      "stateMutability": "view",
      "type": "function"
    },
    {
      "constant": true,
      "inputs": [
        {
          "name": "symbol",
          "type": "string"
        },
        {
          "name": "_customerAddress",
          "type": "address"
        }
      ],
      "name": "dividendsOf",
      "outputs": [
        {
          "name": "",
          "type": "uint256"
        }
      ],
      "payable": false,
      "stateMutability": "view",
      "type": "function"
    },
    {
      "constant": true,
      "inputs": [
        {
          "name": "symbol",
          "type": "string"
        },
        {
          "name": "_customerAddress",
          "type": "address"
        }
      ],
      "name": "referralBalanceOf",
      "outputs": [
        {
          "name": "",
          "type": "uint256"
        }
      ],
      "payable": false,
      "stateMutability": "view",
      "type": "function"
    },
    {
      "constant": true,
      "inputs": [
        {
          "name": "symbol",
          "type": "string"
        }
      ],
      "name": "sellPrice",
      "outputs": [
        {
          "name": "",
          "type": "uint256"
        }
      ],
      "payable": false,
      "stateMutability": "view",
      "type": "function"
    },
    {
      "constant": true,
      "inputs": [
        {
          "name": "symbol",
          "type": "string"
        }
      ],
      "name": "buyPrice",
      "outputs": [
        {
          "name": "",
          "type": "uint256"
        }
      ],
      "payable": false,
      "stateMutability": "view",
      "type": "function"
    },
    {
      "constant": true,
      "inputs": [
        {
          "name": "symbol",
          "type": "string"
        },
        {
          "name": "_ethereumToSpend",
          "type": "uint256"
        }
      ],
      "name": "calculateTokensReceived",
      "outputs": [
        {
          "name": "",
          "type": "uint256"
        }
      ],
      "payable": false,
      "stateMutability": "view",
      "type": "function"
    },
    {
      "constant": true,
      "inputs": [
        {
          "name": "symbol",
          "type": "string"
        },
        {
          "name": "_tokensToBuy",
          "type": "uint256"
        }
      ],
      "name": "calculateBuyTokenSpend",
      "outputs": [
        {
          "name": "",
          "type": "uint256"
        }
      ],
      "payable": false,
      "stateMutability": "view",
      "type": "function"
    },
    {
      "constant": true,
      "inputs": [
        {
          "name": "symbol",
          "type": "string"
        },
        {
          "name": "_tokensToSell",
          "type": "uint256"
        }
      ],
      "name": "calculateBuyTokenReceived",
      "outputs": [
        {
          "name": "",
          "type": "uint256"
        }
      ],
      "payable": false,
      "stateMutability": "view",
      "type": "function"
    },
    {
      "constant": false,
      "inputs": [
        {
          "name": "fromSymbol",
          "type": "string"
        },
        {
          "name": "sellSymbol",
          "type": "string"
        },
        {
          "name": "_amountOfTokens",
          "type": "uint256"
        }
      ],
      "name": "arbitrageTokens",
      "outputs": [],
      "payable": false,
      "stateMutability": "nonpayable",
      "type": "function"
    },
    {
      "constant": false,
      "inputs": [
        {
          "name": "_to",
          "type": "address"
        },
        {
          "name": "_value",
          "type": "uint256"
        }
      ],
      "name": "transfer",
      "outputs": [
        {
          "name": "success",
          "type": "bool"
        }
      ],
      "payable": false,
      "stateMutability": "nonpayable",
      "type": "function"
    }
  ],
  "bytecode": "0x6080604052681b1ae4d6e2ef500000600555683635c9adc5dea00000600655336000806101000a81548173ffffffffffffffffffffffffffffffffffffffff021916908373ffffffffffffffffffffffffffffffffffffffff160217905550614a658061006d6000396000f3006080604052600436106101cd576000357c0100000000000000000000000000000000000000000000000000000000900463ffffffff16806304031852146101d257806306fdde031461026f57806318160ddd146102ff5780632c0f7f4f1461032a57806330b39a62146103ba578063313ce5671461042d57806333347aa81461045e578063365366fb146104e5578063472c16a51461057f5780634b0ee02a146106385780634e71e0c81461068f57806356d399e8146106a657806370a08231146106d1578063715018a61461072857806377fe05001461073f5780638328b610146107c657806384d01f69146107f3578063853828b6146108705780638da5cb5b1461089b57806395d89b41146108f25780639d64dc8e146109825780639f65632114610a0b578063a0dbb47014610a7e578063a9059cbb14610b27578063b609e72014610b8c578063b70aa4f914610bff578063c415db1314610c9c578063c7a2136914610d19578063d539c0f814610db6578063d89c1a0014610e33578063e30c397814610eb0578063e4ddcbc814610f07578063e7fb538814610f34578063e960303314610f9d578063f2fde38b1461103a578063f585207c1461107d578063fb103fbb14611104575b600080fd5b3480156101de57600080fd5b50610259600480360381019080803590602001908201803590602001908080601f0160208091040260200160405190810160405280939291908181526020018383808284378201915050505050509192919290803573ffffffffffffffffffffffffffffffffffffffff16906020019092919050505061112f565b6040518082815260200191505060405180910390f35b34801561027b57600080fd5b506102846112e1565b6040518080602001828103825283818151815260200191508051906020019080838360005b838110156102c45780820151818401526020810190506102a9565b50505050905090810190601f1680156102f15780820380516001836020036101000a031916815260200191505b509250505060405180910390f35b34801561030b57600080fd5b5061031461131a565b6040518082815260200191505060405180910390f35b34801561033657600080fd5b5061033f611701565b6040518080602001828103825283818151815260200191508051906020019080838360005b8381101561037f578082015181840152602081019050610364565b50505050905090810190601f1680156103ac5780820380516001836020036101000a031916815260200191505b509250505060405180910390f35b3480156103c657600080fd5b5061042b600480360381019080803590602001908201803590602001908080601f01602080910402602001604051908101604052809392919081815260200183838082843782019150505050505091929192908035906020019092919050505061173a565b005b34801561043957600080fd5b506104426118cc565b604051808260ff1660ff16815260200191505060405180910390f35b34801561046a57600080fd5b506104cf600480360381019080803590602001908201803590602001908080601f0160208091040260200160405190810160405280939291908181526020018383808284378201915050505050509192919290803590602001909291905050506118d1565b6040518082815260200191505060405180910390f35b610569600480360381019080803590602001908201803590602001908080601f016020809104026020016040519081016040528093929190818152602001838380828437820191505050505050919291929080359060200190929190803573ffffffffffffffffffffffffffffffffffffffff169060200190929190505050611a57565b6040518082815260200191505060405180910390f35b34801561058b57600080fd5b50610636600480360381019080803590602001908201803590602001908080601f0160208091040260200160405190810160405280939291908181526020018383808284378201915050505050509192919290803590602001908201803590602001908080601f016020809104026020016040519081016040528093929190818152602001838380828437820191505050505050919291929080359060200190929190505050611f61565b005b34801561064457600080fd5b50610679600480360381019080803573ffffffffffffffffffffffffffffffffffffffff1690602001909291905050506122d0565b6040518082815260200191505060405180910390f35b34801561069b57600080fd5b506106a46126ec565b005b3480156106b257600080fd5b506106bb61288b565b6040518082815260200191505060405180910390f35b3480156106dd57600080fd5b50610712600480360381019080803573ffffffffffffffffffffffffffffffffffffffff169060200190929190505050612891565b6040518082815260200191505060405180910390f35b34801561073457600080fd5b5061073d612cad565b005b34801561074b57600080fd5b506107b0600480360381019080803590602001908201803590602001908080601f016020809104026020016040519081016040528093929190818152602001838380828437820191505050505050919291929080359060200190929190505050612daf565b6040518082815260200191505060405180910390f35b3480156107d257600080fd5b506107f160048036038101908080359060200190929190505050612f35565b005b3480156107ff57600080fd5b5061085a600480360381019080803590602001908201803590602001908080601f0160208091040260200160405190810160405280939291908181526020018383808284378201915050505050509192919290505050612f9a565b6040518082815260200191505060405180910390f35b34801561087c57600080fd5b50610885613114565b6040518082815260200191505060405180910390f35b3480156108a757600080fd5b506108b0613693565b604051808273ffffffffffffffffffffffffffffffffffffffff1673ffffffffffffffffffffffffffffffffffffffff16815260200191505060405180910390f35b3480156108fe57600080fd5b506109076136b8565b6040518080602001828103825283818151815260200191508051906020019080838360005b8381101561094757808201518184015260208101905061092c565b50505050905090810190601f1680156109745780820380516001836020036101000a031916815260200191505b509250505060405180910390f35b34801561098e57600080fd5b506109f5600480360381019080803590602001908201803590602001908080601f01602080910402602001604051908101604052809392919081815260200183838082843782019150505050505091929192908035151590602001909291905050506136f1565b6040518082815260200191505060405180910390f35b348015610a1757600080fd5b50610a7c600480360381019080803590602001908201803590602001908080601f0160208091040260200160405190810160405280939291908181526020018383808284378201915050505050509192919290803590602001909291905050506138af565b005b348015610a8a57600080fd5b50610ae5600480360381019080803590602001908201803590602001908080601f0160208091040260200160405190810160405280939291908181526020018383808284378201915050505050509192919290505050613a41565b604051808273ffffffffffffffffffffffffffffffffffffffff1673ffffffffffffffffffffffffffffffffffffffff16815260200191505060405180910390f35b348015610b3357600080fd5b50610b72600480360381019080803573ffffffffffffffffffffffffffffffffffffffff16906020019092919080359060200190929190505050613adc565b604051808215151515815260200191505060405180910390f35b348015610b9857600080fd5b50610bfd600480360381019080803590602001908201803590602001908080601f016020809104026020016040519081016040528093929190818152602001838380828437820191505050505050919291929080359060200190929190505050613ae4565b005b348015610c0b57600080fd5b50610c86600480360381019080803590602001908201803590602001908080601f0160208091040260200160405190810160405280939291908181526020018383808284378201915050505050509192919290803573ffffffffffffffffffffffffffffffffffffffff169060200190929190505050613c76565b6040518082815260200191505060405180910390f35b348015610ca857600080fd5b50610d03600480360381019080803590602001908201803590602001908080601f0160208091040260200160405190810160405280939291908181526020018383808284378201915050505050509192919290505050613e29565b6040518082815260200191505060405180910390f35b348015610d2557600080fd5b50610da0600480360381019080803590602001908201803590602001908080601f0160208091040260200160405190810160405280939291908181526020018383808284378201915050505050509192919290803573ffffffffffffffffffffffffffffffffffffffff169060200190929190505050613fa3565b6040518082815260200191505060405180910390f35b348015610dc257600080fd5b50610e1d600480360381019080803590602001908201803590602001908080601f0160208091040260200160405190810160405280939291908181526020018383808284378201915050505050509192919290505050614154565b6040518082815260200191505060405180910390f35b348015610e3f57600080fd5b50610e9a600480360381019080803590602001908201803590602001908080601f01602080910402602001604051908101604052809392919081815260200183838082843782019150505050505091929192905050506142ce565b6040518082815260200191505060405180910390f35b348015610ebc57600080fd5b50610ec5614448565b604051808273ffffffffffffffffffffffffffffffffffffffff1673ffffffffffffffffffffffffffffffffffffffff16815260200191505060405180910390f35b348015610f1357600080fd5b50610f326004803603810190808035906020019092919050505061446e565b005b348015610f4057600080fd5b50610f9b600480360381019080803590602001908201803590602001908080601f01602080910402602001604051908101604052809392919081815260200183838082843782019150505050505091929192905050506144d3565b005b348015610fa957600080fd5b50611024600480360381019080803590602001908201803590602001908080601f0160208091040260200160405190810160405280939291908181526020018383808284378201915050505050509192919290803573ffffffffffffffffffffffffffffffffffffffff16906020019092919050505061465c565b6040518082815260200191505060405180910390f35b34801561104657600080fd5b5061107b600480360381019080803573ffffffffffffffffffffffffffffffffffffffff16906020019092919050505061480e565b005b34801561108957600080fd5b506110ee600480360381019080803590602001908201803590602001908080601f0160208091040260200160405190810160405280939291908181526020018383808284378201915050505050509192919290803590602001909291905050506148ad565b6040518082815260200191505060405180910390f35b34801561111057600080fd5b50611119614a33565b6040518082815260200191505060405180910390f35b6000806002600001846040518082805190602001908083835b60208310151561116d5780518252602082019150602081019050602083039250611148565b6001836020036101000a038019825116818451168082178552505050505050905001915050908152602001604051809103902060010160009054906101000a900473ffffffffffffffffffffffffffffffffffffffff169050600073ffffffffffffffffffffffffffffffffffffffff168173ffffffffffffffffffffffffffffffffffffffff161415151561120257600080fd5b8073ffffffffffffffffffffffffffffffffffffffff166370a08231846040518263ffffffff167c0100000000000000000000000000000000000000000000000000000000028152600401808273ffffffffffffffffffffffffffffffffffffffff1673ffffffffffffffffffffffffffffffffffffffff168152602001915050602060405180830381600087803b15801561129d57600080fd5b505af11580156112b1573d6000803e3d6000fd5b505050506040513d60208110156112c757600080fd5b810190808051906020019092919050505091505092915050565b6040805190810160405280600b81526020017f533344207065726665637400000000000000000000000000000000000000000081525081565b60008060606000806000945073__TokenDealerMapping____________________632dc131b260026040518263ffffffff167c01000000000000000000000000000000000000000000000000000000000281526004018082815260200191505060206040518083038186803b15801561139257600080fd5b505af41580156113a6573d6000803e3d6000fd5b505050506040513d60208110156113bc57600080fd5b810190808051906020019092919050505093505b73__TokenDealerMapping____________________634ca101476002866040518363ffffffff167c0100000000000000000000000000000000000000000000000000000000028152600401808381526020018281526020019250505060206040518083038186803b15801561144457600080fd5b505af4158015611458573d6000803e3d6000fd5b505050506040513d602081101561146e57600080fd5b8101908080519060200190929190505050156116fa5773__TokenDealerMapping____________________63c6ae82086002866040518363ffffffff167c0100000000000000000000000000000000000000000000000000000000028152600401808381526020018281526020019250505060006040518083038186803b1580156114f857600080fd5b505af415801561150c573d6000803e3d6000fd5b505050506040513d6000823e3d601f19601f82011682018060405250604081101561153657600080fd5b81019080805164010000000081111561154e57600080fd5b8281019050602081018481111561156457600080fd5b815185600182028301116401000000008211171561158157600080fd5b50509291906020018051906020019092919050505080935081945050508190508073ffffffffffffffffffffffffffffffffffffffff166318160ddd6040518163ffffffff167c0100000000000000000000000000000000000000000000000000000000028152600401602060405180830381600087803b15801561160557600080fd5b505af1158015611619573d6000803e3d6000fd5b505050506040513d602081101561162f57600080fd5b81019080805190602001909291905050508501945073__TokenDealerMapping____________________634a84c3996002866040518363ffffffff167c0100000000000000000000000000000000000000000000000000000000028152600401808381526020018281526020019250505060206040518083038186803b1580156116b857600080fd5b505af41580156116cc573d6000803e3d6000fd5b505050506040513d60208110156116e257600080fd5b810190808051906020019092919050505093506113d0565b5050505090565b6040805190810160405280600381526020017f657468000000000000000000000000000000000000000000000000000000000081525081565b60006002600001836040518082805190602001908083835b6020831015156117775780518252602082019150602081019050602083039250611752565b6001836020036101000a038019825116818451168082178552505050505050905001915050908152602001604051809103902060010160009054906101000a900473ffffffffffffffffffffffffffffffffffffffff169050600073ffffffffffffffffffffffffffffffffffffffff168173ffffffffffffffffffffffffffffffffffffffff161415151561180c57600080fd5b8073ffffffffffffffffffffffffffffffffffffffff1663f3fef3a333846040518363ffffffff167c0100000000000000000000000000000000000000000000000000000000028152600401808373ffffffffffffffffffffffffffffffffffffffff1673ffffffffffffffffffffffffffffffffffffffff16815260200182815260200192505050600060405180830381600087803b1580156118af57600080fd5b505af11580156118c3573d6000803e3d6000fd5b50505050505050565b601281565b6000806002600001846040518082805190602001908083835b60208310151561190f57805182526020820191506020810190506020830392506118ea565b6001836020036101000a038019825116818451168082178552505050505050905001915050908152602001604051809103902060010160009054906101000a900473ffffffffffffffffffffffffffffffffffffffff169050600073ffffffffffffffffffffffffffffffffffffffff168173ffffffffffffffffffffffffffffffffffffffff16141515156119a457600080fd5b8073ffffffffffffffffffffffffffffffffffffffff166310d0ffdd846040518263ffffffff167c010000000000000000000000000000000000000000000000000000000002815260040180828152602001915050602060405180830381600087803b158015611a1357600080fd5b505af1158015611a27573d6000803e3d6000fd5b505050506040513d6020811015611a3d57600080fd5b810190808051906020019092919050505091505092915050565b6000806002600001856040518082805190602001908083835b602083101515611a955780518252602082019150602081019050602083039250611a70565b6001836020036101000a038019825116818451168082178552505050505050905001915050908152602001604051809103902060010160009054906101000a900473ffffffffffffffffffffffffffffffffffffffff169050600073ffffffffffffffffffffffffffffffffffffffff168173ffffffffffffffffffffffffffffffffffffffff1614151515611b2a57600080fd5b3373ffffffffffffffffffffffffffffffffffffffff168373ffffffffffffffffffffffffffffffffffffffff161480611b6d5750600554611b6b846122d0565b105b15611b7757600092505b600073__StringUtils___________________________633a96fdd7876040805190810160405280600381526020017f65746800000000000000000000000000000000000000000000000000000000008152506040518363ffffffff167c0100000000000000000000000000000000000000000000000000000000028152600401808060200180602001838103835285818151815260200191508051906020019080838360005b83811015611c39578082015181840152602081019050611c1e565b50505050905090810190601f168015611c665780820380516001836020036101000a031916815260200191505b50838103825284818151815260200191508051906020019080838360005b83811015611c9f578082015181840152602081019050611c84565b50505050905090810190601f168015611ccc5780820380516001836020036101000a031916815260200191505b5094505050505060206040518083038186803b158015611ceb57600080fd5b505af4158015611cff573d6000803e3d6000fd5b505050506040513d6020811015611d1557600080fd5b81019080805190602001909291905050501415611e45578073ffffffffffffffffffffffffffffffffffffffff1663db61c76e343334876040518563ffffffff167c0100000000000000000000000000000000000000000000000000000000028152600401808473ffffffffffffffffffffffffffffffffffffffff1673ffffffffffffffffffffffffffffffffffffffff1681526020018381526020018273ffffffffffffffffffffffffffffffffffffffff1673ffffffffffffffffffffffffffffffffffffffff16815260200193505050506020604051808303818588803b158015611e0357600080fd5b505af1158015611e17573d6000803e3d6000fd5b50505050506040513d6020811015611e2e57600080fd5b810190808051906020019092919050505050611f59565b8073ffffffffffffffffffffffffffffffffffffffff1663db61c76e3386866040518463ffffffff167c0100000000000000000000000000000000000000000000000000000000028152600401808473ffffffffffffffffffffffffffffffffffffffff1673ffffffffffffffffffffffffffffffffffffffff1681526020018381526020018273ffffffffffffffffffffffffffffffffffffffff1673ffffffffffffffffffffffffffffffffffffffff1681526020019350505050602060405180830381600087803b158015611f1c57600080fd5b505af1158015611f30573d6000803e3d6000fd5b505050506040513d6020811015611f4657600080fd5b8101908080519060200190929190505050505b509392505050565b6000806000600654611f72336122d0565b10151515611f7f57600080fd5b6002600001866040518082805190602001908083835b602083101515611fba5780518252602082019150602081019050602083039250611f95565b6001836020036101000a038019825116818451168082178552505050505050905001915050908152602001604051809103902060010160009054906101000a900473ffffffffffffffffffffffffffffffffffffffff169250600073ffffffffffffffffffffffffffffffffffffffff168373ffffffffffffffffffffffffffffffffffffffff161415151561204f57600080fd5b8273ffffffffffffffffffffffffffffffffffffffff1663d3d6dce733866040518363ffffffff167c0100000000000000000000000000000000000000000000000000000000028152600401808373ffffffffffffffffffffffffffffffffffffffff1673ffffffffffffffffffffffffffffffffffffffff16815260200182815260200192505050602060405180830381600087803b1580156120f257600080fd5b505af1158015612106573d6000803e3d6000fd5b505050506040513d602081101561211c57600080fd5b81019080805190602001909291905050509150838214151561213d57600080fd5b6002600001856040518082805190602001908083835b6020831015156121785780518252602082019150602081019050602083039250612153565b6001836020036101000a038019825116818451168082178552505050505050905001915050908152602001604051809103902060010160009054906101000a900473ffffffffffffffffffffffffffffffffffffffff169050600073ffffffffffffffffffffffffffffffffffffffff168173ffffffffffffffffffffffffffffffffffffffff161415151561220d57600080fd5b8073ffffffffffffffffffffffffffffffffffffffff16633be8eb7e33866040518363ffffffff167c0100000000000000000000000000000000000000000000000000000000028152600401808373ffffffffffffffffffffffffffffffffffffffff1673ffffffffffffffffffffffffffffffffffffffff16815260200182815260200192505050600060405180830381600087803b1580156122b057600080fd5b505af11580156122c4573d6000803e3d6000fd5b50505050505050505050565b600080606060008073__TokenDealerMapping____________________632dc131b260026040518263ffffffff167c01000000000000000000000000000000000000000000000000000000000281526004018082815260200191505060206040518083038186803b15801561234457600080fd5b505af4158015612358573d6000803e3d6000fd5b505050506040513d602081101561236e57600080fd5b810190808051906020019092919050505093505b73__TokenDealerMapping____________________634ca101476002866040518363ffffffff167c0100000000000000000000000000000000000000000000000000000000028152600401808381526020018281526020019250505060206040518083038186803b1580156123f657600080fd5b505af415801561240a573d6000803e3d6000fd5b505050506040513d602081101561242057600080fd5b8101908080519060200190929190505050156126e35773__TokenDealerMapping____________________63c6ae82086002866040518363ffffffff167c0100000000000000000000000000000000000000000000000000000000028152600401808381526020018281526020019250505060006040518083038186803b1580156124aa57600080fd5b505af41580156124be573d6000803e3d6000fd5b505050506040513d6000823e3d601f19601f8201168201806040525060408110156124e857600080fd5b81019080805164010000000081111561250057600080fd5b8281019050602081018481111561251657600080fd5b815185600182028301116401000000008211171561253357600080fd5b50509291906020018051906020019092919050505080935081945050508190508073ffffffffffffffffffffffffffffffffffffffff166370a08231876040518263ffffffff167c0100000000000000000000000000000000000000000000000000000000028152600401808273ffffffffffffffffffffffffffffffffffffffff1673ffffffffffffffffffffffffffffffffffffffff168152602001915050602060405180830381600087803b1580156125ee57600080fd5b505af1158015612602573d6000803e3d6000fd5b505050506040513d602081101561261857600080fd5b81019080805190602001909291905050508501945073__TokenDealerMapping____________________634a84c3996002866040518363ffffffff167c0100000000000000000000000000000000000000000000000000000000028152600401808381526020018281526020019250505060206040518083038186803b1580156126a157600080fd5b505af41580156126b5573d6000803e3d6000fd5b505050506040513d60208110156126cb57600080fd5b81019080805190602001909291905050509350612382565b50505050919050565b600160009054906101000a900473ffffffffffffffffffffffffffffffffffffffff1673ffffffffffffffffffffffffffffffffffffffff163373ffffffffffffffffffffffffffffffffffffffff1614151561274857600080fd5b600160009054906101000a900473ffffffffffffffffffffffffffffffffffffffff1673ffffffffffffffffffffffffffffffffffffffff166000809054906101000a900473ffffffffffffffffffffffffffffffffffffffff1673ffffffffffffffffffffffffffffffffffffffff167f8be0079c531659141344cd1fd0a4f28419497f9722a3daafe3b4186f6b6457e060405160405180910390a3600160009054906101000a900473ffffffffffffffffffffffffffffffffffffffff166000806101000a81548173ffffffffffffffffffffffffffffffffffffffff021916908373ffffffffffffffffffffffffffffffffffffffff1602179055506000600160006101000a81548173ffffffffffffffffffffffffffffffffffffffff021916908373ffffffffffffffffffffffffffffffffffffffff160217905550565b60055481565b600080606060008073__TokenDealerMapping____________________632dc131b260026040518263ffffffff167c01000000000000000000000000000000000000000000000000000000000281526004018082815260200191505060206040518083038186803b15801561290557600080fd5b505af4158015612919573d6000803e3d6000fd5b505050506040513d602081101561292f57600080fd5b810190808051906020019092919050505093505b73__TokenDealerMapping____________________634ca101476002866040518363ffffffff167c0100000000000000000000000000000000000000000000000000000000028152600401808381526020018281526020019250505060206040518083038186803b1580156129b757600080fd5b505af41580156129cb573d6000803e3d6000fd5b505050506040513d60208110156129e157600080fd5b810190808051906020019092919050505015612ca45773__TokenDealerMapping____________________63c6ae82086002866040518363ffffffff167c0100000000000000000000000000000000000000000000000000000000028152600401808381526020018281526020019250505060006040518083038186803b158015612a6b57600080fd5b505af4158015612a7f573d6000803e3d6000fd5b505050506040513d6000823e3d601f19601f820116820180604052506040811015612aa957600080fd5b810190808051640100000000811115612ac157600080fd5b82810190506020810184811115612ad757600080fd5b8151856001820283011164010000000082111715612af457600080fd5b50509291906020018051906020019092919050505080935081945050508190508073ffffffffffffffffffffffffffffffffffffffff166370a08231876040518263ffffffff167c0100000000000000000000000000000000000000000000000000000000028152600401808273ffffffffffffffffffffffffffffffffffffffff1673ffffffffffffffffffffffffffffffffffffffff168152602001915050602060405180830381600087803b158015612baf57600080fd5b505af1158015612bc3573d6000803e3d6000fd5b505050506040513d6020811015612bd957600080fd5b81019080805190602001909291905050508501945073__TokenDealerMapping____________________634a84c3996002866040518363ffffffff167c0100000000000000000000000000000000000000000000000000000000028152600401808381526020018281526020019250505060206040518083038186803b158015612c6257600080fd5b505af4158015612c76573d6000803e3d6000fd5b505050506040513d6020811015612c8c57600080fd5b81019080805190602001909291905050509350612943565b50505050919050565b6000809054906101000a900473ffffffffffffffffffffffffffffffffffffffff1673ffffffffffffffffffffffffffffffffffffffff163373ffffffffffffffffffffffffffffffffffffffff16141515612d0857600080fd5b6000809054906101000a900473ffffffffffffffffffffffffffffffffffffffff1673ffffffffffffffffffffffffffffffffffffffff167ff8df31144d9c2f0f6b59d69b8b98abd5459d07f2742c4df920b25aae33c6482060405160405180910390a260008060006101000a81548173ffffffffffffffffffffffffffffffffffffffff021916908373ffffffffffffffffffffffffffffffffffffffff160217905550565b6000806002600001846040518082805190602001908083835b602083101515612ded5780518252602082019150602081019050602083039250612dc8565b6001836020036101000a038019825116818451168082178552505050505050905001915050908152602001604051809103902060010160009054906101000a900473ffffffffffffffffffffffffffffffffffffffff169050600073ffffffffffffffffffffffffffffffffffffffff168173ffffffffffffffffffffffffffffffffffffffff1614151515612e8257600080fd5b8073ffffffffffffffffffffffffffffffffffffffff1663150c95a8846040518263ffffffff167c010000000000000000000000000000000000000000000000000000000002815260040180828152602001915050602060405180830381600087803b158015612ef157600080fd5b505af1158015612f05573d6000803e3d6000fd5b505050506040513d6020811015612f1b57600080fd5b810190808051906020019092919050505091505092915050565b6000809054906101000a900473ffffffffffffffffffffffffffffffffffffffff1673ffffffffffffffffffffffffffffffffffffffff163373ffffffffffffffffffffffffffffffffffffffff16141515612f9057600080fd5b8060058190555050565b6000806002600001836040518082805190602001908083835b602083101515612fd85780518252602082019150602081019050602083039250612fb3565b6001836020036101000a038019825116818451168082178552505050505050905001915050908152602001604051809103902060010160009054906101000a900473ffffffffffffffffffffffffffffffffffffffff169050600073ffffffffffffffffffffffffffffffffffffffff168173ffffffffffffffffffffffffffffffffffffffff161415151561306d57600080fd5b8073ffffffffffffffffffffffffffffffffffffffff1663ad7a672f6040518163ffffffff167c0100000000000000000000000000000000000000000000000000000000028152600401602060405180830381600087803b1580156130d157600080fd5b505af11580156130e5573d6000803e3d6000fd5b505050506040513d60208110156130fb57600080fd5b8101908080519060200190929190505050915050919050565b600080606060008073__TokenDealerMapping____________________632dc131b260026040518263ffffffff167c01000000000000000000000000000000000000000000000000000000000281526004018082815260200191505060206040518083038186803b15801561318857600080fd5b505af415801561319c573d6000803e3d6000fd5b505050506040513d60208110156131b257600080fd5b810190808051906020019092919050505093505b73__TokenDealerMapping____________________634ca101476002866040518363ffffffff167c0100000000000000000000000000000000000000000000000000000000028152600401808381526020018281526020019250505060206040518083038186803b15801561323a57600080fd5b505af415801561324e573d6000803e3d6000fd5b505050506040513d602081101561326457600080fd5b81019080805190602001909291905050501561368c5773__TokenDealerMapping____________________63c6ae82086002866040518363ffffffff167c0100000000000000000000000000000000000000000000000000000000028152600401808381526020018281526020019250505060006040518083038186803b1580156132ee57600080fd5b505af4158015613302573d6000803e3d6000fd5b505050506040513d6000823e3d601f19601f82011682018060405250604081101561332c57600080fd5b81019080805164010000000081111561334457600080fd5b8281019050602081018481111561335a57600080fd5b815185600182028301116401000000008211171561337757600080fd5b50509291906020018051906020019092919050505080935081945050508190508073ffffffffffffffffffffffffffffffffffffffff166318160ddd6040518163ffffffff167c0100000000000000000000000000000000000000000000000000000000028152600401602060405180830381600087803b1580156133fb57600080fd5b505af115801561340f573d6000803e3d6000fd5b505050506040513d602081101561342557600080fd5b81019080805190602001909291905050505060008173ffffffffffffffffffffffffffffffffffffffff1663c383abaa3360016040518363ffffffff167c0100000000000000000000000000000000000000000000000000000000028152600401808373ffffffffffffffffffffffffffffffffffffffff1673ffffffffffffffffffffffffffffffffffffffff1681526020018215151515815260200192505050602060405180830381600087803b1580156134e157600080fd5b505af11580156134f5573d6000803e3d6000fd5b505050506040513d602081101561350b57600080fd5b810190808051906020019092919050505011156135d6578073ffffffffffffffffffffffffffffffffffffffff166351cff8d9336040518263ffffffff167c0100000000000000000000000000000000000000000000000000000000028152600401808273ffffffffffffffffffffffffffffffffffffffff1673ffffffffffffffffffffffffffffffffffffffff168152602001915050600060405180830381600087803b1580156135bd57600080fd5b505af11580156135d1573d6000803e3d6000fd5b505050505b73__TokenDealerMapping____________________634a84c3996002866040518363ffffffff167c0100000000000000000000000000000000000000000000000000000000028152600401808381526020018281526020019250505060206040518083038186803b15801561364a57600080fd5b505af415801561365e573d6000803e3d6000fd5b505050506040513d602081101561367457600080fd5b810190808051906020019092919050505093506131c6565b5050505090565b6000809054906101000a900473ffffffffffffffffffffffffffffffffffffffff1681565b6040805190810160405280600381526020017f533344000000000000000000000000000000000000000000000000000000000081525081565b6000806002600001846040518082805190602001908083835b60208310151561372f578051825260208201915060208101905060208303925061370a565b6001836020036101000a038019825116818451168082178552505050505050905001915050908152602001604051809103902060010160009054906101000a900473ffffffffffffffffffffffffffffffffffffffff169050600073ffffffffffffffffffffffffffffffffffffffff168173ffffffffffffffffffffffffffffffffffffffff16141515156137c457600080fd5b8073ffffffffffffffffffffffffffffffffffffffff1663c383abaa33856040518363ffffffff167c0100000000000000000000000000000000000000000000000000000000028152600401808373ffffffffffffffffffffffffffffffffffffffff1673ffffffffffffffffffffffffffffffffffffffff1681526020018215151515815260200192505050602060405180830381600087803b15801561386b57600080fd5b505af115801561387f573d6000803e3d6000fd5b505050506040513d602081101561389557600080fd5b810190808051906020019092919050505091505092915050565b60006002600001836040518082805190602001908083835b6020831015156138ec57805182526020820191506020810190506020830392506138c7565b6001836020036101000a038019825116818451168082178552505050505050905001915050908152602001604051809103902060010160009054906101000a900473ffffffffffffffffffffffffffffffffffffffff169050600073ffffffffffffffffffffffffffffffffffffffff168173ffffffffffffffffffffffffffffffffffffffff161415151561398157600080fd5b8073ffffffffffffffffffffffffffffffffffffffff16636c197ff533846040518363ffffffff167c0100000000000000000000000000000000000000000000000000000000028152600401808373ffffffffffffffffffffffffffffffffffffffff1673ffffffffffffffffffffffffffffffffffffffff16815260200182815260200192505050600060405180830381600087803b158015613a2457600080fd5b505af1158015613a38573d6000803e3d6000fd5b50505050505050565b60006002600001826040518082805190602001908083835b602083101515613a7e5780518252602082019150602081019050602083039250613a59565b6001836020036101000a038019825116818451168082178552505050505050905001915050908152602001604051809103902060010160009054906101000a900473ffffffffffffffffffffffffffffffffffffffff169050919050565b600092915050565b60006002600001836040518082805190602001908083835b602083101515613b215780518252602082019150602081019050602083039250613afc565b6001836020036101000a038019825116818451168082178552505050505050905001915050908152602001604051809103902060010160009054906101000a900473ffffffffffffffffffffffffffffffffffffffff169050600073ffffffffffffffffffffffffffffffffffffffff168173ffffffffffffffffffffffffffffffffffffffff1614151515613bb657600080fd5b8073ffffffffffffffffffffffffffffffffffffffff1663d65a261733846040518363ffffffff167c0100000000000000000000000000000000000000000000000000000000028152600401808373ffffffffffffffffffffffffffffffffffffffff1673ffffffffffffffffffffffffffffffffffffffff16815260200182815260200192505050600060405180830381600087803b158015613c5957600080fd5b505af1158015613c6d573d6000803e3d6000fd5b50505050505050565b60008060009054906101000a900473ffffffffffffffffffffffffffffffffffffffff1673ffffffffffffffffffffffffffffffffffffffff163373ffffffffffffffffffffffffffffffffffffffff16141515613cd357600080fd5b73__TokenDealerMapping____________________63d3a54b0a600285856040518463ffffffff167c010000000000000000000000000000000000000000000000000000000002815260040180848152602001806020018373ffffffffffffffffffffffffffffffffffffffff1673ffffffffffffffffffffffffffffffffffffffff168152602001828103825284818151815260200191508051906020019080838360005b83811015613d94578082015181840152602081019050613d79565b50505050905090810190601f168015613dc15780820380516001836020036101000a031916815260200191505b5094505050505060206040518083038186803b158015613de057600080fd5b505af4158015613df4573d6000803e3d6000fd5b505050506040513d6020811015613e0a57600080fd5b8101908080519060200190929190505050506002800154905092915050565b6000806002600001836040518082805190602001908083835b602083101515613e675780518252602082019150602081019050602083039250613e42565b6001836020036101000a038019825116818451168082178552505050505050905001915050908152602001604051809103902060010160009054906101000a900473ffffffffffffffffffffffffffffffffffffffff169050600073ffffffffffffffffffffffffffffffffffffffff168173ffffffffffffffffffffffffffffffffffffffff1614151515613efc57600080fd5b8073ffffffffffffffffffffffffffffffffffffffff166318160ddd6040518163ffffffff167c0100000000000000000000000000000000000000000000000000000000028152600401602060405180830381600087803b158015613f6057600080fd5b505af1158015613f74573d6000803e3d6000fd5b505050506040513d6020811015613f8a57600080fd5b8101908080519060200190929190505050915050919050565b6000806002600001846040518082805190602001908083835b602083101515613fe15780518252602082019150602081019050602083039250613fbc565b6001836020036101000a038019825116818451168082178552505050505050905001915050908152602001604051809103902060010160009054906101000a900473ffffffffffffffffffffffffffffffffffffffff169050600073ffffffffffffffffffffffffffffffffffffffff168173ffffffffffffffffffffffffffffffffffffffff161415151561407657600080fd5b8073ffffffffffffffffffffffffffffffffffffffff166265318b846040518263ffffffff167c0100000000000000000000000000000000000000000000000000000000028152600401808273ffffffffffffffffffffffffffffffffffffffff1673ffffffffffffffffffffffffffffffffffffffff168152602001915050602060405180830381600087803b15801561411057600080fd5b505af1158015614124573d6000803e3d6000fd5b505050506040513d602081101561413a57600080fd5b810190808051906020019092919050505091505092915050565b6000806002600001836040518082805190602001908083835b602083101515614192578051825260208201915060208101905060208303925061416d565b6001836020036101000a038019825116818451168082178552505050505050905001915050908152602001604051809103902060010160009054906101000a900473ffffffffffffffffffffffffffffffffffffffff169050600073ffffffffffffffffffffffffffffffffffffffff168173ffffffffffffffffffffffffffffffffffffffff161415151561422757600080fd5b8073ffffffffffffffffffffffffffffffffffffffff16638620410b6040518163ffffffff167c0100000000000000000000000000000000000000000000000000000000028152600401602060405180830381600087803b15801561428b57600080fd5b505af115801561429f573d6000803e3d6000fd5b505050506040513d60208110156142b557600080fd5b8101908080519060200190929190505050915050919050565b6000806002600001836040518082805190602001908083835b60208310151561430c57805182526020820191506020810190506020830392506142e7565b6001836020036101000a038019825116818451168082178552505050505050905001915050908152602001604051809103902060010160009054906101000a900473ffffffffffffffffffffffffffffffffffffffff169050600073ffffffffffffffffffffffffffffffffffffffff168173ffffffffffffffffffffffffffffffffffffffff16141515156143a157600080fd5b8073ffffffffffffffffffffffffffffffffffffffff16634b7503346040518163ffffffff167c0100000000000000000000000000000000000000000000000000000000028152600401602060405180830381600087803b15801561440557600080fd5b505af1158015614419573d6000803e3d6000fd5b505050506040513d602081101561442f57600080fd5b8101908080519060200190929190505050915050919050565b600160009054906101000a900473ffffffffffffffffffffffffffffffffffffffff1681565b6000809054906101000a900473ffffffffffffffffffffffffffffffffffffffff1673ffffffffffffffffffffffffffffffffffffffff163373ffffffffffffffffffffffffffffffffffffffff161415156144c957600080fd5b8060068190555050565b60006002600001826040518082805190602001908083835b60208310151561451057805182526020820191506020810190506020830392506144eb565b6001836020036101000a038019825116818451168082178552505050505050905001915050908152602001604051809103902060010160009054906101000a900473ffffffffffffffffffffffffffffffffffffffff169050600073ffffffffffffffffffffffffffffffffffffffff168173ffffffffffffffffffffffffffffffffffffffff16141515156145a557600080fd5b8073ffffffffffffffffffffffffffffffffffffffff1663b42652e9336040518263ffffffff167c0100000000000000000000000000000000000000000000000000000000028152600401808273ffffffffffffffffffffffffffffffffffffffff1673ffffffffffffffffffffffffffffffffffffffff168152602001915050600060405180830381600087803b15801561464057600080fd5b505af1158015614654573d6000803e3d6000fd5b505050505050565b6000806002600001846040518082805190602001908083835b60208310151561469a5780518252602082019150602081019050602083039250614675565b6001836020036101000a038019825116818451168082178552505050505050905001915050908152602001604051809103902060010160009054906101000a900473ffffffffffffffffffffffffffffffffffffffff169050600073ffffffffffffffffffffffffffffffffffffffff168173ffffffffffffffffffffffffffffffffffffffff161415151561472f57600080fd5b8073ffffffffffffffffffffffffffffffffffffffff166346534649846040518263ffffffff167c0100000000000000000000000000000000000000000000000000000000028152600401808273ffffffffffffffffffffffffffffffffffffffff1673ffffffffffffffffffffffffffffffffffffffff168152602001915050602060405180830381600087803b1580156147ca57600080fd5b505af11580156147de573d6000803e3d6000fd5b505050506040513d60208110156147f457600080fd5b810190808051906020019092919050505091505092915050565b6000809054906101000a900473ffffffffffffffffffffffffffffffffffffffff1673ffffffffffffffffffffffffffffffffffffffff163373ffffffffffffffffffffffffffffffffffffffff1614151561486957600080fd5b80600160006101000a81548173ffffffffffffffffffffffffffffffffffffffff021916908373ffffffffffffffffffffffffffffffffffffffff16021790555050565b6000806002600001846040518082805190602001908083835b6020831015156148eb57805182526020820191506020810190506020830392506148c6565b6001836020036101000a038019825116818451168082178552505050505050905001915050908152602001604051809103902060010160009054906101000a900473ffffffffffffffffffffffffffffffffffffffff169050600073ffffffffffffffffffffffffffffffffffffffff168173ffffffffffffffffffffffffffffffffffffffff161415151561498057600080fd5b8073ffffffffffffffffffffffffffffffffffffffff1663b73f34b4846040518263ffffffff167c010000000000000000000000000000000000000000000000000000000002815260040180828152602001915050602060405180830381600087803b1580156149ef57600080fd5b505af1158015614a03573d6000803e3d6000fd5b505050506040513d6020811015614a1957600080fd5b810190808051906020019092919050505091505092915050565b600654815600a165627a7a72305820458b4212c25a04767615bc0d24be25654c8538a2d99eb42dbff5b119ea5081a20029",
  "source": "pragma solidity ^0.4.24;\r\n\r\n\r\nimport \"zeppelin-solidity/contracts/ownership/Claimable.sol\";\r\nimport \"../contracts/interface/TokenDealerInterface.sol\";\r\nimport \"../contracts/library/TokenDealerMapping.sol\";\r\nimport \"../contracts/library/StringUtils.sol\";\r\n\r\n\r\ncontract S3DProtocol is Claimable{\r\n\r\n    TokenDealerMapping.itmap tokenDealerMap;\r\n\r\n    // proof of stake (defaults at 100 tokens)\r\n    uint256 public stakingRequirement = 500e18;\r\n\r\n    uint256 public arbitrageRequirement = 1000e18;\r\n\r\n    string constant public ethSymbol = \"eth\";\r\n\r\n    uint8 constant public decimals = 18;\r\n    string constant public name = \"S3D perfect\";\r\n    string constant public symbol = \"S3D\";\r\n\r\n    function addDealer(string symbol, address dealerAddress) public onlyOwner returns (uint size) {\r\n        TokenDealerMapping.insert(tokenDealerMap, symbol, dealerAddress);\r\n        return tokenDealerMap.size;\r\n    }\r\n\r\n    function getDealer(string symbol) public view returns (address) {\r\n        return tokenDealerMap.data[symbol].value;\r\n    }\r\n\r\n    function setStakingRequirement(uint256 _amountOfTokens) onlyOwner() public {\r\n        stakingRequirement = _amountOfTokens;\r\n    }\r\n\r\n    function setArbitrageRequirement(uint256 _amountOfTokens) onlyOwner() public {\r\n        arbitrageRequirement = _amountOfTokens;\r\n    }\r\n    \r\n    //add all s3d\r\n    function totalBalanceOf(address _customerAddress) public view returns (uint256 sum) {\r\n        for (uint i = TokenDealerMapping.iterate_start(tokenDealerMap); TokenDealerMapping.iterate_valid(tokenDealerMap, i); i = TokenDealerMapping.iterate_next(tokenDealerMap, i))\r\n        {\r\n            string memory key;\r\n            address value;\r\n            (key, value) = TokenDealerMapping.iterate_get(tokenDealerMap, i);\r\n            TokenDealerInterface dealerContract = TokenDealerInterface(value);\r\n            sum += dealerContract.balanceOf(_customerAddress);\r\n        }     \r\n    }\r\n\r\n    function balanceOf( address _customerAddress) public view returns (uint256 sum) {\r\n        for (uint i = TokenDealerMapping.iterate_start(tokenDealerMap); TokenDealerMapping.iterate_valid(tokenDealerMap, i); i = TokenDealerMapping.iterate_next(tokenDealerMap, i))\r\n        {\r\n            string memory key;\r\n            address value;\r\n            (key, value) = TokenDealerMapping.iterate_get(tokenDealerMap, i);\r\n            TokenDealerInterface dealerContract = TokenDealerInterface(value);\r\n            sum += dealerContract.balanceOf(_customerAddress);\r\n        } \r\n    }\r\n\r\n    function balanceOf(string symbol, address _customerAddress) public view returns (uint256) {\r\n        TokenDealerInterface dealerContract = TokenDealerInterface(tokenDealerMap.data[symbol].value);\r\n        require(dealerContract != address(0));\r\n        return dealerContract.balanceOf(_customerAddress);\r\n    }\r\n\r\n    //add all s3d\r\n    function totalSupply() public view returns (uint256 sum) \r\n    {\r\n        sum = 0;\r\n        for (uint i = TokenDealerMapping.iterate_start(tokenDealerMap); TokenDealerMapping.iterate_valid(tokenDealerMap, i); i = TokenDealerMapping.iterate_next(tokenDealerMap, i))\r\n        {\r\n            string memory key;\r\n            address value;\r\n            (key, value) = TokenDealerMapping.iterate_get(tokenDealerMap, i);\r\n            TokenDealerInterface dealerContract = TokenDealerInterface(value);\r\n            sum += dealerContract.totalSupply();\r\n        }\r\n    }\r\n\r\n    modifier arbitrageBarrier() {\r\n        require(totalBalanceOf(msg.sender) >= arbitrageRequirement);\r\n        _;\r\n    }\r\n\r\n    function buy(string symbol, uint256 _tokenAmount, address _referredBy)\r\n        public\r\n        payable\r\n        returns(uint256)\r\n    {\r\n        TokenDealerInterface dealerContract = TokenDealerInterface(tokenDealerMap.data[symbol].value);\r\n        require(dealerContract != address(0));\r\n\r\n        if( \r\n            // no cheating!\r\n            _referredBy == msg.sender ||\r\n            \r\n            // does the referrer have at least X whole tokens?\r\n            // i.e is the referrer a godly chad masternode\r\n            totalBalanceOf(_referredBy) < stakingRequirement\r\n        ) {\r\n            _referredBy = 0x0000000000000000000000000000000000000000;\r\n        }\r\n  \r\n\r\n        if(StringUtils.compare(symbol, ethSymbol) == 0) {\r\n            dealerContract.buy.value(msg.value)(msg.sender, msg.value, _referredBy);\r\n        } else {\r\n            dealerContract.buy(msg.sender, _tokenAmount, _referredBy);\r\n        }\r\n    }\r\n\r\n    function reinvest(string symbol, uint256 buyAmount) public{\r\n        TokenDealerInterface dealerContract = TokenDealerInterface(tokenDealerMap.data[symbol].value);\r\n        require(dealerContract != address(0));\r\n        dealerContract.reinvest(msg.sender, buyAmount);\r\n    }\r\n\r\n    function exit(string symbol) public {\r\n        TokenDealerInterface dealerContract = TokenDealerInterface(tokenDealerMap.data[symbol].value);\r\n        require(dealerContract != address(0));\r\n        dealerContract.exit(msg.sender);\r\n    }\r\n\r\n    function withdrawAll() public returns (uint256 sum) {\r\n        for (uint i = TokenDealerMapping.iterate_start(tokenDealerMap); TokenDealerMapping.iterate_valid(tokenDealerMap, i); i = TokenDealerMapping.iterate_next(tokenDealerMap, i))\r\n        {\r\n            string memory key;\r\n            address value;\r\n            (key, value) = TokenDealerMapping.iterate_get(tokenDealerMap, i);\r\n            TokenDealerInterface dealerContract = TokenDealerInterface(value);\r\n            dealerContract.totalSupply();\r\n            if (dealerContract.myDividends(msg.sender, true) > 0) {\r\n                dealerContract.withdraw(msg.sender);\r\n            }\r\n        }\r\n    }\r\n\r\n    function withdraw(string symbol, uint256 withdrawAmount) public{\r\n        TokenDealerInterface dealerContract = TokenDealerInterface(tokenDealerMap.data[symbol].value);\r\n        require(dealerContract != address(0));\r\n        dealerContract.withdraw(msg.sender, withdrawAmount);\r\n    }\r\n\r\n    function sell(string symbol, uint256 _amountOfTokens) public {\r\n        TokenDealerInterface dealerContract = TokenDealerInterface(tokenDealerMap.data[symbol].value);\r\n        require(dealerContract != address(0));\r\n        dealerContract.sell(msg.sender, _amountOfTokens);\r\n    }\r\n\r\n    function totalBalance(string symbol) public view returns(uint) {\r\n        TokenDealerInterface dealerContract = TokenDealerInterface(tokenDealerMap.data[symbol].value);\r\n        require(dealerContract != address(0));\r\n        return dealerContract.totalBalance();\r\n    }\r\n\r\n    function totalSupply(string symbol) public view returns (uint256 sum) \r\n    {\r\n        TokenDealerInterface dealerContract = TokenDealerInterface(tokenDealerMap.data[symbol].value);\r\n        require(dealerContract != address(0));\r\n        return dealerContract.totalSupply();\r\n    }\r\n\r\n    function myDividends(string symbol, bool _includeReferralBonus) public view returns(uint256){\r\n        TokenDealerInterface dealerContract = TokenDealerInterface(tokenDealerMap.data[symbol].value);\r\n        require(dealerContract != address(0));\r\n        return dealerContract.myDividends(msg.sender, _includeReferralBonus);\r\n    }\r\n\r\n    function dividendsOf(string symbol, address _customerAddress) view public returns(uint256) {\r\n        TokenDealerInterface dealerContract = TokenDealerInterface(tokenDealerMap.data[symbol].value);\r\n        require(dealerContract != address(0));\r\n        return dealerContract.dividendsOf(_customerAddress);\r\n    }\r\n\r\n    function referralBalanceOf(string symbol, address _customerAddress) view public returns(uint256) {\r\n        TokenDealerInterface dealerContract = TokenDealerInterface(tokenDealerMap.data[symbol].value);\r\n        require(dealerContract != address(0));\r\n        return dealerContract.referralBalanceOf(_customerAddress);\r\n    }\r\n\r\n    function sellPrice(string symbol) public view returns(uint256) {\r\n        TokenDealerInterface dealerContract = TokenDealerInterface(tokenDealerMap.data[symbol].value);\r\n        require(dealerContract != address(0));\r\n        return dealerContract.sellPrice();\r\n    }\r\n\r\n    function buyPrice(string symbol) public view returns(uint256) {\r\n        TokenDealerInterface dealerContract = TokenDealerInterface(tokenDealerMap.data[symbol].value);\r\n        require(dealerContract != address(0));\r\n        return dealerContract.buyPrice();\r\n    }\r\n\r\n    function calculateTokensReceived(string symbol, uint256 _ethereumToSpend) public view returns(uint256) {\r\n        TokenDealerInterface dealerContract = TokenDealerInterface(tokenDealerMap.data[symbol].value);\r\n        require(dealerContract != address(0));\r\n        return dealerContract.calculateTokensReceived(_ethereumToSpend);\r\n    }\r\n\r\n    function calculateBuyTokenSpend(string symbol, uint256 _tokensToBuy) public view returns(uint256) {\r\n        TokenDealerInterface dealerContract = TokenDealerInterface(tokenDealerMap.data[symbol].value);\r\n        require(dealerContract != address(0));\r\n        return dealerContract.calculateBuyTokenSpend(_tokensToBuy);\r\n    }\r\n\r\n    function calculateBuyTokenReceived(string symbol, uint256 _tokensToSell) public view returns(uint256) {\r\n        TokenDealerInterface dealerContract = TokenDealerInterface(tokenDealerMap.data[symbol].value);\r\n        require(dealerContract != address(0));\r\n        return dealerContract.calculateBuyTokenReceived(_tokensToSell);\r\n    }\r\n\r\n    function arbitrageTokens(string fromSymbol, string sellSymbol, uint256 _amountOfTokens) \r\n        arbitrageBarrier()\r\n        public \r\n    {\r\n        TokenDealerInterface escapeContract = TokenDealerInterface(tokenDealerMap.data[fromSymbol].value);\r\n        require(escapeContract != address(0));\r\n\r\n        uint256 _tokens = escapeContract.escapeTokens(msg.sender, _amountOfTokens); \r\n        require(_tokens == _amountOfTokens);\r\n\r\n        TokenDealerInterface dealerContract = TokenDealerInterface(tokenDealerMap.data[sellSymbol].value);\r\n        require(dealerContract != address(0));\r\n\r\n        dealerContract.arbitrageTokens(msg.sender, _amountOfTokens);\r\n    }\r\n\r\n    function transfer(address _to, uint _value) public returns (bool success) {\r\n\r\n    }\r\n}",
  "sourcePath": "D:\\work\\truffle\\s3d\\contracts\\S3DProtocol.sol",
  "compiler": {
    "name": "solc",
    "version": "0.4.24+commit.e67f0147.Emscripten.clang"
  },
  "schemaVersion": "2.0.1",
  "updatedAt": "2018-08-22T02:23:45.086Z"
}