{
  "contractName": "S3DProtocol",
  "abi": [
    {
      "constant": true,
      "inputs": [],
      "name": "name",
      "outputs": [
        {
          "name": "",
          "type": "string"
        }
      ],
      "payable": false,
      "stateMutability": "view",
      "type": "function"
    },
    {
      "constant": true,
      "inputs": [],
      "name": "decimals",
      "outputs": [
        {
          "name": "",
          "type": "uint8"
        }
      ],
      "payable": false,
      "stateMutability": "view",
      "type": "function"
    },
    {
      "constant": true,
      "inputs": [],
      "name": "referralRequirement",
      "outputs": [
        {
          "name": "",
          "type": "uint256"
        }
      ],
      "payable": false,
      "stateMutability": "view",
      "type": "function"
    },
    {
      "constant": false,
      "inputs": [],
      "name": "claimOwnership",
      "outputs": [],
      "payable": false,
      "stateMutability": "nonpayable",
      "type": "function"
    },
    {
      "constant": false,
      "inputs": [],
      "name": "renounceOwnership",
      "outputs": [],
      "payable": false,
      "stateMutability": "nonpayable",
      "type": "function"
    },
    {
      "constant": true,
      "inputs": [],
      "name": "owner",
      "outputs": [
        {
          "name": "",
          "type": "address"
        }
      ],
      "payable": false,
      "stateMutability": "view",
      "type": "function"
    },
    {
      "constant": true,
      "inputs": [],
      "name": "symbol",
      "outputs": [
        {
          "name": "",
          "type": "string"
        }
      ],
      "payable": false,
      "stateMutability": "view",
      "type": "function"
    },
    {
      "constant": true,
      "inputs": [],
      "name": "pendingOwner",
      "outputs": [
        {
          "name": "",
          "type": "address"
        }
      ],
      "payable": false,
      "stateMutability": "view",
      "type": "function"
    },
    {
      "constant": false,
      "inputs": [
        {
          "name": "newOwner",
          "type": "address"
        }
      ],
      "name": "transferOwnership",
      "outputs": [],
      "payable": false,
      "stateMutability": "nonpayable",
      "type": "function"
    },
    {
      "constant": true,
      "inputs": [],
      "name": "arbitrageRequirement",
      "outputs": [
        {
          "name": "",
          "type": "uint256"
        }
      ],
      "payable": false,
      "stateMutability": "view",
      "type": "function"
    },
    {
      "anonymous": false,
      "inputs": [
        {
          "indexed": true,
          "name": "previousOwner",
          "type": "address"
        }
      ],
      "name": "OwnershipRenounced",
      "type": "event"
    },
    {
      "anonymous": false,
      "inputs": [
        {
          "indexed": true,
          "name": "previousOwner",
          "type": "address"
        },
        {
          "indexed": true,
          "name": "newOwner",
          "type": "address"
        }
      ],
      "name": "OwnershipTransferred",
      "type": "event"
    },
    {
      "constant": false,
      "inputs": [
        {
          "name": "_customerAddress",
          "type": "address"
        }
      ],
      "name": "addReferraler",
      "outputs": [],
      "payable": false,
      "stateMutability": "nonpayable",
      "type": "function"
    },
    {
      "constant": false,
      "inputs": [
        {
          "name": "_customerAddress",
          "type": "address"
        }
      ],
      "name": "removeReferraler",
      "outputs": [],
      "payable": false,
      "stateMutability": "nonpayable",
      "type": "function"
    },
    {
      "constant": false,
      "inputs": [
        {
          "name": "_customerAddress",
          "type": "address"
        }
      ],
      "name": "addArbitrager",
      "outputs": [],
      "payable": false,
      "stateMutability": "nonpayable",
      "type": "function"
    },
    {
      "constant": false,
      "inputs": [
        {
          "name": "_customerAddress",
          "type": "address"
        }
      ],
      "name": "removeArbitrager",
      "outputs": [],
      "payable": false,
      "stateMutability": "nonpayable",
      "type": "function"
    },
    {
      "constant": true,
      "inputs": [
        {
          "name": "_customerAddress",
          "type": "address"
        }
      ],
      "name": "isReferraler",
      "outputs": [
        {
          "name": "",
          "type": "bool"
        }
      ],
      "payable": false,
      "stateMutability": "view",
      "type": "function"
    },
    {
      "constant": true,
      "inputs": [
        {
          "name": "_customerAddress",
          "type": "address"
        }
      ],
      "name": "isArbitrager",
      "outputs": [
        {
          "name": "",
          "type": "bool"
        }
      ],
      "payable": false,
      "stateMutability": "view",
      "type": "function"
    },
    {
      "constant": false,
      "inputs": [
        {
          "name": "_symbol",
          "type": "string"
        },
        {
          "name": "_dealerAddress",
          "type": "address"
        }
      ],
      "name": "addDealer",
      "outputs": [
        {
          "name": "size",
          "type": "uint256"
        }
      ],
      "payable": false,
      "stateMutability": "nonpayable",
      "type": "function"
    },
    {
      "constant": true,
      "inputs": [
        {
          "name": "_symbol",
          "type": "string"
        }
      ],
      "name": "getDealer",
      "outputs": [
        {
          "name": "",
          "type": "address"
        }
      ],
      "payable": false,
      "stateMutability": "view",
      "type": "function"
    },
    {
      "constant": false,
      "inputs": [
        {
          "name": "_amountOfTokens",
          "type": "uint256"
        }
      ],
      "name": "setReferralRequirement",
      "outputs": [],
      "payable": false,
      "stateMutability": "nonpayable",
      "type": "function"
    },
    {
      "constant": false,
      "inputs": [
        {
          "name": "_amountOfTokens",
          "type": "uint256"
        }
      ],
      "name": "setArbitrageRequirement",
      "outputs": [],
      "payable": false,
      "stateMutability": "nonpayable",
      "type": "function"
    },
    {
      "constant": true,
      "inputs": [
        {
          "name": "_customerAddress",
          "type": "address"
        }
      ],
      "name": "balanceOf",
      "outputs": [
        {
          "name": "_sum",
          "type": "uint256"
        }
      ],
      "payable": false,
      "stateMutability": "view",
      "type": "function"
    },
    {
      "constant": true,
      "inputs": [
        {
          "name": "_symbol",
          "type": "string"
        },
        {
          "name": "_customerAddress",
          "type": "address"
        }
      ],
      "name": "balanceOfOneToken",
      "outputs": [
        {
          "name": "",
          "type": "uint256"
        }
      ],
      "payable": false,
      "stateMutability": "view",
      "type": "function"
    },
    {
      "constant": true,
      "inputs": [],
      "name": "totalSupply",
      "outputs": [
        {
          "name": "_sum",
          "type": "uint256"
        }
      ],
      "payable": false,
      "stateMutability": "view",
      "type": "function"
    },
    {
      "constant": true,
      "inputs": [
        {
          "name": "_symbol",
          "type": "string"
        }
      ],
      "name": "totalSupplyOfOneToken",
      "outputs": [
        {
          "name": "",
          "type": "uint256"
        }
      ],
      "payable": false,
      "stateMutability": "view",
      "type": "function"
    },
    {
      "constant": false,
      "inputs": [
        {
          "name": "_symbol",
          "type": "string"
        },
        {
          "name": "_tokenAmount",
          "type": "uint256"
        },
        {
          "name": "_referredBy",
          "type": "address"
        }
      ],
      "name": "buy",
      "outputs": [
        {
          "name": "",
          "type": "uint256"
        }
      ],
      "payable": true,
      "stateMutability": "payable",
      "type": "function"
    },
    {
      "constant": false,
      "inputs": [
        {
          "name": "_symbol",
          "type": "string"
        },
        {
          "name": "_buyAmount",
          "type": "uint256"
        }
      ],
      "name": "reinvest",
      "outputs": [],
      "payable": false,
      "stateMutability": "nonpayable",
      "type": "function"
    },
    {
      "constant": false,
      "inputs": [
        {
          "name": "_symbol",
          "type": "string"
        }
      ],
      "name": "exit",
      "outputs": [],
      "payable": false,
      "stateMutability": "nonpayable",
      "type": "function"
    },
    {
      "constant": false,
      "inputs": [],
      "name": "withdrawAll",
      "outputs": [],
      "payable": false,
      "stateMutability": "nonpayable",
      "type": "function"
    },
    {
      "constant": false,
      "inputs": [
        {
          "name": "_symbol",
          "type": "string"
        },
        {
          "name": "_withdrawAmount",
          "type": "uint256"
        }
      ],
      "name": "withdraw",
      "outputs": [],
      "payable": false,
      "stateMutability": "nonpayable",
      "type": "function"
    },
    {
      "constant": false,
      "inputs": [
        {
          "name": "_symbol",
          "type": "string"
        },
        {
          "name": "_amountOfTokens",
          "type": "uint256"
        }
      ],
      "name": "sell",
      "outputs": [],
      "payable": false,
      "stateMutability": "nonpayable",
      "type": "function"
    },
    {
      "constant": true,
      "inputs": [
        {
          "name": "_symbol",
          "type": "string"
        }
      ],
      "name": "totalBalance",
      "outputs": [
        {
          "name": "",
          "type": "uint256"
        }
      ],
      "payable": false,
      "stateMutability": "view",
      "type": "function"
    },
    {
      "constant": true,
      "inputs": [
        {
          "name": "_symbol",
          "type": "string"
        },
        {
          "name": "_customerAddress",
          "type": "address"
        }
      ],
      "name": "dividendsOf",
      "outputs": [
        {
          "name": "",
          "type": "uint256"
        }
      ],
      "payable": false,
      "stateMutability": "view",
      "type": "function"
    },
    {
      "constant": true,
      "inputs": [
        {
          "name": "_symbol",
          "type": "string"
        },
        {
          "name": "_customerAddress",
          "type": "address"
        }
      ],
      "name": "referralBalanceOf",
      "outputs": [
        {
          "name": "",
          "type": "uint256"
        }
      ],
      "payable": false,
      "stateMutability": "view",
      "type": "function"
    },
    {
      "constant": true,
      "inputs": [
        {
          "name": "_symbol",
          "type": "string"
        }
      ],
      "name": "sellPrice",
      "outputs": [
        {
          "name": "",
          "type": "uint256"
        }
      ],
      "payable": false,
      "stateMutability": "view",
      "type": "function"
    },
    {
      "constant": true,
      "inputs": [
        {
          "name": "_symbol",
          "type": "string"
        }
      ],
      "name": "buyPrice",
      "outputs": [
        {
          "name": "",
          "type": "uint256"
        }
      ],
      "payable": false,
      "stateMutability": "view",
      "type": "function"
    },
    {
      "constant": true,
      "inputs": [
        {
          "name": "_symbol",
          "type": "string"
        },
        {
          "name": "_buyTokenToSpend",
          "type": "uint256"
        }
      ],
      "name": "calculateTokensReceived",
      "outputs": [
        {
          "name": "",
          "type": "uint256"
        }
      ],
      "payable": false,
      "stateMutability": "view",
      "type": "function"
    },
    {
      "constant": true,
      "inputs": [
        {
          "name": "_symbol",
          "type": "string"
        },
        {
          "name": "_tokensToBuy",
          "type": "uint256"
        }
      ],
      "name": "calculateBuyTokenSpend",
      "outputs": [
        {
          "name": "",
          "type": "uint256"
        }
      ],
      "payable": false,
      "stateMutability": "view",
      "type": "function"
    },
    {
      "constant": true,
      "inputs": [
        {
          "name": "_symbol",
          "type": "string"
        },
        {
          "name": "_tokensToSell",
          "type": "uint256"
        }
      ],
      "name": "calculateBuyTokenReceived",
      "outputs": [
        {
          "name": "",
          "type": "uint256"
        }
      ],
      "payable": false,
      "stateMutability": "view",
      "type": "function"
    },
    {
      "constant": false,
      "inputs": [
        {
          "name": "_fromSymbol",
          "type": "string"
        },
        {
          "name": "_toSymbol",
          "type": "string"
        },
        {
          "name": "_amountOfTokens",
          "type": "uint256"
        }
      ],
      "name": "arbitrageTokens",
      "outputs": [],
      "payable": false,
      "stateMutability": "nonpayable",
      "type": "function"
    }
  ],
  "bytecode": "0x6080604052681b1ae4d6e2ef500000600555683635c9adc5dea00000600655336000806101000a81548173ffffffffffffffffffffffffffffffffffffffff021916908373ffffffffffffffffffffffffffffffffffffffff1602179055506147cf8061006d6000396000f3006080604052600436106101e3576000357c0100000000000000000000000000000000000000000000000000000000900463ffffffff16806306fdde03146101e85780630df35ddb1461027857806318160ddd146102d3578063227d67cc146102fe57806323805b8f1461039b5780632ed27d5d146103de57806330b39a6214610421578063313ce5671461049457806333347aa8146104c5578063365366fb1461054c5780633eaeef1b146105e6578063472c16a5146106115780634e71e0c8146106ca5780636addf029146106e157806370a082311461070e578063715018a61461076557806377fe05001461077c57806384d01f6914610803578063853828b6146108805780638da5cb5b1461089757806395d89b41146108ee5780639f6563211461097e578063a0dbb470146109f1578063b609e72014610a9a578063b70aa4f914610b0d578063c688857214610baa578063c7a2136914610bed578063d539c0f814610c8a578063d89c1a0014610d07578063dae19cdf14610d84578063e30c397814610ddf578063e4ddcbc814610e36578063e7fb538814610e63578063e960303314610ecc578063f09e7d4d14610f69578063f0ed3c8c14610fac578063f2fde38b14611029578063f585207c1461106c578063fb103fbb146110f3575b600080fd5b3480156101f457600080fd5b506101fd61111e565b6040518080602001828103825283818151815260200191508051906020019080838360005b8381101561023d578082015181840152602081019050610222565b50505050905090810190601f16801561026a5780820380516001836020036101000a031916815260200191505b509250505060405180910390f35b34801561028457600080fd5b506102b9600480360381019080803573ffffffffffffffffffffffffffffffffffffffff169060200190929190505050611157565b604051808215151515815260200191505060405180910390f35b3480156102df57600080fd5b506102e86111ad565b6040518082815260200191505060405180910390f35b34801561030a57600080fd5b50610385600480360381019080803590602001908201803590602001908080601f0160208091040260200160405190810160405280939291908181526020018383808284378201915050505050509192919290803573ffffffffffffffffffffffffffffffffffffffff16906020019092919050505061158f565b6040518082815260200191505060405180910390f35b3480156103a757600080fd5b506103dc600480360381019080803573ffffffffffffffffffffffffffffffffffffffff16906020019092919050505061173e565b005b3480156103ea57600080fd5b5061041f600480360381019080803573ffffffffffffffffffffffffffffffffffffffff1690602001909291905050506117f4565b005b34801561042d57600080fd5b50610492600480360381019080803590602001908201803590602001908080601f0160208091040260200160405190810160405280939291908181526020018383808284378201915050505050509192919290803590602001909291905050506118aa565b005b3480156104a057600080fd5b506104a9611a39565b604051808260ff1660ff16815260200191505060405180910390f35b3480156104d157600080fd5b50610536600480360381019080803590602001908201803590602001908080601f016020809104026020016040519081016040528093929190818152602001838380828437820191505050505050919291929080359060200190929190505050611a3e565b6040518082815260200191505060405180910390f35b6105d0600480360381019080803590602001908201803590602001908080601f016020809104026020016040519081016040528093929190818152602001838380828437820191505050505050919291929080359060200190929190803573ffffffffffffffffffffffffffffffffffffffff169060200190929190505050611bc1565b6040518082815260200191505060405180910390f35b3480156105f257600080fd5b506105fb6120df565b6040518082815260200191505060405180910390f35b34801561061d57600080fd5b506106c8600480360381019080803590602001908201803590602001908080601f0160208091040260200160405190810160405280939291908181526020018383808284378201915050505050509192919290803590602001908201803590602001908080601f0160208091040260200160405190810160405280939291908181526020018383808284378201915050505050509192919290803590602001909291905050506120e5565b005b3480156106d657600080fd5b506106df61245b565b005b3480156106ed57600080fd5b5061070c600480360381019080803590602001909291905050506125fa565b005b34801561071a57600080fd5b5061074f600480360381019080803573ffffffffffffffffffffffffffffffffffffffff16906020019092919050505061265f565b6040518082815260200191505060405180910390f35b34801561077157600080fd5b5061077a612a76565b005b34801561078857600080fd5b506107ed600480360381019080803590602001908201803590602001908080601f016020809104026020016040519081016040528093929190818152602001838380828437820191505050505050919291929080359060200190929190505050612b78565b6040518082815260200191505060405180910390f35b34801561080f57600080fd5b5061086a600480360381019080803590602001908201803590602001908080601f0160208091040260200160405190810160405280939291908181526020018383808284378201915050505050509192919290505050612cfb565b6040518082815260200191505060405180910390f35b34801561088c57600080fd5b50610895612e72565b005b3480156108a357600080fd5b506108ac61341c565b604051808273ffffffffffffffffffffffffffffffffffffffff1673ffffffffffffffffffffffffffffffffffffffff16815260200191505060405180910390f35b3480156108fa57600080fd5b50610903613441565b6040518080602001828103825283818151815260200191508051906020019080838360005b83811015610943578082015181840152602081019050610928565b50505050905090810190601f1680156109705780820380516001836020036101000a031916815260200191505b509250505060405180910390f35b34801561098a57600080fd5b506109ef600480360381019080803590602001908201803590602001908080601f01602080910402602001604051908101604052809392919081815260200183838082843782019150505050505091929192908035906020019092919050505061347a565b005b3480156109fd57600080fd5b50610a58600480360381019080803590602001908201803590602001908080601f0160208091040260200160405190810160405280939291908181526020018383808284378201915050505050509192919290505050613609565b604051808273ffffffffffffffffffffffffffffffffffffffff1673ffffffffffffffffffffffffffffffffffffffff16815260200191505060405180910390f35b348015610aa657600080fd5b50610b0b600480360381019080803590602001908201803590602001908080601f0160208091040260200160405190810160405280939291908181526020018383808284378201915050505050509192919290803590602001909291905050506136a4565b005b348015610b1957600080fd5b50610b94600480360381019080803590602001908201803590602001908080601f0160208091040260200160405190810160405280939291908181526020018383808284378201915050505050509192919290803573ffffffffffffffffffffffffffffffffffffffff169060200190929190505050613833565b6040518082815260200191505060405180910390f35b348015610bb657600080fd5b50610beb600480360381019080803573ffffffffffffffffffffffffffffffffffffffff1690602001909291905050506139e6565b005b348015610bf957600080fd5b50610c74600480360381019080803590602001908201803590602001908080601f0160208091040260200160405190810160405280939291908181526020018383808284378201915050505050509192919290803573ffffffffffffffffffffffffffffffffffffffff169060200190929190505050613a9c565b6040518082815260200191505060405180910390f35b348015610c9657600080fd5b50610cf1600480360381019080803590602001908201803590602001908080601f0160208091040260200160405190810160405280939291908181526020018383808284378201915050505050509192919290505050613c4a565b6040518082815260200191505060405180910390f35b348015610d1357600080fd5b50610d6e600480360381019080803590602001908201803590602001908080601f0160208091040260200160405190810160405280939291908181526020018383808284378201915050505050509192919290505050613dc1565b6040518082815260200191505060405180910390f35b348015610d9057600080fd5b50610dc5600480360381019080803573ffffffffffffffffffffffffffffffffffffffff169060200190929190505050613f38565b604051808215151515815260200191505060405180910390f35b348015610deb57600080fd5b50610df4613f8e565b604051808273ffffffffffffffffffffffffffffffffffffffff1673ffffffffffffffffffffffffffffffffffffffff16815260200191505060405180910390f35b348015610e4257600080fd5b50610e6160048036038101908080359060200190929190505050613fb4565b005b348015610e6f57600080fd5b50610eca600480360381019080803590602001908201803590602001908080601f0160208091040260200160405190810160405280939291908181526020018383808284378201915050505050509192919290505050614019565b005b348015610ed857600080fd5b50610f53600480360381019080803590602001908201803590602001908080601f0160208091040260200160405190810160405280939291908181526020018383808284378201915050505050509192919290803573ffffffffffffffffffffffffffffffffffffffff16906020019092919050505061419f565b6040518082815260200191505060405180910390f35b348015610f7557600080fd5b50610faa600480360381019080803573ffffffffffffffffffffffffffffffffffffffff16906020019092919050505061434e565b005b348015610fb857600080fd5b50611013600480360381019080803590602001908201803590602001908080601f0160208091040260200160405190810160405280939291908181526020018383808284378201915050505050509192919290505050614404565b6040518082815260200191505060405180910390f35b34801561103557600080fd5b5061106a600480360381019080803573ffffffffffffffffffffffffffffffffffffffff16906020019092919050505061457b565b005b34801561107857600080fd5b506110dd600480360381019080803590602001908201803590602001908080601f01602080910402602001604051908101604052809392919081815260200183838082843782019150505050505091929192908035906020019092919050505061461a565b6040518082815260200191505060405180910390f35b3480156110ff57600080fd5b5061110861479d565b6040518082815260200191505060405180910390f35b6040805190810160405280600981526020017f53334420546f6b656e000000000000000000000000000000000000000000000081525081565b6000600760008373ffffffffffffffffffffffffffffffffffffffff1673ffffffffffffffffffffffffffffffffffffffff16815260200190815260200160002060009054906101000a900460ff169050919050565b6000806000806000935073__TokenDealerMapping____________________632dc131b260026040518263ffffffff167c01000000000000000000000000000000000000000000000000000000000281526004018082815260200191505060206040518083038186803b15801561122357600080fd5b505af4158015611237573d6000803e3d6000fd5b505050506040513d602081101561124d57600080fd5b810190808051906020019092919050505092505b73__TokenDealerMapping____________________634ca101476002856040518363ffffffff167c0100000000000000000000000000000000000000000000000000000000028152600401808381526020018281526020019250505060206040518083038186803b1580156112d557600080fd5b505af41580156112e9573d6000803e3d6000fd5b505050506040513d60208110156112ff57600080fd5b8101908080519060200190929190505050156115895773__TokenDealerMapping____________________63c6ae82086002856040518363ffffffff167c0100000000000000000000000000000000000000000000000000000000028152600401808381526020018281526020019250505060006040518083038186803b15801561138957600080fd5b505af415801561139d573d6000803e3d6000fd5b505050506040513d6000823e3d601f19601f8201168201806040525060408110156113c757600080fd5b8101908080516401000000008111156113df57600080fd5b828101905060208101848111156113f557600080fd5b815185600182028301116401000000008211171561141257600080fd5b5050929190602001805190602001909291905050509050809250508190508073ffffffffffffffffffffffffffffffffffffffff166318160ddd6040518163ffffffff167c0100000000000000000000000000000000000000000000000000000000028152600401602060405180830381600087803b15801561149457600080fd5b505af11580156114a8573d6000803e3d6000fd5b505050506040513d60208110156114be57600080fd5b81019080805190602001909291905050508401935073__TokenDealerMapping____________________634a84c3996002856040518363ffffffff167c0100000000000000000000000000000000000000000000000000000000028152600401808381526020018281526020019250505060206040518083038186803b15801561154757600080fd5b505af415801561155b573d6000803e3d6000fd5b505050506040513d602081101561157157600080fd5b81019080805190602001909291905050509250611261565b50505090565b6000806002600001846040518082805190602001908083835b6020831015156115cd57805182526020820191506020810190506020830392506115a8565b6001836020036101000a038019825116818451168082178552505050505050905001915050908152602001604051809103902060010160009054906101000a900473ffffffffffffffffffffffffffffffffffffffff169050600073ffffffffffffffffffffffffffffffffffffffff168173ffffffffffffffffffffffffffffffffffffffff161415151561165f57fe5b8073ffffffffffffffffffffffffffffffffffffffff166370a08231846040518263ffffffff167c0100000000000000000000000000000000000000000000000000000000028152600401808273ffffffffffffffffffffffffffffffffffffffff1673ffffffffffffffffffffffffffffffffffffffff168152602001915050602060405180830381600087803b1580156116fa57600080fd5b505af115801561170e573d6000803e3d6000fd5b505050506040513d602081101561172457600080fd5b810190808051906020019092919050505091505092915050565b6000809054906101000a900473ffffffffffffffffffffffffffffffffffffffff1673ffffffffffffffffffffffffffffffffffffffff163373ffffffffffffffffffffffffffffffffffffffff1614151561179957600080fd5b6001600860008373ffffffffffffffffffffffffffffffffffffffff1673ffffffffffffffffffffffffffffffffffffffff16815260200190815260200160002060006101000a81548160ff02191690831515021790555050565b6000809054906101000a900473ffffffffffffffffffffffffffffffffffffffff1673ffffffffffffffffffffffffffffffffffffffff163373ffffffffffffffffffffffffffffffffffffffff1614151561184f57600080fd5b6000600760008373ffffffffffffffffffffffffffffffffffffffff1673ffffffffffffffffffffffffffffffffffffffff16815260200190815260200160002060006101000a81548160ff02191690831515021790555050565b60006002600001836040518082805190602001908083835b6020831015156118e757805182526020820191506020810190506020830392506118c2565b6001836020036101000a038019825116818451168082178552505050505050905001915050908152602001604051809103902060010160009054906101000a900473ffffffffffffffffffffffffffffffffffffffff169050600073ffffffffffffffffffffffffffffffffffffffff168173ffffffffffffffffffffffffffffffffffffffff161415151561197957fe5b8073ffffffffffffffffffffffffffffffffffffffff1663f3fef3a333846040518363ffffffff167c0100000000000000000000000000000000000000000000000000000000028152600401808373ffffffffffffffffffffffffffffffffffffffff1673ffffffffffffffffffffffffffffffffffffffff16815260200182815260200192505050600060405180830381600087803b158015611a1c57600080fd5b505af1158015611a30573d6000803e3d6000fd5b50505050505050565b601281565b6000806002600001846040518082805190602001908083835b602083101515611a7c5780518252602082019150602081019050602083039250611a57565b6001836020036101000a038019825116818451168082178552505050505050905001915050908152602001604051809103902060010160009054906101000a900473ffffffffffffffffffffffffffffffffffffffff169050600073ffffffffffffffffffffffffffffffffffffffff168173ffffffffffffffffffffffffffffffffffffffff1614151515611b0e57fe5b8073ffffffffffffffffffffffffffffffffffffffff166310d0ffdd846040518263ffffffff167c010000000000000000000000000000000000000000000000000000000002815260040180828152602001915050602060405180830381600087803b158015611b7d57600080fd5b505af1158015611b91573d6000803e3d6000fd5b505050506040513d6020811015611ba757600080fd5b810190808051906020019092919050505091505092915050565b60008060006002600001866040518082805190602001908083835b602083101515611c015780518252602082019150602081019050602083039250611bdc565b6001836020036101000a038019825116818451168082178552505050505050905001915050908152602001604051809103902060010160009054906101000a900473ffffffffffffffffffffffffffffffffffffffff169150600073ffffffffffffffffffffffffffffffffffffffff168273ffffffffffffffffffffffffffffffffffffffff1614151515611c9357fe5b8390503373ffffffffffffffffffffffffffffffffffffffff168173ffffffffffffffffffffffffffffffffffffffff161480611cd95750600554611cd78261265f565b105b80611cea5750611ce881611157565b155b15611cf457600090505b600073__StringUtils___________________________633a96fdd7886040805190810160405280600381526020017f65746800000000000000000000000000000000000000000000000000000000008152506040518363ffffffff167c0100000000000000000000000000000000000000000000000000000000028152600401808060200180602001838103835285818151815260200191508051906020019080838360005b83811015611db6578082015181840152602081019050611d9b565b50505050905090810190601f168015611de35780820380516001836020036101000a031916815260200191505b50838103825284818151815260200191508051906020019080838360005b83811015611e1c578082015181840152602081019050611e01565b50505050905090810190601f168015611e495780820380516001836020036101000a031916815260200191505b5094505050505060206040518083038186803b158015611e6857600080fd5b505af4158015611e7c573d6000803e3d6000fd5b505050506040513d6020811015611e9257600080fd5b81019080805190602001909291905050501415611fc2578173ffffffffffffffffffffffffffffffffffffffff1663db61c76e343334856040518563ffffffff167c0100000000000000000000000000000000000000000000000000000000028152600401808473ffffffffffffffffffffffffffffffffffffffff1673ffffffffffffffffffffffffffffffffffffffff1681526020018381526020018273ffffffffffffffffffffffffffffffffffffffff1673ffffffffffffffffffffffffffffffffffffffff16815260200193505050506020604051808303818588803b158015611f8057600080fd5b505af1158015611f94573d6000803e3d6000fd5b50505050506040513d6020811015611fab57600080fd5b8101908080519060200190929190505050506120d6565b8173ffffffffffffffffffffffffffffffffffffffff1663db61c76e3387846040518463ffffffff167c0100000000000000000000000000000000000000000000000000000000028152600401808473ffffffffffffffffffffffffffffffffffffffff1673ffffffffffffffffffffffffffffffffffffffff1681526020018381526020018273ffffffffffffffffffffffffffffffffffffffff1673ffffffffffffffffffffffffffffffffffffffff1681526020019350505050602060405180830381600087803b15801561209957600080fd5b505af11580156120ad573d6000803e3d6000fd5b505050506040513d60208110156120c357600080fd5b8101908080519060200190929190505050505b50509392505050565b60055481565b60008060006006546120f63361265f565b101580612108575061210733613f38565b5b151561211357600080fd5b6002600001866040518082805190602001908083835b60208310151561214e5780518252602082019150602081019050602083039250612129565b6001836020036101000a038019825116818451168082178552505050505050905001915050908152602001604051809103902060010160009054906101000a900473ffffffffffffffffffffffffffffffffffffffff169250600073ffffffffffffffffffffffffffffffffffffffff168373ffffffffffffffffffffffffffffffffffffffff16141515156121e057fe5b8273ffffffffffffffffffffffffffffffffffffffff1663d3d6dce733866040518363ffffffff167c0100000000000000000000000000000000000000000000000000000000028152600401808373ffffffffffffffffffffffffffffffffffffffff1673ffffffffffffffffffffffffffffffffffffffff16815260200182815260200192505050602060405180830381600087803b15801561228357600080fd5b505af1158015612297573d6000803e3d6000fd5b505050506040513d60208110156122ad57600080fd5b8101908080519060200190929190505050915083821415156122cb57fe5b6002600001856040518082805190602001908083835b60208310151561230657805182526020820191506020810190506020830392506122e1565b6001836020036101000a038019825116818451168082178552505050505050905001915050908152602001604051809103902060010160009054906101000a900473ffffffffffffffffffffffffffffffffffffffff169050600073ffffffffffffffffffffffffffffffffffffffff168173ffffffffffffffffffffffffffffffffffffffff161415151561239857fe5b8073ffffffffffffffffffffffffffffffffffffffff16633be8eb7e33866040518363ffffffff167c0100000000000000000000000000000000000000000000000000000000028152600401808373ffffffffffffffffffffffffffffffffffffffff1673ffffffffffffffffffffffffffffffffffffffff16815260200182815260200192505050600060405180830381600087803b15801561243b57600080fd5b505af115801561244f573d6000803e3d6000fd5b50505050505050505050565b600160009054906101000a900473ffffffffffffffffffffffffffffffffffffffff1673ffffffffffffffffffffffffffffffffffffffff163373ffffffffffffffffffffffffffffffffffffffff161415156124b757600080fd5b600160009054906101000a900473ffffffffffffffffffffffffffffffffffffffff1673ffffffffffffffffffffffffffffffffffffffff166000809054906101000a900473ffffffffffffffffffffffffffffffffffffffff1673ffffffffffffffffffffffffffffffffffffffff167f8be0079c531659141344cd1fd0a4f28419497f9722a3daafe3b4186f6b6457e060405160405180910390a3600160009054906101000a900473ffffffffffffffffffffffffffffffffffffffff166000806101000a81548173ffffffffffffffffffffffffffffffffffffffff021916908373ffffffffffffffffffffffffffffffffffffffff1602179055506000600160006101000a81548173ffffffffffffffffffffffffffffffffffffffff021916908373ffffffffffffffffffffffffffffffffffffffff160217905550565b6000809054906101000a900473ffffffffffffffffffffffffffffffffffffffff1673ffffffffffffffffffffffffffffffffffffffff163373ffffffffffffffffffffffffffffffffffffffff1614151561265557600080fd5b8060058190555050565b60008060008073__TokenDealerMapping____________________632dc131b260026040518263ffffffff167c01000000000000000000000000000000000000000000000000000000000281526004018082815260200191505060206040518083038186803b1580156126d157600080fd5b505af41580156126e5573d6000803e3d6000fd5b505050506040513d60208110156126fb57600080fd5b810190808051906020019092919050505092505b73__TokenDealerMapping____________________634ca101476002856040518363ffffffff167c0100000000000000000000000000000000000000000000000000000000028152600401808381526020018281526020019250505060206040518083038186803b15801561278357600080fd5b505af4158015612797573d6000803e3d6000fd5b505050506040513d60208110156127ad57600080fd5b810190808051906020019092919050505015612a6e5773__TokenDealerMapping____________________63c6ae82086002856040518363ffffffff167c0100000000000000000000000000000000000000000000000000000000028152600401808381526020018281526020019250505060006040518083038186803b15801561283757600080fd5b505af415801561284b573d6000803e3d6000fd5b505050506040513d6000823e3d601f19601f82011682018060405250604081101561287557600080fd5b81019080805164010000000081111561288d57600080fd5b828101905060208101848111156128a357600080fd5b81518560018202830111640100000000821117156128c057600080fd5b5050929190602001805190602001909291905050509050809250508190508073ffffffffffffffffffffffffffffffffffffffff166370a08231866040518263ffffffff167c0100000000000000000000000000000000000000000000000000000000028152600401808273ffffffffffffffffffffffffffffffffffffffff1673ffffffffffffffffffffffffffffffffffffffff168152602001915050602060405180830381600087803b15801561297957600080fd5b505af115801561298d573d6000803e3d6000fd5b505050506040513d60208110156129a357600080fd5b81019080805190602001909291905050508401935073__TokenDealerMapping____________________634a84c3996002856040518363ffffffff167c0100000000000000000000000000000000000000000000000000000000028152600401808381526020018281526020019250505060206040518083038186803b158015612a2c57600080fd5b505af4158015612a40573d6000803e3d6000fd5b505050506040513d6020811015612a5657600080fd5b8101908080519060200190929190505050925061270f565b505050919050565b6000809054906101000a900473ffffffffffffffffffffffffffffffffffffffff1673ffffffffffffffffffffffffffffffffffffffff163373ffffffffffffffffffffffffffffffffffffffff16141515612ad157600080fd5b6000809054906101000a900473ffffffffffffffffffffffffffffffffffffffff1673ffffffffffffffffffffffffffffffffffffffff167ff8df31144d9c2f0f6b59d69b8b98abd5459d07f2742c4df920b25aae33c6482060405160405180910390a260008060006101000a81548173ffffffffffffffffffffffffffffffffffffffff021916908373ffffffffffffffffffffffffffffffffffffffff160217905550565b6000806002600001846040518082805190602001908083835b602083101515612bb65780518252602082019150602081019050602083039250612b91565b6001836020036101000a038019825116818451168082178552505050505050905001915050908152602001604051809103902060010160009054906101000a900473ffffffffffffffffffffffffffffffffffffffff169050600073ffffffffffffffffffffffffffffffffffffffff168173ffffffffffffffffffffffffffffffffffffffff1614151515612c4857fe5b8073ffffffffffffffffffffffffffffffffffffffff1663150c95a8846040518263ffffffff167c010000000000000000000000000000000000000000000000000000000002815260040180828152602001915050602060405180830381600087803b158015612cb757600080fd5b505af1158015612ccb573d6000803e3d6000fd5b505050506040513d6020811015612ce157600080fd5b810190808051906020019092919050505091505092915050565b6000806002600001836040518082805190602001908083835b602083101515612d395780518252602082019150602081019050602083039250612d14565b6001836020036101000a038019825116818451168082178552505050505050905001915050908152602001604051809103902060010160009054906101000a900473ffffffffffffffffffffffffffffffffffffffff169050600073ffffffffffffffffffffffffffffffffffffffff168173ffffffffffffffffffffffffffffffffffffffff1614151515612dcb57fe5b8073ffffffffffffffffffffffffffffffffffffffff1663ad7a672f6040518163ffffffff167c0100000000000000000000000000000000000000000000000000000000028152600401602060405180830381600087803b158015612e2f57600080fd5b505af1158015612e43573d6000803e3d6000fd5b505050506040513d6020811015612e5957600080fd5b8101908080519060200190929190505050915050919050565b600080600073__TokenDealerMapping____________________632dc131b260026040518263ffffffff167c01000000000000000000000000000000000000000000000000000000000281526004018082815260200191505060206040518083038186803b158015612ee357600080fd5b505af4158015612ef7573d6000803e3d6000fd5b505050506040513d6020811015612f0d57600080fd5b810190808051906020019092919050505092505b73__TokenDealerMapping____________________634ca101476002856040518363ffffffff167c0100000000000000000000000000000000000000000000000000000000028152600401808381526020018281526020019250505060206040518083038186803b158015612f9557600080fd5b505af4158015612fa9573d6000803e3d6000fd5b505050506040513d6020811015612fbf57600080fd5b8101908080519060200190929190505050156134175773__TokenDealerMapping____________________63c6ae82086002856040518363ffffffff167c0100000000000000000000000000000000000000000000000000000000028152600401808381526020018281526020019250505060006040518083038186803b15801561304957600080fd5b505af415801561305d573d6000803e3d6000fd5b505050506040513d6000823e3d601f19601f82011682018060405250604081101561308757600080fd5b81019080805164010000000081111561309f57600080fd5b828101905060208101848111156130b557600080fd5b81518560018202830111640100000000821117156130d257600080fd5b50509291906020018051906020019092919050505090508092505081905060008173ffffffffffffffffffffffffffffffffffffffff166265318b336040518263ffffffff167c0100000000000000000000000000000000000000000000000000000000028152600401808273ffffffffffffffffffffffffffffffffffffffff1673ffffffffffffffffffffffffffffffffffffffff168152602001915050602060405180830381600087803b15801561318c57600080fd5b505af11580156131a0573d6000803e3d6000fd5b505050506040513d60208110156131b657600080fd5b810190808051906020019092919050505011806132a8575060008173ffffffffffffffffffffffffffffffffffffffff166346534649336040518263ffffffff167c0100000000000000000000000000000000000000000000000000000000028152600401808273ffffffffffffffffffffffffffffffffffffffff1673ffffffffffffffffffffffffffffffffffffffff168152602001915050602060405180830381600087803b15801561326b57600080fd5b505af115801561327f573d6000803e3d6000fd5b505050506040513d602081101561329557600080fd5b8101908080519060200190929190505050115b15613361578073ffffffffffffffffffffffffffffffffffffffff1663fa09e630336040518263ffffffff167c0100000000000000000000000000000000000000000000000000000000028152600401808273ffffffffffffffffffffffffffffffffffffffff1673ffffffffffffffffffffffffffffffffffffffff168152602001915050600060405180830381600087803b15801561334857600080fd5b505af115801561335c573d6000803e3d6000fd5b505050505b73__TokenDealerMapping____________________634a84c3996002856040518363ffffffff167c0100000000000000000000000000000000000000000000000000000000028152600401808381526020018281526020019250505060206040518083038186803b1580156133d557600080fd5b505af41580156133e9573d6000803e3d6000fd5b505050506040513d60208110156133ff57600080fd5b81019080805190602001909291905050509250612f21565b505050565b6000809054906101000a900473ffffffffffffffffffffffffffffffffffffffff1681565b6040805190810160405280600381526020017f533344000000000000000000000000000000000000000000000000000000000081525081565b60006002600001836040518082805190602001908083835b6020831015156134b75780518252602082019150602081019050602083039250613492565b6001836020036101000a038019825116818451168082178552505050505050905001915050908152602001604051809103902060010160009054906101000a900473ffffffffffffffffffffffffffffffffffffffff169050600073ffffffffffffffffffffffffffffffffffffffff168173ffffffffffffffffffffffffffffffffffffffff161415151561354957fe5b8073ffffffffffffffffffffffffffffffffffffffff16636c197ff533846040518363ffffffff167c0100000000000000000000000000000000000000000000000000000000028152600401808373ffffffffffffffffffffffffffffffffffffffff1673ffffffffffffffffffffffffffffffffffffffff16815260200182815260200192505050600060405180830381600087803b1580156135ec57600080fd5b505af1158015613600573d6000803e3d6000fd5b50505050505050565b60006002600001826040518082805190602001908083835b6020831015156136465780518252602082019150602081019050602083039250613621565b6001836020036101000a038019825116818451168082178552505050505050905001915050908152602001604051809103902060010160009054906101000a900473ffffffffffffffffffffffffffffffffffffffff169050919050565b60006002600001836040518082805190602001908083835b6020831015156136e157805182526020820191506020810190506020830392506136bc565b6001836020036101000a038019825116818451168082178552505050505050905001915050908152602001604051809103902060010160009054906101000a900473ffffffffffffffffffffffffffffffffffffffff169050600073ffffffffffffffffffffffffffffffffffffffff168173ffffffffffffffffffffffffffffffffffffffff161415151561377357fe5b8073ffffffffffffffffffffffffffffffffffffffff1663d65a261733846040518363ffffffff167c0100000000000000000000000000000000000000000000000000000000028152600401808373ffffffffffffffffffffffffffffffffffffffff1673ffffffffffffffffffffffffffffffffffffffff16815260200182815260200192505050600060405180830381600087803b15801561381657600080fd5b505af115801561382a573d6000803e3d6000fd5b50505050505050565b60008060009054906101000a900473ffffffffffffffffffffffffffffffffffffffff1673ffffffffffffffffffffffffffffffffffffffff163373ffffffffffffffffffffffffffffffffffffffff1614151561389057600080fd5b73__TokenDealerMapping____________________63d3a54b0a600285856040518463ffffffff167c010000000000000000000000000000000000000000000000000000000002815260040180848152602001806020018373ffffffffffffffffffffffffffffffffffffffff1673ffffffffffffffffffffffffffffffffffffffff168152602001828103825284818151815260200191508051906020019080838360005b83811015613951578082015181840152602081019050613936565b50505050905090810190601f16801561397e5780820380516001836020036101000a031916815260200191505b5094505050505060206040518083038186803b15801561399d57600080fd5b505af41580156139b1573d6000803e3d6000fd5b505050506040513d60208110156139c757600080fd5b8101908080519060200190929190505050506002800154905092915050565b6000809054906101000a900473ffffffffffffffffffffffffffffffffffffffff1673ffffffffffffffffffffffffffffffffffffffff163373ffffffffffffffffffffffffffffffffffffffff16141515613a4157600080fd5b6001600760008373ffffffffffffffffffffffffffffffffffffffff1673ffffffffffffffffffffffffffffffffffffffff16815260200190815260200160002060006101000a81548160ff02191690831515021790555050565b6000806002600001846040518082805190602001908083835b602083101515613ada5780518252602082019150602081019050602083039250613ab5565b6001836020036101000a038019825116818451168082178552505050505050905001915050908152602001604051809103902060010160009054906101000a900473ffffffffffffffffffffffffffffffffffffffff169050600073ffffffffffffffffffffffffffffffffffffffff168173ffffffffffffffffffffffffffffffffffffffff1614151515613b6c57fe5b8073ffffffffffffffffffffffffffffffffffffffff166265318b846040518263ffffffff167c0100000000000000000000000000000000000000000000000000000000028152600401808273ffffffffffffffffffffffffffffffffffffffff1673ffffffffffffffffffffffffffffffffffffffff168152602001915050602060405180830381600087803b158015613c0657600080fd5b505af1158015613c1a573d6000803e3d6000fd5b505050506040513d6020811015613c3057600080fd5b810190808051906020019092919050505091505092915050565b6000806002600001836040518082805190602001908083835b602083101515613c885780518252602082019150602081019050602083039250613c63565b6001836020036101000a038019825116818451168082178552505050505050905001915050908152602001604051809103902060010160009054906101000a900473ffffffffffffffffffffffffffffffffffffffff169050600073ffffffffffffffffffffffffffffffffffffffff168173ffffffffffffffffffffffffffffffffffffffff1614151515613d1a57fe5b8073ffffffffffffffffffffffffffffffffffffffff16638620410b6040518163ffffffff167c0100000000000000000000000000000000000000000000000000000000028152600401602060405180830381600087803b158015613d7e57600080fd5b505af1158015613d92573d6000803e3d6000fd5b505050506040513d6020811015613da857600080fd5b8101908080519060200190929190505050915050919050565b6000806002600001836040518082805190602001908083835b602083101515613dff5780518252602082019150602081019050602083039250613dda565b6001836020036101000a038019825116818451168082178552505050505050905001915050908152602001604051809103902060010160009054906101000a900473ffffffffffffffffffffffffffffffffffffffff169050600073ffffffffffffffffffffffffffffffffffffffff168173ffffffffffffffffffffffffffffffffffffffff1614151515613e9157fe5b8073ffffffffffffffffffffffffffffffffffffffff16634b7503346040518163ffffffff167c0100000000000000000000000000000000000000000000000000000000028152600401602060405180830381600087803b158015613ef557600080fd5b505af1158015613f09573d6000803e3d6000fd5b505050506040513d6020811015613f1f57600080fd5b8101908080519060200190929190505050915050919050565b6000600860008373ffffffffffffffffffffffffffffffffffffffff1673ffffffffffffffffffffffffffffffffffffffff16815260200190815260200160002060009054906101000a900460ff169050919050565b600160009054906101000a900473ffffffffffffffffffffffffffffffffffffffff1681565b6000809054906101000a900473ffffffffffffffffffffffffffffffffffffffff1673ffffffffffffffffffffffffffffffffffffffff163373ffffffffffffffffffffffffffffffffffffffff1614151561400f57600080fd5b8060068190555050565b60006002600001826040518082805190602001908083835b6020831015156140565780518252602082019150602081019050602083039250614031565b6001836020036101000a038019825116818451168082178552505050505050905001915050908152602001604051809103902060010160009054906101000a900473ffffffffffffffffffffffffffffffffffffffff169050600073ffffffffffffffffffffffffffffffffffffffff168173ffffffffffffffffffffffffffffffffffffffff16141515156140e857fe5b8073ffffffffffffffffffffffffffffffffffffffff1663b42652e9336040518263ffffffff167c0100000000000000000000000000000000000000000000000000000000028152600401808273ffffffffffffffffffffffffffffffffffffffff1673ffffffffffffffffffffffffffffffffffffffff168152602001915050600060405180830381600087803b15801561418357600080fd5b505af1158015614197573d6000803e3d6000fd5b505050505050565b6000806002600001846040518082805190602001908083835b6020831015156141dd57805182526020820191506020810190506020830392506141b8565b6001836020036101000a038019825116818451168082178552505050505050905001915050908152602001604051809103902060010160009054906101000a900473ffffffffffffffffffffffffffffffffffffffff169050600073ffffffffffffffffffffffffffffffffffffffff168173ffffffffffffffffffffffffffffffffffffffff161415151561426f57fe5b8073ffffffffffffffffffffffffffffffffffffffff166346534649846040518263ffffffff167c0100000000000000000000000000000000000000000000000000000000028152600401808273ffffffffffffffffffffffffffffffffffffffff1673ffffffffffffffffffffffffffffffffffffffff168152602001915050602060405180830381600087803b15801561430a57600080fd5b505af115801561431e573d6000803e3d6000fd5b505050506040513d602081101561433457600080fd5b810190808051906020019092919050505091505092915050565b6000809054906101000a900473ffffffffffffffffffffffffffffffffffffffff1673ffffffffffffffffffffffffffffffffffffffff163373ffffffffffffffffffffffffffffffffffffffff161415156143a957600080fd5b6000600860008373ffffffffffffffffffffffffffffffffffffffff1673ffffffffffffffffffffffffffffffffffffffff16815260200190815260200160002060006101000a81548160ff02191690831515021790555050565b6000806002600001836040518082805190602001908083835b602083101515614442578051825260208201915060208101905060208303925061441d565b6001836020036101000a038019825116818451168082178552505050505050905001915050908152602001604051809103902060010160009054906101000a900473ffffffffffffffffffffffffffffffffffffffff169050600073ffffffffffffffffffffffffffffffffffffffff168173ffffffffffffffffffffffffffffffffffffffff16141515156144d457fe5b8073ffffffffffffffffffffffffffffffffffffffff166318160ddd6040518163ffffffff167c0100000000000000000000000000000000000000000000000000000000028152600401602060405180830381600087803b15801561453857600080fd5b505af115801561454c573d6000803e3d6000fd5b505050506040513d602081101561456257600080fd5b8101908080519060200190929190505050915050919050565b6000809054906101000a900473ffffffffffffffffffffffffffffffffffffffff1673ffffffffffffffffffffffffffffffffffffffff163373ffffffffffffffffffffffffffffffffffffffff161415156145d657600080fd5b80600160006101000a81548173ffffffffffffffffffffffffffffffffffffffff021916908373ffffffffffffffffffffffffffffffffffffffff16021790555050565b6000806002600001846040518082805190602001908083835b6020831015156146585780518252602082019150602081019050602083039250614633565b6001836020036101000a038019825116818451168082178552505050505050905001915050908152602001604051809103902060010160009054906101000a900473ffffffffffffffffffffffffffffffffffffffff169050600073ffffffffffffffffffffffffffffffffffffffff168173ffffffffffffffffffffffffffffffffffffffff16141515156146ea57fe5b8073ffffffffffffffffffffffffffffffffffffffff1663b73f34b4846040518263ffffffff167c010000000000000000000000000000000000000000000000000000000002815260040180828152602001915050602060405180830381600087803b15801561475957600080fd5b505af115801561476d573d6000803e3d6000fd5b505050506040513d602081101561478357600080fd5b810190808051906020019092919050505091505092915050565b600654815600a165627a7a72305820f44f4e00f3af9f8bc9c43178b6816e8d80f6804e16a298f6ac52922c838b43c80029",
  "source": "pragma solidity ^0.4.24;\r\n\r\n\r\nimport \"zeppelin-solidity/contracts/ownership/Claimable.sol\";\r\nimport \"../contracts/interface/TokenDealerInterface.sol\";\r\nimport \"../contracts/library/TokenDealerMapping.sol\";\r\nimport \"../contracts/library/StringUtils.sol\";\r\n\r\ncontract S3DProtocol is Claimable{\r\n    TokenDealerMapping.itmap tokenDealerMap;\r\n\r\n    uint256 public referralRequirement = 500e18;\r\n    uint256 public arbitrageRequirement = 1000e18;\r\n\r\n    string constant internal ethSymbol = \"eth\";\r\n\r\n    uint8 constant public decimals = 18;\r\n    string constant public name = \"S3D Token\";\r\n    string constant public symbol = \"S3D\";\r\n\r\n    mapping(address => bool) internal referralers;\r\n    mapping(address => bool) internal arbitragers;\r\n\r\n    function addReferraler(address _customerAddress)\r\n        public \r\n        onlyOwner()\r\n    {\r\n        referralers[_customerAddress] = true;\r\n    }\r\n\r\n    function removeReferraler(address _customerAddress)\r\n        public\r\n        onlyOwner()\r\n    {\r\n        referralers[_customerAddress] = false;\r\n    }\r\n\r\n    function addArbitrager(address _customerAddress)\r\n        public \r\n        onlyOwner()\r\n    {\r\n        arbitragers[_customerAddress] = true;\r\n    }\r\n\r\n    function removeArbitrager(address _customerAddress)\r\n        public\r\n        onlyOwner()\r\n    {\r\n        arbitragers[_customerAddress] = false;\r\n    }\r\n\r\n    function isReferraler(address _customerAddress)\r\n        public\r\n        view\r\n        returns(bool)\r\n    {\r\n        return referralers[_customerAddress];\r\n    }\r\n\r\n    function isArbitrager(address _customerAddress)\r\n        public\r\n        view\r\n        returns(bool)\r\n    {\r\n        return arbitragers[_customerAddress];\r\n    }\r\n\r\n    function addDealer(string _symbol, address _dealerAddress) \r\n        public \r\n        onlyOwner()\r\n        returns (uint size) \r\n    {\r\n        TokenDealerMapping.insert(tokenDealerMap, _symbol, _dealerAddress);\r\n        return tokenDealerMap.size;\r\n    }\r\n\r\n    function getDealer(string _symbol) \r\n        public \r\n        view \r\n        returns (address) \r\n    {\r\n        return tokenDealerMap.data[_symbol].value;\r\n    }\r\n\r\n    function setReferralRequirement(uint256 _amountOfTokens) \r\n        public\r\n        onlyOwner()  \r\n    {\r\n        referralRequirement = _amountOfTokens;\r\n    }\r\n\r\n    function setArbitrageRequirement(uint256 _amountOfTokens) \r\n        public\r\n        onlyOwner()  \r\n    {\r\n        arbitrageRequirement = _amountOfTokens;\r\n    }\r\n    \r\n    function balanceOf( address _customerAddress) \r\n        public \r\n        view \r\n        returns (uint256 _sum) \r\n    {\r\n        for (uint i = TokenDealerMapping.iterate_start(tokenDealerMap); \r\n             TokenDealerMapping.iterate_valid(tokenDealerMap, i); \r\n             i = TokenDealerMapping.iterate_next(tokenDealerMap, i))\r\n        {\r\n            address _value;\r\n            (, _value) = TokenDealerMapping.iterate_get(tokenDealerMap, i);\r\n            TokenDealerInterface _dealerContract = TokenDealerInterface(_value);\r\n            _sum += _dealerContract.balanceOf(_customerAddress);\r\n        } \r\n    }\r\n\r\n    function balanceOfOneToken(string _symbol, address _customerAddress) \r\n        public \r\n        view \r\n        returns (uint256)\r\n    {\r\n        TokenDealerInterface _dealerContract = TokenDealerInterface(tokenDealerMap.data[_symbol].value);\r\n        assert(_dealerContract != address(0));\r\n        return _dealerContract.balanceOf(_customerAddress);\r\n    }\r\n\r\n    //add all s3d\r\n    function totalSupply() \r\n        public \r\n        view \r\n        returns (uint256 _sum) \r\n    {\r\n        _sum = 0;\r\n        for (uint i = TokenDealerMapping.iterate_start(tokenDealerMap);\r\n             TokenDealerMapping.iterate_valid(tokenDealerMap, i);\r\n             i = TokenDealerMapping.iterate_next(tokenDealerMap, i))\r\n        {\r\n            address _value;\r\n            (, _value) = TokenDealerMapping.iterate_get(tokenDealerMap, i);\r\n            TokenDealerInterface _dealerContract = TokenDealerInterface(_value);\r\n            _sum += _dealerContract.totalSupply();\r\n        }\r\n    }\r\n\r\n    function totalSupplyOfOneToken(string _symbol) \r\n        public \r\n        view \r\n        returns (uint256) \r\n    {\r\n        TokenDealerInterface _dealerContract = TokenDealerInterface(tokenDealerMap.data[_symbol].value);\r\n        assert(_dealerContract != address(0));\r\n        return _dealerContract.totalSupply();\r\n    }\r\n\r\n    modifier arbitrageBarrier() \r\n    {\r\n        require(balanceOf(msg.sender) >= arbitrageRequirement || isArbitrager(msg.sender));\r\n        _;\r\n    }\r\n\r\n    function buy(string _symbol, uint256 _tokenAmount, address _referredBy)\r\n        public\r\n        payable\r\n        returns(uint256)\r\n    {\r\n        TokenDealerInterface _dealerContract = TokenDealerInterface(tokenDealerMap.data[_symbol].value);\r\n        assert(_dealerContract != address(0));\r\n\r\n        address _referrer = _referredBy;\r\n        if( \r\n            // no cheating!\r\n            _referrer == msg.sender \r\n            \r\n            // does the referrer have at least X whole tokens?\r\n            // i.e is the referrer a godly chad masternode\r\n            || (balanceOf(_referrer) < referralRequirement)\r\n\r\n            // not in referal referraler list\r\n            || !isReferraler(_referrer)\r\n        ) {\r\n            _referrer = 0x0000000000000000000000000000000000000000;\r\n        }\r\n\r\n        if(StringUtils.compare(_symbol, ethSymbol) == 0) {\r\n            _dealerContract.buy.value(msg.value)(msg.sender, msg.value, _referrer);\r\n        } else {\r\n            _dealerContract.buy(msg.sender, _tokenAmount, _referrer);\r\n        }\r\n    }\r\n\r\n    function reinvest(string _symbol, uint256 _buyAmount) \r\n        public\r\n    {\r\n        TokenDealerInterface _dealerContract = TokenDealerInterface(tokenDealerMap.data[_symbol].value);\r\n        assert(_dealerContract != address(0));\r\n        _dealerContract.reinvest(msg.sender, _buyAmount);\r\n    }\r\n\r\n    function exit(string _symbol) \r\n        public \r\n    {\r\n        TokenDealerInterface _dealerContract = TokenDealerInterface(tokenDealerMap.data[_symbol].value);\r\n        assert(_dealerContract != address(0));\r\n        _dealerContract.exit(msg.sender);\r\n    }\r\n\r\n\r\n    function withdrawAll() \r\n        public \r\n    {\r\n        for (uint i = TokenDealerMapping.iterate_start(tokenDealerMap); \r\n             TokenDealerMapping.iterate_valid(tokenDealerMap, i); \r\n             i = TokenDealerMapping.iterate_next(tokenDealerMap, i))\r\n        {\r\n            address _value;\r\n            (, _value) = TokenDealerMapping.iterate_get(tokenDealerMap, i);\r\n            TokenDealerInterface _dealerContract = TokenDealerInterface(_value);\r\n            if (_dealerContract.dividendsOf(msg.sender) > 0 || _dealerContract.referralBalanceOf(msg.sender) > 0) {\r\n                _dealerContract.withdrawAll(msg.sender);\r\n            }\r\n        }\r\n    }\r\n\r\n    function withdraw(string _symbol, uint256 _withdrawAmount) \r\n        public\r\n    {\r\n        TokenDealerInterface _dealerContract = TokenDealerInterface(tokenDealerMap.data[_symbol].value);\r\n        assert(_dealerContract != address(0));\r\n        _dealerContract.withdraw(msg.sender, _withdrawAmount);\r\n    }\r\n\r\n    function sell(string _symbol, uint256 _amountOfTokens) \r\n        public \r\n    {\r\n        TokenDealerInterface _dealerContract = TokenDealerInterface(tokenDealerMap.data[_symbol].value);\r\n        assert(_dealerContract != address(0));\r\n        _dealerContract.sell(msg.sender, _amountOfTokens);\r\n    }\r\n\r\n    function totalBalance(string _symbol) \r\n        public \r\n        view \r\n        returns(uint256) \r\n    {\r\n        TokenDealerInterface _dealerContract = TokenDealerInterface(tokenDealerMap.data[_symbol].value);\r\n        assert(_dealerContract != address(0));\r\n        return _dealerContract.totalBalance();\r\n    }\r\n\r\n\r\n    function dividendsOf(string _symbol, address _customerAddress) \r\n        public\r\n        view  \r\n        returns(uint256) \r\n    {\r\n        TokenDealerInterface _dealerContract = TokenDealerInterface(tokenDealerMap.data[_symbol].value);\r\n        assert(_dealerContract != address(0));\r\n        return _dealerContract.dividendsOf(_customerAddress);\r\n    }\r\n\r\n    function referralBalanceOf(string _symbol, address _customerAddress) \r\n        public\r\n        view  \r\n        returns(uint256) \r\n    {\r\n        TokenDealerInterface _dealerContract = TokenDealerInterface(tokenDealerMap.data[_symbol].value);\r\n        assert(_dealerContract != address(0));\r\n        return _dealerContract.referralBalanceOf(_customerAddress);\r\n    }\r\n\r\n    function sellPrice(string _symbol) \r\n        public \r\n        view \r\n        returns(uint256) \r\n    {\r\n        TokenDealerInterface _dealerContract = TokenDealerInterface(tokenDealerMap.data[_symbol].value);\r\n        assert(_dealerContract != address(0));\r\n        return _dealerContract.sellPrice();\r\n    }\r\n\r\n    function buyPrice(string _symbol) \r\n        public \r\n        view \r\n        returns(uint256) \r\n    {\r\n        TokenDealerInterface _dealerContract = TokenDealerInterface(tokenDealerMap.data[_symbol].value);\r\n        assert(_dealerContract != address(0));\r\n        return _dealerContract.buyPrice();\r\n    }\r\n\r\n    function calculateTokensReceived(string _symbol, uint256 _buyTokenToSpend) \r\n        public \r\n        view \r\n        returns(uint256) \r\n    {\r\n        TokenDealerInterface _dealerContract = TokenDealerInterface(tokenDealerMap.data[_symbol].value);\r\n        assert(_dealerContract != address(0));\r\n        return _dealerContract.calculateTokensReceived(_buyTokenToSpend);\r\n    }\r\n\r\n    function calculateBuyTokenSpend(string _symbol, uint256 _tokensToBuy) \r\n        public \r\n        view \r\n        returns(uint256) \r\n    {\r\n        TokenDealerInterface _dealerContract = TokenDealerInterface(tokenDealerMap.data[_symbol].value);\r\n        assert(_dealerContract != address(0));\r\n        return _dealerContract.calculateBuyTokenSpend(_tokensToBuy);\r\n    }\r\n\r\n    function calculateBuyTokenReceived(string _symbol, uint256 _tokensToSell) \r\n        public \r\n        view \r\n        returns(uint256) \r\n    {\r\n        TokenDealerInterface _dealerContract = TokenDealerInterface(tokenDealerMap.data[_symbol].value);\r\n        assert(_dealerContract != address(0));\r\n        return _dealerContract.calculateBuyTokenReceived(_tokensToSell);\r\n    }\r\n\r\n    function arbitrageTokens(string _fromSymbol, string _toSymbol, uint256 _amountOfTokens) \r\n        public\r\n        arbitrageBarrier() \r\n    {\r\n        TokenDealerInterface _escapeContract = TokenDealerInterface(tokenDealerMap.data[_fromSymbol].value);\r\n        assert(_escapeContract != address(0));\r\n\r\n        uint256 _tokens = _escapeContract.escapeTokens(msg.sender, _amountOfTokens); \r\n        assert(_tokens == _amountOfTokens);\r\n\r\n        TokenDealerInterface _dealerContract = TokenDealerInterface(tokenDealerMap.data[_toSymbol].value);\r\n        assert(_dealerContract != address(0));\r\n\r\n        _dealerContract.arbitrageTokens(msg.sender, _amountOfTokens);\r\n    }\r\n}",
  "sourcePath": "D:\\work\\truffle\\s3d\\contracts\\S3DProtocol.sol",
  "compiler": {
    "name": "solc",
    "version": "0.4.24+commit.e67f0147.Emscripten.clang"
  },
  "schemaVersion": "2.0.1",
  "updatedAt": "2018-08-25T11:00:05.584Z"
}