{
  "contractName": "S3DProtocol",
  "abi": [
    {
      "constant": true,
      "inputs": [],
      "name": "ethSymbol",
      "outputs": [
        {
          "name": "",
          "type": "string"
        }
      ],
      "payable": false,
      "stateMutability": "view",
      "type": "function"
    },
    {
      "constant": false,
      "inputs": [],
      "name": "claimOwnership",
      "outputs": [],
      "payable": false,
      "stateMutability": "nonpayable",
      "type": "function"
    },
    {
      "constant": true,
      "inputs": [],
      "name": "stakingRequirement",
      "outputs": [
        {
          "name": "",
          "type": "uint256"
        }
      ],
      "payable": false,
      "stateMutability": "view",
      "type": "function"
    },
    {
      "constant": false,
      "inputs": [],
      "name": "renounceOwnership",
      "outputs": [],
      "payable": false,
      "stateMutability": "nonpayable",
      "type": "function"
    },
    {
      "constant": true,
      "inputs": [],
      "name": "owner",
      "outputs": [
        {
          "name": "",
          "type": "address"
        }
      ],
      "payable": false,
      "stateMutability": "view",
      "type": "function"
    },
    {
      "constant": true,
      "inputs": [],
      "name": "pendingOwner",
      "outputs": [
        {
          "name": "",
          "type": "address"
        }
      ],
      "payable": false,
      "stateMutability": "view",
      "type": "function"
    },
    {
      "constant": false,
      "inputs": [
        {
          "name": "newOwner",
          "type": "address"
        }
      ],
      "name": "transferOwnership",
      "outputs": [],
      "payable": false,
      "stateMutability": "nonpayable",
      "type": "function"
    },
    {
      "constant": true,
      "inputs": [],
      "name": "arbitrageRequirement",
      "outputs": [
        {
          "name": "",
          "type": "uint256"
        }
      ],
      "payable": false,
      "stateMutability": "view",
      "type": "function"
    },
    {
      "anonymous": false,
      "inputs": [
        {
          "indexed": false,
          "name": "",
          "type": "string"
        },
        {
          "indexed": false,
          "name": "",
          "type": "uint256"
        }
      ],
      "name": "LogUint",
      "type": "event"
    },
    {
      "anonymous": false,
      "inputs": [
        {
          "indexed": false,
          "name": "",
          "type": "string"
        },
        {
          "indexed": false,
          "name": "",
          "type": "int256"
        }
      ],
      "name": "LogInt",
      "type": "event"
    },
    {
      "anonymous": false,
      "inputs": [
        {
          "indexed": false,
          "name": "",
          "type": "string"
        },
        {
          "indexed": false,
          "name": "",
          "type": "bytes"
        }
      ],
      "name": "LogBytes",
      "type": "event"
    },
    {
      "anonymous": false,
      "inputs": [
        {
          "indexed": false,
          "name": "",
          "type": "string"
        },
        {
          "indexed": false,
          "name": "",
          "type": "bytes32"
        }
      ],
      "name": "LogBytes32",
      "type": "event"
    },
    {
      "anonymous": false,
      "inputs": [
        {
          "indexed": false,
          "name": "",
          "type": "string"
        },
        {
          "indexed": false,
          "name": "",
          "type": "address"
        }
      ],
      "name": "LogAddress",
      "type": "event"
    },
    {
      "anonymous": false,
      "inputs": [
        {
          "indexed": false,
          "name": "",
          "type": "string"
        },
        {
          "indexed": false,
          "name": "",
          "type": "bool"
        }
      ],
      "name": "LogBool",
      "type": "event"
    },
    {
      "anonymous": false,
      "inputs": [
        {
          "indexed": true,
          "name": "previousOwner",
          "type": "address"
        }
      ],
      "name": "OwnershipRenounced",
      "type": "event"
    },
    {
      "anonymous": false,
      "inputs": [
        {
          "indexed": true,
          "name": "previousOwner",
          "type": "address"
        },
        {
          "indexed": true,
          "name": "newOwner",
          "type": "address"
        }
      ],
      "name": "OwnershipTransferred",
      "type": "event"
    },
    {
      "constant": false,
      "inputs": [
        {
          "name": "symbol",
          "type": "string"
        },
        {
          "name": "dealerAddress",
          "type": "address"
        }
      ],
      "name": "addDealer",
      "outputs": [
        {
          "name": "size",
          "type": "uint256"
        }
      ],
      "payable": false,
      "stateMutability": "nonpayable",
      "type": "function"
    },
    {
      "constant": true,
      "inputs": [
        {
          "name": "symbol",
          "type": "string"
        }
      ],
      "name": "getDealer",
      "outputs": [
        {
          "name": "",
          "type": "address"
        }
      ],
      "payable": false,
      "stateMutability": "view",
      "type": "function"
    },
    {
      "constant": false,
      "inputs": [
        {
          "name": "_amountOfTokens",
          "type": "uint256"
        }
      ],
      "name": "setStakingRequirement",
      "outputs": [],
      "payable": false,
      "stateMutability": "nonpayable",
      "type": "function"
    },
    {
      "constant": false,
      "inputs": [
        {
          "name": "_amountOfTokens",
          "type": "uint256"
        }
      ],
      "name": "setArbitrageRequirement",
      "outputs": [],
      "payable": false,
      "stateMutability": "nonpayable",
      "type": "function"
    },
    {
      "constant": true,
      "inputs": [
        {
          "name": "_customerAddress",
          "type": "address"
        }
      ],
      "name": "totalBalanceOf",
      "outputs": [
        {
          "name": "sum",
          "type": "uint256"
        }
      ],
      "payable": false,
      "stateMutability": "view",
      "type": "function"
    },
    {
      "constant": true,
      "inputs": [
        {
          "name": "symbol",
          "type": "string"
        },
        {
          "name": "_customerAddress",
          "type": "address"
        }
      ],
      "name": "balanceOf",
      "outputs": [
        {
          "name": "",
          "type": "uint256"
        }
      ],
      "payable": false,
      "stateMutability": "view",
      "type": "function"
    },
    {
      "constant": true,
      "inputs": [],
      "name": "totalSupply",
      "outputs": [
        {
          "name": "sum",
          "type": "uint256"
        }
      ],
      "payable": false,
      "stateMutability": "view",
      "type": "function"
    },
    {
      "constant": false,
      "inputs": [
        {
          "name": "symbol",
          "type": "string"
        },
        {
          "name": "_tokenAmount",
          "type": "uint256"
        },
        {
          "name": "_referredBy",
          "type": "address"
        }
      ],
      "name": "buy",
      "outputs": [
        {
          "name": "",
          "type": "uint256"
        }
      ],
      "payable": true,
      "stateMutability": "payable",
      "type": "function"
    },
    {
      "constant": false,
      "inputs": [
        {
          "name": "symbol",
          "type": "string"
        },
        {
          "name": "buyAmount",
          "type": "uint256"
        }
      ],
      "name": "reinvest",
      "outputs": [],
      "payable": false,
      "stateMutability": "nonpayable",
      "type": "function"
    },
    {
      "constant": false,
      "inputs": [
        {
          "name": "symbol",
          "type": "string"
        }
      ],
      "name": "exit",
      "outputs": [],
      "payable": false,
      "stateMutability": "nonpayable",
      "type": "function"
    },
    {
      "constant": false,
      "inputs": [],
      "name": "withdrawAll",
      "outputs": [],
      "payable": false,
      "stateMutability": "nonpayable",
      "type": "function"
    },
    {
      "constant": false,
      "inputs": [
        {
          "name": "symbol",
          "type": "string"
        },
        {
          "name": "withdrawAmount",
          "type": "uint256"
        }
      ],
      "name": "withdraw",
      "outputs": [],
      "payable": false,
      "stateMutability": "nonpayable",
      "type": "function"
    },
    {
      "constant": false,
      "inputs": [
        {
          "name": "symbol",
          "type": "string"
        },
        {
          "name": "_amountOfTokens",
          "type": "uint256"
        }
      ],
      "name": "sell",
      "outputs": [],
      "payable": false,
      "stateMutability": "nonpayable",
      "type": "function"
    },
    {
      "constant": true,
      "inputs": [
        {
          "name": "symbol",
          "type": "string"
        }
      ],
      "name": "totalBalance",
      "outputs": [
        {
          "name": "",
          "type": "uint256"
        }
      ],
      "payable": false,
      "stateMutability": "view",
      "type": "function"
    },
    {
      "constant": true,
      "inputs": [
        {
          "name": "symbol",
          "type": "string"
        },
        {
          "name": "_includeReferralBonus",
          "type": "bool"
        }
      ],
      "name": "myDividends",
      "outputs": [
        {
          "name": "",
          "type": "uint256"
        }
      ],
      "payable": false,
      "stateMutability": "view",
      "type": "function"
    },
    {
      "constant": true,
      "inputs": [
        {
          "name": "symbol",
          "type": "string"
        },
        {
          "name": "_customerAddress",
          "type": "address"
        }
      ],
      "name": "dividendsOf",
      "outputs": [
        {
          "name": "",
          "type": "uint256"
        }
      ],
      "payable": false,
      "stateMutability": "view",
      "type": "function"
    },
    {
      "constant": true,
      "inputs": [
        {
          "name": "symbol",
          "type": "string"
        },
        {
          "name": "_customerAddress",
          "type": "address"
        }
      ],
      "name": "referralBalanceOf",
      "outputs": [
        {
          "name": "",
          "type": "uint256"
        }
      ],
      "payable": false,
      "stateMutability": "view",
      "type": "function"
    },
    {
      "constant": true,
      "inputs": [
        {
          "name": "symbol",
          "type": "string"
        }
      ],
      "name": "sellPrice",
      "outputs": [
        {
          "name": "",
          "type": "uint256"
        }
      ],
      "payable": false,
      "stateMutability": "view",
      "type": "function"
    },
    {
      "constant": true,
      "inputs": [
        {
          "name": "symbol",
          "type": "string"
        }
      ],
      "name": "buyPrice",
      "outputs": [
        {
          "name": "",
          "type": "uint256"
        }
      ],
      "payable": false,
      "stateMutability": "view",
      "type": "function"
    },
    {
      "constant": true,
      "inputs": [
        {
          "name": "symbol",
          "type": "string"
        },
        {
          "name": "_ethereumToSpend",
          "type": "uint256"
        }
      ],
      "name": "calculateTokensReceived",
      "outputs": [
        {
          "name": "",
          "type": "uint256"
        }
      ],
      "payable": false,
      "stateMutability": "view",
      "type": "function"
    },
    {
      "constant": true,
      "inputs": [
        {
          "name": "symbol",
          "type": "string"
        },
        {
          "name": "_tokensToBuy",
          "type": "uint256"
        }
      ],
      "name": "calculateBuyTokenSpend",
      "outputs": [
        {
          "name": "",
          "type": "uint256"
        }
      ],
      "payable": false,
      "stateMutability": "view",
      "type": "function"
    },
    {
      "constant": true,
      "inputs": [
        {
          "name": "symbol",
          "type": "string"
        },
        {
          "name": "_tokensToSell",
          "type": "uint256"
        }
      ],
      "name": "calculateBuyTokenReceived",
      "outputs": [
        {
          "name": "",
          "type": "uint256"
        }
      ],
      "payable": false,
      "stateMutability": "view",
      "type": "function"
    },
    {
      "constant": false,
      "inputs": [
        {
          "name": "fromSymbol",
          "type": "string"
        },
        {
          "name": "sellSymbol",
          "type": "string"
        },
        {
          "name": "_amountOfTokens",
          "type": "uint256"
        }
      ],
      "name": "arbitrageTokens",
      "outputs": [],
      "payable": false,
      "stateMutability": "nonpayable",
      "type": "function"
    }
  ],
  "bytecode": "0x6080604052681b1ae4d6e2ef500000600555683635c9adc5dea00000600655336000806101000a81548173ffffffffffffffffffffffffffffffffffffffff021916908373ffffffffffffffffffffffffffffffffffffffff1602179055506140ce8061006d6000396000f30060806040526004361061018b576000357c0100000000000000000000000000000000000000000000000000000000900463ffffffff168063040318521461019057806318160ddd1461022d5780632c0f7f4f1461025857806330b39a62146102e857806333347aa81461035b578063365366fb146103e2578063472c16a51461047c5780634b0ee02a146105355780634e71e0c81461058c57806356d399e8146105a3578063715018a6146105ce57806377fe0500146105e55780638328b6101461066c57806384d01f6914610699578063853828b6146107165780638da5cb5b1461072d5780639d64dc8e146107845780639f6563211461080d578063a0dbb47014610880578063b609e72014610929578063b70aa4f91461099c578063c7a2136914610a39578063d539c0f814610ad6578063d89c1a0014610b53578063e30c397814610bd0578063e4ddcbc814610c27578063e7fb538814610c54578063e960303314610cbd578063f2fde38b14610d5a578063f585207c14610d9d578063fb103fbb14610e24575b600080fd5b34801561019c57600080fd5b50610217600480360381019080803590602001908201803590602001908080601f0160208091040260200160405190810160405280939291908181526020018383808284378201915050505050509192919290803573ffffffffffffffffffffffffffffffffffffffff169060200190929190505050610e4f565b6040518082815260200191505060405180910390f35b34801561023957600080fd5b50610242611001565b6040518082815260200191505060405180910390f35b34801561026457600080fd5b5061026d6113e8565b6040518080602001828103825283818151815260200191508051906020019080838360005b838110156102ad578082015181840152602081019050610292565b50505050905090810190601f1680156102da5780820380516001836020036101000a031916815260200191505b509250505060405180910390f35b3480156102f457600080fd5b50610359600480360381019080803590602001908201803590602001908080601f016020809104026020016040519081016040528093929190818152602001838380828437820191505050505050919291929080359060200190929190505050611421565b005b34801561036757600080fd5b506103cc600480360381019080803590602001908201803590602001908080601f0160208091040260200160405190810160405280939291908181526020018383808284378201915050505050509192919290803590602001909291905050506115b3565b6040518082815260200191505060405180910390f35b610466600480360381019080803590602001908201803590602001908080601f016020809104026020016040519081016040528093929190818152602001838380828437820191505050505050919291929080359060200190929190803573ffffffffffffffffffffffffffffffffffffffff169060200190929190505050611739565b6040518082815260200191505060405180910390f35b34801561048857600080fd5b50610533600480360381019080803590602001908201803590602001908080601f0160208091040260200160405190810160405280939291908181526020018383808284378201915050505050509192919290803590602001908201803590602001908080601f016020809104026020016040519081016040528093929190818152602001838380828437820191505050505050919291929080359060200190929190505050611c43565b005b34801561054157600080fd5b50610576600480360381019080803573ffffffffffffffffffffffffffffffffffffffff169060200190929190505050611fb2565b6040518082815260200191505060405180910390f35b34801561059857600080fd5b506105a16123ce565b005b3480156105af57600080fd5b506105b861256d565b6040518082815260200191505060405180910390f35b3480156105da57600080fd5b506105e3612573565b005b3480156105f157600080fd5b50610656600480360381019080803590602001908201803590602001908080601f016020809104026020016040519081016040528093929190818152602001838380828437820191505050505050919291929080359060200190929190505050612675565b6040518082815260200191505060405180910390f35b34801561067857600080fd5b50610697600480360381019080803590602001909291905050506127fb565b005b3480156106a557600080fd5b50610700600480360381019080803590602001908201803590602001908080601f0160208091040260200160405190810160405280939291908181526020018383808284378201915050505050509192919290505050612860565b6040518082815260200191505060405180910390f35b34801561072257600080fd5b5061072b6129da565b005b34801561073957600080fd5b50610742612eb7565b604051808273ffffffffffffffffffffffffffffffffffffffff1673ffffffffffffffffffffffffffffffffffffffff16815260200191505060405180910390f35b34801561079057600080fd5b506107f7600480360381019080803590602001908201803590602001908080601f0160208091040260200160405190810160405280939291908181526020018383808284378201915050505050509192919290803515159060200190929190505050612edc565b6040518082815260200191505060405180910390f35b34801561081957600080fd5b5061087e600480360381019080803590602001908201803590602001908080601f01602080910402602001604051908101604052809392919081815260200183838082843782019150505050505091929192908035906020019092919050505061309a565b005b34801561088c57600080fd5b506108e7600480360381019080803590602001908201803590602001908080601f016020809104026020016040519081016040528093929190818152602001838380828437820191505050505050919291929050505061322c565b604051808273ffffffffffffffffffffffffffffffffffffffff1673ffffffffffffffffffffffffffffffffffffffff16815260200191505060405180910390f35b34801561093557600080fd5b5061099a600480360381019080803590602001908201803590602001908080601f0160208091040260200160405190810160405280939291908181526020018383808284378201915050505050509192919290803590602001909291905050506132c7565b005b3480156109a857600080fd5b50610a23600480360381019080803590602001908201803590602001908080601f0160208091040260200160405190810160405280939291908181526020018383808284378201915050505050509192919290803573ffffffffffffffffffffffffffffffffffffffff169060200190929190505050613459565b6040518082815260200191505060405180910390f35b348015610a4557600080fd5b50610ac0600480360381019080803590602001908201803590602001908080601f0160208091040260200160405190810160405280939291908181526020018383808284378201915050505050509192919290803573ffffffffffffffffffffffffffffffffffffffff16906020019092919050505061360c565b6040518082815260200191505060405180910390f35b348015610ae257600080fd5b50610b3d600480360381019080803590602001908201803590602001908080601f01602080910402602001604051908101604052809392919081815260200183838082843782019150505050505091929192905050506137bd565b6040518082815260200191505060405180910390f35b348015610b5f57600080fd5b50610bba600480360381019080803590602001908201803590602001908080601f0160208091040260200160405190810160405280939291908181526020018383808284378201915050505050509192919290505050613937565b6040518082815260200191505060405180910390f35b348015610bdc57600080fd5b50610be5613ab1565b604051808273ffffffffffffffffffffffffffffffffffffffff1673ffffffffffffffffffffffffffffffffffffffff16815260200191505060405180910390f35b348015610c3357600080fd5b50610c5260048036038101908080359060200190929190505050613ad7565b005b348015610c6057600080fd5b50610cbb600480360381019080803590602001908201803590602001908080601f0160208091040260200160405190810160405280939291908181526020018383808284378201915050505050509192919290505050613b3c565b005b348015610cc957600080fd5b50610d44600480360381019080803590602001908201803590602001908080601f0160208091040260200160405190810160405280939291908181526020018383808284378201915050505050509192919290803573ffffffffffffffffffffffffffffffffffffffff169060200190929190505050613cc5565b6040518082815260200191505060405180910390f35b348015610d6657600080fd5b50610d9b600480360381019080803573ffffffffffffffffffffffffffffffffffffffff169060200190929190505050613e77565b005b348015610da957600080fd5b50610e0e600480360381019080803590602001908201803590602001908080601f016020809104026020016040519081016040528093929190818152602001838380828437820191505050505050919291929080359060200190929190505050613f16565b6040518082815260200191505060405180910390f35b348015610e3057600080fd5b50610e3961409c565b6040518082815260200191505060405180910390f35b6000806002600001846040518082805190602001908083835b602083101515610e8d5780518252602082019150602081019050602083039250610e68565b6001836020036101000a038019825116818451168082178552505050505050905001915050908152602001604051809103902060010160009054906101000a900473ffffffffffffffffffffffffffffffffffffffff169050600073ffffffffffffffffffffffffffffffffffffffff168173ffffffffffffffffffffffffffffffffffffffff1614151515610f2257600080fd5b8073ffffffffffffffffffffffffffffffffffffffff166370a08231846040518263ffffffff167c0100000000000000000000000000000000000000000000000000000000028152600401808273ffffffffffffffffffffffffffffffffffffffff1673ffffffffffffffffffffffffffffffffffffffff168152602001915050602060405180830381600087803b158015610fbd57600080fd5b505af1158015610fd1573d6000803e3d6000fd5b505050506040513d6020811015610fe757600080fd5b810190808051906020019092919050505091505092915050565b60008060606000806000945073__TokenDealerMapping____________________632dc131b260026040518263ffffffff167c01000000000000000000000000000000000000000000000000000000000281526004018082815260200191505060206040518083038186803b15801561107957600080fd5b505af415801561108d573d6000803e3d6000fd5b505050506040513d60208110156110a357600080fd5b810190808051906020019092919050505093505b73__TokenDealerMapping____________________634ca101476002866040518363ffffffff167c0100000000000000000000000000000000000000000000000000000000028152600401808381526020018281526020019250505060206040518083038186803b15801561112b57600080fd5b505af415801561113f573d6000803e3d6000fd5b505050506040513d602081101561115557600080fd5b8101908080519060200190929190505050156113e15773__TokenDealerMapping____________________63c6ae82086002866040518363ffffffff167c0100000000000000000000000000000000000000000000000000000000028152600401808381526020018281526020019250505060006040518083038186803b1580156111df57600080fd5b505af41580156111f3573d6000803e3d6000fd5b505050506040513d6000823e3d601f19601f82011682018060405250604081101561121d57600080fd5b81019080805164010000000081111561123557600080fd5b8281019050602081018481111561124b57600080fd5b815185600182028301116401000000008211171561126857600080fd5b50509291906020018051906020019092919050505080935081945050508190508073ffffffffffffffffffffffffffffffffffffffff166318160ddd6040518163ffffffff167c0100000000000000000000000000000000000000000000000000000000028152600401602060405180830381600087803b1580156112ec57600080fd5b505af1158015611300573d6000803e3d6000fd5b505050506040513d602081101561131657600080fd5b81019080805190602001909291905050508501945073__TokenDealerMapping____________________634a84c3996002866040518363ffffffff167c0100000000000000000000000000000000000000000000000000000000028152600401808381526020018281526020019250505060206040518083038186803b15801561139f57600080fd5b505af41580156113b3573d6000803e3d6000fd5b505050506040513d60208110156113c957600080fd5b810190808051906020019092919050505093506110b7565b5050505090565b6040805190810160405280600381526020017f657468000000000000000000000000000000000000000000000000000000000081525081565b60006002600001836040518082805190602001908083835b60208310151561145e5780518252602082019150602081019050602083039250611439565b6001836020036101000a038019825116818451168082178552505050505050905001915050908152602001604051809103902060010160009054906101000a900473ffffffffffffffffffffffffffffffffffffffff169050600073ffffffffffffffffffffffffffffffffffffffff168173ffffffffffffffffffffffffffffffffffffffff16141515156114f357600080fd5b8073ffffffffffffffffffffffffffffffffffffffff1663f3fef3a333846040518363ffffffff167c0100000000000000000000000000000000000000000000000000000000028152600401808373ffffffffffffffffffffffffffffffffffffffff1673ffffffffffffffffffffffffffffffffffffffff16815260200182815260200192505050600060405180830381600087803b15801561159657600080fd5b505af11580156115aa573d6000803e3d6000fd5b50505050505050565b6000806002600001846040518082805190602001908083835b6020831015156115f157805182526020820191506020810190506020830392506115cc565b6001836020036101000a038019825116818451168082178552505050505050905001915050908152602001604051809103902060010160009054906101000a900473ffffffffffffffffffffffffffffffffffffffff169050600073ffffffffffffffffffffffffffffffffffffffff168173ffffffffffffffffffffffffffffffffffffffff161415151561168657600080fd5b8073ffffffffffffffffffffffffffffffffffffffff166310d0ffdd846040518263ffffffff167c010000000000000000000000000000000000000000000000000000000002815260040180828152602001915050602060405180830381600087803b1580156116f557600080fd5b505af1158015611709573d6000803e3d6000fd5b505050506040513d602081101561171f57600080fd5b810190808051906020019092919050505091505092915050565b6000806002600001856040518082805190602001908083835b6020831015156117775780518252602082019150602081019050602083039250611752565b6001836020036101000a038019825116818451168082178552505050505050905001915050908152602001604051809103902060010160009054906101000a900473ffffffffffffffffffffffffffffffffffffffff169050600073ffffffffffffffffffffffffffffffffffffffff168173ffffffffffffffffffffffffffffffffffffffff161415151561180c57600080fd5b3373ffffffffffffffffffffffffffffffffffffffff168373ffffffffffffffffffffffffffffffffffffffff16148061184f575060055461184d84611fb2565b105b1561185957600092505b600073__StringUtils___________________________633a96fdd7876040805190810160405280600381526020017f65746800000000000000000000000000000000000000000000000000000000008152506040518363ffffffff167c0100000000000000000000000000000000000000000000000000000000028152600401808060200180602001838103835285818151815260200191508051906020019080838360005b8381101561191b578082015181840152602081019050611900565b50505050905090810190601f1680156119485780820380516001836020036101000a031916815260200191505b50838103825284818151815260200191508051906020019080838360005b83811015611981578082015181840152602081019050611966565b50505050905090810190601f1680156119ae5780820380516001836020036101000a031916815260200191505b5094505050505060206040518083038186803b1580156119cd57600080fd5b505af41580156119e1573d6000803e3d6000fd5b505050506040513d60208110156119f757600080fd5b81019080805190602001909291905050501415611b27578073ffffffffffffffffffffffffffffffffffffffff1663db61c76e343334876040518563ffffffff167c0100000000000000000000000000000000000000000000000000000000028152600401808473ffffffffffffffffffffffffffffffffffffffff1673ffffffffffffffffffffffffffffffffffffffff1681526020018381526020018273ffffffffffffffffffffffffffffffffffffffff1673ffffffffffffffffffffffffffffffffffffffff16815260200193505050506020604051808303818588803b158015611ae557600080fd5b505af1158015611af9573d6000803e3d6000fd5b50505050506040513d6020811015611b1057600080fd5b810190808051906020019092919050505050611c3b565b8073ffffffffffffffffffffffffffffffffffffffff1663db61c76e3386866040518463ffffffff167c0100000000000000000000000000000000000000000000000000000000028152600401808473ffffffffffffffffffffffffffffffffffffffff1673ffffffffffffffffffffffffffffffffffffffff1681526020018381526020018273ffffffffffffffffffffffffffffffffffffffff1673ffffffffffffffffffffffffffffffffffffffff1681526020019350505050602060405180830381600087803b158015611bfe57600080fd5b505af1158015611c12573d6000803e3d6000fd5b505050506040513d6020811015611c2857600080fd5b8101908080519060200190929190505050505b509392505050565b6000806000600654611c5433611fb2565b10151515611c6157600080fd5b6002600001866040518082805190602001908083835b602083101515611c9c5780518252602082019150602081019050602083039250611c77565b6001836020036101000a038019825116818451168082178552505050505050905001915050908152602001604051809103902060010160009054906101000a900473ffffffffffffffffffffffffffffffffffffffff169250600073ffffffffffffffffffffffffffffffffffffffff168373ffffffffffffffffffffffffffffffffffffffff1614151515611d3157600080fd5b8273ffffffffffffffffffffffffffffffffffffffff1663d3d6dce733866040518363ffffffff167c0100000000000000000000000000000000000000000000000000000000028152600401808373ffffffffffffffffffffffffffffffffffffffff1673ffffffffffffffffffffffffffffffffffffffff16815260200182815260200192505050602060405180830381600087803b158015611dd457600080fd5b505af1158015611de8573d6000803e3d6000fd5b505050506040513d6020811015611dfe57600080fd5b810190808051906020019092919050505091508382141515611e1f57600080fd5b6002600001856040518082805190602001908083835b602083101515611e5a5780518252602082019150602081019050602083039250611e35565b6001836020036101000a038019825116818451168082178552505050505050905001915050908152602001604051809103902060010160009054906101000a900473ffffffffffffffffffffffffffffffffffffffff169050600073ffffffffffffffffffffffffffffffffffffffff168173ffffffffffffffffffffffffffffffffffffffff1614151515611eef57600080fd5b8073ffffffffffffffffffffffffffffffffffffffff16633be8eb7e33866040518363ffffffff167c0100000000000000000000000000000000000000000000000000000000028152600401808373ffffffffffffffffffffffffffffffffffffffff1673ffffffffffffffffffffffffffffffffffffffff16815260200182815260200192505050600060405180830381600087803b158015611f9257600080fd5b505af1158015611fa6573d6000803e3d6000fd5b50505050505050505050565b600080606060008073__TokenDealerMapping____________________632dc131b260026040518263ffffffff167c01000000000000000000000000000000000000000000000000000000000281526004018082815260200191505060206040518083038186803b15801561202657600080fd5b505af415801561203a573d6000803e3d6000fd5b505050506040513d602081101561205057600080fd5b810190808051906020019092919050505093505b73__TokenDealerMapping____________________634ca101476002866040518363ffffffff167c0100000000000000000000000000000000000000000000000000000000028152600401808381526020018281526020019250505060206040518083038186803b1580156120d857600080fd5b505af41580156120ec573d6000803e3d6000fd5b505050506040513d602081101561210257600080fd5b8101908080519060200190929190505050156123c55773__TokenDealerMapping____________________63c6ae82086002866040518363ffffffff167c0100000000000000000000000000000000000000000000000000000000028152600401808381526020018281526020019250505060006040518083038186803b15801561218c57600080fd5b505af41580156121a0573d6000803e3d6000fd5b505050506040513d6000823e3d601f19601f8201168201806040525060408110156121ca57600080fd5b8101908080516401000000008111156121e257600080fd5b828101905060208101848111156121f857600080fd5b815185600182028301116401000000008211171561221557600080fd5b50509291906020018051906020019092919050505080935081945050508190508073ffffffffffffffffffffffffffffffffffffffff166370a08231876040518263ffffffff167c0100000000000000000000000000000000000000000000000000000000028152600401808273ffffffffffffffffffffffffffffffffffffffff1673ffffffffffffffffffffffffffffffffffffffff168152602001915050602060405180830381600087803b1580156122d057600080fd5b505af11580156122e4573d6000803e3d6000fd5b505050506040513d60208110156122fa57600080fd5b81019080805190602001909291905050508501945073__TokenDealerMapping____________________634a84c3996002866040518363ffffffff167c0100000000000000000000000000000000000000000000000000000000028152600401808381526020018281526020019250505060206040518083038186803b15801561238357600080fd5b505af4158015612397573d6000803e3d6000fd5b505050506040513d60208110156123ad57600080fd5b81019080805190602001909291905050509350612064565b50505050919050565b600160009054906101000a900473ffffffffffffffffffffffffffffffffffffffff1673ffffffffffffffffffffffffffffffffffffffff163373ffffffffffffffffffffffffffffffffffffffff1614151561242a57600080fd5b600160009054906101000a900473ffffffffffffffffffffffffffffffffffffffff1673ffffffffffffffffffffffffffffffffffffffff166000809054906101000a900473ffffffffffffffffffffffffffffffffffffffff1673ffffffffffffffffffffffffffffffffffffffff167f8be0079c531659141344cd1fd0a4f28419497f9722a3daafe3b4186f6b6457e060405160405180910390a3600160009054906101000a900473ffffffffffffffffffffffffffffffffffffffff166000806101000a81548173ffffffffffffffffffffffffffffffffffffffff021916908373ffffffffffffffffffffffffffffffffffffffff1602179055506000600160006101000a81548173ffffffffffffffffffffffffffffffffffffffff021916908373ffffffffffffffffffffffffffffffffffffffff160217905550565b60055481565b6000809054906101000a900473ffffffffffffffffffffffffffffffffffffffff1673ffffffffffffffffffffffffffffffffffffffff163373ffffffffffffffffffffffffffffffffffffffff161415156125ce57600080fd5b6000809054906101000a900473ffffffffffffffffffffffffffffffffffffffff1673ffffffffffffffffffffffffffffffffffffffff167ff8df31144d9c2f0f6b59d69b8b98abd5459d07f2742c4df920b25aae33c6482060405160405180910390a260008060006101000a81548173ffffffffffffffffffffffffffffffffffffffff021916908373ffffffffffffffffffffffffffffffffffffffff160217905550565b6000806002600001846040518082805190602001908083835b6020831015156126b3578051825260208201915060208101905060208303925061268e565b6001836020036101000a038019825116818451168082178552505050505050905001915050908152602001604051809103902060010160009054906101000a900473ffffffffffffffffffffffffffffffffffffffff169050600073ffffffffffffffffffffffffffffffffffffffff168173ffffffffffffffffffffffffffffffffffffffff161415151561274857600080fd5b8073ffffffffffffffffffffffffffffffffffffffff1663150c95a8846040518263ffffffff167c010000000000000000000000000000000000000000000000000000000002815260040180828152602001915050602060405180830381600087803b1580156127b757600080fd5b505af11580156127cb573d6000803e3d6000fd5b505050506040513d60208110156127e157600080fd5b810190808051906020019092919050505091505092915050565b6000809054906101000a900473ffffffffffffffffffffffffffffffffffffffff1673ffffffffffffffffffffffffffffffffffffffff163373ffffffffffffffffffffffffffffffffffffffff1614151561285657600080fd5b8060058190555050565b6000806002600001836040518082805190602001908083835b60208310151561289e5780518252602082019150602081019050602083039250612879565b6001836020036101000a038019825116818451168082178552505050505050905001915050908152602001604051809103902060010160009054906101000a900473ffffffffffffffffffffffffffffffffffffffff169050600073ffffffffffffffffffffffffffffffffffffffff168173ffffffffffffffffffffffffffffffffffffffff161415151561293357600080fd5b8073ffffffffffffffffffffffffffffffffffffffff1663ad7a672f6040518163ffffffff167c0100000000000000000000000000000000000000000000000000000000028152600401602060405180830381600087803b15801561299757600080fd5b505af11580156129ab573d6000803e3d6000fd5b505050506040513d60208110156129c157600080fd5b8101908080519060200190929190505050915050919050565b6000606060008073__TokenDealerMapping____________________632dc131b260026040518263ffffffff167c01000000000000000000000000000000000000000000000000000000000281526004018082815260200191505060206040518083038186803b158015612a4d57600080fd5b505af4158015612a61573d6000803e3d6000fd5b505050506040513d6020811015612a7757600080fd5b810190808051906020019092919050505093505b73__TokenDealerMapping____________________634ca101476002866040518363ffffffff167c0100000000000000000000000000000000000000000000000000000000028152600401808381526020018281526020019250505060206040518083038186803b158015612aff57600080fd5b505af4158015612b13573d6000803e3d6000fd5b505050506040513d6020811015612b2957600080fd5b810190808051906020019092919050505015612eb15773__TokenDealerMapping____________________63c6ae82086002866040518363ffffffff167c0100000000000000000000000000000000000000000000000000000000028152600401808381526020018281526020019250505060006040518083038186803b158015612bb357600080fd5b505af4158015612bc7573d6000803e3d6000fd5b505050506040513d6000823e3d601f19601f820116820180604052506040811015612bf157600080fd5b810190808051640100000000811115612c0957600080fd5b82810190506020810184811115612c1f57600080fd5b8151856001820283011164010000000082111715612c3c57600080fd5b505092919060200180519060200190929190505050809350819450505081905060008173ffffffffffffffffffffffffffffffffffffffff1663c383abaa3360016040518363ffffffff167c0100000000000000000000000000000000000000000000000000000000028152600401808373ffffffffffffffffffffffffffffffffffffffff1673ffffffffffffffffffffffffffffffffffffffff1681526020018215151515815260200192505050602060405180830381600087803b158015612d0657600080fd5b505af1158015612d1a573d6000803e3d6000fd5b505050506040513d6020811015612d3057600080fd5b81019080805190602001909291905050501115612dfb578073ffffffffffffffffffffffffffffffffffffffff166351cff8d9336040518263ffffffff167c0100000000000000000000000000000000000000000000000000000000028152600401808273ffffffffffffffffffffffffffffffffffffffff1673ffffffffffffffffffffffffffffffffffffffff168152602001915050600060405180830381600087803b158015612de257600080fd5b505af1158015612df6573d6000803e3d6000fd5b505050505b73__TokenDealerMapping____________________634a84c3996002866040518363ffffffff167c0100000000000000000000000000000000000000000000000000000000028152600401808381526020018281526020019250505060206040518083038186803b158015612e6f57600080fd5b505af4158015612e83573d6000803e3d6000fd5b505050506040513d6020811015612e9957600080fd5b81019080805190602001909291905050509350612a8b565b50505050565b6000809054906101000a900473ffffffffffffffffffffffffffffffffffffffff1681565b6000806002600001846040518082805190602001908083835b602083101515612f1a5780518252602082019150602081019050602083039250612ef5565b6001836020036101000a038019825116818451168082178552505050505050905001915050908152602001604051809103902060010160009054906101000a900473ffffffffffffffffffffffffffffffffffffffff169050600073ffffffffffffffffffffffffffffffffffffffff168173ffffffffffffffffffffffffffffffffffffffff1614151515612faf57600080fd5b8073ffffffffffffffffffffffffffffffffffffffff1663c383abaa33856040518363ffffffff167c0100000000000000000000000000000000000000000000000000000000028152600401808373ffffffffffffffffffffffffffffffffffffffff1673ffffffffffffffffffffffffffffffffffffffff1681526020018215151515815260200192505050602060405180830381600087803b15801561305657600080fd5b505af115801561306a573d6000803e3d6000fd5b505050506040513d602081101561308057600080fd5b810190808051906020019092919050505091505092915050565b60006002600001836040518082805190602001908083835b6020831015156130d757805182526020820191506020810190506020830392506130b2565b6001836020036101000a038019825116818451168082178552505050505050905001915050908152602001604051809103902060010160009054906101000a900473ffffffffffffffffffffffffffffffffffffffff169050600073ffffffffffffffffffffffffffffffffffffffff168173ffffffffffffffffffffffffffffffffffffffff161415151561316c57600080fd5b8073ffffffffffffffffffffffffffffffffffffffff16636c197ff533846040518363ffffffff167c0100000000000000000000000000000000000000000000000000000000028152600401808373ffffffffffffffffffffffffffffffffffffffff1673ffffffffffffffffffffffffffffffffffffffff16815260200182815260200192505050600060405180830381600087803b15801561320f57600080fd5b505af1158015613223573d6000803e3d6000fd5b50505050505050565b60006002600001826040518082805190602001908083835b6020831015156132695780518252602082019150602081019050602083039250613244565b6001836020036101000a038019825116818451168082178552505050505050905001915050908152602001604051809103902060010160009054906101000a900473ffffffffffffffffffffffffffffffffffffffff169050919050565b60006002600001836040518082805190602001908083835b60208310151561330457805182526020820191506020810190506020830392506132df565b6001836020036101000a038019825116818451168082178552505050505050905001915050908152602001604051809103902060010160009054906101000a900473ffffffffffffffffffffffffffffffffffffffff169050600073ffffffffffffffffffffffffffffffffffffffff168173ffffffffffffffffffffffffffffffffffffffff161415151561339957600080fd5b8073ffffffffffffffffffffffffffffffffffffffff1663d65a261733846040518363ffffffff167c0100000000000000000000000000000000000000000000000000000000028152600401808373ffffffffffffffffffffffffffffffffffffffff1673ffffffffffffffffffffffffffffffffffffffff16815260200182815260200192505050600060405180830381600087803b15801561343c57600080fd5b505af1158015613450573d6000803e3d6000fd5b50505050505050565b60008060009054906101000a900473ffffffffffffffffffffffffffffffffffffffff1673ffffffffffffffffffffffffffffffffffffffff163373ffffffffffffffffffffffffffffffffffffffff161415156134b657600080fd5b73__TokenDealerMapping____________________63d3a54b0a600285856040518463ffffffff167c010000000000000000000000000000000000000000000000000000000002815260040180848152602001806020018373ffffffffffffffffffffffffffffffffffffffff1673ffffffffffffffffffffffffffffffffffffffff168152602001828103825284818151815260200191508051906020019080838360005b8381101561357757808201518184015260208101905061355c565b50505050905090810190601f1680156135a45780820380516001836020036101000a031916815260200191505b5094505050505060206040518083038186803b1580156135c357600080fd5b505af41580156135d7573d6000803e3d6000fd5b505050506040513d60208110156135ed57600080fd5b8101908080519060200190929190505050506002800154905092915050565b6000806002600001846040518082805190602001908083835b60208310151561364a5780518252602082019150602081019050602083039250613625565b6001836020036101000a038019825116818451168082178552505050505050905001915050908152602001604051809103902060010160009054906101000a900473ffffffffffffffffffffffffffffffffffffffff169050600073ffffffffffffffffffffffffffffffffffffffff168173ffffffffffffffffffffffffffffffffffffffff16141515156136df57600080fd5b8073ffffffffffffffffffffffffffffffffffffffff166265318b846040518263ffffffff167c0100000000000000000000000000000000000000000000000000000000028152600401808273ffffffffffffffffffffffffffffffffffffffff1673ffffffffffffffffffffffffffffffffffffffff168152602001915050602060405180830381600087803b15801561377957600080fd5b505af115801561378d573d6000803e3d6000fd5b505050506040513d60208110156137a357600080fd5b810190808051906020019092919050505091505092915050565b6000806002600001836040518082805190602001908083835b6020831015156137fb57805182526020820191506020810190506020830392506137d6565b6001836020036101000a038019825116818451168082178552505050505050905001915050908152602001604051809103902060010160009054906101000a900473ffffffffffffffffffffffffffffffffffffffff169050600073ffffffffffffffffffffffffffffffffffffffff168173ffffffffffffffffffffffffffffffffffffffff161415151561389057600080fd5b8073ffffffffffffffffffffffffffffffffffffffff16638620410b6040518163ffffffff167c0100000000000000000000000000000000000000000000000000000000028152600401602060405180830381600087803b1580156138f457600080fd5b505af1158015613908573d6000803e3d6000fd5b505050506040513d602081101561391e57600080fd5b8101908080519060200190929190505050915050919050565b6000806002600001836040518082805190602001908083835b6020831015156139755780518252602082019150602081019050602083039250613950565b6001836020036101000a038019825116818451168082178552505050505050905001915050908152602001604051809103902060010160009054906101000a900473ffffffffffffffffffffffffffffffffffffffff169050600073ffffffffffffffffffffffffffffffffffffffff168173ffffffffffffffffffffffffffffffffffffffff1614151515613a0a57600080fd5b8073ffffffffffffffffffffffffffffffffffffffff16634b7503346040518163ffffffff167c0100000000000000000000000000000000000000000000000000000000028152600401602060405180830381600087803b158015613a6e57600080fd5b505af1158015613a82573d6000803e3d6000fd5b505050506040513d6020811015613a9857600080fd5b8101908080519060200190929190505050915050919050565b600160009054906101000a900473ffffffffffffffffffffffffffffffffffffffff1681565b6000809054906101000a900473ffffffffffffffffffffffffffffffffffffffff1673ffffffffffffffffffffffffffffffffffffffff163373ffffffffffffffffffffffffffffffffffffffff16141515613b3257600080fd5b8060068190555050565b60006002600001826040518082805190602001908083835b602083101515613b795780518252602082019150602081019050602083039250613b54565b6001836020036101000a038019825116818451168082178552505050505050905001915050908152602001604051809103902060010160009054906101000a900473ffffffffffffffffffffffffffffffffffffffff169050600073ffffffffffffffffffffffffffffffffffffffff168173ffffffffffffffffffffffffffffffffffffffff1614151515613c0e57600080fd5b8073ffffffffffffffffffffffffffffffffffffffff1663b42652e9336040518263ffffffff167c0100000000000000000000000000000000000000000000000000000000028152600401808273ffffffffffffffffffffffffffffffffffffffff1673ffffffffffffffffffffffffffffffffffffffff168152602001915050600060405180830381600087803b158015613ca957600080fd5b505af1158015613cbd573d6000803e3d6000fd5b505050505050565b6000806002600001846040518082805190602001908083835b602083101515613d035780518252602082019150602081019050602083039250613cde565b6001836020036101000a038019825116818451168082178552505050505050905001915050908152602001604051809103902060010160009054906101000a900473ffffffffffffffffffffffffffffffffffffffff169050600073ffffffffffffffffffffffffffffffffffffffff168173ffffffffffffffffffffffffffffffffffffffff1614151515613d9857600080fd5b8073ffffffffffffffffffffffffffffffffffffffff166346534649846040518263ffffffff167c0100000000000000000000000000000000000000000000000000000000028152600401808273ffffffffffffffffffffffffffffffffffffffff1673ffffffffffffffffffffffffffffffffffffffff168152602001915050602060405180830381600087803b158015613e3357600080fd5b505af1158015613e47573d6000803e3d6000fd5b505050506040513d6020811015613e5d57600080fd5b810190808051906020019092919050505091505092915050565b6000809054906101000a900473ffffffffffffffffffffffffffffffffffffffff1673ffffffffffffffffffffffffffffffffffffffff163373ffffffffffffffffffffffffffffffffffffffff16141515613ed257600080fd5b80600160006101000a81548173ffffffffffffffffffffffffffffffffffffffff021916908373ffffffffffffffffffffffffffffffffffffffff16021790555050565b6000806002600001846040518082805190602001908083835b602083101515613f545780518252602082019150602081019050602083039250613f2f565b6001836020036101000a038019825116818451168082178552505050505050905001915050908152602001604051809103902060010160009054906101000a900473ffffffffffffffffffffffffffffffffffffffff169050600073ffffffffffffffffffffffffffffffffffffffff168173ffffffffffffffffffffffffffffffffffffffff1614151515613fe957600080fd5b8073ffffffffffffffffffffffffffffffffffffffff1663b73f34b4846040518263ffffffff167c010000000000000000000000000000000000000000000000000000000002815260040180828152602001915050602060405180830381600087803b15801561405857600080fd5b505af115801561406c573d6000803e3d6000fd5b505050506040513d602081101561408257600080fd5b810190808051906020019092919050505091505092915050565b600654815600a165627a7a723058201deead4a8982a638a2acbec8fea3a9aa148398a74904661f964128713f4057700029",
  "source": "pragma solidity ^0.4.24;\r\n\r\n\r\nimport \"zeppelin-solidity/contracts/ownership/Claimable.sol\";\r\nimport \"../contracts/interface/TokenDealerInterface.sol\";\r\nimport \"../contracts/library/TokenDealerMapping.sol\";\r\nimport \"../contracts/library/StringUtils.sol\";\r\n\r\ncontract Console {\r\n    event LogUint(string, uint);\r\n    function log(string s , uint x) internal {\r\n        emit LogUint(s, x);\r\n    }\r\n    \r\n    event LogInt(string, int);\r\n    function log(string s , int x) internal {\r\n        emit LogInt(s, x);\r\n    }\r\n    \r\n    event LogBytes(string, bytes);\r\n    function log(string s , bytes x) internal {\r\n        emit LogBytes(s, x);\r\n    }\r\n    \r\n    event LogBytes32(string, bytes32);\r\n    function log(string s , bytes32 x) internal {\r\n        emit LogBytes32(s, x);\r\n    }\r\n\r\n    event LogAddress(string, address);\r\n    function log(string s , address x) internal {\r\n        emit LogAddress(s, x);\r\n    }\r\n\r\n    event LogBool(string, bool);\r\n    function log(string s , bool x) internal {\r\n        emit LogBool(s, x);\r\n    }\r\n}\r\n\r\ncontract S3DProtocol is Claimable, Console{\r\n\r\n    TokenDealerMapping.itmap tokenDealerMap;\r\n\r\n    // proof of stake (defaults at 100 tokens)\r\n    uint256 public stakingRequirement = 500e18;\r\n\r\n    uint256 public arbitrageRequirement = 1000e18;\r\n\r\n    string constant public ethSymbol = \"eth\";\r\n\r\n    \r\n    function addDealer(string symbol, address dealerAddress) public onlyOwner returns (uint size) {\r\n        TokenDealerMapping.insert(tokenDealerMap, symbol, dealerAddress);\r\n        return tokenDealerMap.size;\r\n    }\r\n\r\n    function getDealer(string symbol) public view returns (address) {\r\n        return tokenDealerMap.data[symbol].value;\r\n    }\r\n\r\n    function setStakingRequirement(uint256 _amountOfTokens) onlyOwner() public {\r\n        stakingRequirement = _amountOfTokens;\r\n    }\r\n\r\n    function setArbitrageRequirement(uint256 _amountOfTokens) onlyOwner() public {\r\n        arbitrageRequirement = _amountOfTokens;\r\n    }\r\n    \r\n    //add all s3d\r\n    function totalBalanceOf(address _customerAddress) public view returns (uint256 sum) {\r\n        for (uint i = TokenDealerMapping.iterate_start(tokenDealerMap); TokenDealerMapping.iterate_valid(tokenDealerMap, i); i = TokenDealerMapping.iterate_next(tokenDealerMap, i))\r\n        {\r\n            string memory key;\r\n            address value;\r\n            (key, value) = TokenDealerMapping.iterate_get(tokenDealerMap, i);\r\n            TokenDealerInterface dealerContract = TokenDealerInterface(value);\r\n            sum += dealerContract.balanceOf(_customerAddress);\r\n        }     \r\n    }\r\n\r\n    function balanceOf(string symbol, address _customerAddress) public view returns (uint256) {\r\n        TokenDealerInterface dealerContract = TokenDealerInterface(tokenDealerMap.data[symbol].value);\r\n        require(dealerContract != address(0));\r\n        return dealerContract.balanceOf(_customerAddress);\r\n    }\r\n\r\n    //add all s3d\r\n    function totalSupply() public view returns (uint256 sum) \r\n    {\r\n        sum = 0;\r\n        for (uint i = TokenDealerMapping.iterate_start(tokenDealerMap); TokenDealerMapping.iterate_valid(tokenDealerMap, i); i = TokenDealerMapping.iterate_next(tokenDealerMap, i))\r\n        {\r\n            string memory key;\r\n            address value;\r\n            (key, value) = TokenDealerMapping.iterate_get(tokenDealerMap, i);\r\n            TokenDealerInterface dealerContract = TokenDealerInterface(value);\r\n            sum += dealerContract.totalSupply();\r\n        }\r\n    }\r\n\r\n    modifier arbitrageBarrier() {\r\n        require(totalBalanceOf(msg.sender) >= arbitrageRequirement);\r\n        _;\r\n    }\r\n\r\n    function buy(string symbol, uint256 _tokenAmount, address _referredBy)\r\n        public\r\n        payable\r\n        returns(uint256)\r\n    {\r\n        TokenDealerInterface dealerContract = TokenDealerInterface(tokenDealerMap.data[symbol].value);\r\n        require(dealerContract != address(0));\r\n\r\n        if( \r\n            // no cheating!\r\n            _referredBy == msg.sender ||\r\n            \r\n            // does the referrer have at least X whole tokens?\r\n            // i.e is the referrer a godly chad masternode\r\n            totalBalanceOf(_referredBy) < stakingRequirement\r\n        ) {\r\n            _referredBy = 0x0000000000000000000000000000000000000000;\r\n        }\r\n  \r\n\r\n        if(StringUtils.compare(symbol, ethSymbol) == 0) {\r\n            dealerContract.buy.value(msg.value)(msg.sender, msg.value, _referredBy);\r\n        } else {\r\n            dealerContract.buy(msg.sender, _tokenAmount, _referredBy);\r\n        }\r\n    }\r\n\r\n    function reinvest(string symbol, uint256 buyAmount) public{\r\n        TokenDealerInterface dealerContract = TokenDealerInterface(tokenDealerMap.data[symbol].value);\r\n        require(dealerContract != address(0));\r\n        dealerContract.reinvest(msg.sender, buyAmount);\r\n    }\r\n\r\n    function exit(string symbol) public {\r\n        TokenDealerInterface dealerContract = TokenDealerInterface(tokenDealerMap.data[symbol].value);\r\n        require(dealerContract != address(0));\r\n        dealerContract.exit(msg.sender);\r\n    }\r\n\r\n    function withdrawAll() public {\r\n        for (var i = TokenDealerMapping.iterate_start(tokenDealerMap); TokenDealerMapping.iterate_valid(tokenDealerMap, i); i = TokenDealerMapping.iterate_next(tokenDealerMap, i))\r\n        {\r\n            string memory key;\r\n            address value;\r\n            (key, value) = TokenDealerMapping.iterate_get(tokenDealerMap, i);\r\n            TokenDealerInterface dealerContract = TokenDealerInterface(value);\r\n            if (dealerContract.myDividends(msg.sender, true) > 0) {\r\n                dealerContract.withdraw(msg.sender);\r\n            }\r\n        }\r\n    }\r\n\r\n    function withdraw(string symbol, uint256 withdrawAmount) public{\r\n        TokenDealerInterface dealerContract = TokenDealerInterface(tokenDealerMap.data[symbol].value);\r\n        require(dealerContract != address(0));\r\n        dealerContract.withdraw(msg.sender, withdrawAmount);\r\n    }\r\n\r\n    function sell(string symbol, uint256 _amountOfTokens) public {\r\n        TokenDealerInterface dealerContract = TokenDealerInterface(tokenDealerMap.data[symbol].value);\r\n        require(dealerContract != address(0));\r\n        dealerContract.sell(msg.sender, _amountOfTokens);\r\n    }\r\n\r\n    function totalBalance(string symbol) public view returns(uint) {\r\n        TokenDealerInterface dealerContract = TokenDealerInterface(tokenDealerMap.data[symbol].value);\r\n        require(dealerContract != address(0));\r\n        return dealerContract.totalBalance();\r\n    }\r\n\r\n    function myDividends(string symbol, bool _includeReferralBonus) public view returns(uint256){\r\n        TokenDealerInterface dealerContract = TokenDealerInterface(tokenDealerMap.data[symbol].value);\r\n        require(dealerContract != address(0));\r\n        return dealerContract.myDividends(msg.sender, _includeReferralBonus);\r\n    }\r\n\r\n    function dividendsOf(string symbol, address _customerAddress) view public returns(uint256) {\r\n        TokenDealerInterface dealerContract = TokenDealerInterface(tokenDealerMap.data[symbol].value);\r\n        require(dealerContract != address(0));\r\n        return dealerContract.dividendsOf(_customerAddress);\r\n    }\r\n\r\n    function referralBalanceOf(string symbol, address _customerAddress) view public returns(uint256) {\r\n        TokenDealerInterface dealerContract = TokenDealerInterface(tokenDealerMap.data[symbol].value);\r\n        require(dealerContract != address(0));\r\n        return dealerContract.referralBalanceOf(_customerAddress);\r\n    }\r\n\r\n    function sellPrice(string symbol) public view returns(uint256) {\r\n        TokenDealerInterface dealerContract = TokenDealerInterface(tokenDealerMap.data[symbol].value);\r\n        require(dealerContract != address(0));\r\n        return dealerContract.sellPrice();\r\n    }\r\n\r\n    function buyPrice(string symbol) public view returns(uint256) {\r\n        TokenDealerInterface dealerContract = TokenDealerInterface(tokenDealerMap.data[symbol].value);\r\n        require(dealerContract != address(0));\r\n        return dealerContract.buyPrice();\r\n    }\r\n\r\n    function calculateTokensReceived(string symbol, uint256 _ethereumToSpend) public view returns(uint256) {\r\n        TokenDealerInterface dealerContract = TokenDealerInterface(tokenDealerMap.data[symbol].value);\r\n        require(dealerContract != address(0));\r\n        return dealerContract.calculateTokensReceived(_ethereumToSpend);\r\n    }\r\n\r\n    function calculateBuyTokenSpend(string symbol, uint256 _tokensToBuy) public view returns(uint256) {\r\n        TokenDealerInterface dealerContract = TokenDealerInterface(tokenDealerMap.data[symbol].value);\r\n        require(dealerContract != address(0));\r\n        return dealerContract.calculateBuyTokenSpend(_tokensToBuy);\r\n    }\r\n\r\n    function calculateBuyTokenReceived(string symbol, uint256 _tokensToSell) public view returns(uint256) {\r\n        TokenDealerInterface dealerContract = TokenDealerInterface(tokenDealerMap.data[symbol].value);\r\n        require(dealerContract != address(0));\r\n        return dealerContract.calculateBuyTokenReceived(_tokensToSell);\r\n    }\r\n\r\n    function arbitrageTokens(string fromSymbol, string sellSymbol, uint256 _amountOfTokens) \r\n        arbitrageBarrier()\r\n        public \r\n    {\r\n        TokenDealerInterface escapeContract = TokenDealerInterface(tokenDealerMap.data[fromSymbol].value);\r\n        require(escapeContract != address(0));\r\n\r\n        uint256 _tokens = escapeContract.escapeTokens(msg.sender, _amountOfTokens); \r\n        require(_tokens == _amountOfTokens);\r\n\r\n        TokenDealerInterface dealerContract = TokenDealerInterface(tokenDealerMap.data[sellSymbol].value);\r\n        require(dealerContract != address(0));\r\n\r\n        dealerContract.arbitrageTokens(msg.sender, _amountOfTokens);\r\n    }\r\n}",
  "sourcePath": "D:\\work\\truffle\\s3d\\contracts\\S3DProtocol.sol",
  "compiler": {
    "name": "solc",
    "version": "0.4.24+commit.e67f0147.Emscripten.clang"
  },
  "schemaVersion": "2.0.1",
  "updatedAt": "2018-08-17T07:36:01.826Z"
}