{
  "contractName": "S3DProtocol",
  "abi": [
    {
      "constant": false,
      "inputs": [],
      "name": "renounceOwnership",
      "outputs": [],
      "payable": false,
      "stateMutability": "nonpayable",
      "type": "function"
    },
    {
      "constant": true,
      "inputs": [],
      "name": "owner",
      "outputs": [
        {
          "name": "",
          "type": "address"
        }
      ],
      "payable": false,
      "stateMutability": "view",
      "type": "function"
    },
    {
      "constant": false,
      "inputs": [
        {
          "name": "_newOwner",
          "type": "address"
        }
      ],
      "name": "transferOwnership",
      "outputs": [],
      "payable": false,
      "stateMutability": "nonpayable",
      "type": "function"
    },
    {
      "anonymous": false,
      "inputs": [
        {
          "indexed": true,
          "name": "customerAddress",
          "type": "address"
        },
        {
          "indexed": true,
          "name": "symbol",
          "type": "string"
        },
        {
          "indexed": false,
          "name": "incomingTokenAmount",
          "type": "uint256"
        },
        {
          "indexed": false,
          "name": "tokensMinted",
          "type": "uint256"
        },
        {
          "indexed": true,
          "name": "referredBy",
          "type": "address"
        }
      ],
      "name": "onTokenPurchase",
      "type": "event"
    },
    {
      "anonymous": false,
      "inputs": [
        {
          "indexed": true,
          "name": "previousOwner",
          "type": "address"
        }
      ],
      "name": "OwnershipRenounced",
      "type": "event"
    },
    {
      "anonymous": false,
      "inputs": [
        {
          "indexed": true,
          "name": "previousOwner",
          "type": "address"
        },
        {
          "indexed": true,
          "name": "newOwner",
          "type": "address"
        }
      ],
      "name": "OwnershipTransferred",
      "type": "event"
    },
    {
      "constant": true,
      "inputs": [
        {
          "name": "tokenRegistryAddress",
          "type": "address"
        }
      ],
      "name": "setTokenRegistryAddress",
      "outputs": [],
      "payable": false,
      "stateMutability": "view",
      "type": "function"
    },
    {
      "constant": true,
      "inputs": [
        {
          "name": "symbol",
          "type": "string"
        },
        {
          "name": "dealerAddress",
          "type": "address"
        }
      ],
      "name": "addDealer",
      "outputs": [],
      "payable": false,
      "stateMutability": "view",
      "type": "function"
    },
    {
      "constant": false,
      "inputs": [
        {
          "name": "symbol",
          "type": "string"
        },
        {
          "name": "incomingTokenAmount",
          "type": "uint256"
        },
        {
          "name": "referredBy",
          "type": "address"
        }
      ],
      "name": "tokenBuy",
      "outputs": [
        {
          "name": "",
          "type": "uint256"
        }
      ],
      "payable": false,
      "stateMutability": "nonpayable",
      "type": "function"
    },
    {
      "constant": false,
      "inputs": [
        {
          "name": "symbol",
          "type": "string"
        },
        {
          "name": "referredBy",
          "type": "address"
        }
      ],
      "name": "ethBuy",
      "outputs": [
        {
          "name": "",
          "type": "uint256"
        }
      ],
      "payable": true,
      "stateMutability": "payable",
      "type": "function"
    },
    {
      "constant": false,
      "inputs": [
        {
          "name": "symbol",
          "type": "string"
        },
        {
          "name": "incomingTokenAmount",
          "type": "uint256"
        },
        {
          "name": "referredBy",
          "type": "address"
        }
      ],
      "name": "buy",
      "outputs": [
        {
          "name": "",
          "type": "uint256"
        }
      ],
      "payable": true,
      "stateMutability": "payable",
      "type": "function"
    },
    {
      "constant": true,
      "inputs": [
        {
          "name": "symbol",
          "type": "string"
        }
      ],
      "name": "tokenAddress",
      "outputs": [
        {
          "name": "",
          "type": "address"
        }
      ],
      "payable": false,
      "stateMutability": "view",
      "type": "function"
    }
  ],
  "bytecode": "0x608060405273fb046c1da17af580b4740eb04054bd7d235dfcdf600160006101000a81548173ffffffffffffffffffffffffffffffffffffffff021916908373ffffffffffffffffffffffffffffffffffffffff160217905550336000806101000a81548173ffffffffffffffffffffffffffffffffffffffff021916908373ffffffffffffffffffffffffffffffffffffffff160217905550610c00806100a86000396000f300608060405260043610610099576000357c0100000000000000000000000000000000000000000000000000000000900463ffffffff1680630720c4da1461009e578063365366fb1461012e57806358555ab8146101c85780636e30199f1461020b578063715018a6146102b45780638da5cb5b146102cb578063b70aa4f914610322578063e44d24e5146103ab578063f2fde38b14610452575b600080fd5b610118600480360381019080803590602001908201803590602001908080601f0160208091040260200160405190810160405280939291908181526020018383808284378201915050505050509192919290803573ffffffffffffffffffffffffffffffffffffffff169060200190929190505050610495565b6040518082815260200191505060405180910390f35b6101b2600480360381019080803590602001908201803590602001908080601f016020809104026020016040519081016040528093929190818152602001838380828437820191505050505050919291929080359060200190929190803573ffffffffffffffffffffffffffffffffffffffff1690602001909291905050506104aa565b6040518082815260200191505060405180910390f35b3480156101d457600080fd5b50610209600480360381019080803573ffffffffffffffffffffffffffffffffffffffff1690602001909291905050506106f9565b005b34801561021757600080fd5b50610272600480360381019080803590602001908201803590602001908080601f0160208091040260200160405190810160405280939291908181526020018383808284378201915050505050509192919290505050610798565b604051808273ffffffffffffffffffffffffffffffffffffffff1673ffffffffffffffffffffffffffffffffffffffff16815260200191505060405180910390f35b3480156102c057600080fd5b506102c961082d565b005b3480156102d757600080fd5b506102e061092f565b604051808273ffffffffffffffffffffffffffffffffffffffff1673ffffffffffffffffffffffffffffffffffffffff16815260200191505060405180910390f35b34801561032e57600080fd5b506103a9600480360381019080803590602001908201803590602001908080601f0160208091040260200160405190810160405280939291908181526020018383808284378201915050505050509192919290803573ffffffffffffffffffffffffffffffffffffffff169060200190929190505050610954565b005b3480156103b757600080fd5b5061043c600480360381019080803590602001908201803590602001908080601f016020809104026020016040519081016040528093929190818152602001838380828437820191505050505050919291929080359060200190929190803573ffffffffffffffffffffffffffffffffffffffff169060200190929190505050610a5d565b6040518082815260200191505060405180910390f35b34801561045e57600080fd5b50610493600480360381019080803573ffffffffffffffffffffffffffffffffffffffff169060200190929190505050610a73565b005b60006104a28334846104aa565b905092915050565b60008060006002866040518082805190602001908083835b6020831015156104e757805182526020820191506020810190506020830392506104c2565b6001836020036101000a038019825116818451168082178552505050505050905001915050908152602001604051809103902060009054906101000a900473ffffffffffffffffffffffffffffffffffffffff1691508173ffffffffffffffffffffffffffffffffffffffff1663504cceac86866040518363ffffffff167c0100000000000000000000000000000000000000000000000000000000028152600401808381526020018273ffffffffffffffffffffffffffffffffffffffff1673ffffffffffffffffffffffffffffffffffffffff16815260200192505050602060405180830381600087803b1580156105e057600080fd5b505af11580156105f4573d6000803e3d6000fd5b505050506040513d602081101561060a57600080fd5b810190808051906020019092919050505090508373ffffffffffffffffffffffffffffffffffffffff16866040518082805190602001908083835b60208310151561066a5780518252602082019150602081019050602083039250610645565b6001836020036101000a03801982511681845116808217855250505050505090500191505060405180910390203373ffffffffffffffffffffffffffffffffffffffff167f6c4623a97b215298f2d8e1a2467c602379e00a9d455518c2965505f2395dc8cc8885604051808381526020018281526020019250505060405180910390a480925050509392505050565b6000809054906101000a900473ffffffffffffffffffffffffffffffffffffffff1673ffffffffffffffffffffffffffffffffffffffff163373ffffffffffffffffffffffffffffffffffffffff1614151561075457600080fd5b80600160006101000a81548173ffffffffffffffffffffffffffffffffffffffff021916908373ffffffffffffffffffffffffffffffffffffffff16021790555050565b60006002826040518082805190602001908083835b6020831015156107d257805182526020820191506020810190506020830392506107ad565b6001836020036101000a038019825116818451168082178552505050505050905001915050908152602001604051809103902060009054906101000a900473ffffffffffffffffffffffffffffffffffffffff169050919050565b6000809054906101000a900473ffffffffffffffffffffffffffffffffffffffff1673ffffffffffffffffffffffffffffffffffffffff163373ffffffffffffffffffffffffffffffffffffffff1614151561088857600080fd5b6000809054906101000a900473ffffffffffffffffffffffffffffffffffffffff1673ffffffffffffffffffffffffffffffffffffffff167ff8df31144d9c2f0f6b59d69b8b98abd5459d07f2742c4df920b25aae33c6482060405160405180910390a260008060006101000a81548173ffffffffffffffffffffffffffffffffffffffff021916908373ffffffffffffffffffffffffffffffffffffffff160217905550565b6000809054906101000a900473ffffffffffffffffffffffffffffffffffffffff1681565b6000809054906101000a900473ffffffffffffffffffffffffffffffffffffffff1673ffffffffffffffffffffffffffffffffffffffff163373ffffffffffffffffffffffffffffffffffffffff161415156109af57600080fd5b806002836040518082805190602001908083835b6020831015156109e857805182526020820191506020810190506020830392506109c3565b6001836020036101000a038019825116818451168082178552505050505050905001915050908152602001604051809103902060006101000a81548173ffffffffffffffffffffffffffffffffffffffff021916908373ffffffffffffffffffffffffffffffffffffffff1602179055505050565b6000610a6a8484846104aa565b90509392505050565b6000809054906101000a900473ffffffffffffffffffffffffffffffffffffffff1673ffffffffffffffffffffffffffffffffffffffff163373ffffffffffffffffffffffffffffffffffffffff16141515610ace57600080fd5b610ad781610ada565b50565b600073ffffffffffffffffffffffffffffffffffffffff168173ffffffffffffffffffffffffffffffffffffffff1614151515610b1657600080fd5b8073ffffffffffffffffffffffffffffffffffffffff166000809054906101000a900473ffffffffffffffffffffffffffffffffffffffff1673ffffffffffffffffffffffffffffffffffffffff167f8be0079c531659141344cd1fd0a4f28419497f9722a3daafe3b4186f6b6457e060405160405180910390a3806000806101000a81548173ffffffffffffffffffffffffffffffffffffffff021916908373ffffffffffffffffffffffffffffffffffffffff160217905550505600a165627a7a7230582070904607eeb7c46f57467f999449c32aee879e166bb2a455e70edf77f0e7bb7f0029",
  "source": "pragma solidity ^0.4.24;\r\n\r\nimport \"./interface/TokenRegistryInterface.sol\";\r\nimport \"./interface/TokenDealerInterface.sol\";\r\nimport \"zeppelin-solidity/contracts/ownership/Ownable.sol\";\r\n\r\ncontract S3DProtocol is Ownable{\r\n\r\n    /*==============================\r\n    =            EVENTS            =\r\n    ==============================*/\r\n    \r\n    event onTokenPurchase(\r\n        address indexed customerAddress,\r\n        string indexed symbol,\r\n        uint256 incomingTokenAmount,\r\n        uint256 tokensMinted,\r\n        address indexed referredBy\r\n    );\r\n\r\n    string constant private ethSymbol  = \"eth\";\r\n    TokenRegistryInterface private tokenRegistry = TokenRegistryInterface(0xfb046c1da17af580b4740eb04054bd7d235dfcdf);\r\n    mapping(string => address) tokenDealerMap;\r\n\r\n    function setTokenRegistryAddress(address tokenRegistryAddress) public view onlyOwner{\r\n        tokenRegistry = TokenRegistryInterface(tokenRegistryAddress);\r\n    }\r\n\r\n    function addDealer(string symbol, address dealerAddress) public view onlyOwner{\r\n        tokenDealerMap[symbol] = dealerAddress;\r\n    }\r\n\r\n    function tokenBuy(string symbol, uint256 incomingTokenAmount, address referredBy) public returns(uint256){\r\n        return buy(symbol, incomingTokenAmount, referredBy);\r\n    }\r\n\r\n    function ethBuy(string symbol, address referredBy) public payable returns(uint256){\r\n        return buy(symbol, msg.value, referredBy);\r\n    }\r\n\r\n    function buy(string symbol, uint256 incomingTokenAmount, address referredBy) public payable returns(uint256){\r\n        //require(tokenRegistry.isTokenRegisteredBySymbol(symbol));\r\n\r\n        TokenDealerInterface dealer = TokenDealerInterface(tokenDealerMap[symbol]);\r\n\r\n        uint256 receiveTokens = dealer.purchaseTokens(incomingTokenAmount, referredBy);\r\n\r\n        emit onTokenPurchase(msg.sender, symbol, incomingTokenAmount, receiveTokens, referredBy);\r\n\r\n        return receiveTokens;\r\n    }   \r\n\r\n    function tokenAddress(string symbol) public view returns (address) {\r\n        return tokenDealerMap[symbol];\r\n    }\r\n}",
  "sourcePath": "D:\\work\\truffle\\s3d\\contracts\\S3DProtocol.sol",
  "compiler": {
    "name": "solc",
    "version": "0.4.24+commit.e67f0147.Emscripten.clang"
  },
  "schemaVersion": "2.0.1",
  "updatedAt": "2018-08-08T11:30:20.942Z"
}