{
  "contractName": "S3DProtocol",
  "abi": [
    {
      "constant": true,
      "inputs": [],
      "name": "name",
      "outputs": [
        {
          "name": "",
          "type": "string"
        }
      ],
      "payable": false,
      "stateMutability": "view",
      "type": "function"
    },
    {
      "constant": true,
      "inputs": [],
      "name": "ethSymbol",
      "outputs": [
        {
          "name": "",
          "type": "string"
        }
      ],
      "payable": false,
      "stateMutability": "view",
      "type": "function"
    },
    {
      "constant": true,
      "inputs": [],
      "name": "decimals",
      "outputs": [
        {
          "name": "",
          "type": "uint8"
        }
      ],
      "payable": false,
      "stateMutability": "view",
      "type": "function"
    },
    {
      "constant": false,
      "inputs": [],
      "name": "claimOwnership",
      "outputs": [],
      "payable": false,
      "stateMutability": "nonpayable",
      "type": "function"
    },
    {
      "constant": true,
      "inputs": [],
      "name": "stakingRequirement",
      "outputs": [
        {
          "name": "",
          "type": "uint256"
        }
      ],
      "payable": false,
      "stateMutability": "view",
      "type": "function"
    },
    {
      "constant": false,
      "inputs": [],
      "name": "renounceOwnership",
      "outputs": [],
      "payable": false,
      "stateMutability": "nonpayable",
      "type": "function"
    },
    {
      "constant": true,
      "inputs": [],
      "name": "owner",
      "outputs": [
        {
          "name": "",
          "type": "address"
        }
      ],
      "payable": false,
      "stateMutability": "view",
      "type": "function"
    },
    {
      "constant": true,
      "inputs": [],
      "name": "symbol",
      "outputs": [
        {
          "name": "",
          "type": "string"
        }
      ],
      "payable": false,
      "stateMutability": "view",
      "type": "function"
    },
    {
      "constant": true,
      "inputs": [],
      "name": "pendingOwner",
      "outputs": [
        {
          "name": "",
          "type": "address"
        }
      ],
      "payable": false,
      "stateMutability": "view",
      "type": "function"
    },
    {
      "constant": false,
      "inputs": [
        {
          "name": "newOwner",
          "type": "address"
        }
      ],
      "name": "transferOwnership",
      "outputs": [],
      "payable": false,
      "stateMutability": "nonpayable",
      "type": "function"
    },
    {
      "constant": true,
      "inputs": [],
      "name": "arbitrageRequirement",
      "outputs": [
        {
          "name": "",
          "type": "uint256"
        }
      ],
      "payable": false,
      "stateMutability": "view",
      "type": "function"
    },
    {
      "anonymous": false,
      "inputs": [
        {
          "indexed": true,
          "name": "previousOwner",
          "type": "address"
        }
      ],
      "name": "OwnershipRenounced",
      "type": "event"
    },
    {
      "anonymous": false,
      "inputs": [
        {
          "indexed": true,
          "name": "previousOwner",
          "type": "address"
        },
        {
          "indexed": true,
          "name": "newOwner",
          "type": "address"
        }
      ],
      "name": "OwnershipTransferred",
      "type": "event"
    },
    {
      "constant": false,
      "inputs": [
        {
          "name": "symbol",
          "type": "string"
        },
        {
          "name": "dealerAddress",
          "type": "address"
        }
      ],
      "name": "addDealer",
      "outputs": [
        {
          "name": "size",
          "type": "uint256"
        }
      ],
      "payable": false,
      "stateMutability": "nonpayable",
      "type": "function"
    },
    {
      "constant": true,
      "inputs": [
        {
          "name": "symbol",
          "type": "string"
        }
      ],
      "name": "getDealer",
      "outputs": [
        {
          "name": "",
          "type": "address"
        }
      ],
      "payable": false,
      "stateMutability": "view",
      "type": "function"
    },
    {
      "constant": false,
      "inputs": [
        {
          "name": "_amountOfTokens",
          "type": "uint256"
        }
      ],
      "name": "setStakingRequirement",
      "outputs": [],
      "payable": false,
      "stateMutability": "nonpayable",
      "type": "function"
    },
    {
      "constant": false,
      "inputs": [
        {
          "name": "_amountOfTokens",
          "type": "uint256"
        }
      ],
      "name": "setArbitrageRequirement",
      "outputs": [],
      "payable": false,
      "stateMutability": "nonpayable",
      "type": "function"
    },
    {
      "constant": true,
      "inputs": [
        {
          "name": "_customerAddress",
          "type": "address"
        }
      ],
      "name": "balanceOf",
      "outputs": [
        {
          "name": "sum",
          "type": "uint256"
        }
      ],
      "payable": false,
      "stateMutability": "view",
      "type": "function"
    },
    {
      "constant": true,
      "inputs": [
        {
          "name": "symbol",
          "type": "string"
        },
        {
          "name": "_customerAddress",
          "type": "address"
        }
      ],
      "name": "balanceOfOneToken",
      "outputs": [
        {
          "name": "",
          "type": "uint256"
        }
      ],
      "payable": false,
      "stateMutability": "view",
      "type": "function"
    },
    {
      "constant": true,
      "inputs": [],
      "name": "totalSupply",
      "outputs": [
        {
          "name": "sum",
          "type": "uint256"
        }
      ],
      "payable": false,
      "stateMutability": "view",
      "type": "function"
    },
    {
      "constant": true,
      "inputs": [
        {
          "name": "symbol",
          "type": "string"
        }
      ],
      "name": "totalSupplyOfOneToken",
      "outputs": [
        {
          "name": "sum",
          "type": "uint256"
        }
      ],
      "payable": false,
      "stateMutability": "view",
      "type": "function"
    },
    {
      "constant": false,
      "inputs": [
        {
          "name": "symbol",
          "type": "string"
        },
        {
          "name": "_tokenAmount",
          "type": "uint256"
        },
        {
          "name": "_referredBy",
          "type": "address"
        }
      ],
      "name": "buy",
      "outputs": [
        {
          "name": "",
          "type": "uint256"
        }
      ],
      "payable": true,
      "stateMutability": "payable",
      "type": "function"
    },
    {
      "constant": false,
      "inputs": [
        {
          "name": "symbol",
          "type": "string"
        },
        {
          "name": "buyAmount",
          "type": "uint256"
        }
      ],
      "name": "reinvest",
      "outputs": [],
      "payable": false,
      "stateMutability": "nonpayable",
      "type": "function"
    },
    {
      "constant": false,
      "inputs": [
        {
          "name": "symbol",
          "type": "string"
        }
      ],
      "name": "exit",
      "outputs": [],
      "payable": false,
      "stateMutability": "nonpayable",
      "type": "function"
    },
    {
      "constant": false,
      "inputs": [],
      "name": "withdrawAll",
      "outputs": [
        {
          "name": "sum",
          "type": "uint256"
        }
      ],
      "payable": false,
      "stateMutability": "nonpayable",
      "type": "function"
    },
    {
      "constant": false,
      "inputs": [
        {
          "name": "symbol",
          "type": "string"
        },
        {
          "name": "withdrawAmount",
          "type": "uint256"
        }
      ],
      "name": "withdraw",
      "outputs": [],
      "payable": false,
      "stateMutability": "nonpayable",
      "type": "function"
    },
    {
      "constant": false,
      "inputs": [
        {
          "name": "symbol",
          "type": "string"
        },
        {
          "name": "_amountOfTokens",
          "type": "uint256"
        }
      ],
      "name": "sell",
      "outputs": [],
      "payable": false,
      "stateMutability": "nonpayable",
      "type": "function"
    },
    {
      "constant": true,
      "inputs": [
        {
          "name": "symbol",
          "type": "string"
        }
      ],
      "name": "totalBalance",
      "outputs": [
        {
          "name": "",
          "type": "uint256"
        }
      ],
      "payable": false,
      "stateMutability": "view",
      "type": "function"
    },
    {
      "constant": true,
      "inputs": [
        {
          "name": "symbol",
          "type": "string"
        },
        {
          "name": "_includeReferralBonus",
          "type": "bool"
        }
      ],
      "name": "myDividends",
      "outputs": [
        {
          "name": "",
          "type": "uint256"
        }
      ],
      "payable": false,
      "stateMutability": "view",
      "type": "function"
    },
    {
      "constant": true,
      "inputs": [
        {
          "name": "symbol",
          "type": "string"
        },
        {
          "name": "_customerAddress",
          "type": "address"
        }
      ],
      "name": "dividendsOf",
      "outputs": [
        {
          "name": "",
          "type": "uint256"
        }
      ],
      "payable": false,
      "stateMutability": "view",
      "type": "function"
    },
    {
      "constant": true,
      "inputs": [
        {
          "name": "symbol",
          "type": "string"
        },
        {
          "name": "_customerAddress",
          "type": "address"
        }
      ],
      "name": "referralBalanceOf",
      "outputs": [
        {
          "name": "",
          "type": "uint256"
        }
      ],
      "payable": false,
      "stateMutability": "view",
      "type": "function"
    },
    {
      "constant": true,
      "inputs": [
        {
          "name": "symbol",
          "type": "string"
        }
      ],
      "name": "sellPrice",
      "outputs": [
        {
          "name": "",
          "type": "uint256"
        }
      ],
      "payable": false,
      "stateMutability": "view",
      "type": "function"
    },
    {
      "constant": true,
      "inputs": [
        {
          "name": "symbol",
          "type": "string"
        }
      ],
      "name": "buyPrice",
      "outputs": [
        {
          "name": "",
          "type": "uint256"
        }
      ],
      "payable": false,
      "stateMutability": "view",
      "type": "function"
    },
    {
      "constant": true,
      "inputs": [
        {
          "name": "symbol",
          "type": "string"
        },
        {
          "name": "_ethereumToSpend",
          "type": "uint256"
        }
      ],
      "name": "calculateTokensReceived",
      "outputs": [
        {
          "name": "",
          "type": "uint256"
        }
      ],
      "payable": false,
      "stateMutability": "view",
      "type": "function"
    },
    {
      "constant": true,
      "inputs": [
        {
          "name": "symbol",
          "type": "string"
        },
        {
          "name": "_tokensToBuy",
          "type": "uint256"
        }
      ],
      "name": "calculateBuyTokenSpend",
      "outputs": [
        {
          "name": "",
          "type": "uint256"
        }
      ],
      "payable": false,
      "stateMutability": "view",
      "type": "function"
    },
    {
      "constant": true,
      "inputs": [
        {
          "name": "symbol",
          "type": "string"
        },
        {
          "name": "_tokensToSell",
          "type": "uint256"
        }
      ],
      "name": "calculateBuyTokenReceived",
      "outputs": [
        {
          "name": "",
          "type": "uint256"
        }
      ],
      "payable": false,
      "stateMutability": "view",
      "type": "function"
    },
    {
      "constant": false,
      "inputs": [
        {
          "name": "fromSymbol",
          "type": "string"
        },
        {
          "name": "sellSymbol",
          "type": "string"
        },
        {
          "name": "_amountOfTokens",
          "type": "uint256"
        }
      ],
      "name": "arbitrageTokens",
      "outputs": [],
      "payable": false,
      "stateMutability": "nonpayable",
      "type": "function"
    },
    {
      "constant": false,
      "inputs": [
        {
          "name": "_to",
          "type": "address"
        },
        {
          "name": "_value",
          "type": "uint256"
        }
      ],
      "name": "transfer",
      "outputs": [
        {
          "name": "success",
          "type": "bool"
        }
      ],
      "payable": false,
      "stateMutability": "nonpayable",
      "type": "function"
    }
  ],
  "bytecode": "0x6080604052681b1ae4d6e2ef500000600555683635c9adc5dea00000600655336000806101000a81548173ffffffffffffffffffffffffffffffffffffffff021916908373ffffffffffffffffffffffffffffffffffffffff1602179055506145ea8061006d6000396000f3006080604052600436106101c2576000357c0100000000000000000000000000000000000000000000000000000000900463ffffffff16806306fdde03146101c757806318160ddd14610257578063227d67cc146102825780632c0f7f4f1461031f57806330b39a62146103af578063313ce5671461042257806333347aa814610453578063365366fb146104da578063472c16a5146105745780634e71e0c81461062d57806356d399e81461064457806370a082311461066f578063715018a6146106c657806377fe0500146106dd5780638328b6101461076457806384d01f6914610791578063853828b61461080e5780638da5cb5b1461083957806395d89b41146108905780639d64dc8e146109205780639f656321146109a9578063a0dbb47014610a1c578063a9059cbb14610ac5578063b609e72014610b2a578063b70aa4f914610b9d578063c7a2136914610c3a578063d539c0f814610cd7578063d89c1a0014610d54578063e30c397814610dd1578063e4ddcbc814610e28578063e7fb538814610e55578063e960303314610ebe578063f0ed3c8c14610f5b578063f2fde38b14610fd8578063f585207c1461101b578063fb103fbb146110a2575b600080fd5b3480156101d357600080fd5b506101dc6110cd565b6040518080602001828103825283818151815260200191508051906020019080838360005b8381101561021c578082015181840152602081019050610201565b50505050905090810190601f1680156102495780820380516001836020036101000a031916815260200191505b509250505060405180910390f35b34801561026357600080fd5b5061026c611106565b6040518082815260200191505060405180910390f35b34801561028e57600080fd5b50610309600480360381019080803590602001908201803590602001908080601f0160208091040260200160405190810160405280939291908181526020018383808284378201915050505050509192919290803573ffffffffffffffffffffffffffffffffffffffff1690602001909291905050506114ed565b6040518082815260200191505060405180910390f35b34801561032b57600080fd5b5061033461169f565b6040518080602001828103825283818151815260200191508051906020019080838360005b83811015610374578082015181840152602081019050610359565b50505050905090810190601f1680156103a15780820380516001836020036101000a031916815260200191505b509250505060405180910390f35b3480156103bb57600080fd5b50610420600480360381019080803590602001908201803590602001908080601f0160208091040260200160405190810160405280939291908181526020018383808284378201915050505050509192919290803590602001909291905050506116d8565b005b34801561042e57600080fd5b5061043761186a565b604051808260ff1660ff16815260200191505060405180910390f35b34801561045f57600080fd5b506104c4600480360381019080803590602001908201803590602001908080601f01602080910402602001604051908101604052809392919081815260200183838082843782019150505050505091929192908035906020019092919050505061186f565b6040518082815260200191505060405180910390f35b61055e600480360381019080803590602001908201803590602001908080601f016020809104026020016040519081016040528093929190818152602001838380828437820191505050505050919291929080359060200190929190803573ffffffffffffffffffffffffffffffffffffffff1690602001909291905050506119f5565b6040518082815260200191505060405180910390f35b34801561058057600080fd5b5061062b600480360381019080803590602001908201803590602001908080601f0160208091040260200160405190810160405280939291908181526020018383808284378201915050505050509192919290803590602001908201803590602001908080601f016020809104026020016040519081016040528093929190818152602001838380828437820191505050505050919291929080359060200190929190505050611eff565b005b34801561063957600080fd5b5061064261226e565b005b34801561065057600080fd5b5061065961240d565b6040518082815260200191505060405180910390f35b34801561067b57600080fd5b506106b0600480360381019080803573ffffffffffffffffffffffffffffffffffffffff169060200190929190505050612413565b6040518082815260200191505060405180910390f35b3480156106d257600080fd5b506106db61282f565b005b3480156106e957600080fd5b5061074e600480360381019080803590602001908201803590602001908080601f016020809104026020016040519081016040528093929190818152602001838380828437820191505050505050919291929080359060200190929190505050612931565b6040518082815260200191505060405180910390f35b34801561077057600080fd5b5061078f60048036038101908080359060200190929190505050612ab7565b005b34801561079d57600080fd5b506107f8600480360381019080803590602001908201803590602001908080601f0160208091040260200160405190810160405280939291908181526020018383808284378201915050505050509192919290505050612b1c565b6040518082815260200191505060405180910390f35b34801561081a57600080fd5b50610823612c96565b6040518082815260200191505060405180910390f35b34801561084557600080fd5b5061084e613215565b604051808273ffffffffffffffffffffffffffffffffffffffff1673ffffffffffffffffffffffffffffffffffffffff16815260200191505060405180910390f35b34801561089c57600080fd5b506108a561323a565b6040518080602001828103825283818151815260200191508051906020019080838360005b838110156108e55780820151818401526020810190506108ca565b50505050905090810190601f1680156109125780820380516001836020036101000a031916815260200191505b509250505060405180910390f35b34801561092c57600080fd5b50610993600480360381019080803590602001908201803590602001908080601f0160208091040260200160405190810160405280939291908181526020018383808284378201915050505050509192919290803515159060200190929190505050613273565b6040518082815260200191505060405180910390f35b3480156109b557600080fd5b50610a1a600480360381019080803590602001908201803590602001908080601f016020809104026020016040519081016040528093929190818152602001838380828437820191505050505050919291929080359060200190929190505050613431565b005b348015610a2857600080fd5b50610a83600480360381019080803590602001908201803590602001908080601f01602080910402602001604051908101604052809392919081815260200183838082843782019150505050505091929192905050506135c3565b604051808273ffffffffffffffffffffffffffffffffffffffff1673ffffffffffffffffffffffffffffffffffffffff16815260200191505060405180910390f35b348015610ad157600080fd5b50610b10600480360381019080803573ffffffffffffffffffffffffffffffffffffffff1690602001909291908035906020019092919050505061365e565b604051808215151515815260200191505060405180910390f35b348015610b3657600080fd5b50610b9b600480360381019080803590602001908201803590602001908080601f016020809104026020016040519081016040528093929190818152602001838380828437820191505050505050919291929080359060200190929190505050613669565b005b348015610ba957600080fd5b50610c24600480360381019080803590602001908201803590602001908080601f0160208091040260200160405190810160405280939291908181526020018383808284378201915050505050509192919290803573ffffffffffffffffffffffffffffffffffffffff1690602001909291905050506137fb565b6040518082815260200191505060405180910390f35b348015610c4657600080fd5b50610cc1600480360381019080803590602001908201803590602001908080601f0160208091040260200160405190810160405280939291908181526020018383808284378201915050505050509192919290803573ffffffffffffffffffffffffffffffffffffffff1690602001909291905050506139ae565b6040518082815260200191505060405180910390f35b348015610ce357600080fd5b50610d3e600480360381019080803590602001908201803590602001908080601f0160208091040260200160405190810160405280939291908181526020018383808284378201915050505050509192919290505050613b5f565b6040518082815260200191505060405180910390f35b348015610d6057600080fd5b50610dbb600480360381019080803590602001908201803590602001908080601f0160208091040260200160405190810160405280939291908181526020018383808284378201915050505050509192919290505050613cd9565b6040518082815260200191505060405180910390f35b348015610ddd57600080fd5b50610de6613e53565b604051808273ffffffffffffffffffffffffffffffffffffffff1673ffffffffffffffffffffffffffffffffffffffff16815260200191505060405180910390f35b348015610e3457600080fd5b50610e5360048036038101908080359060200190929190505050613e79565b005b348015610e6157600080fd5b50610ebc600480360381019080803590602001908201803590602001908080601f0160208091040260200160405190810160405280939291908181526020018383808284378201915050505050509192919290505050613ede565b005b348015610eca57600080fd5b50610f45600480360381019080803590602001908201803590602001908080601f0160208091040260200160405190810160405280939291908181526020018383808284378201915050505050509192919290803573ffffffffffffffffffffffffffffffffffffffff169060200190929190505050614067565b6040518082815260200191505060405180910390f35b348015610f6757600080fd5b50610fc2600480360381019080803590602001908201803590602001908080601f0160208091040260200160405190810160405280939291908181526020018383808284378201915050505050509192919290505050614219565b6040518082815260200191505060405180910390f35b348015610fe457600080fd5b50611019600480360381019080803573ffffffffffffffffffffffffffffffffffffffff169060200190929190505050614393565b005b34801561102757600080fd5b5061108c600480360381019080803590602001908201803590602001908080601f016020809104026020016040519081016040528093929190818152602001838380828437820191505050505050919291929080359060200190929190505050614432565b6040518082815260200191505060405180910390f35b3480156110ae57600080fd5b506110b76145b8565b6040518082815260200191505060405180910390f35b6040805190810160405280600b81526020017f533344207065726665637400000000000000000000000000000000000000000081525081565b60008060606000806000945073__TokenDealerMapping____________________632dc131b260026040518263ffffffff167c01000000000000000000000000000000000000000000000000000000000281526004018082815260200191505060206040518083038186803b15801561117e57600080fd5b505af4158015611192573d6000803e3d6000fd5b505050506040513d60208110156111a857600080fd5b810190808051906020019092919050505093505b73__TokenDealerMapping____________________634ca101476002866040518363ffffffff167c0100000000000000000000000000000000000000000000000000000000028152600401808381526020018281526020019250505060206040518083038186803b15801561123057600080fd5b505af4158015611244573d6000803e3d6000fd5b505050506040513d602081101561125a57600080fd5b8101908080519060200190929190505050156114e65773__TokenDealerMapping____________________63c6ae82086002866040518363ffffffff167c0100000000000000000000000000000000000000000000000000000000028152600401808381526020018281526020019250505060006040518083038186803b1580156112e457600080fd5b505af41580156112f8573d6000803e3d6000fd5b505050506040513d6000823e3d601f19601f82011682018060405250604081101561132257600080fd5b81019080805164010000000081111561133a57600080fd5b8281019050602081018481111561135057600080fd5b815185600182028301116401000000008211171561136d57600080fd5b50509291906020018051906020019092919050505080935081945050508190508073ffffffffffffffffffffffffffffffffffffffff166318160ddd6040518163ffffffff167c0100000000000000000000000000000000000000000000000000000000028152600401602060405180830381600087803b1580156113f157600080fd5b505af1158015611405573d6000803e3d6000fd5b505050506040513d602081101561141b57600080fd5b81019080805190602001909291905050508501945073__TokenDealerMapping____________________634a84c3996002866040518363ffffffff167c0100000000000000000000000000000000000000000000000000000000028152600401808381526020018281526020019250505060206040518083038186803b1580156114a457600080fd5b505af41580156114b8573d6000803e3d6000fd5b505050506040513d60208110156114ce57600080fd5b810190808051906020019092919050505093506111bc565b5050505090565b6000806002600001846040518082805190602001908083835b60208310151561152b5780518252602082019150602081019050602083039250611506565b6001836020036101000a038019825116818451168082178552505050505050905001915050908152602001604051809103902060010160009054906101000a900473ffffffffffffffffffffffffffffffffffffffff169050600073ffffffffffffffffffffffffffffffffffffffff168173ffffffffffffffffffffffffffffffffffffffff16141515156115c057600080fd5b8073ffffffffffffffffffffffffffffffffffffffff166370a08231846040518263ffffffff167c0100000000000000000000000000000000000000000000000000000000028152600401808273ffffffffffffffffffffffffffffffffffffffff1673ffffffffffffffffffffffffffffffffffffffff168152602001915050602060405180830381600087803b15801561165b57600080fd5b505af115801561166f573d6000803e3d6000fd5b505050506040513d602081101561168557600080fd5b810190808051906020019092919050505091505092915050565b6040805190810160405280600381526020017f657468000000000000000000000000000000000000000000000000000000000081525081565b60006002600001836040518082805190602001908083835b60208310151561171557805182526020820191506020810190506020830392506116f0565b6001836020036101000a038019825116818451168082178552505050505050905001915050908152602001604051809103902060010160009054906101000a900473ffffffffffffffffffffffffffffffffffffffff169050600073ffffffffffffffffffffffffffffffffffffffff168173ffffffffffffffffffffffffffffffffffffffff16141515156117aa57600080fd5b8073ffffffffffffffffffffffffffffffffffffffff1663f3fef3a333846040518363ffffffff167c0100000000000000000000000000000000000000000000000000000000028152600401808373ffffffffffffffffffffffffffffffffffffffff1673ffffffffffffffffffffffffffffffffffffffff16815260200182815260200192505050600060405180830381600087803b15801561184d57600080fd5b505af1158015611861573d6000803e3d6000fd5b50505050505050565b601281565b6000806002600001846040518082805190602001908083835b6020831015156118ad5780518252602082019150602081019050602083039250611888565b6001836020036101000a038019825116818451168082178552505050505050905001915050908152602001604051809103902060010160009054906101000a900473ffffffffffffffffffffffffffffffffffffffff169050600073ffffffffffffffffffffffffffffffffffffffff168173ffffffffffffffffffffffffffffffffffffffff161415151561194257600080fd5b8073ffffffffffffffffffffffffffffffffffffffff166310d0ffdd846040518263ffffffff167c010000000000000000000000000000000000000000000000000000000002815260040180828152602001915050602060405180830381600087803b1580156119b157600080fd5b505af11580156119c5573d6000803e3d6000fd5b505050506040513d60208110156119db57600080fd5b810190808051906020019092919050505091505092915050565b6000806002600001856040518082805190602001908083835b602083101515611a335780518252602082019150602081019050602083039250611a0e565b6001836020036101000a038019825116818451168082178552505050505050905001915050908152602001604051809103902060010160009054906101000a900473ffffffffffffffffffffffffffffffffffffffff169050600073ffffffffffffffffffffffffffffffffffffffff168173ffffffffffffffffffffffffffffffffffffffff1614151515611ac857600080fd5b3373ffffffffffffffffffffffffffffffffffffffff168373ffffffffffffffffffffffffffffffffffffffff161480611b0b5750600554611b0984612413565b105b15611b1557600092505b600073__StringUtils___________________________633a96fdd7876040805190810160405280600381526020017f65746800000000000000000000000000000000000000000000000000000000008152506040518363ffffffff167c0100000000000000000000000000000000000000000000000000000000028152600401808060200180602001838103835285818151815260200191508051906020019080838360005b83811015611bd7578082015181840152602081019050611bbc565b50505050905090810190601f168015611c045780820380516001836020036101000a031916815260200191505b50838103825284818151815260200191508051906020019080838360005b83811015611c3d578082015181840152602081019050611c22565b50505050905090810190601f168015611c6a5780820380516001836020036101000a031916815260200191505b5094505050505060206040518083038186803b158015611c8957600080fd5b505af4158015611c9d573d6000803e3d6000fd5b505050506040513d6020811015611cb357600080fd5b81019080805190602001909291905050501415611de3578073ffffffffffffffffffffffffffffffffffffffff1663db61c76e343334876040518563ffffffff167c0100000000000000000000000000000000000000000000000000000000028152600401808473ffffffffffffffffffffffffffffffffffffffff1673ffffffffffffffffffffffffffffffffffffffff1681526020018381526020018273ffffffffffffffffffffffffffffffffffffffff1673ffffffffffffffffffffffffffffffffffffffff16815260200193505050506020604051808303818588803b158015611da157600080fd5b505af1158015611db5573d6000803e3d6000fd5b50505050506040513d6020811015611dcc57600080fd5b810190808051906020019092919050505050611ef7565b8073ffffffffffffffffffffffffffffffffffffffff1663db61c76e3386866040518463ffffffff167c0100000000000000000000000000000000000000000000000000000000028152600401808473ffffffffffffffffffffffffffffffffffffffff1673ffffffffffffffffffffffffffffffffffffffff1681526020018381526020018273ffffffffffffffffffffffffffffffffffffffff1673ffffffffffffffffffffffffffffffffffffffff1681526020019350505050602060405180830381600087803b158015611eba57600080fd5b505af1158015611ece573d6000803e3d6000fd5b505050506040513d6020811015611ee457600080fd5b8101908080519060200190929190505050505b509392505050565b6000806000600654611f1033612413565b10151515611f1d57600080fd5b6002600001866040518082805190602001908083835b602083101515611f585780518252602082019150602081019050602083039250611f33565b6001836020036101000a038019825116818451168082178552505050505050905001915050908152602001604051809103902060010160009054906101000a900473ffffffffffffffffffffffffffffffffffffffff169250600073ffffffffffffffffffffffffffffffffffffffff168373ffffffffffffffffffffffffffffffffffffffff1614151515611fed57600080fd5b8273ffffffffffffffffffffffffffffffffffffffff1663d3d6dce733866040518363ffffffff167c0100000000000000000000000000000000000000000000000000000000028152600401808373ffffffffffffffffffffffffffffffffffffffff1673ffffffffffffffffffffffffffffffffffffffff16815260200182815260200192505050602060405180830381600087803b15801561209057600080fd5b505af11580156120a4573d6000803e3d6000fd5b505050506040513d60208110156120ba57600080fd5b8101908080519060200190929190505050915083821415156120db57600080fd5b6002600001856040518082805190602001908083835b60208310151561211657805182526020820191506020810190506020830392506120f1565b6001836020036101000a038019825116818451168082178552505050505050905001915050908152602001604051809103902060010160009054906101000a900473ffffffffffffffffffffffffffffffffffffffff169050600073ffffffffffffffffffffffffffffffffffffffff168173ffffffffffffffffffffffffffffffffffffffff16141515156121ab57600080fd5b8073ffffffffffffffffffffffffffffffffffffffff16633be8eb7e33866040518363ffffffff167c0100000000000000000000000000000000000000000000000000000000028152600401808373ffffffffffffffffffffffffffffffffffffffff1673ffffffffffffffffffffffffffffffffffffffff16815260200182815260200192505050600060405180830381600087803b15801561224e57600080fd5b505af1158015612262573d6000803e3d6000fd5b50505050505050505050565b600160009054906101000a900473ffffffffffffffffffffffffffffffffffffffff1673ffffffffffffffffffffffffffffffffffffffff163373ffffffffffffffffffffffffffffffffffffffff161415156122ca57600080fd5b600160009054906101000a900473ffffffffffffffffffffffffffffffffffffffff1673ffffffffffffffffffffffffffffffffffffffff166000809054906101000a900473ffffffffffffffffffffffffffffffffffffffff1673ffffffffffffffffffffffffffffffffffffffff167f8be0079c531659141344cd1fd0a4f28419497f9722a3daafe3b4186f6b6457e060405160405180910390a3600160009054906101000a900473ffffffffffffffffffffffffffffffffffffffff166000806101000a81548173ffffffffffffffffffffffffffffffffffffffff021916908373ffffffffffffffffffffffffffffffffffffffff1602179055506000600160006101000a81548173ffffffffffffffffffffffffffffffffffffffff021916908373ffffffffffffffffffffffffffffffffffffffff160217905550565b60055481565b600080606060008073__TokenDealerMapping____________________632dc131b260026040518263ffffffff167c01000000000000000000000000000000000000000000000000000000000281526004018082815260200191505060206040518083038186803b15801561248757600080fd5b505af415801561249b573d6000803e3d6000fd5b505050506040513d60208110156124b157600080fd5b810190808051906020019092919050505093505b73__TokenDealerMapping____________________634ca101476002866040518363ffffffff167c0100000000000000000000000000000000000000000000000000000000028152600401808381526020018281526020019250505060206040518083038186803b15801561253957600080fd5b505af415801561254d573d6000803e3d6000fd5b505050506040513d602081101561256357600080fd5b8101908080519060200190929190505050156128265773__TokenDealerMapping____________________63c6ae82086002866040518363ffffffff167c0100000000000000000000000000000000000000000000000000000000028152600401808381526020018281526020019250505060006040518083038186803b1580156125ed57600080fd5b505af4158015612601573d6000803e3d6000fd5b505050506040513d6000823e3d601f19601f82011682018060405250604081101561262b57600080fd5b81019080805164010000000081111561264357600080fd5b8281019050602081018481111561265957600080fd5b815185600182028301116401000000008211171561267657600080fd5b50509291906020018051906020019092919050505080935081945050508190508073ffffffffffffffffffffffffffffffffffffffff166370a08231876040518263ffffffff167c0100000000000000000000000000000000000000000000000000000000028152600401808273ffffffffffffffffffffffffffffffffffffffff1673ffffffffffffffffffffffffffffffffffffffff168152602001915050602060405180830381600087803b15801561273157600080fd5b505af1158015612745573d6000803e3d6000fd5b505050506040513d602081101561275b57600080fd5b81019080805190602001909291905050508501945073__TokenDealerMapping____________________634a84c3996002866040518363ffffffff167c0100000000000000000000000000000000000000000000000000000000028152600401808381526020018281526020019250505060206040518083038186803b1580156127e457600080fd5b505af41580156127f8573d6000803e3d6000fd5b505050506040513d602081101561280e57600080fd5b810190808051906020019092919050505093506124c5565b50505050919050565b6000809054906101000a900473ffffffffffffffffffffffffffffffffffffffff1673ffffffffffffffffffffffffffffffffffffffff163373ffffffffffffffffffffffffffffffffffffffff1614151561288a57600080fd5b6000809054906101000a900473ffffffffffffffffffffffffffffffffffffffff1673ffffffffffffffffffffffffffffffffffffffff167ff8df31144d9c2f0f6b59d69b8b98abd5459d07f2742c4df920b25aae33c6482060405160405180910390a260008060006101000a81548173ffffffffffffffffffffffffffffffffffffffff021916908373ffffffffffffffffffffffffffffffffffffffff160217905550565b6000806002600001846040518082805190602001908083835b60208310151561296f578051825260208201915060208101905060208303925061294a565b6001836020036101000a038019825116818451168082178552505050505050905001915050908152602001604051809103902060010160009054906101000a900473ffffffffffffffffffffffffffffffffffffffff169050600073ffffffffffffffffffffffffffffffffffffffff168173ffffffffffffffffffffffffffffffffffffffff1614151515612a0457600080fd5b8073ffffffffffffffffffffffffffffffffffffffff1663150c95a8846040518263ffffffff167c010000000000000000000000000000000000000000000000000000000002815260040180828152602001915050602060405180830381600087803b158015612a7357600080fd5b505af1158015612a87573d6000803e3d6000fd5b505050506040513d6020811015612a9d57600080fd5b810190808051906020019092919050505091505092915050565b6000809054906101000a900473ffffffffffffffffffffffffffffffffffffffff1673ffffffffffffffffffffffffffffffffffffffff163373ffffffffffffffffffffffffffffffffffffffff16141515612b1257600080fd5b8060058190555050565b6000806002600001836040518082805190602001908083835b602083101515612b5a5780518252602082019150602081019050602083039250612b35565b6001836020036101000a038019825116818451168082178552505050505050905001915050908152602001604051809103902060010160009054906101000a900473ffffffffffffffffffffffffffffffffffffffff169050600073ffffffffffffffffffffffffffffffffffffffff168173ffffffffffffffffffffffffffffffffffffffff1614151515612bef57600080fd5b8073ffffffffffffffffffffffffffffffffffffffff1663ad7a672f6040518163ffffffff167c0100000000000000000000000000000000000000000000000000000000028152600401602060405180830381600087803b158015612c5357600080fd5b505af1158015612c67573d6000803e3d6000fd5b505050506040513d6020811015612c7d57600080fd5b8101908080519060200190929190505050915050919050565b600080606060008073__TokenDealerMapping____________________632dc131b260026040518263ffffffff167c01000000000000000000000000000000000000000000000000000000000281526004018082815260200191505060206040518083038186803b158015612d0a57600080fd5b505af4158015612d1e573d6000803e3d6000fd5b505050506040513d6020811015612d3457600080fd5b810190808051906020019092919050505093505b73__TokenDealerMapping____________________634ca101476002866040518363ffffffff167c0100000000000000000000000000000000000000000000000000000000028152600401808381526020018281526020019250505060206040518083038186803b158015612dbc57600080fd5b505af4158015612dd0573d6000803e3d6000fd5b505050506040513d6020811015612de657600080fd5b81019080805190602001909291905050501561320e5773__TokenDealerMapping____________________63c6ae82086002866040518363ffffffff167c0100000000000000000000000000000000000000000000000000000000028152600401808381526020018281526020019250505060006040518083038186803b158015612e7057600080fd5b505af4158015612e84573d6000803e3d6000fd5b505050506040513d6000823e3d601f19601f820116820180604052506040811015612eae57600080fd5b810190808051640100000000811115612ec657600080fd5b82810190506020810184811115612edc57600080fd5b8151856001820283011164010000000082111715612ef957600080fd5b50509291906020018051906020019092919050505080935081945050508190508073ffffffffffffffffffffffffffffffffffffffff166318160ddd6040518163ffffffff167c0100000000000000000000000000000000000000000000000000000000028152600401602060405180830381600087803b158015612f7d57600080fd5b505af1158015612f91573d6000803e3d6000fd5b505050506040513d6020811015612fa757600080fd5b81019080805190602001909291905050505060008173ffffffffffffffffffffffffffffffffffffffff1663c383abaa3360016040518363ffffffff167c0100000000000000000000000000000000000000000000000000000000028152600401808373ffffffffffffffffffffffffffffffffffffffff1673ffffffffffffffffffffffffffffffffffffffff1681526020018215151515815260200192505050602060405180830381600087803b15801561306357600080fd5b505af1158015613077573d6000803e3d6000fd5b505050506040513d602081101561308d57600080fd5b81019080805190602001909291905050501115613158578073ffffffffffffffffffffffffffffffffffffffff166351cff8d9336040518263ffffffff167c0100000000000000000000000000000000000000000000000000000000028152600401808273ffffffffffffffffffffffffffffffffffffffff1673ffffffffffffffffffffffffffffffffffffffff168152602001915050600060405180830381600087803b15801561313f57600080fd5b505af1158015613153573d6000803e3d6000fd5b505050505b73__TokenDealerMapping____________________634a84c3996002866040518363ffffffff167c0100000000000000000000000000000000000000000000000000000000028152600401808381526020018281526020019250505060206040518083038186803b1580156131cc57600080fd5b505af41580156131e0573d6000803e3d6000fd5b505050506040513d60208110156131f657600080fd5b81019080805190602001909291905050509350612d48565b5050505090565b6000809054906101000a900473ffffffffffffffffffffffffffffffffffffffff1681565b6040805190810160405280600381526020017f533344000000000000000000000000000000000000000000000000000000000081525081565b6000806002600001846040518082805190602001908083835b6020831015156132b1578051825260208201915060208101905060208303925061328c565b6001836020036101000a038019825116818451168082178552505050505050905001915050908152602001604051809103902060010160009054906101000a900473ffffffffffffffffffffffffffffffffffffffff169050600073ffffffffffffffffffffffffffffffffffffffff168173ffffffffffffffffffffffffffffffffffffffff161415151561334657600080fd5b8073ffffffffffffffffffffffffffffffffffffffff1663c383abaa33856040518363ffffffff167c0100000000000000000000000000000000000000000000000000000000028152600401808373ffffffffffffffffffffffffffffffffffffffff1673ffffffffffffffffffffffffffffffffffffffff1681526020018215151515815260200192505050602060405180830381600087803b1580156133ed57600080fd5b505af1158015613401573d6000803e3d6000fd5b505050506040513d602081101561341757600080fd5b810190808051906020019092919050505091505092915050565b60006002600001836040518082805190602001908083835b60208310151561346e5780518252602082019150602081019050602083039250613449565b6001836020036101000a038019825116818451168082178552505050505050905001915050908152602001604051809103902060010160009054906101000a900473ffffffffffffffffffffffffffffffffffffffff169050600073ffffffffffffffffffffffffffffffffffffffff168173ffffffffffffffffffffffffffffffffffffffff161415151561350357600080fd5b8073ffffffffffffffffffffffffffffffffffffffff16636c197ff533846040518363ffffffff167c0100000000000000000000000000000000000000000000000000000000028152600401808373ffffffffffffffffffffffffffffffffffffffff1673ffffffffffffffffffffffffffffffffffffffff16815260200182815260200192505050600060405180830381600087803b1580156135a657600080fd5b505af11580156135ba573d6000803e3d6000fd5b50505050505050565b60006002600001826040518082805190602001908083835b60208310151561360057805182526020820191506020810190506020830392506135db565b6001836020036101000a038019825116818451168082178552505050505050905001915050908152602001604051809103902060010160009054906101000a900473ffffffffffffffffffffffffffffffffffffffff169050919050565b600080905092915050565b60006002600001836040518082805190602001908083835b6020831015156136a65780518252602082019150602081019050602083039250613681565b6001836020036101000a038019825116818451168082178552505050505050905001915050908152602001604051809103902060010160009054906101000a900473ffffffffffffffffffffffffffffffffffffffff169050600073ffffffffffffffffffffffffffffffffffffffff168173ffffffffffffffffffffffffffffffffffffffff161415151561373b57600080fd5b8073ffffffffffffffffffffffffffffffffffffffff1663d65a261733846040518363ffffffff167c0100000000000000000000000000000000000000000000000000000000028152600401808373ffffffffffffffffffffffffffffffffffffffff1673ffffffffffffffffffffffffffffffffffffffff16815260200182815260200192505050600060405180830381600087803b1580156137de57600080fd5b505af11580156137f2573d6000803e3d6000fd5b50505050505050565b60008060009054906101000a900473ffffffffffffffffffffffffffffffffffffffff1673ffffffffffffffffffffffffffffffffffffffff163373ffffffffffffffffffffffffffffffffffffffff1614151561385857600080fd5b73__TokenDealerMapping____________________63d3a54b0a600285856040518463ffffffff167c010000000000000000000000000000000000000000000000000000000002815260040180848152602001806020018373ffffffffffffffffffffffffffffffffffffffff1673ffffffffffffffffffffffffffffffffffffffff168152602001828103825284818151815260200191508051906020019080838360005b838110156139195780820151818401526020810190506138fe565b50505050905090810190601f1680156139465780820380516001836020036101000a031916815260200191505b5094505050505060206040518083038186803b15801561396557600080fd5b505af4158015613979573d6000803e3d6000fd5b505050506040513d602081101561398f57600080fd5b8101908080519060200190929190505050506002800154905092915050565b6000806002600001846040518082805190602001908083835b6020831015156139ec57805182526020820191506020810190506020830392506139c7565b6001836020036101000a038019825116818451168082178552505050505050905001915050908152602001604051809103902060010160009054906101000a900473ffffffffffffffffffffffffffffffffffffffff169050600073ffffffffffffffffffffffffffffffffffffffff168173ffffffffffffffffffffffffffffffffffffffff1614151515613a8157600080fd5b8073ffffffffffffffffffffffffffffffffffffffff166265318b846040518263ffffffff167c0100000000000000000000000000000000000000000000000000000000028152600401808273ffffffffffffffffffffffffffffffffffffffff1673ffffffffffffffffffffffffffffffffffffffff168152602001915050602060405180830381600087803b158015613b1b57600080fd5b505af1158015613b2f573d6000803e3d6000fd5b505050506040513d6020811015613b4557600080fd5b810190808051906020019092919050505091505092915050565b6000806002600001836040518082805190602001908083835b602083101515613b9d5780518252602082019150602081019050602083039250613b78565b6001836020036101000a038019825116818451168082178552505050505050905001915050908152602001604051809103902060010160009054906101000a900473ffffffffffffffffffffffffffffffffffffffff169050600073ffffffffffffffffffffffffffffffffffffffff168173ffffffffffffffffffffffffffffffffffffffff1614151515613c3257600080fd5b8073ffffffffffffffffffffffffffffffffffffffff16638620410b6040518163ffffffff167c0100000000000000000000000000000000000000000000000000000000028152600401602060405180830381600087803b158015613c9657600080fd5b505af1158015613caa573d6000803e3d6000fd5b505050506040513d6020811015613cc057600080fd5b8101908080519060200190929190505050915050919050565b6000806002600001836040518082805190602001908083835b602083101515613d175780518252602082019150602081019050602083039250613cf2565b6001836020036101000a038019825116818451168082178552505050505050905001915050908152602001604051809103902060010160009054906101000a900473ffffffffffffffffffffffffffffffffffffffff169050600073ffffffffffffffffffffffffffffffffffffffff168173ffffffffffffffffffffffffffffffffffffffff1614151515613dac57600080fd5b8073ffffffffffffffffffffffffffffffffffffffff16634b7503346040518163ffffffff167c0100000000000000000000000000000000000000000000000000000000028152600401602060405180830381600087803b158015613e1057600080fd5b505af1158015613e24573d6000803e3d6000fd5b505050506040513d6020811015613e3a57600080fd5b8101908080519060200190929190505050915050919050565b600160009054906101000a900473ffffffffffffffffffffffffffffffffffffffff1681565b6000809054906101000a900473ffffffffffffffffffffffffffffffffffffffff1673ffffffffffffffffffffffffffffffffffffffff163373ffffffffffffffffffffffffffffffffffffffff16141515613ed457600080fd5b8060068190555050565b60006002600001826040518082805190602001908083835b602083101515613f1b5780518252602082019150602081019050602083039250613ef6565b6001836020036101000a038019825116818451168082178552505050505050905001915050908152602001604051809103902060010160009054906101000a900473ffffffffffffffffffffffffffffffffffffffff169050600073ffffffffffffffffffffffffffffffffffffffff168173ffffffffffffffffffffffffffffffffffffffff1614151515613fb057600080fd5b8073ffffffffffffffffffffffffffffffffffffffff1663b42652e9336040518263ffffffff167c0100000000000000000000000000000000000000000000000000000000028152600401808273ffffffffffffffffffffffffffffffffffffffff1673ffffffffffffffffffffffffffffffffffffffff168152602001915050600060405180830381600087803b15801561404b57600080fd5b505af115801561405f573d6000803e3d6000fd5b505050505050565b6000806002600001846040518082805190602001908083835b6020831015156140a55780518252602082019150602081019050602083039250614080565b6001836020036101000a038019825116818451168082178552505050505050905001915050908152602001604051809103902060010160009054906101000a900473ffffffffffffffffffffffffffffffffffffffff169050600073ffffffffffffffffffffffffffffffffffffffff168173ffffffffffffffffffffffffffffffffffffffff161415151561413a57600080fd5b8073ffffffffffffffffffffffffffffffffffffffff166346534649846040518263ffffffff167c0100000000000000000000000000000000000000000000000000000000028152600401808273ffffffffffffffffffffffffffffffffffffffff1673ffffffffffffffffffffffffffffffffffffffff168152602001915050602060405180830381600087803b1580156141d557600080fd5b505af11580156141e9573d6000803e3d6000fd5b505050506040513d60208110156141ff57600080fd5b810190808051906020019092919050505091505092915050565b6000806002600001836040518082805190602001908083835b6020831015156142575780518252602082019150602081019050602083039250614232565b6001836020036101000a038019825116818451168082178552505050505050905001915050908152602001604051809103902060010160009054906101000a900473ffffffffffffffffffffffffffffffffffffffff169050600073ffffffffffffffffffffffffffffffffffffffff168173ffffffffffffffffffffffffffffffffffffffff16141515156142ec57600080fd5b8073ffffffffffffffffffffffffffffffffffffffff166318160ddd6040518163ffffffff167c0100000000000000000000000000000000000000000000000000000000028152600401602060405180830381600087803b15801561435057600080fd5b505af1158015614364573d6000803e3d6000fd5b505050506040513d602081101561437a57600080fd5b8101908080519060200190929190505050915050919050565b6000809054906101000a900473ffffffffffffffffffffffffffffffffffffffff1673ffffffffffffffffffffffffffffffffffffffff163373ffffffffffffffffffffffffffffffffffffffff161415156143ee57600080fd5b80600160006101000a81548173ffffffffffffffffffffffffffffffffffffffff021916908373ffffffffffffffffffffffffffffffffffffffff16021790555050565b6000806002600001846040518082805190602001908083835b602083101515614470578051825260208201915060208101905060208303925061444b565b6001836020036101000a038019825116818451168082178552505050505050905001915050908152602001604051809103902060010160009054906101000a900473ffffffffffffffffffffffffffffffffffffffff169050600073ffffffffffffffffffffffffffffffffffffffff168173ffffffffffffffffffffffffffffffffffffffff161415151561450557600080fd5b8073ffffffffffffffffffffffffffffffffffffffff1663b73f34b4846040518263ffffffff167c010000000000000000000000000000000000000000000000000000000002815260040180828152602001915050602060405180830381600087803b15801561457457600080fd5b505af1158015614588573d6000803e3d6000fd5b505050506040513d602081101561459e57600080fd5b810190808051906020019092919050505091505092915050565b600654815600a165627a7a72305820dfb860591a32d6fe69f648727c30174f8e9b493234887e5991d7817b261ece4d0029",
  "source": "pragma solidity ^0.4.24;\r\n\r\n\r\nimport \"zeppelin-solidity/contracts/ownership/Claimable.sol\";\r\nimport \"../contracts/interface/TokenDealerInterface.sol\";\r\nimport \"../contracts/library/TokenDealerMapping.sol\";\r\nimport \"../contracts/library/StringUtils.sol\";\r\n\r\n\r\ncontract S3DProtocol is Claimable{\r\n\r\n    TokenDealerMapping.itmap tokenDealerMap;\r\n\r\n    // proof of stake (defaults at 100 tokens)\r\n    uint256 public stakingRequirement = 500e18;\r\n\r\n    uint256 public arbitrageRequirement = 1000e18;\r\n\r\n    string constant public ethSymbol = \"eth\";\r\n\r\n    uint8 constant public decimals = 18;\r\n    string constant public name = \"S3D perfect\";\r\n    string constant public symbol = \"S3D\";\r\n\r\n    function addDealer(string symbol, address dealerAddress) \r\n        public \r\n        onlyOwner \r\n        returns (uint size) \r\n    {\r\n        TokenDealerMapping.insert(tokenDealerMap, symbol, dealerAddress);\r\n        return tokenDealerMap.size;\r\n    }\r\n\r\n    function getDealer(string symbol) \r\n        public \r\n        view \r\n        returns (address) \r\n    {\r\n        return tokenDealerMap.data[symbol].value;\r\n    }\r\n\r\n    function setStakingRequirement(uint256 _amountOfTokens) \r\n        onlyOwner() \r\n        public \r\n    {\r\n        stakingRequirement = _amountOfTokens;\r\n    }\r\n\r\n    function setArbitrageRequirement(uint256 _amountOfTokens) \r\n        onlyOwner() \r\n        public \r\n    {\r\n        arbitrageRequirement = _amountOfTokens;\r\n    }\r\n    \r\n    //add all s3d\r\n    function balanceOf( address _customerAddress) \r\n        public \r\n        view \r\n        returns (uint256 sum) \r\n    {\r\n        for (uint i = TokenDealerMapping.iterate_start(tokenDealerMap); TokenDealerMapping.iterate_valid(tokenDealerMap, i); i = TokenDealerMapping.iterate_next(tokenDealerMap, i))\r\n        {\r\n            string memory key;\r\n            address value;\r\n            (key, value) = TokenDealerMapping.iterate_get(tokenDealerMap, i);\r\n            TokenDealerInterface dealerContract = TokenDealerInterface(value);\r\n            sum += dealerContract.balanceOf(_customerAddress);\r\n        } \r\n    }\r\n\r\n    function balanceOfOneToken(string symbol, address _customerAddress) \r\n        public \r\n        view \r\n        returns (uint256)\r\n    {\r\n        TokenDealerInterface dealerContract = TokenDealerInterface(tokenDealerMap.data[symbol].value);\r\n        require(dealerContract != address(0));\r\n        return dealerContract.balanceOf(_customerAddress);\r\n    }\r\n\r\n    //add all s3d\r\n    function totalSupply() \r\n        public \r\n        view \r\n        returns (uint256 sum) \r\n    {\r\n        sum = 0;\r\n        for (uint i = TokenDealerMapping.iterate_start(tokenDealerMap); TokenDealerMapping.iterate_valid(tokenDealerMap, i); i = TokenDealerMapping.iterate_next(tokenDealerMap, i))\r\n        {\r\n            string memory key;\r\n            address value;\r\n            (key, value) = TokenDealerMapping.iterate_get(tokenDealerMap, i);\r\n            TokenDealerInterface dealerContract = TokenDealerInterface(value);\r\n            sum += dealerContract.totalSupply();\r\n        }\r\n    }\r\n\r\n    function totalSupplyOfOneToken(string symbol) \r\n        public \r\n        view \r\n        returns (uint256 sum) \r\n    {\r\n        TokenDealerInterface dealerContract = TokenDealerInterface(tokenDealerMap.data[symbol].value);\r\n        require(dealerContract != address(0));\r\n        return dealerContract.totalSupply();\r\n    }\r\n\r\n    modifier arbitrageBarrier() \r\n    {\r\n        require(balanceOf(msg.sender) >= arbitrageRequirement);\r\n        _;\r\n    }\r\n\r\n    function buy(string symbol, uint256 _tokenAmount, address _referredBy)\r\n        public\r\n        payable\r\n        returns(uint256)\r\n    {\r\n        TokenDealerInterface dealerContract = TokenDealerInterface(tokenDealerMap.data[symbol].value);\r\n        require(dealerContract != address(0));\r\n\r\n        if( \r\n            // no cheating!\r\n            _referredBy == msg.sender ||\r\n            \r\n            // does the referrer have at least X whole tokens?\r\n            // i.e is the referrer a godly chad masternode\r\n            balanceOf(_referredBy) < stakingRequirement\r\n        ) {\r\n            _referredBy = 0x0000000000000000000000000000000000000000;\r\n        }\r\n  \r\n\r\n        if(StringUtils.compare(symbol, ethSymbol) == 0) {\r\n            dealerContract.buy.value(msg.value)(msg.sender, msg.value, _referredBy);\r\n        } else {\r\n            dealerContract.buy(msg.sender, _tokenAmount, _referredBy);\r\n        }\r\n    }\r\n\r\n    function reinvest(string symbol, uint256 buyAmount) \r\n        public\r\n    {\r\n        TokenDealerInterface dealerContract = TokenDealerInterface(tokenDealerMap.data[symbol].value);\r\n        require(dealerContract != address(0));\r\n        dealerContract.reinvest(msg.sender, buyAmount);\r\n    }\r\n\r\n    function exit(string symbol) \r\n        public \r\n    {\r\n        TokenDealerInterface dealerContract = TokenDealerInterface(tokenDealerMap.data[symbol].value);\r\n        require(dealerContract != address(0));\r\n        dealerContract.exit(msg.sender);\r\n    }\r\n\r\n    function withdrawAll() \r\n        public \r\n        returns (uint256 sum) \r\n    {\r\n        for (uint i = TokenDealerMapping.iterate_start(tokenDealerMap); TokenDealerMapping.iterate_valid(tokenDealerMap, i); i = TokenDealerMapping.iterate_next(tokenDealerMap, i))\r\n        {\r\n            string memory key;\r\n            address value;\r\n            (key, value) = TokenDealerMapping.iterate_get(tokenDealerMap, i);\r\n            TokenDealerInterface dealerContract = TokenDealerInterface(value);\r\n            dealerContract.totalSupply();\r\n            if (dealerContract.myDividends(msg.sender, true) > 0) {\r\n                dealerContract.withdraw(msg.sender);\r\n            }\r\n        }\r\n    }\r\n\r\n    function withdraw(string symbol, uint256 withdrawAmount) \r\n        public\r\n    {\r\n        TokenDealerInterface dealerContract = TokenDealerInterface(tokenDealerMap.data[symbol].value);\r\n        require(dealerContract != address(0));\r\n        dealerContract.withdraw(msg.sender, withdrawAmount);\r\n    }\r\n\r\n    function sell(string symbol, uint256 _amountOfTokens) \r\n        public \r\n    {\r\n        TokenDealerInterface dealerContract = TokenDealerInterface(tokenDealerMap.data[symbol].value);\r\n        require(dealerContract != address(0));\r\n        dealerContract.sell(msg.sender, _amountOfTokens);\r\n    }\r\n\r\n    function totalBalance(string symbol) \r\n        public \r\n        view \r\n        returns(uint) \r\n    {\r\n        TokenDealerInterface dealerContract = TokenDealerInterface(tokenDealerMap.data[symbol].value);\r\n        require(dealerContract != address(0));\r\n        return dealerContract.totalBalance();\r\n    }\r\n\r\n    function myDividends(string symbol, bool _includeReferralBonus) \r\n        public \r\n        view \r\n        returns(uint256)\r\n    {\r\n        TokenDealerInterface dealerContract = TokenDealerInterface(tokenDealerMap.data[symbol].value);\r\n        require(dealerContract != address(0));\r\n        return dealerContract.myDividends(msg.sender, _includeReferralBonus);\r\n    }\r\n\r\n    function dividendsOf(string symbol, address _customerAddress) \r\n        view \r\n        public \r\n        returns(uint256) \r\n    {\r\n        TokenDealerInterface dealerContract = TokenDealerInterface(tokenDealerMap.data[symbol].value);\r\n        require(dealerContract != address(0));\r\n        return dealerContract.dividendsOf(_customerAddress);\r\n    }\r\n\r\n    function referralBalanceOf(string symbol, address _customerAddress) \r\n        view \r\n        public \r\n        returns(uint256) \r\n    {\r\n        TokenDealerInterface dealerContract = TokenDealerInterface(tokenDealerMap.data[symbol].value);\r\n        require(dealerContract != address(0));\r\n        return dealerContract.referralBalanceOf(_customerAddress);\r\n    }\r\n\r\n    function sellPrice(string symbol) \r\n        public \r\n        view \r\n        returns(uint256) \r\n    {\r\n        TokenDealerInterface dealerContract = TokenDealerInterface(tokenDealerMap.data[symbol].value);\r\n        require(dealerContract != address(0));\r\n        return dealerContract.sellPrice();\r\n    }\r\n\r\n    function buyPrice(string symbol) \r\n        public \r\n        view \r\n        returns(uint256) \r\n    {\r\n        TokenDealerInterface dealerContract = TokenDealerInterface(tokenDealerMap.data[symbol].value);\r\n        require(dealerContract != address(0));\r\n        return dealerContract.buyPrice();\r\n    }\r\n\r\n    function calculateTokensReceived(string symbol, uint256 _ethereumToSpend) \r\n        public \r\n        view \r\n        returns(uint256) \r\n    {\r\n        TokenDealerInterface dealerContract = TokenDealerInterface(tokenDealerMap.data[symbol].value);\r\n        require(dealerContract != address(0));\r\n        return dealerContract.calculateTokensReceived(_ethereumToSpend);\r\n    }\r\n\r\n    function calculateBuyTokenSpend(string symbol, uint256 _tokensToBuy) \r\n        public \r\n        view \r\n        returns(uint256) \r\n    {\r\n        TokenDealerInterface dealerContract = TokenDealerInterface(tokenDealerMap.data[symbol].value);\r\n        require(dealerContract != address(0));\r\n        return dealerContract.calculateBuyTokenSpend(_tokensToBuy);\r\n    }\r\n\r\n    function calculateBuyTokenReceived(string symbol, uint256 _tokensToSell) \r\n        public \r\n        view \r\n        returns(uint256) \r\n    {\r\n        TokenDealerInterface dealerContract = TokenDealerInterface(tokenDealerMap.data[symbol].value);\r\n        require(dealerContract != address(0));\r\n        return dealerContract.calculateBuyTokenReceived(_tokensToSell);\r\n    }\r\n\r\n    function arbitrageTokens(string fromSymbol, string sellSymbol, uint256 _amountOfTokens) \r\n        arbitrageBarrier()\r\n        public \r\n    {\r\n        TokenDealerInterface escapeContract = TokenDealerInterface(tokenDealerMap.data[fromSymbol].value);\r\n        require(escapeContract != address(0));\r\n\r\n        uint256 _tokens = escapeContract.escapeTokens(msg.sender, _amountOfTokens); \r\n        require(_tokens == _amountOfTokens);\r\n\r\n        TokenDealerInterface dealerContract = TokenDealerInterface(tokenDealerMap.data[sellSymbol].value);\r\n        require(dealerContract != address(0));\r\n\r\n        dealerContract.arbitrageTokens(msg.sender, _amountOfTokens);\r\n    }\r\n\r\n    function transfer(address _to, uint _value) \r\n        public \r\n        returns (bool success) \r\n    {\r\n        return false;\r\n    }\r\n}",
  "sourcePath": "D:\\work\\truffle\\s3d\\contracts\\S3DProtocol.sol",
  "compiler": {
    "name": "solc",
    "version": "0.4.24+commit.e67f0147.Emscripten.clang"
  },
  "schemaVersion": "2.0.1",
  "updatedAt": "2018-08-23T08:05:00.418Z"
}