{
  "contractName": "S3DProtocol",
  "abi": [
    {
      "constant": true,
      "inputs": [],
      "name": "name",
      "outputs": [
        {
          "name": "",
          "type": "string"
        }
      ],
      "payable": false,
      "stateMutability": "view",
      "type": "function"
    },
    {
      "constant": true,
      "inputs": [],
      "name": "decimals",
      "outputs": [
        {
          "name": "",
          "type": "uint8"
        }
      ],
      "payable": false,
      "stateMutability": "view",
      "type": "function"
    },
    {
      "constant": true,
      "inputs": [],
      "name": "referralRequirement",
      "outputs": [
        {
          "name": "",
          "type": "uint256"
        }
      ],
      "payable": false,
      "stateMutability": "view",
      "type": "function"
    },
    {
      "constant": false,
      "inputs": [],
      "name": "claimOwnership",
      "outputs": [],
      "payable": false,
      "stateMutability": "nonpayable",
      "type": "function"
    },
    {
      "constant": false,
      "inputs": [],
      "name": "renounceOwnership",
      "outputs": [],
      "payable": false,
      "stateMutability": "nonpayable",
      "type": "function"
    },
    {
      "constant": true,
      "inputs": [],
      "name": "owner",
      "outputs": [
        {
          "name": "",
          "type": "address"
        }
      ],
      "payable": false,
      "stateMutability": "view",
      "type": "function"
    },
    {
      "constant": true,
      "inputs": [],
      "name": "symbol",
      "outputs": [
        {
          "name": "",
          "type": "string"
        }
      ],
      "payable": false,
      "stateMutability": "view",
      "type": "function"
    },
    {
      "constant": true,
      "inputs": [],
      "name": "pendingOwner",
      "outputs": [
        {
          "name": "",
          "type": "address"
        }
      ],
      "payable": false,
      "stateMutability": "view",
      "type": "function"
    },
    {
      "constant": false,
      "inputs": [
        {
          "name": "newOwner",
          "type": "address"
        }
      ],
      "name": "transferOwnership",
      "outputs": [],
      "payable": false,
      "stateMutability": "nonpayable",
      "type": "function"
    },
    {
      "constant": true,
      "inputs": [],
      "name": "arbitrageRequirement",
      "outputs": [
        {
          "name": "",
          "type": "uint256"
        }
      ],
      "payable": false,
      "stateMutability": "view",
      "type": "function"
    },
    {
      "anonymous": false,
      "inputs": [
        {
          "indexed": true,
          "name": "previousOwner",
          "type": "address"
        }
      ],
      "name": "OwnershipRenounced",
      "type": "event"
    },
    {
      "anonymous": false,
      "inputs": [
        {
          "indexed": true,
          "name": "previousOwner",
          "type": "address"
        },
        {
          "indexed": true,
          "name": "newOwner",
          "type": "address"
        }
      ],
      "name": "OwnershipTransferred",
      "type": "event"
    },
    {
      "constant": false,
      "inputs": [
        {
          "name": "_customerAddress",
          "type": "address"
        }
      ],
      "name": "addReferraler",
      "outputs": [],
      "payable": false,
      "stateMutability": "nonpayable",
      "type": "function"
    },
    {
      "constant": false,
      "inputs": [
        {
          "name": "_customerAddress",
          "type": "address"
        }
      ],
      "name": "removeReferraler",
      "outputs": [],
      "payable": false,
      "stateMutability": "nonpayable",
      "type": "function"
    },
    {
      "constant": false,
      "inputs": [
        {
          "name": "_customerAddress",
          "type": "address"
        }
      ],
      "name": "addArbitrager",
      "outputs": [],
      "payable": false,
      "stateMutability": "nonpayable",
      "type": "function"
    },
    {
      "constant": false,
      "inputs": [
        {
          "name": "_customerAddress",
          "type": "address"
        }
      ],
      "name": "removeArbitrager",
      "outputs": [],
      "payable": false,
      "stateMutability": "nonpayable",
      "type": "function"
    },
    {
      "constant": true,
      "inputs": [
        {
          "name": "_customerAddress",
          "type": "address"
        }
      ],
      "name": "isReferraler",
      "outputs": [
        {
          "name": "",
          "type": "bool"
        }
      ],
      "payable": false,
      "stateMutability": "view",
      "type": "function"
    },
    {
      "constant": true,
      "inputs": [
        {
          "name": "_customerAddress",
          "type": "address"
        }
      ],
      "name": "isArbitrager",
      "outputs": [
        {
          "name": "",
          "type": "bool"
        }
      ],
      "payable": false,
      "stateMutability": "view",
      "type": "function"
    },
    {
      "constant": false,
      "inputs": [
        {
          "name": "_symbol",
          "type": "string"
        },
        {
          "name": "_dealerAddress",
          "type": "address"
        }
      ],
      "name": "addDealer",
      "outputs": [
        {
          "name": "size",
          "type": "uint256"
        }
      ],
      "payable": false,
      "stateMutability": "nonpayable",
      "type": "function"
    },
    {
      "constant": false,
      "inputs": [
        {
          "name": "_symbol",
          "type": "string"
        }
      ],
      "name": "removeDealer",
      "outputs": [
        {
          "name": "size",
          "type": "uint256"
        }
      ],
      "payable": false,
      "stateMutability": "nonpayable",
      "type": "function"
    },
    {
      "constant": true,
      "inputs": [
        {
          "name": "_symbol",
          "type": "string"
        }
      ],
      "name": "getDealer",
      "outputs": [
        {
          "name": "",
          "type": "address"
        }
      ],
      "payable": false,
      "stateMutability": "view",
      "type": "function"
    },
    {
      "constant": false,
      "inputs": [
        {
          "name": "_amountOfTokens",
          "type": "uint256"
        }
      ],
      "name": "setReferralRequirement",
      "outputs": [],
      "payable": false,
      "stateMutability": "nonpayable",
      "type": "function"
    },
    {
      "constant": false,
      "inputs": [
        {
          "name": "_amountOfTokens",
          "type": "uint256"
        }
      ],
      "name": "setArbitrageRequirement",
      "outputs": [],
      "payable": false,
      "stateMutability": "nonpayable",
      "type": "function"
    },
    {
      "constant": true,
      "inputs": [
        {
          "name": "_customerAddress",
          "type": "address"
        }
      ],
      "name": "balanceOf",
      "outputs": [
        {
          "name": "_sum",
          "type": "uint256"
        }
      ],
      "payable": false,
      "stateMutability": "view",
      "type": "function"
    },
    {
      "constant": true,
      "inputs": [
        {
          "name": "_symbol",
          "type": "string"
        },
        {
          "name": "_customerAddress",
          "type": "address"
        }
      ],
      "name": "balanceOfOneToken",
      "outputs": [
        {
          "name": "",
          "type": "uint256"
        }
      ],
      "payable": false,
      "stateMutability": "view",
      "type": "function"
    },
    {
      "constant": true,
      "inputs": [],
      "name": "totalSupply",
      "outputs": [
        {
          "name": "_sum",
          "type": "uint256"
        }
      ],
      "payable": false,
      "stateMutability": "view",
      "type": "function"
    },
    {
      "constant": true,
      "inputs": [
        {
          "name": "_symbol",
          "type": "string"
        }
      ],
      "name": "totalSupplyOfOneToken",
      "outputs": [
        {
          "name": "",
          "type": "uint256"
        }
      ],
      "payable": false,
      "stateMutability": "view",
      "type": "function"
    },
    {
      "constant": false,
      "inputs": [
        {
          "name": "_symbol",
          "type": "string"
        },
        {
          "name": "_tokenAmount",
          "type": "uint256"
        },
        {
          "name": "_referredBy",
          "type": "address"
        }
      ],
      "name": "buy",
      "outputs": [
        {
          "name": "",
          "type": "uint256"
        }
      ],
      "payable": true,
      "stateMutability": "payable",
      "type": "function"
    },
    {
      "constant": false,
      "inputs": [
        {
          "name": "_symbol",
          "type": "string"
        },
        {
          "name": "_buyAmount",
          "type": "uint256"
        }
      ],
      "name": "reinvest",
      "outputs": [],
      "payable": false,
      "stateMutability": "nonpayable",
      "type": "function"
    },
    {
      "constant": false,
      "inputs": [
        {
          "name": "_symbol",
          "type": "string"
        }
      ],
      "name": "exit",
      "outputs": [],
      "payable": false,
      "stateMutability": "nonpayable",
      "type": "function"
    },
    {
      "constant": false,
      "inputs": [],
      "name": "withdrawAll",
      "outputs": [],
      "payable": false,
      "stateMutability": "nonpayable",
      "type": "function"
    },
    {
      "constant": false,
      "inputs": [
        {
          "name": "_symbol",
          "type": "string"
        },
        {
          "name": "_withdrawAmount",
          "type": "uint256"
        }
      ],
      "name": "withdraw",
      "outputs": [],
      "payable": false,
      "stateMutability": "nonpayable",
      "type": "function"
    },
    {
      "constant": false,
      "inputs": [
        {
          "name": "_symbol",
          "type": "string"
        },
        {
          "name": "_amountOfTokens",
          "type": "uint256"
        }
      ],
      "name": "sell",
      "outputs": [],
      "payable": false,
      "stateMutability": "nonpayable",
      "type": "function"
    },
    {
      "constant": true,
      "inputs": [
        {
          "name": "_symbol",
          "type": "string"
        }
      ],
      "name": "totalBalance",
      "outputs": [
        {
          "name": "",
          "type": "uint256"
        }
      ],
      "payable": false,
      "stateMutability": "view",
      "type": "function"
    },
    {
      "constant": true,
      "inputs": [
        {
          "name": "_symbol",
          "type": "string"
        },
        {
          "name": "_customerAddress",
          "type": "address"
        }
      ],
      "name": "dividendsOf",
      "outputs": [
        {
          "name": "",
          "type": "uint256"
        }
      ],
      "payable": false,
      "stateMutability": "view",
      "type": "function"
    },
    {
      "constant": true,
      "inputs": [
        {
          "name": "_symbol",
          "type": "string"
        },
        {
          "name": "_customerAddress",
          "type": "address"
        }
      ],
      "name": "referralBalanceOf",
      "outputs": [
        {
          "name": "",
          "type": "uint256"
        }
      ],
      "payable": false,
      "stateMutability": "view",
      "type": "function"
    },
    {
      "constant": true,
      "inputs": [
        {
          "name": "_symbol",
          "type": "string"
        }
      ],
      "name": "sellPrice",
      "outputs": [
        {
          "name": "",
          "type": "uint256"
        }
      ],
      "payable": false,
      "stateMutability": "view",
      "type": "function"
    },
    {
      "constant": true,
      "inputs": [
        {
          "name": "_symbol",
          "type": "string"
        }
      ],
      "name": "buyPrice",
      "outputs": [
        {
          "name": "",
          "type": "uint256"
        }
      ],
      "payable": false,
      "stateMutability": "view",
      "type": "function"
    },
    {
      "constant": true,
      "inputs": [
        {
          "name": "_symbol",
          "type": "string"
        },
        {
          "name": "_buyTokenToSpend",
          "type": "uint256"
        }
      ],
      "name": "calculateTokensReceived",
      "outputs": [
        {
          "name": "",
          "type": "uint256"
        }
      ],
      "payable": false,
      "stateMutability": "view",
      "type": "function"
    },
    {
      "constant": true,
      "inputs": [
        {
          "name": "_symbol",
          "type": "string"
        },
        {
          "name": "_tokensToBuy",
          "type": "uint256"
        }
      ],
      "name": "calculateBuyTokenSpend",
      "outputs": [
        {
          "name": "",
          "type": "uint256"
        }
      ],
      "payable": false,
      "stateMutability": "view",
      "type": "function"
    },
    {
      "constant": true,
      "inputs": [
        {
          "name": "_symbol",
          "type": "string"
        },
        {
          "name": "_tokensToSell",
          "type": "uint256"
        }
      ],
      "name": "calculateBuyTokenReceived",
      "outputs": [
        {
          "name": "",
          "type": "uint256"
        }
      ],
      "payable": false,
      "stateMutability": "view",
      "type": "function"
    },
    {
      "constant": false,
      "inputs": [
        {
          "name": "_fromSymbol",
          "type": "string"
        },
        {
          "name": "_toSymbol",
          "type": "string"
        },
        {
          "name": "_amountOfTokens",
          "type": "uint256"
        }
      ],
      "name": "arbitrageTokens",
      "outputs": [],
      "payable": false,
      "stateMutability": "nonpayable",
      "type": "function"
    },
    {
      "constant": true,
      "inputs": [
        {
          "name": "_symbol",
          "type": "string"
        }
      ],
      "name": "getProfitPerShareOfOneToken",
      "outputs": [
        {
          "name": "",
          "type": "uint256"
        }
      ],
      "payable": false,
      "stateMutability": "view",
      "type": "function"
    }
  ],
  "bytecode": "0x6080604052681b1ae4d6e2ef500000600555683635c9adc5dea00000600655336000806101000a81548173ffffffffffffffffffffffffffffffffffffffff021916908373ffffffffffffffffffffffffffffffffffffffff160217905550614bd48061006d6000396000f3006080604052600436106101f9576000357c0100000000000000000000000000000000000000000000000000000000900463ffffffff16806306fdde03146101fe5780630df35ddb1461028e57806318160ddd146102e9578063227d67cc1461031457806323805b8f146103b15780632ed27d5d146103f457806330b39a6214610437578063313ce567146104aa57806333347aa8146104db578063365366fb146105625780633eaeef1b146105fc578063472c16a5146106275780634e71e0c8146106e0578063648b435a146106f75780636addf0291461077457806370a08231146107a1578063715018a6146107f857806377fe05001461080f57806384d01f6914610896578063853828b6146109135780638da5cb5b1461092a57806395d89b41146109815780639f65632114610a11578063a0dbb47014610a84578063b18c7fa114610b2d578063b609e72014610baa578063b70aa4f914610c1d578063c688857214610cba578063c7a2136914610cfd578063d539c0f814610d9a578063d89c1a0014610e17578063dae19cdf14610e94578063e30c397814610eef578063e4ddcbc814610f46578063e7fb538814610f73578063e960303314610fdc578063f09e7d4d14611079578063f0ed3c8c146110bc578063f2fde38b14611139578063f585207c1461117c578063fb103fbb14611203575b600080fd5b34801561020a57600080fd5b5061021361122e565b6040518080602001828103825283818151815260200191508051906020019080838360005b83811015610253578082015181840152602081019050610238565b50505050905090810190601f1680156102805780820380516001836020036101000a031916815260200191505b509250505060405180910390f35b34801561029a57600080fd5b506102cf600480360381019080803573ffffffffffffffffffffffffffffffffffffffff169060200190929190505050611267565b604051808215151515815260200191505060405180910390f35b3480156102f557600080fd5b506102fe6112bd565b6040518082815260200191505060405180910390f35b34801561032057600080fd5b5061039b600480360381019080803590602001908201803590602001908080601f0160208091040260200160405190810160405280939291908181526020018383808284378201915050505050509192919290803573ffffffffffffffffffffffffffffffffffffffff16906020019092919050505061169f565b6040518082815260200191505060405180910390f35b3480156103bd57600080fd5b506103f2600480360381019080803573ffffffffffffffffffffffffffffffffffffffff16906020019092919050505061184e565b005b34801561040057600080fd5b50610435600480360381019080803573ffffffffffffffffffffffffffffffffffffffff169060200190929190505050611904565b005b34801561044357600080fd5b506104a8600480360381019080803590602001908201803590602001908080601f0160208091040260200160405190810160405280939291908181526020018383808284378201915050505050509192919290803590602001909291905050506119ba565b005b3480156104b657600080fd5b506104bf611b49565b604051808260ff1660ff16815260200191505060405180910390f35b3480156104e757600080fd5b5061054c600480360381019080803590602001908201803590602001908080601f016020809104026020016040519081016040528093929190818152602001838380828437820191505050505050919291929080359060200190929190505050611b4e565b6040518082815260200191505060405180910390f35b6105e6600480360381019080803590602001908201803590602001908080601f016020809104026020016040519081016040528093929190818152602001838380828437820191505050505050919291929080359060200190929190803573ffffffffffffffffffffffffffffffffffffffff169060200190929190505050611cd1565b6040518082815260200191505060405180910390f35b34801561060857600080fd5b506106116121ef565b6040518082815260200191505060405180910390f35b34801561063357600080fd5b506106de600480360381019080803590602001908201803590602001908080601f0160208091040260200160405190810160405280939291908181526020018383808284378201915050505050509192919290803590602001908201803590602001908080601f0160208091040260200160405190810160405280939291908181526020018383808284378201915050505050509192919290803590602001909291905050506121f5565b005b3480156106ec57600080fd5b506106f561256b565b005b34801561070357600080fd5b5061075e600480360381019080803590602001908201803590602001908080601f016020809104026020016040519081016040528093929190818152602001838380828437820191505050505050919291929050505061270a565b6040518082815260200191505060405180910390f35b34801561078057600080fd5b5061079f60048036038101908080359060200190929190505050612888565b005b3480156107ad57600080fd5b506107e2600480360381019080803573ffffffffffffffffffffffffffffffffffffffff1690602001909291905050506128ed565b6040518082815260200191505060405180910390f35b34801561080457600080fd5b5061080d612d04565b005b34801561081b57600080fd5b50610880600480360381019080803590602001908201803590602001908080601f016020809104026020016040519081016040528093929190818152602001838380828437820191505050505050919291929080359060200190929190505050612e06565b6040518082815260200191505060405180910390f35b3480156108a257600080fd5b506108fd600480360381019080803590602001908201803590602001908080601f0160208091040260200160405190810160405280939291908181526020018383808284378201915050505050509192919290505050612f89565b6040518082815260200191505060405180910390f35b34801561091f57600080fd5b50610928613100565b005b34801561093657600080fd5b5061093f6136aa565b604051808273ffffffffffffffffffffffffffffffffffffffff1673ffffffffffffffffffffffffffffffffffffffff16815260200191505060405180910390f35b34801561098d57600080fd5b506109966136cf565b6040518080602001828103825283818151815260200191508051906020019080838360005b838110156109d65780820151818401526020810190506109bb565b50505050905090810190601f168015610a035780820380516001836020036101000a031916815260200191505b509250505060405180910390f35b348015610a1d57600080fd5b50610a82600480360381019080803590602001908201803590602001908080601f016020809104026020016040519081016040528093929190818152602001838380828437820191505050505050919291929080359060200190929190505050613708565b005b348015610a9057600080fd5b50610aeb600480360381019080803590602001908201803590602001908080601f0160208091040260200160405190810160405280939291908181526020018383808284378201915050505050509192919290505050613897565b604051808273ffffffffffffffffffffffffffffffffffffffff1673ffffffffffffffffffffffffffffffffffffffff16815260200191505060405180910390f35b348015610b3957600080fd5b50610b94600480360381019080803590602001908201803590602001908080601f0160208091040260200160405190810160405280939291908181526020018383808284378201915050505050509192919290505050613932565b6040518082815260200191505060405180910390f35b348015610bb657600080fd5b50610c1b600480360381019080803590602001908201803590602001908080601f016020809104026020016040519081016040528093929190818152602001838380828437820191505050505050919291929080359060200190929190505050613aa9565b005b348015610c2957600080fd5b50610ca4600480360381019080803590602001908201803590602001908080601f0160208091040260200160405190810160405280939291908181526020018383808284378201915050505050509192919290803573ffffffffffffffffffffffffffffffffffffffff169060200190929190505050613c38565b6040518082815260200191505060405180910390f35b348015610cc657600080fd5b50610cfb600480360381019080803573ffffffffffffffffffffffffffffffffffffffff169060200190929190505050613deb565b005b348015610d0957600080fd5b50610d84600480360381019080803590602001908201803590602001908080601f0160208091040260200160405190810160405280939291908181526020018383808284378201915050505050509192919290803573ffffffffffffffffffffffffffffffffffffffff169060200190929190505050613ea1565b6040518082815260200191505060405180910390f35b348015610da657600080fd5b50610e01600480360381019080803590602001908201803590602001908080601f016020809104026020016040519081016040528093929190818152602001838380828437820191505050505050919291929050505061404f565b6040518082815260200191505060405180910390f35b348015610e2357600080fd5b50610e7e600480360381019080803590602001908201803590602001908080601f01602080910402602001604051908101604052809392919081815260200183838082843782019150505050505091929192905050506141c6565b6040518082815260200191505060405180910390f35b348015610ea057600080fd5b50610ed5600480360381019080803573ffffffffffffffffffffffffffffffffffffffff16906020019092919050505061433d565b604051808215151515815260200191505060405180910390f35b348015610efb57600080fd5b50610f04614393565b604051808273ffffffffffffffffffffffffffffffffffffffff1673ffffffffffffffffffffffffffffffffffffffff16815260200191505060405180910390f35b348015610f5257600080fd5b50610f71600480360381019080803590602001909291905050506143b9565b005b348015610f7f57600080fd5b50610fda600480360381019080803590602001908201803590602001908080601f016020809104026020016040519081016040528093929190818152602001838380828437820191505050505050919291929050505061441e565b005b348015610fe857600080fd5b50611063600480360381019080803590602001908201803590602001908080601f0160208091040260200160405190810160405280939291908181526020018383808284378201915050505050509192919290803573ffffffffffffffffffffffffffffffffffffffff1690602001909291905050506145a4565b6040518082815260200191505060405180910390f35b34801561108557600080fd5b506110ba600480360381019080803573ffffffffffffffffffffffffffffffffffffffff169060200190929190505050614753565b005b3480156110c857600080fd5b50611123600480360381019080803590602001908201803590602001908080601f0160208091040260200160405190810160405280939291908181526020018383808284378201915050505050509192919290505050614809565b6040518082815260200191505060405180910390f35b34801561114557600080fd5b5061117a600480360381019080803573ffffffffffffffffffffffffffffffffffffffff169060200190929190505050614980565b005b34801561118857600080fd5b506111ed600480360381019080803590602001908201803590602001908080601f016020809104026020016040519081016040528093929190818152602001838380828437820191505050505050919291929080359060200190929190505050614a1f565b6040518082815260200191505060405180910390f35b34801561120f57600080fd5b50611218614ba2565b6040518082815260200191505060405180910390f35b6040805190810160405280600981526020017f53334420546f6b656e000000000000000000000000000000000000000000000081525081565b6000600760008373ffffffffffffffffffffffffffffffffffffffff1673ffffffffffffffffffffffffffffffffffffffff16815260200190815260200160002060009054906101000a900460ff169050919050565b6000806000806000935073__TokenDealerMapping____________________632dc131b260026040518263ffffffff167c01000000000000000000000000000000000000000000000000000000000281526004018082815260200191505060206040518083038186803b15801561133357600080fd5b505af4158015611347573d6000803e3d6000fd5b505050506040513d602081101561135d57600080fd5b810190808051906020019092919050505092505b73__TokenDealerMapping____________________634ca101476002856040518363ffffffff167c0100000000000000000000000000000000000000000000000000000000028152600401808381526020018281526020019250505060206040518083038186803b1580156113e557600080fd5b505af41580156113f9573d6000803e3d6000fd5b505050506040513d602081101561140f57600080fd5b8101908080519060200190929190505050156116995773__TokenDealerMapping____________________63c6ae82086002856040518363ffffffff167c0100000000000000000000000000000000000000000000000000000000028152600401808381526020018281526020019250505060006040518083038186803b15801561149957600080fd5b505af41580156114ad573d6000803e3d6000fd5b505050506040513d6000823e3d601f19601f8201168201806040525060408110156114d757600080fd5b8101908080516401000000008111156114ef57600080fd5b8281019050602081018481111561150557600080fd5b815185600182028301116401000000008211171561152257600080fd5b5050929190602001805190602001909291905050509050809250508190508073ffffffffffffffffffffffffffffffffffffffff166318160ddd6040518163ffffffff167c0100000000000000000000000000000000000000000000000000000000028152600401602060405180830381600087803b1580156115a457600080fd5b505af11580156115b8573d6000803e3d6000fd5b505050506040513d60208110156115ce57600080fd5b81019080805190602001909291905050508401935073__TokenDealerMapping____________________634a84c3996002856040518363ffffffff167c0100000000000000000000000000000000000000000000000000000000028152600401808381526020018281526020019250505060206040518083038186803b15801561165757600080fd5b505af415801561166b573d6000803e3d6000fd5b505050506040513d602081101561168157600080fd5b81019080805190602001909291905050509250611371565b50505090565b6000806002600001846040518082805190602001908083835b6020831015156116dd57805182526020820191506020810190506020830392506116b8565b6001836020036101000a038019825116818451168082178552505050505050905001915050908152602001604051809103902060010160009054906101000a900473ffffffffffffffffffffffffffffffffffffffff169050600073ffffffffffffffffffffffffffffffffffffffff168173ffffffffffffffffffffffffffffffffffffffff161415151561176f57fe5b8073ffffffffffffffffffffffffffffffffffffffff166370a08231846040518263ffffffff167c0100000000000000000000000000000000000000000000000000000000028152600401808273ffffffffffffffffffffffffffffffffffffffff1673ffffffffffffffffffffffffffffffffffffffff168152602001915050602060405180830381600087803b15801561180a57600080fd5b505af115801561181e573d6000803e3d6000fd5b505050506040513d602081101561183457600080fd5b810190808051906020019092919050505091505092915050565b6000809054906101000a900473ffffffffffffffffffffffffffffffffffffffff1673ffffffffffffffffffffffffffffffffffffffff163373ffffffffffffffffffffffffffffffffffffffff161415156118a957600080fd5b6001600860008373ffffffffffffffffffffffffffffffffffffffff1673ffffffffffffffffffffffffffffffffffffffff16815260200190815260200160002060006101000a81548160ff02191690831515021790555050565b6000809054906101000a900473ffffffffffffffffffffffffffffffffffffffff1673ffffffffffffffffffffffffffffffffffffffff163373ffffffffffffffffffffffffffffffffffffffff1614151561195f57600080fd5b6000600760008373ffffffffffffffffffffffffffffffffffffffff1673ffffffffffffffffffffffffffffffffffffffff16815260200190815260200160002060006101000a81548160ff02191690831515021790555050565b60006002600001836040518082805190602001908083835b6020831015156119f757805182526020820191506020810190506020830392506119d2565b6001836020036101000a038019825116818451168082178552505050505050905001915050908152602001604051809103902060010160009054906101000a900473ffffffffffffffffffffffffffffffffffffffff169050600073ffffffffffffffffffffffffffffffffffffffff168173ffffffffffffffffffffffffffffffffffffffff1614151515611a8957fe5b8073ffffffffffffffffffffffffffffffffffffffff1663f3fef3a333846040518363ffffffff167c0100000000000000000000000000000000000000000000000000000000028152600401808373ffffffffffffffffffffffffffffffffffffffff1673ffffffffffffffffffffffffffffffffffffffff16815260200182815260200192505050600060405180830381600087803b158015611b2c57600080fd5b505af1158015611b40573d6000803e3d6000fd5b50505050505050565b601281565b6000806002600001846040518082805190602001908083835b602083101515611b8c5780518252602082019150602081019050602083039250611b67565b6001836020036101000a038019825116818451168082178552505050505050905001915050908152602001604051809103902060010160009054906101000a900473ffffffffffffffffffffffffffffffffffffffff169050600073ffffffffffffffffffffffffffffffffffffffff168173ffffffffffffffffffffffffffffffffffffffff1614151515611c1e57fe5b8073ffffffffffffffffffffffffffffffffffffffff166310d0ffdd846040518263ffffffff167c010000000000000000000000000000000000000000000000000000000002815260040180828152602001915050602060405180830381600087803b158015611c8d57600080fd5b505af1158015611ca1573d6000803e3d6000fd5b505050506040513d6020811015611cb757600080fd5b810190808051906020019092919050505091505092915050565b60008060006002600001866040518082805190602001908083835b602083101515611d115780518252602082019150602081019050602083039250611cec565b6001836020036101000a038019825116818451168082178552505050505050905001915050908152602001604051809103902060010160009054906101000a900473ffffffffffffffffffffffffffffffffffffffff169150600073ffffffffffffffffffffffffffffffffffffffff168273ffffffffffffffffffffffffffffffffffffffff1614151515611da357fe5b8390503373ffffffffffffffffffffffffffffffffffffffff168173ffffffffffffffffffffffffffffffffffffffff161480611de95750600554611de7826128ed565b105b80611dfa5750611df881611267565b155b15611e0457600090505b600073__StringUtils___________________________633a96fdd7886040805190810160405280600381526020017f65746800000000000000000000000000000000000000000000000000000000008152506040518363ffffffff167c0100000000000000000000000000000000000000000000000000000000028152600401808060200180602001838103835285818151815260200191508051906020019080838360005b83811015611ec6578082015181840152602081019050611eab565b50505050905090810190601f168015611ef35780820380516001836020036101000a031916815260200191505b50838103825284818151815260200191508051906020019080838360005b83811015611f2c578082015181840152602081019050611f11565b50505050905090810190601f168015611f595780820380516001836020036101000a031916815260200191505b5094505050505060206040518083038186803b158015611f7857600080fd5b505af4158015611f8c573d6000803e3d6000fd5b505050506040513d6020811015611fa257600080fd5b810190808051906020019092919050505014156120d2578173ffffffffffffffffffffffffffffffffffffffff1663db61c76e343334856040518563ffffffff167c0100000000000000000000000000000000000000000000000000000000028152600401808473ffffffffffffffffffffffffffffffffffffffff1673ffffffffffffffffffffffffffffffffffffffff1681526020018381526020018273ffffffffffffffffffffffffffffffffffffffff1673ffffffffffffffffffffffffffffffffffffffff16815260200193505050506020604051808303818588803b15801561209057600080fd5b505af11580156120a4573d6000803e3d6000fd5b50505050506040513d60208110156120bb57600080fd5b8101908080519060200190929190505050506121e6565b8173ffffffffffffffffffffffffffffffffffffffff1663db61c76e3387846040518463ffffffff167c0100000000000000000000000000000000000000000000000000000000028152600401808473ffffffffffffffffffffffffffffffffffffffff1673ffffffffffffffffffffffffffffffffffffffff1681526020018381526020018273ffffffffffffffffffffffffffffffffffffffff1673ffffffffffffffffffffffffffffffffffffffff1681526020019350505050602060405180830381600087803b1580156121a957600080fd5b505af11580156121bd573d6000803e3d6000fd5b505050506040513d60208110156121d357600080fd5b8101908080519060200190929190505050505b50509392505050565b60055481565b6000806000600654612206336128ed565b10158061221857506122173361433d565b5b151561222357600080fd5b6002600001866040518082805190602001908083835b60208310151561225e5780518252602082019150602081019050602083039250612239565b6001836020036101000a038019825116818451168082178552505050505050905001915050908152602001604051809103902060010160009054906101000a900473ffffffffffffffffffffffffffffffffffffffff169250600073ffffffffffffffffffffffffffffffffffffffff168373ffffffffffffffffffffffffffffffffffffffff16141515156122f057fe5b8273ffffffffffffffffffffffffffffffffffffffff1663d3d6dce733866040518363ffffffff167c0100000000000000000000000000000000000000000000000000000000028152600401808373ffffffffffffffffffffffffffffffffffffffff1673ffffffffffffffffffffffffffffffffffffffff16815260200182815260200192505050602060405180830381600087803b15801561239357600080fd5b505af11580156123a7573d6000803e3d6000fd5b505050506040513d60208110156123bd57600080fd5b8101908080519060200190929190505050915083821415156123db57fe5b6002600001856040518082805190602001908083835b60208310151561241657805182526020820191506020810190506020830392506123f1565b6001836020036101000a038019825116818451168082178552505050505050905001915050908152602001604051809103902060010160009054906101000a900473ffffffffffffffffffffffffffffffffffffffff169050600073ffffffffffffffffffffffffffffffffffffffff168173ffffffffffffffffffffffffffffffffffffffff16141515156124a857fe5b8073ffffffffffffffffffffffffffffffffffffffff16633be8eb7e33866040518363ffffffff167c0100000000000000000000000000000000000000000000000000000000028152600401808373ffffffffffffffffffffffffffffffffffffffff1673ffffffffffffffffffffffffffffffffffffffff16815260200182815260200192505050600060405180830381600087803b15801561254b57600080fd5b505af115801561255f573d6000803e3d6000fd5b50505050505050505050565b600160009054906101000a900473ffffffffffffffffffffffffffffffffffffffff1673ffffffffffffffffffffffffffffffffffffffff163373ffffffffffffffffffffffffffffffffffffffff161415156125c757600080fd5b600160009054906101000a900473ffffffffffffffffffffffffffffffffffffffff1673ffffffffffffffffffffffffffffffffffffffff166000809054906101000a900473ffffffffffffffffffffffffffffffffffffffff1673ffffffffffffffffffffffffffffffffffffffff167f8be0079c531659141344cd1fd0a4f28419497f9722a3daafe3b4186f6b6457e060405160405180910390a3600160009054906101000a900473ffffffffffffffffffffffffffffffffffffffff166000806101000a81548173ffffffffffffffffffffffffffffffffffffffff021916908373ffffffffffffffffffffffffffffffffffffffff1602179055506000600160006101000a81548173ffffffffffffffffffffffffffffffffffffffff021916908373ffffffffffffffffffffffffffffffffffffffff160217905550565b60008060009054906101000a900473ffffffffffffffffffffffffffffffffffffffff1673ffffffffffffffffffffffffffffffffffffffff163373ffffffffffffffffffffffffffffffffffffffff1614151561276757600080fd5b73__TokenDealerMapping____________________63da0cf73f6002846040518363ffffffff167c01000000000000000000000000000000000000000000000000000000000281526004018083815260200180602001828103825283818151815260200191508051906020019080838360005b838110156127f55780820151818401526020810190506127da565b50505050905090810190601f1680156128225780820380516001836020036101000a031916815260200191505b50935050505060206040518083038186803b15801561284057600080fd5b505af4158015612854573d6000803e3d6000fd5b505050506040513d602081101561286a57600080fd5b81019080805190602001909291905050505060028001549050919050565b6000809054906101000a900473ffffffffffffffffffffffffffffffffffffffff1673ffffffffffffffffffffffffffffffffffffffff163373ffffffffffffffffffffffffffffffffffffffff161415156128e357600080fd5b8060058190555050565b60008060008073__TokenDealerMapping____________________632dc131b260026040518263ffffffff167c01000000000000000000000000000000000000000000000000000000000281526004018082815260200191505060206040518083038186803b15801561295f57600080fd5b505af4158015612973573d6000803e3d6000fd5b505050506040513d602081101561298957600080fd5b810190808051906020019092919050505092505b73__TokenDealerMapping____________________634ca101476002856040518363ffffffff167c0100000000000000000000000000000000000000000000000000000000028152600401808381526020018281526020019250505060206040518083038186803b158015612a1157600080fd5b505af4158015612a25573d6000803e3d6000fd5b505050506040513d6020811015612a3b57600080fd5b810190808051906020019092919050505015612cfc5773__TokenDealerMapping____________________63c6ae82086002856040518363ffffffff167c0100000000000000000000000000000000000000000000000000000000028152600401808381526020018281526020019250505060006040518083038186803b158015612ac557600080fd5b505af4158015612ad9573d6000803e3d6000fd5b505050506040513d6000823e3d601f19601f820116820180604052506040811015612b0357600080fd5b810190808051640100000000811115612b1b57600080fd5b82810190506020810184811115612b3157600080fd5b8151856001820283011164010000000082111715612b4e57600080fd5b5050929190602001805190602001909291905050509050809250508190508073ffffffffffffffffffffffffffffffffffffffff166370a08231866040518263ffffffff167c0100000000000000000000000000000000000000000000000000000000028152600401808273ffffffffffffffffffffffffffffffffffffffff1673ffffffffffffffffffffffffffffffffffffffff168152602001915050602060405180830381600087803b158015612c0757600080fd5b505af1158015612c1b573d6000803e3d6000fd5b505050506040513d6020811015612c3157600080fd5b81019080805190602001909291905050508401935073__TokenDealerMapping____________________634a84c3996002856040518363ffffffff167c0100000000000000000000000000000000000000000000000000000000028152600401808381526020018281526020019250505060206040518083038186803b158015612cba57600080fd5b505af4158015612cce573d6000803e3d6000fd5b505050506040513d6020811015612ce457600080fd5b8101908080519060200190929190505050925061299d565b505050919050565b6000809054906101000a900473ffffffffffffffffffffffffffffffffffffffff1673ffffffffffffffffffffffffffffffffffffffff163373ffffffffffffffffffffffffffffffffffffffff16141515612d5f57600080fd5b6000809054906101000a900473ffffffffffffffffffffffffffffffffffffffff1673ffffffffffffffffffffffffffffffffffffffff167ff8df31144d9c2f0f6b59d69b8b98abd5459d07f2742c4df920b25aae33c6482060405160405180910390a260008060006101000a81548173ffffffffffffffffffffffffffffffffffffffff021916908373ffffffffffffffffffffffffffffffffffffffff160217905550565b6000806002600001846040518082805190602001908083835b602083101515612e445780518252602082019150602081019050602083039250612e1f565b6001836020036101000a038019825116818451168082178552505050505050905001915050908152602001604051809103902060010160009054906101000a900473ffffffffffffffffffffffffffffffffffffffff169050600073ffffffffffffffffffffffffffffffffffffffff168173ffffffffffffffffffffffffffffffffffffffff1614151515612ed657fe5b8073ffffffffffffffffffffffffffffffffffffffff1663150c95a8846040518263ffffffff167c010000000000000000000000000000000000000000000000000000000002815260040180828152602001915050602060405180830381600087803b158015612f4557600080fd5b505af1158015612f59573d6000803e3d6000fd5b505050506040513d6020811015612f6f57600080fd5b810190808051906020019092919050505091505092915050565b6000806002600001836040518082805190602001908083835b602083101515612fc75780518252602082019150602081019050602083039250612fa2565b6001836020036101000a038019825116818451168082178552505050505050905001915050908152602001604051809103902060010160009054906101000a900473ffffffffffffffffffffffffffffffffffffffff169050600073ffffffffffffffffffffffffffffffffffffffff168173ffffffffffffffffffffffffffffffffffffffff161415151561305957fe5b8073ffffffffffffffffffffffffffffffffffffffff1663ad7a672f6040518163ffffffff167c0100000000000000000000000000000000000000000000000000000000028152600401602060405180830381600087803b1580156130bd57600080fd5b505af11580156130d1573d6000803e3d6000fd5b505050506040513d60208110156130e757600080fd5b8101908080519060200190929190505050915050919050565b600080600073__TokenDealerMapping____________________632dc131b260026040518263ffffffff167c01000000000000000000000000000000000000000000000000000000000281526004018082815260200191505060206040518083038186803b15801561317157600080fd5b505af4158015613185573d6000803e3d6000fd5b505050506040513d602081101561319b57600080fd5b810190808051906020019092919050505092505b73__TokenDealerMapping____________________634ca101476002856040518363ffffffff167c0100000000000000000000000000000000000000000000000000000000028152600401808381526020018281526020019250505060206040518083038186803b15801561322357600080fd5b505af4158015613237573d6000803e3d6000fd5b505050506040513d602081101561324d57600080fd5b8101908080519060200190929190505050156136a55773__TokenDealerMapping____________________63c6ae82086002856040518363ffffffff167c0100000000000000000000000000000000000000000000000000000000028152600401808381526020018281526020019250505060006040518083038186803b1580156132d757600080fd5b505af41580156132eb573d6000803e3d6000fd5b505050506040513d6000823e3d601f19601f82011682018060405250604081101561331557600080fd5b81019080805164010000000081111561332d57600080fd5b8281019050602081018481111561334357600080fd5b815185600182028301116401000000008211171561336057600080fd5b50509291906020018051906020019092919050505090508092505081905060008173ffffffffffffffffffffffffffffffffffffffff166265318b336040518263ffffffff167c0100000000000000000000000000000000000000000000000000000000028152600401808273ffffffffffffffffffffffffffffffffffffffff1673ffffffffffffffffffffffffffffffffffffffff168152602001915050602060405180830381600087803b15801561341a57600080fd5b505af115801561342e573d6000803e3d6000fd5b505050506040513d602081101561344457600080fd5b81019080805190602001909291905050501180613536575060008173ffffffffffffffffffffffffffffffffffffffff166346534649336040518263ffffffff167c0100000000000000000000000000000000000000000000000000000000028152600401808273ffffffffffffffffffffffffffffffffffffffff1673ffffffffffffffffffffffffffffffffffffffff168152602001915050602060405180830381600087803b1580156134f957600080fd5b505af115801561350d573d6000803e3d6000fd5b505050506040513d602081101561352357600080fd5b8101908080519060200190929190505050115b156135ef578073ffffffffffffffffffffffffffffffffffffffff1663fa09e630336040518263ffffffff167c0100000000000000000000000000000000000000000000000000000000028152600401808273ffffffffffffffffffffffffffffffffffffffff1673ffffffffffffffffffffffffffffffffffffffff168152602001915050600060405180830381600087803b1580156135d657600080fd5b505af11580156135ea573d6000803e3d6000fd5b505050505b73__TokenDealerMapping____________________634a84c3996002856040518363ffffffff167c0100000000000000000000000000000000000000000000000000000000028152600401808381526020018281526020019250505060206040518083038186803b15801561366357600080fd5b505af4158015613677573d6000803e3d6000fd5b505050506040513d602081101561368d57600080fd5b810190808051906020019092919050505092506131af565b505050565b6000809054906101000a900473ffffffffffffffffffffffffffffffffffffffff1681565b6040805190810160405280600381526020017f533344000000000000000000000000000000000000000000000000000000000081525081565b60006002600001836040518082805190602001908083835b6020831015156137455780518252602082019150602081019050602083039250613720565b6001836020036101000a038019825116818451168082178552505050505050905001915050908152602001604051809103902060010160009054906101000a900473ffffffffffffffffffffffffffffffffffffffff169050600073ffffffffffffffffffffffffffffffffffffffff168173ffffffffffffffffffffffffffffffffffffffff16141515156137d757fe5b8073ffffffffffffffffffffffffffffffffffffffff16636c197ff533846040518363ffffffff167c0100000000000000000000000000000000000000000000000000000000028152600401808373ffffffffffffffffffffffffffffffffffffffff1673ffffffffffffffffffffffffffffffffffffffff16815260200182815260200192505050600060405180830381600087803b15801561387a57600080fd5b505af115801561388e573d6000803e3d6000fd5b50505050505050565b60006002600001826040518082805190602001908083835b6020831015156138d457805182526020820191506020810190506020830392506138af565b6001836020036101000a038019825116818451168082178552505050505050905001915050908152602001604051809103902060010160009054906101000a900473ffffffffffffffffffffffffffffffffffffffff169050919050565b6000806002600001836040518082805190602001908083835b602083101515613970578051825260208201915060208101905060208303925061394b565b6001836020036101000a038019825116818451168082178552505050505050905001915050908152602001604051809103902060010160009054906101000a900473ffffffffffffffffffffffffffffffffffffffff169050600073ffffffffffffffffffffffffffffffffffffffff168173ffffffffffffffffffffffffffffffffffffffff1614151515613a0257fe5b8073ffffffffffffffffffffffffffffffffffffffff16631aebcb896040518163ffffffff167c0100000000000000000000000000000000000000000000000000000000028152600401602060405180830381600087803b158015613a6657600080fd5b505af1158015613a7a573d6000803e3d6000fd5b505050506040513d6020811015613a9057600080fd5b8101908080519060200190929190505050915050919050565b60006002600001836040518082805190602001908083835b602083101515613ae65780518252602082019150602081019050602083039250613ac1565b6001836020036101000a038019825116818451168082178552505050505050905001915050908152602001604051809103902060010160009054906101000a900473ffffffffffffffffffffffffffffffffffffffff169050600073ffffffffffffffffffffffffffffffffffffffff168173ffffffffffffffffffffffffffffffffffffffff1614151515613b7857fe5b8073ffffffffffffffffffffffffffffffffffffffff1663d65a261733846040518363ffffffff167c0100000000000000000000000000000000000000000000000000000000028152600401808373ffffffffffffffffffffffffffffffffffffffff1673ffffffffffffffffffffffffffffffffffffffff16815260200182815260200192505050600060405180830381600087803b158015613c1b57600080fd5b505af1158015613c2f573d6000803e3d6000fd5b50505050505050565b60008060009054906101000a900473ffffffffffffffffffffffffffffffffffffffff1673ffffffffffffffffffffffffffffffffffffffff163373ffffffffffffffffffffffffffffffffffffffff16141515613c9557600080fd5b73__TokenDealerMapping____________________63d3a54b0a600285856040518463ffffffff167c010000000000000000000000000000000000000000000000000000000002815260040180848152602001806020018373ffffffffffffffffffffffffffffffffffffffff1673ffffffffffffffffffffffffffffffffffffffff168152602001828103825284818151815260200191508051906020019080838360005b83811015613d56578082015181840152602081019050613d3b565b50505050905090810190601f168015613d835780820380516001836020036101000a031916815260200191505b5094505050505060206040518083038186803b158015613da257600080fd5b505af4158015613db6573d6000803e3d6000fd5b505050506040513d6020811015613dcc57600080fd5b8101908080519060200190929190505050506002800154905092915050565b6000809054906101000a900473ffffffffffffffffffffffffffffffffffffffff1673ffffffffffffffffffffffffffffffffffffffff163373ffffffffffffffffffffffffffffffffffffffff16141515613e4657600080fd5b6001600760008373ffffffffffffffffffffffffffffffffffffffff1673ffffffffffffffffffffffffffffffffffffffff16815260200190815260200160002060006101000a81548160ff02191690831515021790555050565b6000806002600001846040518082805190602001908083835b602083101515613edf5780518252602082019150602081019050602083039250613eba565b6001836020036101000a038019825116818451168082178552505050505050905001915050908152602001604051809103902060010160009054906101000a900473ffffffffffffffffffffffffffffffffffffffff169050600073ffffffffffffffffffffffffffffffffffffffff168173ffffffffffffffffffffffffffffffffffffffff1614151515613f7157fe5b8073ffffffffffffffffffffffffffffffffffffffff166265318b846040518263ffffffff167c0100000000000000000000000000000000000000000000000000000000028152600401808273ffffffffffffffffffffffffffffffffffffffff1673ffffffffffffffffffffffffffffffffffffffff168152602001915050602060405180830381600087803b15801561400b57600080fd5b505af115801561401f573d6000803e3d6000fd5b505050506040513d602081101561403557600080fd5b810190808051906020019092919050505091505092915050565b6000806002600001836040518082805190602001908083835b60208310151561408d5780518252602082019150602081019050602083039250614068565b6001836020036101000a038019825116818451168082178552505050505050905001915050908152602001604051809103902060010160009054906101000a900473ffffffffffffffffffffffffffffffffffffffff169050600073ffffffffffffffffffffffffffffffffffffffff168173ffffffffffffffffffffffffffffffffffffffff161415151561411f57fe5b8073ffffffffffffffffffffffffffffffffffffffff16638620410b6040518163ffffffff167c0100000000000000000000000000000000000000000000000000000000028152600401602060405180830381600087803b15801561418357600080fd5b505af1158015614197573d6000803e3d6000fd5b505050506040513d60208110156141ad57600080fd5b8101908080519060200190929190505050915050919050565b6000806002600001836040518082805190602001908083835b60208310151561420457805182526020820191506020810190506020830392506141df565b6001836020036101000a038019825116818451168082178552505050505050905001915050908152602001604051809103902060010160009054906101000a900473ffffffffffffffffffffffffffffffffffffffff169050600073ffffffffffffffffffffffffffffffffffffffff168173ffffffffffffffffffffffffffffffffffffffff161415151561429657fe5b8073ffffffffffffffffffffffffffffffffffffffff16634b7503346040518163ffffffff167c0100000000000000000000000000000000000000000000000000000000028152600401602060405180830381600087803b1580156142fa57600080fd5b505af115801561430e573d6000803e3d6000fd5b505050506040513d602081101561432457600080fd5b8101908080519060200190929190505050915050919050565b6000600860008373ffffffffffffffffffffffffffffffffffffffff1673ffffffffffffffffffffffffffffffffffffffff16815260200190815260200160002060009054906101000a900460ff169050919050565b600160009054906101000a900473ffffffffffffffffffffffffffffffffffffffff1681565b6000809054906101000a900473ffffffffffffffffffffffffffffffffffffffff1673ffffffffffffffffffffffffffffffffffffffff163373ffffffffffffffffffffffffffffffffffffffff1614151561441457600080fd5b8060068190555050565b60006002600001826040518082805190602001908083835b60208310151561445b5780518252602082019150602081019050602083039250614436565b6001836020036101000a038019825116818451168082178552505050505050905001915050908152602001604051809103902060010160009054906101000a900473ffffffffffffffffffffffffffffffffffffffff169050600073ffffffffffffffffffffffffffffffffffffffff168173ffffffffffffffffffffffffffffffffffffffff16141515156144ed57fe5b8073ffffffffffffffffffffffffffffffffffffffff1663b42652e9336040518263ffffffff167c0100000000000000000000000000000000000000000000000000000000028152600401808273ffffffffffffffffffffffffffffffffffffffff1673ffffffffffffffffffffffffffffffffffffffff168152602001915050600060405180830381600087803b15801561458857600080fd5b505af115801561459c573d6000803e3d6000fd5b505050505050565b6000806002600001846040518082805190602001908083835b6020831015156145e257805182526020820191506020810190506020830392506145bd565b6001836020036101000a038019825116818451168082178552505050505050905001915050908152602001604051809103902060010160009054906101000a900473ffffffffffffffffffffffffffffffffffffffff169050600073ffffffffffffffffffffffffffffffffffffffff168173ffffffffffffffffffffffffffffffffffffffff161415151561467457fe5b8073ffffffffffffffffffffffffffffffffffffffff166346534649846040518263ffffffff167c0100000000000000000000000000000000000000000000000000000000028152600401808273ffffffffffffffffffffffffffffffffffffffff1673ffffffffffffffffffffffffffffffffffffffff168152602001915050602060405180830381600087803b15801561470f57600080fd5b505af1158015614723573d6000803e3d6000fd5b505050506040513d602081101561473957600080fd5b810190808051906020019092919050505091505092915050565b6000809054906101000a900473ffffffffffffffffffffffffffffffffffffffff1673ffffffffffffffffffffffffffffffffffffffff163373ffffffffffffffffffffffffffffffffffffffff161415156147ae57600080fd5b6000600860008373ffffffffffffffffffffffffffffffffffffffff1673ffffffffffffffffffffffffffffffffffffffff16815260200190815260200160002060006101000a81548160ff02191690831515021790555050565b6000806002600001836040518082805190602001908083835b6020831015156148475780518252602082019150602081019050602083039250614822565b6001836020036101000a038019825116818451168082178552505050505050905001915050908152602001604051809103902060010160009054906101000a900473ffffffffffffffffffffffffffffffffffffffff169050600073ffffffffffffffffffffffffffffffffffffffff168173ffffffffffffffffffffffffffffffffffffffff16141515156148d957fe5b8073ffffffffffffffffffffffffffffffffffffffff166318160ddd6040518163ffffffff167c0100000000000000000000000000000000000000000000000000000000028152600401602060405180830381600087803b15801561493d57600080fd5b505af1158015614951573d6000803e3d6000fd5b505050506040513d602081101561496757600080fd5b8101908080519060200190929190505050915050919050565b6000809054906101000a900473ffffffffffffffffffffffffffffffffffffffff1673ffffffffffffffffffffffffffffffffffffffff163373ffffffffffffffffffffffffffffffffffffffff161415156149db57600080fd5b80600160006101000a81548173ffffffffffffffffffffffffffffffffffffffff021916908373ffffffffffffffffffffffffffffffffffffffff16021790555050565b6000806002600001846040518082805190602001908083835b602083101515614a5d5780518252602082019150602081019050602083039250614a38565b6001836020036101000a038019825116818451168082178552505050505050905001915050908152602001604051809103902060010160009054906101000a900473ffffffffffffffffffffffffffffffffffffffff169050600073ffffffffffffffffffffffffffffffffffffffff168173ffffffffffffffffffffffffffffffffffffffff1614151515614aef57fe5b8073ffffffffffffffffffffffffffffffffffffffff1663b73f34b4846040518263ffffffff167c010000000000000000000000000000000000000000000000000000000002815260040180828152602001915050602060405180830381600087803b158015614b5e57600080fd5b505af1158015614b72573d6000803e3d6000fd5b505050506040513d6020811015614b8857600080fd5b810190808051906020019092919050505091505092915050565b600654815600a165627a7a723058202892880db2eedf668a96156b62b51d8983e67ee2cd93414b15195acdad4e97cf0029",
  "source": "pragma solidity ^0.4.24;\r\n\r\n\r\nimport \"zeppelin-solidity/contracts/ownership/Claimable.sol\";\r\nimport \"../contracts/interface/TokenDealerInterface.sol\";\r\nimport \"../contracts/library/TokenDealerMapping.sol\";\r\nimport \"../contracts/library/StringUtils.sol\";\r\n\r\ncontract S3DProtocol is Claimable{\r\n    TokenDealerMapping.itmap tokenDealerMap;\r\n\r\n    uint256 public referralRequirement = 500e18;\r\n    uint256 public arbitrageRequirement = 1000e18;\r\n\r\n    string constant internal ethSymbol = \"eth\";\r\n\r\n    uint8 constant public decimals = 18;\r\n    string constant public name = \"S3D Token\";\r\n    string constant public symbol = \"S3D\";\r\n\r\n    mapping(address => bool) internal referralers;\r\n    mapping(address => bool) internal arbitragers;\r\n\r\n    function addReferraler(address _customerAddress)\r\n        public \r\n        onlyOwner()\r\n    {\r\n        referralers[_customerAddress] = true;\r\n    }\r\n\r\n    function removeReferraler(address _customerAddress)\r\n        public\r\n        onlyOwner()\r\n    {\r\n        referralers[_customerAddress] = false;\r\n    }\r\n\r\n    function addArbitrager(address _customerAddress)\r\n        public \r\n        onlyOwner()\r\n    {\r\n        arbitragers[_customerAddress] = true;\r\n    }\r\n\r\n    function removeArbitrager(address _customerAddress)\r\n        public\r\n        onlyOwner()\r\n    {\r\n        arbitragers[_customerAddress] = false;\r\n    }\r\n\r\n    function isReferraler(address _customerAddress)\r\n        public\r\n        view\r\n        returns(bool)\r\n    {\r\n        return referralers[_customerAddress];\r\n    }\r\n\r\n    function isArbitrager(address _customerAddress)\r\n        public\r\n        view\r\n        returns(bool)\r\n    {\r\n        return arbitragers[_customerAddress];\r\n    }\r\n\r\n    function addDealer(string _symbol, address _dealerAddress) \r\n        public \r\n        onlyOwner()\r\n        returns (uint size) \r\n    {\r\n        TokenDealerMapping.insert(tokenDealerMap, _symbol, _dealerAddress);\r\n        return tokenDealerMap.size;\r\n    }\r\n\r\n    function removeDealer(string _symbol) \r\n        public \r\n        onlyOwner()\r\n        returns (uint size) \r\n    {\r\n        TokenDealerMapping.remove(tokenDealerMap, _symbol);\r\n        return tokenDealerMap.size;\r\n    }\r\n\r\n    function getDealer(string _symbol) \r\n        public \r\n        view \r\n        returns (address) \r\n    {\r\n        return tokenDealerMap.data[_symbol].value;\r\n    }\r\n\r\n    function setReferralRequirement(uint256 _amountOfTokens) \r\n        public\r\n        onlyOwner()  \r\n    {\r\n        referralRequirement = _amountOfTokens;\r\n    }\r\n\r\n    function setArbitrageRequirement(uint256 _amountOfTokens) \r\n        public\r\n        onlyOwner()  \r\n    {\r\n        arbitrageRequirement = _amountOfTokens;\r\n    }\r\n    \r\n    function balanceOf( address _customerAddress) \r\n        public \r\n        view \r\n        returns (uint256 _sum) \r\n    {\r\n        for (uint i = TokenDealerMapping.iterate_start(tokenDealerMap); \r\n             TokenDealerMapping.iterate_valid(tokenDealerMap, i); \r\n             i = TokenDealerMapping.iterate_next(tokenDealerMap, i))\r\n        {\r\n            address _value;\r\n            (, _value) = TokenDealerMapping.iterate_get(tokenDealerMap, i);\r\n            TokenDealerInterface _dealerContract = TokenDealerInterface(_value);\r\n            _sum += _dealerContract.balanceOf(_customerAddress);\r\n        } \r\n    }\r\n\r\n    function balanceOfOneToken(string _symbol, address _customerAddress) \r\n        public \r\n        view \r\n        returns (uint256)\r\n    {\r\n        TokenDealerInterface _dealerContract = TokenDealerInterface(tokenDealerMap.data[_symbol].value);\r\n        assert(_dealerContract != address(0));\r\n        return _dealerContract.balanceOf(_customerAddress);\r\n    }\r\n\r\n    //add all s3d\r\n    function totalSupply() \r\n        public \r\n        view \r\n        returns (uint256 _sum) \r\n    {\r\n        _sum = 0;\r\n        for (uint i = TokenDealerMapping.iterate_start(tokenDealerMap);\r\n             TokenDealerMapping.iterate_valid(tokenDealerMap, i);\r\n             i = TokenDealerMapping.iterate_next(tokenDealerMap, i))\r\n        {\r\n            address _value;\r\n            (, _value) = TokenDealerMapping.iterate_get(tokenDealerMap, i);\r\n            TokenDealerInterface _dealerContract = TokenDealerInterface(_value);\r\n            _sum += _dealerContract.totalSupply();\r\n        }\r\n    }\r\n\r\n    function totalSupplyOfOneToken(string _symbol) \r\n        public \r\n        view \r\n        returns (uint256) \r\n    {\r\n        TokenDealerInterface _dealerContract = TokenDealerInterface(tokenDealerMap.data[_symbol].value);\r\n        assert(_dealerContract != address(0));\r\n        return _dealerContract.totalSupply();\r\n    }\r\n\r\n    modifier arbitrageBarrier() \r\n    {\r\n        require(balanceOf(msg.sender) >= arbitrageRequirement || isArbitrager(msg.sender));\r\n        _;\r\n    }\r\n\r\n    function buy(string _symbol, uint256 _tokenAmount, address _referredBy)\r\n        public\r\n        payable\r\n        returns(uint256)\r\n    {\r\n        TokenDealerInterface _dealerContract = TokenDealerInterface(tokenDealerMap.data[_symbol].value);\r\n        assert(_dealerContract != address(0));\r\n\r\n        address _referrer = _referredBy;\r\n        if( \r\n            // no cheating!\r\n            _referrer == msg.sender \r\n            \r\n            // does the referrer have at least X whole tokens?\r\n            // i.e is the referrer a godly chad masternode\r\n            || (balanceOf(_referrer) < referralRequirement)\r\n\r\n            // not in referal referraler list\r\n            || !isReferraler(_referrer)\r\n        ) {\r\n            _referrer = 0x0000000000000000000000000000000000000000;\r\n        }\r\n\r\n        if(StringUtils.compare(_symbol, ethSymbol) == 0) {\r\n            _dealerContract.buy.value(msg.value)(msg.sender, msg.value, _referrer);\r\n        } else {\r\n            _dealerContract.buy(msg.sender, _tokenAmount, _referrer);\r\n        }\r\n    }\r\n\r\n    function reinvest(string _symbol, uint256 _buyAmount) \r\n        public\r\n    {\r\n        TokenDealerInterface _dealerContract = TokenDealerInterface(tokenDealerMap.data[_symbol].value);\r\n        assert(_dealerContract != address(0));\r\n        _dealerContract.reinvest(msg.sender, _buyAmount);\r\n    }\r\n\r\n    function exit(string _symbol) \r\n        public \r\n    {\r\n        TokenDealerInterface _dealerContract = TokenDealerInterface(tokenDealerMap.data[_symbol].value);\r\n        assert(_dealerContract != address(0));\r\n        _dealerContract.exit(msg.sender);\r\n    }\r\n\r\n\r\n    function withdrawAll() \r\n        public \r\n    {\r\n        for (uint i = TokenDealerMapping.iterate_start(tokenDealerMap); \r\n             TokenDealerMapping.iterate_valid(tokenDealerMap, i); \r\n             i = TokenDealerMapping.iterate_next(tokenDealerMap, i))\r\n        {\r\n            address _value;\r\n            (, _value) = TokenDealerMapping.iterate_get(tokenDealerMap, i);\r\n            TokenDealerInterface _dealerContract = TokenDealerInterface(_value);\r\n            if (_dealerContract.dividendsOf(msg.sender) > 0 || _dealerContract.referralBalanceOf(msg.sender) > 0) {\r\n                _dealerContract.withdrawAll(msg.sender);\r\n            }\r\n        }\r\n    }\r\n\r\n    function withdraw(string _symbol, uint256 _withdrawAmount) \r\n        public\r\n    {\r\n        TokenDealerInterface _dealerContract = TokenDealerInterface(tokenDealerMap.data[_symbol].value);\r\n        assert(_dealerContract != address(0));\r\n        _dealerContract.withdraw(msg.sender, _withdrawAmount);\r\n    }\r\n\r\n    function sell(string _symbol, uint256 _amountOfTokens) \r\n        public \r\n    {\r\n        TokenDealerInterface _dealerContract = TokenDealerInterface(tokenDealerMap.data[_symbol].value);\r\n        assert(_dealerContract != address(0));\r\n        _dealerContract.sell(msg.sender, _amountOfTokens);\r\n    }\r\n\r\n    function totalBalance(string _symbol) \r\n        public \r\n        view \r\n        returns(uint256) \r\n    {\r\n        TokenDealerInterface _dealerContract = TokenDealerInterface(tokenDealerMap.data[_symbol].value);\r\n        assert(_dealerContract != address(0));\r\n        return _dealerContract.totalBalance();\r\n    }\r\n\r\n\r\n    function dividendsOf(string _symbol, address _customerAddress) \r\n        public\r\n        view  \r\n        returns(uint256) \r\n    {\r\n        TokenDealerInterface _dealerContract = TokenDealerInterface(tokenDealerMap.data[_symbol].value);\r\n        assert(_dealerContract != address(0));\r\n        return _dealerContract.dividendsOf(_customerAddress);\r\n    }\r\n\r\n    function referralBalanceOf(string _symbol, address _customerAddress) \r\n        public\r\n        view  \r\n        returns(uint256) \r\n    {\r\n        TokenDealerInterface _dealerContract = TokenDealerInterface(tokenDealerMap.data[_symbol].value);\r\n        assert(_dealerContract != address(0));\r\n        return _dealerContract.referralBalanceOf(_customerAddress);\r\n    }\r\n\r\n    function sellPrice(string _symbol) \r\n        public \r\n        view \r\n        returns(uint256) \r\n    {\r\n        TokenDealerInterface _dealerContract = TokenDealerInterface(tokenDealerMap.data[_symbol].value);\r\n        assert(_dealerContract != address(0));\r\n        return _dealerContract.sellPrice();\r\n    }\r\n\r\n    function buyPrice(string _symbol) \r\n        public \r\n        view \r\n        returns(uint256) \r\n    {\r\n        TokenDealerInterface _dealerContract = TokenDealerInterface(tokenDealerMap.data[_symbol].value);\r\n        assert(_dealerContract != address(0));\r\n        return _dealerContract.buyPrice();\r\n    }\r\n\r\n    function calculateTokensReceived(string _symbol, uint256 _buyTokenToSpend) \r\n        public \r\n        view \r\n        returns(uint256) \r\n    {\r\n        TokenDealerInterface _dealerContract = TokenDealerInterface(tokenDealerMap.data[_symbol].value);\r\n        assert(_dealerContract != address(0));\r\n        return _dealerContract.calculateTokensReceived(_buyTokenToSpend);\r\n    }\r\n\r\n    function calculateBuyTokenSpend(string _symbol, uint256 _tokensToBuy) \r\n        public \r\n        view \r\n        returns(uint256) \r\n    {\r\n        TokenDealerInterface _dealerContract = TokenDealerInterface(tokenDealerMap.data[_symbol].value);\r\n        assert(_dealerContract != address(0));\r\n        return _dealerContract.calculateBuyTokenSpend(_tokensToBuy);\r\n    }\r\n\r\n    function calculateBuyTokenReceived(string _symbol, uint256 _tokensToSell) \r\n        public \r\n        view \r\n        returns(uint256) \r\n    {\r\n        TokenDealerInterface _dealerContract = TokenDealerInterface(tokenDealerMap.data[_symbol].value);\r\n        assert(_dealerContract != address(0));\r\n        return _dealerContract.calculateBuyTokenReceived(_tokensToSell);\r\n    }\r\n\r\n    function arbitrageTokens(string _fromSymbol, string _toSymbol, uint256 _amountOfTokens) \r\n        public\r\n        arbitrageBarrier() \r\n    {\r\n        TokenDealerInterface _escapeContract = TokenDealerInterface(tokenDealerMap.data[_fromSymbol].value);\r\n        assert(_escapeContract != address(0));\r\n\r\n        uint256 _tokens = _escapeContract.escapeTokens(msg.sender, _amountOfTokens); \r\n        assert(_tokens == _amountOfTokens);\r\n\r\n        TokenDealerInterface _dealerContract = TokenDealerInterface(tokenDealerMap.data[_toSymbol].value);\r\n        assert(_dealerContract != address(0));\r\n\r\n        _dealerContract.arbitrageTokens(msg.sender, _amountOfTokens);\r\n    }\r\n\r\n    function getProfitPerShareOfOneToken(string _symbol) \r\n        public\r\n        view\r\n        returns(uint256)\r\n    {\r\n        TokenDealerInterface _dealerContract = TokenDealerInterface(tokenDealerMap.data[_symbol].value);\r\n        assert(_dealerContract != address(0));\r\n        return _dealerContract.getProfitPerShare();\r\n    }\r\n}",
  "sourcePath": "D:\\work\\truffle\\s3d\\contracts\\S3DProtocol.sol",
  "compiler": {
    "name": "solc",
    "version": "0.4.24+commit.e67f0147.Emscripten.clang"
  },
  "schemaVersion": "2.0.1",
  "updatedAt": "2018-08-28T08:18:53.862Z"
}