{
  "contractName": "S3DProtocol",
  "abi": [
    {
      "constant": true,
      "inputs": [],
      "name": "name",
      "outputs": [
        {
          "name": "",
          "type": "string"
        }
      ],
      "payable": false,
      "stateMutability": "view",
      "type": "function"
    },
    {
      "constant": true,
      "inputs": [],
      "name": "decimals",
      "outputs": [
        {
          "name": "",
          "type": "uint8"
        }
      ],
      "payable": false,
      "stateMutability": "view",
      "type": "function"
    },
    {
      "constant": false,
      "inputs": [],
      "name": "claimOwnership",
      "outputs": [],
      "payable": false,
      "stateMutability": "nonpayable",
      "type": "function"
    },
    {
      "constant": false,
      "inputs": [],
      "name": "renounceOwnership",
      "outputs": [],
      "payable": false,
      "stateMutability": "nonpayable",
      "type": "function"
    },
    {
      "constant": true,
      "inputs": [],
      "name": "owner",
      "outputs": [
        {
          "name": "",
          "type": "address"
        }
      ],
      "payable": false,
      "stateMutability": "view",
      "type": "function"
    },
    {
      "constant": true,
      "inputs": [],
      "name": "symbol",
      "outputs": [
        {
          "name": "",
          "type": "string"
        }
      ],
      "payable": false,
      "stateMutability": "view",
      "type": "function"
    },
    {
      "constant": true,
      "inputs": [],
      "name": "pendingOwner",
      "outputs": [
        {
          "name": "",
          "type": "address"
        }
      ],
      "payable": false,
      "stateMutability": "view",
      "type": "function"
    },
    {
      "constant": false,
      "inputs": [
        {
          "name": "newOwner",
          "type": "address"
        }
      ],
      "name": "transferOwnership",
      "outputs": [],
      "payable": false,
      "stateMutability": "nonpayable",
      "type": "function"
    },
    {
      "anonymous": false,
      "inputs": [
        {
          "indexed": true,
          "name": "previousOwner",
          "type": "address"
        }
      ],
      "name": "OwnershipRenounced",
      "type": "event"
    },
    {
      "anonymous": false,
      "inputs": [
        {
          "indexed": true,
          "name": "previousOwner",
          "type": "address"
        },
        {
          "indexed": true,
          "name": "newOwner",
          "type": "address"
        }
      ],
      "name": "OwnershipTransferred",
      "type": "event"
    },
    {
      "constant": false,
      "inputs": [
        {
          "name": "_customerAddress",
          "type": "address"
        }
      ],
      "name": "addReferraler",
      "outputs": [],
      "payable": false,
      "stateMutability": "nonpayable",
      "type": "function"
    },
    {
      "constant": false,
      "inputs": [
        {
          "name": "_customerAddress",
          "type": "address"
        }
      ],
      "name": "removeReferraler",
      "outputs": [],
      "payable": false,
      "stateMutability": "nonpayable",
      "type": "function"
    },
    {
      "constant": false,
      "inputs": [
        {
          "name": "_customerAddress",
          "type": "address"
        }
      ],
      "name": "addArbitrager",
      "outputs": [],
      "payable": false,
      "stateMutability": "nonpayable",
      "type": "function"
    },
    {
      "constant": false,
      "inputs": [
        {
          "name": "_customerAddress",
          "type": "address"
        }
      ],
      "name": "removeArbitrager",
      "outputs": [],
      "payable": false,
      "stateMutability": "nonpayable",
      "type": "function"
    },
    {
      "constant": true,
      "inputs": [
        {
          "name": "_customerAddress",
          "type": "address"
        }
      ],
      "name": "isReferraler",
      "outputs": [
        {
          "name": "",
          "type": "bool"
        }
      ],
      "payable": false,
      "stateMutability": "view",
      "type": "function"
    },
    {
      "constant": true,
      "inputs": [
        {
          "name": "_customerAddress",
          "type": "address"
        }
      ],
      "name": "isArbitrager",
      "outputs": [
        {
          "name": "",
          "type": "bool"
        }
      ],
      "payable": false,
      "stateMutability": "view",
      "type": "function"
    },
    {
      "constant": false,
      "inputs": [
        {
          "name": "_symbol",
          "type": "string"
        },
        {
          "name": "_dealerAddress",
          "type": "address"
        }
      ],
      "name": "addDealer",
      "outputs": [
        {
          "name": "size",
          "type": "uint256"
        }
      ],
      "payable": false,
      "stateMutability": "nonpayable",
      "type": "function"
    },
    {
      "constant": true,
      "inputs": [
        {
          "name": "_symbol",
          "type": "string"
        }
      ],
      "name": "getDealer",
      "outputs": [
        {
          "name": "",
          "type": "address"
        }
      ],
      "payable": false,
      "stateMutability": "view",
      "type": "function"
    },
    {
      "constant": false,
      "inputs": [
        {
          "name": "_amountOfTokens",
          "type": "uint256"
        }
      ],
      "name": "setReferralRequirement",
      "outputs": [],
      "payable": false,
      "stateMutability": "nonpayable",
      "type": "function"
    },
    {
      "constant": false,
      "inputs": [
        {
          "name": "_amountOfTokens",
          "type": "uint256"
        }
      ],
      "name": "setArbitrageRequirement",
      "outputs": [],
      "payable": false,
      "stateMutability": "nonpayable",
      "type": "function"
    },
    {
      "constant": true,
      "inputs": [
        {
          "name": "_customerAddress",
          "type": "address"
        }
      ],
      "name": "balanceOf",
      "outputs": [
        {
          "name": "_sum",
          "type": "uint256"
        }
      ],
      "payable": false,
      "stateMutability": "view",
      "type": "function"
    },
    {
      "constant": true,
      "inputs": [
        {
          "name": "_symbol",
          "type": "string"
        },
        {
          "name": "_customerAddress",
          "type": "address"
        }
      ],
      "name": "balanceOfOneToken",
      "outputs": [
        {
          "name": "",
          "type": "uint256"
        }
      ],
      "payable": false,
      "stateMutability": "view",
      "type": "function"
    },
    {
      "constant": true,
      "inputs": [],
      "name": "totalSupply",
      "outputs": [
        {
          "name": "_sum",
          "type": "uint256"
        }
      ],
      "payable": false,
      "stateMutability": "view",
      "type": "function"
    },
    {
      "constant": true,
      "inputs": [
        {
          "name": "_symbol",
          "type": "string"
        }
      ],
      "name": "totalSupplyOfOneToken",
      "outputs": [
        {
          "name": "",
          "type": "uint256"
        }
      ],
      "payable": false,
      "stateMutability": "view",
      "type": "function"
    },
    {
      "constant": false,
      "inputs": [
        {
          "name": "_symbol",
          "type": "string"
        },
        {
          "name": "_tokenAmount",
          "type": "uint256"
        },
        {
          "name": "_referredBy",
          "type": "address"
        }
      ],
      "name": "buy",
      "outputs": [
        {
          "name": "",
          "type": "uint256"
        }
      ],
      "payable": true,
      "stateMutability": "payable",
      "type": "function"
    },
    {
      "constant": false,
      "inputs": [
        {
          "name": "_symbol",
          "type": "string"
        },
        {
          "name": "_buyAmount",
          "type": "uint256"
        }
      ],
      "name": "reinvest",
      "outputs": [],
      "payable": false,
      "stateMutability": "nonpayable",
      "type": "function"
    },
    {
      "constant": false,
      "inputs": [
        {
          "name": "_symbol",
          "type": "string"
        }
      ],
      "name": "exit",
      "outputs": [],
      "payable": false,
      "stateMutability": "nonpayable",
      "type": "function"
    },
    {
      "constant": false,
      "inputs": [],
      "name": "withdrawAll",
      "outputs": [],
      "payable": false,
      "stateMutability": "nonpayable",
      "type": "function"
    },
    {
      "constant": false,
      "inputs": [
        {
          "name": "_symbol",
          "type": "string"
        },
        {
          "name": "_withdrawAmount",
          "type": "uint256"
        }
      ],
      "name": "withdraw",
      "outputs": [],
      "payable": false,
      "stateMutability": "nonpayable",
      "type": "function"
    },
    {
      "constant": false,
      "inputs": [
        {
          "name": "_symbol",
          "type": "string"
        },
        {
          "name": "_amountOfTokens",
          "type": "uint256"
        }
      ],
      "name": "sell",
      "outputs": [],
      "payable": false,
      "stateMutability": "nonpayable",
      "type": "function"
    },
    {
      "constant": true,
      "inputs": [
        {
          "name": "_symbol",
          "type": "string"
        }
      ],
      "name": "totalBalance",
      "outputs": [
        {
          "name": "",
          "type": "uint256"
        }
      ],
      "payable": false,
      "stateMutability": "view",
      "type": "function"
    },
    {
      "constant": true,
      "inputs": [
        {
          "name": "_symbol",
          "type": "string"
        },
        {
          "name": "_customerAddress",
          "type": "address"
        }
      ],
      "name": "dividendsOf",
      "outputs": [
        {
          "name": "",
          "type": "uint256"
        }
      ],
      "payable": false,
      "stateMutability": "view",
      "type": "function"
    },
    {
      "constant": true,
      "inputs": [
        {
          "name": "_symbol",
          "type": "string"
        },
        {
          "name": "_customerAddress",
          "type": "address"
        }
      ],
      "name": "referralBalanceOf",
      "outputs": [
        {
          "name": "",
          "type": "uint256"
        }
      ],
      "payable": false,
      "stateMutability": "view",
      "type": "function"
    },
    {
      "constant": true,
      "inputs": [
        {
          "name": "_symbol",
          "type": "string"
        }
      ],
      "name": "sellPrice",
      "outputs": [
        {
          "name": "",
          "type": "uint256"
        }
      ],
      "payable": false,
      "stateMutability": "view",
      "type": "function"
    },
    {
      "constant": true,
      "inputs": [
        {
          "name": "_symbol",
          "type": "string"
        }
      ],
      "name": "buyPrice",
      "outputs": [
        {
          "name": "",
          "type": "uint256"
        }
      ],
      "payable": false,
      "stateMutability": "view",
      "type": "function"
    },
    {
      "constant": true,
      "inputs": [
        {
          "name": "_symbol",
          "type": "string"
        },
        {
          "name": "_buyTokenToSpend",
          "type": "uint256"
        }
      ],
      "name": "calculateTokensReceived",
      "outputs": [
        {
          "name": "",
          "type": "uint256"
        }
      ],
      "payable": false,
      "stateMutability": "view",
      "type": "function"
    },
    {
      "constant": true,
      "inputs": [
        {
          "name": "_symbol",
          "type": "string"
        },
        {
          "name": "_tokensToBuy",
          "type": "uint256"
        }
      ],
      "name": "calculateBuyTokenSpend",
      "outputs": [
        {
          "name": "",
          "type": "uint256"
        }
      ],
      "payable": false,
      "stateMutability": "view",
      "type": "function"
    },
    {
      "constant": true,
      "inputs": [
        {
          "name": "_symbol",
          "type": "string"
        },
        {
          "name": "_tokensToSell",
          "type": "uint256"
        }
      ],
      "name": "calculateBuyTokenReceived",
      "outputs": [
        {
          "name": "",
          "type": "uint256"
        }
      ],
      "payable": false,
      "stateMutability": "view",
      "type": "function"
    },
    {
      "constant": false,
      "inputs": [
        {
          "name": "_fromSymbol",
          "type": "string"
        },
        {
          "name": "_toSymbol",
          "type": "string"
        },
        {
          "name": "_amountOfTokens",
          "type": "uint256"
        }
      ],
      "name": "arbitrageTokens",
      "outputs": [],
      "payable": false,
      "stateMutability": "nonpayable",
      "type": "function"
    }
  ],
  "bytecode": "0x6080604052681b1ae4d6e2ef500000600555683635c9adc5dea00000600655336000806101000a81548173ffffffffffffffffffffffffffffffffffffffff021916908373ffffffffffffffffffffffffffffffffffffffff1602179055506147578061006d6000396000f3006080604052600436106101cd576000357c0100000000000000000000000000000000000000000000000000000000900463ffffffff16806306fdde03146101d25780630df35ddb1461026257806318160ddd146102bd578063227d67cc146102e857806323805b8f146103855780632ed27d5d146103c857806330b39a621461040b578063313ce5671461047e57806333347aa8146104af578063365366fb14610536578063472c16a5146105d05780634e71e0c8146106895780636addf029146106a057806370a08231146106cd578063715018a61461072457806377fe05001461073b57806384d01f69146107c2578063853828b61461083f5780638da5cb5b1461085657806395d89b41146108ad5780639f6563211461093d578063a0dbb470146109b0578063b609e72014610a59578063b70aa4f914610acc578063c688857214610b69578063c7a2136914610bac578063d539c0f814610c49578063d89c1a0014610cc6578063dae19cdf14610d43578063e30c397814610d9e578063e4ddcbc814610df5578063e7fb538814610e22578063e960303314610e8b578063f09e7d4d14610f28578063f0ed3c8c14610f6b578063f2fde38b14610fe8578063f585207c1461102b575b600080fd5b3480156101de57600080fd5b506101e76110b2565b6040518080602001828103825283818151815260200191508051906020019080838360005b8381101561022757808201518184015260208101905061020c565b50505050905090810190601f1680156102545780820380516001836020036101000a031916815260200191505b509250505060405180910390f35b34801561026e57600080fd5b506102a3600480360381019080803573ffffffffffffffffffffffffffffffffffffffff1690602001909291905050506110eb565b604051808215151515815260200191505060405180910390f35b3480156102c957600080fd5b506102d2611141565b6040518082815260200191505060405180910390f35b3480156102f457600080fd5b5061036f600480360381019080803590602001908201803590602001908080601f0160208091040260200160405190810160405280939291908181526020018383808284378201915050505050509192919290803573ffffffffffffffffffffffffffffffffffffffff169060200190929190505050611523565b6040518082815260200191505060405180910390f35b34801561039157600080fd5b506103c6600480360381019080803573ffffffffffffffffffffffffffffffffffffffff1690602001909291905050506116d2565b005b3480156103d457600080fd5b50610409600480360381019080803573ffffffffffffffffffffffffffffffffffffffff169060200190929190505050611788565b005b34801561041757600080fd5b5061047c600480360381019080803590602001908201803590602001908080601f01602080910402602001604051908101604052809392919081815260200183838082843782019150505050505091929192908035906020019092919050505061183e565b005b34801561048a57600080fd5b506104936119cd565b604051808260ff1660ff16815260200191505060405180910390f35b3480156104bb57600080fd5b50610520600480360381019080803590602001908201803590602001908080601f0160208091040260200160405190810160405280939291908181526020018383808284378201915050505050509192919290803590602001909291905050506119d2565b6040518082815260200191505060405180910390f35b6105ba600480360381019080803590602001908201803590602001908080601f016020809104026020016040519081016040528093929190818152602001838380828437820191505050505050919291929080359060200190929190803573ffffffffffffffffffffffffffffffffffffffff169060200190929190505050611b55565b6040518082815260200191505060405180910390f35b3480156105dc57600080fd5b50610687600480360381019080803590602001908201803590602001908080601f0160208091040260200160405190810160405280939291908181526020018383808284378201915050505050509192919290803590602001908201803590602001908080601f016020809104026020016040519081016040528093929190818152602001838380828437820191505050505050919291929080359060200190929190505050612073565b005b34801561069557600080fd5b5061069e6123e9565b005b3480156106ac57600080fd5b506106cb60048036038101908080359060200190929190505050612588565b005b3480156106d957600080fd5b5061070e600480360381019080803573ffffffffffffffffffffffffffffffffffffffff1690602001909291905050506125ed565b6040518082815260200191505060405180910390f35b34801561073057600080fd5b50610739612a04565b005b34801561074757600080fd5b506107ac600480360381019080803590602001908201803590602001908080601f016020809104026020016040519081016040528093929190818152602001838380828437820191505050505050919291929080359060200190929190505050612b06565b6040518082815260200191505060405180910390f35b3480156107ce57600080fd5b50610829600480360381019080803590602001908201803590602001908080601f0160208091040260200160405190810160405280939291908181526020018383808284378201915050505050509192919290505050612c89565b6040518082815260200191505060405180910390f35b34801561084b57600080fd5b50610854612e00565b005b34801561086257600080fd5b5061086b6133aa565b604051808273ffffffffffffffffffffffffffffffffffffffff1673ffffffffffffffffffffffffffffffffffffffff16815260200191505060405180910390f35b3480156108b957600080fd5b506108c26133cf565b6040518080602001828103825283818151815260200191508051906020019080838360005b838110156109025780820151818401526020810190506108e7565b50505050905090810190601f16801561092f5780820380516001836020036101000a031916815260200191505b509250505060405180910390f35b34801561094957600080fd5b506109ae600480360381019080803590602001908201803590602001908080601f016020809104026020016040519081016040528093929190818152602001838380828437820191505050505050919291929080359060200190929190505050613408565b005b3480156109bc57600080fd5b50610a17600480360381019080803590602001908201803590602001908080601f0160208091040260200160405190810160405280939291908181526020018383808284378201915050505050509192919290505050613597565b604051808273ffffffffffffffffffffffffffffffffffffffff1673ffffffffffffffffffffffffffffffffffffffff16815260200191505060405180910390f35b348015610a6557600080fd5b50610aca600480360381019080803590602001908201803590602001908080601f016020809104026020016040519081016040528093929190818152602001838380828437820191505050505050919291929080359060200190929190505050613632565b005b348015610ad857600080fd5b50610b53600480360381019080803590602001908201803590602001908080601f0160208091040260200160405190810160405280939291908181526020018383808284378201915050505050509192919290803573ffffffffffffffffffffffffffffffffffffffff1690602001909291905050506137c1565b6040518082815260200191505060405180910390f35b348015610b7557600080fd5b50610baa600480360381019080803573ffffffffffffffffffffffffffffffffffffffff169060200190929190505050613974565b005b348015610bb857600080fd5b50610c33600480360381019080803590602001908201803590602001908080601f0160208091040260200160405190810160405280939291908181526020018383808284378201915050505050509192919290803573ffffffffffffffffffffffffffffffffffffffff169060200190929190505050613a2a565b6040518082815260200191505060405180910390f35b348015610c5557600080fd5b50610cb0600480360381019080803590602001908201803590602001908080601f0160208091040260200160405190810160405280939291908181526020018383808284378201915050505050509192919290505050613bd8565b6040518082815260200191505060405180910390f35b348015610cd257600080fd5b50610d2d600480360381019080803590602001908201803590602001908080601f0160208091040260200160405190810160405280939291908181526020018383808284378201915050505050509192919290505050613d4f565b6040518082815260200191505060405180910390f35b348015610d4f57600080fd5b50610d84600480360381019080803573ffffffffffffffffffffffffffffffffffffffff169060200190929190505050613ec6565b604051808215151515815260200191505060405180910390f35b348015610daa57600080fd5b50610db3613f1c565b604051808273ffffffffffffffffffffffffffffffffffffffff1673ffffffffffffffffffffffffffffffffffffffff16815260200191505060405180910390f35b348015610e0157600080fd5b50610e2060048036038101908080359060200190929190505050613f42565b005b348015610e2e57600080fd5b50610e89600480360381019080803590602001908201803590602001908080601f0160208091040260200160405190810160405280939291908181526020018383808284378201915050505050509192919290505050613fa7565b005b348015610e9757600080fd5b50610f12600480360381019080803590602001908201803590602001908080601f0160208091040260200160405190810160405280939291908181526020018383808284378201915050505050509192919290803573ffffffffffffffffffffffffffffffffffffffff16906020019092919050505061412d565b6040518082815260200191505060405180910390f35b348015610f3457600080fd5b50610f69600480360381019080803573ffffffffffffffffffffffffffffffffffffffff1690602001909291905050506142dc565b005b348015610f7757600080fd5b50610fd2600480360381019080803590602001908201803590602001908080601f0160208091040260200160405190810160405280939291908181526020018383808284378201915050505050509192919290505050614392565b6040518082815260200191505060405180910390f35b348015610ff457600080fd5b50611029600480360381019080803573ffffffffffffffffffffffffffffffffffffffff169060200190929190505050614509565b005b34801561103757600080fd5b5061109c600480360381019080803590602001908201803590602001908080601f0160208091040260200160405190810160405280939291908181526020018383808284378201915050505050509192919290803590602001909291905050506145a8565b6040518082815260200191505060405180910390f35b6040805190810160405280600b81526020017f533344207065726665637400000000000000000000000000000000000000000081525081565b6000600760008373ffffffffffffffffffffffffffffffffffffffff1673ffffffffffffffffffffffffffffffffffffffff16815260200190815260200160002060009054906101000a900460ff169050919050565b6000806000806000935073__TokenDealerMapping____________________632dc131b260026040518263ffffffff167c01000000000000000000000000000000000000000000000000000000000281526004018082815260200191505060206040518083038186803b1580156111b757600080fd5b505af41580156111cb573d6000803e3d6000fd5b505050506040513d60208110156111e157600080fd5b810190808051906020019092919050505092505b73__TokenDealerMapping____________________634ca101476002856040518363ffffffff167c0100000000000000000000000000000000000000000000000000000000028152600401808381526020018281526020019250505060206040518083038186803b15801561126957600080fd5b505af415801561127d573d6000803e3d6000fd5b505050506040513d602081101561129357600080fd5b81019080805190602001909291905050501561151d5773__TokenDealerMapping____________________63c6ae82086002856040518363ffffffff167c0100000000000000000000000000000000000000000000000000000000028152600401808381526020018281526020019250505060006040518083038186803b15801561131d57600080fd5b505af4158015611331573d6000803e3d6000fd5b505050506040513d6000823e3d601f19601f82011682018060405250604081101561135b57600080fd5b81019080805164010000000081111561137357600080fd5b8281019050602081018481111561138957600080fd5b81518560018202830111640100000000821117156113a657600080fd5b5050929190602001805190602001909291905050509050809250508190508073ffffffffffffffffffffffffffffffffffffffff166318160ddd6040518163ffffffff167c0100000000000000000000000000000000000000000000000000000000028152600401602060405180830381600087803b15801561142857600080fd5b505af115801561143c573d6000803e3d6000fd5b505050506040513d602081101561145257600080fd5b81019080805190602001909291905050508401935073__TokenDealerMapping____________________634a84c3996002856040518363ffffffff167c0100000000000000000000000000000000000000000000000000000000028152600401808381526020018281526020019250505060206040518083038186803b1580156114db57600080fd5b505af41580156114ef573d6000803e3d6000fd5b505050506040513d602081101561150557600080fd5b810190808051906020019092919050505092506111f5565b50505090565b6000806002600001846040518082805190602001908083835b602083101515611561578051825260208201915060208101905060208303925061153c565b6001836020036101000a038019825116818451168082178552505050505050905001915050908152602001604051809103902060010160009054906101000a900473ffffffffffffffffffffffffffffffffffffffff169050600073ffffffffffffffffffffffffffffffffffffffff168173ffffffffffffffffffffffffffffffffffffffff16141515156115f357fe5b8073ffffffffffffffffffffffffffffffffffffffff166370a08231846040518263ffffffff167c0100000000000000000000000000000000000000000000000000000000028152600401808273ffffffffffffffffffffffffffffffffffffffff1673ffffffffffffffffffffffffffffffffffffffff168152602001915050602060405180830381600087803b15801561168e57600080fd5b505af11580156116a2573d6000803e3d6000fd5b505050506040513d60208110156116b857600080fd5b810190808051906020019092919050505091505092915050565b6000809054906101000a900473ffffffffffffffffffffffffffffffffffffffff1673ffffffffffffffffffffffffffffffffffffffff163373ffffffffffffffffffffffffffffffffffffffff1614151561172d57600080fd5b6001600860008373ffffffffffffffffffffffffffffffffffffffff1673ffffffffffffffffffffffffffffffffffffffff16815260200190815260200160002060006101000a81548160ff02191690831515021790555050565b6000809054906101000a900473ffffffffffffffffffffffffffffffffffffffff1673ffffffffffffffffffffffffffffffffffffffff163373ffffffffffffffffffffffffffffffffffffffff161415156117e357600080fd5b6000600760008373ffffffffffffffffffffffffffffffffffffffff1673ffffffffffffffffffffffffffffffffffffffff16815260200190815260200160002060006101000a81548160ff02191690831515021790555050565b60006002600001836040518082805190602001908083835b60208310151561187b5780518252602082019150602081019050602083039250611856565b6001836020036101000a038019825116818451168082178552505050505050905001915050908152602001604051809103902060010160009054906101000a900473ffffffffffffffffffffffffffffffffffffffff169050600073ffffffffffffffffffffffffffffffffffffffff168173ffffffffffffffffffffffffffffffffffffffff161415151561190d57fe5b8073ffffffffffffffffffffffffffffffffffffffff1663f3fef3a333846040518363ffffffff167c0100000000000000000000000000000000000000000000000000000000028152600401808373ffffffffffffffffffffffffffffffffffffffff1673ffffffffffffffffffffffffffffffffffffffff16815260200182815260200192505050600060405180830381600087803b1580156119b057600080fd5b505af11580156119c4573d6000803e3d6000fd5b50505050505050565b601281565b6000806002600001846040518082805190602001908083835b602083101515611a1057805182526020820191506020810190506020830392506119eb565b6001836020036101000a038019825116818451168082178552505050505050905001915050908152602001604051809103902060010160009054906101000a900473ffffffffffffffffffffffffffffffffffffffff169050600073ffffffffffffffffffffffffffffffffffffffff168173ffffffffffffffffffffffffffffffffffffffff1614151515611aa257fe5b8073ffffffffffffffffffffffffffffffffffffffff166310d0ffdd846040518263ffffffff167c010000000000000000000000000000000000000000000000000000000002815260040180828152602001915050602060405180830381600087803b158015611b1157600080fd5b505af1158015611b25573d6000803e3d6000fd5b505050506040513d6020811015611b3b57600080fd5b810190808051906020019092919050505091505092915050565b60008060006002600001866040518082805190602001908083835b602083101515611b955780518252602082019150602081019050602083039250611b70565b6001836020036101000a038019825116818451168082178552505050505050905001915050908152602001604051809103902060010160009054906101000a900473ffffffffffffffffffffffffffffffffffffffff169150600073ffffffffffffffffffffffffffffffffffffffff168273ffffffffffffffffffffffffffffffffffffffff1614151515611c2757fe5b8390503373ffffffffffffffffffffffffffffffffffffffff168173ffffffffffffffffffffffffffffffffffffffff161480611c6d5750600554611c6b826125ed565b105b80611c7e5750611c7c816110eb565b155b15611c8857600090505b600073__StringUtils___________________________633a96fdd7886040805190810160405280600381526020017f65746800000000000000000000000000000000000000000000000000000000008152506040518363ffffffff167c0100000000000000000000000000000000000000000000000000000000028152600401808060200180602001838103835285818151815260200191508051906020019080838360005b83811015611d4a578082015181840152602081019050611d2f565b50505050905090810190601f168015611d775780820380516001836020036101000a031916815260200191505b50838103825284818151815260200191508051906020019080838360005b83811015611db0578082015181840152602081019050611d95565b50505050905090810190601f168015611ddd5780820380516001836020036101000a031916815260200191505b5094505050505060206040518083038186803b158015611dfc57600080fd5b505af4158015611e10573d6000803e3d6000fd5b505050506040513d6020811015611e2657600080fd5b81019080805190602001909291905050501415611f56578173ffffffffffffffffffffffffffffffffffffffff1663db61c76e343334856040518563ffffffff167c0100000000000000000000000000000000000000000000000000000000028152600401808473ffffffffffffffffffffffffffffffffffffffff1673ffffffffffffffffffffffffffffffffffffffff1681526020018381526020018273ffffffffffffffffffffffffffffffffffffffff1673ffffffffffffffffffffffffffffffffffffffff16815260200193505050506020604051808303818588803b158015611f1457600080fd5b505af1158015611f28573d6000803e3d6000fd5b50505050506040513d6020811015611f3f57600080fd5b81019080805190602001909291905050505061206a565b8173ffffffffffffffffffffffffffffffffffffffff1663db61c76e3387846040518463ffffffff167c0100000000000000000000000000000000000000000000000000000000028152600401808473ffffffffffffffffffffffffffffffffffffffff1673ffffffffffffffffffffffffffffffffffffffff1681526020018381526020018273ffffffffffffffffffffffffffffffffffffffff1673ffffffffffffffffffffffffffffffffffffffff1681526020019350505050602060405180830381600087803b15801561202d57600080fd5b505af1158015612041573d6000803e3d6000fd5b505050506040513d602081101561205757600080fd5b8101908080519060200190929190505050505b50509392505050565b6000806000600654612084336125ed565b101580612096575061209533613ec6565b5b15156120a157600080fd5b6002600001866040518082805190602001908083835b6020831015156120dc57805182526020820191506020810190506020830392506120b7565b6001836020036101000a038019825116818451168082178552505050505050905001915050908152602001604051809103902060010160009054906101000a900473ffffffffffffffffffffffffffffffffffffffff169250600073ffffffffffffffffffffffffffffffffffffffff168373ffffffffffffffffffffffffffffffffffffffff161415151561216e57fe5b8273ffffffffffffffffffffffffffffffffffffffff1663d3d6dce733866040518363ffffffff167c0100000000000000000000000000000000000000000000000000000000028152600401808373ffffffffffffffffffffffffffffffffffffffff1673ffffffffffffffffffffffffffffffffffffffff16815260200182815260200192505050602060405180830381600087803b15801561221157600080fd5b505af1158015612225573d6000803e3d6000fd5b505050506040513d602081101561223b57600080fd5b81019080805190602001909291905050509150838214151561225957fe5b6002600001856040518082805190602001908083835b602083101515612294578051825260208201915060208101905060208303925061226f565b6001836020036101000a038019825116818451168082178552505050505050905001915050908152602001604051809103902060010160009054906101000a900473ffffffffffffffffffffffffffffffffffffffff169050600073ffffffffffffffffffffffffffffffffffffffff168173ffffffffffffffffffffffffffffffffffffffff161415151561232657fe5b8073ffffffffffffffffffffffffffffffffffffffff16633be8eb7e33866040518363ffffffff167c0100000000000000000000000000000000000000000000000000000000028152600401808373ffffffffffffffffffffffffffffffffffffffff1673ffffffffffffffffffffffffffffffffffffffff16815260200182815260200192505050600060405180830381600087803b1580156123c957600080fd5b505af11580156123dd573d6000803e3d6000fd5b50505050505050505050565b600160009054906101000a900473ffffffffffffffffffffffffffffffffffffffff1673ffffffffffffffffffffffffffffffffffffffff163373ffffffffffffffffffffffffffffffffffffffff1614151561244557600080fd5b600160009054906101000a900473ffffffffffffffffffffffffffffffffffffffff1673ffffffffffffffffffffffffffffffffffffffff166000809054906101000a900473ffffffffffffffffffffffffffffffffffffffff1673ffffffffffffffffffffffffffffffffffffffff167f8be0079c531659141344cd1fd0a4f28419497f9722a3daafe3b4186f6b6457e060405160405180910390a3600160009054906101000a900473ffffffffffffffffffffffffffffffffffffffff166000806101000a81548173ffffffffffffffffffffffffffffffffffffffff021916908373ffffffffffffffffffffffffffffffffffffffff1602179055506000600160006101000a81548173ffffffffffffffffffffffffffffffffffffffff021916908373ffffffffffffffffffffffffffffffffffffffff160217905550565b6000809054906101000a900473ffffffffffffffffffffffffffffffffffffffff1673ffffffffffffffffffffffffffffffffffffffff163373ffffffffffffffffffffffffffffffffffffffff161415156125e357600080fd5b8060058190555050565b60008060008073__TokenDealerMapping____________________632dc131b260026040518263ffffffff167c01000000000000000000000000000000000000000000000000000000000281526004018082815260200191505060206040518083038186803b15801561265f57600080fd5b505af4158015612673573d6000803e3d6000fd5b505050506040513d602081101561268957600080fd5b810190808051906020019092919050505092505b73__TokenDealerMapping____________________634ca101476002856040518363ffffffff167c0100000000000000000000000000000000000000000000000000000000028152600401808381526020018281526020019250505060206040518083038186803b15801561271157600080fd5b505af4158015612725573d6000803e3d6000fd5b505050506040513d602081101561273b57600080fd5b8101908080519060200190929190505050156129fc5773__TokenDealerMapping____________________63c6ae82086002856040518363ffffffff167c0100000000000000000000000000000000000000000000000000000000028152600401808381526020018281526020019250505060006040518083038186803b1580156127c557600080fd5b505af41580156127d9573d6000803e3d6000fd5b505050506040513d6000823e3d601f19601f82011682018060405250604081101561280357600080fd5b81019080805164010000000081111561281b57600080fd5b8281019050602081018481111561283157600080fd5b815185600182028301116401000000008211171561284e57600080fd5b5050929190602001805190602001909291905050509050809250508190508073ffffffffffffffffffffffffffffffffffffffff166370a08231866040518263ffffffff167c0100000000000000000000000000000000000000000000000000000000028152600401808273ffffffffffffffffffffffffffffffffffffffff1673ffffffffffffffffffffffffffffffffffffffff168152602001915050602060405180830381600087803b15801561290757600080fd5b505af115801561291b573d6000803e3d6000fd5b505050506040513d602081101561293157600080fd5b81019080805190602001909291905050508401935073__TokenDealerMapping____________________634a84c3996002856040518363ffffffff167c0100000000000000000000000000000000000000000000000000000000028152600401808381526020018281526020019250505060206040518083038186803b1580156129ba57600080fd5b505af41580156129ce573d6000803e3d6000fd5b505050506040513d60208110156129e457600080fd5b8101908080519060200190929190505050925061269d565b505050919050565b6000809054906101000a900473ffffffffffffffffffffffffffffffffffffffff1673ffffffffffffffffffffffffffffffffffffffff163373ffffffffffffffffffffffffffffffffffffffff16141515612a5f57600080fd5b6000809054906101000a900473ffffffffffffffffffffffffffffffffffffffff1673ffffffffffffffffffffffffffffffffffffffff167ff8df31144d9c2f0f6b59d69b8b98abd5459d07f2742c4df920b25aae33c6482060405160405180910390a260008060006101000a81548173ffffffffffffffffffffffffffffffffffffffff021916908373ffffffffffffffffffffffffffffffffffffffff160217905550565b6000806002600001846040518082805190602001908083835b602083101515612b445780518252602082019150602081019050602083039250612b1f565b6001836020036101000a038019825116818451168082178552505050505050905001915050908152602001604051809103902060010160009054906101000a900473ffffffffffffffffffffffffffffffffffffffff169050600073ffffffffffffffffffffffffffffffffffffffff168173ffffffffffffffffffffffffffffffffffffffff1614151515612bd657fe5b8073ffffffffffffffffffffffffffffffffffffffff1663150c95a8846040518263ffffffff167c010000000000000000000000000000000000000000000000000000000002815260040180828152602001915050602060405180830381600087803b158015612c4557600080fd5b505af1158015612c59573d6000803e3d6000fd5b505050506040513d6020811015612c6f57600080fd5b810190808051906020019092919050505091505092915050565b6000806002600001836040518082805190602001908083835b602083101515612cc75780518252602082019150602081019050602083039250612ca2565b6001836020036101000a038019825116818451168082178552505050505050905001915050908152602001604051809103902060010160009054906101000a900473ffffffffffffffffffffffffffffffffffffffff169050600073ffffffffffffffffffffffffffffffffffffffff168173ffffffffffffffffffffffffffffffffffffffff1614151515612d5957fe5b8073ffffffffffffffffffffffffffffffffffffffff1663ad7a672f6040518163ffffffff167c0100000000000000000000000000000000000000000000000000000000028152600401602060405180830381600087803b158015612dbd57600080fd5b505af1158015612dd1573d6000803e3d6000fd5b505050506040513d6020811015612de757600080fd5b8101908080519060200190929190505050915050919050565b600080600073__TokenDealerMapping____________________632dc131b260026040518263ffffffff167c01000000000000000000000000000000000000000000000000000000000281526004018082815260200191505060206040518083038186803b158015612e7157600080fd5b505af4158015612e85573d6000803e3d6000fd5b505050506040513d6020811015612e9b57600080fd5b810190808051906020019092919050505092505b73__TokenDealerMapping____________________634ca101476002856040518363ffffffff167c0100000000000000000000000000000000000000000000000000000000028152600401808381526020018281526020019250505060206040518083038186803b158015612f2357600080fd5b505af4158015612f37573d6000803e3d6000fd5b505050506040513d6020811015612f4d57600080fd5b8101908080519060200190929190505050156133a55773__TokenDealerMapping____________________63c6ae82086002856040518363ffffffff167c0100000000000000000000000000000000000000000000000000000000028152600401808381526020018281526020019250505060006040518083038186803b158015612fd757600080fd5b505af4158015612feb573d6000803e3d6000fd5b505050506040513d6000823e3d601f19601f82011682018060405250604081101561301557600080fd5b81019080805164010000000081111561302d57600080fd5b8281019050602081018481111561304357600080fd5b815185600182028301116401000000008211171561306057600080fd5b50509291906020018051906020019092919050505090508092505081905060008173ffffffffffffffffffffffffffffffffffffffff166265318b336040518263ffffffff167c0100000000000000000000000000000000000000000000000000000000028152600401808273ffffffffffffffffffffffffffffffffffffffff1673ffffffffffffffffffffffffffffffffffffffff168152602001915050602060405180830381600087803b15801561311a57600080fd5b505af115801561312e573d6000803e3d6000fd5b505050506040513d602081101561314457600080fd5b81019080805190602001909291905050501180613236575060008173ffffffffffffffffffffffffffffffffffffffff166346534649336040518263ffffffff167c0100000000000000000000000000000000000000000000000000000000028152600401808273ffffffffffffffffffffffffffffffffffffffff1673ffffffffffffffffffffffffffffffffffffffff168152602001915050602060405180830381600087803b1580156131f957600080fd5b505af115801561320d573d6000803e3d6000fd5b505050506040513d602081101561322357600080fd5b8101908080519060200190929190505050115b156132ef578073ffffffffffffffffffffffffffffffffffffffff1663fa09e630336040518263ffffffff167c0100000000000000000000000000000000000000000000000000000000028152600401808273ffffffffffffffffffffffffffffffffffffffff1673ffffffffffffffffffffffffffffffffffffffff168152602001915050600060405180830381600087803b1580156132d657600080fd5b505af11580156132ea573d6000803e3d6000fd5b505050505b73__TokenDealerMapping____________________634a84c3996002856040518363ffffffff167c0100000000000000000000000000000000000000000000000000000000028152600401808381526020018281526020019250505060206040518083038186803b15801561336357600080fd5b505af4158015613377573d6000803e3d6000fd5b505050506040513d602081101561338d57600080fd5b81019080805190602001909291905050509250612eaf565b505050565b6000809054906101000a900473ffffffffffffffffffffffffffffffffffffffff1681565b6040805190810160405280600381526020017f533344000000000000000000000000000000000000000000000000000000000081525081565b60006002600001836040518082805190602001908083835b6020831015156134455780518252602082019150602081019050602083039250613420565b6001836020036101000a038019825116818451168082178552505050505050905001915050908152602001604051809103902060010160009054906101000a900473ffffffffffffffffffffffffffffffffffffffff169050600073ffffffffffffffffffffffffffffffffffffffff168173ffffffffffffffffffffffffffffffffffffffff16141515156134d757fe5b8073ffffffffffffffffffffffffffffffffffffffff16636c197ff533846040518363ffffffff167c0100000000000000000000000000000000000000000000000000000000028152600401808373ffffffffffffffffffffffffffffffffffffffff1673ffffffffffffffffffffffffffffffffffffffff16815260200182815260200192505050600060405180830381600087803b15801561357a57600080fd5b505af115801561358e573d6000803e3d6000fd5b50505050505050565b60006002600001826040518082805190602001908083835b6020831015156135d457805182526020820191506020810190506020830392506135af565b6001836020036101000a038019825116818451168082178552505050505050905001915050908152602001604051809103902060010160009054906101000a900473ffffffffffffffffffffffffffffffffffffffff169050919050565b60006002600001836040518082805190602001908083835b60208310151561366f578051825260208201915060208101905060208303925061364a565b6001836020036101000a038019825116818451168082178552505050505050905001915050908152602001604051809103902060010160009054906101000a900473ffffffffffffffffffffffffffffffffffffffff169050600073ffffffffffffffffffffffffffffffffffffffff168173ffffffffffffffffffffffffffffffffffffffff161415151561370157fe5b8073ffffffffffffffffffffffffffffffffffffffff1663d65a261733846040518363ffffffff167c0100000000000000000000000000000000000000000000000000000000028152600401808373ffffffffffffffffffffffffffffffffffffffff1673ffffffffffffffffffffffffffffffffffffffff16815260200182815260200192505050600060405180830381600087803b1580156137a457600080fd5b505af11580156137b8573d6000803e3d6000fd5b50505050505050565b60008060009054906101000a900473ffffffffffffffffffffffffffffffffffffffff1673ffffffffffffffffffffffffffffffffffffffff163373ffffffffffffffffffffffffffffffffffffffff1614151561381e57600080fd5b73__TokenDealerMapping____________________63d3a54b0a600285856040518463ffffffff167c010000000000000000000000000000000000000000000000000000000002815260040180848152602001806020018373ffffffffffffffffffffffffffffffffffffffff1673ffffffffffffffffffffffffffffffffffffffff168152602001828103825284818151815260200191508051906020019080838360005b838110156138df5780820151818401526020810190506138c4565b50505050905090810190601f16801561390c5780820380516001836020036101000a031916815260200191505b5094505050505060206040518083038186803b15801561392b57600080fd5b505af415801561393f573d6000803e3d6000fd5b505050506040513d602081101561395557600080fd5b8101908080519060200190929190505050506002800154905092915050565b6000809054906101000a900473ffffffffffffffffffffffffffffffffffffffff1673ffffffffffffffffffffffffffffffffffffffff163373ffffffffffffffffffffffffffffffffffffffff161415156139cf57600080fd5b6001600760008373ffffffffffffffffffffffffffffffffffffffff1673ffffffffffffffffffffffffffffffffffffffff16815260200190815260200160002060006101000a81548160ff02191690831515021790555050565b6000806002600001846040518082805190602001908083835b602083101515613a685780518252602082019150602081019050602083039250613a43565b6001836020036101000a038019825116818451168082178552505050505050905001915050908152602001604051809103902060010160009054906101000a900473ffffffffffffffffffffffffffffffffffffffff169050600073ffffffffffffffffffffffffffffffffffffffff168173ffffffffffffffffffffffffffffffffffffffff1614151515613afa57fe5b8073ffffffffffffffffffffffffffffffffffffffff166265318b846040518263ffffffff167c0100000000000000000000000000000000000000000000000000000000028152600401808273ffffffffffffffffffffffffffffffffffffffff1673ffffffffffffffffffffffffffffffffffffffff168152602001915050602060405180830381600087803b158015613b9457600080fd5b505af1158015613ba8573d6000803e3d6000fd5b505050506040513d6020811015613bbe57600080fd5b810190808051906020019092919050505091505092915050565b6000806002600001836040518082805190602001908083835b602083101515613c165780518252602082019150602081019050602083039250613bf1565b6001836020036101000a038019825116818451168082178552505050505050905001915050908152602001604051809103902060010160009054906101000a900473ffffffffffffffffffffffffffffffffffffffff169050600073ffffffffffffffffffffffffffffffffffffffff168173ffffffffffffffffffffffffffffffffffffffff1614151515613ca857fe5b8073ffffffffffffffffffffffffffffffffffffffff16638620410b6040518163ffffffff167c0100000000000000000000000000000000000000000000000000000000028152600401602060405180830381600087803b158015613d0c57600080fd5b505af1158015613d20573d6000803e3d6000fd5b505050506040513d6020811015613d3657600080fd5b8101908080519060200190929190505050915050919050565b6000806002600001836040518082805190602001908083835b602083101515613d8d5780518252602082019150602081019050602083039250613d68565b6001836020036101000a038019825116818451168082178552505050505050905001915050908152602001604051809103902060010160009054906101000a900473ffffffffffffffffffffffffffffffffffffffff169050600073ffffffffffffffffffffffffffffffffffffffff168173ffffffffffffffffffffffffffffffffffffffff1614151515613e1f57fe5b8073ffffffffffffffffffffffffffffffffffffffff16634b7503346040518163ffffffff167c0100000000000000000000000000000000000000000000000000000000028152600401602060405180830381600087803b158015613e8357600080fd5b505af1158015613e97573d6000803e3d6000fd5b505050506040513d6020811015613ead57600080fd5b8101908080519060200190929190505050915050919050565b6000600860008373ffffffffffffffffffffffffffffffffffffffff1673ffffffffffffffffffffffffffffffffffffffff16815260200190815260200160002060009054906101000a900460ff169050919050565b600160009054906101000a900473ffffffffffffffffffffffffffffffffffffffff1681565b6000809054906101000a900473ffffffffffffffffffffffffffffffffffffffff1673ffffffffffffffffffffffffffffffffffffffff163373ffffffffffffffffffffffffffffffffffffffff16141515613f9d57600080fd5b8060068190555050565b60006002600001826040518082805190602001908083835b602083101515613fe45780518252602082019150602081019050602083039250613fbf565b6001836020036101000a038019825116818451168082178552505050505050905001915050908152602001604051809103902060010160009054906101000a900473ffffffffffffffffffffffffffffffffffffffff169050600073ffffffffffffffffffffffffffffffffffffffff168173ffffffffffffffffffffffffffffffffffffffff161415151561407657fe5b8073ffffffffffffffffffffffffffffffffffffffff1663b42652e9336040518263ffffffff167c0100000000000000000000000000000000000000000000000000000000028152600401808273ffffffffffffffffffffffffffffffffffffffff1673ffffffffffffffffffffffffffffffffffffffff168152602001915050600060405180830381600087803b15801561411157600080fd5b505af1158015614125573d6000803e3d6000fd5b505050505050565b6000806002600001846040518082805190602001908083835b60208310151561416b5780518252602082019150602081019050602083039250614146565b6001836020036101000a038019825116818451168082178552505050505050905001915050908152602001604051809103902060010160009054906101000a900473ffffffffffffffffffffffffffffffffffffffff169050600073ffffffffffffffffffffffffffffffffffffffff168173ffffffffffffffffffffffffffffffffffffffff16141515156141fd57fe5b8073ffffffffffffffffffffffffffffffffffffffff166346534649846040518263ffffffff167c0100000000000000000000000000000000000000000000000000000000028152600401808273ffffffffffffffffffffffffffffffffffffffff1673ffffffffffffffffffffffffffffffffffffffff168152602001915050602060405180830381600087803b15801561429857600080fd5b505af11580156142ac573d6000803e3d6000fd5b505050506040513d60208110156142c257600080fd5b810190808051906020019092919050505091505092915050565b6000809054906101000a900473ffffffffffffffffffffffffffffffffffffffff1673ffffffffffffffffffffffffffffffffffffffff163373ffffffffffffffffffffffffffffffffffffffff1614151561433757600080fd5b6000600860008373ffffffffffffffffffffffffffffffffffffffff1673ffffffffffffffffffffffffffffffffffffffff16815260200190815260200160002060006101000a81548160ff02191690831515021790555050565b6000806002600001836040518082805190602001908083835b6020831015156143d057805182526020820191506020810190506020830392506143ab565b6001836020036101000a038019825116818451168082178552505050505050905001915050908152602001604051809103902060010160009054906101000a900473ffffffffffffffffffffffffffffffffffffffff169050600073ffffffffffffffffffffffffffffffffffffffff168173ffffffffffffffffffffffffffffffffffffffff161415151561446257fe5b8073ffffffffffffffffffffffffffffffffffffffff166318160ddd6040518163ffffffff167c0100000000000000000000000000000000000000000000000000000000028152600401602060405180830381600087803b1580156144c657600080fd5b505af11580156144da573d6000803e3d6000fd5b505050506040513d60208110156144f057600080fd5b8101908080519060200190929190505050915050919050565b6000809054906101000a900473ffffffffffffffffffffffffffffffffffffffff1673ffffffffffffffffffffffffffffffffffffffff163373ffffffffffffffffffffffffffffffffffffffff1614151561456457600080fd5b80600160006101000a81548173ffffffffffffffffffffffffffffffffffffffff021916908373ffffffffffffffffffffffffffffffffffffffff16021790555050565b6000806002600001846040518082805190602001908083835b6020831015156145e657805182526020820191506020810190506020830392506145c1565b6001836020036101000a038019825116818451168082178552505050505050905001915050908152602001604051809103902060010160009054906101000a900473ffffffffffffffffffffffffffffffffffffffff169050600073ffffffffffffffffffffffffffffffffffffffff168173ffffffffffffffffffffffffffffffffffffffff161415151561467857fe5b8073ffffffffffffffffffffffffffffffffffffffff1663b73f34b4846040518263ffffffff167c010000000000000000000000000000000000000000000000000000000002815260040180828152602001915050602060405180830381600087803b1580156146e757600080fd5b505af11580156146fb573d6000803e3d6000fd5b505050506040513d602081101561471157600080fd5b8101908080519060200190929190505050915050929150505600a165627a7a7230582094d428a97f7dc1dec8bf43e4d17b8778251fde90d894f33d8e2e583913de9dd40029",
  "source": "pragma solidity ^0.4.24;\r\n\r\n\r\nimport \"zeppelin-solidity/contracts/ownership/Claimable.sol\";\r\nimport \"../contracts/interface/TokenDealerInterface.sol\";\r\nimport \"../contracts/library/TokenDealerMapping.sol\";\r\nimport \"../contracts/library/StringUtils.sol\";\r\n\r\ncontract S3DProtocol is Claimable{\r\n    TokenDealerMapping.itmap tokenDealerMap;\r\n\r\n    uint256 internal referralRequirement = 500e18;\r\n    uint256 internal arbitrageRequirement = 1000e18;\r\n\r\n    string constant internal ethSymbol = \"eth\";\r\n\r\n    uint8 constant public decimals = 18;\r\n    string constant public name = \"S3D perfect\";\r\n    string constant public symbol = \"S3D\";\r\n\r\n    mapping(address => bool) internal referralers;\r\n    mapping(address => bool) internal arbitragers;\r\n\r\n    function addReferraler(address _customerAddress)\r\n        public \r\n        onlyOwner()\r\n    {\r\n        referralers[_customerAddress] = true;\r\n    }\r\n\r\n    function removeReferraler(address _customerAddress)\r\n        public\r\n        onlyOwner()\r\n    {\r\n        referralers[_customerAddress] = false;\r\n    }\r\n\r\n    function addArbitrager(address _customerAddress)\r\n        public \r\n        onlyOwner()\r\n    {\r\n        arbitragers[_customerAddress] = true;\r\n    }\r\n\r\n    function removeArbitrager(address _customerAddress)\r\n        public\r\n        onlyOwner()\r\n    {\r\n        arbitragers[_customerAddress] = false;\r\n    }\r\n\r\n    function isReferraler(address _customerAddress)\r\n        public\r\n        view\r\n        returns(bool)\r\n    {\r\n        return referralers[_customerAddress];\r\n    }\r\n\r\n    function isArbitrager(address _customerAddress)\r\n        public\r\n        view\r\n        returns(bool)\r\n    {\r\n        return arbitragers[_customerAddress];\r\n    }\r\n\r\n    function addDealer(string _symbol, address _dealerAddress) \r\n        public \r\n        onlyOwner()\r\n        returns (uint size) \r\n    {\r\n        TokenDealerMapping.insert(tokenDealerMap, _symbol, _dealerAddress);\r\n        return tokenDealerMap.size;\r\n    }\r\n\r\n    function getDealer(string _symbol) \r\n        public \r\n        view \r\n        returns (address) \r\n    {\r\n        return tokenDealerMap.data[_symbol].value;\r\n    }\r\n\r\n    function setReferralRequirement(uint256 _amountOfTokens) \r\n        public\r\n        onlyOwner()  \r\n    {\r\n        referralRequirement = _amountOfTokens;\r\n    }\r\n\r\n    function setArbitrageRequirement(uint256 _amountOfTokens) \r\n        public\r\n        onlyOwner()  \r\n    {\r\n        arbitrageRequirement = _amountOfTokens;\r\n    }\r\n    \r\n    function balanceOf( address _customerAddress) \r\n        public \r\n        view \r\n        returns (uint256 _sum) \r\n    {\r\n        for (uint i = TokenDealerMapping.iterate_start(tokenDealerMap); \r\n             TokenDealerMapping.iterate_valid(tokenDealerMap, i); \r\n             i = TokenDealerMapping.iterate_next(tokenDealerMap, i))\r\n        {\r\n            address _value;\r\n            (, _value) = TokenDealerMapping.iterate_get(tokenDealerMap, i);\r\n            TokenDealerInterface _dealerContract = TokenDealerInterface(_value);\r\n            _sum += _dealerContract.balanceOf(_customerAddress);\r\n        } \r\n    }\r\n\r\n    function balanceOfOneToken(string _symbol, address _customerAddress) \r\n        public \r\n        view \r\n        returns (uint256)\r\n    {\r\n        TokenDealerInterface _dealerContract = TokenDealerInterface(tokenDealerMap.data[_symbol].value);\r\n        assert(_dealerContract != address(0));\r\n        return _dealerContract.balanceOf(_customerAddress);\r\n    }\r\n\r\n    //add all s3d\r\n    function totalSupply() \r\n        public \r\n        view \r\n        returns (uint256 _sum) \r\n    {\r\n        _sum = 0;\r\n        for (uint i = TokenDealerMapping.iterate_start(tokenDealerMap);\r\n             TokenDealerMapping.iterate_valid(tokenDealerMap, i);\r\n             i = TokenDealerMapping.iterate_next(tokenDealerMap, i))\r\n        {\r\n            address _value;\r\n            (, _value) = TokenDealerMapping.iterate_get(tokenDealerMap, i);\r\n            TokenDealerInterface _dealerContract = TokenDealerInterface(_value);\r\n            _sum += _dealerContract.totalSupply();\r\n        }\r\n    }\r\n\r\n    function totalSupplyOfOneToken(string _symbol) \r\n        public \r\n        view \r\n        returns (uint256) \r\n    {\r\n        TokenDealerInterface _dealerContract = TokenDealerInterface(tokenDealerMap.data[_symbol].value);\r\n        assert(_dealerContract != address(0));\r\n        return _dealerContract.totalSupply();\r\n    }\r\n\r\n    modifier arbitrageBarrier() \r\n    {\r\n        require(balanceOf(msg.sender) >= arbitrageRequirement || isArbitrager(msg.sender));\r\n        _;\r\n    }\r\n\r\n    function buy(string _symbol, uint256 _tokenAmount, address _referredBy)\r\n        public\r\n        payable\r\n        returns(uint256)\r\n    {\r\n        TokenDealerInterface _dealerContract = TokenDealerInterface(tokenDealerMap.data[_symbol].value);\r\n        assert(_dealerContract != address(0));\r\n\r\n        address _referrer = _referredBy;\r\n        if( \r\n            // no cheating!\r\n            _referrer == msg.sender \r\n            \r\n            // does the referrer have at least X whole tokens?\r\n            // i.e is the referrer a godly chad masternode\r\n            || (balanceOf(_referrer) < referralRequirement)\r\n\r\n            // not in referal referraler list\r\n            || !isReferraler(_referrer)\r\n        ) {\r\n            _referrer = 0x0000000000000000000000000000000000000000;\r\n        }\r\n\r\n        if(StringUtils.compare(_symbol, ethSymbol) == 0) {\r\n            _dealerContract.buy.value(msg.value)(msg.sender, msg.value, _referrer);\r\n        } else {\r\n            _dealerContract.buy(msg.sender, _tokenAmount, _referrer);\r\n        }\r\n    }\r\n\r\n    function reinvest(string _symbol, uint256 _buyAmount) \r\n        public\r\n    {\r\n        TokenDealerInterface _dealerContract = TokenDealerInterface(tokenDealerMap.data[_symbol].value);\r\n        assert(_dealerContract != address(0));\r\n        _dealerContract.reinvest(msg.sender, _buyAmount);\r\n    }\r\n\r\n    function exit(string _symbol) \r\n        public \r\n    {\r\n        TokenDealerInterface _dealerContract = TokenDealerInterface(tokenDealerMap.data[_symbol].value);\r\n        assert(_dealerContract != address(0));\r\n        _dealerContract.exit(msg.sender);\r\n    }\r\n\r\n\r\n    function withdrawAll() \r\n        public \r\n    {\r\n        for (uint i = TokenDealerMapping.iterate_start(tokenDealerMap); \r\n             TokenDealerMapping.iterate_valid(tokenDealerMap, i); \r\n             i = TokenDealerMapping.iterate_next(tokenDealerMap, i))\r\n        {\r\n            address _value;\r\n            (, _value) = TokenDealerMapping.iterate_get(tokenDealerMap, i);\r\n            TokenDealerInterface _dealerContract = TokenDealerInterface(_value);\r\n            if (_dealerContract.dividendsOf(msg.sender) > 0 || _dealerContract.referralBalanceOf(msg.sender) > 0) {\r\n                _dealerContract.withdrawAll(msg.sender);\r\n            }\r\n        }\r\n    }\r\n\r\n    function withdraw(string _symbol, uint256 _withdrawAmount) \r\n        public\r\n    {\r\n        TokenDealerInterface _dealerContract = TokenDealerInterface(tokenDealerMap.data[_symbol].value);\r\n        assert(_dealerContract != address(0));\r\n        _dealerContract.withdraw(msg.sender, _withdrawAmount);\r\n    }\r\n\r\n    function sell(string _symbol, uint256 _amountOfTokens) \r\n        public \r\n    {\r\n        TokenDealerInterface _dealerContract = TokenDealerInterface(tokenDealerMap.data[_symbol].value);\r\n        assert(_dealerContract != address(0));\r\n        _dealerContract.sell(msg.sender, _amountOfTokens);\r\n    }\r\n\r\n    function totalBalance(string _symbol) \r\n        public \r\n        view \r\n        returns(uint256) \r\n    {\r\n        TokenDealerInterface _dealerContract = TokenDealerInterface(tokenDealerMap.data[_symbol].value);\r\n        assert(_dealerContract != address(0));\r\n        return _dealerContract.totalBalance();\r\n    }\r\n\r\n\r\n    function dividendsOf(string _symbol, address _customerAddress) \r\n        public\r\n        view  \r\n        returns(uint256) \r\n    {\r\n        TokenDealerInterface _dealerContract = TokenDealerInterface(tokenDealerMap.data[_symbol].value);\r\n        assert(_dealerContract != address(0));\r\n        return _dealerContract.dividendsOf(_customerAddress);\r\n    }\r\n\r\n    function referralBalanceOf(string _symbol, address _customerAddress) \r\n        public\r\n        view  \r\n        returns(uint256) \r\n    {\r\n        TokenDealerInterface _dealerContract = TokenDealerInterface(tokenDealerMap.data[_symbol].value);\r\n        assert(_dealerContract != address(0));\r\n        return _dealerContract.referralBalanceOf(_customerAddress);\r\n    }\r\n\r\n    function sellPrice(string _symbol) \r\n        public \r\n        view \r\n        returns(uint256) \r\n    {\r\n        TokenDealerInterface _dealerContract = TokenDealerInterface(tokenDealerMap.data[_symbol].value);\r\n        assert(_dealerContract != address(0));\r\n        return _dealerContract.sellPrice();\r\n    }\r\n\r\n    function buyPrice(string _symbol) \r\n        public \r\n        view \r\n        returns(uint256) \r\n    {\r\n        TokenDealerInterface _dealerContract = TokenDealerInterface(tokenDealerMap.data[_symbol].value);\r\n        assert(_dealerContract != address(0));\r\n        return _dealerContract.buyPrice();\r\n    }\r\n\r\n    function calculateTokensReceived(string _symbol, uint256 _buyTokenToSpend) \r\n        public \r\n        view \r\n        returns(uint256) \r\n    {\r\n        TokenDealerInterface _dealerContract = TokenDealerInterface(tokenDealerMap.data[_symbol].value);\r\n        assert(_dealerContract != address(0));\r\n        return _dealerContract.calculateTokensReceived(_buyTokenToSpend);\r\n    }\r\n\r\n    function calculateBuyTokenSpend(string _symbol, uint256 _tokensToBuy) \r\n        public \r\n        view \r\n        returns(uint256) \r\n    {\r\n        TokenDealerInterface _dealerContract = TokenDealerInterface(tokenDealerMap.data[_symbol].value);\r\n        assert(_dealerContract != address(0));\r\n        return _dealerContract.calculateBuyTokenSpend(_tokensToBuy);\r\n    }\r\n\r\n    function calculateBuyTokenReceived(string _symbol, uint256 _tokensToSell) \r\n        public \r\n        view \r\n        returns(uint256) \r\n    {\r\n        TokenDealerInterface _dealerContract = TokenDealerInterface(tokenDealerMap.data[_symbol].value);\r\n        assert(_dealerContract != address(0));\r\n        return _dealerContract.calculateBuyTokenReceived(_tokensToSell);\r\n    }\r\n\r\n    function arbitrageTokens(string _fromSymbol, string _toSymbol, uint256 _amountOfTokens) \r\n        public\r\n        arbitrageBarrier() \r\n    {\r\n        TokenDealerInterface _escapeContract = TokenDealerInterface(tokenDealerMap.data[_fromSymbol].value);\r\n        assert(_escapeContract != address(0));\r\n\r\n        uint256 _tokens = _escapeContract.escapeTokens(msg.sender, _amountOfTokens); \r\n        assert(_tokens == _amountOfTokens);\r\n\r\n        TokenDealerInterface _dealerContract = TokenDealerInterface(tokenDealerMap.data[_toSymbol].value);\r\n        assert(_dealerContract != address(0));\r\n\r\n        _dealerContract.arbitrageTokens(msg.sender, _amountOfTokens);\r\n    }\r\n}",
  "sourcePath": "D:\\work\\truffle\\s3d\\contracts\\S3DProtocol.sol",
  "compiler": {
    "name": "solc",
    "version": "0.4.24+commit.e67f0147.Emscripten.clang"
  },
  "schemaVersion": "2.0.1",
  "updatedAt": "2018-08-25T09:02:47.192Z"
}