{
  "contractName": "S3DProtocol",
  "abi": [
    {
      "constant": true,
      "inputs": [],
      "name": "ethSymbol",
      "outputs": [
        {
          "name": "",
          "type": "string"
        }
      ],
      "payable": false,
      "stateMutability": "view",
      "type": "function"
    },
    {
      "constant": false,
      "inputs": [],
      "name": "claimOwnership",
      "outputs": [],
      "payable": false,
      "stateMutability": "nonpayable",
      "type": "function"
    },
    {
      "constant": true,
      "inputs": [],
      "name": "stakingRequirement",
      "outputs": [
        {
          "name": "",
          "type": "uint256"
        }
      ],
      "payable": false,
      "stateMutability": "view",
      "type": "function"
    },
    {
      "constant": false,
      "inputs": [],
      "name": "renounceOwnership",
      "outputs": [],
      "payable": false,
      "stateMutability": "nonpayable",
      "type": "function"
    },
    {
      "constant": true,
      "inputs": [],
      "name": "owner",
      "outputs": [
        {
          "name": "",
          "type": "address"
        }
      ],
      "payable": false,
      "stateMutability": "view",
      "type": "function"
    },
    {
      "constant": true,
      "inputs": [],
      "name": "pendingOwner",
      "outputs": [
        {
          "name": "",
          "type": "address"
        }
      ],
      "payable": false,
      "stateMutability": "view",
      "type": "function"
    },
    {
      "constant": false,
      "inputs": [
        {
          "name": "newOwner",
          "type": "address"
        }
      ],
      "name": "transferOwnership",
      "outputs": [],
      "payable": false,
      "stateMutability": "nonpayable",
      "type": "function"
    },
    {
      "anonymous": false,
      "inputs": [
        {
          "indexed": true,
          "name": "previousOwner",
          "type": "address"
        }
      ],
      "name": "OwnershipRenounced",
      "type": "event"
    },
    {
      "anonymous": false,
      "inputs": [
        {
          "indexed": true,
          "name": "previousOwner",
          "type": "address"
        },
        {
          "indexed": true,
          "name": "newOwner",
          "type": "address"
        }
      ],
      "name": "OwnershipTransferred",
      "type": "event"
    },
    {
      "constant": false,
      "inputs": [
        {
          "name": "symbol",
          "type": "string"
        },
        {
          "name": "dealerAddress",
          "type": "address"
        }
      ],
      "name": "addDealer",
      "outputs": [
        {
          "name": "size",
          "type": "uint256"
        }
      ],
      "payable": false,
      "stateMutability": "nonpayable",
      "type": "function"
    },
    {
      "constant": true,
      "inputs": [
        {
          "name": "symbol",
          "type": "string"
        }
      ],
      "name": "getDealer",
      "outputs": [
        {
          "name": "",
          "type": "address"
        }
      ],
      "payable": false,
      "stateMutability": "view",
      "type": "function"
    },
    {
      "constant": true,
      "inputs": [],
      "name": "getSize",
      "outputs": [
        {
          "name": "",
          "type": "uint256"
        }
      ],
      "payable": false,
      "stateMutability": "view",
      "type": "function"
    },
    {
      "constant": false,
      "inputs": [
        {
          "name": "_amountOfTokens",
          "type": "uint256"
        }
      ],
      "name": "setStakingRequirement",
      "outputs": [],
      "payable": false,
      "stateMutability": "nonpayable",
      "type": "function"
    },
    {
      "constant": true,
      "inputs": [],
      "name": "totalSupply",
      "outputs": [
        {
          "name": "sum",
          "type": "uint256"
        }
      ],
      "payable": false,
      "stateMutability": "view",
      "type": "function"
    },
    {
      "constant": true,
      "inputs": [
        {
          "name": "_customerAddress",
          "type": "address"
        }
      ],
      "name": "balanceOf",
      "outputs": [
        {
          "name": "sum",
          "type": "uint256"
        }
      ],
      "payable": false,
      "stateMutability": "view",
      "type": "function"
    },
    {
      "constant": false,
      "inputs": [
        {
          "name": "symbol",
          "type": "string"
        },
        {
          "name": "_tokenAmount",
          "type": "uint256"
        },
        {
          "name": "_referredBy",
          "type": "address"
        }
      ],
      "name": "buy",
      "outputs": [
        {
          "name": "",
          "type": "uint256"
        }
      ],
      "payable": true,
      "stateMutability": "payable",
      "type": "function"
    }
  ],
  "bytecode": "0x608060405268056bc75e2d63100000600555336000806101000a81548173ffffffffffffffffffffffffffffffffffffffff021916908373ffffffffffffffffffffffffffffffffffffffff160217905550611ddb806100606000396000f3006080604052600436106100d0576000357c0100000000000000000000000000000000000000000000000000000000900463ffffffff16806318160ddd146100d55780632c0f7f4f14610100578063365366fb146101905780634e71e0c81461022a57806356d399e81461024157806370a082311461026c578063715018a6146102c35780638328b610146102da5780638da5cb5b14610307578063a0dbb4701461035e578063b70aa4f914610407578063de8fa431146104a4578063e30c3978146104cf578063f2fde38b14610526575b600080fd5b3480156100e157600080fd5b506100ea610569565b6040518082815260200191505060405180910390f35b34801561010c57600080fd5b50610115610948565b6040518080602001828103825283818151815260200191508051906020019080838360005b8381101561015557808201518184015260208101905061013a565b50505050905090810190601f1680156101825780820380516001836020036101000a031916815260200191505b509250505060405180910390f35b610214600480360381019080803590602001908201803590602001908080601f016020809104026020016040519081016040528093929190818152602001838380828437820191505050505050919291929080359060200190929190803573ffffffffffffffffffffffffffffffffffffffff169060200190929190505050610981565b6040518082815260200191505060405180910390f35b34801561023657600080fd5b5061023f611347565b005b34801561024d57600080fd5b506102566114e6565b6040518082815260200191505060405180910390f35b34801561027857600080fd5b506102ad600480360381019080803573ffffffffffffffffffffffffffffffffffffffff1690602001909291905050506114ec565b6040518082815260200191505060405180910390f35b3480156102cf57600080fd5b506102d8611904565b005b3480156102e657600080fd5b5061030560048036038101908080359060200190929190505050611a06565b005b34801561031357600080fd5b5061031c611a6b565b604051808273ffffffffffffffffffffffffffffffffffffffff1673ffffffffffffffffffffffffffffffffffffffff16815260200191505060405180910390f35b34801561036a57600080fd5b506103c5600480360381019080803590602001908201803590602001908080601f0160208091040260200160405190810160405280939291908181526020018383808284378201915050505050509192919290505050611a90565b604051808273ffffffffffffffffffffffffffffffffffffffff1673ffffffffffffffffffffffffffffffffffffffff16815260200191505060405180910390f35b34801561041357600080fd5b5061048e600480360381019080803590602001908201803590602001908080601f0160208091040260200160405190810160405280939291908181526020018383808284378201915050505050509192919290803573ffffffffffffffffffffffffffffffffffffffff169060200190929190505050611b2b565b6040518082815260200191505060405180910390f35b3480156104b057600080fd5b506104b9611cde565b6040518082815260200191505060405180910390f35b3480156104db57600080fd5b506104e4611cea565b604051808273ffffffffffffffffffffffffffffffffffffffff1673ffffffffffffffffffffffffffffffffffffffff16815260200191505060405180910390f35b34801561053257600080fd5b50610567600480360381019080803573ffffffffffffffffffffffffffffffffffffffff169060200190929190505050611d10565b005b600080606060008073__TokenDealerMapping____________________632dc131b260026040518263ffffffff167c01000000000000000000000000000000000000000000000000000000000281526004018082815260200191505060206040518083038186803b1580156105dd57600080fd5b505af41580156105f1573d6000803e3d6000fd5b505050506040513d602081101561060757600080fd5b810190808051906020019092919050505093505b73__TokenDealerMapping____________________634ca101476002866040518363ffffffff167c0100000000000000000000000000000000000000000000000000000000028152600401808381526020018281526020019250505060206040518083038186803b15801561068f57600080fd5b505af41580156106a3573d6000803e3d6000fd5b505050506040513d60208110156106b957600080fd5b8101908080519060200190929190505050156109415773__TokenDealerMapping____________________63c6ae82086002866040518363ffffffff167c0100000000000000000000000000000000000000000000000000000000028152600401808381526020018281526020019250505060006040518083038186803b15801561074357600080fd5b505af4158015610757573d6000803e3d6000fd5b505050506040513d6000823e3d601f19601f82011682018060405250604081101561078157600080fd5b81019080805164010000000081111561079957600080fd5b828101905060208101848111156107af57600080fd5b81518560018202830111640100000000821117156107cc57600080fd5b505092919060200180519060200190929190505050925092508190508073ffffffffffffffffffffffffffffffffffffffff166318160ddd6040518163ffffffff167c0100000000000000000000000000000000000000000000000000000000028152600401602060405180830381600087803b15801561084c57600080fd5b505af1158015610860573d6000803e3d6000fd5b505050506040513d602081101561087657600080fd5b81019080805190602001909291905050508501945073__TokenDealerMapping____________________634a84c3996002866040518363ffffffff167c0100000000000000000000000000000000000000000000000000000000028152600401808381526020018281526020019250505060206040518083038186803b1580156108ff57600080fd5b505af4158015610913573d6000803e3d6000fd5b505050506040513d602081101561092957600080fd5b8101908080519060200190929190505050935061061b565b5050505090565b6040805190810160405280600381526020017f657468000000000000000000000000000000000000000000000000000000000081525081565b60008082600073ffffffffffffffffffffffffffffffffffffffff168173ffffffffffffffffffffffffffffffffffffffff16141515610e8b576005546109c7826114ec565b101515156109d457600080fd5b6002600001866040518082805190602001908083835b602083101515610a0f57805182526020820191506020810190506020830392506109ea565b6001836020036101000a038019825116818451168082178552505050505050905001915050908152602001604051809103902060010160009054906101000a900473ffffffffffffffffffffffffffffffffffffffff169150600073ffffffffffffffffffffffffffffffffffffffff168273ffffffffffffffffffffffffffffffffffffffff1614151515610aa457600080fd5b600073__StringUtils___________________________633a96fdd7886040805190810160405280600381526020017f65746800000000000000000000000000000000000000000000000000000000008152506040518363ffffffff167c0100000000000000000000000000000000000000000000000000000000028152600401808060200180602001838103835285818151815260200191508051906020019080838360005b83811015610b66578082015181840152602081019050610b4b565b50505050905090810190601f168015610b935780820380516001836020036101000a031916815260200191505b50838103825284818151815260200191508051906020019080838360005b83811015610bcc578082015181840152602081019050610bb1565b50505050905090810190601f168015610bf95780820380516001836020036101000a031916815260200191505b5094505050505060206040518083038186803b158015610c1857600080fd5b505af4158015610c2c573d6000803e3d6000fd5b505050506040513d6020811015610c4257600080fd5b81019080805190602001909291905050501415610d72578173ffffffffffffffffffffffffffffffffffffffff1663db61c76e343334886040518563ffffffff167c0100000000000000000000000000000000000000000000000000000000028152600401808473ffffffffffffffffffffffffffffffffffffffff1673ffffffffffffffffffffffffffffffffffffffff1681526020018381526020018273ffffffffffffffffffffffffffffffffffffffff1673ffffffffffffffffffffffffffffffffffffffff16815260200193505050506020604051808303818588803b158015610d3057600080fd5b505af1158015610d44573d6000803e3d6000fd5b50505050506040513d6020811015610d5b57600080fd5b810190808051906020019092919050505050610e86565b8173ffffffffffffffffffffffffffffffffffffffff1663db61c76e3387876040518463ffffffff167c0100000000000000000000000000000000000000000000000000000000028152600401808473ffffffffffffffffffffffffffffffffffffffff1673ffffffffffffffffffffffffffffffffffffffff1681526020018381526020018273ffffffffffffffffffffffffffffffffffffffff1673ffffffffffffffffffffffffffffffffffffffff1681526020019350505050602060405180830381600087803b158015610e4957600080fd5b505af1158015610e5d573d6000803e3d6000fd5b505050506040513d6020811015610e7357600080fd5b8101908080519060200190929190505050505b61133e565b6002600001866040518082805190602001908083835b602083101515610ec65780518252602082019150602081019050602083039250610ea1565b6001836020036101000a038019825116818451168082178552505050505050905001915050908152602001604051809103902060010160009054906101000a900473ffffffffffffffffffffffffffffffffffffffff169150600073ffffffffffffffffffffffffffffffffffffffff168273ffffffffffffffffffffffffffffffffffffffff1614151515610f5b57600080fd5b600073__StringUtils___________________________633a96fdd7886040805190810160405280600381526020017f65746800000000000000000000000000000000000000000000000000000000008152506040518363ffffffff167c0100000000000000000000000000000000000000000000000000000000028152600401808060200180602001838103835285818151815260200191508051906020019080838360005b8381101561101d578082015181840152602081019050611002565b50505050905090810190601f16801561104a5780820380516001836020036101000a031916815260200191505b50838103825284818151815260200191508051906020019080838360005b83811015611083578082015181840152602081019050611068565b50505050905090810190601f1680156110b05780820380516001836020036101000a031916815260200191505b5094505050505060206040518083038186803b1580156110cf57600080fd5b505af41580156110e3573d6000803e3d6000fd5b505050506040513d60208110156110f957600080fd5b81019080805190602001909291905050501415611229578173ffffffffffffffffffffffffffffffffffffffff1663db61c76e343334886040518563ffffffff167c0100000000000000000000000000000000000000000000000000000000028152600401808473ffffffffffffffffffffffffffffffffffffffff1673ffffffffffffffffffffffffffffffffffffffff1681526020018381526020018273ffffffffffffffffffffffffffffffffffffffff1673ffffffffffffffffffffffffffffffffffffffff16815260200193505050506020604051808303818588803b1580156111e757600080fd5b505af11580156111fb573d6000803e3d6000fd5b50505050506040513d602081101561121257600080fd5b81019080805190602001909291905050505061133d565b8173ffffffffffffffffffffffffffffffffffffffff1663db61c76e3387876040518463ffffffff167c0100000000000000000000000000000000000000000000000000000000028152600401808473ffffffffffffffffffffffffffffffffffffffff1673ffffffffffffffffffffffffffffffffffffffff1681526020018381526020018273ffffffffffffffffffffffffffffffffffffffff1673ffffffffffffffffffffffffffffffffffffffff1681526020019350505050602060405180830381600087803b15801561130057600080fd5b505af1158015611314573d6000803e3d6000fd5b505050506040513d602081101561132a57600080fd5b8101908080519060200190929190505050505b5b50509392505050565b600160009054906101000a900473ffffffffffffffffffffffffffffffffffffffff1673ffffffffffffffffffffffffffffffffffffffff163373ffffffffffffffffffffffffffffffffffffffff161415156113a357600080fd5b600160009054906101000a900473ffffffffffffffffffffffffffffffffffffffff1673ffffffffffffffffffffffffffffffffffffffff166000809054906101000a900473ffffffffffffffffffffffffffffffffffffffff1673ffffffffffffffffffffffffffffffffffffffff167f8be0079c531659141344cd1fd0a4f28419497f9722a3daafe3b4186f6b6457e060405160405180910390a3600160009054906101000a900473ffffffffffffffffffffffffffffffffffffffff166000806101000a81548173ffffffffffffffffffffffffffffffffffffffff021916908373ffffffffffffffffffffffffffffffffffffffff1602179055506000600160006101000a81548173ffffffffffffffffffffffffffffffffffffffff021916908373ffffffffffffffffffffffffffffffffffffffff160217905550565b60055481565b600080606060008073__TokenDealerMapping____________________632dc131b260026040518263ffffffff167c01000000000000000000000000000000000000000000000000000000000281526004018082815260200191505060206040518083038186803b15801561156057600080fd5b505af4158015611574573d6000803e3d6000fd5b505050506040513d602081101561158a57600080fd5b810190808051906020019092919050505093505b73__TokenDealerMapping____________________634ca101476002866040518363ffffffff167c0100000000000000000000000000000000000000000000000000000000028152600401808381526020018281526020019250505060206040518083038186803b15801561161257600080fd5b505af4158015611626573d6000803e3d6000fd5b505050506040513d602081101561163c57600080fd5b8101908080519060200190929190505050156118fb5773__TokenDealerMapping____________________63c6ae82086002866040518363ffffffff167c0100000000000000000000000000000000000000000000000000000000028152600401808381526020018281526020019250505060006040518083038186803b1580156116c657600080fd5b505af41580156116da573d6000803e3d6000fd5b505050506040513d6000823e3d601f19601f82011682018060405250604081101561170457600080fd5b81019080805164010000000081111561171c57600080fd5b8281019050602081018481111561173257600080fd5b815185600182028301116401000000008211171561174f57600080fd5b505092919060200180519060200190929190505050925092508190508073ffffffffffffffffffffffffffffffffffffffff166370a08231876040518263ffffffff167c0100000000000000000000000000000000000000000000000000000000028152600401808273ffffffffffffffffffffffffffffffffffffffff1673ffffffffffffffffffffffffffffffffffffffff168152602001915050602060405180830381600087803b15801561180657600080fd5b505af115801561181a573d6000803e3d6000fd5b505050506040513d602081101561183057600080fd5b81019080805190602001909291905050508501945073__TokenDealerMapping____________________634a84c3996002866040518363ffffffff167c0100000000000000000000000000000000000000000000000000000000028152600401808381526020018281526020019250505060206040518083038186803b1580156118b957600080fd5b505af41580156118cd573d6000803e3d6000fd5b505050506040513d60208110156118e357600080fd5b8101908080519060200190929190505050935061159e565b50505050919050565b6000809054906101000a900473ffffffffffffffffffffffffffffffffffffffff1673ffffffffffffffffffffffffffffffffffffffff163373ffffffffffffffffffffffffffffffffffffffff1614151561195f57600080fd5b6000809054906101000a900473ffffffffffffffffffffffffffffffffffffffff1673ffffffffffffffffffffffffffffffffffffffff167ff8df31144d9c2f0f6b59d69b8b98abd5459d07f2742c4df920b25aae33c6482060405160405180910390a260008060006101000a81548173ffffffffffffffffffffffffffffffffffffffff021916908373ffffffffffffffffffffffffffffffffffffffff160217905550565b6000809054906101000a900473ffffffffffffffffffffffffffffffffffffffff1673ffffffffffffffffffffffffffffffffffffffff163373ffffffffffffffffffffffffffffffffffffffff16141515611a6157600080fd5b8060058190555050565b6000809054906101000a900473ffffffffffffffffffffffffffffffffffffffff1681565b60006002600001826040518082805190602001908083835b602083101515611acd5780518252602082019150602081019050602083039250611aa8565b6001836020036101000a038019825116818451168082178552505050505050905001915050908152602001604051809103902060010160009054906101000a900473ffffffffffffffffffffffffffffffffffffffff169050919050565b60008060009054906101000a900473ffffffffffffffffffffffffffffffffffffffff1673ffffffffffffffffffffffffffffffffffffffff163373ffffffffffffffffffffffffffffffffffffffff16141515611b8857600080fd5b73__TokenDealerMapping____________________63d3a54b0a600285856040518463ffffffff167c010000000000000000000000000000000000000000000000000000000002815260040180848152602001806020018373ffffffffffffffffffffffffffffffffffffffff1673ffffffffffffffffffffffffffffffffffffffff168152602001828103825284818151815260200191508051906020019080838360005b83811015611c49578082015181840152602081019050611c2e565b50505050905090810190601f168015611c765780820380516001836020036101000a031916815260200191505b5094505050505060206040518083038186803b158015611c9557600080fd5b505af4158015611ca9573d6000803e3d6000fd5b505050506040513d6020811015611cbf57600080fd5b8101908080519060200190929190505050506002800154905092915050565b60006002800154905090565b600160009054906101000a900473ffffffffffffffffffffffffffffffffffffffff1681565b6000809054906101000a900473ffffffffffffffffffffffffffffffffffffffff1673ffffffffffffffffffffffffffffffffffffffff163373ffffffffffffffffffffffffffffffffffffffff16141515611d6b57600080fd5b80600160006101000a81548173ffffffffffffffffffffffffffffffffffffffff021916908373ffffffffffffffffffffffffffffffffffffffff160217905550505600a165627a7a72305820ea6c339fc28206608bf3d4ebc49475a7cba20ca7d208be03287528e76e3911cb0029",
  "source": "pragma solidity ^0.4.24;\r\n\r\n\r\nimport \"zeppelin-solidity/contracts/ownership/Claimable.sol\";\r\nimport \"../contracts/interface/TokenDealerInterface.sol\";\r\nimport \"../contracts/library/TokenDealerMapping.sol\";\r\nimport \"../contracts/library/StringUtils.sol\";\r\n\r\n\r\ncontract S3DProtocol is Claimable{\r\n\r\n    TokenDealerMapping.itmap tokenDealerMap;\r\n\r\n    // proof of stake (defaults at 100 tokens)\r\n    uint256 public stakingRequirement = 100e18;\r\n\r\n    string constant public ethSymbol = \"eth\";\r\n\r\n    function addDealer(string symbol, address dealerAddress) public onlyOwner returns (uint size) {\r\n        TokenDealerMapping.insert(tokenDealerMap, symbol, dealerAddress);\r\n        return tokenDealerMap.size;\r\n    }\r\n\r\n    function getDealer(string symbol) public view returns (address) {\r\n        return tokenDealerMap.data[symbol].value;\r\n    }\r\n\r\n    function getSize() public view returns (uint) {\r\n        return tokenDealerMap.size;\r\n    }\r\n\r\n    function setStakingRequirement(uint256 _amountOfTokens) onlyOwner() public\r\n    {\r\n        stakingRequirement = _amountOfTokens;\r\n    }\r\n    \r\n\r\n    function totalSupply() public view returns (uint256 sum) \r\n    {\r\n        for (var i = TokenDealerMapping.iterate_start(tokenDealerMap); TokenDealerMapping.iterate_valid(tokenDealerMap, i); i = TokenDealerMapping.iterate_next(tokenDealerMap, i))\r\n        {\r\n            var (key, value) = TokenDealerMapping.iterate_get(tokenDealerMap, i);\r\n            TokenDealerInterface dealerContract = TokenDealerInterface(value);\r\n            sum += dealerContract.totalSupply();\r\n        }\r\n    }\r\n\r\n    //add all s3d\r\n    function balanceOf(address _customerAddress) view public returns (uint256 sum) \r\n    {\r\n        for (var i = TokenDealerMapping.iterate_start(tokenDealerMap); TokenDealerMapping.iterate_valid(tokenDealerMap, i); i = TokenDealerMapping.iterate_next(tokenDealerMap, i))\r\n        {\r\n            var (key, value) = TokenDealerMapping.iterate_get(tokenDealerMap, i);\r\n            TokenDealerInterface dealerContract = TokenDealerInterface(value);\r\n            sum += dealerContract.balanceOf(_customerAddress);\r\n        }\r\n    }\r\n\r\n    modifier referralBarrier(address _referredBy){\r\n \r\n        // are we still in the vulnerable phase?\r\n        // if so, enact anti early whale protocol \r\n        if( _referredBy != address(0)){\r\n            require(balanceOf(_referredBy) >= stakingRequirement);\r\n            \r\n            // execute\r\n            _;\r\n        } else {\r\n\r\n            _;    \r\n        }\r\n        \r\n    }\r\n\r\n    function buy(string symbol, uint256 _tokenAmount, address _referredBy)\r\n        referralBarrier(_referredBy)\r\n        public\r\n        payable\r\n        returns(uint256)\r\n    {\r\n        TokenDealerInterface dealerContract = TokenDealerInterface(tokenDealerMap.data[symbol].value);\r\n        require(dealerContract != address(0));\r\n        if(StringUtils.compare(symbol, ethSymbol) == 0) {\r\n            dealerContract.buy.value(msg.value)(msg.sender, msg.value, _referredBy);\r\n        } else {\r\n            dealerContract.buy(msg.sender, _tokenAmount, _referredBy);\r\n        }\r\n    }\r\n\r\n}",
  "sourcePath": "D:\\work\\truffle\\s3d\\contracts\\S3DProtocol.sol",
  "compiler": {
    "name": "solc",
    "version": "0.4.24+commit.e67f0147.Emscripten.clang"
  },
  "schemaVersion": "2.0.1",
  "updatedAt": "2018-08-14T10:44:16.617Z"
}