{
  "contractName": "SeeleDealer",
  "abi": [
    {
      "constant": true,
      "inputs": [],
      "name": "name",
      "outputs": [
        {
          "name": "",
          "type": "string"
        }
      ],
      "payable": false,
      "stateMutability": "view",
      "type": "function"
    },
    {
      "constant": true,
      "inputs": [],
      "name": "onlyAmbassadors",
      "outputs": [
        {
          "name": "",
          "type": "bool"
        }
      ],
      "payable": false,
      "stateMutability": "view",
      "type": "function"
    },
    {
      "constant": true,
      "inputs": [],
      "name": "decimals",
      "outputs": [
        {
          "name": "",
          "type": "uint8"
        }
      ],
      "payable": false,
      "stateMutability": "view",
      "type": "function"
    },
    {
      "constant": false,
      "inputs": [],
      "name": "claimOwnership",
      "outputs": [],
      "payable": false,
      "stateMutability": "nonpayable",
      "type": "function"
    },
    {
      "constant": true,
      "inputs": [],
      "name": "stakingRequirement",
      "outputs": [
        {
          "name": "",
          "type": "uint256"
        }
      ],
      "payable": false,
      "stateMutability": "view",
      "type": "function"
    },
    {
      "constant": false,
      "inputs": [],
      "name": "renounceOwnership",
      "outputs": [],
      "payable": false,
      "stateMutability": "nonpayable",
      "type": "function"
    },
    {
      "constant": true,
      "inputs": [],
      "name": "owner",
      "outputs": [
        {
          "name": "",
          "type": "address"
        }
      ],
      "payable": false,
      "stateMutability": "view",
      "type": "function"
    },
    {
      "constant": true,
      "inputs": [],
      "name": "symbol",
      "outputs": [
        {
          "name": "",
          "type": "string"
        }
      ],
      "payable": false,
      "stateMutability": "view",
      "type": "function"
    },
    {
      "constant": true,
      "inputs": [
        {
          "name": "",
          "type": "address"
        }
      ],
      "name": "authorizedAddressInfos",
      "outputs": [
        {
          "name": "",
          "type": "bool"
        }
      ],
      "payable": false,
      "stateMutability": "view",
      "type": "function"
    },
    {
      "constant": true,
      "inputs": [],
      "name": "pendingOwner",
      "outputs": [
        {
          "name": "",
          "type": "address"
        }
      ],
      "payable": false,
      "stateMutability": "view",
      "type": "function"
    },
    {
      "constant": false,
      "inputs": [
        {
          "name": "newOwner",
          "type": "address"
        }
      ],
      "name": "transferOwnership",
      "outputs": [],
      "payable": false,
      "stateMutability": "nonpayable",
      "type": "function"
    },
    {
      "constant": true,
      "inputs": [],
      "name": "seeleTokenAddress",
      "outputs": [
        {
          "name": "",
          "type": "address"
        }
      ],
      "payable": false,
      "stateMutability": "view",
      "type": "function"
    },
    {
      "inputs": [],
      "payable": false,
      "stateMutability": "nonpayable",
      "type": "constructor"
    },
    {
      "payable": true,
      "stateMutability": "payable",
      "type": "fallback"
    },
    {
      "anonymous": false,
      "inputs": [
        {
          "indexed": true,
          "name": "customerAddress",
          "type": "address"
        },
        {
          "indexed": false,
          "name": "incomingEthereum",
          "type": "uint256"
        },
        {
          "indexed": false,
          "name": "tokensMinted",
          "type": "uint256"
        },
        {
          "indexed": true,
          "name": "referredBy",
          "type": "address"
        }
      ],
      "name": "onTokenPurchase",
      "type": "event"
    },
    {
      "anonymous": false,
      "inputs": [
        {
          "indexed": true,
          "name": "customerAddress",
          "type": "address"
        },
        {
          "indexed": false,
          "name": "tokensBurned",
          "type": "uint256"
        },
        {
          "indexed": false,
          "name": "seeleEarned",
          "type": "uint256"
        }
      ],
      "name": "onTokenSell",
      "type": "event"
    },
    {
      "anonymous": false,
      "inputs": [
        {
          "indexed": true,
          "name": "customerAddress",
          "type": "address"
        },
        {
          "indexed": false,
          "name": "tokensBurned",
          "type": "uint256"
        },
        {
          "indexed": false,
          "name": "seeleEarned",
          "type": "uint256"
        }
      ],
      "name": "onTokenSellByProtocol",
      "type": "event"
    },
    {
      "anonymous": false,
      "inputs": [
        {
          "indexed": true,
          "name": "customerAddress",
          "type": "address"
        },
        {
          "indexed": false,
          "name": "ethereumReinvested",
          "type": "uint256"
        },
        {
          "indexed": false,
          "name": "tokensMinted",
          "type": "uint256"
        }
      ],
      "name": "onReinvestment",
      "type": "event"
    },
    {
      "anonymous": false,
      "inputs": [
        {
          "indexed": true,
          "name": "customerAddress",
          "type": "address"
        },
        {
          "indexed": false,
          "name": "ethereumWithdrawn",
          "type": "uint256"
        }
      ],
      "name": "onWithdraw",
      "type": "event"
    },
    {
      "anonymous": false,
      "inputs": [
        {
          "indexed": true,
          "name": "customerAddress",
          "type": "address"
        },
        {
          "indexed": false,
          "name": "tokensEscaped",
          "type": "uint256"
        }
      ],
      "name": "onTokenEscape",
      "type": "event"
    },
    {
      "anonymous": false,
      "inputs": [
        {
          "indexed": true,
          "name": "customerAddress",
          "type": "address"
        },
        {
          "indexed": false,
          "name": "tokensBurned",
          "type": "uint256"
        },
        {
          "indexed": false,
          "name": "ethereumEarned",
          "type": "uint256"
        }
      ],
      "name": "onTokenArbitrage",
      "type": "event"
    },
    {
      "anonymous": false,
      "inputs": [
        {
          "indexed": true,
          "name": "from",
          "type": "address"
        },
        {
          "indexed": true,
          "name": "to",
          "type": "address"
        },
        {
          "indexed": false,
          "name": "tokens",
          "type": "uint256"
        }
      ],
      "name": "Transfer",
      "type": "event"
    },
    {
      "anonymous": false,
      "inputs": [
        {
          "indexed": true,
          "name": "previousOwner",
          "type": "address"
        }
      ],
      "name": "OwnershipRenounced",
      "type": "event"
    },
    {
      "anonymous": false,
      "inputs": [
        {
          "indexed": true,
          "name": "previousOwner",
          "type": "address"
        },
        {
          "indexed": true,
          "name": "newOwner",
          "type": "address"
        }
      ],
      "name": "OwnershipTransferred",
      "type": "event"
    },
    {
      "constant": false,
      "inputs": [
        {
          "name": "seeleAmount",
          "type": "uint256"
        },
        {
          "name": "_referredBy",
          "type": "address"
        }
      ],
      "name": "buy",
      "outputs": [
        {
          "name": "",
          "type": "uint256"
        }
      ],
      "payable": true,
      "stateMutability": "payable",
      "type": "function"
    },
    {
      "constant": false,
      "inputs": [],
      "name": "reinvest",
      "outputs": [],
      "payable": false,
      "stateMutability": "nonpayable",
      "type": "function"
    },
    {
      "constant": false,
      "inputs": [],
      "name": "exit",
      "outputs": [],
      "payable": false,
      "stateMutability": "nonpayable",
      "type": "function"
    },
    {
      "constant": false,
      "inputs": [],
      "name": "withdraw",
      "outputs": [],
      "payable": false,
      "stateMutability": "nonpayable",
      "type": "function"
    },
    {
      "constant": false,
      "inputs": [
        {
          "name": "_amountOfTokens",
          "type": "uint256"
        }
      ],
      "name": "sell",
      "outputs": [],
      "payable": false,
      "stateMutability": "nonpayable",
      "type": "function"
    },
    {
      "constant": false,
      "inputs": [
        {
          "name": "_toAddress",
          "type": "address"
        },
        {
          "name": "_amountOfTokens",
          "type": "uint256"
        }
      ],
      "name": "transfer",
      "outputs": [
        {
          "name": "",
          "type": "bool"
        }
      ],
      "payable": false,
      "stateMutability": "nonpayable",
      "type": "function"
    },
    {
      "constant": false,
      "inputs": [],
      "name": "disableInitialStage",
      "outputs": [],
      "payable": false,
      "stateMutability": "nonpayable",
      "type": "function"
    },
    {
      "constant": false,
      "inputs": [
        {
          "name": "_name",
          "type": "string"
        }
      ],
      "name": "setName",
      "outputs": [],
      "payable": false,
      "stateMutability": "nonpayable",
      "type": "function"
    },
    {
      "constant": false,
      "inputs": [
        {
          "name": "_symbol",
          "type": "string"
        }
      ],
      "name": "setSymbol",
      "outputs": [],
      "payable": false,
      "stateMutability": "nonpayable",
      "type": "function"
    },
    {
      "constant": true,
      "inputs": [],
      "name": "totalBalance",
      "outputs": [
        {
          "name": "",
          "type": "uint256"
        }
      ],
      "payable": false,
      "stateMutability": "view",
      "type": "function"
    },
    {
      "constant": true,
      "inputs": [],
      "name": "totalSupply",
      "outputs": [
        {
          "name": "",
          "type": "uint256"
        }
      ],
      "payable": false,
      "stateMutability": "view",
      "type": "function"
    },
    {
      "constant": true,
      "inputs": [],
      "name": "myTokens",
      "outputs": [
        {
          "name": "",
          "type": "uint256"
        }
      ],
      "payable": false,
      "stateMutability": "view",
      "type": "function"
    },
    {
      "constant": true,
      "inputs": [
        {
          "name": "_includeReferralBonus",
          "type": "bool"
        }
      ],
      "name": "myDividends",
      "outputs": [
        {
          "name": "",
          "type": "uint256"
        }
      ],
      "payable": false,
      "stateMutability": "view",
      "type": "function"
    },
    {
      "constant": true,
      "inputs": [
        {
          "name": "_customerAddress",
          "type": "address"
        }
      ],
      "name": "balanceOf",
      "outputs": [
        {
          "name": "",
          "type": "uint256"
        }
      ],
      "payable": false,
      "stateMutability": "view",
      "type": "function"
    },
    {
      "constant": true,
      "inputs": [
        {
          "name": "_customerAddress",
          "type": "address"
        }
      ],
      "name": "dividendsOf",
      "outputs": [
        {
          "name": "",
          "type": "uint256"
        }
      ],
      "payable": false,
      "stateMutability": "view",
      "type": "function"
    },
    {
      "constant": true,
      "inputs": [],
      "name": "sellPrice",
      "outputs": [
        {
          "name": "",
          "type": "uint256"
        }
      ],
      "payable": false,
      "stateMutability": "view",
      "type": "function"
    },
    {
      "constant": true,
      "inputs": [],
      "name": "buyPrice",
      "outputs": [
        {
          "name": "",
          "type": "uint256"
        }
      ],
      "payable": false,
      "stateMutability": "view",
      "type": "function"
    },
    {
      "constant": true,
      "inputs": [
        {
          "name": "_seeleToSpend",
          "type": "uint256"
        }
      ],
      "name": "calculateTokensReceived",
      "outputs": [
        {
          "name": "",
          "type": "uint256"
        }
      ],
      "payable": false,
      "stateMutability": "view",
      "type": "function"
    },
    {
      "constant": true,
      "inputs": [
        {
          "name": "_tokensToSell",
          "type": "uint256"
        }
      ],
      "name": "calculateSeeleReceived",
      "outputs": [
        {
          "name": "",
          "type": "uint256"
        }
      ],
      "payable": false,
      "stateMutability": "view",
      "type": "function"
    },
    {
      "constant": false,
      "inputs": [
        {
          "name": "_amountOfTokens",
          "type": "uint256"
        }
      ],
      "name": "escapeTokens",
      "outputs": [
        {
          "name": "",
          "type": "uint256"
        }
      ],
      "payable": false,
      "stateMutability": "nonpayable",
      "type": "function"
    },
    {
      "constant": false,
      "inputs": [
        {
          "name": "sellTokenAddress",
          "type": "address"
        },
        {
          "name": "_amountOfTokens",
          "type": "uint256"
        }
      ],
      "name": "arbitrageTokens",
      "outputs": [],
      "payable": false,
      "stateMutability": "nonpayable",
      "type": "function"
    }
  ],
  "bytecode": "0x60806040526040805190810160405280600981526020017f5365656c652d5333440000000000000000000000000000000000000000000000815250600290805190602001906200005192919062000197565b506040805190810160405280600981526020017f5365656c652d5333440000000000000000000000000000000000000000000000815250600390805190602001906200009f92919062000197565b5068056bc75e2d631000006004556000600d556000600e556000600f556001601160006101000a81548160ff021916908315150217905550348015620000e457600080fd5b50336000806101000a81548173ffffffffffffffffffffffffffffffffffffffff021916908373ffffffffffffffffffffffffffffffffffffffff16021790555060016005600073cd16575a90ed9506bcf44c78845d93f1b647f48c73ffffffffffffffffffffffffffffffffffffffff1673ffffffffffffffffffffffffffffffffffffffff16815260200190815260200160002060006101000a81548160ff02191690831515021790555062000246565b828054600181600116156101000203166002900490600052602060002090601f016020900481019282601f10620001da57805160ff19168380011785556200020b565b828001600101855582156200020b579182015b828111156200020a578251825591602001919060010190620001ed565b5b5090506200021a91906200021e565b5090565b6200024391905b808211156200023f57600081600090555060010162000225565b5090565b90565b61304080620002566000396000f3006080604052600436106101a0576000357c0100000000000000000000000000000000000000000000000000000000900463ffffffff16806265318b146101a257806306fdde03146101f957806310d0ffdd1461028957806318160ddd146102ca57806327defa1f146102f5578063313ce567146103245780633be8eb7e146103555780633ccfd60b146103a25780634b750334146103b95780634e71e0c8146103e457806356d399e8146103fb578063688abbf71461042657806370a0823114610469578063715018a6146104c05780637deb6025146104d75780638620410b1461052b5780638bfa02a6146105565780638d5da963146105975780638da5cb5b146105d8578063949e8acd1461062f57806395d89b411461065a578063a798ec24146106ea578063a8e04f3414610745578063a9059cbb1461075c578063ad7a672f146107c1578063b84c8246146107ec578063c47f002714610855578063e30c3978146108be578063e4849b3214610915578063e9fad8ee14610942578063f2fde38b14610959578063fdb5a03e1461099c578063ff58bf50146109b3575b005b3480156101ae57600080fd5b506101e3600480360381019080803573ffffffffffffffffffffffffffffffffffffffff169060200190929190505050610a0a565b6040518082815260200191505060405180910390f35b34801561020557600080fd5b5061020e610aac565b6040518080602001828103825283818151815260200191508051906020019080838360005b8381101561024e578082015181840152602081019050610233565b50505050905090810190601f16801561027b5780820380516001836020036101000a031916815260200191505b509250505060405180910390f35b34801561029557600080fd5b506102b460048036038101908080359060200190929190505050610b4a565b6040518082815260200191505060405180910390f35b3480156102d657600080fd5b506102df610b82565b6040518082815260200191505060405180910390f35b34801561030157600080fd5b5061030a610b8c565b604051808215151515815260200191505060405180910390f35b34801561033057600080fd5b50610339610b9f565b604051808260ff1660ff16815260200191505060405180910390f35b34801561036157600080fd5b506103a0600480360381019080803573ffffffffffffffffffffffffffffffffffffffff16906020019092919080359060200190929190505050610ba4565b005b3480156103ae57600080fd5b506103b7610ec4565b005b3480156103c557600080fd5b506103ce611114565b6040518082815260200191505060405180910390f35b3480156103f057600080fd5b506103f9611178565b005b34801561040757600080fd5b50610410611317565b6040518082815260200191505060405180910390f35b34801561043257600080fd5b5061045360048036038101908080351515906020019092919050505061131d565b6040518082815260200191505060405180910390f35b34801561047557600080fd5b506104aa600480360381019080803573ffffffffffffffffffffffffffffffffffffffff169060200190929190505050611389565b6040518082815260200191505060405180910390f35b3480156104cc57600080fd5b506104d56113d2565b005b61051560048036038101908080359060200190929190803573ffffffffffffffffffffffffffffffffffffffff1690602001909291905050506114d4565b6040518082815260200191505060405180910390f35b34801561053757600080fd5b50610540611618565b6040518082815260200191505060405180910390f35b34801561056257600080fd5b506105816004803603810190808035906020019092919050505061167c565b6040518082815260200191505060405180910390f35b3480156105a357600080fd5b506105c2600480360381019080803590602001909291905050506118c3565b6040518082815260200191505060405180910390f35b3480156105e457600080fd5b506105ed61190c565b604051808273ffffffffffffffffffffffffffffffffffffffff1673ffffffffffffffffffffffffffffffffffffffff16815260200191505060405180910390f35b34801561063b57600080fd5b50610644611931565b6040518082815260200191505060405180910390f35b34801561066657600080fd5b5061066f611946565b6040518080602001828103825283818151815260200191508051906020019080838360005b838110156106af578082015181840152602081019050610694565b50505050905090810190601f1680156106dc5780820380516001836020036101000a031916815260200191505b509250505060405180910390f35b3480156106f657600080fd5b5061072b600480360381019080803573ffffffffffffffffffffffffffffffffffffffff1690602001909291905050506119e4565b604051808215151515815260200191505060405180910390f35b34801561075157600080fd5b5061075a611a04565b005b34801561076857600080fd5b506107a7600480360381019080803573ffffffffffffffffffffffffffffffffffffffff16906020019092919080359060200190929190505050611a7c565b604051808215151515815260200191505060405180910390f35b3480156107cd57600080fd5b506107d6611dae565b6040518082815260200191505060405180910390f35b3480156107f857600080fd5b50610853600480360381019080803590602001908201803590602001908080601f0160208091040260200160405190810160405280939291908181526020018383808284378201915050505050509192919290505050611e9f565b005b34801561086157600080fd5b506108bc600480360381019080803590602001908201803590602001908080601f0160208091040260200160405190810160405280939291908181526020018383808284378201915050505050509192919290505050611f14565b005b3480156108ca57600080fd5b506108d3611f89565b604051808273ffffffffffffffffffffffffffffffffffffffff1673ffffffffffffffffffffffffffffffffffffffff16815260200191505060405180910390f35b34801561092157600080fd5b5061094060048036038101908080359060200190929190505050611faf565b005b34801561094e57600080fd5b506109576121e5565b005b34801561096557600080fd5b5061099a600480360381019080803573ffffffffffffffffffffffffffffffffffffffff16906020019092919050505061224c565b005b3480156109a857600080fd5b506109b16122eb565b005b3480156109bf57600080fd5b506109c861245f565b604051808273ffffffffffffffffffffffffffffffffffffffff1673ffffffffffffffffffffffffffffffffffffffff16815260200191505060405180910390f35b600068010000000000000000600960008473ffffffffffffffffffffffffffffffffffffffff1673ffffffffffffffffffffffffffffffffffffffff16815260200190815260200160002054600760008573ffffffffffffffffffffffffffffffffffffffff1673ffffffffffffffffffffffffffffffffffffffff168152602001908152602001600020546010540203811515610aa457fe5b049050919050565b60028054600181600116156101000203166002900480601f016020809104026020016040519081016040528092919081815260200182805460018160011615610100020316600290048015610b425780601f10610b1757610100808354040283529160200191610b42565b820191906000526020600020905b815481529060010190602001808311610b2557829003601f168201915b505050505081565b600080600080610b5e85600a60ff16612477565b9250610b6a858461248d565b9150610b75826124a6565b9050809350505050919050565b6000600d54905090565b601160009054906101000a900460ff1681565b601281565b60008060008060008060003396508895508573ffffffffffffffffffffffffffffffffffffffff16638bfa02a6896040518263ffffffff167c010000000000000000000000000000000000000000000000000000000002815260040180828152602001915050602060405180830381600087803b158015610c2457600080fd5b505af1158015610c38573d6000803e3d6000fd5b505050506040513d6020811015610c4e57600080fd5b810190808051906020019092919050505094508785141515610c6f57600080fd5b610c7885612530565b9350610c8884600a60ff16612477565b9250610c94848461248d565b9150610ca2600f54866125e4565b600f81905550610cf1600c60008973ffffffffffffffffffffffffffffffffffffffff1673ffffffffffffffffffffffffffffffffffffffff16815260200190815260200160002054866125e4565b600c60008973ffffffffffffffffffffffffffffffffffffffff1673ffffffffffffffffffffffffffffffffffffffff16815260200190815260200160002081905550610d3c612600565b90506000811115610d7057610d6960105482680100000000000000008602811515610d6357fe5b046125e4565b6010819055505b7347879ac781938cffd879392cd2164b9f7306188a73ffffffffffffffffffffffffffffffffffffffff1663a9059cbb33846040518363ffffffff167c0100000000000000000000000000000000000000000000000000000000028152600401808373ffffffffffffffffffffffffffffffffffffffff1673ffffffffffffffffffffffffffffffffffffffff16815260200182815260200192505050602060405180830381600087803b158015610e2757600080fd5b505af1158015610e3b573d6000803e3d6000fd5b505050506040513d6020811015610e5157600080fd5b8101908080519060200190929190505050508673ffffffffffffffffffffffffffffffffffffffff167fe9d4fb0074327a194c752e06c8b2fce4a89cd86202090528bb81582a3f20fedd8684604051808381526020018281526020019250505060405180910390a2505050505050505050565b6000806000610ed3600161131d565b111515610edf57600080fd5b339150610eec600061131d565b9050680100000000000000008102600960008473ffffffffffffffffffffffffffffffffffffffff1673ffffffffffffffffffffffffffffffffffffffff16815260200190815260200160002060008282540192505081905550600860008373ffffffffffffffffffffffffffffffffffffffff1673ffffffffffffffffffffffffffffffffffffffff16815260200190815260200160002054810190506000600860008473ffffffffffffffffffffffffffffffffffffffff1673ffffffffffffffffffffffffffffffffffffffff168152602001908152602001600020819055507347879ac781938cffd879392cd2164b9f7306188a73ffffffffffffffffffffffffffffffffffffffff1663a9059cbb33836040518363ffffffff167c0100000000000000000000000000000000000000000000000000000000028152600401808373ffffffffffffffffffffffffffffffffffffffff1673ffffffffffffffffffffffffffffffffffffffff16815260200182815260200192505050602060405180830381600087803b15801561108657600080fd5b505af115801561109a573d6000803e3d6000fd5b505050506040513d60208110156110b057600080fd5b8101908080519060200190929190505050508173ffffffffffffffffffffffffffffffffffffffff167fccad973dcd043c7d680389db4378bd6b9775db7124092e9e0422c9e46d7985dc826040518082815260200191505060405180910390a25050565b6000806000806000600d54141561113f57670de0b6b3a7640000678ac7230489e80000039350611172565b611150670de0b6b3a7640000612530565b925061116083600a60ff16612477565b915061116c838361248d565b90508093505b50505090565b600160009054906101000a900473ffffffffffffffffffffffffffffffffffffffff1673ffffffffffffffffffffffffffffffffffffffff163373ffffffffffffffffffffffffffffffffffffffff161415156111d457600080fd5b600160009054906101000a900473ffffffffffffffffffffffffffffffffffffffff1673ffffffffffffffffffffffffffffffffffffffff166000809054906101000a900473ffffffffffffffffffffffffffffffffffffffff1673ffffffffffffffffffffffffffffffffffffffff167f8be0079c531659141344cd1fd0a4f28419497f9722a3daafe3b4186f6b6457e060405160405180910390a3600160009054906101000a900473ffffffffffffffffffffffffffffffffffffffff166000806101000a81548173ffffffffffffffffffffffffffffffffffffffff021916908373ffffffffffffffffffffffffffffffffffffffff1602179055506000600160006101000a81548173ffffffffffffffffffffffffffffffffffffffff021916908373ffffffffffffffffffffffffffffffffffffffff160217905550565b60045481565b600080339050826113365761133181610a0a565b611381565b600860008273ffffffffffffffffffffffffffffffffffffffff1673ffffffffffffffffffffffffffffffffffffffff1681526020019081526020016000205461137f82610a0a565b015b915050919050565b6000600760008373ffffffffffffffffffffffffffffffffffffffff1673ffffffffffffffffffffffffffffffffffffffff168152602001908152602001600020549050919050565b6000809054906101000a900473ffffffffffffffffffffffffffffffffffffffff1673ffffffffffffffffffffffffffffffffffffffff163373ffffffffffffffffffffffffffffffffffffffff1614151561142d57600080fd5b6000809054906101000a900473ffffffffffffffffffffffffffffffffffffffff1673ffffffffffffffffffffffffffffffffffffffff167ff8df31144d9c2f0f6b59d69b8b98abd5459d07f2742c4df920b25aae33c6482060405160405180910390a260008060006101000a81548173ffffffffffffffffffffffffffffffffffffffff021916908373ffffffffffffffffffffffffffffffffffffffff160217905550565b60007347879ac781938cffd879392cd2164b9f7306188a73ffffffffffffffffffffffffffffffffffffffff166323b872dd3330866040518463ffffffff167c0100000000000000000000000000000000000000000000000000000000028152600401808473ffffffffffffffffffffffffffffffffffffffff1673ffffffffffffffffffffffffffffffffffffffff1681526020018373ffffffffffffffffffffffffffffffffffffffff1673ffffffffffffffffffffffffffffffffffffffff1681526020018281526020019350505050602060405180830381600087803b1580156115c157600080fd5b505af11580156115d5573d6000803e3d6000fd5b505050506040513d60208110156115eb57600080fd5b8101908080519060200190929190505050151561160757600080fd5b611611838361260e565b5092915050565b6000806000806000600d54141561164357670de0b6b3a7640000678ac7230489e80000019350611676565b611654670de0b6b3a7640000612530565b925061166483600a60ff16612477565b915061167083836125e4565b90508093505b50505090565b600080600080600061168c611931565b11151561169857600080fd5b339250600760008473ffffffffffffffffffffffffffffffffffffffff1673ffffffffffffffffffffffffffffffffffffffff1681526020019081526020016000205485111515156116e957600080fd5b8491506116f8600e54836125e4565b600e81905550611747600760008573ffffffffffffffffffffffffffffffffffffffff1673ffffffffffffffffffffffffffffffffffffffff168152602001908152602001600020548361248d565b600760008573ffffffffffffffffffffffffffffffffffffffff1673ffffffffffffffffffffffffffffffffffffffff168152602001908152602001600020819055506117d3600b60008573ffffffffffffffffffffffffffffffffffffffff1673ffffffffffffffffffffffffffffffffffffffff16815260200190815260200160002054836125e4565b600b60008573ffffffffffffffffffffffffffffffffffffffff1673ffffffffffffffffffffffffffffffffffffffff168152602001908152602001600020819055508160105402905080600960008573ffffffffffffffffffffffffffffffffffffffff1673ffffffffffffffffffffffffffffffffffffffff168152602001908152602001600020600082825403925050819055508273ffffffffffffffffffffffffffffffffffffffff167ff442d356b73f85e354ab3e2be58a493fbcbfc105e75bd7cef5c6d1882bd20715836040518082815260200191505060405180910390a2819350505050919050565b600080600080600d5485111515156118da57600080fd5b6118e385612530565b92506118f383600a60ff16612477565b91506118ff838361248d565b9050809350505050919050565b6000809054906101000a900473ffffffffffffffffffffffffffffffffffffffff1681565b60008033905061194081611389565b91505090565b60038054600181600116156101000203166002900480601f0160208091040260200160405190810160405280929190818152602001828054600181600116156101000203166002900480156119dc5780601f106119b1576101008083540402835291602001916119dc565b820191906000526020600020905b8154815290600101906020018083116119bf57829003601f168201915b505050505081565b60066020528060005260406000206000915054906101000a900460ff1681565b6000809054906101000a900473ffffffffffffffffffffffffffffffffffffffff1673ffffffffffffffffffffffffffffffffffffffff163373ffffffffffffffffffffffffffffffffffffffff16141515611a5f57600080fd5b6000601160006101000a81548160ff021916908315150217905550565b600080600080600080611a8d611931565b111515611a9957600080fd5b339350601160009054906101000a900460ff16158015611af85750600760008573ffffffffffffffffffffffffffffffffffffffff1673ffffffffffffffffffffffffffffffffffffffff168152602001908152602001600020548611155b1515611b0357600080fd5b6000611b0f600161131d565b1115611b1e57611b1d610ec4565b5b611b2c86600a60ff16612477565b9250611b38868461248d565b9150611b4383612530565b9050611b51600d548461248d565b600d81905550611ba0600760008673ffffffffffffffffffffffffffffffffffffffff1673ffffffffffffffffffffffffffffffffffffffff168152602001908152602001600020548761248d565b600760008673ffffffffffffffffffffffffffffffffffffffff1673ffffffffffffffffffffffffffffffffffffffff16815260200190815260200160002081905550611c2c600760008973ffffffffffffffffffffffffffffffffffffffff1673ffffffffffffffffffffffffffffffffffffffff16815260200190815260200160002054836125e4565b600760008973ffffffffffffffffffffffffffffffffffffffff1673ffffffffffffffffffffffffffffffffffffffff168152602001908152602001600020819055508560105402600960008673ffffffffffffffffffffffffffffffffffffffff1673ffffffffffffffffffffffffffffffffffffffff168152602001908152602001600020600082825403925050819055508160105402600960008973ffffffffffffffffffffffffffffffffffffffff1673ffffffffffffffffffffffffffffffffffffffff16815260200190815260200160002060008282540192505081905550611d35601054600d54680100000000000000008402811515611d2f57fe5b046125e4565b6010819055508673ffffffffffffffffffffffffffffffffffffffff168473ffffffffffffffffffffffffffffffffffffffff167fddf252ad1be2c89b69c2b068fc378daa952ba7f163c4a11628f55a4df523b3ef846040518082815260200191505060405180910390a3600194505050505092915050565b60007347879ac781938cffd879392cd2164b9f7306188a73ffffffffffffffffffffffffffffffffffffffff166370a08231306040518263ffffffff167c0100000000000000000000000000000000000000000000000000000000028152600401808273ffffffffffffffffffffffffffffffffffffffff1673ffffffffffffffffffffffffffffffffffffffff168152602001915050602060405180830381600087803b158015611e5f57600080fd5b505af1158015611e73573d6000803e3d6000fd5b505050506040513d6020811015611e8957600080fd5b8101908080519060200190929190505050905090565b6000809054906101000a900473ffffffffffffffffffffffffffffffffffffffff1673ffffffffffffffffffffffffffffffffffffffff163373ffffffffffffffffffffffffffffffffffffffff16141515611efa57600080fd5b8060039080519060200190611f10929190612f6f565b5050565b6000809054906101000a900473ffffffffffffffffffffffffffffffffffffffff1673ffffffffffffffffffffffffffffffffffffffff163373ffffffffffffffffffffffffffffffffffffffff16141515611f6f57600080fd5b8060029080519060200190611f85929190612f6f565b5050565b600160009054906101000a900473ffffffffffffffffffffffffffffffffffffffff1681565b600080600080600080600080611fc3611931565b111515611fcf57600080fd5b339650600760008873ffffffffffffffffffffffffffffffffffffffff1673ffffffffffffffffffffffffffffffffffffffff16815260200190815260200160002054881115151561202057600080fd5b87955061202c86612530565b945061203c85600a60ff16612477565b9350612048858561248d565b9250612056600d548761248d565b600d819055506120a5600760008973ffffffffffffffffffffffffffffffffffffffff1673ffffffffffffffffffffffffffffffffffffffff168152602001908152602001600020548761248d565b600760008973ffffffffffffffffffffffffffffffffffffffff1673ffffffffffffffffffffffffffffffffffffffff16815260200190815260200160002081905550680100000000000000008302866010540201915081600960008973ffffffffffffffffffffffffffffffffffffffff1673ffffffffffffffffffffffffffffffffffffffff16815260200190815260200160002060008282540392505081905550612151612600565b905060008111156121855761217e6010548268010000000000000000870281151561217857fe5b046125e4565b6010819055505b8673ffffffffffffffffffffffffffffffffffffffff167fc4823739c5787d2ca17e404aa47d5569ae71dfb49cbf21b3f6152ed238a311398785604051808381526020018281526020019250505060405180910390a25050505050505050565b600080339150600760008373ffffffffffffffffffffffffffffffffffffffff1673ffffffffffffffffffffffffffffffffffffffff16815260200190815260200160002054905060008111156122405761223f81611faf565b5b612248610ec4565b5050565b6000809054906101000a900473ffffffffffffffffffffffffffffffffffffffff1673ffffffffffffffffffffffffffffffffffffffff163373ffffffffffffffffffffffffffffffffffffffff161415156122a757600080fd5b80600160006101000a81548173ffffffffffffffffffffffffffffffffffffffff021916908373ffffffffffffffffffffffffffffffffffffffff16021790555050565b6000806000806122fb600161131d565b11151561230757600080fd5b612311600061131d565b9250339150680100000000000000008302600960008473ffffffffffffffffffffffffffffffffffffffff1673ffffffffffffffffffffffffffffffffffffffff16815260200190815260200160002060008282540192505081905550600860008373ffffffffffffffffffffffffffffffffffffffff1673ffffffffffffffffffffffffffffffffffffffff16815260200190815260200160002054830192506000600860008473ffffffffffffffffffffffffffffffffffffffff1673ffffffffffffffffffffffffffffffffffffffff1681526020019081526020016000208190555061240283600061260e565b90508173ffffffffffffffffffffffffffffffffffffffff167fbe339fc14b041c2b0e0f3dd2cd325d0c3668b78378001e53160eab36153264588483604051808381526020018281526020019250505060405180910390a2505050565b7347879ac781938cffd879392cd2164b9f7306188a81565b6000818381151561248457fe5b04905092915050565b600082821115151561249b57fe5b818303905092915050565b600080600080678ac7230489e8000092506124bf612f16565b9150600d54670de0b6b3a7640000612518612512600d5487670de0b6b3a764000060020202026002600d540a6002670de0b6b3a76400000a028a670de0b6b3a76400006002020260028a0a010101612f24565b8661248d565b81151561252157fe5b04039050809350505050919050565b600080600080670de0b6b3a764000085019250670de0b6b3a7640000612554612f16565b019150670de0b6b3a76400006125cd670de0b6b3a76400008503670de0b6b3a7640000808681151561258257fe5b04670de0b6b3a764000002678ac7230489e800000103026002670de0b6b3a7640000876002890a038115156125b357fe5b04670de0b6b3a7640000028115156125c757fe5b0461248d565b8115156125d657fe5b049050809350505050919050565b600081830190508281101515156125f757fe5b80905092915050565b6000600e54600d5403905090565b60008060008060008060008060008a6000339050601160009054906101000a900460ff16801561264a575062030d4082612646611dae565b0311155b15612b3c5760011515600560008373ffffffffffffffffffffffffffffffffffffffff1673ffffffffffffffffffffffffffffffffffffffff16815260200190815260200160002060009054906101000a900460ff1615151480156126f2575061271082600a60008473ffffffffffffffffffffffffffffffffffffffff1673ffffffffffffffffffffffffffffffffffffffff168152602001908152602001600020540111155b15156126fd57600080fd5b612746600a60008373ffffffffffffffffffffffffffffffffffffffff1673ffffffffffffffffffffffffffffffffffffffff16815260200190815260200160002054836125e4565b600a60008373ffffffffffffffffffffffffffffffffffffffff1673ffffffffffffffffffffffffffffffffffffffff1681526020019081526020016000208190555033995061279a8d600a60ff16612477565b98506127a7896003612477565b97506127b3898961248d565b96506127bf8d8a61248d565b95506127ca866124a6565b945068010000000000000000870293506000851180156127f65750600d546127f486600d546125e4565b115b151561280157600080fd5b600073ffffffffffffffffffffffffffffffffffffffff168c73ffffffffffffffffffffffffffffffffffffffff161415801561286a57508973ffffffffffffffffffffffffffffffffffffffff168c73ffffffffffffffffffffffffffffffffffffffff1614155b80156128b75750600454600760008e73ffffffffffffffffffffffffffffffffffffffff1673ffffffffffffffffffffffffffffffffffffffff1681526020019081526020016000205410155b1561294d57612905600860008e73ffffffffffffffffffffffffffffffffffffffff1673ffffffffffffffffffffffffffffffffffffffff16815260200190815260200160002054896125e4565b600860008e73ffffffffffffffffffffffffffffffffffffffff1673ffffffffffffffffffffffffffffffffffffffff16815260200190815260200160002081905550612968565b61295787896125e4565b965068010000000000000000870293505b6000600d5411156129dd5761297f600d54866125e4565b600d8190555061298d612600565b6801000000000000000088028115156129a257fe5b046010600082825401925050819055506129ba612600565b6801000000000000000088028115156129cf57fe5b0485028403840393506129e5565b84600d819055505b612a2e600760008c73ffffffffffffffffffffffffffffffffffffffff1673ffffffffffffffffffffffffffffffffffffffff16815260200190815260200160002054866125e4565b600760008c73ffffffffffffffffffffffffffffffffffffffff1673ffffffffffffffffffffffffffffffffffffffff1681526020019081526020016000208190555083856010540203925082600960008c73ffffffffffffffffffffffffffffffffffffffff1673ffffffffffffffffffffffffffffffffffffffff168152602001908152602001600020600082825401925050819055508b73ffffffffffffffffffffffffffffffffffffffff168a73ffffffffffffffffffffffffffffffffffffffff167f022c0d992e4d873a3748436d960d5140c1f9721cf73f7ca5ec679d3d9f4fe2d58f88604051808381526020018281526020019250505060405180910390a3849a50612f06565b6000601160006101000a81548160ff021916908315150217905550339950612b688d600a60ff16612477565b9850612b75896003612477565b9750612b81898961248d565b9650612b8d8d8a61248d565b9550612b98866124a6565b94506801000000000000000087029350600085118015612bc45750600d54612bc286600d546125e4565b115b1515612bcf57600080fd5b600073ffffffffffffffffffffffffffffffffffffffff168c73ffffffffffffffffffffffffffffffffffffffff1614158015612c3857508973ffffffffffffffffffffffffffffffffffffffff168c73ffffffffffffffffffffffffffffffffffffffff1614155b8015612c855750600454600760008e73ffffffffffffffffffffffffffffffffffffffff1673ffffffffffffffffffffffffffffffffffffffff1681526020019081526020016000205410155b15612d1b57612cd3600860008e73ffffffffffffffffffffffffffffffffffffffff1673ffffffffffffffffffffffffffffffffffffffff16815260200190815260200160002054896125e4565b600860008e73ffffffffffffffffffffffffffffffffffffffff1673ffffffffffffffffffffffffffffffffffffffff16815260200190815260200160002081905550612d36565b612d2587896125e4565b965068010000000000000000870293505b6000600d541115612dab57612d4d600d54866125e4565b600d81905550612d5b612600565b680100000000000000008802811515612d7057fe5b04601060008282540192505081905550612d88612600565b680100000000000000008802811515612d9d57fe5b048502840384039350612db3565b84600d819055505b612dfc600760008c73ffffffffffffffffffffffffffffffffffffffff1673ffffffffffffffffffffffffffffffffffffffff16815260200190815260200160002054866125e4565b600760008c73ffffffffffffffffffffffffffffffffffffffff1673ffffffffffffffffffffffffffffffffffffffff1681526020019081526020016000208190555083856010540203925082600960008c73ffffffffffffffffffffffffffffffffffffffff1673ffffffffffffffffffffffffffffffffffffffff168152602001908152602001600020600082825401925050819055508b73ffffffffffffffffffffffffffffffffffffffff168a73ffffffffffffffffffffffffffffffffffffffff167f022c0d992e4d873a3748436d960d5140c1f9721cf73f7ca5ec679d3d9f4fe2d58f88604051808381526020018281526020019250505060405180910390a3849a505b5050505050505050505092915050565b6000600f54600d5403905090565b600080600260018401811515612f3657fe5b0490508291505b81811015612f69578091506002818285811515612f5657fe5b0401811515612f6157fe5b049050612f3d565b50919050565b828054600181600116156101000203166002900490600052602060002090601f016020900481019282601f10612fb057805160ff1916838001178555612fde565b82800160010185558215612fde579182015b82811115612fdd578251825591602001919060010190612fc2565b5b509050612feb9190612fef565b5090565b61301191905b8082111561300d576000816000905550600101612ff5565b5090565b905600a165627a7a72305820a82a8f3899600c76ed56c4f9e4604016d5e445f7c90d5381296d82382ed0713a0029",
  "source": "pragma solidity ^0.4.21;\r\nimport \"zeppelin-solidity/contracts/math/SafeMath.sol\";\r\nimport \"zeppelin-solidity/contracts/ownership/Claimable.sol\";\r\nimport \"zeppelin-solidity/contracts/token/ERC20/ERC20.sol\";\r\nimport \"contracts/interface/TokenDealerInterface.sol\";\r\n\r\ncontract SeeleDealer is Claimable{ \r\n\r\n    /*=================================\r\n    =            MODIFIERS            =\r\n    =================================*/\r\n    // only people with tokens\r\n    modifier onlyBagholders() {\r\n        require(myTokens() > 0);\r\n        _;\r\n    }\r\n    \r\n    // only people with profits\r\n    modifier onlyStronghands() {\r\n        require(myDividends(true) > 0);\r\n        _;\r\n    }\r\n    \r\n \r\n    // ensures that the first tokens in the contract will be equally distributed\r\n    // meaning, no divine dump will be ever possible\r\n    // result: healthy longevity.\r\n    modifier antiEarlyWhale(uint256 _amountOfEthereum){\r\n        address _customerAddress = msg.sender;\r\n        \r\n        // are we still in the vulnerable phase?\r\n        // if so, enact anti early whale protocol \r\n        if( onlyAmbassadors && ((totalBalance() - _amountOfEthereum) <= ambassadorQuota_ )){\r\n            require(\r\n                // is the customer in the ambassador list?\r\n                ambassadors_[_customerAddress] == true &&\r\n                \r\n                // does the customer purchase exceed the max ambassador quota?\r\n                (ambassadorAccumulatedQuota_[_customerAddress] + _amountOfEthereum) <= ambassadorMaxPurchase_\r\n                \r\n            );\r\n            \r\n            // updated the accumulated quota    \r\n            ambassadorAccumulatedQuota_[_customerAddress] = SafeMath.add(ambassadorAccumulatedQuota_[_customerAddress], _amountOfEthereum);\r\n        \r\n            // execute\r\n            _;\r\n        } else {\r\n            // in case the ether count drops low, the ambassador phase won't reinitiate\r\n            onlyAmbassadors = false;\r\n            _;    \r\n        }\r\n        \r\n    }\r\n    \r\n    \r\n    /*==============================\r\n    =            EVENTS            =\r\n    ==============================*/\r\n    event onTokenPurchase(\r\n        address indexed customerAddress,\r\n        uint256 incomingEthereum,\r\n        uint256 tokensMinted,\r\n        address indexed referredBy\r\n    );\r\n    \r\n    event onTokenSell(\r\n        address indexed customerAddress,\r\n        uint256 tokensBurned,\r\n        uint256 seeleEarned\r\n    );\r\n\r\n    event onTokenSellByProtocol(\r\n        address indexed customerAddress,\r\n        uint256 tokensBurned,\r\n        uint256 seeleEarned\r\n    );\r\n    \r\n    event onReinvestment(\r\n        address indexed customerAddress,\r\n        uint256 ethereumReinvested,\r\n        uint256 tokensMinted\r\n    );\r\n    \r\n    event onWithdraw(\r\n        address indexed customerAddress,\r\n        uint256 ethereumWithdrawn\r\n    );\r\n    \r\n    event onTokenEscape(\r\n        address indexed customerAddress,\r\n        uint256 tokensEscaped\r\n    );\r\n\r\n    event onTokenArbitrage(\r\n        address indexed customerAddress,\r\n        uint256 tokensBurned,\r\n        uint256 ethereumEarned\r\n    );\r\n        \r\n    // ERC20\r\n    event Transfer(\r\n        address indexed from,\r\n        address indexed to,\r\n        uint256 tokens\r\n    );\r\n\r\n    /*=====================================\r\n    =            CONFIGURABLES            =\r\n    =====================================*/\r\n    string public name = \"Seele-S3D\";\r\n    string public symbol = \"Seele-S3D\";\r\n    uint8 constant public decimals = 18;\r\n    uint8 constant internal dividendFee_ = 10;\r\n    uint256 constant internal tokenPriceInitial_ = 10 * 1e18;\r\n    uint256 constant internal tokenPriceIncremental_ = 1 * 1e18;\r\n    uint256 constant internal magnitude = 2**64;\r\n    \r\n    // proof of stake (defaults at 100 tokens)\r\n    uint256 public stakingRequirement = 100e18;\r\n    \r\n    // ambassador program\r\n    mapping(address => bool) internal ambassadors_;\r\n    uint256 constant internal ambassadorMaxPurchase_ = 10000;\r\n    uint256 constant internal ambassadorQuota_ = 200000;\r\n    \r\n    \r\n    mapping(address => bool) public authorizedAddressInfos;\r\n    modifier onlyAuthorized()\r\n    {\r\n        require(authorizedAddressInfos[msg.sender]);\r\n        _;\r\n    }\r\n\r\n    address constant public seeleTokenAddress = 0x47879ac781938CFfd879392Cd2164b9F7306188a;\r\n   /*================================\r\n    =            DATASETS            =\r\n    ================================*/\r\n    // amount of shares for each address (scaled number)\r\n    mapping(address => uint256) internal tokenBalanceLedger_;\r\n    mapping(address => uint256) internal referralBalance_;\r\n    mapping(address => int256) internal payoutsTo_;\r\n    mapping(address => uint256) internal ambassadorAccumulatedQuota_;\r\n    mapping(address => uint256) internal escapeTokenBalance_;\r\n    mapping(address => uint256) internal overSellTokenBalance_;\r\n\r\n    uint256 internal tokenSupply_ = 0;\r\n    uint256 internal escapeTokenSuppley_ = 0;\r\n    uint256 internal overSellTokenAmount_ = 0;\r\n    uint256 internal profitPerShare_;\r\n    \r\n \r\n    // when this is set to true, only ambassadors can purchase tokens (this prevents a whale premine, it ensures a fairly distributed upper pyramid)\r\n    bool public onlyAmbassadors = true;\r\n\r\n\r\n    /*=======================================\r\n    =            PUBLIC FUNCTIONS            =\r\n    =======================================*/\r\n    /*\r\n    * -- APPLICATION ENTRY POINTS --  \r\n    */\r\n    function SeeleDealer()\r\n        public\r\n    {\r\n        // add the ambassadors here.\r\n        // mantso - lead solidity dev & lead web dev. \r\n        ambassadors_[0xCd16575A90eD9506BCf44C78845d93F1b647F48C] = true;\r\n    }\r\n    \r\n     \r\n    /**\r\n     * Converts all incoming ethereum to tokens for the caller, and passes down the referral addy (if any)\r\n     */\r\n    function buy(uint256 seeleAmount, address _referredBy)\r\n        public\r\n        payable\r\n        returns(uint256)\r\n    {\r\n        //transfer seele to contract\r\n        require(ERC20(seeleTokenAddress).transferFrom(msg.sender, address(this), seeleAmount));\r\n        purchaseTokens(seeleAmount, _referredBy);\r\n    }\r\n    \r\n    /*\r\n     * default fallback\r\n    */\r\n    function()\r\n        payable\r\n        public\r\n    {\r\n        \r\n    }\r\n\r\n    /**\r\n     * Converts all of caller's dividends to tokens.\r\n     */\r\n    function reinvest()\r\n        onlyStronghands()\r\n        public\r\n    {\r\n        // fetch dividends\r\n        uint256 _dividends = myDividends(false); // retrieve ref. bonus later in the code\r\n        \r\n        // pay out the dividends virtually\r\n        address _customerAddress = msg.sender;\r\n        payoutsTo_[_customerAddress] +=  (int256) (_dividends * magnitude);\r\n        \r\n        // retrieve ref. bonus\r\n        _dividends += referralBalance_[_customerAddress];\r\n        referralBalance_[_customerAddress] = 0;\r\n        \r\n        // dispatch a buy order with the virtualized \"withdrawn dividends\"\r\n        uint256 _tokens = purchaseTokens(_dividends, 0x0);\r\n        \r\n        // fire event\r\n        emit onReinvestment(_customerAddress, _dividends, _tokens);\r\n    }\r\n    \r\n    /**\r\n     * Alias of sell() and withdraw().\r\n     */\r\n    function exit()\r\n        public\r\n    {\r\n        // get token count for caller & sell them all\r\n        address _customerAddress = msg.sender;\r\n        uint256 _tokens = tokenBalanceLedger_[_customerAddress];\r\n        if(_tokens > 0) sell(_tokens);\r\n        \r\n        // lambo delivery service\r\n        withdraw();\r\n    }\r\n\r\n    /**\r\n     * Withdraws all of the callers earnings.\r\n     */\r\n    function withdraw()\r\n        onlyStronghands()\r\n        public\r\n    {\r\n        // setup data\r\n        address _customerAddress = msg.sender;\r\n        uint256 _dividends = myDividends(false); // get ref. bonus later in the code\r\n        \r\n        // update dividend tracker\r\n        payoutsTo_[_customerAddress] +=  (int256) (_dividends * magnitude);\r\n        \r\n        // add ref. bonus\r\n        _dividends += referralBalance_[_customerAddress];\r\n        referralBalance_[_customerAddress] = 0;\r\n        \r\n        // lambo delivery service\r\n        //_customerAddress.transfer(_dividends);\r\n        ERC20(seeleTokenAddress).transfer(msg.sender, _dividends);\r\n        \r\n        // fire event\r\n        emit onWithdraw(_customerAddress, _dividends);\r\n    }\r\n    \r\n    /**\r\n     * Liquifies tokens to ethereum.\r\n     */\r\n    function sell(uint256 _amountOfTokens)\r\n        onlyBagholders()\r\n        public\r\n    {\r\n        // setup data\r\n        address _customerAddress = msg.sender;\r\n        // russian hackers BTFO\r\n        require(_amountOfTokens <= tokenBalanceLedger_[_customerAddress]);\r\n        uint256 _tokens = _amountOfTokens;\r\n        uint256 _seeleAmount = tokensToSeele(_tokens);\r\n        uint256 _dividends = SafeMath.div(_seeleAmount, dividendFee_);\r\n        uint256 _taxedSeele = SafeMath.sub(_seeleAmount, _dividends);\r\n        \r\n        // burn the sold tokens\r\n        tokenSupply_ = SafeMath.sub(tokenSupply_, _tokens);\r\n        tokenBalanceLedger_[_customerAddress] = SafeMath.sub(tokenBalanceLedger_[_customerAddress], _tokens);\r\n        \r\n        // update dividends tracker\r\n        int256 _updatedPayouts = (int256) (profitPerShare_ * _tokens + (_taxedSeele * magnitude));\r\n        payoutsTo_[_customerAddress] -= _updatedPayouts;       \r\n        \r\n        // dividing by zero is a bad idea\r\n        uint256 dividendTokenAmount_ =  getDividendTokenAmount();\r\n        if (dividendTokenAmount_ > 0) {\r\n            // update the amount of dividends per token\r\n            profitPerShare_ = SafeMath.add(profitPerShare_, (_dividends * magnitude) / dividendTokenAmount_);\r\n        }\r\n        \r\n        // fire event\r\n        emit onTokenSell(_customerAddress, _tokens, _taxedSeele);\r\n    }\r\n    \r\n    /**\r\n     * Transfer tokens from the caller to a new holder.\r\n     * Remember, there's a 10% fee here as well.\r\n     */\r\n    function transfer(address _toAddress, uint256 _amountOfTokens)\r\n        onlyBagholders()\r\n        public\r\n        returns(bool)\r\n    {\r\n        // setup\r\n        address _customerAddress = msg.sender;\r\n        \r\n        // make sure we have the requested tokens\r\n        // also disables transfers until ambassador phase is over\r\n        // ( we dont want whale premines )\r\n        require(!onlyAmbassadors && _amountOfTokens <= tokenBalanceLedger_[_customerAddress]);\r\n        \r\n        // withdraw all outstanding dividends first\r\n        if(myDividends(true) > 0) withdraw();\r\n        \r\n        // liquify 10% of the tokens that are transfered\r\n        // these are dispersed to shareholders\r\n        uint256 _tokenFee = SafeMath.div(_amountOfTokens, dividendFee_);\r\n        uint256 _taxedTokens = SafeMath.sub(_amountOfTokens, _tokenFee);\r\n        uint256 _dividends = tokensToSeele(_tokenFee);\r\n  \r\n        // burn the fee tokens\r\n        tokenSupply_ = SafeMath.sub(tokenSupply_, _tokenFee);\r\n\r\n        // exchange tokens\r\n        tokenBalanceLedger_[_customerAddress] = SafeMath.sub(tokenBalanceLedger_[_customerAddress], _amountOfTokens);\r\n        tokenBalanceLedger_[_toAddress] = SafeMath.add(tokenBalanceLedger_[_toAddress], _taxedTokens);\r\n        \r\n        // update dividend trackers\r\n        payoutsTo_[_customerAddress] -= (int256) (profitPerShare_ * _amountOfTokens);\r\n        payoutsTo_[_toAddress] += (int256) (profitPerShare_ * _taxedTokens);\r\n        \r\n        // disperse dividends among holders\r\n        profitPerShare_ = SafeMath.add(profitPerShare_, (_dividends * magnitude) / tokenSupply_);\r\n        \r\n        // fire event\r\n        emit Transfer(_customerAddress, _toAddress, _taxedTokens);\r\n        \r\n        // ERC20\r\n        return true;\r\n       \r\n    }\r\n    \r\n    /*----------  ADMINISTRATOR ONLY FUNCTIONS  ----------*/\r\n    /**\r\n     * In case the amassador quota is not met, the administrator can manually disable the ambassador phase.\r\n     */\r\n    function disableInitialStage()\r\n        onlyOwner()\r\n        public\r\n    {\r\n        onlyAmbassadors = false;\r\n    }\r\n    \r\n    /**\r\n     * Precautionary measures in case we need to adjust the masternode rate.\r\n     */\r\n    // function setStakingRequirement(uint256 _amountOfTokens)\r\n    //     onlyOwner()\r\n    //     public\r\n    // {\r\n    //     stakingRequirement = _amountOfTokens;\r\n    // }\r\n    \r\n    /**\r\n     * If we want to rebrand, we can.\r\n     */\r\n    function setName(string _name)\r\n        onlyOwner()\r\n        public\r\n    {\r\n        name = _name;\r\n    }\r\n    \r\n    /**\r\n     * If we want to rebrand, we can.\r\n     */\r\n    function setSymbol(string _symbol)\r\n        onlyOwner()\r\n        public\r\n    {\r\n        symbol = _symbol;\r\n    }\r\n\r\n    \r\n    /*----------  HELPERS AND CALCULATORS  ----------*/\r\n    /**\r\n     * Method to view the current Ethereum stored in the contract\r\n     * Example: totalEthereumBalance()\r\n     */\r\n    function totalBalance()\r\n        public\r\n        view\r\n        returns(uint256)\r\n    {\r\n        return ERC20(seeleTokenAddress).balanceOf(address(this));\r\n    }\r\n    \r\n    /**\r\n     * Retrieve the total token supply.\r\n     */\r\n    function totalSupply()\r\n        public\r\n        view\r\n        returns(uint256)\r\n    {\r\n        return tokenSupply_;\r\n    }\r\n    \r\n    /**\r\n     * Retrieve the tokens owned by the caller.\r\n     */\r\n    function myTokens()\r\n        public\r\n        view\r\n        returns(uint256)\r\n    {\r\n        address _customerAddress = msg.sender;\r\n        return balanceOf(_customerAddress);\r\n    }\r\n    \r\n    /**\r\n     * Retrieve the dividends owned by the caller.\r\n     * If `_includeReferralBonus` is to to 1/true, the referral bonus will be included in the calculations.\r\n     * The reason for this, is that in the frontend, we will want to get the total divs (global + ref)\r\n     * But in the internal calculations, we want them separate. \r\n     */ \r\n    function myDividends(bool _includeReferralBonus) \r\n        public \r\n        view \r\n        returns(uint256)\r\n    {\r\n        address _customerAddress = msg.sender;\r\n        return _includeReferralBonus ? dividendsOf(_customerAddress) + referralBalance_[_customerAddress] : dividendsOf(_customerAddress) ;\r\n    }\r\n    \r\n    /**\r\n     * Retrieve the token balance of any single address.\r\n     */\r\n    function balanceOf(address _customerAddress)\r\n        view\r\n        public\r\n        returns(uint256)\r\n    {\r\n        return tokenBalanceLedger_[_customerAddress];\r\n    }\r\n    \r\n    /**\r\n     * Retrieve the dividend balance of any single address.\r\n     */\r\n    function dividendsOf(address _customerAddress)\r\n        view\r\n        public\r\n        returns(uint256)\r\n    {\r\n        return (uint256) ((int256)(profitPerShare_ * tokenBalanceLedger_[_customerAddress]) - payoutsTo_[_customerAddress]) / magnitude;\r\n    }\r\n    \r\n    /**\r\n     * Return the buy price of 1 individual token.\r\n     */\r\n    function sellPrice() \r\n        public \r\n        view \r\n        returns(uint256)\r\n    {\r\n        // our calculation relies on the token supply, so we need supply. Doh.\r\n        if(tokenSupply_ == 0){\r\n            return tokenPriceInitial_ - tokenPriceIncremental_;\r\n        } else {\r\n            uint256 _seeleAmount = tokensToSeele(1e18);\r\n            uint256 _dividends = SafeMath.div(_seeleAmount, dividendFee_  );\r\n            uint256 _taxedSeele = SafeMath.sub(_seeleAmount, _dividends);\r\n            return _taxedSeele;\r\n        }\r\n    }\r\n    \r\n    /**\r\n     * Return the sell price of 1 individual token.\r\n     */\r\n    function buyPrice() \r\n        public \r\n        view \r\n        returns(uint256)\r\n    {\r\n        // our calculation relies on the token supply, so we need supply. Doh.\r\n        if(tokenSupply_ == 0){\r\n            return tokenPriceInitial_ + tokenPriceIncremental_;\r\n        } else {\r\n            uint256 _seeleAmount = tokensToSeele(1e18);\r\n            uint256 _dividends = SafeMath.div(_seeleAmount, dividendFee_  );\r\n            uint256 _taxedSeele = SafeMath.add(_seeleAmount, _dividends);\r\n            return _taxedSeele;\r\n        }\r\n    }\r\n    \r\n    /**\r\n     * Function for the frontend to dynamically retrieve the price scaling of buy orders.\r\n     */\r\n    function calculateTokensReceived(uint256 _seeleToSpend) \r\n        public \r\n        view \r\n        returns(uint256)\r\n    {\r\n        uint256 _dividends = SafeMath.div(_seeleToSpend, dividendFee_);\r\n        uint256 _taxedSeele = SafeMath.sub(_seeleToSpend, _dividends);\r\n        uint256 _amountOfTokens = seeleToTokens_(_taxedSeele);\r\n        \r\n        return _amountOfTokens;\r\n    }\r\n    \r\n    /**\r\n     * Function for the frontend to dynamically retrieve the price scaling of sell orders.\r\n     */\r\n    function calculateSeeleReceived(uint256 _tokensToSell) \r\n        public \r\n        view \r\n        returns(uint256)\r\n    {\r\n        require(_tokensToSell <= tokenSupply_);\r\n        uint256 _seeleAmount = tokensToSeele(_tokensToSell);\r\n        uint256 _dividends = SafeMath.div(_seeleAmount, dividendFee_);\r\n        uint256 _taxedSeele = SafeMath.sub(_seeleAmount, _dividends);\r\n        return _taxedSeele;\r\n    }\r\n    \r\n    \r\n    /*==========================================\r\n    =            INTERNAL FUNCTIONS            =\r\n    ==========================================*/\r\n    function purchaseTokens(uint256 _incomingSeele, address _referredBy)\r\n        antiEarlyWhale(_incomingSeele)\r\n        internal\r\n        returns(uint256)\r\n    {\r\n        // data setup\r\n        address _customerAddress = msg.sender;\r\n        uint256 _undividedDividends = SafeMath.div(_incomingSeele, dividendFee_);\r\n        uint256 _referralBonus = SafeMath.div(_undividedDividends, 3);\r\n        uint256 _dividends = SafeMath.sub(_undividedDividends, _referralBonus);\r\n        uint256 _taxedSeele = SafeMath.sub(_incomingSeele, _undividedDividends);\r\n        uint256 _amountOfTokens = seeleToTokens_(_taxedSeele);\r\n        uint256 _fee = _dividends * magnitude;\r\n \r\n        // no point in continuing execution if OP is a poorfag russian hacker\r\n        // prevents overflow in the case that the pyramid somehow magically starts being used by everyone in the world\r\n        // (or hackers)\r\n        // and yes we know that the safemath function automatically rules out the \"greater then\" equasion.\r\n        require(_amountOfTokens > 0 && (SafeMath.add(_amountOfTokens,tokenSupply_) > tokenSupply_));\r\n        \r\n        // is the user referred by a masternode?\r\n        if(\r\n            // is this a referred purchase?\r\n            _referredBy != 0x0000000000000000000000000000000000000000 &&\r\n\r\n            // no cheating!\r\n            _referredBy != _customerAddress &&\r\n            \r\n            // does the referrer have at least X whole tokens?\r\n            // i.e is the referrer a godly chad masternode\r\n            tokenBalanceLedger_[_referredBy] >= stakingRequirement\r\n        ){\r\n            // wealth redistribution\r\n            referralBalance_[_referredBy] = SafeMath.add(referralBalance_[_referredBy], _referralBonus);\r\n        } else {\r\n            // no ref purchase\r\n            // add the referral bonus back to the global dividends cake\r\n            _dividends = SafeMath.add(_dividends, _referralBonus);\r\n            _fee = _dividends * magnitude;\r\n        }\r\n        \r\n        // we can't give people infinite ethereum\r\n        if(tokenSupply_ > 0){\r\n            \r\n            // add tokens to the pool\r\n            tokenSupply_ = SafeMath.add(tokenSupply_, _amountOfTokens);\r\n\r\n            //uint256 dividendTokenAmount_ =  getDividendTokenAmount();\r\n \r\n            // take the amount of dividends gained through this transaction, and allocates them evenly to each shareholder\r\n            profitPerShare_ += (_dividends * magnitude / (getDividendTokenAmount()));\r\n            \r\n            // calculate the amount of tokens the customer receives over his purchase \r\n            _fee = _fee - (_fee-(_amountOfTokens * (_dividends * magnitude / (getDividendTokenAmount()))));\r\n        \r\n        } else {\r\n            // add tokens to the pool\r\n            tokenSupply_ = _amountOfTokens;\r\n        }\r\n        \r\n        // update circulating supply & the ledger address for the customer\r\n        tokenBalanceLedger_[_customerAddress] = SafeMath.add(tokenBalanceLedger_[_customerAddress], _amountOfTokens);\r\n        \r\n        // Tells the contract that the buyer doesn't deserve dividends for the tokens before they owned them;\r\n        //really i know you think you do but you don't\r\n        int256 _updatedPayouts = (int256) ((profitPerShare_ * _amountOfTokens) - _fee);\r\n        payoutsTo_[_customerAddress] += _updatedPayouts;\r\n        \r\n        // fire event\r\n        emit onTokenPurchase(_customerAddress, _incomingSeele, _amountOfTokens, _referredBy);\r\n        \r\n        return _amountOfTokens;\r\n    }\r\n\r\n    /**\r\n     * Calculate Token price based on an amount of incoming ethereum\r\n     * It's an algorithm, hopefully we gave you the whitepaper with it in scientific notation;\r\n     * Some conversions occurred to prevent decimal errors or underflows / overflows in solidity code.\r\n     */\r\n    function seeleToTokens_(uint256 seeleAmount)\r\n        internal\r\n        view\r\n        returns(uint256)\r\n    {\r\n        uint256 _tokenPriceInitial = tokenPriceInitial_ ;\r\n        uint256 _tokenSupply =  getPricedTokenAmount();\r\n        uint256 _tokensReceived = \r\n         (\r\n            (\r\n                // underflow attempts BTFO\r\n                SafeMath.sub(\r\n                    (sqrt\r\n                        (\r\n                            (_tokenPriceInitial**2)\r\n                            +\r\n                            (2*(tokenPriceIncremental_ )*(seeleAmount ))\r\n                            +\r\n                            (((tokenPriceIncremental_)**2)*(tokenSupply_**2))\r\n                            +\r\n                            (2*(tokenPriceIncremental_)*_tokenPriceInitial*tokenSupply_)\r\n                        )\r\n                    ), _tokenPriceInitial\r\n                )\r\n            )/(tokenPriceIncremental_)\r\n        )-(tokenSupply_)\r\n        ;\r\n  \r\n        return _tokensReceived;\r\n    }\r\n    \r\n    /**\r\n     * Calculate token sell value.\r\n     * It's an algorithm, hopefully we gave you the whitepaper with it in scientific notation;\r\n     * Some conversions occurred to prevent decimal errors or underflows / overflows in solidity code.\r\n     */\r\n     function tokensToSeele(uint256 _tokens)\r\n        internal\r\n        view\r\n        returns(uint256)\r\n    {\r\n\r\n        uint256 tokens_ = (_tokens + 1e18);\r\n        uint256 _tokenSupply = (getPricedTokenAmount() + 1e18);\r\n        uint256 _seeleReceived =\r\n        (\r\n            // underflow attempts BTFO\r\n            SafeMath.sub(\r\n                (\r\n                    (\r\n                        (\r\n                            tokenPriceInitial_ +(tokenPriceIncremental_ * (_tokenSupply/1e18))\r\n                        )-tokenPriceIncremental_\r\n                    )*(tokens_ - 1e18)\r\n                ),(tokenPriceIncremental_*((tokens_**2-tokens_)/1e18))/2\r\n            )\r\n        /1e18);\r\n        return _seeleReceived;\r\n    }\r\n    \r\n    \r\n    //This is where all your gas goes, sorry\r\n    //Not sorry, you probably only paid 1 gwei\r\n    function sqrt(uint x) internal pure returns (uint y) {\r\n        uint z = (x + 1) / 2;\r\n        y = x;\r\n        while (z < y) {\r\n            y = z;\r\n            z = (x / z + z) / 2;\r\n        }\r\n    }\r\n\r\n    //token\r\n    function getDividendTokenAmount() internal view returns (uint256) {\r\n        //exclude escape token\r\n        return tokenSupply_ - escapeTokenSuppley_;\r\n    }\r\n\r\n    //tokenoverselltoken\r\n    function getPricedTokenAmount() internal view returns (uint256) {\r\n        return tokenSupply_ - overSellTokenAmount_;\r\n    }\r\n\r\n    //NEW FUNCTION        \r\n    function escapeTokens(uint256 _amountOfTokens) onlyBagholders() public returns(uint256)\r\n    {\r\n        // setup data\r\n        address _customerAddress = msg.sender;\r\n\r\n        // russian hackers BTFO\r\n        require(_amountOfTokens <= tokenBalanceLedger_[_customerAddress]);\r\n        uint256 _tokens = _amountOfTokens;\r\n\r\n        // add the sold tokens to escape tokens\r\n        escapeTokenSuppley_ = SafeMath.add(escapeTokenSuppley_, _tokens);\r\n        tokenBalanceLedger_[_customerAddress] = SafeMath.sub(tokenBalanceLedger_[_customerAddress], _tokens);\r\n        escapeTokenBalance_[_customerAddress] = SafeMath.add(escapeTokenBalance_[_customerAddress], _tokens);\r\n   \r\n        // update dividends tracker\r\n        // take you token dividends\r\n        int256 _updatedPayouts = (int256) (profitPerShare_ * _tokens);\r\n        payoutsTo_[_customerAddress] -= _updatedPayouts;       \r\n\r\n        // fire event\r\n        emit onTokenEscape(_customerAddress, _tokens);\r\n        return _tokens;\r\n    }\r\n\r\n    //\r\n    function arbitrageTokens(address sellTokenAddress, uint256 _amountOfTokens) public\r\n    {\r\n        // setup data\r\n        address _customerAddress = msg.sender;\r\n        \r\n        TokenDealerInterface escapeContract = TokenDealerInterface(sellTokenAddress);\r\n        uint256 _tokens = escapeContract.escapeTokens(_amountOfTokens);\r\n\r\n        require(_tokens == _amountOfTokens);\r\n\r\n        // russian hackers BTFO\r\n        uint256 _seeleAmount = tokensToSeele(_tokens);\r\n        uint256 _dividends = SafeMath.div(_seeleAmount, dividendFee_);\r\n        uint256 _taxedSeele = SafeMath.sub(_seeleAmount, _dividends);\r\n        \r\n        // burn the sold tokens\r\n        //tokenSupply_ = SafeMath.sub(tokenSupply_, _tokens);\r\n        //tokenBalanceLedger_[_customerAddress] = SafeMath.sub(tokenBalanceLedger_[_customerAddress], _tokens);\r\n\r\n        // add escape tokens to oversell\r\n        overSellTokenAmount_ = SafeMath.add(overSellTokenAmount_, _tokens);\r\n        overSellTokenBalance_[_customerAddress] = SafeMath.add(overSellTokenBalance_[_customerAddress], _tokens);\r\n\r\n             \r\n        // dividing by zero is a bad idea\r\n        uint256 dividendTokenAmount_ =  getDividendTokenAmount();\r\n        if (dividendTokenAmount_ > 0) {\r\n            // update the amount of dividends per token\r\n            profitPerShare_ = SafeMath.add(profitPerShare_, (_dividends * magnitude) / dividendTokenAmount_);\r\n        }\r\n        \r\n        // lambo delivery service\r\n        //_customerAddress.transfer(_taxedEthereum);\r\n        ERC20(seeleTokenAddress).transfer(msg.sender, _taxedSeele);\r\n\r\n        // fire event\r\n        emit onTokenArbitrage(_customerAddress, _tokens, _taxedSeele);\r\n    }\r\n}",
  "sourcePath": "D:\\work\\truffle\\s3d\\contracts\\SeeleDealer.sol",
  "compiler": {
    "name": "solc",
    "version": "0.4.24+commit.e67f0147.Emscripten.clang"
  },
  "schemaVersion": "2.0.1",
  "updatedAt": "2018-08-13T11:11:38.947Z"
}