{
  "contractName": "SeeleDealer",
  "abi": [
    {
      "constant": true,
      "inputs": [],
      "name": "name",
      "outputs": [
        {
          "name": "",
          "type": "string"
        }
      ],
      "payable": false,
      "stateMutability": "view",
      "type": "function"
    },
    {
      "constant": true,
      "inputs": [
        {
          "name": "_operator",
          "type": "address"
        },
        {
          "name": "_role",
          "type": "string"
        }
      ],
      "name": "checkRole",
      "outputs": [],
      "payable": false,
      "stateMutability": "view",
      "type": "function"
    },
    {
      "constant": true,
      "inputs": [],
      "name": "ROLE_WHITELISTED",
      "outputs": [
        {
          "name": "",
          "type": "string"
        }
      ],
      "payable": false,
      "stateMutability": "view",
      "type": "function"
    },
    {
      "constant": true,
      "inputs": [
        {
          "name": "_operator",
          "type": "address"
        },
        {
          "name": "_role",
          "type": "string"
        }
      ],
      "name": "hasRole",
      "outputs": [
        {
          "name": "",
          "type": "bool"
        }
      ],
      "payable": false,
      "stateMutability": "view",
      "type": "function"
    },
    {
      "constant": true,
      "inputs": [],
      "name": "overSellTokenAmount_",
      "outputs": [
        {
          "name": "",
          "type": "uint256"
        }
      ],
      "payable": false,
      "stateMutability": "view",
      "type": "function"
    },
    {
      "constant": false,
      "inputs": [
        {
          "name": "_operators",
          "type": "address[]"
        }
      ],
      "name": "removeAddressesFromWhitelist",
      "outputs": [],
      "payable": false,
      "stateMutability": "nonpayable",
      "type": "function"
    },
    {
      "constant": true,
      "inputs": [],
      "name": "onlyAmbassadors",
      "outputs": [
        {
          "name": "",
          "type": "bool"
        }
      ],
      "payable": false,
      "stateMutability": "view",
      "type": "function"
    },
    {
      "constant": false,
      "inputs": [
        {
          "name": "_operator",
          "type": "address"
        }
      ],
      "name": "removeAddressFromWhitelist",
      "outputs": [],
      "payable": false,
      "stateMutability": "nonpayable",
      "type": "function"
    },
    {
      "constant": true,
      "inputs": [],
      "name": "decimals",
      "outputs": [
        {
          "name": "",
          "type": "uint8"
        }
      ],
      "payable": false,
      "stateMutability": "view",
      "type": "function"
    },
    {
      "constant": false,
      "inputs": [],
      "name": "claimOwnership",
      "outputs": [],
      "payable": false,
      "stateMutability": "nonpayable",
      "type": "function"
    },
    {
      "constant": true,
      "inputs": [],
      "name": "stakingRequirement",
      "outputs": [
        {
          "name": "",
          "type": "uint256"
        }
      ],
      "payable": false,
      "stateMutability": "view",
      "type": "function"
    },
    {
      "constant": true,
      "inputs": [],
      "name": "seeleDividendsToEthContractAddress",
      "outputs": [
        {
          "name": "",
          "type": "address"
        }
      ],
      "payable": false,
      "stateMutability": "view",
      "type": "function"
    },
    {
      "constant": false,
      "inputs": [],
      "name": "renounceOwnership",
      "outputs": [],
      "payable": false,
      "stateMutability": "nonpayable",
      "type": "function"
    },
    {
      "constant": false,
      "inputs": [
        {
          "name": "_operator",
          "type": "address"
        }
      ],
      "name": "addAddressToWhitelist",
      "outputs": [],
      "payable": false,
      "stateMutability": "nonpayable",
      "type": "function"
    },
    {
      "constant": true,
      "inputs": [],
      "name": "owner",
      "outputs": [
        {
          "name": "",
          "type": "address"
        }
      ],
      "payable": false,
      "stateMutability": "view",
      "type": "function"
    },
    {
      "constant": true,
      "inputs": [],
      "name": "symbol",
      "outputs": [
        {
          "name": "",
          "type": "string"
        }
      ],
      "payable": false,
      "stateMutability": "view",
      "type": "function"
    },
    {
      "constant": true,
      "inputs": [
        {
          "name": "_operator",
          "type": "address"
        }
      ],
      "name": "whitelist",
      "outputs": [
        {
          "name": "",
          "type": "bool"
        }
      ],
      "payable": false,
      "stateMutability": "view",
      "type": "function"
    },
    {
      "constant": true,
      "inputs": [
        {
          "name": "",
          "type": "address"
        }
      ],
      "name": "escapeTokenBalance_",
      "outputs": [
        {
          "name": "",
          "type": "uint256"
        }
      ],
      "payable": false,
      "stateMutability": "view",
      "type": "function"
    },
    {
      "constant": true,
      "inputs": [
        {
          "name": "",
          "type": "address"
        }
      ],
      "name": "overSellTokenBalance_",
      "outputs": [
        {
          "name": "",
          "type": "uint256"
        }
      ],
      "payable": false,
      "stateMutability": "view",
      "type": "function"
    },
    {
      "constant": false,
      "inputs": [
        {
          "name": "_operators",
          "type": "address[]"
        }
      ],
      "name": "addAddressesToWhitelist",
      "outputs": [],
      "payable": false,
      "stateMutability": "nonpayable",
      "type": "function"
    },
    {
      "constant": true,
      "inputs": [],
      "name": "pendingOwner",
      "outputs": [
        {
          "name": "",
          "type": "address"
        }
      ],
      "payable": false,
      "stateMutability": "view",
      "type": "function"
    },
    {
      "constant": false,
      "inputs": [
        {
          "name": "newOwner",
          "type": "address"
        }
      ],
      "name": "transferOwnership",
      "outputs": [],
      "payable": false,
      "stateMutability": "nonpayable",
      "type": "function"
    },
    {
      "constant": true,
      "inputs": [],
      "name": "escapeTokenSuppley_",
      "outputs": [
        {
          "name": "",
          "type": "uint256"
        }
      ],
      "payable": false,
      "stateMutability": "view",
      "type": "function"
    },
    {
      "constant": true,
      "inputs": [],
      "name": "seeleTokenAddress",
      "outputs": [
        {
          "name": "",
          "type": "address"
        }
      ],
      "payable": false,
      "stateMutability": "view",
      "type": "function"
    },
    {
      "inputs": [
        {
          "name": "tokenAddress",
          "type": "address"
        }
      ],
      "payable": false,
      "stateMutability": "nonpayable",
      "type": "constructor"
    },
    {
      "payable": true,
      "stateMutability": "payable",
      "type": "fallback"
    },
    {
      "anonymous": false,
      "inputs": [
        {
          "indexed": true,
          "name": "customerAddress",
          "type": "address"
        },
        {
          "indexed": false,
          "name": "incomingEthereum",
          "type": "uint256"
        },
        {
          "indexed": false,
          "name": "tokensMinted",
          "type": "uint256"
        },
        {
          "indexed": true,
          "name": "referredBy",
          "type": "address"
        }
      ],
      "name": "onTokenPurchase",
      "type": "event"
    },
    {
      "anonymous": false,
      "inputs": [
        {
          "indexed": true,
          "name": "customerAddress",
          "type": "address"
        },
        {
          "indexed": false,
          "name": "tokensBurned",
          "type": "uint256"
        },
        {
          "indexed": false,
          "name": "seeleEarned",
          "type": "uint256"
        }
      ],
      "name": "onTokenSell",
      "type": "event"
    },
    {
      "anonymous": false,
      "inputs": [
        {
          "indexed": true,
          "name": "customerAddress",
          "type": "address"
        },
        {
          "indexed": false,
          "name": "tokensBurned",
          "type": "uint256"
        },
        {
          "indexed": false,
          "name": "seeleEarned",
          "type": "uint256"
        }
      ],
      "name": "onTokenSellByProtocol",
      "type": "event"
    },
    {
      "anonymous": false,
      "inputs": [
        {
          "indexed": true,
          "name": "customerAddress",
          "type": "address"
        },
        {
          "indexed": false,
          "name": "ethereumReinvested",
          "type": "uint256"
        },
        {
          "indexed": false,
          "name": "tokensMinted",
          "type": "uint256"
        }
      ],
      "name": "onReinvestment",
      "type": "event"
    },
    {
      "anonymous": false,
      "inputs": [
        {
          "indexed": true,
          "name": "customerAddress",
          "type": "address"
        },
        {
          "indexed": false,
          "name": "ethereumWithdrawn",
          "type": "uint256"
        }
      ],
      "name": "onWithdraw",
      "type": "event"
    },
    {
      "anonymous": false,
      "inputs": [
        {
          "indexed": true,
          "name": "customerAddress",
          "type": "address"
        },
        {
          "indexed": false,
          "name": "tokensEscaped",
          "type": "uint256"
        }
      ],
      "name": "onTokenEscape",
      "type": "event"
    },
    {
      "anonymous": false,
      "inputs": [
        {
          "indexed": true,
          "name": "customerAddress",
          "type": "address"
        },
        {
          "indexed": false,
          "name": "tokensBurned",
          "type": "uint256"
        },
        {
          "indexed": false,
          "name": "ethereumEarned",
          "type": "uint256"
        }
      ],
      "name": "onTokenArbitrage",
      "type": "event"
    },
    {
      "anonymous": false,
      "inputs": [
        {
          "indexed": true,
          "name": "from",
          "type": "address"
        },
        {
          "indexed": true,
          "name": "to",
          "type": "address"
        },
        {
          "indexed": false,
          "name": "tokens",
          "type": "uint256"
        }
      ],
      "name": "Transfer",
      "type": "event"
    },
    {
      "anonymous": false,
      "inputs": [
        {
          "indexed": true,
          "name": "operator",
          "type": "address"
        },
        {
          "indexed": false,
          "name": "role",
          "type": "string"
        }
      ],
      "name": "RoleAdded",
      "type": "event"
    },
    {
      "anonymous": false,
      "inputs": [
        {
          "indexed": true,
          "name": "operator",
          "type": "address"
        },
        {
          "indexed": false,
          "name": "role",
          "type": "string"
        }
      ],
      "name": "RoleRemoved",
      "type": "event"
    },
    {
      "anonymous": false,
      "inputs": [
        {
          "indexed": true,
          "name": "previousOwner",
          "type": "address"
        }
      ],
      "name": "OwnershipRenounced",
      "type": "event"
    },
    {
      "anonymous": false,
      "inputs": [
        {
          "indexed": true,
          "name": "previousOwner",
          "type": "address"
        },
        {
          "indexed": true,
          "name": "newOwner",
          "type": "address"
        }
      ],
      "name": "OwnershipTransferred",
      "type": "event"
    },
    {
      "constant": false,
      "inputs": [
        {
          "name": "dividendsAddress",
          "type": "address"
        }
      ],
      "name": "setSeeleDividendsToEthContractAddress",
      "outputs": [],
      "payable": false,
      "stateMutability": "nonpayable",
      "type": "function"
    },
    {
      "constant": false,
      "inputs": [
        {
          "name": "buyer",
          "type": "address"
        },
        {
          "name": "seeleAmount",
          "type": "uint256"
        },
        {
          "name": "_referredBy",
          "type": "address"
        }
      ],
      "name": "buy",
      "outputs": [
        {
          "name": "",
          "type": "uint256"
        }
      ],
      "payable": true,
      "stateMutability": "payable",
      "type": "function"
    },
    {
      "constant": false,
      "inputs": [
        {
          "name": "buyer",
          "type": "address"
        },
        {
          "name": "buyAmount",
          "type": "uint256"
        }
      ],
      "name": "reinvest",
      "outputs": [],
      "payable": false,
      "stateMutability": "nonpayable",
      "type": "function"
    },
    {
      "constant": false,
      "inputs": [
        {
          "name": "buyer",
          "type": "address"
        }
      ],
      "name": "exit",
      "outputs": [],
      "payable": false,
      "stateMutability": "nonpayable",
      "type": "function"
    },
    {
      "constant": false,
      "inputs": [
        {
          "name": "buyer",
          "type": "address"
        },
        {
          "name": "withdrawAmount",
          "type": "uint256"
        }
      ],
      "name": "withdraw",
      "outputs": [],
      "payable": false,
      "stateMutability": "nonpayable",
      "type": "function"
    },
    {
      "constant": false,
      "inputs": [
        {
          "name": "buyer",
          "type": "address"
        }
      ],
      "name": "withdraw",
      "outputs": [],
      "payable": false,
      "stateMutability": "nonpayable",
      "type": "function"
    },
    {
      "constant": false,
      "inputs": [
        {
          "name": "seller",
          "type": "address"
        },
        {
          "name": "_amountOfTokens",
          "type": "uint256"
        }
      ],
      "name": "sell",
      "outputs": [],
      "payable": false,
      "stateMutability": "nonpayable",
      "type": "function"
    },
    {
      "constant": false,
      "inputs": [],
      "name": "disableInitialStage",
      "outputs": [],
      "payable": false,
      "stateMutability": "nonpayable",
      "type": "function"
    },
    {
      "constant": false,
      "inputs": [
        {
          "name": "_name",
          "type": "string"
        }
      ],
      "name": "setName",
      "outputs": [],
      "payable": false,
      "stateMutability": "nonpayable",
      "type": "function"
    },
    {
      "constant": false,
      "inputs": [
        {
          "name": "_symbol",
          "type": "string"
        }
      ],
      "name": "setSymbol",
      "outputs": [],
      "payable": false,
      "stateMutability": "nonpayable",
      "type": "function"
    },
    {
      "constant": true,
      "inputs": [],
      "name": "totalBalance",
      "outputs": [
        {
          "name": "",
          "type": "uint256"
        }
      ],
      "payable": false,
      "stateMutability": "view",
      "type": "function"
    },
    {
      "constant": true,
      "inputs": [],
      "name": "totalSupply",
      "outputs": [
        {
          "name": "",
          "type": "uint256"
        }
      ],
      "payable": false,
      "stateMutability": "view",
      "type": "function"
    },
    {
      "constant": true,
      "inputs": [
        {
          "name": "myAddress",
          "type": "address"
        },
        {
          "name": "_includeReferralBonus",
          "type": "bool"
        }
      ],
      "name": "myDividends",
      "outputs": [
        {
          "name": "",
          "type": "uint256"
        }
      ],
      "payable": false,
      "stateMutability": "view",
      "type": "function"
    },
    {
      "constant": true,
      "inputs": [
        {
          "name": "_customerAddress",
          "type": "address"
        }
      ],
      "name": "balanceOf",
      "outputs": [
        {
          "name": "",
          "type": "uint256"
        }
      ],
      "payable": false,
      "stateMutability": "view",
      "type": "function"
    },
    {
      "constant": true,
      "inputs": [
        {
          "name": "_customerAddress",
          "type": "address"
        }
      ],
      "name": "dividendsOf",
      "outputs": [
        {
          "name": "",
          "type": "uint256"
        }
      ],
      "payable": false,
      "stateMutability": "view",
      "type": "function"
    },
    {
      "constant": true,
      "inputs": [
        {
          "name": "_customerAddress",
          "type": "address"
        }
      ],
      "name": "referralBalanceOf",
      "outputs": [
        {
          "name": "",
          "type": "uint256"
        }
      ],
      "payable": false,
      "stateMutability": "view",
      "type": "function"
    },
    {
      "constant": true,
      "inputs": [],
      "name": "sellPrice",
      "outputs": [
        {
          "name": "",
          "type": "uint256"
        }
      ],
      "payable": false,
      "stateMutability": "view",
      "type": "function"
    },
    {
      "constant": true,
      "inputs": [],
      "name": "buyPrice",
      "outputs": [
        {
          "name": "",
          "type": "uint256"
        }
      ],
      "payable": false,
      "stateMutability": "view",
      "type": "function"
    },
    {
      "constant": true,
      "inputs": [
        {
          "name": "_seeleToSpend",
          "type": "uint256"
        }
      ],
      "name": "calculateTokensReceived",
      "outputs": [
        {
          "name": "",
          "type": "uint256"
        }
      ],
      "payable": false,
      "stateMutability": "view",
      "type": "function"
    },
    {
      "constant": true,
      "inputs": [
        {
          "name": "_tokensToBuy",
          "type": "uint256"
        }
      ],
      "name": "calculateBuyTokenSpend",
      "outputs": [
        {
          "name": "",
          "type": "uint256"
        }
      ],
      "payable": false,
      "stateMutability": "view",
      "type": "function"
    },
    {
      "constant": true,
      "inputs": [
        {
          "name": "_tokensToSell",
          "type": "uint256"
        }
      ],
      "name": "calculateBuyTokenReceived",
      "outputs": [
        {
          "name": "",
          "type": "uint256"
        }
      ],
      "payable": false,
      "stateMutability": "view",
      "type": "function"
    },
    {
      "constant": false,
      "inputs": [
        {
          "name": "sellerAddress",
          "type": "address"
        },
        {
          "name": "_amountOfTokens",
          "type": "uint256"
        }
      ],
      "name": "escapeTokens",
      "outputs": [
        {
          "name": "",
          "type": "uint256"
        }
      ],
      "payable": false,
      "stateMutability": "nonpayable",
      "type": "function"
    },
    {
      "constant": false,
      "inputs": [
        {
          "name": "sellerAddress",
          "type": "address"
        },
        {
          "name": "_amountOfTokens",
          "type": "uint256"
        }
      ],
      "name": "arbitrageTokens",
      "outputs": [],
      "payable": false,
      "stateMutability": "nonpayable",
      "type": "function"
    }
  ],
  "bytecode": "0x60806040526040805190810160405280600981526020017f5365656c652d53334400000000000000000000000000000000000000000000008152506003908051906020019062000051929190620002a6565b506040805190810160405280600981526020017f5365656c652d5333440000000000000000000000000000000000000000000000815250600490805190602001906200009f929190620002a6565b5068056bc75e2d631000006005557347879ac781938cffd879392cd2164b9f7306188a600760006101000a81548173ffffffffffffffffffffffffffffffffffffffff021916908373ffffffffffffffffffffffffffffffffffffffff1602179055506000600e55600060105560006011556001601260006101000a81548160ff0219169083151502179055507347879ac781938cffd879392cd2164b9f7306188a601260016101000a81548173ffffffffffffffffffffffffffffffffffffffff021916908373ffffffffffffffffffffffffffffffffffffffff1602179055503480156200018e57600080fd5b506040516020806200476283398101806040528101908080519060200190929190505050336000806101000a81548173ffffffffffffffffffffffffffffffffffffffff021916908373ffffffffffffffffffffffffffffffffffffffff16021790555080600760006101000a81548173ffffffffffffffffffffffffffffffffffffffff021916908373ffffffffffffffffffffffffffffffffffffffff16021790555060016006600073cd16575a90ed9506bcf44c78845d93f1b647f48c73ffffffffffffffffffffffffffffffffffffffff1673ffffffffffffffffffffffffffffffffffffffff16815260200190815260200160002060006101000a81548160ff0219169083151502179055505062000355565b828054600181600116156101000203166002900490600052602060002090601f016020900481019282601f10620002e957805160ff19168380011785556200031a565b828001600101855582156200031a579182015b8281111562000319578251825591602001919060010190620002fc565b5b5090506200032991906200032d565b5090565b6200035291905b808211156200034e57600081600090555060010162000334565b5090565b90565b6143fd80620003656000396000f30060806040526004361061023a576000357c0100000000000000000000000000000000000000000000000000000000900463ffffffff16806265318b1461023c57806306fdde03146102935780630988ca8c1461032357806310d0ffdd146103ac578063150c95a8146103ed57806318160ddd1461042e57806318b919e914610459578063217fe6c6146104e9578063236ffbbf1461058a57806324953eaa146105b557806327defa1f1461061b578063286dd3f51461064a578063313ce5671461068d5780633be8eb7e146106be578063465346491461070b5780634b750334146107625780634e71e0c81461078d57806351cff8d9146107a457806356d399e8146107e757806359e4644d146108125780636c197ff51461086957806370a08231146108b6578063715018a61461090d5780637b9417c8146109245780638620410b146109675780638da5cb5b1461099257806395d89b41146109e95780639b19251a14610a795780639f40dd4214610ad4578063a19ec23314610b2b578063a8e04f3414610b82578063ad7a672f14610b99578063b42652e914610bc4578063b73f34b414610c07578063b84c824614610c48578063c383abaa14610cb1578063c47f002714610d14578063d18e97ad14610d7d578063d3d6dce714610dc0578063d65a261714610e21578063db61c76e14610e6e578063e2ec6ec314610ee2578063e30c397814610f48578063f2fde38b14610f9f578063f3fef3a314610fe2578063f5aaee7b1461102f578063ff58bf501461105a575b005b34801561024857600080fd5b5061027d600480360381019080803573ffffffffffffffffffffffffffffffffffffffff1690602001909291905050506110b1565b6040518082815260200191505060405180910390f35b34801561029f57600080fd5b506102a8611153565b6040518080602001828103825283818151815260200191508051906020019080838360005b838110156102e85780820151818401526020810190506102cd565b50505050905090810190601f1680156103155780820380516001836020036101000a031916815260200191505b509250505060405180910390f35b34801561032f57600080fd5b506103aa600480360381019080803573ffffffffffffffffffffffffffffffffffffffff169060200190929190803590602001908201803590602001908080601f01602080910402602001604051908101604052809392919081815260200183838082843782019150505050505091929192905050506111f1565b005b3480156103b857600080fd5b506103d760048036038101908080359060200190929190505050611272565b6040518082815260200191505060405180910390f35b3480156103f957600080fd5b50610418600480360381019080803590602001909291905050506112aa565b6040518082815260200191505060405180910390f35b34801561043a57600080fd5b506104436112e2565b6040518082815260200191505060405180910390f35b34801561046557600080fd5b5061046e6112ec565b6040518080602001828103825283818151815260200191508051906020019080838360005b838110156104ae578082015181840152602081019050610493565b50505050905090810190601f1680156104db5780820380516001836020036101000a031916815260200191505b509250505060405180910390f35b3480156104f557600080fd5b50610570600480360381019080803573ffffffffffffffffffffffffffffffffffffffff169060200190929190803590602001908201803590602001908080601f0160208091040260200160405190810160405280939291908181526020018383808284378201915050505050509192919290505050611325565b604051808215151515815260200191505060405180910390f35b34801561059657600080fd5b5061059f6113ac565b6040518082815260200191505060405180910390f35b3480156105c157600080fd5b50610619600480360381019080803590602001908201803590602001908080602002602001604051908101604052809392919081815260200183836020028082843782019150505050505091929192905050506113b2565b005b34801561062757600080fd5b5061063061144e565b604051808215151515815260200191505060405180910390f35b34801561065657600080fd5b5061068b600480360381019080803573ffffffffffffffffffffffffffffffffffffffff169060200190929190505050611461565b005b34801561069957600080fd5b506106a26114fe565b604051808260ff1660ff16815260200191505060405180910390f35b3480156106ca57600080fd5b50610709600480360381019080803573ffffffffffffffffffffffffffffffffffffffff16906020019092919080359060200190929190505050611503565b005b34801561071757600080fd5b5061074c600480360381019080803573ffffffffffffffffffffffffffffffffffffffff1690602001909291905050506117dc565b6040518082815260200191505060405180910390f35b34801561076e57600080fd5b50610777611825565b6040518082815260200191505060405180910390f35b34801561079957600080fd5b506107a261188b565b005b3480156107b057600080fd5b506107e5600480360381019080803573ffffffffffffffffffffffffffffffffffffffff169060200190929190505050611a2a565b005b3480156107f357600080fd5b506107fc611cce565b6040518082815260200191505060405180910390f35b34801561081e57600080fd5b50610827611cd4565b604051808273ffffffffffffffffffffffffffffffffffffffff1673ffffffffffffffffffffffffffffffffffffffff16815260200191505060405180910390f35b34801561087557600080fd5b506108b4600480360381019080803573ffffffffffffffffffffffffffffffffffffffff16906020019092919080359060200190929190505050611cfa565b005b3480156108c257600080fd5b506108f7600480360381019080803573ffffffffffffffffffffffffffffffffffffffff169060200190929190505050611f81565b6040518082815260200191505060405180910390f35b34801561091957600080fd5b50610922611fca565b005b34801561093057600080fd5b50610965600480360381019080803573ffffffffffffffffffffffffffffffffffffffff1690602001909291905050506120cc565b005b34801561097357600080fd5b5061097c612169565b6040518082815260200191505060405180910390f35b34801561099e57600080fd5b506109a76121cf565b604051808273ffffffffffffffffffffffffffffffffffffffff1673ffffffffffffffffffffffffffffffffffffffff16815260200191505060405180910390f35b3480156109f557600080fd5b506109fe6121f4565b6040518080602001828103825283818151815260200191508051906020019080838360005b83811015610a3e578082015181840152602081019050610a23565b50505050905090810190601f168015610a6b5780820380516001836020036101000a031916815260200191505b509250505060405180910390f35b348015610a8557600080fd5b50610aba600480360381019080803573ffffffffffffffffffffffffffffffffffffffff169060200190929190505050612292565b604051808215151515815260200191505060405180910390f35b348015610ae057600080fd5b50610b15600480360381019080803573ffffffffffffffffffffffffffffffffffffffff1690602001909291905050506122da565b6040518082815260200191505060405180910390f35b348015610b3757600080fd5b50610b6c600480360381019080803573ffffffffffffffffffffffffffffffffffffffff1690602001909291905050506122f2565b6040518082815260200191505060405180910390f35b348015610b8e57600080fd5b50610b9761230a565b005b348015610ba557600080fd5b50610bae612382565b6040518082815260200191505060405180910390f35b348015610bd057600080fd5b50610c05600480360381019080803573ffffffffffffffffffffffffffffffffffffffff169060200190929190505050612481565b005b348015610c1357600080fd5b50610c326004803603810190808035906020019092919050505061252c565b6040518082815260200191505060405180910390f35b348015610c5457600080fd5b50610caf600480360381019080803590602001908201803590602001908080601f016020809104026020016040519081016040528093929190818152602001838380828437820191505050505050919291929050505061257a565b005b348015610cbd57600080fd5b50610cfe600480360381019080803573ffffffffffffffffffffffffffffffffffffffff1690602001909291908035151590602001909291905050506125ef565b6040518082815260200191505060405180910390f35b348015610d2057600080fd5b50610d7b600480360381019080803590602001908201803590602001908080601f016020809104026020016040519081016040528093929190818152602001838380828437820191505050505050919291929050505061265c565b005b348015610d8957600080fd5b50610dbe600480360381019080803573ffffffffffffffffffffffffffffffffffffffff1690602001909291905050506126d1565b005b348015610dcc57600080fd5b50610e0b600480360381019080803573ffffffffffffffffffffffffffffffffffffffff16906020019092919080359060200190929190505050612770565b6040518082815260200191505060405180910390f35b348015610e2d57600080fd5b50610e6c600480360381019080803573ffffffffffffffffffffffffffffffffffffffff16906020019092919080359060200190929190505050612a0e565b005b610ecc600480360381019080803573ffffffffffffffffffffffffffffffffffffffff16906020019092919080359060200190929190803573ffffffffffffffffffffffffffffffffffffffff169060200190929190505050612c87565b6040518082815260200191505060405180910390f35b348015610eee57600080fd5b50610f4660048036038101908080359060200190820180359060200190808060200260200160405190810160405280939291908181526020018383602002808284378201915050505050509192919290505050612e1c565b005b348015610f5457600080fd5b50610f5d612eb8565b604051808273ffffffffffffffffffffffffffffffffffffffff1673ffffffffffffffffffffffffffffffffffffffff16815260200191505060405180910390f35b348015610fab57600080fd5b50610fe0600480360381019080803573ffffffffffffffffffffffffffffffffffffffff169060200190929190505050612ede565b005b348015610fee57600080fd5b5061102d600480360381019080803573ffffffffffffffffffffffffffffffffffffffff16906020019092919080359060200190929190505050612f7d565b005b34801561103b57600080fd5b506110446132de565b6040518082815260200191505060405180910390f35b34801561106657600080fd5b5061106f6132e4565b604051808273ffffffffffffffffffffffffffffffffffffffff1673ffffffffffffffffffffffffffffffffffffffff16815260200191505060405180910390f35b600068010000000000000000600a60008473ffffffffffffffffffffffffffffffffffffffff1673ffffffffffffffffffffffffffffffffffffffff16815260200190815260200160002054600860008573ffffffffffffffffffffffffffffffffffffffff1673ffffffffffffffffffffffffffffffffffffffff16815260200190815260200160002054600f54020381151561114b57fe5b049050919050565b60038054600181600116156101000203166002900480601f0160208091040260200160405190810160405280929190818152602001828054600181600116156101000203166002900480156111e95780601f106111be576101008083540402835291602001916111e9565b820191906000526020600020905b8154815290600101906020018083116111cc57829003601f168201915b505050505081565b61126e826002836040518082805190602001908083835b60208310151561122d5780518252602082019150602081019050602083039250611208565b6001836020036101000a038019825116818451168082178552505050505050905001915050908152602001604051809103902061330a90919063ffffffff16565b5050565b60008060008061128685600a60ff16613323565b92506112928584613339565b915061129d82613352565b9050809350505050919050565b6000806000806112b9856133e7565b92506112c983600a60ff16613323565b91506112d58383613339565b9050809350505050919050565b6000600e54905090565b6040805190810160405280600981526020017f77686974656c697374000000000000000000000000000000000000000000000081525081565b60006113a4836002846040518082805190602001908083835b602083101515611363578051825260208201915060208101905060208303925061133e565b6001836020036101000a038019825116818451168082178552505050505050905001915050908152602001604051809103902061349c90919063ffffffff16565b905092915050565b60115481565b60008060009054906101000a900473ffffffffffffffffffffffffffffffffffffffff1673ffffffffffffffffffffffffffffffffffffffff163373ffffffffffffffffffffffffffffffffffffffff1614151561140f57600080fd5b600090505b815181101561144a5761143d828281518110151561142e57fe5b90602001906020020151611461565b8080600101915050611414565b5050565b601260009054906101000a900460ff1681565b6000809054906101000a900473ffffffffffffffffffffffffffffffffffffffff1673ffffffffffffffffffffffffffffffffffffffff163373ffffffffffffffffffffffffffffffffffffffff161415156114bc57600080fd5b6114fb816040805190810160405280600981526020017f77686974656c69737400000000000000000000000000000000000000000000008152506134f5565b50565b601281565b60008060008060003361154b816040805190810160405280600981526020017f77686974656c69737400000000000000000000000000000000000000000000008152506111f1565b611553613629565b871115151561156157600080fd5b87955061156d876133e7565b9450611577612382565b851115151561158557600080fd5b61159385600a60ff16613323565b935061159f8585613339565b92506115ad60115488613649565b6011819055506115fc600d60008873ffffffffffffffffffffffffffffffffffffffff1673ffffffffffffffffffffffffffffffffffffffff1681526020019081526020016000205488613649565b600d60008873ffffffffffffffffffffffffffffffffffffffff1673ffffffffffffffffffffffffffffffffffffffff16815260200190815260200160002081905550611647613665565b9150600082111561167b57611674600f548368010000000000000000870281151561166e57fe5b04613649565b600f819055505b600760009054906101000a900473ffffffffffffffffffffffffffffffffffffffff1673ffffffffffffffffffffffffffffffffffffffff1663a9059cbb87856040518363ffffffff167c0100000000000000000000000000000000000000000000000000000000028152600401808373ffffffffffffffffffffffffffffffffffffffff1673ffffffffffffffffffffffffffffffffffffffff16815260200182815260200192505050602060405180830381600087803b15801561174057600080fd5b505af1158015611754573d6000803e3d6000fd5b505050506040513d602081101561176a57600080fd5b8101908080519060200190929190505050508573ffffffffffffffffffffffffffffffffffffffff167fe9d4fb0074327a194c752e06c8b2fce4a89cd86202090528bb81582a3f20fedd8885604051808381526020018281526020019250505060405180910390a25050505050505050565b6000600960008373ffffffffffffffffffffffffffffffffffffffff1673ffffffffffffffffffffffffffffffffffffffff168152602001908152602001600020549050919050565b6000806000806000611835613629565b141561185257655e2ff10350006603addf6a212000039350611885565b611863670de0b6b3a76400006133e7565b925061187383600a60ff16613323565b915061187f8383613339565b90508093505b50505090565b600160009054906101000a900473ffffffffffffffffffffffffffffffffffffffff1673ffffffffffffffffffffffffffffffffffffffff163373ffffffffffffffffffffffffffffffffffffffff161415156118e757600080fd5b600160009054906101000a900473ffffffffffffffffffffffffffffffffffffffff1673ffffffffffffffffffffffffffffffffffffffff166000809054906101000a900473ffffffffffffffffffffffffffffffffffffffff1673ffffffffffffffffffffffffffffffffffffffff167f8be0079c531659141344cd1fd0a4f28419497f9722a3daafe3b4186f6b6457e060405160405180910390a3600160009054906101000a900473ffffffffffffffffffffffffffffffffffffffff166000806101000a81548173ffffffffffffffffffffffffffffffffffffffff021916908373ffffffffffffffffffffffffffffffffffffffff1602179055506000600160006101000a81548173ffffffffffffffffffffffffffffffffffffffff021916908373ffffffffffffffffffffffffffffffffffffffff160217905550565b600080826000611a3b8260016125ef565b111515611a4757600080fd5b33611a87816040805190810160405280600981526020017f77686974656c69737400000000000000000000000000000000000000000000008152506111f1565b849350611a958460006125ef565b9250680100000000000000008302600a60008673ffffffffffffffffffffffffffffffffffffffff1673ffffffffffffffffffffffffffffffffffffffff16815260200190815260200160002060008282540192505081905550600960008573ffffffffffffffffffffffffffffffffffffffff1673ffffffffffffffffffffffffffffffffffffffff16815260200190815260200160002054830192506000600960008673ffffffffffffffffffffffffffffffffffffffff1673ffffffffffffffffffffffffffffffffffffffff16815260200190815260200160002081905550600760009054906101000a900473ffffffffffffffffffffffffffffffffffffffff1673ffffffffffffffffffffffffffffffffffffffff1663a9059cbb85856040518363ffffffff167c0100000000000000000000000000000000000000000000000000000000028152600401808373ffffffffffffffffffffffffffffffffffffffff1673ffffffffffffffffffffffffffffffffffffffff16815260200182815260200192505050602060405180830381600087803b158015611c3d57600080fd5b505af1158015611c51573d6000803e3d6000fd5b505050506040513d6020811015611c6757600080fd5b8101908080519060200190929190505050508373ffffffffffffffffffffffffffffffffffffffff167fccad973dcd043c7d680389db4378bd6b9775db7124092e9e0422c9e46d7985dc846040518082815260200191505060405180910390a25050505050565b60055481565b601260019054906101000a900473ffffffffffffffffffffffffffffffffffffffff1681565b6000806000806000806000886000611d1182611f81565b111515611d1d57600080fd5b33611d5d816040805190810160405280600981526020017f77686974656c69737400000000000000000000000000000000000000000000008152506111f1565b8a9850600860008a73ffffffffffffffffffffffffffffffffffffffff1673ffffffffffffffffffffffffffffffffffffffff168152602001908152602001600020548a11151515611dae57600080fd5b899750611dba886133e7565b9650611dca87600a60ff16613323565b9550611dd58661366f565b9550611de18787613339565b9450611def600e5489613339565b600e81905550611e3e600860008b73ffffffffffffffffffffffffffffffffffffffff1673ffffffffffffffffffffffffffffffffffffffff1681526020019081526020016000205489613339565b600860008b73ffffffffffffffffffffffffffffffffffffffff1673ffffffffffffffffffffffffffffffffffffffff1681526020019081526020016000208190555068010000000000000000850288600f540201935083600a60008b73ffffffffffffffffffffffffffffffffffffffff1673ffffffffffffffffffffffffffffffffffffffff16815260200190815260200160002060008282540392505081905550611eea613665565b92506000831115611f1e57611f17600f5484680100000000000000008902811515611f1157fe5b04613649565b600f819055505b8873ffffffffffffffffffffffffffffffffffffffff167fc4823739c5787d2ca17e404aa47d5569ae71dfb49cbf21b3f6152ed238a311398987604051808381526020018281526020019250505060405180910390a25050505050505050505050565b6000600860008373ffffffffffffffffffffffffffffffffffffffff1673ffffffffffffffffffffffffffffffffffffffff168152602001908152602001600020549050919050565b6000809054906101000a900473ffffffffffffffffffffffffffffffffffffffff1673ffffffffffffffffffffffffffffffffffffffff163373ffffffffffffffffffffffffffffffffffffffff1614151561202557600080fd5b6000809054906101000a900473ffffffffffffffffffffffffffffffffffffffff1673ffffffffffffffffffffffffffffffffffffffff167ff8df31144d9c2f0f6b59d69b8b98abd5459d07f2742c4df920b25aae33c6482060405160405180910390a260008060006101000a81548173ffffffffffffffffffffffffffffffffffffffff021916908373ffffffffffffffffffffffffffffffffffffffff160217905550565b6000809054906101000a900473ffffffffffffffffffffffffffffffffffffffff1673ffffffffffffffffffffffffffffffffffffffff163373ffffffffffffffffffffffffffffffffffffffff1614151561212757600080fd5b612166816040805190810160405280600981526020017f77686974656c697374000000000000000000000000000000000000000000000081525061387b565b50565b6000806000806000612179613629565b141561219657655e2ff10350006603addf6a2120000193506121c9565b6121a7670de0b6b3a76400006133e7565b92506121b783600a60ff16613323565b91506121c38383613649565b90508093505b50505090565b6000809054906101000a900473ffffffffffffffffffffffffffffffffffffffff1681565b60048054600181600116156101000203166002900480601f01602080910402602001604051908101604052809291908181526020018280546001816001161561010002031660029004801561228a5780601f1061225f5761010080835404028352916020019161228a565b820191906000526020600020905b81548152906001019060200180831161226d57829003601f168201915b505050505081565b60006122d3826040805190810160405280600981526020017f77686974656c6973740000000000000000000000000000000000000000000000815250611325565b9050919050565b600c6020528060005260406000206000915090505481565b600d6020528060005260406000206000915090505481565b6000809054906101000a900473ffffffffffffffffffffffffffffffffffffffff1673ffffffffffffffffffffffffffffffffffffffff163373ffffffffffffffffffffffffffffffffffffffff1614151561236557600080fd5b6000601260006101000a81548160ff021916908315150217905550565b6000600760009054906101000a900473ffffffffffffffffffffffffffffffffffffffff1673ffffffffffffffffffffffffffffffffffffffff166370a08231306040518263ffffffff167c0100000000000000000000000000000000000000000000000000000000028152600401808273ffffffffffffffffffffffffffffffffffffffff1673ffffffffffffffffffffffffffffffffffffffff168152602001915050602060405180830381600087803b15801561244157600080fd5b505af1158015612455573d6000803e3d6000fd5b505050506040513d602081101561246b57600080fd5b8101908080519060200190929190505050905090565b600080336124c4816040805190810160405280600981526020017f77686974656c69737400000000000000000000000000000000000000000000008152506111f1565b839250600860008473ffffffffffffffffffffffffffffffffffffffff1673ffffffffffffffffffffffffffffffffffffffff168152602001908152602001600020549150600082111561251d5761251c8483611cfa565b5b61252684611a2a565b50505050565b60008060008061253a613629565b851115151561254857600080fd5b612551856133e7565b925061256183600a60ff16613323565b915061256d8383613339565b9050809350505050919050565b6000809054906101000a900473ffffffffffffffffffffffffffffffffffffffff1673ffffffffffffffffffffffffffffffffffffffff163373ffffffffffffffffffffffffffffffffffffffff161415156125d557600080fd5b80600490805190602001906125eb92919061432c565b5050565b6000808390508261260857612603816110b1565b612653565b600960008273ffffffffffffffffffffffffffffffffffffffff1673ffffffffffffffffffffffffffffffffffffffff16815260200190815260200160002054612651826110b1565b015b91505092915050565b6000809054906101000a900473ffffffffffffffffffffffffffffffffffffffff1673ffffffffffffffffffffffffffffffffffffffff163373ffffffffffffffffffffffffffffffffffffffff161415156126b757600080fd5b80600390805190602001906126cd92919061432c565b5050565b6000809054906101000a900473ffffffffffffffffffffffffffffffffffffffff1673ffffffffffffffffffffffffffffffffffffffff163373ffffffffffffffffffffffffffffffffffffffff1614151561272c57600080fd5b80601260016101000a81548173ffffffffffffffffffffffffffffffffffffffff021916908373ffffffffffffffffffffffffffffffffffffffff16021790555050565b60008060008085600061278282611f81565b11151561278e57600080fd5b336127ce816040805190810160405280600981526020017f77686974656c69737400000000000000000000000000000000000000000000008152506111f1565b879450600860008673ffffffffffffffffffffffffffffffffffffffff1673ffffffffffffffffffffffffffffffffffffffff16815260200190815260200160002054871115151561281f57600080fd5b86935061282e600e5485613339565b600e8190555061284060105485613649565b60108190555061288f600860008773ffffffffffffffffffffffffffffffffffffffff1673ffffffffffffffffffffffffffffffffffffffff1681526020019081526020016000205485613339565b600860008773ffffffffffffffffffffffffffffffffffffffff1673ffffffffffffffffffffffffffffffffffffffff1681526020019081526020016000208190555061291b600c60008773ffffffffffffffffffffffffffffffffffffffff1673ffffffffffffffffffffffffffffffffffffffff1681526020019081526020016000205485613649565b600c60008773ffffffffffffffffffffffffffffffffffffffff1673ffffffffffffffffffffffffffffffffffffffff1681526020019081526020016000208190555083600f5402925082600a60008773ffffffffffffffffffffffffffffffffffffffff1673ffffffffffffffffffffffffffffffffffffffff168152602001908152602001600020600082825403925050819055508473ffffffffffffffffffffffffffffffffffffffff167ff442d356b73f85e354ab3e2be58a493fbcbfc105e75bd7cef5c6d1882bd20715856040518082815260200191505060405180910390a2839550505050505092915050565b6000806000846000612a218260016125ef565b111515612a2d57600080fd5b33612a6d816040805190810160405280600981526020017f77686974656c69737400000000000000000000000000000000000000000000008152506111f1565b612a788760006125ef565b9450600960008873ffffffffffffffffffffffffffffffffffffffff1673ffffffffffffffffffffffffffffffffffffffff1681526020019081526020016000205493508385018611151515612acd57600080fd5b8486111515612b3357680100000000000000008602600a60008973ffffffffffffffffffffffffffffffffffffffff1673ffffffffffffffffffffffffffffffffffffffff16815260200190815260200160002060008282540192505081905550612c1a565b680100000000000000008502600a60008973ffffffffffffffffffffffffffffffffffffffff1673ffffffffffffffffffffffffffffffffffffffff16815260200190815260200160002060008282540192505081905550612bd6600960008973ffffffffffffffffffffffffffffffffffffffff1673ffffffffffffffffffffffffffffffffffffffff16815260200190815260200160002054868803613339565b600960008973ffffffffffffffffffffffffffffffffffffffff1673ffffffffffffffffffffffffffffffffffffffff168152602001908152602001600020819055505b612c26878760006139af565b92508673ffffffffffffffffffffffffffffffffffffffff167fbe339fc14b041c2b0e0f3dd2cd325d0c3668b78378001e53160eab36153264588785604051808381526020018281526020019250505060405180910390a250505050505050565b600033612cc9816040805190810160405280600981526020017f77686974656c69737400000000000000000000000000000000000000000000008152506111f1565b600760009054906101000a900473ffffffffffffffffffffffffffffffffffffffff1673ffffffffffffffffffffffffffffffffffffffff166323b872dd8630876040518463ffffffff167c0100000000000000000000000000000000000000000000000000000000028152600401808473ffffffffffffffffffffffffffffffffffffffff1673ffffffffffffffffffffffffffffffffffffffff1681526020018373ffffffffffffffffffffffffffffffffffffffff1673ffffffffffffffffffffffffffffffffffffffff1681526020018281526020019350505050602060405180830381600087803b158015612dc257600080fd5b505af1158015612dd6573d6000803e3d6000fd5b505050506040513d6020811015612dec57600080fd5b81019080805190602001909291905050501515612e0857600080fd5b612e138585856139af565b50509392505050565b60008060009054906101000a900473ffffffffffffffffffffffffffffffffffffffff1673ffffffffffffffffffffffffffffffffffffffff163373ffffffffffffffffffffffffffffffffffffffff16141515612e7957600080fd5b600090505b8151811015612eb457612ea78282815181101515612e9857fe5b906020019060200201516120cc565b8080600101915050612e7e565b5050565b600160009054906101000a900473ffffffffffffffffffffffffffffffffffffffff1681565b6000809054906101000a900473ffffffffffffffffffffffffffffffffffffffff1673ffffffffffffffffffffffffffffffffffffffff163373ffffffffffffffffffffffffffffffffffffffff16141515612f3957600080fd5b80600160006101000a81548173ffffffffffffffffffffffffffffffffffffffff021916908373ffffffffffffffffffffffffffffffffffffffff16021790555050565b600080836000612f8e8260016125ef565b111515612f9a57600080fd5b33612fda816040805190810160405280600981526020017f77686974656c69737400000000000000000000000000000000000000000000008152506111f1565b612fe58660006125ef565b9350600960008773ffffffffffffffffffffffffffffffffffffffff1673ffffffffffffffffffffffffffffffffffffffff168152602001908152602001600020549250828401851115151561303a57600080fd5b83851115156130a057680100000000000000008502600a60008873ffffffffffffffffffffffffffffffffffffffff1673ffffffffffffffffffffffffffffffffffffffff16815260200190815260200160002060008282540192505081905550613187565b680100000000000000008402600a60008873ffffffffffffffffffffffffffffffffffffffff1673ffffffffffffffffffffffffffffffffffffffff16815260200190815260200160002060008282540192505081905550613143600960008873ffffffffffffffffffffffffffffffffffffffff1673ffffffffffffffffffffffffffffffffffffffff16815260200190815260200160002054858703613339565b600960008873ffffffffffffffffffffffffffffffffffffffff1673ffffffffffffffffffffffffffffffffffffffff168152602001908152602001600020819055505b600760009054906101000a900473ffffffffffffffffffffffffffffffffffffffff1673ffffffffffffffffffffffffffffffffffffffff1663a9059cbb87866040518363ffffffff167c0100000000000000000000000000000000000000000000000000000000028152600401808373ffffffffffffffffffffffffffffffffffffffff1673ffffffffffffffffffffffffffffffffffffffff16815260200182815260200192505050602060405180830381600087803b15801561324c57600080fd5b505af1158015613260573d6000803e3d6000fd5b505050506040513d602081101561327657600080fd5b8101908080519060200190929190505050508573ffffffffffffffffffffffffffffffffffffffff167fccad973dcd043c7d680389db4378bd6b9775db7124092e9e0422c9e46d7985dc866040518082815260200191505060405180910390a2505050505050565b60105481565b600760009054906101000a900473ffffffffffffffffffffffffffffffffffffffff1681565b613314828261349c565b151561331f57600080fd5b5050565b6000818381151561333057fe5b04905092915050565b600082821115151561334757fe5b818303905092915050565b6000806000806603addf6a212000925061336a613629565b9150600e54655e2ff10350006133cf6133c9600e5487655e2ff103500060020202026002600e540a6002655e2ff10350000a02670de0b6b3a76400008b02670de0b6b3a7640000655e2ff1035000026002020260028a0a010101614225565b86613339565b8115156133d857fe5b04039050809350505050919050565b600080600080670de0b6b3a764000085019250670de0b6b3a764000061340b613629565b019150670de0b6b3a7640000613485670de0b6b3a76400008503655e2ff1035000670de0b6b3a76400008681151561343f57fe5b04655e2ff1035000026603addf6a2120000103026002670de0b6b3a7640000876002890a0381151561346d57fe5b04655e2ff10350000281151561347f57fe5b04613339565b81151561348e57fe5b049050809350505050919050565b60008260000160008373ffffffffffffffffffffffffffffffffffffffff1673ffffffffffffffffffffffffffffffffffffffff16815260200190815260200160002060009054906101000a900460ff16905092915050565b613572826002836040518082805190602001908083835b602083101515613531578051825260208201915060208101905060208303925061350c565b6001836020036101000a038019825116818451168082178552505050505050905001915050908152602001604051809103902061427090919063ffffffff16565b8173ffffffffffffffffffffffffffffffffffffffff167fd211483f91fc6eff862467f8de606587a30c8fc9981056f051b897a418df803a826040518080602001828103825283818151815260200191508051906020019080838360005b838110156135eb5780820151818401526020810190506135d0565b50505050905090810190601f1680156136185780820380516001836020036101000a031916815260200191505b509250505060405180910390a25050565b600061364461363c600e54601054613649565b601154613339565b905090565b6000818301905082811015151561365c57fe5b80905092915050565b6000600e54905090565b600080600080603260ff1611156138705761368e84603260ff16613323565b915061369a8483613339565b9050600760009054906101000a900473ffffffffffffffffffffffffffffffffffffffff1673ffffffffffffffffffffffffffffffffffffffff1663a9059cbb601260019054906101000a900473ffffffffffffffffffffffffffffffffffffffff16846040518363ffffffff167c0100000000000000000000000000000000000000000000000000000000028152600401808373ffffffffffffffffffffffffffffffffffffffff1673ffffffffffffffffffffffffffffffffffffffff16815260200182815260200192505050602060405180830381600087803b15801561378357600080fd5b505af1158015613797573d6000803e3d6000fd5b505050506040513d60208110156137ad57600080fd5b810190808051906020019092919050505050601260019054906101000a900473ffffffffffffffffffffffffffffffffffffffff1673ffffffffffffffffffffffffffffffffffffffff16633d32fc19836040518263ffffffff167c010000000000000000000000000000000000000000000000000000000002815260040180828152602001915050600060405180830381600087803b15801561385057600080fd5b505af1158015613864573d6000803e3d6000fd5b50505050809250613874565b8392505b5050919050565b6138f8826002836040518082805190602001908083835b6020831015156138b75780518252602082019150602081019050602083039250613892565b6001836020036101000a03801982511681845116808217855250505050505090500191505090815260200160405180910390206142ce90919063ffffffff16565b8173ffffffffffffffffffffffffffffffffffffffff167fbfec83d64eaa953f2708271a023ab9ee82057f8f3578d548c1a4ba0b5b700489826040518080602001828103825283818151815260200191508051906020019080838360005b83811015613971578082015181840152602081019050613956565b50505050905090810190601f16801561399e5780820380516001836020036101000a031916815260200191505b509250505060405180910390a25050565b600080600080600080600089896000829050601260009054906101000a900460ff1680156139e9575062030d40826139e5612382565b0311155b15613e935760011515600660008373ffffffffffffffffffffffffffffffffffffffff1673ffffffffffffffffffffffffffffffffffffffff16815260200190815260200160002060009054906101000a900460ff161515148015613a91575061271082600b60008473ffffffffffffffffffffffffffffffffffffffff1673ffffffffffffffffffffffffffffffffffffffff168152602001908152602001600020540111155b1515613a9c57600080fd5b613ae5600b60008373ffffffffffffffffffffffffffffffffffffffff1673ffffffffffffffffffffffffffffffffffffffff1681526020019081526020016000205483613649565b600b60008373ffffffffffffffffffffffffffffffffffffffff1673ffffffffffffffffffffffffffffffffffffffff16815260200190815260200160002081905550613b368c600a60ff16613323565b9850613b418961366f565b9850613b4e896003613323565b9750613b5a8989613339565b9650613b668c8a613339565b9550613b7186613352565b94506801000000000000000087029350600085118015613b9d5750600e54613b9b86600e54613649565b115b1515613ba857600080fd5b600073ffffffffffffffffffffffffffffffffffffffff168b73ffffffffffffffffffffffffffffffffffffffff1614158015613c1157508c73ffffffffffffffffffffffffffffffffffffffff168b73ffffffffffffffffffffffffffffffffffffffff1614155b15613ca757613c5f600960008d73ffffffffffffffffffffffffffffffffffffffff1673ffffffffffffffffffffffffffffffffffffffff1681526020019081526020016000205489613649565b600960008d73ffffffffffffffffffffffffffffffffffffffff1673ffffffffffffffffffffffffffffffffffffffff16815260200190815260200160002081905550613cc2565b613cb18789613649565b965068010000000000000000870293505b6000600e541115613d3757613cd9600e5486613649565b600e81905550613ce7613665565b680100000000000000008802811515613cfc57fe5b04600f60008282540192505081905550613d14613665565b680100000000000000008802811515613d2957fe5b048502840384039350613d3f565b84600e819055505b613d88600860008f73ffffffffffffffffffffffffffffffffffffffff1673ffffffffffffffffffffffffffffffffffffffff1681526020019081526020016000205486613649565b600860008f73ffffffffffffffffffffffffffffffffffffffff1673ffffffffffffffffffffffffffffffffffffffff168152602001908152602001600020819055508385600f540203600a60008f73ffffffffffffffffffffffffffffffffffffffff1673ffffffffffffffffffffffffffffffffffffffff168152602001908152602001600020600082825401925050819055508a73ffffffffffffffffffffffffffffffffffffffff168d73ffffffffffffffffffffffffffffffffffffffff167f022c0d992e4d873a3748436d960d5140c1f9721cf73f7ca5ec679d3d9f4fe2d58e88604051808381526020018281526020019250505060405180910390a3849950614215565b6000601260006101000a81548160ff021916908315150217905550613ebc8c600a60ff16613323565b9850613ec78961366f565b9850613ed4896003613323565b9750613ee08989613339565b9650613eec8c8a613339565b9550613ef786613352565b94506801000000000000000087029350600085118015613f235750600e54613f2186600e54613649565b115b1515613f2e57600080fd5b600073ffffffffffffffffffffffffffffffffffffffff168b73ffffffffffffffffffffffffffffffffffffffff1614158015613f9757508c73ffffffffffffffffffffffffffffffffffffffff168b73ffffffffffffffffffffffffffffffffffffffff1614155b1561402d57613fe5600960008d73ffffffffffffffffffffffffffffffffffffffff1673ffffffffffffffffffffffffffffffffffffffff1681526020019081526020016000205489613649565b600960008d73ffffffffffffffffffffffffffffffffffffffff1673ffffffffffffffffffffffffffffffffffffffff16815260200190815260200160002081905550614048565b6140378789613649565b965068010000000000000000870293505b6000600e5411156140bd5761405f600e5486613649565b600e8190555061406d613665565b68010000000000000000880281151561408257fe5b04600f6000828254019250508190555061409a613665565b6801000000000000000088028115156140af57fe5b0485028403840393506140c5565b84600e819055505b61410e600860008f73ffffffffffffffffffffffffffffffffffffffff1673ffffffffffffffffffffffffffffffffffffffff1681526020019081526020016000205486613649565b600860008f73ffffffffffffffffffffffffffffffffffffffff1673ffffffffffffffffffffffffffffffffffffffff168152602001908152602001600020819055508385600f540203600a60008f73ffffffffffffffffffffffffffffffffffffffff1673ffffffffffffffffffffffffffffffffffffffff168152602001908152602001600020600082825401925050819055508a73ffffffffffffffffffffffffffffffffffffffff168d73ffffffffffffffffffffffffffffffffffffffff167f022c0d992e4d873a3748436d960d5140c1f9721cf73f7ca5ec679d3d9f4fe2d58e88604051808381526020018281526020019250505060405180910390a38499505b5050505050505050509392505050565b60008060026001840181151561423757fe5b0490508291505b8181101561426a57809150600281828581151561425757fe5b040181151561426257fe5b04905061423e565b50919050565b60008260000160008373ffffffffffffffffffffffffffffffffffffffff1673ffffffffffffffffffffffffffffffffffffffff16815260200190815260200160002060006101000a81548160ff0219169083151502179055505050565b60018260000160008373ffffffffffffffffffffffffffffffffffffffff1673ffffffffffffffffffffffffffffffffffffffff16815260200190815260200160002060006101000a81548160ff0219169083151502179055505050565b828054600181600116156101000203166002900490600052602060002090601f016020900481019282601f1061436d57805160ff191683800117855561439b565b8280016001018555821561439b579182015b8281111561439a57825182559160200191906001019061437f565b5b5090506143a891906143ac565b5090565b6143ce91905b808211156143ca5760008160009055506001016143b2565b5090565b905600a165627a7a7230582018ece705e568ddaf3ccaad1792c74d013b3b7b3649ab33c19e5325951bdc54eb0029",
  "source": "pragma solidity ^0.4.21;\r\nimport \"zeppelin-solidity/contracts/math/SafeMath.sol\";\r\nimport \"zeppelin-solidity/contracts/ownership/Claimable.sol\";\r\nimport \"zeppelin-solidity/contracts/token/ERC20/ERC20.sol\";\r\nimport \"zeppelin-solidity/contracts/access/Whitelist.sol\";\r\nimport \"../contracts/interface/TokenDealerInterface.sol\";\r\nimport \"./SeeleDividendsToEth.sol\";\r\n\r\ncontract SeeleDealer is Claimable, Whitelist{ \r\n\r\n    /*=================================\r\n    =            MODIFIERS            =\r\n    =================================*/\r\n    // only people with tokens\r\n    modifier onlyBagholders(address myAddress) {\r\n        require(balanceOf(myAddress) > 0);\r\n        _;\r\n    }\r\n    \r\n    // only people with profits\r\n    modifier onlyStronghands(address myAddress) {\r\n        require(myDividends(myAddress, true) > 0);\r\n        _;\r\n    }\r\n    \r\n \r\n    // ensures that the first tokens in the contract will be equally distributed\r\n    // meaning, no divine dump will be ever possible\r\n    // result: healthy longevity.\r\n    modifier antiEarlyWhale(address buyer, uint256 _amountOfEthereum){\r\n        address _customerAddress = buyer;\r\n        \r\n        // are we still in the vulnerable phase?\r\n        // if so, enact anti early whale protocol \r\n        if( onlyAmbassadors && ((totalBalance() - _amountOfEthereum) <= ambassadorQuota_ )){\r\n            require(\r\n                // is the customer in the ambassador list?\r\n                ambassadors_[_customerAddress] == true &&\r\n                \r\n                // does the customer purchase exceed the max ambassador quota?\r\n                (ambassadorAccumulatedQuota_[_customerAddress] + _amountOfEthereum) <= ambassadorMaxPurchase_\r\n                \r\n            );\r\n            \r\n            // updated the accumulated quota    \r\n            ambassadorAccumulatedQuota_[_customerAddress] = SafeMath.add(ambassadorAccumulatedQuota_[_customerAddress], _amountOfEthereum);\r\n        \r\n            // execute\r\n            _;\r\n        } else {\r\n            // in case the ether count drops low, the ambassador phase won't reinitiate\r\n            onlyAmbassadors = false;\r\n            _;    \r\n        }\r\n        \r\n    }\r\n    \r\n    \r\n    /*==============================\r\n    =            EVENTS            =\r\n    ==============================*/\r\n    event onTokenPurchase(\r\n        address indexed customerAddress,\r\n        uint256 incomingEthereum,\r\n        uint256 tokensMinted,\r\n        address indexed referredBy\r\n    );\r\n    \r\n    event onTokenSell(\r\n        address indexed customerAddress,\r\n        uint256 tokensBurned,\r\n        uint256 seeleEarned\r\n    );\r\n\r\n    event onTokenSellByProtocol(\r\n        address indexed customerAddress,\r\n        uint256 tokensBurned,\r\n        uint256 seeleEarned\r\n    );\r\n    \r\n    event onReinvestment(\r\n        address indexed customerAddress,\r\n        uint256 ethereumReinvested,\r\n        uint256 tokensMinted\r\n    );\r\n    \r\n    event onWithdraw(\r\n        address indexed customerAddress,\r\n        uint256 ethereumWithdrawn\r\n    );\r\n    \r\n    event onTokenEscape(\r\n        address indexed customerAddress,\r\n        uint256 tokensEscaped\r\n    );\r\n\r\n    event onTokenArbitrage(\r\n        address indexed customerAddress,\r\n        uint256 tokensBurned,\r\n        uint256 ethereumEarned\r\n    );\r\n        \r\n    // ERC20\r\n    event Transfer(\r\n        address indexed from,\r\n        address indexed to,\r\n        uint256 tokens\r\n    );\r\n\r\n    /*=====================================\r\n    =            CONFIGURABLES            =\r\n    =====================================*/\r\n    string public name = \"Seele-S3D\";\r\n    string public symbol = \"Seele-S3D\";\r\n    uint8 constant public decimals = 18;\r\n    uint8 constant internal dividendFee_ = 10;\r\n    uint8 constant internal ethDividendFee_ = 50;\r\n\r\n    uint256 constant internal tokenPriceInitial_ = 0.0010356 * 1e18;\r\n    uint256 constant internal tokenPriceIncremental_ = 0.00010356 * 1e18;\r\n    uint256 constant internal magnitude = 2**64;\r\n    \r\n    // proof of stake (defaults at 100 tokens)\r\n    uint256 public stakingRequirement = 100e18;\r\n    \r\n    // ambassador program\r\n    mapping(address => bool) internal ambassadors_;\r\n    uint256 constant internal ambassadorMaxPurchase_ = 10000;\r\n    uint256 constant internal ambassadorQuota_ = 200000;\r\n    \r\n    address public seeleTokenAddress = 0x47879ac781938CFfd879392Cd2164b9F7306188a;\r\n   /*================================\r\n    =            DATASETS            =\r\n    ================================*/\r\n    // amount of shares for each address (scaled number)\r\n    mapping(address => uint256) internal tokenBalanceLedger_;\r\n    mapping(address => uint256) internal referralBalance_;\r\n    mapping(address => int256) internal payoutsTo_;\r\n    mapping(address => uint256) internal ambassadorAccumulatedQuota_;\r\n\r\n    mapping(address => uint256) public escapeTokenBalance_;\r\n    mapping(address => uint256) public overSellTokenBalance_;\r\n\r\n    uint256 internal tokenSupply_ = 0;\r\n    uint256 internal profitPerShare_;\r\n\r\n    //NEED DO!! change to internal\r\n    uint256 public escapeTokenSuppley_ = 0;\r\n    uint256 public overSellTokenAmount_ = 0;\r\n    \r\n \r\n    // when this is set to true, only ambassadors can purchase tokens (this prevents a whale premine, it ensures a fairly distributed upper pyramid)\r\n    bool public onlyAmbassadors = true;\r\n\r\n    address public seeleDividendsToEthContractAddress = 0x47879ac781938CFfd879392Cd2164b9F7306188a;\r\n    /*=======================================\r\n    =            PUBLIC FUNCTIONS            =\r\n    =======================================*/\r\n    /*\r\n    * -- APPLICATION ENTRY POINTS --  \r\n    */\r\n    function SeeleDealer(address tokenAddress)\r\n        public\r\n    {\r\n        seeleTokenAddress = tokenAddress;\r\n\r\n        // add the ambassadors here.\r\n        // mantso - lead solidity dev & lead web dev. \r\n        ambassadors_[0xCd16575A90eD9506BCf44C78845d93F1b647F48C] = true;\r\n    }\r\n    \r\n    function setSeeleDividendsToEthContractAddress(address dividendsAddress)\r\n        public \r\n        onlyOwner()\r\n    {\r\n        seeleDividendsToEthContractAddress = dividendsAddress;\r\n    }\r\n\r\n    /**\r\n     * Converts all incoming ethereum to tokens for the caller, and passes down the referral addy (if any)\r\n     */\r\n    function buy(address buyer, uint256 seeleAmount, address _referredBy)\r\n        public\r\n        payable\r\n        onlyIfWhitelisted(msg.sender)\r\n        returns(uint256)\r\n    {\r\n        //transfer seele to contract\r\n        require(ERC20(seeleTokenAddress).transferFrom(buyer, address(this), seeleAmount));\r\n        purchaseTokens(buyer, seeleAmount, _referredBy);\r\n    }\r\n    \r\n    /*\r\n     * default fallback\r\n    */\r\n    function()\r\n        payable\r\n        public\r\n    {\r\n        \r\n    }\r\n\r\n    /**\r\n     * Converts all of caller's dividends to tokens.\r\n     */\r\n    function reinvest(address buyer, uint buyAmount)\r\n        onlyStronghands(buyer)\r\n        onlyIfWhitelisted(msg.sender)\r\n        public\r\n    {\r\n        // fetch dividends\r\n        uint256 _dividends = myDividends(buyer, false); // retrieve ref. bonus later in the code\r\n        uint256 _referralBalance = referralBalance_[buyer];\r\n        require(buyAmount <= (_dividends + _referralBalance));\r\n\r\n        if (buyAmount <= _dividends) {\r\n            // pay out the dividends virtually\r\n            payoutsTo_[buyer] +=  (int256)(buyAmount * magnitude);\r\n        } else {\r\n            payoutsTo_[buyer] +=  (int256) (_dividends * magnitude);\r\n            // retrieve ref. bonus\r\n            referralBalance_[buyer] = SafeMath.sub(referralBalance_[buyer], buyAmount - _dividends);\r\n        }\r\n                \r\n        // dispatch a buy order with the virtualized \"withdrawn dividends\"\r\n        uint256 _tokens = purchaseTokens(buyer, buyAmount, 0x0);\r\n        \r\n        // fire event\r\n        emit onReinvestment(buyer, buyAmount, _tokens);\r\n    }\r\n\r\n    // function reinvest(address buyer)\r\n    //     onlyStronghands(buyer)\r\n    //     public\r\n    // {\r\n    //     // fetch dividends\r\n    //     uint256 _dividends = myDividends(buyer, false); // retrieve ref. bonus later in the code\r\n        \r\n    //     // pay out the dividends virtually\r\n    //     address _customerAddress = buyer;\r\n    //     payoutsTo_[_customerAddress] +=  (int256) (_dividends * magnitude);\r\n        \r\n    //     // retrieve ref. bonus\r\n    //     _dividends += referralBalance_[_customerAddress];\r\n    //     referralBalance_[_customerAddress] = 0;\r\n        \r\n    //     // dispatch a buy order with the virtualized \"withdrawn dividends\"\r\n    //     uint256 _tokens = purchaseTokens(_customerAddress, _dividends, 0x0);\r\n        \r\n    //     // fire event\r\n    //     emit onReinvestment(_customerAddress, _dividends, _tokens);\r\n    // }\r\n    \r\n    /**\r\n     * Alias of sell() and withdraw().\r\n     */\r\n    function exit(address buyer)\r\n        onlyIfWhitelisted(msg.sender)\r\n        public\r\n    {\r\n        // get token count for caller & sell them all\r\n        address _customerAddress = buyer;\r\n        uint256 _tokens = tokenBalanceLedger_[_customerAddress];\r\n        if(_tokens > 0) \r\n            sell(buyer, _tokens);\r\n        \r\n        // lambo delivery service\r\n        withdraw(buyer);\r\n    }\r\n\r\n    /**\r\n     * Withdraws all of the callers earnings.\r\n     */\r\n    function withdraw(address buyer)\r\n        onlyStronghands(buyer)\r\n        onlyIfWhitelisted(msg.sender)\r\n        public\r\n    {\r\n        // setup data\r\n        address _customerAddress = buyer;\r\n        uint256 _dividends = myDividends(_customerAddress, false); // get ref. bonus later in the code\r\n        \r\n        // update dividend tracker\r\n        payoutsTo_[_customerAddress] +=  (int256) (_dividends * magnitude);\r\n        \r\n        // add ref. bonus\r\n        _dividends += referralBalance_[_customerAddress];\r\n        referralBalance_[_customerAddress] = 0;\r\n        \r\n        // lambo delivery service\r\n        //_customerAddress.transfer(_dividends);\r\n        ERC20(seeleTokenAddress).transfer(_customerAddress, _dividends);\r\n        \r\n        // fire event\r\n        emit onWithdraw(_customerAddress, _dividends);\r\n    }\r\n\r\n    function withdraw(address buyer, uint256 withdrawAmount)\r\n        onlyStronghands(buyer)\r\n        onlyIfWhitelisted(msg.sender)\r\n        public\r\n    {\r\n        // setup data\r\n        uint256 _dividends = myDividends(buyer, false); // get ref. bonus later in the code\r\n        uint256 _referralBalance = referralBalance_[buyer];\r\n        require(withdrawAmount <= (_dividends + _referralBalance));\r\n\r\n        if (withdrawAmount <= _dividends) {\r\n            // pay out the dividends virtually\r\n            payoutsTo_[buyer] +=  (int256)(withdrawAmount * magnitude);\r\n        } else {\r\n            // retrieve ref. bonus\r\n            payoutsTo_[buyer] +=  (int256) (_dividends * magnitude);\r\n            referralBalance_[buyer] = SafeMath.sub(referralBalance_[buyer], withdrawAmount - _dividends);\r\n        }\r\n        \r\n        \r\n        // lambo delivery service\r\n        //_customerAddress.transfer(withdrawAmount);\r\n        ERC20(seeleTokenAddress).transfer(buyer, _dividends);\r\n        \r\n        // fire event\r\n        emit onWithdraw(buyer, withdrawAmount);\r\n    }\r\n    \r\n    /**\r\n     * Liquifies tokens to ethereum.\r\n     */\r\n    function sell(address seller, uint256 _amountOfTokens)\r\n        onlyBagholders(seller)\r\n        onlyIfWhitelisted(msg.sender)\r\n        public\r\n    {\r\n        // setup data\r\n        address _customerAddress = seller;\r\n        // russian hackers BTFO\r\n        require(_amountOfTokens <= tokenBalanceLedger_[_customerAddress]);\r\n        uint256 _tokens = _amountOfTokens;\r\n        uint256 _seeleAmount = tokensToSeele(_tokens);\r\n        uint256 _dividends = SafeMath.div(_seeleAmount, dividendFee_);\r\n        _dividends = splitDividendsToEth(_dividends);\r\n        uint256 _taxedSeele = SafeMath.sub(_seeleAmount, _dividends);\r\n        \r\n        // burn the sold tokens\r\n        tokenSupply_ = SafeMath.sub(tokenSupply_, _tokens);\r\n        tokenBalanceLedger_[_customerAddress] = SafeMath.sub(tokenBalanceLedger_[_customerAddress], _tokens);\r\n        \r\n        // update dividends tracker\r\n        int256 _updatedPayouts = (int256) (profitPerShare_ * _tokens + (_taxedSeele * magnitude));\r\n        payoutsTo_[_customerAddress] -= _updatedPayouts;       \r\n        \r\n        // dividing by zero is a bad idea\r\n        uint256 dividendTokenAmount_ =  getDividendTokenAmount();\r\n        if (dividendTokenAmount_ > 0) {\r\n            // update the amount of dividends per token\r\n            profitPerShare_ = SafeMath.add(profitPerShare_, (_dividends * magnitude) / dividendTokenAmount_);\r\n        }\r\n        \r\n        // fire event\r\n        emit onTokenSell(_customerAddress, _tokens, _taxedSeele);\r\n    }\r\n    \r\n    /**\r\n     * Transfer tokens from the caller to a new holder.\r\n     * Remember, there's a 10% fee here as well.\r\n     */\r\n    // function transfer(address _toAddress, uint256 _amountOfTokens)\r\n    //     onlyBagholders()\r\n    //     public\r\n    //     returns(bool)\r\n    // {\r\n    //     // setup\r\n    //     address _customerAddress = msg.sender;\r\n        \r\n    //     // make sure we have the requested tokens\r\n    //     // also disables transfers until ambassador phase is over\r\n    //     // ( we dont want whale premines )\r\n    //     require(!onlyAmbassadors && _amountOfTokens <= tokenBalanceLedger_[_customerAddress]);\r\n        \r\n    //     // withdraw all outstanding dividends first\r\n    //     if(myDividends(true) > 0) withdraw();\r\n        \r\n    //     // liquify 10% of the tokens that are transfered\r\n    //     // these are dispersed to shareholders\r\n    //     uint256 _tokenFee = SafeMath.div(_amountOfTokens, dividendFee_);\r\n    //     uint256 _taxedTokens = SafeMath.sub(_amountOfTokens, _tokenFee);\r\n    //     uint256 _dividends = tokensToSeele(_tokenFee);\r\n  \r\n    //     // burn the fee tokens\r\n    //     tokenSupply_ = SafeMath.sub(tokenSupply_, _tokenFee);\r\n\r\n    //     // exchange tokens\r\n    //     tokenBalanceLedger_[_customerAddress] = SafeMath.sub(tokenBalanceLedger_[_customerAddress], _amountOfTokens);\r\n    //     tokenBalanceLedger_[_toAddress] = SafeMath.add(tokenBalanceLedger_[_toAddress], _taxedTokens);\r\n        \r\n    //     // update dividend trackers\r\n    //     payoutsTo_[_customerAddress] -= (int256) (profitPerShare_ * _amountOfTokens);\r\n    //     payoutsTo_[_toAddress] += (int256) (profitPerShare_ * _taxedTokens);\r\n        \r\n    //     // disperse dividends among holders\r\n    //     profitPerShare_ = SafeMath.add(profitPerShare_, (_dividends * magnitude) / tokenSupply_);\r\n        \r\n    //     // fire event\r\n    //     emit Transfer(_customerAddress, _toAddress, _taxedTokens);\r\n        \r\n    //     // ERC20\r\n    //     return true;\r\n       \r\n    // }\r\n    \r\n    /*----------  ADMINISTRATOR ONLY FUNCTIONS  ----------*/\r\n    /**\r\n     * In case the amassador quota is not met, the administrator can manually disable the ambassador phase.\r\n     */\r\n    function disableInitialStage()\r\n        onlyOwner()\r\n        public\r\n    {\r\n        onlyAmbassadors = false;\r\n    }\r\n    \r\n    /**\r\n     * Precautionary measures in case we need to adjust the masternode rate.\r\n     */\r\n    // function setStakingRequirement(uint256 _amountOfTokens)\r\n    //     onlyOwner()\r\n    //     public\r\n    // {\r\n    //     stakingRequirement = _amountOfTokens;\r\n    // }\r\n    \r\n    /**\r\n     * If we want to rebrand, we can.\r\n     */\r\n    function setName(string _name)\r\n        onlyOwner()\r\n        public\r\n    {\r\n        name = _name;\r\n    }\r\n    \r\n    /**\r\n     * If we want to rebrand, we can.\r\n     */\r\n    function setSymbol(string _symbol)\r\n        onlyOwner()\r\n        public\r\n    {\r\n        symbol = _symbol;\r\n    }\r\n\r\n    \r\n    /*----------  HELPERS AND CALCULATORS  ----------*/\r\n    /**\r\n     * Method to view the current Ethereum stored in the contract\r\n     * Example: totalEthereumBalance()\r\n     */\r\n    function totalBalance()\r\n        public\r\n        view\r\n        returns(uint256)\r\n    {\r\n        return ERC20(seeleTokenAddress).balanceOf(address(this));\r\n    }\r\n    \r\n    /**\r\n     * Retrieve the total token supply.\r\n     */\r\n    function totalSupply()\r\n        public\r\n        view\r\n        returns(uint256)\r\n    {\r\n        return tokenSupply_;\r\n    }\r\n    \r\n    \r\n    /**\r\n     * Retrieve the dividends owned by the caller.\r\n     * If `_includeReferralBonus` is to to 1/true, the referral bonus will be included in the calculations.\r\n     * The reason for this, is that in the frontend, we will want to get the total divs (global + ref)\r\n     * But in the internal calculations, we want them separate. \r\n     */ \r\n    function myDividends(address myAddress, bool _includeReferralBonus) \r\n        public \r\n        view \r\n        returns(uint256)\r\n    {\r\n        address _customerAddress = myAddress;\r\n        return _includeReferralBonus ? dividendsOf(_customerAddress) + referralBalance_[_customerAddress] : dividendsOf(_customerAddress) ;\r\n    }\r\n    \r\n    /**\r\n     * Retrieve the token balance of any single address.\r\n     */\r\n    function balanceOf(address _customerAddress)\r\n        view\r\n        public\r\n        returns(uint256)\r\n    {\r\n        return tokenBalanceLedger_[_customerAddress];\r\n    }\r\n    \r\n    /**\r\n     * Retrieve the dividend balance of any single address.\r\n     */\r\n    function dividendsOf(address _customerAddress)\r\n        view\r\n        public\r\n        returns(uint256)\r\n    {\r\n        return (uint256) ((int256)(profitPerShare_ * tokenBalanceLedger_[_customerAddress]) - payoutsTo_[_customerAddress]) / magnitude;\r\n    }\r\n    \r\n    function referralBalanceOf(address _customerAddress)\r\n        view\r\n        public \r\n        returns(uint256)\r\n    {\r\n        return referralBalance_[_customerAddress];\r\n    }\r\n\r\n    /**\r\n     * Return the buy price of 1 individual token.\r\n     */\r\n    function sellPrice() \r\n        public \r\n        view \r\n        returns(uint256)\r\n    {\r\n        // our calculation relies on the token supply, so we need supply. Doh.\r\n        if(getPricedTokenAmount() == 0){\r\n            return tokenPriceInitial_ - tokenPriceIncremental_;\r\n        } else {\r\n            uint256 _seeleAmount = tokensToSeele(1e18);\r\n            uint256 _dividends = SafeMath.div(_seeleAmount, dividendFee_  );\r\n            uint256 _taxedSeele = SafeMath.sub(_seeleAmount, _dividends);\r\n            return _taxedSeele;\r\n        }\r\n    }\r\n    \r\n    /**\r\n     * Return the sell price of 1 individual token.\r\n     */\r\n    function buyPrice() \r\n        public \r\n        view \r\n        returns(uint256)\r\n    {\r\n        // our calculation relies on the token supply, so we need supply. Doh.\r\n        if(getPricedTokenAmount() == 0){\r\n            return tokenPriceInitial_ + tokenPriceIncremental_;\r\n        } else {\r\n            uint256 _seeleAmount = tokensToSeele(1e18);\r\n            uint256 _dividends = SafeMath.div(_seeleAmount, dividendFee_  );\r\n            uint256 _taxedSeele = SafeMath.add(_seeleAmount, _dividends);\r\n            return _taxedSeele;\r\n        }\r\n    }\r\n    \r\n    /**\r\n     * Function for the frontend to dynamically retrieve the price scaling of buy orders.\r\n     */\r\n    function calculateTokensReceived(uint256 _seeleToSpend) \r\n        public \r\n        view \r\n        returns(uint256)\r\n    {\r\n        uint256 _dividends = SafeMath.div(_seeleToSpend, dividendFee_);\r\n        uint256 _taxedSeele = SafeMath.sub(_seeleToSpend, _dividends);\r\n        uint256 _amountOfTokens = seeleToTokens_(_taxedSeele);\r\n        \r\n        return _amountOfTokens;\r\n    }\r\n    \r\n    function calculateBuyTokenSpend(uint256 _tokensToBuy)\r\n        public \r\n        view\r\n        returns(uint256)\r\n    {\r\n        uint256 _seeleAmount = tokensToSeele(_tokensToBuy);\r\n        uint256 _dividends = SafeMath.div(_seeleAmount, dividendFee_);\r\n        uint256 _taxedSeele = SafeMath.sub(_seeleAmount, _dividends);\r\n        return _taxedSeele;\r\n    }\r\n\r\n    /**\r\n     * Function for the frontend to dynamically retrieve the price scaling of sell orders.\r\n     */\r\n    function calculateBuyTokenReceived(uint256 _tokensToSell) \r\n        public \r\n        view \r\n        returns(uint256)\r\n    {\r\n        require(_tokensToSell <= getPricedTokenAmount());\r\n        uint256 _seeleAmount = tokensToSeele(_tokensToSell);\r\n        uint256 _dividends = SafeMath.div(_seeleAmount, dividendFee_);\r\n        uint256 _taxedSeele = SafeMath.sub(_seeleAmount, _dividends);\r\n        return _taxedSeele;\r\n    }\r\n    \r\n    function splitDividendsToEth(uint256 _undividedDividends)\r\n        internal \r\n        view\r\n        returns (uint256)\r\n    {\r\n        if (ethDividendFee_ > 0) {\r\n            uint256 _ethDividends = SafeMath.div(_undividedDividends, ethDividendFee_);\r\n            uint restDividends = SafeMath.sub(_undividedDividends, _ethDividends);  \r\n            ERC20(seeleTokenAddress).transfer(seeleDividendsToEthContractAddress, _ethDividends);  \r\n            SeeleDividendsToEth(seeleDividendsToEthContractAddress).AddDividends(_ethDividends);\r\n            return restDividends;\r\n        } else {\r\n            return _undividedDividends;\r\n        }\r\n    }\r\n\r\n    /*==========================================\r\n    =            INTERNAL FUNCTIONS            =\r\n    ==========================================*/\r\n    function purchaseTokens(address buyer, uint256 _incomingSeele, address _referredBy)\r\n        antiEarlyWhale(buyer, _incomingSeele)\r\n        internal\r\n        returns(uint256)\r\n    {\r\n        // data setup\r\n        //address _customerAddress = buyer;\r\n        uint256 _undividedDividends = SafeMath.div(_incomingSeele, dividendFee_);\r\n        _undividedDividends = splitDividendsToEth(_undividedDividends);\r\n        uint256 _referralBonus = SafeMath.div(_undividedDividends, 3);\r\n        uint256 _dividends = SafeMath.sub(_undividedDividends, _referralBonus);\r\n        uint256 _taxedSeele = SafeMath.sub(_incomingSeele, _undividedDividends);\r\n        uint256 _amountOfTokens = seeleToTokens_(_taxedSeele);\r\n        uint256 _fee = _dividends * magnitude;\r\n \r\n        // no point in continuing execution if OP is a poorfag russian hacker\r\n        // prevents overflow in the case that the pyramid somehow magically starts being used by everyone in the world\r\n        // (or hackers)\r\n        // and yes we know that the safemath function automatically rules out the \"greater then\" equasion.\r\n        require(_amountOfTokens > 0 && (SafeMath.add(_amountOfTokens,tokenSupply_) > tokenSupply_));\r\n        \r\n        // is the user referred by a masternode?\r\n        if(\r\n            // is this a referred purchase?\r\n            _referredBy != 0x0000000000000000000000000000000000000000 &&\r\n\r\n            // no cheating!\r\n            _referredBy != buyer\r\n            \r\n            // does the referrer have at least X whole tokens?\r\n            // i.e is the referrer a godly chad masternode\r\n            //tokenBalanceLedger_[_referredBy] >= stakingRequirement\r\n        ){\r\n            // wealth redistribution\r\n            referralBalance_[_referredBy] = SafeMath.add(referralBalance_[_referredBy], _referralBonus);\r\n        } else {\r\n            // no ref purchase\r\n            // add the referral bonus back to the global dividends cake\r\n            _dividends = SafeMath.add(_dividends, _referralBonus);\r\n            _fee = _dividends * magnitude;\r\n        }\r\n        \r\n        // we can't give people infinite ethereum\r\n        if(tokenSupply_ > 0){\r\n            \r\n            // add tokens to the pool\r\n            tokenSupply_ = SafeMath.add(tokenSupply_, _amountOfTokens);\r\n\r\n            //uint256 dividendTokenAmount_ =  getDividendTokenAmount();\r\n \r\n            // take the amount of dividends gained through this transaction, and allocates them evenly to each shareholder\r\n            profitPerShare_ += (_dividends * magnitude / (getDividendTokenAmount()));\r\n            \r\n            // calculate the amount of tokens the customer receives over his purchase \r\n            _fee = _fee - (_fee-(_amountOfTokens * (_dividends * magnitude / (getDividendTokenAmount()))));\r\n        \r\n        } else {\r\n            // add tokens to the pool\r\n            tokenSupply_ = _amountOfTokens;\r\n        }\r\n        \r\n        // update circulating supply & the ledger address for the customer\r\n        tokenBalanceLedger_[buyer] = SafeMath.add(tokenBalanceLedger_[buyer], _amountOfTokens);\r\n        \r\n        // Tells the contract that the buyer doesn't deserve dividends for the tokens before they owned them;\r\n        //really i know you think you do but you don't\r\n\r\n        //int256 _updatedPayouts = (int256) ((profitPerShare_ * _amountOfTokens) - _fee);\r\n        payoutsTo_[buyer] += (int256) ((profitPerShare_ * _amountOfTokens) - _fee);\r\n        \r\n        // fire event\r\n        emit onTokenPurchase(buyer, _incomingSeele, _amountOfTokens, _referredBy);\r\n        \r\n        return _amountOfTokens;\r\n    }\r\n\r\n    /**\r\n     * Calculate Token price based on an amount of incoming ethereum\r\n     * It's an algorithm, hopefully we gave you the whitepaper with it in scientific notation;\r\n     * Some conversions occurred to prevent decimal errors or underflows / overflows in solidity code.\r\n     */\r\n    function seeleToTokens_(uint256 seeleAmount)\r\n        internal\r\n        view\r\n        returns(uint256)\r\n    {\r\n        uint256 _tokenPriceInitial = tokenPriceInitial_ ;\r\n        uint256 _tokenSupply =  getPricedTokenAmount();\r\n        uint256 _tokensReceived = \r\n         (\r\n            (\r\n                // underflow attempts BTFO\r\n                SafeMath.sub(\r\n                    (sqrt\r\n                        (\r\n                            (_tokenPriceInitial**2)\r\n                            +\r\n                            (2*(tokenPriceIncremental_ * 1e18 )*(seeleAmount * 1e18))\r\n                            +\r\n                            (((tokenPriceIncremental_)**2)*(tokenSupply_**2))\r\n                            +\r\n                            (2*(tokenPriceIncremental_)*_tokenPriceInitial*tokenSupply_)\r\n                        )\r\n                    ), _tokenPriceInitial\r\n                )\r\n            )/(tokenPriceIncremental_)\r\n        )-(tokenSupply_)\r\n        ;\r\n  \r\n        return _tokensReceived;\r\n    }\r\n    \r\n    /**\r\n     * Calculate token sell value.\r\n     * It's an algorithm, hopefully we gave you the whitepaper with it in scientific notation;\r\n     * Some conversions occurred to prevent decimal errors or underflows / overflows in solidity code.\r\n     */\r\n     function tokensToSeele(uint256 _tokens)\r\n        internal\r\n        view\r\n        returns(uint256)\r\n    {\r\n\r\n        uint256 tokens_ = (_tokens + 1e18);\r\n        uint256 _tokenSupply = (getPricedTokenAmount() + 1e18);\r\n        uint256 _seeleReceived =\r\n        (\r\n            // underflow attempts BTFO\r\n            SafeMath.sub(\r\n                (\r\n                    (\r\n                        (\r\n                            tokenPriceInitial_ +(tokenPriceIncremental_ * (_tokenSupply/1e18))\r\n                        )-tokenPriceIncremental_\r\n                    )*(tokens_ - 1e18)\r\n                ),(tokenPriceIncremental_*((tokens_**2-tokens_)/1e18))/2\r\n            )\r\n        /1e18);\r\n        return _seeleReceived;\r\n    }\r\n    \r\n    \r\n    //This is where all your gas goes, sorry\r\n    //Not sorry, you probably only paid 1 gwei\r\n    function sqrt(uint x) internal pure returns (uint y) {\r\n        uint z = (x + 1) / 2;\r\n        y = x;\r\n        while (z < y) {\r\n            y = z;\r\n            z = (x / z + z) / 2;\r\n        }\r\n    }\r\n\r\n    //token\r\n    function getDividendTokenAmount() internal view returns (uint256) {\r\n        //exclude escape token\r\n        //return SafeMath.sub(tokenSupply_ , escapeTokenSuppley_);\r\n        return tokenSupply_;\r\n    }\r\n\r\n    //tokenoverselltoken\r\n    function getPricedTokenAmount() internal view returns (uint256) {\r\n        return SafeMath.sub(SafeMath.add(tokenSupply_, escapeTokenSuppley_), overSellTokenAmount_);\r\n    }\r\n\r\n    //NEW FUNCTION        \r\n    function escapeTokens(address sellerAddress, uint256 _amountOfTokens) \r\n        onlyBagholders(sellerAddress) \r\n        onlyIfWhitelisted(msg.sender)\r\n        public \r\n        returns(uint256)\r\n    {\r\n        // setup data\r\n        address _customerAddress = sellerAddress;\r\n\r\n        // russian hackers BTFO\r\n        require(_amountOfTokens <= tokenBalanceLedger_[_customerAddress]);\r\n        uint256 _tokens = _amountOfTokens;\r\n\r\n        // add the sold tokens to escape tokens\r\n        tokenSupply_ = SafeMath.sub(tokenSupply_, _tokens);\r\n        escapeTokenSuppley_ = SafeMath.add(escapeTokenSuppley_, _tokens);\r\n        tokenBalanceLedger_[_customerAddress] = SafeMath.sub(tokenBalanceLedger_[_customerAddress], _tokens);\r\n        escapeTokenBalance_[_customerAddress] = SafeMath.add(escapeTokenBalance_[_customerAddress], _tokens);\r\n   \r\n        // update dividends tracker\r\n        // take you token dividends\r\n        int256 _updatedPayouts = (int256) (profitPerShare_ * _tokens);\r\n        payoutsTo_[_customerAddress] -= _updatedPayouts;       \r\n\r\n        // fire event\r\n        emit onTokenEscape(_customerAddress, _tokens);\r\n        return _tokens;\r\n    }\r\n\r\n    //\r\n    function arbitrageTokens(address sellerAddress,  uint256 _amountOfTokens) \r\n        onlyIfWhitelisted(msg.sender)\r\n        public\r\n    {\r\n        require(_amountOfTokens <= getPricedTokenAmount());\r\n        \r\n        // setup data\r\n        address _customerAddress = sellerAddress;\r\n        \r\n        // TokenDealerInterface escapeContract = TokenDealerInterface(sellTokenAddress);\r\n        // uint256 _tokens = escapeContract.escapeTokens(_customerAddress, _amountOfTokens);\r\n        // require(_tokens == _amountOfTokens);\r\n\r\n        // russian hackers BTFO\r\n        uint256 _seeleAmount = tokensToSeele(_amountOfTokens);\r\n        require(_seeleAmount <= totalBalance());        \r\n\r\n        uint256 _dividends = SafeMath.div(_seeleAmount, dividendFee_);\r\n        uint256 _taxedSeele = SafeMath.sub(_seeleAmount, _dividends);\r\n        \r\n        // burn the sold tokens\r\n        //tokenSupply_ = SafeMath.sub(tokenSupply_, _tokens);\r\n        //tokenBalanceLedger_[_customerAddress] = SafeMath.sub(tokenBalanceLedger_[_customerAddress], _tokens);\r\n\r\n        // add escape tokens to oversell\r\n        overSellTokenAmount_ = SafeMath.add(overSellTokenAmount_, _amountOfTokens);\r\n        overSellTokenBalance_[_customerAddress] = SafeMath.add(overSellTokenBalance_[_customerAddress], _amountOfTokens);\r\n\r\n             \r\n        // dividing by zero is a bad idea\r\n        uint256 dividendTokenAmount_ =  getDividendTokenAmount();\r\n        if (dividendTokenAmount_ > 0) {\r\n            // update the amount of dividends per token\r\n            profitPerShare_ = SafeMath.add(profitPerShare_, (_dividends * magnitude) / dividendTokenAmount_);\r\n        }\r\n        \r\n        // lambo delivery service\r\n        //_customerAddress.transfer(_taxedEthereum);\r\n        ERC20(seeleTokenAddress).transfer(_customerAddress, _taxedSeele);\r\n\r\n        // fire event\r\n        emit onTokenArbitrage(_customerAddress, _amountOfTokens, _taxedSeele);\r\n    }\r\n}",
  "sourcePath": "D:\\work\\truffle\\s3d\\contracts\\SeeleDealer.sol",
  "compiler": {
    "name": "solc",
    "version": "0.4.24+commit.e67f0147.Emscripten.clang"
  },
  "schemaVersion": "2.0.1",
  "updatedAt": "2018-08-18T11:30:13.574Z"
}