{
  "contractName": "SeeleDealer",
  "abi": [
    {
      "constant": true,
      "inputs": [],
      "name": "name",
      "outputs": [
        {
          "name": "",
          "type": "string"
        }
      ],
      "payable": false,
      "stateMutability": "view",
      "type": "function"
    },
    {
      "constant": true,
      "inputs": [
        {
          "name": "_operator",
          "type": "address"
        },
        {
          "name": "_role",
          "type": "string"
        }
      ],
      "name": "checkRole",
      "outputs": [],
      "payable": false,
      "stateMutability": "view",
      "type": "function"
    },
    {
      "constant": true,
      "inputs": [],
      "name": "ROLE_WHITELISTED",
      "outputs": [
        {
          "name": "",
          "type": "string"
        }
      ],
      "payable": false,
      "stateMutability": "view",
      "type": "function"
    },
    {
      "constant": true,
      "inputs": [
        {
          "name": "_operator",
          "type": "address"
        },
        {
          "name": "_role",
          "type": "string"
        }
      ],
      "name": "hasRole",
      "outputs": [
        {
          "name": "",
          "type": "bool"
        }
      ],
      "payable": false,
      "stateMutability": "view",
      "type": "function"
    },
    {
      "constant": true,
      "inputs": [],
      "name": "overSellTokenAmount_",
      "outputs": [
        {
          "name": "",
          "type": "uint256"
        }
      ],
      "payable": false,
      "stateMutability": "view",
      "type": "function"
    },
    {
      "constant": false,
      "inputs": [
        {
          "name": "_operators",
          "type": "address[]"
        }
      ],
      "name": "removeAddressesFromWhitelist",
      "outputs": [],
      "payable": false,
      "stateMutability": "nonpayable",
      "type": "function"
    },
    {
      "constant": true,
      "inputs": [],
      "name": "onlyAmbassadors",
      "outputs": [
        {
          "name": "",
          "type": "bool"
        }
      ],
      "payable": false,
      "stateMutability": "view",
      "type": "function"
    },
    {
      "constant": false,
      "inputs": [
        {
          "name": "_operator",
          "type": "address"
        }
      ],
      "name": "removeAddressFromWhitelist",
      "outputs": [],
      "payable": false,
      "stateMutability": "nonpayable",
      "type": "function"
    },
    {
      "constant": true,
      "inputs": [],
      "name": "decimals",
      "outputs": [
        {
          "name": "",
          "type": "uint8"
        }
      ],
      "payable": false,
      "stateMutability": "view",
      "type": "function"
    },
    {
      "constant": false,
      "inputs": [],
      "name": "claimOwnership",
      "outputs": [],
      "payable": false,
      "stateMutability": "nonpayable",
      "type": "function"
    },
    {
      "constant": true,
      "inputs": [],
      "name": "stakingRequirement",
      "outputs": [
        {
          "name": "",
          "type": "uint256"
        }
      ],
      "payable": false,
      "stateMutability": "view",
      "type": "function"
    },
    {
      "constant": false,
      "inputs": [],
      "name": "renounceOwnership",
      "outputs": [],
      "payable": false,
      "stateMutability": "nonpayable",
      "type": "function"
    },
    {
      "constant": false,
      "inputs": [
        {
          "name": "_operator",
          "type": "address"
        }
      ],
      "name": "addAddressToWhitelist",
      "outputs": [],
      "payable": false,
      "stateMutability": "nonpayable",
      "type": "function"
    },
    {
      "constant": true,
      "inputs": [],
      "name": "owner",
      "outputs": [
        {
          "name": "",
          "type": "address"
        }
      ],
      "payable": false,
      "stateMutability": "view",
      "type": "function"
    },
    {
      "constant": true,
      "inputs": [],
      "name": "symbol",
      "outputs": [
        {
          "name": "",
          "type": "string"
        }
      ],
      "payable": false,
      "stateMutability": "view",
      "type": "function"
    },
    {
      "constant": true,
      "inputs": [
        {
          "name": "_operator",
          "type": "address"
        }
      ],
      "name": "whitelist",
      "outputs": [
        {
          "name": "",
          "type": "bool"
        }
      ],
      "payable": false,
      "stateMutability": "view",
      "type": "function"
    },
    {
      "constant": true,
      "inputs": [
        {
          "name": "",
          "type": "address"
        }
      ],
      "name": "escapeTokenBalance_",
      "outputs": [
        {
          "name": "",
          "type": "uint256"
        }
      ],
      "payable": false,
      "stateMutability": "view",
      "type": "function"
    },
    {
      "constant": true,
      "inputs": [
        {
          "name": "",
          "type": "address"
        }
      ],
      "name": "overSellTokenBalance_",
      "outputs": [
        {
          "name": "",
          "type": "uint256"
        }
      ],
      "payable": false,
      "stateMutability": "view",
      "type": "function"
    },
    {
      "constant": false,
      "inputs": [
        {
          "name": "_operators",
          "type": "address[]"
        }
      ],
      "name": "addAddressesToWhitelist",
      "outputs": [],
      "payable": false,
      "stateMutability": "nonpayable",
      "type": "function"
    },
    {
      "constant": true,
      "inputs": [],
      "name": "pendingOwner",
      "outputs": [
        {
          "name": "",
          "type": "address"
        }
      ],
      "payable": false,
      "stateMutability": "view",
      "type": "function"
    },
    {
      "constant": false,
      "inputs": [
        {
          "name": "newOwner",
          "type": "address"
        }
      ],
      "name": "transferOwnership",
      "outputs": [],
      "payable": false,
      "stateMutability": "nonpayable",
      "type": "function"
    },
    {
      "constant": true,
      "inputs": [],
      "name": "escapeTokenSuppley_",
      "outputs": [
        {
          "name": "",
          "type": "uint256"
        }
      ],
      "payable": false,
      "stateMutability": "view",
      "type": "function"
    },
    {
      "constant": true,
      "inputs": [],
      "name": "seeleTokenAddress",
      "outputs": [
        {
          "name": "",
          "type": "address"
        }
      ],
      "payable": false,
      "stateMutability": "view",
      "type": "function"
    },
    {
      "inputs": [
        {
          "name": "tokenAddress",
          "type": "address"
        }
      ],
      "payable": false,
      "stateMutability": "nonpayable",
      "type": "constructor"
    },
    {
      "payable": true,
      "stateMutability": "payable",
      "type": "fallback"
    },
    {
      "anonymous": false,
      "inputs": [
        {
          "indexed": true,
          "name": "customerAddress",
          "type": "address"
        },
        {
          "indexed": false,
          "name": "incomingEthereum",
          "type": "uint256"
        },
        {
          "indexed": false,
          "name": "tokensMinted",
          "type": "uint256"
        },
        {
          "indexed": true,
          "name": "referredBy",
          "type": "address"
        }
      ],
      "name": "onTokenPurchase",
      "type": "event"
    },
    {
      "anonymous": false,
      "inputs": [
        {
          "indexed": true,
          "name": "customerAddress",
          "type": "address"
        },
        {
          "indexed": false,
          "name": "tokensBurned",
          "type": "uint256"
        },
        {
          "indexed": false,
          "name": "seeleEarned",
          "type": "uint256"
        }
      ],
      "name": "onTokenSell",
      "type": "event"
    },
    {
      "anonymous": false,
      "inputs": [
        {
          "indexed": true,
          "name": "customerAddress",
          "type": "address"
        },
        {
          "indexed": false,
          "name": "tokensBurned",
          "type": "uint256"
        },
        {
          "indexed": false,
          "name": "seeleEarned",
          "type": "uint256"
        }
      ],
      "name": "onTokenSellByProtocol",
      "type": "event"
    },
    {
      "anonymous": false,
      "inputs": [
        {
          "indexed": true,
          "name": "customerAddress",
          "type": "address"
        },
        {
          "indexed": false,
          "name": "ethereumReinvested",
          "type": "uint256"
        },
        {
          "indexed": false,
          "name": "tokensMinted",
          "type": "uint256"
        }
      ],
      "name": "onReinvestment",
      "type": "event"
    },
    {
      "anonymous": false,
      "inputs": [
        {
          "indexed": true,
          "name": "customerAddress",
          "type": "address"
        },
        {
          "indexed": false,
          "name": "ethereumWithdrawn",
          "type": "uint256"
        }
      ],
      "name": "onWithdraw",
      "type": "event"
    },
    {
      "anonymous": false,
      "inputs": [
        {
          "indexed": true,
          "name": "customerAddress",
          "type": "address"
        },
        {
          "indexed": false,
          "name": "tokensEscaped",
          "type": "uint256"
        }
      ],
      "name": "onTokenEscape",
      "type": "event"
    },
    {
      "anonymous": false,
      "inputs": [
        {
          "indexed": true,
          "name": "customerAddress",
          "type": "address"
        },
        {
          "indexed": false,
          "name": "tokensBurned",
          "type": "uint256"
        },
        {
          "indexed": false,
          "name": "ethereumEarned",
          "type": "uint256"
        }
      ],
      "name": "onTokenArbitrage",
      "type": "event"
    },
    {
      "anonymous": false,
      "inputs": [
        {
          "indexed": true,
          "name": "from",
          "type": "address"
        },
        {
          "indexed": true,
          "name": "to",
          "type": "address"
        },
        {
          "indexed": false,
          "name": "tokens",
          "type": "uint256"
        }
      ],
      "name": "Transfer",
      "type": "event"
    },
    {
      "anonymous": false,
      "inputs": [
        {
          "indexed": true,
          "name": "operator",
          "type": "address"
        },
        {
          "indexed": false,
          "name": "role",
          "type": "string"
        }
      ],
      "name": "RoleAdded",
      "type": "event"
    },
    {
      "anonymous": false,
      "inputs": [
        {
          "indexed": true,
          "name": "operator",
          "type": "address"
        },
        {
          "indexed": false,
          "name": "role",
          "type": "string"
        }
      ],
      "name": "RoleRemoved",
      "type": "event"
    },
    {
      "anonymous": false,
      "inputs": [
        {
          "indexed": true,
          "name": "previousOwner",
          "type": "address"
        }
      ],
      "name": "OwnershipRenounced",
      "type": "event"
    },
    {
      "anonymous": false,
      "inputs": [
        {
          "indexed": true,
          "name": "previousOwner",
          "type": "address"
        },
        {
          "indexed": true,
          "name": "newOwner",
          "type": "address"
        }
      ],
      "name": "OwnershipTransferred",
      "type": "event"
    },
    {
      "constant": false,
      "inputs": [
        {
          "name": "buyer",
          "type": "address"
        },
        {
          "name": "seeleAmount",
          "type": "uint256"
        },
        {
          "name": "_referredBy",
          "type": "address"
        }
      ],
      "name": "buy",
      "outputs": [
        {
          "name": "",
          "type": "uint256"
        }
      ],
      "payable": true,
      "stateMutability": "payable",
      "type": "function"
    },
    {
      "constant": false,
      "inputs": [
        {
          "name": "buyer",
          "type": "address"
        },
        {
          "name": "buyAmount",
          "type": "uint256"
        }
      ],
      "name": "reinvest",
      "outputs": [],
      "payable": false,
      "stateMutability": "nonpayable",
      "type": "function"
    },
    {
      "constant": false,
      "inputs": [
        {
          "name": "buyer",
          "type": "address"
        }
      ],
      "name": "exit",
      "outputs": [],
      "payable": false,
      "stateMutability": "nonpayable",
      "type": "function"
    },
    {
      "constant": false,
      "inputs": [
        {
          "name": "buyer",
          "type": "address"
        },
        {
          "name": "withdrawAmount",
          "type": "uint256"
        }
      ],
      "name": "withdraw",
      "outputs": [],
      "payable": false,
      "stateMutability": "nonpayable",
      "type": "function"
    },
    {
      "constant": false,
      "inputs": [
        {
          "name": "buyer",
          "type": "address"
        }
      ],
      "name": "withdraw",
      "outputs": [],
      "payable": false,
      "stateMutability": "nonpayable",
      "type": "function"
    },
    {
      "constant": false,
      "inputs": [
        {
          "name": "seller",
          "type": "address"
        },
        {
          "name": "_amountOfTokens",
          "type": "uint256"
        }
      ],
      "name": "sell",
      "outputs": [],
      "payable": false,
      "stateMutability": "nonpayable",
      "type": "function"
    },
    {
      "constant": false,
      "inputs": [],
      "name": "disableInitialStage",
      "outputs": [],
      "payable": false,
      "stateMutability": "nonpayable",
      "type": "function"
    },
    {
      "constant": false,
      "inputs": [
        {
          "name": "_name",
          "type": "string"
        }
      ],
      "name": "setName",
      "outputs": [],
      "payable": false,
      "stateMutability": "nonpayable",
      "type": "function"
    },
    {
      "constant": false,
      "inputs": [
        {
          "name": "_symbol",
          "type": "string"
        }
      ],
      "name": "setSymbol",
      "outputs": [],
      "payable": false,
      "stateMutability": "nonpayable",
      "type": "function"
    },
    {
      "constant": true,
      "inputs": [],
      "name": "totalBalance",
      "outputs": [
        {
          "name": "",
          "type": "uint256"
        }
      ],
      "payable": false,
      "stateMutability": "view",
      "type": "function"
    },
    {
      "constant": true,
      "inputs": [],
      "name": "totalSupply",
      "outputs": [
        {
          "name": "",
          "type": "uint256"
        }
      ],
      "payable": false,
      "stateMutability": "view",
      "type": "function"
    },
    {
      "constant": true,
      "inputs": [
        {
          "name": "myAddress",
          "type": "address"
        },
        {
          "name": "_includeReferralBonus",
          "type": "bool"
        }
      ],
      "name": "myDividends",
      "outputs": [
        {
          "name": "",
          "type": "uint256"
        }
      ],
      "payable": false,
      "stateMutability": "view",
      "type": "function"
    },
    {
      "constant": true,
      "inputs": [
        {
          "name": "_customerAddress",
          "type": "address"
        }
      ],
      "name": "balanceOf",
      "outputs": [
        {
          "name": "",
          "type": "uint256"
        }
      ],
      "payable": false,
      "stateMutability": "view",
      "type": "function"
    },
    {
      "constant": true,
      "inputs": [
        {
          "name": "_customerAddress",
          "type": "address"
        }
      ],
      "name": "dividendsOf",
      "outputs": [
        {
          "name": "",
          "type": "uint256"
        }
      ],
      "payable": false,
      "stateMutability": "view",
      "type": "function"
    },
    {
      "constant": true,
      "inputs": [
        {
          "name": "_customerAddress",
          "type": "address"
        }
      ],
      "name": "referralBalanceOf",
      "outputs": [
        {
          "name": "",
          "type": "uint256"
        }
      ],
      "payable": false,
      "stateMutability": "view",
      "type": "function"
    },
    {
      "constant": true,
      "inputs": [],
      "name": "sellPrice",
      "outputs": [
        {
          "name": "",
          "type": "uint256"
        }
      ],
      "payable": false,
      "stateMutability": "view",
      "type": "function"
    },
    {
      "constant": true,
      "inputs": [],
      "name": "buyPrice",
      "outputs": [
        {
          "name": "",
          "type": "uint256"
        }
      ],
      "payable": false,
      "stateMutability": "view",
      "type": "function"
    },
    {
      "constant": true,
      "inputs": [
        {
          "name": "_seeleToSpend",
          "type": "uint256"
        }
      ],
      "name": "calculateTokensReceived",
      "outputs": [
        {
          "name": "",
          "type": "uint256"
        }
      ],
      "payable": false,
      "stateMutability": "view",
      "type": "function"
    },
    {
      "constant": true,
      "inputs": [
        {
          "name": "_tokensToBuy",
          "type": "uint256"
        }
      ],
      "name": "calculateBuyTokenSpend",
      "outputs": [
        {
          "name": "",
          "type": "uint256"
        }
      ],
      "payable": false,
      "stateMutability": "view",
      "type": "function"
    },
    {
      "constant": true,
      "inputs": [
        {
          "name": "_tokensToSell",
          "type": "uint256"
        }
      ],
      "name": "calculateBuyTokenReceived",
      "outputs": [
        {
          "name": "",
          "type": "uint256"
        }
      ],
      "payable": false,
      "stateMutability": "view",
      "type": "function"
    },
    {
      "constant": false,
      "inputs": [
        {
          "name": "sellerAddress",
          "type": "address"
        },
        {
          "name": "_amountOfTokens",
          "type": "uint256"
        }
      ],
      "name": "escapeTokens",
      "outputs": [
        {
          "name": "",
          "type": "uint256"
        }
      ],
      "payable": false,
      "stateMutability": "nonpayable",
      "type": "function"
    },
    {
      "constant": false,
      "inputs": [
        {
          "name": "sellerAddress",
          "type": "address"
        },
        {
          "name": "_amountOfTokens",
          "type": "uint256"
        }
      ],
      "name": "arbitrageTokens",
      "outputs": [],
      "payable": false,
      "stateMutability": "nonpayable",
      "type": "function"
    }
  ],
  "bytecode": "0x60806040526040805190810160405280600981526020017f5365656c652d5333440000000000000000000000000000000000000000000000815250600390805190602001906200005192919062000251565b506040805190810160405280600981526020017f5365656c652d5333440000000000000000000000000000000000000000000000815250600490805190602001906200009f92919062000251565b5068056bc75e2d631000006005557347879ac781938cffd879392cd2164b9f7306188a600760006101000a81548173ffffffffffffffffffffffffffffffffffffffff021916908373ffffffffffffffffffffffffffffffffffffffff1602179055506000600e55600060105560006011556001601260006101000a81548160ff0219169083151502179055503480156200013957600080fd5b506040516020806200436b83398101806040528101908080519060200190929190505050336000806101000a81548173ffffffffffffffffffffffffffffffffffffffff021916908373ffffffffffffffffffffffffffffffffffffffff16021790555080600760006101000a81548173ffffffffffffffffffffffffffffffffffffffff021916908373ffffffffffffffffffffffffffffffffffffffff16021790555060016006600073cd16575a90ed9506bcf44c78845d93f1b647f48c73ffffffffffffffffffffffffffffffffffffffff1673ffffffffffffffffffffffffffffffffffffffff16815260200190815260200160002060006101000a81548160ff0219169083151502179055505062000300565b828054600181600116156101000203166002900490600052602060002090601f016020900481019282601f106200029457805160ff1916838001178555620002c5565b82800160010185558215620002c5579182015b82811115620002c4578251825591602001919060010190620002a7565b5b509050620002d49190620002d8565b5090565b620002fd91905b80821115620002f9576000816000905550600101620002df565b5090565b90565b61405b80620003106000396000f300608060405260043610610224576000357c0100000000000000000000000000000000000000000000000000000000900463ffffffff16806265318b1461022657806306fdde031461027d5780630988ca8c1461030d57806310d0ffdd14610396578063150c95a8146103d757806318160ddd1461041857806318b919e914610443578063217fe6c6146104d3578063236ffbbf1461057457806324953eaa1461059f57806327defa1f14610605578063286dd3f514610634578063313ce567146106775780633be8eb7e146106a857806346534649146106f55780634b7503341461074c5780634e71e0c81461077757806351cff8d91461078e57806356d399e8146107d15780636c197ff5146107fc57806370a0823114610849578063715018a6146108a05780637b9417c8146108b75780638620410b146108fa5780638da5cb5b1461092557806395d89b411461097c5780639b19251a14610a0c5780639f40dd4214610a67578063a19ec23314610abe578063a8e04f3414610b15578063ad7a672f14610b2c578063b42652e914610b57578063b73f34b414610b9a578063b84c824614610bdb578063c383abaa14610c44578063c47f002714610ca7578063d3d6dce714610d10578063d65a261714610d71578063db61c76e14610dbe578063e2ec6ec314610e32578063e30c397814610e98578063f2fde38b14610eef578063f3fef3a314610f32578063f5aaee7b14610f7f578063ff58bf5014610faa575b005b34801561023257600080fd5b50610267600480360381019080803573ffffffffffffffffffffffffffffffffffffffff169060200190929190505050611001565b6040518082815260200191505060405180910390f35b34801561028957600080fd5b506102926110a3565b6040518080602001828103825283818151815260200191508051906020019080838360005b838110156102d25780820151818401526020810190506102b7565b50505050905090810190601f1680156102ff5780820380516001836020036101000a031916815260200191505b509250505060405180910390f35b34801561031957600080fd5b50610394600480360381019080803573ffffffffffffffffffffffffffffffffffffffff169060200190929190803590602001908201803590602001908080601f0160208091040260200160405190810160405280939291908181526020018383808284378201915050505050509192919290505050611141565b005b3480156103a257600080fd5b506103c1600480360381019080803590602001909291905050506111c2565b6040518082815260200191505060405180910390f35b3480156103e357600080fd5b50610402600480360381019080803590602001909291905050506111fa565b6040518082815260200191505060405180910390f35b34801561042457600080fd5b5061042d611232565b6040518082815260200191505060405180910390f35b34801561044f57600080fd5b5061045861123c565b6040518080602001828103825283818151815260200191508051906020019080838360005b8381101561049857808201518184015260208101905061047d565b50505050905090810190601f1680156104c55780820380516001836020036101000a031916815260200191505b509250505060405180910390f35b3480156104df57600080fd5b5061055a600480360381019080803573ffffffffffffffffffffffffffffffffffffffff169060200190929190803590602001908201803590602001908080601f0160208091040260200160405190810160405280939291908181526020018383808284378201915050505050509192919290505050611275565b604051808215151515815260200191505060405180910390f35b34801561058057600080fd5b506105896112fc565b6040518082815260200191505060405180910390f35b3480156105ab57600080fd5b5061060360048036038101908080359060200190820180359060200190808060200260200160405190810160405280939291908181526020018383602002808284378201915050505050509192919290505050611302565b005b34801561061157600080fd5b5061061a61139e565b604051808215151515815260200191505060405180910390f35b34801561064057600080fd5b50610675600480360381019080803573ffffffffffffffffffffffffffffffffffffffff1690602001909291905050506113b1565b005b34801561068357600080fd5b5061068c61144e565b604051808260ff1660ff16815260200191505060405180910390f35b3480156106b457600080fd5b506106f3600480360381019080803573ffffffffffffffffffffffffffffffffffffffff16906020019092919080359060200190929190505050611453565b005b34801561070157600080fd5b50610736600480360381019080803573ffffffffffffffffffffffffffffffffffffffff16906020019092919050505061172c565b6040518082815260200191505060405180910390f35b34801561075857600080fd5b50610761611775565b6040518082815260200191505060405180910390f35b34801561078357600080fd5b5061078c6117db565b005b34801561079a57600080fd5b506107cf600480360381019080803573ffffffffffffffffffffffffffffffffffffffff16906020019092919050505061197a565b005b3480156107dd57600080fd5b506107e6611c1e565b6040518082815260200191505060405180910390f35b34801561080857600080fd5b50610847600480360381019080803573ffffffffffffffffffffffffffffffffffffffff16906020019092919080359060200190929190505050611c24565b005b34801561085557600080fd5b5061088a600480360381019080803573ffffffffffffffffffffffffffffffffffffffff169060200190929190505050611ea0565b6040518082815260200191505060405180910390f35b3480156108ac57600080fd5b506108b5611ee9565b005b3480156108c357600080fd5b506108f8600480360381019080803573ffffffffffffffffffffffffffffffffffffffff169060200190929190505050611feb565b005b34801561090657600080fd5b5061090f612088565b6040518082815260200191505060405180910390f35b34801561093157600080fd5b5061093a6120ee565b604051808273ffffffffffffffffffffffffffffffffffffffff1673ffffffffffffffffffffffffffffffffffffffff16815260200191505060405180910390f35b34801561098857600080fd5b50610991612113565b6040518080602001828103825283818151815260200191508051906020019080838360005b838110156109d15780820151818401526020810190506109b6565b50505050905090810190601f1680156109fe5780820380516001836020036101000a031916815260200191505b509250505060405180910390f35b348015610a1857600080fd5b50610a4d600480360381019080803573ffffffffffffffffffffffffffffffffffffffff1690602001909291905050506121b1565b604051808215151515815260200191505060405180910390f35b348015610a7357600080fd5b50610aa8600480360381019080803573ffffffffffffffffffffffffffffffffffffffff1690602001909291905050506121f9565b6040518082815260200191505060405180910390f35b348015610aca57600080fd5b50610aff600480360381019080803573ffffffffffffffffffffffffffffffffffffffff169060200190929190505050612211565b6040518082815260200191505060405180910390f35b348015610b2157600080fd5b50610b2a612229565b005b348015610b3857600080fd5b50610b416122a1565b6040518082815260200191505060405180910390f35b348015610b6357600080fd5b50610b98600480360381019080803573ffffffffffffffffffffffffffffffffffffffff1690602001909291905050506123a0565b005b348015610ba657600080fd5b50610bc56004803603810190808035906020019092919050505061244b565b6040518082815260200191505060405180910390f35b348015610be757600080fd5b50610c42600480360381019080803590602001908201803590602001908080601f0160208091040260200160405190810160405280939291908181526020018383808284378201915050505050509192919290505050612499565b005b348015610c5057600080fd5b50610c91600480360381019080803573ffffffffffffffffffffffffffffffffffffffff16906020019092919080351515906020019092919050505061250e565b6040518082815260200191505060405180910390f35b348015610cb357600080fd5b50610d0e600480360381019080803590602001908201803590602001908080601f016020809104026020016040519081016040528093929190818152602001838380828437820191505050505050919291929050505061257b565b005b348015610d1c57600080fd5b50610d5b600480360381019080803573ffffffffffffffffffffffffffffffffffffffff169060200190929190803590602001909291905050506125f0565b6040518082815260200191505060405180910390f35b348015610d7d57600080fd5b50610dbc600480360381019080803573ffffffffffffffffffffffffffffffffffffffff1690602001909291908035906020019092919050505061288e565b005b610e1c600480360381019080803573ffffffffffffffffffffffffffffffffffffffff16906020019092919080359060200190929190803573ffffffffffffffffffffffffffffffffffffffff169060200190929190505050612b07565b6040518082815260200191505060405180910390f35b348015610e3e57600080fd5b50610e9660048036038101908080359060200190820180359060200190808060200260200160405190810160405280939291908181526020018383602002808284378201915050505050509192919290505050612c9c565b005b348015610ea457600080fd5b50610ead612d38565b604051808273ffffffffffffffffffffffffffffffffffffffff1673ffffffffffffffffffffffffffffffffffffffff16815260200191505060405180910390f35b348015610efb57600080fd5b50610f30600480360381019080803573ffffffffffffffffffffffffffffffffffffffff169060200190929190505050612d5e565b005b348015610f3e57600080fd5b50610f7d600480360381019080803573ffffffffffffffffffffffffffffffffffffffff16906020019092919080359060200190929190505050612dfd565b005b348015610f8b57600080fd5b50610f9461315e565b6040518082815260200191505060405180910390f35b348015610fb657600080fd5b50610fbf613164565b604051808273ffffffffffffffffffffffffffffffffffffffff1673ffffffffffffffffffffffffffffffffffffffff16815260200191505060405180910390f35b600068010000000000000000600a60008473ffffffffffffffffffffffffffffffffffffffff1673ffffffffffffffffffffffffffffffffffffffff16815260200190815260200160002054600860008573ffffffffffffffffffffffffffffffffffffffff1673ffffffffffffffffffffffffffffffffffffffff16815260200190815260200160002054600f54020381151561109b57fe5b049050919050565b60038054600181600116156101000203166002900480601f0160208091040260200160405190810160405280929190818152602001828054600181600116156101000203166002900480156111395780601f1061110e57610100808354040283529160200191611139565b820191906000526020600020905b81548152906001019060200180831161111c57829003601f168201915b505050505081565b6111be826002836040518082805190602001908083835b60208310151561117d5780518252602082019150602081019050602083039250611158565b6001836020036101000a038019825116818451168082178552505050505050905001915050908152602001604051809103902061318a90919063ffffffff16565b5050565b6000806000806111d685600a60ff166131a3565b92506111e285846131b9565b91506111ed826131d2565b9050809350505050919050565b60008060008061120985613267565b925061121983600a60ff166131a3565b915061122583836131b9565b9050809350505050919050565b6000600e54905090565b6040805190810160405280600981526020017f77686974656c697374000000000000000000000000000000000000000000000081525081565b60006112f4836002846040518082805190602001908083835b6020831015156112b3578051825260208201915060208101905060208303925061128e565b6001836020036101000a038019825116818451168082178552505050505050905001915050908152602001604051809103902061331c90919063ffffffff16565b905092915050565b60115481565b60008060009054906101000a900473ffffffffffffffffffffffffffffffffffffffff1673ffffffffffffffffffffffffffffffffffffffff163373ffffffffffffffffffffffffffffffffffffffff1614151561135f57600080fd5b600090505b815181101561139a5761138d828281518110151561137e57fe5b906020019060200201516113b1565b8080600101915050611364565b5050565b601260009054906101000a900460ff1681565b6000809054906101000a900473ffffffffffffffffffffffffffffffffffffffff1673ffffffffffffffffffffffffffffffffffffffff163373ffffffffffffffffffffffffffffffffffffffff1614151561140c57600080fd5b61144b816040805190810160405280600981526020017f77686974656c6973740000000000000000000000000000000000000000000000815250613375565b50565b601281565b60008060008060003361149b816040805190810160405280600981526020017f77686974656c6973740000000000000000000000000000000000000000000000815250611141565b6114a36134a9565b87111515156114b157600080fd5b8795506114bd87613267565b94506114c76122a1565b85111515156114d557600080fd5b6114e385600a60ff166131a3565b93506114ef85856131b9565b92506114fd601154886134c9565b60118190555061154c600d60008873ffffffffffffffffffffffffffffffffffffffff1673ffffffffffffffffffffffffffffffffffffffff16815260200190815260200160002054886134c9565b600d60008873ffffffffffffffffffffffffffffffffffffffff1673ffffffffffffffffffffffffffffffffffffffff168152602001908152602001600020819055506115976134e5565b915060008211156115cb576115c4600f54836801000000000000000087028115156115be57fe5b046134c9565b600f819055505b600760009054906101000a900473ffffffffffffffffffffffffffffffffffffffff1673ffffffffffffffffffffffffffffffffffffffff1663a9059cbb87856040518363ffffffff167c0100000000000000000000000000000000000000000000000000000000028152600401808373ffffffffffffffffffffffffffffffffffffffff1673ffffffffffffffffffffffffffffffffffffffff16815260200182815260200192505050602060405180830381600087803b15801561169057600080fd5b505af11580156116a4573d6000803e3d6000fd5b505050506040513d60208110156116ba57600080fd5b8101908080519060200190929190505050508573ffffffffffffffffffffffffffffffffffffffff167fe9d4fb0074327a194c752e06c8b2fce4a89cd86202090528bb81582a3f20fedd8885604051808381526020018281526020019250505060405180910390a25050505050505050565b6000600960008373ffffffffffffffffffffffffffffffffffffffff1673ffffffffffffffffffffffffffffffffffffffff168152602001908152602001600020549050919050565b60008060008060006117856134a9565b14156117a257655e2ff10350006603addf6a2120000393506117d5565b6117b3670de0b6b3a7640000613267565b92506117c383600a60ff166131a3565b91506117cf83836131b9565b90508093505b50505090565b600160009054906101000a900473ffffffffffffffffffffffffffffffffffffffff1673ffffffffffffffffffffffffffffffffffffffff163373ffffffffffffffffffffffffffffffffffffffff1614151561183757600080fd5b600160009054906101000a900473ffffffffffffffffffffffffffffffffffffffff1673ffffffffffffffffffffffffffffffffffffffff166000809054906101000a900473ffffffffffffffffffffffffffffffffffffffff1673ffffffffffffffffffffffffffffffffffffffff167f8be0079c531659141344cd1fd0a4f28419497f9722a3daafe3b4186f6b6457e060405160405180910390a3600160009054906101000a900473ffffffffffffffffffffffffffffffffffffffff166000806101000a81548173ffffffffffffffffffffffffffffffffffffffff021916908373ffffffffffffffffffffffffffffffffffffffff1602179055506000600160006101000a81548173ffffffffffffffffffffffffffffffffffffffff021916908373ffffffffffffffffffffffffffffffffffffffff160217905550565b60008082600061198b82600161250e565b11151561199757600080fd5b336119d7816040805190810160405280600981526020017f77686974656c6973740000000000000000000000000000000000000000000000815250611141565b8493506119e584600061250e565b9250680100000000000000008302600a60008673ffffffffffffffffffffffffffffffffffffffff1673ffffffffffffffffffffffffffffffffffffffff16815260200190815260200160002060008282540192505081905550600960008573ffffffffffffffffffffffffffffffffffffffff1673ffffffffffffffffffffffffffffffffffffffff16815260200190815260200160002054830192506000600960008673ffffffffffffffffffffffffffffffffffffffff1673ffffffffffffffffffffffffffffffffffffffff16815260200190815260200160002081905550600760009054906101000a900473ffffffffffffffffffffffffffffffffffffffff1673ffffffffffffffffffffffffffffffffffffffff1663a9059cbb85856040518363ffffffff167c0100000000000000000000000000000000000000000000000000000000028152600401808373ffffffffffffffffffffffffffffffffffffffff1673ffffffffffffffffffffffffffffffffffffffff16815260200182815260200192505050602060405180830381600087803b158015611b8d57600080fd5b505af1158015611ba1573d6000803e3d6000fd5b505050506040513d6020811015611bb757600080fd5b8101908080519060200190929190505050508373ffffffffffffffffffffffffffffffffffffffff167fccad973dcd043c7d680389db4378bd6b9775db7124092e9e0422c9e46d7985dc846040518082815260200191505060405180910390a25050505050565b60055481565b6000806000806000806000886000611c3b82611ea0565b111515611c4757600080fd5b33611c87816040805190810160405280600981526020017f77686974656c6973740000000000000000000000000000000000000000000000815250611141565b8a9850600860008a73ffffffffffffffffffffffffffffffffffffffff1673ffffffffffffffffffffffffffffffffffffffff168152602001908152602001600020548a11151515611cd857600080fd5b899750611ce488613267565b9650611cf487600a60ff166131a3565b9550611d0087876131b9565b9450611d0e600e54896131b9565b600e81905550611d5d600860008b73ffffffffffffffffffffffffffffffffffffffff1673ffffffffffffffffffffffffffffffffffffffff16815260200190815260200160002054896131b9565b600860008b73ffffffffffffffffffffffffffffffffffffffff1673ffffffffffffffffffffffffffffffffffffffff1681526020019081526020016000208190555068010000000000000000850288600f540201935083600a60008b73ffffffffffffffffffffffffffffffffffffffff1673ffffffffffffffffffffffffffffffffffffffff16815260200190815260200160002060008282540392505081905550611e096134e5565b92506000831115611e3d57611e36600f5484680100000000000000008902811515611e3057fe5b046134c9565b600f819055505b8873ffffffffffffffffffffffffffffffffffffffff167fc4823739c5787d2ca17e404aa47d5569ae71dfb49cbf21b3f6152ed238a311398987604051808381526020018281526020019250505060405180910390a25050505050505050505050565b6000600860008373ffffffffffffffffffffffffffffffffffffffff1673ffffffffffffffffffffffffffffffffffffffff168152602001908152602001600020549050919050565b6000809054906101000a900473ffffffffffffffffffffffffffffffffffffffff1673ffffffffffffffffffffffffffffffffffffffff163373ffffffffffffffffffffffffffffffffffffffff16141515611f4457600080fd5b6000809054906101000a900473ffffffffffffffffffffffffffffffffffffffff1673ffffffffffffffffffffffffffffffffffffffff167ff8df31144d9c2f0f6b59d69b8b98abd5459d07f2742c4df920b25aae33c6482060405160405180910390a260008060006101000a81548173ffffffffffffffffffffffffffffffffffffffff021916908373ffffffffffffffffffffffffffffffffffffffff160217905550565b6000809054906101000a900473ffffffffffffffffffffffffffffffffffffffff1673ffffffffffffffffffffffffffffffffffffffff163373ffffffffffffffffffffffffffffffffffffffff1614151561204657600080fd5b612085816040805190810160405280600981526020017f77686974656c69737400000000000000000000000000000000000000000000008152506134ef565b50565b60008060008060006120986134a9565b14156120b557655e2ff10350006603addf6a2120000193506120e8565b6120c6670de0b6b3a7640000613267565b92506120d683600a60ff166131a3565b91506120e283836134c9565b90508093505b50505090565b6000809054906101000a900473ffffffffffffffffffffffffffffffffffffffff1681565b60048054600181600116156101000203166002900480601f0160208091040260200160405190810160405280929190818152602001828054600181600116156101000203166002900480156121a95780601f1061217e576101008083540402835291602001916121a9565b820191906000526020600020905b81548152906001019060200180831161218c57829003601f168201915b505050505081565b60006121f2826040805190810160405280600981526020017f77686974656c6973740000000000000000000000000000000000000000000000815250611275565b9050919050565b600c6020528060005260406000206000915090505481565b600d6020528060005260406000206000915090505481565b6000809054906101000a900473ffffffffffffffffffffffffffffffffffffffff1673ffffffffffffffffffffffffffffffffffffffff163373ffffffffffffffffffffffffffffffffffffffff1614151561228457600080fd5b6000601260006101000a81548160ff021916908315150217905550565b6000600760009054906101000a900473ffffffffffffffffffffffffffffffffffffffff1673ffffffffffffffffffffffffffffffffffffffff166370a08231306040518263ffffffff167c0100000000000000000000000000000000000000000000000000000000028152600401808273ffffffffffffffffffffffffffffffffffffffff1673ffffffffffffffffffffffffffffffffffffffff168152602001915050602060405180830381600087803b15801561236057600080fd5b505af1158015612374573d6000803e3d6000fd5b505050506040513d602081101561238a57600080fd5b8101908080519060200190929190505050905090565b600080336123e3816040805190810160405280600981526020017f77686974656c6973740000000000000000000000000000000000000000000000815250611141565b839250600860008473ffffffffffffffffffffffffffffffffffffffff1673ffffffffffffffffffffffffffffffffffffffff168152602001908152602001600020549150600082111561243c5761243b8483611c24565b5b6124458461197a565b50505050565b6000806000806124596134a9565b851115151561246757600080fd5b61247085613267565b925061248083600a60ff166131a3565b915061248c83836131b9565b9050809350505050919050565b6000809054906101000a900473ffffffffffffffffffffffffffffffffffffffff1673ffffffffffffffffffffffffffffffffffffffff163373ffffffffffffffffffffffffffffffffffffffff161415156124f457600080fd5b806004908051906020019061250a929190613f8a565b5050565b600080839050826125275761252281611001565b612572565b600960008273ffffffffffffffffffffffffffffffffffffffff1673ffffffffffffffffffffffffffffffffffffffff1681526020019081526020016000205461257082611001565b015b91505092915050565b6000809054906101000a900473ffffffffffffffffffffffffffffffffffffffff1673ffffffffffffffffffffffffffffffffffffffff163373ffffffffffffffffffffffffffffffffffffffff161415156125d657600080fd5b80600390805190602001906125ec929190613f8a565b5050565b60008060008085600061260282611ea0565b11151561260e57600080fd5b3361264e816040805190810160405280600981526020017f77686974656c6973740000000000000000000000000000000000000000000000815250611141565b879450600860008673ffffffffffffffffffffffffffffffffffffffff1673ffffffffffffffffffffffffffffffffffffffff16815260200190815260200160002054871115151561269f57600080fd5b8693506126ae600e54856131b9565b600e819055506126c0601054856134c9565b60108190555061270f600860008773ffffffffffffffffffffffffffffffffffffffff1673ffffffffffffffffffffffffffffffffffffffff16815260200190815260200160002054856131b9565b600860008773ffffffffffffffffffffffffffffffffffffffff1673ffffffffffffffffffffffffffffffffffffffff1681526020019081526020016000208190555061279b600c60008773ffffffffffffffffffffffffffffffffffffffff1673ffffffffffffffffffffffffffffffffffffffff16815260200190815260200160002054856134c9565b600c60008773ffffffffffffffffffffffffffffffffffffffff1673ffffffffffffffffffffffffffffffffffffffff1681526020019081526020016000208190555083600f5402925082600a60008773ffffffffffffffffffffffffffffffffffffffff1673ffffffffffffffffffffffffffffffffffffffff168152602001908152602001600020600082825403925050819055508473ffffffffffffffffffffffffffffffffffffffff167ff442d356b73f85e354ab3e2be58a493fbcbfc105e75bd7cef5c6d1882bd20715856040518082815260200191505060405180910390a2839550505050505092915050565b60008060008460006128a182600161250e565b1115156128ad57600080fd5b336128ed816040805190810160405280600981526020017f77686974656c6973740000000000000000000000000000000000000000000000815250611141565b6128f887600061250e565b9450600960008873ffffffffffffffffffffffffffffffffffffffff1673ffffffffffffffffffffffffffffffffffffffff168152602001908152602001600020549350838501861115151561294d57600080fd5b84861115156129b357680100000000000000008602600a60008973ffffffffffffffffffffffffffffffffffffffff1673ffffffffffffffffffffffffffffffffffffffff16815260200190815260200160002060008282540192505081905550612a9a565b680100000000000000008502600a60008973ffffffffffffffffffffffffffffffffffffffff1673ffffffffffffffffffffffffffffffffffffffff16815260200190815260200160002060008282540192505081905550612a56600960008973ffffffffffffffffffffffffffffffffffffffff1673ffffffffffffffffffffffffffffffffffffffff168152602001908152602001600020548688036131b9565b600960008973ffffffffffffffffffffffffffffffffffffffff1673ffffffffffffffffffffffffffffffffffffffff168152602001908152602001600020819055505b612aa687876000613623565b92508673ffffffffffffffffffffffffffffffffffffffff167fbe339fc14b041c2b0e0f3dd2cd325d0c3668b78378001e53160eab36153264588785604051808381526020018281526020019250505060405180910390a250505050505050565b600033612b49816040805190810160405280600981526020017f77686974656c6973740000000000000000000000000000000000000000000000815250611141565b600760009054906101000a900473ffffffffffffffffffffffffffffffffffffffff1673ffffffffffffffffffffffffffffffffffffffff166323b872dd8630876040518463ffffffff167c0100000000000000000000000000000000000000000000000000000000028152600401808473ffffffffffffffffffffffffffffffffffffffff1673ffffffffffffffffffffffffffffffffffffffff1681526020018373ffffffffffffffffffffffffffffffffffffffff1673ffffffffffffffffffffffffffffffffffffffff1681526020018281526020019350505050602060405180830381600087803b158015612c4257600080fd5b505af1158015612c56573d6000803e3d6000fd5b505050506040513d6020811015612c6c57600080fd5b81019080805190602001909291905050501515612c8857600080fd5b612c93858585613623565b50509392505050565b60008060009054906101000a900473ffffffffffffffffffffffffffffffffffffffff1673ffffffffffffffffffffffffffffffffffffffff163373ffffffffffffffffffffffffffffffffffffffff16141515612cf957600080fd5b600090505b8151811015612d3457612d278282815181101515612d1857fe5b90602001906020020151611feb565b8080600101915050612cfe565b5050565b600160009054906101000a900473ffffffffffffffffffffffffffffffffffffffff1681565b6000809054906101000a900473ffffffffffffffffffffffffffffffffffffffff1673ffffffffffffffffffffffffffffffffffffffff163373ffffffffffffffffffffffffffffffffffffffff16141515612db957600080fd5b80600160006101000a81548173ffffffffffffffffffffffffffffffffffffffff021916908373ffffffffffffffffffffffffffffffffffffffff16021790555050565b600080836000612e0e82600161250e565b111515612e1a57600080fd5b33612e5a816040805190810160405280600981526020017f77686974656c6973740000000000000000000000000000000000000000000000815250611141565b612e6586600061250e565b9350600960008773ffffffffffffffffffffffffffffffffffffffff1673ffffffffffffffffffffffffffffffffffffffff1681526020019081526020016000205492508284018511151515612eba57600080fd5b8385111515612f2057680100000000000000008502600a60008873ffffffffffffffffffffffffffffffffffffffff1673ffffffffffffffffffffffffffffffffffffffff16815260200190815260200160002060008282540192505081905550613007565b680100000000000000008402600a60008873ffffffffffffffffffffffffffffffffffffffff1673ffffffffffffffffffffffffffffffffffffffff16815260200190815260200160002060008282540192505081905550612fc3600960008873ffffffffffffffffffffffffffffffffffffffff1673ffffffffffffffffffffffffffffffffffffffff168152602001908152602001600020548587036131b9565b600960008873ffffffffffffffffffffffffffffffffffffffff1673ffffffffffffffffffffffffffffffffffffffff168152602001908152602001600020819055505b600760009054906101000a900473ffffffffffffffffffffffffffffffffffffffff1673ffffffffffffffffffffffffffffffffffffffff1663a9059cbb87866040518363ffffffff167c0100000000000000000000000000000000000000000000000000000000028152600401808373ffffffffffffffffffffffffffffffffffffffff1673ffffffffffffffffffffffffffffffffffffffff16815260200182815260200192505050602060405180830381600087803b1580156130cc57600080fd5b505af11580156130e0573d6000803e3d6000fd5b505050506040513d60208110156130f657600080fd5b8101908080519060200190929190505050508573ffffffffffffffffffffffffffffffffffffffff167fccad973dcd043c7d680389db4378bd6b9775db7124092e9e0422c9e46d7985dc866040518082815260200191505060405180910390a2505050505050565b60105481565b600760009054906101000a900473ffffffffffffffffffffffffffffffffffffffff1681565b613194828261331c565b151561319f57600080fd5b5050565b600081838115156131b057fe5b04905092915050565b60008282111515156131c757fe5b818303905092915050565b6000806000806603addf6a21200092506131ea6134a9565b9150600e54655e2ff103500061324f613249600e5487655e2ff103500060020202026002600e540a6002655e2ff10350000a02670de0b6b3a76400008b02670de0b6b3a7640000655e2ff1035000026002020260028a0a010101613e83565b866131b9565b81151561325857fe5b04039050809350505050919050565b600080600080670de0b6b3a764000085019250670de0b6b3a764000061328b6134a9565b019150670de0b6b3a7640000613305670de0b6b3a76400008503655e2ff1035000670de0b6b3a7640000868115156132bf57fe5b04655e2ff1035000026603addf6a2120000103026002670de0b6b3a7640000876002890a038115156132ed57fe5b04655e2ff1035000028115156132ff57fe5b046131b9565b81151561330e57fe5b049050809350505050919050565b60008260000160008373ffffffffffffffffffffffffffffffffffffffff1673ffffffffffffffffffffffffffffffffffffffff16815260200190815260200160002060009054906101000a900460ff16905092915050565b6133f2826002836040518082805190602001908083835b6020831015156133b1578051825260208201915060208101905060208303925061338c565b6001836020036101000a0380198251168184511680821785525050505050509050019150509081526020016040518091039020613ece90919063ffffffff16565b8173ffffffffffffffffffffffffffffffffffffffff167fd211483f91fc6eff862467f8de606587a30c8fc9981056f051b897a418df803a826040518080602001828103825283818151815260200191508051906020019080838360005b8381101561346b578082015181840152602081019050613450565b50505050905090810190601f1680156134985780820380516001836020036101000a031916815260200191505b509250505060405180910390a25050565b60006134c46134bc600e546010546134c9565b6011546131b9565b905090565b600081830190508281101515156134dc57fe5b80905092915050565b6000600e54905090565b61356c826002836040518082805190602001908083835b60208310151561352b5780518252602082019150602081019050602083039250613506565b6001836020036101000a0380198251168184511680821785525050505050509050019150509081526020016040518091039020613f2c90919063ffffffff16565b8173ffffffffffffffffffffffffffffffffffffffff167fbfec83d64eaa953f2708271a023ab9ee82057f8f3578d548c1a4ba0b5b700489826040518080602001828103825283818151815260200191508051906020019080838360005b838110156135e55780820151818401526020810190506135ca565b50505050905090810190601f1680156136125780820380516001836020036101000a031916815260200191505b509250505060405180910390a25050565b600080600080600080600089896000829050601260009054906101000a900460ff16801561365d575062030d40826136596122a1565b0311155b15613afc5760011515600660008373ffffffffffffffffffffffffffffffffffffffff1673ffffffffffffffffffffffffffffffffffffffff16815260200190815260200160002060009054906101000a900460ff161515148015613705575061271082600b60008473ffffffffffffffffffffffffffffffffffffffff1673ffffffffffffffffffffffffffffffffffffffff168152602001908152602001600020540111155b151561371057600080fd5b613759600b60008373ffffffffffffffffffffffffffffffffffffffff1673ffffffffffffffffffffffffffffffffffffffff16815260200190815260200160002054836134c9565b600b60008373ffffffffffffffffffffffffffffffffffffffff1673ffffffffffffffffffffffffffffffffffffffff168152602001908152602001600020819055506137aa8c600a60ff166131a3565b98506137b78960036131a3565b97506137c389896131b9565b96506137cf8c8a6131b9565b95506137da866131d2565b945068010000000000000000870293506000851180156138065750600e5461380486600e546134c9565b115b151561381157600080fd5b600073ffffffffffffffffffffffffffffffffffffffff168b73ffffffffffffffffffffffffffffffffffffffff161415801561387a57508c73ffffffffffffffffffffffffffffffffffffffff168b73ffffffffffffffffffffffffffffffffffffffff1614155b15613910576138c8600960008d73ffffffffffffffffffffffffffffffffffffffff1673ffffffffffffffffffffffffffffffffffffffff16815260200190815260200160002054896134c9565b600960008d73ffffffffffffffffffffffffffffffffffffffff1673ffffffffffffffffffffffffffffffffffffffff1681526020019081526020016000208190555061392b565b61391a87896134c9565b965068010000000000000000870293505b6000600e5411156139a057613942600e54866134c9565b600e819055506139506134e5565b68010000000000000000880281151561396557fe5b04600f6000828254019250508190555061397d6134e5565b68010000000000000000880281151561399257fe5b0485028403840393506139a8565b84600e819055505b6139f1600860008f73ffffffffffffffffffffffffffffffffffffffff1673ffffffffffffffffffffffffffffffffffffffff16815260200190815260200160002054866134c9565b600860008f73ffffffffffffffffffffffffffffffffffffffff1673ffffffffffffffffffffffffffffffffffffffff168152602001908152602001600020819055508385600f540203600a60008f73ffffffffffffffffffffffffffffffffffffffff1673ffffffffffffffffffffffffffffffffffffffff168152602001908152602001600020600082825401925050819055508a73ffffffffffffffffffffffffffffffffffffffff168d73ffffffffffffffffffffffffffffffffffffffff167f022c0d992e4d873a3748436d960d5140c1f9721cf73f7ca5ec679d3d9f4fe2d58e88604051808381526020018281526020019250505060405180910390a3849950613e73565b6000601260006101000a81548160ff021916908315150217905550613b258c600a60ff166131a3565b9850613b328960036131a3565b9750613b3e89896131b9565b9650613b4a8c8a6131b9565b9550613b55866131d2565b94506801000000000000000087029350600085118015613b815750600e54613b7f86600e546134c9565b115b1515613b8c57600080fd5b600073ffffffffffffffffffffffffffffffffffffffff168b73ffffffffffffffffffffffffffffffffffffffff1614158015613bf557508c73ffffffffffffffffffffffffffffffffffffffff168b73ffffffffffffffffffffffffffffffffffffffff1614155b15613c8b57613c43600960008d73ffffffffffffffffffffffffffffffffffffffff1673ffffffffffffffffffffffffffffffffffffffff16815260200190815260200160002054896134c9565b600960008d73ffffffffffffffffffffffffffffffffffffffff1673ffffffffffffffffffffffffffffffffffffffff16815260200190815260200160002081905550613ca6565b613c9587896134c9565b965068010000000000000000870293505b6000600e541115613d1b57613cbd600e54866134c9565b600e81905550613ccb6134e5565b680100000000000000008802811515613ce057fe5b04600f60008282540192505081905550613cf86134e5565b680100000000000000008802811515613d0d57fe5b048502840384039350613d23565b84600e819055505b613d6c600860008f73ffffffffffffffffffffffffffffffffffffffff1673ffffffffffffffffffffffffffffffffffffffff16815260200190815260200160002054866134c9565b600860008f73ffffffffffffffffffffffffffffffffffffffff1673ffffffffffffffffffffffffffffffffffffffff168152602001908152602001600020819055508385600f540203600a60008f73ffffffffffffffffffffffffffffffffffffffff1673ffffffffffffffffffffffffffffffffffffffff168152602001908152602001600020600082825401925050819055508a73ffffffffffffffffffffffffffffffffffffffff168d73ffffffffffffffffffffffffffffffffffffffff167f022c0d992e4d873a3748436d960d5140c1f9721cf73f7ca5ec679d3d9f4fe2d58e88604051808381526020018281526020019250505060405180910390a38499505b5050505050505050509392505050565b600080600260018401811515613e9557fe5b0490508291505b81811015613ec8578091506002818285811515613eb557fe5b0401811515613ec057fe5b049050613e9c565b50919050565b60008260000160008373ffffffffffffffffffffffffffffffffffffffff1673ffffffffffffffffffffffffffffffffffffffff16815260200190815260200160002060006101000a81548160ff0219169083151502179055505050565b60018260000160008373ffffffffffffffffffffffffffffffffffffffff1673ffffffffffffffffffffffffffffffffffffffff16815260200190815260200160002060006101000a81548160ff0219169083151502179055505050565b828054600181600116156101000203166002900490600052602060002090601f016020900481019282601f10613fcb57805160ff1916838001178555613ff9565b82800160010185558215613ff9579182015b82811115613ff8578251825591602001919060010190613fdd565b5b509050614006919061400a565b5090565b61402c91905b80821115614028576000816000905550600101614010565b5090565b905600a165627a7a72305820c219f63b14fb2aa9342a758f02da5a277a1f6f04c7464073eea180f6fec3d81a0029",
  "source": "pragma solidity ^0.4.21;\r\nimport \"zeppelin-solidity/contracts/math/SafeMath.sol\";\r\nimport \"zeppelin-solidity/contracts/ownership/Claimable.sol\";\r\nimport \"zeppelin-solidity/contracts/token/ERC20/ERC20.sol\";\r\nimport \"zeppelin-solidity/contracts/access/Whitelist.sol\";\r\nimport \"../contracts/interface/TokenDealerInterface.sol\";\r\n\r\ncontract SeeleDealer is Claimable, Whitelist{ \r\n\r\n    /*=================================\r\n    =            MODIFIERS            =\r\n    =================================*/\r\n    // only people with tokens\r\n    modifier onlyBagholders(address myAddress) {\r\n        require(balanceOf(myAddress) > 0);\r\n        _;\r\n    }\r\n    \r\n    // only people with profits\r\n    modifier onlyStronghands(address myAddress) {\r\n        require(myDividends(myAddress, true) > 0);\r\n        _;\r\n    }\r\n    \r\n \r\n    // ensures that the first tokens in the contract will be equally distributed\r\n    // meaning, no divine dump will be ever possible\r\n    // result: healthy longevity.\r\n    modifier antiEarlyWhale(address buyer, uint256 _amountOfEthereum){\r\n        address _customerAddress = buyer;\r\n        \r\n        // are we still in the vulnerable phase?\r\n        // if so, enact anti early whale protocol \r\n        if( onlyAmbassadors && ((totalBalance() - _amountOfEthereum) <= ambassadorQuota_ )){\r\n            require(\r\n                // is the customer in the ambassador list?\r\n                ambassadors_[_customerAddress] == true &&\r\n                \r\n                // does the customer purchase exceed the max ambassador quota?\r\n                (ambassadorAccumulatedQuota_[_customerAddress] + _amountOfEthereum) <= ambassadorMaxPurchase_\r\n                \r\n            );\r\n            \r\n            // updated the accumulated quota    \r\n            ambassadorAccumulatedQuota_[_customerAddress] = SafeMath.add(ambassadorAccumulatedQuota_[_customerAddress], _amountOfEthereum);\r\n        \r\n            // execute\r\n            _;\r\n        } else {\r\n            // in case the ether count drops low, the ambassador phase won't reinitiate\r\n            onlyAmbassadors = false;\r\n            _;    \r\n        }\r\n        \r\n    }\r\n    \r\n    \r\n    /*==============================\r\n    =            EVENTS            =\r\n    ==============================*/\r\n    event onTokenPurchase(\r\n        address indexed customerAddress,\r\n        uint256 incomingEthereum,\r\n        uint256 tokensMinted,\r\n        address indexed referredBy\r\n    );\r\n    \r\n    event onTokenSell(\r\n        address indexed customerAddress,\r\n        uint256 tokensBurned,\r\n        uint256 seeleEarned\r\n    );\r\n\r\n    event onTokenSellByProtocol(\r\n        address indexed customerAddress,\r\n        uint256 tokensBurned,\r\n        uint256 seeleEarned\r\n    );\r\n    \r\n    event onReinvestment(\r\n        address indexed customerAddress,\r\n        uint256 ethereumReinvested,\r\n        uint256 tokensMinted\r\n    );\r\n    \r\n    event onWithdraw(\r\n        address indexed customerAddress,\r\n        uint256 ethereumWithdrawn\r\n    );\r\n    \r\n    event onTokenEscape(\r\n        address indexed customerAddress,\r\n        uint256 tokensEscaped\r\n    );\r\n\r\n    event onTokenArbitrage(\r\n        address indexed customerAddress,\r\n        uint256 tokensBurned,\r\n        uint256 ethereumEarned\r\n    );\r\n        \r\n    // ERC20\r\n    event Transfer(\r\n        address indexed from,\r\n        address indexed to,\r\n        uint256 tokens\r\n    );\r\n\r\n    /*=====================================\r\n    =            CONFIGURABLES            =\r\n    =====================================*/\r\n    string public name = \"Seele-S3D\";\r\n    string public symbol = \"Seele-S3D\";\r\n    uint8 constant public decimals = 18;\r\n    uint8 constant internal dividendFee_ = 10;\r\n\r\n    uint256 constant internal tokenPriceInitial_ = 0.0010356 * 1e18;\r\n    uint256 constant internal tokenPriceIncremental_ = 0.00010356 * 1e18;\r\n    uint256 constant internal magnitude = 2**64;\r\n    \r\n    // proof of stake (defaults at 100 tokens)\r\n    uint256 public stakingRequirement = 100e18;\r\n    \r\n    // ambassador program\r\n    mapping(address => bool) internal ambassadors_;\r\n    uint256 constant internal ambassadorMaxPurchase_ = 10000;\r\n    uint256 constant internal ambassadorQuota_ = 200000;\r\n    \r\n    address public seeleTokenAddress = 0x47879ac781938CFfd879392Cd2164b9F7306188a;\r\n   /*================================\r\n    =            DATASETS            =\r\n    ================================*/\r\n    // amount of shares for each address (scaled number)\r\n    mapping(address => uint256) internal tokenBalanceLedger_;\r\n    mapping(address => uint256) internal referralBalance_;\r\n    mapping(address => int256) internal payoutsTo_;\r\n    mapping(address => uint256) internal ambassadorAccumulatedQuota_;\r\n\r\n    mapping(address => uint256) public escapeTokenBalance_;\r\n    mapping(address => uint256) public overSellTokenBalance_;\r\n\r\n    uint256 internal tokenSupply_ = 0;\r\n    uint256 internal profitPerShare_;\r\n\r\n    //NEED DO!! change to internal\r\n    uint256 public escapeTokenSuppley_ = 0;\r\n    uint256 public overSellTokenAmount_ = 0;\r\n    \r\n \r\n    // when this is set to true, only ambassadors can purchase tokens (this prevents a whale premine, it ensures a fairly distributed upper pyramid)\r\n    bool public onlyAmbassadors = true;\r\n\r\n\r\n    /*=======================================\r\n    =            PUBLIC FUNCTIONS            =\r\n    =======================================*/\r\n    /*\r\n    * -- APPLICATION ENTRY POINTS --  \r\n    */\r\n    function SeeleDealer(address tokenAddress)\r\n        public\r\n    {\r\n        seeleTokenAddress = tokenAddress;\r\n\r\n        // add the ambassadors here.\r\n        // mantso - lead solidity dev & lead web dev. \r\n        ambassadors_[0xCd16575A90eD9506BCf44C78845d93F1b647F48C] = true;\r\n    }\r\n    \r\n     \r\n    /**\r\n     * Converts all incoming ethereum to tokens for the caller, and passes down the referral addy (if any)\r\n     */\r\n    function buy(address buyer, uint256 seeleAmount, address _referredBy)\r\n        public\r\n        payable\r\n        onlyIfWhitelisted(msg.sender)\r\n        returns(uint256)\r\n    {\r\n        //transfer seele to contract\r\n        require(ERC20(seeleTokenAddress).transferFrom(buyer, address(this), seeleAmount));\r\n        purchaseTokens(buyer, seeleAmount, _referredBy);\r\n    }\r\n    \r\n    /*\r\n     * default fallback\r\n    */\r\n    function()\r\n        payable\r\n        public\r\n    {\r\n        \r\n    }\r\n\r\n    /**\r\n     * Converts all of caller's dividends to tokens.\r\n     */\r\n    function reinvest(address buyer, uint buyAmount)\r\n        onlyStronghands(buyer)\r\n        onlyIfWhitelisted(msg.sender)\r\n        public\r\n    {\r\n        // fetch dividends\r\n        uint256 _dividends = myDividends(buyer, false); // retrieve ref. bonus later in the code\r\n        uint256 _referralBalance = referralBalance_[buyer];\r\n        require(buyAmount <= (_dividends + _referralBalance));\r\n\r\n        if (buyAmount <= _dividends) {\r\n            // pay out the dividends virtually\r\n            payoutsTo_[buyer] +=  (int256)(buyAmount * magnitude);\r\n        } else {\r\n            payoutsTo_[buyer] +=  (int256) (_dividends * magnitude);\r\n            // retrieve ref. bonus\r\n            referralBalance_[buyer] = SafeMath.sub(referralBalance_[buyer], buyAmount - _dividends);\r\n        }\r\n                \r\n        // dispatch a buy order with the virtualized \"withdrawn dividends\"\r\n        uint256 _tokens = purchaseTokens(buyer, buyAmount, 0x0);\r\n        \r\n        // fire event\r\n        emit onReinvestment(buyer, buyAmount, _tokens);\r\n    }\r\n\r\n    // function reinvest(address buyer)\r\n    //     onlyStronghands(buyer)\r\n    //     public\r\n    // {\r\n    //     // fetch dividends\r\n    //     uint256 _dividends = myDividends(buyer, false); // retrieve ref. bonus later in the code\r\n        \r\n    //     // pay out the dividends virtually\r\n    //     address _customerAddress = buyer;\r\n    //     payoutsTo_[_customerAddress] +=  (int256) (_dividends * magnitude);\r\n        \r\n    //     // retrieve ref. bonus\r\n    //     _dividends += referralBalance_[_customerAddress];\r\n    //     referralBalance_[_customerAddress] = 0;\r\n        \r\n    //     // dispatch a buy order with the virtualized \"withdrawn dividends\"\r\n    //     uint256 _tokens = purchaseTokens(_customerAddress, _dividends, 0x0);\r\n        \r\n    //     // fire event\r\n    //     emit onReinvestment(_customerAddress, _dividends, _tokens);\r\n    // }\r\n    \r\n    /**\r\n     * Alias of sell() and withdraw().\r\n     */\r\n    function exit(address buyer)\r\n        onlyIfWhitelisted(msg.sender)\r\n        public\r\n    {\r\n        // get token count for caller & sell them all\r\n        address _customerAddress = buyer;\r\n        uint256 _tokens = tokenBalanceLedger_[_customerAddress];\r\n        if(_tokens > 0) \r\n            sell(buyer, _tokens);\r\n        \r\n        // lambo delivery service\r\n        withdraw(buyer);\r\n    }\r\n\r\n    /**\r\n     * Withdraws all of the callers earnings.\r\n     */\r\n    function withdraw(address buyer)\r\n        onlyStronghands(buyer)\r\n        onlyIfWhitelisted(msg.sender)\r\n        public\r\n    {\r\n        // setup data\r\n        address _customerAddress = buyer;\r\n        uint256 _dividends = myDividends(_customerAddress, false); // get ref. bonus later in the code\r\n        \r\n        // update dividend tracker\r\n        payoutsTo_[_customerAddress] +=  (int256) (_dividends * magnitude);\r\n        \r\n        // add ref. bonus\r\n        _dividends += referralBalance_[_customerAddress];\r\n        referralBalance_[_customerAddress] = 0;\r\n        \r\n        // lambo delivery service\r\n        //_customerAddress.transfer(_dividends);\r\n        ERC20(seeleTokenAddress).transfer(_customerAddress, _dividends);\r\n        \r\n        // fire event\r\n        emit onWithdraw(_customerAddress, _dividends);\r\n    }\r\n\r\n    function withdraw(address buyer, uint256 withdrawAmount)\r\n        onlyStronghands(buyer)\r\n        onlyIfWhitelisted(msg.sender)\r\n        public\r\n    {\r\n        // setup data\r\n        uint256 _dividends = myDividends(buyer, false); // get ref. bonus later in the code\r\n        uint256 _referralBalance = referralBalance_[buyer];\r\n        require(withdrawAmount <= (_dividends + _referralBalance));\r\n\r\n        if (withdrawAmount <= _dividends) {\r\n            // pay out the dividends virtually\r\n            payoutsTo_[buyer] +=  (int256)(withdrawAmount * magnitude);\r\n        } else {\r\n            // retrieve ref. bonus\r\n            payoutsTo_[buyer] +=  (int256) (_dividends * magnitude);\r\n            referralBalance_[buyer] = SafeMath.sub(referralBalance_[buyer], withdrawAmount - _dividends);\r\n        }\r\n        \r\n        \r\n        // lambo delivery service\r\n        //_customerAddress.transfer(withdrawAmount);\r\n        ERC20(seeleTokenAddress).transfer(buyer, _dividends);\r\n        \r\n        // fire event\r\n        emit onWithdraw(buyer, withdrawAmount);\r\n    }\r\n    \r\n    /**\r\n     * Liquifies tokens to ethereum.\r\n     */\r\n    function sell(address seller, uint256 _amountOfTokens)\r\n        onlyBagholders(seller)\r\n        onlyIfWhitelisted(msg.sender)\r\n        public\r\n    {\r\n        // setup data\r\n        address _customerAddress = seller;\r\n        // russian hackers BTFO\r\n        require(_amountOfTokens <= tokenBalanceLedger_[_customerAddress]);\r\n        uint256 _tokens = _amountOfTokens;\r\n        uint256 _seeleAmount = tokensToSeele(_tokens);\r\n        uint256 _dividends = SafeMath.div(_seeleAmount, dividendFee_);\r\n        uint256 _taxedSeele = SafeMath.sub(_seeleAmount, _dividends);\r\n        \r\n        // burn the sold tokens\r\n        tokenSupply_ = SafeMath.sub(tokenSupply_, _tokens);\r\n        tokenBalanceLedger_[_customerAddress] = SafeMath.sub(tokenBalanceLedger_[_customerAddress], _tokens);\r\n        \r\n        // update dividends tracker\r\n        int256 _updatedPayouts = (int256) (profitPerShare_ * _tokens + (_taxedSeele * magnitude));\r\n        payoutsTo_[_customerAddress] -= _updatedPayouts;       \r\n        \r\n        // dividing by zero is a bad idea\r\n        uint256 dividendTokenAmount_ =  getDividendTokenAmount();\r\n        if (dividendTokenAmount_ > 0) {\r\n            // update the amount of dividends per token\r\n            profitPerShare_ = SafeMath.add(profitPerShare_, (_dividends * magnitude) / dividendTokenAmount_);\r\n        }\r\n        \r\n        // fire event\r\n        emit onTokenSell(_customerAddress, _tokens, _taxedSeele);\r\n    }\r\n    \r\n    /**\r\n     * Transfer tokens from the caller to a new holder.\r\n     * Remember, there's a 10% fee here as well.\r\n     */\r\n    // function transfer(address _toAddress, uint256 _amountOfTokens)\r\n    //     onlyBagholders()\r\n    //     public\r\n    //     returns(bool)\r\n    // {\r\n    //     // setup\r\n    //     address _customerAddress = msg.sender;\r\n        \r\n    //     // make sure we have the requested tokens\r\n    //     // also disables transfers until ambassador phase is over\r\n    //     // ( we dont want whale premines )\r\n    //     require(!onlyAmbassadors && _amountOfTokens <= tokenBalanceLedger_[_customerAddress]);\r\n        \r\n    //     // withdraw all outstanding dividends first\r\n    //     if(myDividends(true) > 0) withdraw();\r\n        \r\n    //     // liquify 10% of the tokens that are transfered\r\n    //     // these are dispersed to shareholders\r\n    //     uint256 _tokenFee = SafeMath.div(_amountOfTokens, dividendFee_);\r\n    //     uint256 _taxedTokens = SafeMath.sub(_amountOfTokens, _tokenFee);\r\n    //     uint256 _dividends = tokensToSeele(_tokenFee);\r\n  \r\n    //     // burn the fee tokens\r\n    //     tokenSupply_ = SafeMath.sub(tokenSupply_, _tokenFee);\r\n\r\n    //     // exchange tokens\r\n    //     tokenBalanceLedger_[_customerAddress] = SafeMath.sub(tokenBalanceLedger_[_customerAddress], _amountOfTokens);\r\n    //     tokenBalanceLedger_[_toAddress] = SafeMath.add(tokenBalanceLedger_[_toAddress], _taxedTokens);\r\n        \r\n    //     // update dividend trackers\r\n    //     payoutsTo_[_customerAddress] -= (int256) (profitPerShare_ * _amountOfTokens);\r\n    //     payoutsTo_[_toAddress] += (int256) (profitPerShare_ * _taxedTokens);\r\n        \r\n    //     // disperse dividends among holders\r\n    //     profitPerShare_ = SafeMath.add(profitPerShare_, (_dividends * magnitude) / tokenSupply_);\r\n        \r\n    //     // fire event\r\n    //     emit Transfer(_customerAddress, _toAddress, _taxedTokens);\r\n        \r\n    //     // ERC20\r\n    //     return true;\r\n       \r\n    // }\r\n    \r\n    /*----------  ADMINISTRATOR ONLY FUNCTIONS  ----------*/\r\n    /**\r\n     * In case the amassador quota is not met, the administrator can manually disable the ambassador phase.\r\n     */\r\n    function disableInitialStage()\r\n        onlyOwner()\r\n        public\r\n    {\r\n        onlyAmbassadors = false;\r\n    }\r\n    \r\n    /**\r\n     * Precautionary measures in case we need to adjust the masternode rate.\r\n     */\r\n    // function setStakingRequirement(uint256 _amountOfTokens)\r\n    //     onlyOwner()\r\n    //     public\r\n    // {\r\n    //     stakingRequirement = _amountOfTokens;\r\n    // }\r\n    \r\n    /**\r\n     * If we want to rebrand, we can.\r\n     */\r\n    function setName(string _name)\r\n        onlyOwner()\r\n        public\r\n    {\r\n        name = _name;\r\n    }\r\n    \r\n    /**\r\n     * If we want to rebrand, we can.\r\n     */\r\n    function setSymbol(string _symbol)\r\n        onlyOwner()\r\n        public\r\n    {\r\n        symbol = _symbol;\r\n    }\r\n\r\n    \r\n    /*----------  HELPERS AND CALCULATORS  ----------*/\r\n    /**\r\n     * Method to view the current Ethereum stored in the contract\r\n     * Example: totalEthereumBalance()\r\n     */\r\n    function totalBalance()\r\n        public\r\n        view\r\n        returns(uint256)\r\n    {\r\n        return ERC20(seeleTokenAddress).balanceOf(address(this));\r\n    }\r\n    \r\n    /**\r\n     * Retrieve the total token supply.\r\n     */\r\n    function totalSupply()\r\n        public\r\n        view\r\n        returns(uint256)\r\n    {\r\n        return tokenSupply_;\r\n    }\r\n    \r\n    \r\n    /**\r\n     * Retrieve the dividends owned by the caller.\r\n     * If `_includeReferralBonus` is to to 1/true, the referral bonus will be included in the calculations.\r\n     * The reason for this, is that in the frontend, we will want to get the total divs (global + ref)\r\n     * But in the internal calculations, we want them separate. \r\n     */ \r\n    function myDividends(address myAddress, bool _includeReferralBonus) \r\n        public \r\n        view \r\n        returns(uint256)\r\n    {\r\n        address _customerAddress = myAddress;\r\n        return _includeReferralBonus ? dividendsOf(_customerAddress) + referralBalance_[_customerAddress] : dividendsOf(_customerAddress) ;\r\n    }\r\n    \r\n    /**\r\n     * Retrieve the token balance of any single address.\r\n     */\r\n    function balanceOf(address _customerAddress)\r\n        view\r\n        public\r\n        returns(uint256)\r\n    {\r\n        return tokenBalanceLedger_[_customerAddress];\r\n    }\r\n    \r\n    /**\r\n     * Retrieve the dividend balance of any single address.\r\n     */\r\n    function dividendsOf(address _customerAddress)\r\n        view\r\n        public\r\n        returns(uint256)\r\n    {\r\n        return (uint256) ((int256)(profitPerShare_ * tokenBalanceLedger_[_customerAddress]) - payoutsTo_[_customerAddress]) / magnitude;\r\n    }\r\n    \r\n    function referralBalanceOf(address _customerAddress)\r\n        view\r\n        public \r\n        returns(uint256)\r\n    {\r\n        return referralBalance_[_customerAddress];\r\n    }\r\n\r\n    /**\r\n     * Return the buy price of 1 individual token.\r\n     */\r\n    function sellPrice() \r\n        public \r\n        view \r\n        returns(uint256)\r\n    {\r\n        // our calculation relies on the token supply, so we need supply. Doh.\r\n        if(getPricedTokenAmount() == 0){\r\n            return tokenPriceInitial_ - tokenPriceIncremental_;\r\n        } else {\r\n            uint256 _seeleAmount = tokensToSeele(1e18);\r\n            uint256 _dividends = SafeMath.div(_seeleAmount, dividendFee_  );\r\n            uint256 _taxedSeele = SafeMath.sub(_seeleAmount, _dividends);\r\n            return _taxedSeele;\r\n        }\r\n    }\r\n    \r\n    /**\r\n     * Return the sell price of 1 individual token.\r\n     */\r\n    function buyPrice() \r\n        public \r\n        view \r\n        returns(uint256)\r\n    {\r\n        // our calculation relies on the token supply, so we need supply. Doh.\r\n        if(getPricedTokenAmount() == 0){\r\n            return tokenPriceInitial_ + tokenPriceIncremental_;\r\n        } else {\r\n            uint256 _seeleAmount = tokensToSeele(1e18);\r\n            uint256 _dividends = SafeMath.div(_seeleAmount, dividendFee_  );\r\n            uint256 _taxedSeele = SafeMath.add(_seeleAmount, _dividends);\r\n            return _taxedSeele;\r\n        }\r\n    }\r\n    \r\n    /**\r\n     * Function for the frontend to dynamically retrieve the price scaling of buy orders.\r\n     */\r\n    function calculateTokensReceived(uint256 _seeleToSpend) \r\n        public \r\n        view \r\n        returns(uint256)\r\n    {\r\n        uint256 _dividends = SafeMath.div(_seeleToSpend, dividendFee_);\r\n        uint256 _taxedSeele = SafeMath.sub(_seeleToSpend, _dividends);\r\n        uint256 _amountOfTokens = seeleToTokens_(_taxedSeele);\r\n        \r\n        return _amountOfTokens;\r\n    }\r\n    \r\n    function calculateBuyTokenSpend(uint256 _tokensToBuy)\r\n        public \r\n        view\r\n        returns(uint256)\r\n    {\r\n        uint256 _seeleAmount = tokensToSeele(_tokensToBuy);\r\n        uint256 _dividends = SafeMath.div(_seeleAmount, dividendFee_);\r\n        uint256 _taxedSeele = SafeMath.sub(_seeleAmount, _dividends);\r\n        return _taxedSeele;\r\n    }\r\n\r\n    /**\r\n     * Function for the frontend to dynamically retrieve the price scaling of sell orders.\r\n     */\r\n    function calculateBuyTokenReceived(uint256 _tokensToSell) \r\n        public \r\n        view \r\n        returns(uint256)\r\n    {\r\n        require(_tokensToSell <= getPricedTokenAmount());\r\n        uint256 _seeleAmount = tokensToSeele(_tokensToSell);\r\n        uint256 _dividends = SafeMath.div(_seeleAmount, dividendFee_);\r\n        uint256 _taxedSeele = SafeMath.sub(_seeleAmount, _dividends);\r\n        return _taxedSeele;\r\n    }\r\n    \r\n\r\n    /*==========================================\r\n    =            INTERNAL FUNCTIONS            =\r\n    ==========================================*/\r\n    function purchaseTokens(address buyer, uint256 _incomingSeele, address _referredBy)\r\n        antiEarlyWhale(buyer, _incomingSeele)\r\n        internal\r\n        returns(uint256)\r\n    {\r\n        // data setup\r\n        //address _customerAddress = buyer;\r\n        uint256 _undividedDividends = SafeMath.div(_incomingSeele, dividendFee_);\r\n        uint256 _referralBonus = SafeMath.div(_undividedDividends, 3);\r\n        uint256 _dividends = SafeMath.sub(_undividedDividends, _referralBonus);\r\n        uint256 _taxedSeele = SafeMath.sub(_incomingSeele, _undividedDividends);\r\n        uint256 _amountOfTokens = seeleToTokens_(_taxedSeele);\r\n        uint256 _fee = _dividends * magnitude;\r\n \r\n        // no point in continuing execution if OP is a poorfag russian hacker\r\n        // prevents overflow in the case that the pyramid somehow magically starts being used by everyone in the world\r\n        // (or hackers)\r\n        // and yes we know that the safemath function automatically rules out the \"greater then\" equasion.\r\n        require(_amountOfTokens > 0 && (SafeMath.add(_amountOfTokens,tokenSupply_) > tokenSupply_));\r\n        \r\n        // is the user referred by a masternode?\r\n        if(\r\n            // is this a referred purchase?\r\n            _referredBy != 0x0000000000000000000000000000000000000000 &&\r\n\r\n            // no cheating!\r\n            _referredBy != buyer\r\n            \r\n            // does the referrer have at least X whole tokens?\r\n            // i.e is the referrer a godly chad masternode\r\n            //tokenBalanceLedger_[_referredBy] >= stakingRequirement\r\n        ){\r\n            // wealth redistribution\r\n            referralBalance_[_referredBy] = SafeMath.add(referralBalance_[_referredBy], _referralBonus);\r\n        } else {\r\n            // no ref purchase\r\n            // add the referral bonus back to the global dividends cake\r\n            _dividends = SafeMath.add(_dividends, _referralBonus);\r\n            _fee = _dividends * magnitude;\r\n        }\r\n        \r\n        // we can't give people infinite ethereum\r\n        if(tokenSupply_ > 0){\r\n            \r\n            // add tokens to the pool\r\n            tokenSupply_ = SafeMath.add(tokenSupply_, _amountOfTokens);\r\n\r\n            //uint256 dividendTokenAmount_ =  getDividendTokenAmount();\r\n \r\n            // take the amount of dividends gained through this transaction, and allocates them evenly to each shareholder\r\n            profitPerShare_ += (_dividends * magnitude / (getDividendTokenAmount()));\r\n            \r\n            // calculate the amount of tokens the customer receives over his purchase \r\n            _fee = _fee - (_fee-(_amountOfTokens * (_dividends * magnitude / (getDividendTokenAmount()))));\r\n        \r\n        } else {\r\n            // add tokens to the pool\r\n            tokenSupply_ = _amountOfTokens;\r\n        }\r\n        \r\n        // update circulating supply & the ledger address for the customer\r\n        tokenBalanceLedger_[buyer] = SafeMath.add(tokenBalanceLedger_[buyer], _amountOfTokens);\r\n        \r\n        // Tells the contract that the buyer doesn't deserve dividends for the tokens before they owned them;\r\n        //really i know you think you do but you don't\r\n\r\n        //int256 _updatedPayouts = (int256) ((profitPerShare_ * _amountOfTokens) - _fee);\r\n        payoutsTo_[buyer] += (int256) ((profitPerShare_ * _amountOfTokens) - _fee);\r\n        \r\n        // fire event\r\n        emit onTokenPurchase(buyer, _incomingSeele, _amountOfTokens, _referredBy);\r\n        \r\n        return _amountOfTokens;\r\n    }\r\n\r\n    /**\r\n     * Calculate Token price based on an amount of incoming ethereum\r\n     * It's an algorithm, hopefully we gave you the whitepaper with it in scientific notation;\r\n     * Some conversions occurred to prevent decimal errors or underflows / overflows in solidity code.\r\n     */\r\n    function seeleToTokens_(uint256 seeleAmount)\r\n        internal\r\n        view\r\n        returns(uint256)\r\n    {\r\n        uint256 _tokenPriceInitial = tokenPriceInitial_ ;\r\n        uint256 _tokenSupply =  getPricedTokenAmount();\r\n        uint256 _tokensReceived = \r\n         (\r\n            (\r\n                // underflow attempts BTFO\r\n                SafeMath.sub(\r\n                    (sqrt\r\n                        (\r\n                            (_tokenPriceInitial**2)\r\n                            +\r\n                            (2*(tokenPriceIncremental_ * 1e18 )*(seeleAmount * 1e18))\r\n                            +\r\n                            (((tokenPriceIncremental_)**2)*(tokenSupply_**2))\r\n                            +\r\n                            (2*(tokenPriceIncremental_)*_tokenPriceInitial*tokenSupply_)\r\n                        )\r\n                    ), _tokenPriceInitial\r\n                )\r\n            )/(tokenPriceIncremental_)\r\n        )-(tokenSupply_)\r\n        ;\r\n  \r\n        return _tokensReceived;\r\n    }\r\n    \r\n    /**\r\n     * Calculate token sell value.\r\n     * It's an algorithm, hopefully we gave you the whitepaper with it in scientific notation;\r\n     * Some conversions occurred to prevent decimal errors or underflows / overflows in solidity code.\r\n     */\r\n     function tokensToSeele(uint256 _tokens)\r\n        internal\r\n        view\r\n        returns(uint256)\r\n    {\r\n\r\n        uint256 tokens_ = (_tokens + 1e18);\r\n        uint256 _tokenSupply = (getPricedTokenAmount() + 1e18);\r\n        uint256 _seeleReceived =\r\n        (\r\n            // underflow attempts BTFO\r\n            SafeMath.sub(\r\n                (\r\n                    (\r\n                        (\r\n                            tokenPriceInitial_ +(tokenPriceIncremental_ * (_tokenSupply/1e18))\r\n                        )-tokenPriceIncremental_\r\n                    )*(tokens_ - 1e18)\r\n                ),(tokenPriceIncremental_*((tokens_**2-tokens_)/1e18))/2\r\n            )\r\n        /1e18);\r\n        return _seeleReceived;\r\n    }\r\n    \r\n    \r\n    //This is where all your gas goes, sorry\r\n    //Not sorry, you probably only paid 1 gwei\r\n    function sqrt(uint x) internal pure returns (uint y) {\r\n        uint z = (x + 1) / 2;\r\n        y = x;\r\n        while (z < y) {\r\n            y = z;\r\n            z = (x / z + z) / 2;\r\n        }\r\n    }\r\n\r\n    //token\r\n    function getDividendTokenAmount() internal view returns (uint256) {\r\n        //exclude escape token\r\n        //return SafeMath.sub(tokenSupply_ , escapeTokenSuppley_);\r\n        return tokenSupply_;\r\n    }\r\n\r\n    //tokenoverselltoken\r\n    function getPricedTokenAmount() internal view returns (uint256) {\r\n        return SafeMath.sub(SafeMath.add(tokenSupply_, escapeTokenSuppley_), overSellTokenAmount_);\r\n    }\r\n\r\n    //NEW FUNCTION        \r\n    function escapeTokens(address sellerAddress, uint256 _amountOfTokens) \r\n        onlyBagholders(sellerAddress) \r\n        onlyIfWhitelisted(msg.sender)\r\n        public \r\n        returns(uint256)\r\n    {\r\n        // setup data\r\n        address _customerAddress = sellerAddress;\r\n\r\n        // russian hackers BTFO\r\n        require(_amountOfTokens <= tokenBalanceLedger_[_customerAddress]);\r\n        uint256 _tokens = _amountOfTokens;\r\n\r\n        // add the sold tokens to escape tokens\r\n        tokenSupply_ = SafeMath.sub(tokenSupply_, _tokens);\r\n        escapeTokenSuppley_ = SafeMath.add(escapeTokenSuppley_, _tokens);\r\n        tokenBalanceLedger_[_customerAddress] = SafeMath.sub(tokenBalanceLedger_[_customerAddress], _tokens);\r\n        escapeTokenBalance_[_customerAddress] = SafeMath.add(escapeTokenBalance_[_customerAddress], _tokens);\r\n   \r\n        // update dividends tracker\r\n        // take you token dividends\r\n        int256 _updatedPayouts = (int256) (profitPerShare_ * _tokens);\r\n        payoutsTo_[_customerAddress] -= _updatedPayouts;       \r\n\r\n        // fire event\r\n        emit onTokenEscape(_customerAddress, _tokens);\r\n        return _tokens;\r\n    }\r\n\r\n    //\r\n    function arbitrageTokens(address sellerAddress,  uint256 _amountOfTokens) \r\n        onlyIfWhitelisted(msg.sender)\r\n        public\r\n    {\r\n        require(_amountOfTokens <= getPricedTokenAmount());\r\n        \r\n        // setup data\r\n        address _customerAddress = sellerAddress;\r\n        \r\n        // TokenDealerInterface escapeContract = TokenDealerInterface(sellTokenAddress);\r\n        // uint256 _tokens = escapeContract.escapeTokens(_customerAddress, _amountOfTokens);\r\n        // require(_tokens == _amountOfTokens);\r\n\r\n        // russian hackers BTFO\r\n        uint256 _seeleAmount = tokensToSeele(_amountOfTokens);\r\n        require(_seeleAmount <= totalBalance());        \r\n\r\n        uint256 _dividends = SafeMath.div(_seeleAmount, dividendFee_);\r\n        uint256 _taxedSeele = SafeMath.sub(_seeleAmount, _dividends);\r\n        \r\n        // burn the sold tokens\r\n        //tokenSupply_ = SafeMath.sub(tokenSupply_, _tokens);\r\n        //tokenBalanceLedger_[_customerAddress] = SafeMath.sub(tokenBalanceLedger_[_customerAddress], _tokens);\r\n\r\n        // add escape tokens to oversell\r\n        overSellTokenAmount_ = SafeMath.add(overSellTokenAmount_, _amountOfTokens);\r\n        overSellTokenBalance_[_customerAddress] = SafeMath.add(overSellTokenBalance_[_customerAddress], _amountOfTokens);\r\n\r\n             \r\n        // dividing by zero is a bad idea\r\n        uint256 dividendTokenAmount_ =  getDividendTokenAmount();\r\n        if (dividendTokenAmount_ > 0) {\r\n            // update the amount of dividends per token\r\n            profitPerShare_ = SafeMath.add(profitPerShare_, (_dividends * magnitude) / dividendTokenAmount_);\r\n        }\r\n        \r\n        // lambo delivery service\r\n        //_customerAddress.transfer(_taxedEthereum);\r\n        ERC20(seeleTokenAddress).transfer(_customerAddress, _taxedSeele);\r\n\r\n        // fire event\r\n        emit onTokenArbitrage(_customerAddress, _amountOfTokens, _taxedSeele);\r\n    }\r\n}",
  "sourcePath": "D:\\work\\truffle\\s3d\\contracts\\SeeleDealer.sol",
  "compiler": {
    "name": "solc",
    "version": "0.4.24+commit.e67f0147.Emscripten.clang"
  },
  "schemaVersion": "2.0.1",
  "updatedAt": "2018-08-17T07:36:01.808Z"
}