{
  "contractName": "SeeleDealer",
  "abi": [
    {
      "constant": false,
      "inputs": [
        {
          "name": "incomingToken",
          "type": "uint256"
        },
        {
          "name": "referredBy",
          "type": "address"
        }
      ],
      "name": "purchaseTokens",
      "outputs": [
        {
          "name": "",
          "type": "uint256"
        }
      ],
      "payable": true,
      "stateMutability": "payable",
      "type": "function"
    }
  ],
  "bytecode": "0x608060405234801561001057600080fd5b5060ce8061001f6000396000f300608060405260043610603f576000357c0100000000000000000000000000000000000000000000000000000000900463ffffffff168063504cceac146044575b600080fd5b608060048036038101908080359060200190929190803573ffffffffffffffffffffffffffffffffffffffff1690602001909291905050506096565b6040518082815260200191505060405180910390f35b600060c89050929150505600a165627a7a72305820adf4d6a1d6421d5378f268298568dfeac475709e843e5cbc5d4507ddf2d05db10029",
  "source": "pragma solidity ^0.4.24;\r\n\r\n\r\ncontract SeeleDealer { \r\n    function purchaseTokens(uint256 incomingToken, address referredBy) external payable returns(uint256){\r\n        return 200;\r\n    }\r\n}",
  "sourcePath": "D:\\work\\truffle\\s3d\\contracts\\SeeleDealer.sol",
  "compiler": {
    "name": "solc",
    "version": "0.4.24+commit.e67f0147.Emscripten.clang"
  },
  "schemaVersion": "2.0.1",
  "updatedAt": "2018-08-08T11:30:20.938Z"
}