{
  "contractName": "SeeleDealer",
  "abi": [
    {
      "constant": true,
      "inputs": [],
      "name": "name",
      "outputs": [
        {
          "name": "",
          "type": "string"
        }
      ],
      "payable": false,
      "stateMutability": "view",
      "type": "function"
    },
    {
      "constant": true,
      "inputs": [],
      "name": "overSellTokenAmount_",
      "outputs": [
        {
          "name": "",
          "type": "uint256"
        }
      ],
      "payable": false,
      "stateMutability": "view",
      "type": "function"
    },
    {
      "constant": true,
      "inputs": [],
      "name": "onlyAmbassadors",
      "outputs": [
        {
          "name": "",
          "type": "bool"
        }
      ],
      "payable": false,
      "stateMutability": "view",
      "type": "function"
    },
    {
      "constant": true,
      "inputs": [],
      "name": "decimals",
      "outputs": [
        {
          "name": "",
          "type": "uint8"
        }
      ],
      "payable": false,
      "stateMutability": "view",
      "type": "function"
    },
    {
      "constant": false,
      "inputs": [],
      "name": "claimOwnership",
      "outputs": [],
      "payable": false,
      "stateMutability": "nonpayable",
      "type": "function"
    },
    {
      "constant": true,
      "inputs": [],
      "name": "stakingRequirement",
      "outputs": [
        {
          "name": "",
          "type": "uint256"
        }
      ],
      "payable": false,
      "stateMutability": "view",
      "type": "function"
    },
    {
      "constant": false,
      "inputs": [],
      "name": "renounceOwnership",
      "outputs": [],
      "payable": false,
      "stateMutability": "nonpayable",
      "type": "function"
    },
    {
      "constant": true,
      "inputs": [],
      "name": "owner",
      "outputs": [
        {
          "name": "",
          "type": "address"
        }
      ],
      "payable": false,
      "stateMutability": "view",
      "type": "function"
    },
    {
      "constant": true,
      "inputs": [],
      "name": "symbol",
      "outputs": [
        {
          "name": "",
          "type": "string"
        }
      ],
      "payable": false,
      "stateMutability": "view",
      "type": "function"
    },
    {
      "constant": true,
      "inputs": [
        {
          "name": "",
          "type": "address"
        }
      ],
      "name": "escapeTokenBalance_",
      "outputs": [
        {
          "name": "",
          "type": "uint256"
        }
      ],
      "payable": false,
      "stateMutability": "view",
      "type": "function"
    },
    {
      "constant": true,
      "inputs": [
        {
          "name": "",
          "type": "address"
        }
      ],
      "name": "overSellTokenBalance_",
      "outputs": [
        {
          "name": "",
          "type": "uint256"
        }
      ],
      "payable": false,
      "stateMutability": "view",
      "type": "function"
    },
    {
      "constant": true,
      "inputs": [
        {
          "name": "",
          "type": "address"
        }
      ],
      "name": "authorizedAddressInfos",
      "outputs": [
        {
          "name": "",
          "type": "bool"
        }
      ],
      "payable": false,
      "stateMutability": "view",
      "type": "function"
    },
    {
      "constant": true,
      "inputs": [],
      "name": "pendingOwner",
      "outputs": [
        {
          "name": "",
          "type": "address"
        }
      ],
      "payable": false,
      "stateMutability": "view",
      "type": "function"
    },
    {
      "constant": false,
      "inputs": [
        {
          "name": "newOwner",
          "type": "address"
        }
      ],
      "name": "transferOwnership",
      "outputs": [],
      "payable": false,
      "stateMutability": "nonpayable",
      "type": "function"
    },
    {
      "constant": true,
      "inputs": [],
      "name": "escapeTokenSuppley_",
      "outputs": [
        {
          "name": "",
          "type": "uint256"
        }
      ],
      "payable": false,
      "stateMutability": "view",
      "type": "function"
    },
    {
      "constant": true,
      "inputs": [],
      "name": "seeleTokenAddress",
      "outputs": [
        {
          "name": "",
          "type": "address"
        }
      ],
      "payable": false,
      "stateMutability": "view",
      "type": "function"
    },
    {
      "inputs": [
        {
          "name": "tokenAddress",
          "type": "address"
        }
      ],
      "payable": false,
      "stateMutability": "nonpayable",
      "type": "constructor"
    },
    {
      "payable": true,
      "stateMutability": "payable",
      "type": "fallback"
    },
    {
      "anonymous": false,
      "inputs": [
        {
          "indexed": true,
          "name": "customerAddress",
          "type": "address"
        },
        {
          "indexed": false,
          "name": "incomingEthereum",
          "type": "uint256"
        },
        {
          "indexed": false,
          "name": "tokensMinted",
          "type": "uint256"
        },
        {
          "indexed": true,
          "name": "referredBy",
          "type": "address"
        }
      ],
      "name": "onTokenPurchase",
      "type": "event"
    },
    {
      "anonymous": false,
      "inputs": [
        {
          "indexed": true,
          "name": "customerAddress",
          "type": "address"
        },
        {
          "indexed": false,
          "name": "tokensBurned",
          "type": "uint256"
        },
        {
          "indexed": false,
          "name": "seeleEarned",
          "type": "uint256"
        }
      ],
      "name": "onTokenSell",
      "type": "event"
    },
    {
      "anonymous": false,
      "inputs": [
        {
          "indexed": true,
          "name": "customerAddress",
          "type": "address"
        },
        {
          "indexed": false,
          "name": "tokensBurned",
          "type": "uint256"
        },
        {
          "indexed": false,
          "name": "seeleEarned",
          "type": "uint256"
        }
      ],
      "name": "onTokenSellByProtocol",
      "type": "event"
    },
    {
      "anonymous": false,
      "inputs": [
        {
          "indexed": true,
          "name": "customerAddress",
          "type": "address"
        },
        {
          "indexed": false,
          "name": "ethereumReinvested",
          "type": "uint256"
        },
        {
          "indexed": false,
          "name": "tokensMinted",
          "type": "uint256"
        }
      ],
      "name": "onReinvestment",
      "type": "event"
    },
    {
      "anonymous": false,
      "inputs": [
        {
          "indexed": true,
          "name": "customerAddress",
          "type": "address"
        },
        {
          "indexed": false,
          "name": "ethereumWithdrawn",
          "type": "uint256"
        }
      ],
      "name": "onWithdraw",
      "type": "event"
    },
    {
      "anonymous": false,
      "inputs": [
        {
          "indexed": true,
          "name": "customerAddress",
          "type": "address"
        },
        {
          "indexed": false,
          "name": "tokensEscaped",
          "type": "uint256"
        }
      ],
      "name": "onTokenEscape",
      "type": "event"
    },
    {
      "anonymous": false,
      "inputs": [
        {
          "indexed": true,
          "name": "customerAddress",
          "type": "address"
        },
        {
          "indexed": false,
          "name": "tokensBurned",
          "type": "uint256"
        },
        {
          "indexed": false,
          "name": "ethereumEarned",
          "type": "uint256"
        }
      ],
      "name": "onTokenArbitrage",
      "type": "event"
    },
    {
      "anonymous": false,
      "inputs": [
        {
          "indexed": true,
          "name": "from",
          "type": "address"
        },
        {
          "indexed": true,
          "name": "to",
          "type": "address"
        },
        {
          "indexed": false,
          "name": "tokens",
          "type": "uint256"
        }
      ],
      "name": "Transfer",
      "type": "event"
    },
    {
      "anonymous": false,
      "inputs": [
        {
          "indexed": true,
          "name": "previousOwner",
          "type": "address"
        }
      ],
      "name": "OwnershipRenounced",
      "type": "event"
    },
    {
      "anonymous": false,
      "inputs": [
        {
          "indexed": true,
          "name": "previousOwner",
          "type": "address"
        },
        {
          "indexed": true,
          "name": "newOwner",
          "type": "address"
        }
      ],
      "name": "OwnershipTransferred",
      "type": "event"
    },
    {
      "constant": false,
      "inputs": [
        {
          "name": "buyer",
          "type": "address"
        },
        {
          "name": "seeleAmount",
          "type": "uint256"
        },
        {
          "name": "_referredBy",
          "type": "address"
        }
      ],
      "name": "buy",
      "outputs": [
        {
          "name": "",
          "type": "uint256"
        }
      ],
      "payable": true,
      "stateMutability": "payable",
      "type": "function"
    },
    {
      "constant": false,
      "inputs": [
        {
          "name": "buyer",
          "type": "address"
        },
        {
          "name": "buyAmount",
          "type": "uint256"
        }
      ],
      "name": "reinvest",
      "outputs": [],
      "payable": false,
      "stateMutability": "nonpayable",
      "type": "function"
    },
    {
      "constant": false,
      "inputs": [
        {
          "name": "buyer",
          "type": "address"
        }
      ],
      "name": "exit",
      "outputs": [],
      "payable": false,
      "stateMutability": "nonpayable",
      "type": "function"
    },
    {
      "constant": false,
      "inputs": [
        {
          "name": "buyer",
          "type": "address"
        },
        {
          "name": "withdrawAmount",
          "type": "uint256"
        }
      ],
      "name": "withdraw",
      "outputs": [],
      "payable": false,
      "stateMutability": "nonpayable",
      "type": "function"
    },
    {
      "constant": false,
      "inputs": [
        {
          "name": "buyer",
          "type": "address"
        }
      ],
      "name": "withdraw",
      "outputs": [],
      "payable": false,
      "stateMutability": "nonpayable",
      "type": "function"
    },
    {
      "constant": false,
      "inputs": [
        {
          "name": "seller",
          "type": "address"
        },
        {
          "name": "_amountOfTokens",
          "type": "uint256"
        }
      ],
      "name": "sell",
      "outputs": [],
      "payable": false,
      "stateMutability": "nonpayable",
      "type": "function"
    },
    {
      "constant": false,
      "inputs": [],
      "name": "disableInitialStage",
      "outputs": [],
      "payable": false,
      "stateMutability": "nonpayable",
      "type": "function"
    },
    {
      "constant": false,
      "inputs": [
        {
          "name": "_name",
          "type": "string"
        }
      ],
      "name": "setName",
      "outputs": [],
      "payable": false,
      "stateMutability": "nonpayable",
      "type": "function"
    },
    {
      "constant": false,
      "inputs": [
        {
          "name": "_symbol",
          "type": "string"
        }
      ],
      "name": "setSymbol",
      "outputs": [],
      "payable": false,
      "stateMutability": "nonpayable",
      "type": "function"
    },
    {
      "constant": true,
      "inputs": [],
      "name": "totalBalance",
      "outputs": [
        {
          "name": "",
          "type": "uint256"
        }
      ],
      "payable": false,
      "stateMutability": "view",
      "type": "function"
    },
    {
      "constant": true,
      "inputs": [],
      "name": "totalSupply",
      "outputs": [
        {
          "name": "",
          "type": "uint256"
        }
      ],
      "payable": false,
      "stateMutability": "view",
      "type": "function"
    },
    {
      "constant": true,
      "inputs": [
        {
          "name": "myAddress",
          "type": "address"
        },
        {
          "name": "_includeReferralBonus",
          "type": "bool"
        }
      ],
      "name": "myDividends",
      "outputs": [
        {
          "name": "",
          "type": "uint256"
        }
      ],
      "payable": false,
      "stateMutability": "view",
      "type": "function"
    },
    {
      "constant": true,
      "inputs": [
        {
          "name": "_customerAddress",
          "type": "address"
        }
      ],
      "name": "balanceOf",
      "outputs": [
        {
          "name": "",
          "type": "uint256"
        }
      ],
      "payable": false,
      "stateMutability": "view",
      "type": "function"
    },
    {
      "constant": true,
      "inputs": [
        {
          "name": "_customerAddress",
          "type": "address"
        }
      ],
      "name": "dividendsOf",
      "outputs": [
        {
          "name": "",
          "type": "uint256"
        }
      ],
      "payable": false,
      "stateMutability": "view",
      "type": "function"
    },
    {
      "constant": true,
      "inputs": [
        {
          "name": "_customerAddress",
          "type": "address"
        }
      ],
      "name": "referralBalanceOf",
      "outputs": [
        {
          "name": "",
          "type": "uint256"
        }
      ],
      "payable": false,
      "stateMutability": "view",
      "type": "function"
    },
    {
      "constant": true,
      "inputs": [],
      "name": "sellPrice",
      "outputs": [
        {
          "name": "",
          "type": "uint256"
        }
      ],
      "payable": false,
      "stateMutability": "view",
      "type": "function"
    },
    {
      "constant": true,
      "inputs": [],
      "name": "buyPrice",
      "outputs": [
        {
          "name": "",
          "type": "uint256"
        }
      ],
      "payable": false,
      "stateMutability": "view",
      "type": "function"
    },
    {
      "constant": true,
      "inputs": [
        {
          "name": "_seeleToSpend",
          "type": "uint256"
        }
      ],
      "name": "calculateTokensReceived",
      "outputs": [
        {
          "name": "",
          "type": "uint256"
        }
      ],
      "payable": false,
      "stateMutability": "view",
      "type": "function"
    },
    {
      "constant": true,
      "inputs": [
        {
          "name": "_tokensToBuy",
          "type": "uint256"
        }
      ],
      "name": "calculateBuyTokenSpend",
      "outputs": [
        {
          "name": "",
          "type": "uint256"
        }
      ],
      "payable": false,
      "stateMutability": "view",
      "type": "function"
    },
    {
      "constant": true,
      "inputs": [
        {
          "name": "_tokensToSell",
          "type": "uint256"
        }
      ],
      "name": "calculateBuyTokenReceived",
      "outputs": [
        {
          "name": "",
          "type": "uint256"
        }
      ],
      "payable": false,
      "stateMutability": "view",
      "type": "function"
    },
    {
      "constant": false,
      "inputs": [
        {
          "name": "sellerAddress",
          "type": "address"
        },
        {
          "name": "_amountOfTokens",
          "type": "uint256"
        }
      ],
      "name": "escapeTokens",
      "outputs": [
        {
          "name": "",
          "type": "uint256"
        }
      ],
      "payable": false,
      "stateMutability": "nonpayable",
      "type": "function"
    },
    {
      "constant": false,
      "inputs": [
        {
          "name": "sellerAddress",
          "type": "address"
        },
        {
          "name": "sellTokenAddress",
          "type": "address"
        },
        {
          "name": "_amountOfTokens",
          "type": "uint256"
        }
      ],
      "name": "arbitrageTokens",
      "outputs": [],
      "payable": false,
      "stateMutability": "nonpayable",
      "type": "function"
    }
  ],
  "bytecode": "0x60806040526040805190810160405280600981526020017f5365656c652d5333440000000000000000000000000000000000000000000000815250600290805190602001906200005192919062000251565b506040805190810160405280600981526020017f5365656c652d5333440000000000000000000000000000000000000000000000815250600390805190602001906200009f92919062000251565b5068056bc75e2d631000006004557347879ac781938cffd879392cd2164b9f7306188a600760006101000a81548173ffffffffffffffffffffffffffffffffffffffff021916908373ffffffffffffffffffffffffffffffffffffffff1602179055506000600e55600060105560006011556001601260006101000a81548160ff0219169083151502179055503480156200013957600080fd5b506040516020806200381383398101806040528101908080519060200190929190505050336000806101000a81548173ffffffffffffffffffffffffffffffffffffffff021916908373ffffffffffffffffffffffffffffffffffffffff16021790555080600760006101000a81548173ffffffffffffffffffffffffffffffffffffffff021916908373ffffffffffffffffffffffffffffffffffffffff16021790555060016005600073cd16575a90ed9506bcf44c78845d93f1b647f48c73ffffffffffffffffffffffffffffffffffffffff1673ffffffffffffffffffffffffffffffffffffffff16815260200190815260200160002060006101000a81548160ff0219169083151502179055505062000300565b828054600181600116156101000203166002900490600052602060002090601f016020900481019282601f106200029457805160ff1916838001178555620002c5565b82800160010185558215620002c5579182015b82811115620002c4578251825591602001919060010190620002a7565b5b509050620002d49190620002d8565b5090565b620002fd91905b80821115620002f9576000816000905550600101620002df565b5090565b90565b61350380620003106000396000f3006080604052600436106101d7576000357c0100000000000000000000000000000000000000000000000000000000900463ffffffff16806265318b146101d957806306fdde031461023057806310d0ffdd146102c0578063150c95a81461030157806318160ddd14610342578063236ffbbf1461036d57806327defa1f14610398578063313ce567146103c757806346534649146103f85780634b7503341461044f5780634bd3bbe11461047a5780634e71e0c8146104e757806351cff8d9146104fe57806356d399e8146105415780636c197ff51461056c57806370a08231146105b9578063715018a6146106105780638620410b146106275780638da5cb5b1461065257806395d89b41146106a95780639f40dd4214610739578063a19ec23314610790578063a798ec24146107e7578063a8e04f3414610842578063ad7a672f14610859578063b42652e914610884578063b73f34b4146108c7578063b84c824614610908578063c383abaa14610971578063c47f0027146109d4578063d3d6dce714610a3d578063d65a261714610a9e578063db61c76e14610aeb578063e30c397814610b5f578063f2fde38b14610bb6578063f3fef3a314610bf9578063f5aaee7b14610c46578063ff58bf5014610c71575b005b3480156101e557600080fd5b5061021a600480360381019080803573ffffffffffffffffffffffffffffffffffffffff169060200190929190505050610cc8565b6040518082815260200191505060405180910390f35b34801561023c57600080fd5b50610245610d6a565b6040518080602001828103825283818151815260200191508051906020019080838360005b8381101561028557808201518184015260208101905061026a565b50505050905090810190601f1680156102b25780820380516001836020036101000a031916815260200191505b509250505060405180910390f35b3480156102cc57600080fd5b506102eb60048036038101908080359060200190929190505050610e08565b6040518082815260200191505060405180910390f35b34801561030d57600080fd5b5061032c60048036038101908080359060200190929190505050610e40565b6040518082815260200191505060405180910390f35b34801561034e57600080fd5b50610357610e78565b6040518082815260200191505060405180910390f35b34801561037957600080fd5b50610382610e82565b6040518082815260200191505060405180910390f35b3480156103a457600080fd5b506103ad610e88565b604051808215151515815260200191505060405180910390f35b3480156103d357600080fd5b506103dc610e9b565b604051808260ff1660ff16815260200191505060405180910390f35b34801561040457600080fd5b50610439600480360381019080803573ffffffffffffffffffffffffffffffffffffffff169060200190929190505050610ea0565b6040518082815260200191505060405180910390f35b34801561045b57600080fd5b50610464610ee9565b6040518082815260200191505060405180910390f35b34801561048657600080fd5b506104e5600480360381019080803573ffffffffffffffffffffffffffffffffffffffff169060200190929190803573ffffffffffffffffffffffffffffffffffffffff16906020019092919080359060200190929190505050610f4a565b005b3480156104f357600080fd5b506104fc6112c3565b005b34801561050a57600080fd5b5061053f600480360381019080803573ffffffffffffffffffffffffffffffffffffffff169060200190929190505050611462565b005b34801561054d57600080fd5b506105566116c5565b6040518082815260200191505060405180910390f35b34801561057857600080fd5b506105b7600480360381019080803573ffffffffffffffffffffffffffffffffffffffff169060200190929190803590602001909291905050506116cb565b005b3480156105c557600080fd5b506105fa600480360381019080803573ffffffffffffffffffffffffffffffffffffffff169060200190929190505050611906565b6040518082815260200191505060405180910390f35b34801561061c57600080fd5b5061062561194f565b005b34801561063357600080fd5b5061063c611a51565b6040518082815260200191505060405180910390f35b34801561065e57600080fd5b50610667611ab2565b604051808273ffffffffffffffffffffffffffffffffffffffff1673ffffffffffffffffffffffffffffffffffffffff16815260200191505060405180910390f35b3480156106b557600080fd5b506106be611ad7565b6040518080602001828103825283818151815260200191508051906020019080838360005b838110156106fe5780820151818401526020810190506106e3565b50505050905090810190601f16801561072b5780820380516001836020036101000a031916815260200191505b509250505060405180910390f35b34801561074557600080fd5b5061077a600480360381019080803573ffffffffffffffffffffffffffffffffffffffff169060200190929190505050611b75565b6040518082815260200191505060405180910390f35b34801561079c57600080fd5b506107d1600480360381019080803573ffffffffffffffffffffffffffffffffffffffff169060200190929190505050611b8d565b6040518082815260200191505060405180910390f35b3480156107f357600080fd5b50610828600480360381019080803573ffffffffffffffffffffffffffffffffffffffff169060200190929190505050611ba5565b604051808215151515815260200191505060405180910390f35b34801561084e57600080fd5b50610857611bc5565b005b34801561086557600080fd5b5061086e611c3d565b6040518082815260200191505060405180910390f35b34801561089057600080fd5b506108c5600480360381019080803573ffffffffffffffffffffffffffffffffffffffff169060200190929190505050611d3c565b005b3480156108d357600080fd5b506108f260048036038101908080359060200190929190505050611da6565b6040518082815260200191505060405180910390f35b34801561091457600080fd5b5061096f600480360381019080803590602001908201803590602001908080601f0160208091040260200160405190810160405280939291908181526020018383808284378201915050505050509192919290505050611def565b005b34801561097d57600080fd5b506109be600480360381019080803573ffffffffffffffffffffffffffffffffffffffff169060200190929190803515159060200190929190505050611e64565b6040518082815260200191505060405180910390f35b3480156109e057600080fd5b50610a3b600480360381019080803590602001908201803590602001908080601f0160208091040260200160405190810160405280939291908181526020018383808284378201915050505050509192919290505050611ed1565b005b348015610a4957600080fd5b50610a88600480360381019080803573ffffffffffffffffffffffffffffffffffffffff16906020019092919080359060200190929190505050611f46565b6040518082815260200191505060405180910390f35b348015610aaa57600080fd5b50610ae9600480360381019080803573ffffffffffffffffffffffffffffffffffffffff16906020019092919080359060200190929190505050612191565b005b610b49600480360381019080803573ffffffffffffffffffffffffffffffffffffffff16906020019092919080359060200190929190803573ffffffffffffffffffffffffffffffffffffffff1690602001909291905050506123c9565b6040518082815260200191505060405180910390f35b348015610b6b57600080fd5b50610b7461251d565b604051808273ffffffffffffffffffffffffffffffffffffffff1673ffffffffffffffffffffffffffffffffffffffff16815260200191505060405180910390f35b348015610bc257600080fd5b50610bf7600480360381019080803573ffffffffffffffffffffffffffffffffffffffff169060200190929190505050612543565b005b348015610c0557600080fd5b50610c44600480360381019080803573ffffffffffffffffffffffffffffffffffffffff169060200190929190803590602001909291905050506125e2565b005b348015610c5257600080fd5b50610c5b612902565b6040518082815260200191505060405180910390f35b348015610c7d57600080fd5b50610c86612908565b604051808273ffffffffffffffffffffffffffffffffffffffff1673ffffffffffffffffffffffffffffffffffffffff16815260200191505060405180910390f35b600068010000000000000000600a60008473ffffffffffffffffffffffffffffffffffffffff1673ffffffffffffffffffffffffffffffffffffffff16815260200190815260200160002054600860008573ffffffffffffffffffffffffffffffffffffffff1673ffffffffffffffffffffffffffffffffffffffff16815260200190815260200160002054600f540203811515610d6257fe5b049050919050565b60028054600181600116156101000203166002900480601f016020809104026020016040519081016040528092919081815260200182805460018160011615610100020316600290048015610e005780601f10610dd557610100808354040283529160200191610e00565b820191906000526020600020905b815481529060010190602001808311610de357829003601f168201915b505050505081565b600080600080610e1c85600a60ff1661292e565b9250610e288584612944565b9150610e338261295d565b9050809350505050919050565b600080600080610e4f856129f2565b9250610e5f83600a60ff1661292e565b9150610e6b8383612944565b9050809350505050919050565b6000600e54905090565b60115481565b601260009054906101000a900460ff1681565b601281565b6000600960008373ffffffffffffffffffffffffffffffffffffffff1673ffffffffffffffffffffffffffffffffffffffff168152602001908152602001600020549050919050565b6000806000806000600e541415610f1157655e2ff10350006603addf6a212000039350610f44565b610f22670de0b6b3a76400006129f2565b9250610f3283600a60ff1661292e565b9150610f3e8383612944565b90508093505b50505090565b60008060008060008060008996508895508573ffffffffffffffffffffffffffffffffffffffff1663d3d6dce7888a6040518363ffffffff167c0100000000000000000000000000000000000000000000000000000000028152600401808373ffffffffffffffffffffffffffffffffffffffff1673ffffffffffffffffffffffffffffffffffffffff16815260200182815260200192505050602060405180830381600087803b158015610ffe57600080fd5b505af1158015611012573d6000803e3d6000fd5b505050506040513d602081101561102857600080fd5b81019080805190602001909291905050509450878514151561104957600080fd5b611052856129f2565b935061105c611c3d565b841115151561106a57600080fd5b61107884600a60ff1661292e565b92506110848484612944565b915061109260115486612aa7565b6011819055506110e1600d60008973ffffffffffffffffffffffffffffffffffffffff1673ffffffffffffffffffffffffffffffffffffffff1681526020019081526020016000205486612aa7565b600d60008973ffffffffffffffffffffffffffffffffffffffff1673ffffffffffffffffffffffffffffffffffffffff1681526020019081526020016000208190555061112c612ac3565b9050600081111561116057611159600f548268010000000000000000860281151561115357fe5b04612aa7565b600f819055505b600760009054906101000a900473ffffffffffffffffffffffffffffffffffffffff1673ffffffffffffffffffffffffffffffffffffffff1663a9059cbb88846040518363ffffffff167c0100000000000000000000000000000000000000000000000000000000028152600401808373ffffffffffffffffffffffffffffffffffffffff1673ffffffffffffffffffffffffffffffffffffffff16815260200182815260200192505050602060405180830381600087803b15801561122557600080fd5b505af1158015611239573d6000803e3d6000fd5b505050506040513d602081101561124f57600080fd5b8101908080519060200190929190505050508673ffffffffffffffffffffffffffffffffffffffff167fe9d4fb0074327a194c752e06c8b2fce4a89cd86202090528bb81582a3f20fedd8684604051808381526020018281526020019250505060405180910390a250505050505050505050565b600160009054906101000a900473ffffffffffffffffffffffffffffffffffffffff1673ffffffffffffffffffffffffffffffffffffffff163373ffffffffffffffffffffffffffffffffffffffff1614151561131f57600080fd5b600160009054906101000a900473ffffffffffffffffffffffffffffffffffffffff1673ffffffffffffffffffffffffffffffffffffffff166000809054906101000a900473ffffffffffffffffffffffffffffffffffffffff1673ffffffffffffffffffffffffffffffffffffffff167f8be0079c531659141344cd1fd0a4f28419497f9722a3daafe3b4186f6b6457e060405160405180910390a3600160009054906101000a900473ffffffffffffffffffffffffffffffffffffffff166000806101000a81548173ffffffffffffffffffffffffffffffffffffffff021916908373ffffffffffffffffffffffffffffffffffffffff1602179055506000600160006101000a81548173ffffffffffffffffffffffffffffffffffffffff021916908373ffffffffffffffffffffffffffffffffffffffff160217905550565b600080826000611473826001611e64565b11151561147f57600080fd5b83925061148d836000611e64565b9150680100000000000000008202600a60008573ffffffffffffffffffffffffffffffffffffffff1673ffffffffffffffffffffffffffffffffffffffff16815260200190815260200160002060008282540192505081905550600960008473ffffffffffffffffffffffffffffffffffffffff1673ffffffffffffffffffffffffffffffffffffffff16815260200190815260200160002054820191506000600960008573ffffffffffffffffffffffffffffffffffffffff1673ffffffffffffffffffffffffffffffffffffffff16815260200190815260200160002081905550600760009054906101000a900473ffffffffffffffffffffffffffffffffffffffff1673ffffffffffffffffffffffffffffffffffffffff1663a9059cbb84846040518363ffffffff167c0100000000000000000000000000000000000000000000000000000000028152600401808373ffffffffffffffffffffffffffffffffffffffff1673ffffffffffffffffffffffffffffffffffffffff16815260200182815260200192505050602060405180830381600087803b15801561163557600080fd5b505af1158015611649573d6000803e3d6000fd5b505050506040513d602081101561165f57600080fd5b8101908080519060200190929190505050508273ffffffffffffffffffffffffffffffffffffffff167fccad973dcd043c7d680389db4378bd6b9775db7124092e9e0422c9e46d7985dc836040518082815260200191505060405180910390a250505050565b60045481565b60008060008060008060008860006116e282611906565b1115156116ee57600080fd5b899750600860008973ffffffffffffffffffffffffffffffffffffffff1673ffffffffffffffffffffffffffffffffffffffff16815260200190815260200160002054891115151561173f57600080fd5b88965061174b876129f2565b955061175b86600a60ff1661292e565b94506117678686612944565b9350611775600e5488612944565b600e819055506117c4600860008a73ffffffffffffffffffffffffffffffffffffffff1673ffffffffffffffffffffffffffffffffffffffff1681526020019081526020016000205488612944565b600860008a73ffffffffffffffffffffffffffffffffffffffff1673ffffffffffffffffffffffffffffffffffffffff1681526020019081526020016000208190555068010000000000000000840287600f540201925082600a60008a73ffffffffffffffffffffffffffffffffffffffff1673ffffffffffffffffffffffffffffffffffffffff16815260200190815260200160002060008282540392505081905550611870612ac3565b915060008211156118a45761189d600f548368010000000000000000880281151561189757fe5b04612aa7565b600f819055505b8773ffffffffffffffffffffffffffffffffffffffff167fc4823739c5787d2ca17e404aa47d5569ae71dfb49cbf21b3f6152ed238a311398886604051808381526020018281526020019250505060405180910390a250505050505050505050565b6000600860008373ffffffffffffffffffffffffffffffffffffffff1673ffffffffffffffffffffffffffffffffffffffff168152602001908152602001600020549050919050565b6000809054906101000a900473ffffffffffffffffffffffffffffffffffffffff1673ffffffffffffffffffffffffffffffffffffffff163373ffffffffffffffffffffffffffffffffffffffff161415156119aa57600080fd5b6000809054906101000a900473ffffffffffffffffffffffffffffffffffffffff1673ffffffffffffffffffffffffffffffffffffffff167ff8df31144d9c2f0f6b59d69b8b98abd5459d07f2742c4df920b25aae33c6482060405160405180910390a260008060006101000a81548173ffffffffffffffffffffffffffffffffffffffff021916908373ffffffffffffffffffffffffffffffffffffffff160217905550565b6000806000806000600e541415611a7957655e2ff10350006603addf6a212000019350611aac565b611a8a670de0b6b3a76400006129f2565b9250611a9a83600a60ff1661292e565b9150611aa68383612aa7565b90508093505b50505090565b6000809054906101000a900473ffffffffffffffffffffffffffffffffffffffff1681565b60038054600181600116156101000203166002900480601f016020809104026020016040519081016040528092919081815260200182805460018160011615610100020316600290048015611b6d5780601f10611b4257610100808354040283529160200191611b6d565b820191906000526020600020905b815481529060010190602001808311611b5057829003601f168201915b505050505081565b600c6020528060005260406000206000915090505481565b600d6020528060005260406000206000915090505481565b60066020528060005260406000206000915054906101000a900460ff1681565b6000809054906101000a900473ffffffffffffffffffffffffffffffffffffffff1673ffffffffffffffffffffffffffffffffffffffff163373ffffffffffffffffffffffffffffffffffffffff16141515611c2057600080fd5b6000601260006101000a81548160ff021916908315150217905550565b6000600760009054906101000a900473ffffffffffffffffffffffffffffffffffffffff1673ffffffffffffffffffffffffffffffffffffffff166370a08231306040518263ffffffff167c0100000000000000000000000000000000000000000000000000000000028152600401808273ffffffffffffffffffffffffffffffffffffffff1673ffffffffffffffffffffffffffffffffffffffff168152602001915050602060405180830381600087803b158015611cfc57600080fd5b505af1158015611d10573d6000803e3d6000fd5b505050506040513d6020811015611d2657600080fd5b8101908080519060200190929190505050905090565b600080829150600860008373ffffffffffffffffffffffffffffffffffffffff1673ffffffffffffffffffffffffffffffffffffffff1681526020019081526020016000205490506000811115611d9857611d9783826116cb565b5b611da183611462565b505050565b600080600080600e548511151515611dbd57600080fd5b611dc6856129f2565b9250611dd683600a60ff1661292e565b9150611de28383612944565b9050809350505050919050565b6000809054906101000a900473ffffffffffffffffffffffffffffffffffffffff1673ffffffffffffffffffffffffffffffffffffffff163373ffffffffffffffffffffffffffffffffffffffff16141515611e4a57600080fd5b8060039080519060200190611e60929190613432565b5050565b60008083905082611e7d57611e7881610cc8565b611ec8565b600960008273ffffffffffffffffffffffffffffffffffffffff1673ffffffffffffffffffffffffffffffffffffffff16815260200190815260200160002054611ec682610cc8565b015b91505092915050565b6000809054906101000a900473ffffffffffffffffffffffffffffffffffffffff1673ffffffffffffffffffffffffffffffffffffffff163373ffffffffffffffffffffffffffffffffffffffff16141515611f2c57600080fd5b8060029080519060200190611f42929190613432565b5050565b600080600080856000611f5882611906565b111515611f6457600080fd5b869350600860008573ffffffffffffffffffffffffffffffffffffffff1673ffffffffffffffffffffffffffffffffffffffff168152602001908152602001600020548611151515611fb557600080fd5b859250611fc460105484612aa7565b601081905550612013600860008673ffffffffffffffffffffffffffffffffffffffff1673ffffffffffffffffffffffffffffffffffffffff1681526020019081526020016000205484612944565b600860008673ffffffffffffffffffffffffffffffffffffffff1673ffffffffffffffffffffffffffffffffffffffff1681526020019081526020016000208190555061209f600c60008673ffffffffffffffffffffffffffffffffffffffff1673ffffffffffffffffffffffffffffffffffffffff1681526020019081526020016000205484612aa7565b600c60008673ffffffffffffffffffffffffffffffffffffffff1673ffffffffffffffffffffffffffffffffffffffff1681526020019081526020016000208190555082600f5402915081600a60008673ffffffffffffffffffffffffffffffffffffffff1673ffffffffffffffffffffffffffffffffffffffff168152602001908152602001600020600082825403925050819055508373ffffffffffffffffffffffffffffffffffffffff167ff442d356b73f85e354ab3e2be58a493fbcbfc105e75bd7cef5c6d1882bd20715846040518082815260200191505060405180910390a28294505050505092915050565b60008060008460006121a4826001611e64565b1115156121b057600080fd5b6121bb866000611e64565b9350600960008773ffffffffffffffffffffffffffffffffffffffff1673ffffffffffffffffffffffffffffffffffffffff168152602001908152602001600020549250828401851115151561221057600080fd5b838511151561227657680100000000000000008502600a60008873ffffffffffffffffffffffffffffffffffffffff1673ffffffffffffffffffffffffffffffffffffffff1681526020019081526020016000206000828254019250508190555061235d565b680100000000000000008402600a60008873ffffffffffffffffffffffffffffffffffffffff1673ffffffffffffffffffffffffffffffffffffffff16815260200190815260200160002060008282540192505081905550612319600960008873ffffffffffffffffffffffffffffffffffffffff1673ffffffffffffffffffffffffffffffffffffffff16815260200190815260200160002054858703612944565b600960008873ffffffffffffffffffffffffffffffffffffffff1673ffffffffffffffffffffffffffffffffffffffff168152602001908152602001600020819055505b61236986866000612ad8565b91508573ffffffffffffffffffffffffffffffffffffffff167fbe339fc14b041c2b0e0f3dd2cd325d0c3668b78378001e53160eab36153264588684604051808381526020018281526020019250505060405180910390a2505050505050565b6000600760009054906101000a900473ffffffffffffffffffffffffffffffffffffffff1673ffffffffffffffffffffffffffffffffffffffff166323b872dd8530866040518463ffffffff167c0100000000000000000000000000000000000000000000000000000000028152600401808473ffffffffffffffffffffffffffffffffffffffff1673ffffffffffffffffffffffffffffffffffffffff1681526020018373ffffffffffffffffffffffffffffffffffffffff1673ffffffffffffffffffffffffffffffffffffffff1681526020018281526020019350505050602060405180830381600087803b1580156124c457600080fd5b505af11580156124d8573d6000803e3d6000fd5b505050506040513d60208110156124ee57600080fd5b8101908080519060200190929190505050151561250a57600080fd5b612515848484612ad8565b509392505050565b600160009054906101000a900473ffffffffffffffffffffffffffffffffffffffff1681565b6000809054906101000a900473ffffffffffffffffffffffffffffffffffffffff1673ffffffffffffffffffffffffffffffffffffffff163373ffffffffffffffffffffffffffffffffffffffff1614151561259e57600080fd5b80600160006101000a81548173ffffffffffffffffffffffffffffffffffffffff021916908373ffffffffffffffffffffffffffffffffffffffff16021790555050565b6000808360006125f3826001611e64565b1115156125ff57600080fd5b61260a856000611e64565b9250600960008673ffffffffffffffffffffffffffffffffffffffff1673ffffffffffffffffffffffffffffffffffffffff168152602001908152602001600020549150818301841115151561265f57600080fd5b82841115156126c557680100000000000000008402600a60008773ffffffffffffffffffffffffffffffffffffffff1673ffffffffffffffffffffffffffffffffffffffff168152602001908152602001600020600082825401925050819055506127ac565b680100000000000000008302600a60008773ffffffffffffffffffffffffffffffffffffffff1673ffffffffffffffffffffffffffffffffffffffff16815260200190815260200160002060008282540192505081905550612768600960008773ffffffffffffffffffffffffffffffffffffffff1673ffffffffffffffffffffffffffffffffffffffff16815260200190815260200160002054848603612944565b600960008773ffffffffffffffffffffffffffffffffffffffff1673ffffffffffffffffffffffffffffffffffffffff168152602001908152602001600020819055505b600760009054906101000a900473ffffffffffffffffffffffffffffffffffffffff1673ffffffffffffffffffffffffffffffffffffffff1663a9059cbb86856040518363ffffffff167c0100000000000000000000000000000000000000000000000000000000028152600401808373ffffffffffffffffffffffffffffffffffffffff1673ffffffffffffffffffffffffffffffffffffffff16815260200182815260200192505050602060405180830381600087803b15801561287157600080fd5b505af1158015612885573d6000803e3d6000fd5b505050506040513d602081101561289b57600080fd5b8101908080519060200190929190505050508473ffffffffffffffffffffffffffffffffffffffff167fccad973dcd043c7d680389db4378bd6b9775db7124092e9e0422c9e46d7985dc856040518082815260200191505060405180910390a25050505050565b60105481565b600760009054906101000a900473ffffffffffffffffffffffffffffffffffffffff1681565b6000818381151561293b57fe5b04905092915050565b600082821115151561295257fe5b818303905092915050565b6000806000806603addf6a21200092506129756133d2565b9150600e54655e2ff10350006129da6129d4600e5487655e2ff103500060020202026002600e540a6002655e2ff10350000a02670de0b6b3a76400008b02670de0b6b3a7640000655e2ff1035000026002020260028a0a0101016133e7565b86612944565b8115156129e357fe5b04039050809350505050919050565b600080600080670de0b6b3a764000085019250670de0b6b3a7640000612a166133d2565b019150670de0b6b3a7640000612a90670de0b6b3a76400008503655e2ff1035000670de0b6b3a764000086811515612a4a57fe5b04655e2ff1035000026603addf6a2120000103026002670de0b6b3a7640000876002890a03811515612a7857fe5b04655e2ff103500002811515612a8a57fe5b04612944565b811515612a9957fe5b049050809350505050919050565b60008183019050828110151515612aba57fe5b80905092915050565b6000612ad3600e54601054612944565b905090565b600080600080600080600089896000829050601260009054906101000a900460ff168015612b12575062030d4082612b0e611c3d565b0311155b15612ffe5760011515600560008373ffffffffffffffffffffffffffffffffffffffff1673ffffffffffffffffffffffffffffffffffffffff16815260200190815260200160002060009054906101000a900460ff161515148015612bba575061271082600b60008473ffffffffffffffffffffffffffffffffffffffff1673ffffffffffffffffffffffffffffffffffffffff168152602001908152602001600020540111155b1515612bc557600080fd5b612c0e600b60008373ffffffffffffffffffffffffffffffffffffffff1673ffffffffffffffffffffffffffffffffffffffff1681526020019081526020016000205483612aa7565b600b60008373ffffffffffffffffffffffffffffffffffffffff1673ffffffffffffffffffffffffffffffffffffffff16815260200190815260200160002081905550612c5f8c600a60ff1661292e565b9850612c6c89600361292e565b9750612c788989612944565b9650612c848c8a612944565b9550612c8f8661295d565b94506801000000000000000087029350600085118015612cbb5750600e54612cb986600e54612aa7565b115b1515612cc657600080fd5b600073ffffffffffffffffffffffffffffffffffffffff168b73ffffffffffffffffffffffffffffffffffffffff1614158015612d2f57508c73ffffffffffffffffffffffffffffffffffffffff168b73ffffffffffffffffffffffffffffffffffffffff1614155b8015612d7c5750600454600860008d73ffffffffffffffffffffffffffffffffffffffff1673ffffffffffffffffffffffffffffffffffffffff1681526020019081526020016000205410155b15612e1257612dca600960008d73ffffffffffffffffffffffffffffffffffffffff1673ffffffffffffffffffffffffffffffffffffffff1681526020019081526020016000205489612aa7565b600960008d73ffffffffffffffffffffffffffffffffffffffff1673ffffffffffffffffffffffffffffffffffffffff16815260200190815260200160002081905550612e2d565b612e1c8789612aa7565b965068010000000000000000870293505b6000600e541115612ea257612e44600e5486612aa7565b600e81905550612e52612ac3565b680100000000000000008802811515612e6757fe5b04600f60008282540192505081905550612e7f612ac3565b680100000000000000008802811515612e9457fe5b048502840384039350612eaa565b84600e819055505b612ef3600860008f73ffffffffffffffffffffffffffffffffffffffff1673ffffffffffffffffffffffffffffffffffffffff1681526020019081526020016000205486612aa7565b600860008f73ffffffffffffffffffffffffffffffffffffffff1673ffffffffffffffffffffffffffffffffffffffff168152602001908152602001600020819055508385600f540203600a60008f73ffffffffffffffffffffffffffffffffffffffff1673ffffffffffffffffffffffffffffffffffffffff168152602001908152602001600020600082825401925050819055508a73ffffffffffffffffffffffffffffffffffffffff168d73ffffffffffffffffffffffffffffffffffffffff167f022c0d992e4d873a3748436d960d5140c1f9721cf73f7ca5ec679d3d9f4fe2d58e88604051808381526020018281526020019250505060405180910390a38499506133c2565b6000601260006101000a81548160ff0219169083151502179055506130278c600a60ff1661292e565b985061303489600361292e565b97506130408989612944565b965061304c8c8a612944565b95506130578661295d565b945068010000000000000000870293506000851180156130835750600e5461308186600e54612aa7565b115b151561308e57600080fd5b600073ffffffffffffffffffffffffffffffffffffffff168b73ffffffffffffffffffffffffffffffffffffffff16141580156130f757508c73ffffffffffffffffffffffffffffffffffffffff168b73ffffffffffffffffffffffffffffffffffffffff1614155b80156131445750600454600860008d73ffffffffffffffffffffffffffffffffffffffff1673ffffffffffffffffffffffffffffffffffffffff1681526020019081526020016000205410155b156131da57613192600960008d73ffffffffffffffffffffffffffffffffffffffff1673ffffffffffffffffffffffffffffffffffffffff1681526020019081526020016000205489612aa7565b600960008d73ffffffffffffffffffffffffffffffffffffffff1673ffffffffffffffffffffffffffffffffffffffff168152602001908152602001600020819055506131f5565b6131e48789612aa7565b965068010000000000000000870293505b6000600e54111561326a5761320c600e5486612aa7565b600e8190555061321a612ac3565b68010000000000000000880281151561322f57fe5b04600f60008282540192505081905550613247612ac3565b68010000000000000000880281151561325c57fe5b048502840384039350613272565b84600e819055505b6132bb600860008f73ffffffffffffffffffffffffffffffffffffffff1673ffffffffffffffffffffffffffffffffffffffff1681526020019081526020016000205486612aa7565b600860008f73ffffffffffffffffffffffffffffffffffffffff1673ffffffffffffffffffffffffffffffffffffffff168152602001908152602001600020819055508385600f540203600a60008f73ffffffffffffffffffffffffffffffffffffffff1673ffffffffffffffffffffffffffffffffffffffff168152602001908152602001600020600082825401925050819055508a73ffffffffffffffffffffffffffffffffffffffff168d73ffffffffffffffffffffffffffffffffffffffff167f022c0d992e4d873a3748436d960d5140c1f9721cf73f7ca5ec679d3d9f4fe2d58e88604051808381526020018281526020019250505060405180910390a38499505b5050505050505050509392505050565b60006133e2600e54601154612944565b905090565b6000806002600184018115156133f957fe5b0490508291505b8181101561342c57809150600281828581151561341957fe5b040181151561342457fe5b049050613400565b50919050565b828054600181600116156101000203166002900490600052602060002090601f016020900481019282601f1061347357805160ff19168380011785556134a1565b828001600101855582156134a1579182015b828111156134a0578251825591602001919060010190613485565b5b5090506134ae91906134b2565b5090565b6134d491905b808211156134d05760008160009055506001016134b8565b5090565b905600a165627a7a72305820a8dabd21177ce76f4180263b62e88347599fea7baaa61aadc9b2917cfab621f00029",
  "source": "pragma solidity ^0.4.21;\r\nimport \"zeppelin-solidity/contracts/math/SafeMath.sol\";\r\nimport \"zeppelin-solidity/contracts/ownership/Claimable.sol\";\r\nimport \"zeppelin-solidity/contracts/token/ERC20/ERC20.sol\";\r\nimport \"../contracts/interface/TokenDealerInterface.sol\";\r\n\r\ncontract SeeleDealer is Claimable{ \r\n\r\n    /*=================================\r\n    =            MODIFIERS            =\r\n    =================================*/\r\n    // only people with tokens\r\n    modifier onlyBagholders(address myAddress) {\r\n        require(balanceOf(myAddress) > 0);\r\n        _;\r\n    }\r\n    \r\n    // only people with profits\r\n    modifier onlyStronghands(address myAddress) {\r\n        require(myDividends(myAddress, true) > 0);\r\n        _;\r\n    }\r\n    \r\n \r\n    // ensures that the first tokens in the contract will be equally distributed\r\n    // meaning, no divine dump will be ever possible\r\n    // result: healthy longevity.\r\n    modifier antiEarlyWhale(address buyer, uint256 _amountOfEthereum){\r\n        address _customerAddress = buyer;\r\n        \r\n        // are we still in the vulnerable phase?\r\n        // if so, enact anti early whale protocol \r\n        if( onlyAmbassadors && ((totalBalance() - _amountOfEthereum) <= ambassadorQuota_ )){\r\n            require(\r\n                // is the customer in the ambassador list?\r\n                ambassadors_[_customerAddress] == true &&\r\n                \r\n                // does the customer purchase exceed the max ambassador quota?\r\n                (ambassadorAccumulatedQuota_[_customerAddress] + _amountOfEthereum) <= ambassadorMaxPurchase_\r\n                \r\n            );\r\n            \r\n            // updated the accumulated quota    \r\n            ambassadorAccumulatedQuota_[_customerAddress] = SafeMath.add(ambassadorAccumulatedQuota_[_customerAddress], _amountOfEthereum);\r\n        \r\n            // execute\r\n            _;\r\n        } else {\r\n            // in case the ether count drops low, the ambassador phase won't reinitiate\r\n            onlyAmbassadors = false;\r\n            _;    \r\n        }\r\n        \r\n    }\r\n    \r\n    \r\n    /*==============================\r\n    =            EVENTS            =\r\n    ==============================*/\r\n    event onTokenPurchase(\r\n        address indexed customerAddress,\r\n        uint256 incomingEthereum,\r\n        uint256 tokensMinted,\r\n        address indexed referredBy\r\n    );\r\n    \r\n    event onTokenSell(\r\n        address indexed customerAddress,\r\n        uint256 tokensBurned,\r\n        uint256 seeleEarned\r\n    );\r\n\r\n    event onTokenSellByProtocol(\r\n        address indexed customerAddress,\r\n        uint256 tokensBurned,\r\n        uint256 seeleEarned\r\n    );\r\n    \r\n    event onReinvestment(\r\n        address indexed customerAddress,\r\n        uint256 ethereumReinvested,\r\n        uint256 tokensMinted\r\n    );\r\n    \r\n    event onWithdraw(\r\n        address indexed customerAddress,\r\n        uint256 ethereumWithdrawn\r\n    );\r\n    \r\n    event onTokenEscape(\r\n        address indexed customerAddress,\r\n        uint256 tokensEscaped\r\n    );\r\n\r\n    event onTokenArbitrage(\r\n        address indexed customerAddress,\r\n        uint256 tokensBurned,\r\n        uint256 ethereumEarned\r\n    );\r\n        \r\n    // ERC20\r\n    event Transfer(\r\n        address indexed from,\r\n        address indexed to,\r\n        uint256 tokens\r\n    );\r\n\r\n    /*=====================================\r\n    =            CONFIGURABLES            =\r\n    =====================================*/\r\n    string public name = \"Seele-S3D\";\r\n    string public symbol = \"Seele-S3D\";\r\n    uint8 constant public decimals = 18;\r\n    uint8 constant internal dividendFee_ = 10;\r\n\r\n    uint256 constant internal tokenPriceInitial_ = 0.0010356 * 1e18;\r\n    uint256 constant internal tokenPriceIncremental_ = 0.00010356 * 1e18;\r\n    uint256 constant internal magnitude = 2**64;\r\n    \r\n    // proof of stake (defaults at 100 tokens)\r\n    uint256 public stakingRequirement = 100e18;\r\n    \r\n    // ambassador program\r\n    mapping(address => bool) internal ambassadors_;\r\n    uint256 constant internal ambassadorMaxPurchase_ = 10000;\r\n    uint256 constant internal ambassadorQuota_ = 200000;\r\n    \r\n    \r\n    mapping(address => bool) public authorizedAddressInfos;\r\n    modifier onlyAuthorized()\r\n    {\r\n        require(authorizedAddressInfos[msg.sender]);\r\n        _;\r\n    }\r\n\r\n    address public seeleTokenAddress = 0x47879ac781938CFfd879392Cd2164b9F7306188a;\r\n   /*================================\r\n    =            DATASETS            =\r\n    ================================*/\r\n    // amount of shares for each address (scaled number)\r\n    mapping(address => uint256) internal tokenBalanceLedger_;\r\n    mapping(address => uint256) internal referralBalance_;\r\n    mapping(address => int256) internal payoutsTo_;\r\n    mapping(address => uint256) internal ambassadorAccumulatedQuota_;\r\n    mapping(address => uint256) public escapeTokenBalance_;\r\n    mapping(address => uint256) public overSellTokenBalance_;\r\n\r\n    uint256 internal tokenSupply_ = 0;\r\n    uint256 internal profitPerShare_;\r\n\r\n    //NEED DO!! change to internal\r\n    uint256 public escapeTokenSuppley_ = 0;\r\n    uint256 public overSellTokenAmount_ = 0;\r\n    \r\n \r\n    // when this is set to true, only ambassadors can purchase tokens (this prevents a whale premine, it ensures a fairly distributed upper pyramid)\r\n    bool public onlyAmbassadors = true;\r\n\r\n\r\n    /*=======================================\r\n    =            PUBLIC FUNCTIONS            =\r\n    =======================================*/\r\n    /*\r\n    * -- APPLICATION ENTRY POINTS --  \r\n    */\r\n    function SeeleDealer(address tokenAddress)\r\n        public\r\n    {\r\n        seeleTokenAddress = tokenAddress;\r\n\r\n        // add the ambassadors here.\r\n        // mantso - lead solidity dev & lead web dev. \r\n        ambassadors_[0xCd16575A90eD9506BCf44C78845d93F1b647F48C] = true;\r\n    }\r\n    \r\n     \r\n    /**\r\n     * Converts all incoming ethereum to tokens for the caller, and passes down the referral addy (if any)\r\n     */\r\n    function buy(address buyer, uint256 seeleAmount, address _referredBy)\r\n        public\r\n        payable\r\n        returns(uint256)\r\n    {\r\n        //transfer seele to contract\r\n        require(ERC20(seeleTokenAddress).transferFrom(buyer, address(this), seeleAmount));\r\n        purchaseTokens(buyer, seeleAmount, _referredBy);\r\n    }\r\n    \r\n    /*\r\n     * default fallback\r\n    */\r\n    function()\r\n        payable\r\n        public\r\n    {\r\n        \r\n    }\r\n\r\n    /**\r\n     * Converts all of caller's dividends to tokens.\r\n     */\r\n    function reinvest(address buyer, uint buyAmount)\r\n        onlyStronghands(buyer)\r\n        public\r\n    {\r\n        // fetch dividends\r\n        uint256 _dividends = myDividends(buyer, false); // retrieve ref. bonus later in the code\r\n        uint256 _referralBalance = referralBalance_[buyer];\r\n        require(buyAmount <= (_dividends + _referralBalance));\r\n\r\n        if (buyAmount <= _dividends) {\r\n            // pay out the dividends virtually\r\n            payoutsTo_[buyer] +=  (int256)(buyAmount * magnitude);\r\n        } else {\r\n            payoutsTo_[buyer] +=  (int256) (_dividends * magnitude);\r\n            // retrieve ref. bonus\r\n            referralBalance_[buyer] = SafeMath.sub(referralBalance_[buyer], buyAmount - _dividends);\r\n        }\r\n                \r\n        // dispatch a buy order with the virtualized \"withdrawn dividends\"\r\n        uint256 _tokens = purchaseTokens(buyer, buyAmount, 0x0);\r\n        \r\n        // fire event\r\n        emit onReinvestment(buyer, buyAmount, _tokens);\r\n    }\r\n\r\n    // function reinvest(address buyer)\r\n    //     onlyStronghands(buyer)\r\n    //     public\r\n    // {\r\n    //     // fetch dividends\r\n    //     uint256 _dividends = myDividends(buyer, false); // retrieve ref. bonus later in the code\r\n        \r\n    //     // pay out the dividends virtually\r\n    //     address _customerAddress = buyer;\r\n    //     payoutsTo_[_customerAddress] +=  (int256) (_dividends * magnitude);\r\n        \r\n    //     // retrieve ref. bonus\r\n    //     _dividends += referralBalance_[_customerAddress];\r\n    //     referralBalance_[_customerAddress] = 0;\r\n        \r\n    //     // dispatch a buy order with the virtualized \"withdrawn dividends\"\r\n    //     uint256 _tokens = purchaseTokens(_customerAddress, _dividends, 0x0);\r\n        \r\n    //     // fire event\r\n    //     emit onReinvestment(_customerAddress, _dividends, _tokens);\r\n    // }\r\n    \r\n    /**\r\n     * Alias of sell() and withdraw().\r\n     */\r\n    function exit(address buyer)\r\n        public\r\n    {\r\n        // get token count for caller & sell them all\r\n        address _customerAddress = buyer;\r\n        uint256 _tokens = tokenBalanceLedger_[_customerAddress];\r\n        if(_tokens > 0) \r\n            sell(buyer, _tokens);\r\n        \r\n        // lambo delivery service\r\n        withdraw(buyer);\r\n    }\r\n\r\n    /**\r\n     * Withdraws all of the callers earnings.\r\n     */\r\n    function withdraw(address buyer)\r\n        onlyStronghands(buyer)\r\n        public\r\n    {\r\n        // setup data\r\n        address _customerAddress = buyer;\r\n        uint256 _dividends = myDividends(_customerAddress, false); // get ref. bonus later in the code\r\n        \r\n        // update dividend tracker\r\n        payoutsTo_[_customerAddress] +=  (int256) (_dividends * magnitude);\r\n        \r\n        // add ref. bonus\r\n        _dividends += referralBalance_[_customerAddress];\r\n        referralBalance_[_customerAddress] = 0;\r\n        \r\n        // lambo delivery service\r\n        //_customerAddress.transfer(_dividends);\r\n        ERC20(seeleTokenAddress).transfer(_customerAddress, _dividends);\r\n        \r\n        // fire event\r\n        emit onWithdraw(_customerAddress, _dividends);\r\n    }\r\n\r\n    function withdraw(address buyer, uint256 withdrawAmount)\r\n        onlyStronghands(buyer)\r\n        public\r\n    {\r\n        // setup data\r\n        uint256 _dividends = myDividends(buyer, false); // get ref. bonus later in the code\r\n        uint256 _referralBalance = referralBalance_[buyer];\r\n        require(withdrawAmount <= (_dividends + _referralBalance));\r\n\r\n        if (withdrawAmount <= _dividends) {\r\n            // pay out the dividends virtually\r\n            payoutsTo_[buyer] +=  (int256)(withdrawAmount * magnitude);\r\n        } else {\r\n            // retrieve ref. bonus\r\n            payoutsTo_[buyer] +=  (int256) (_dividends * magnitude);\r\n            referralBalance_[buyer] = SafeMath.sub(referralBalance_[buyer], withdrawAmount - _dividends);\r\n        }\r\n        \r\n        \r\n        // lambo delivery service\r\n        //_customerAddress.transfer(withdrawAmount);\r\n        ERC20(seeleTokenAddress).transfer(buyer, _dividends);\r\n        \r\n        // fire event\r\n        emit onWithdraw(buyer, withdrawAmount);\r\n    }\r\n    \r\n    /**\r\n     * Liquifies tokens to ethereum.\r\n     */\r\n    function sell(address seller, uint256 _amountOfTokens)\r\n        onlyBagholders(seller)\r\n        public\r\n    {\r\n        // setup data\r\n        address _customerAddress = seller;\r\n        // russian hackers BTFO\r\n        require(_amountOfTokens <= tokenBalanceLedger_[_customerAddress]);\r\n        uint256 _tokens = _amountOfTokens;\r\n        uint256 _seeleAmount = tokensToSeele(_tokens);\r\n        uint256 _dividends = SafeMath.div(_seeleAmount, dividendFee_);\r\n        uint256 _taxedSeele = SafeMath.sub(_seeleAmount, _dividends);\r\n        \r\n        // burn the sold tokens\r\n        tokenSupply_ = SafeMath.sub(tokenSupply_, _tokens);\r\n        tokenBalanceLedger_[_customerAddress] = SafeMath.sub(tokenBalanceLedger_[_customerAddress], _tokens);\r\n        \r\n        // update dividends tracker\r\n        int256 _updatedPayouts = (int256) (profitPerShare_ * _tokens + (_taxedSeele * magnitude));\r\n        payoutsTo_[_customerAddress] -= _updatedPayouts;       \r\n        \r\n        // dividing by zero is a bad idea\r\n        uint256 dividendTokenAmount_ =  getDividendTokenAmount();\r\n        if (dividendTokenAmount_ > 0) {\r\n            // update the amount of dividends per token\r\n            profitPerShare_ = SafeMath.add(profitPerShare_, (_dividends * magnitude) / dividendTokenAmount_);\r\n        }\r\n        \r\n        // fire event\r\n        emit onTokenSell(_customerAddress, _tokens, _taxedSeele);\r\n    }\r\n    \r\n    /**\r\n     * Transfer tokens from the caller to a new holder.\r\n     * Remember, there's a 10% fee here as well.\r\n     */\r\n    // function transfer(address _toAddress, uint256 _amountOfTokens)\r\n    //     onlyBagholders()\r\n    //     public\r\n    //     returns(bool)\r\n    // {\r\n    //     // setup\r\n    //     address _customerAddress = msg.sender;\r\n        \r\n    //     // make sure we have the requested tokens\r\n    //     // also disables transfers until ambassador phase is over\r\n    //     // ( we dont want whale premines )\r\n    //     require(!onlyAmbassadors && _amountOfTokens <= tokenBalanceLedger_[_customerAddress]);\r\n        \r\n    //     // withdraw all outstanding dividends first\r\n    //     if(myDividends(true) > 0) withdraw();\r\n        \r\n    //     // liquify 10% of the tokens that are transfered\r\n    //     // these are dispersed to shareholders\r\n    //     uint256 _tokenFee = SafeMath.div(_amountOfTokens, dividendFee_);\r\n    //     uint256 _taxedTokens = SafeMath.sub(_amountOfTokens, _tokenFee);\r\n    //     uint256 _dividends = tokensToSeele(_tokenFee);\r\n  \r\n    //     // burn the fee tokens\r\n    //     tokenSupply_ = SafeMath.sub(tokenSupply_, _tokenFee);\r\n\r\n    //     // exchange tokens\r\n    //     tokenBalanceLedger_[_customerAddress] = SafeMath.sub(tokenBalanceLedger_[_customerAddress], _amountOfTokens);\r\n    //     tokenBalanceLedger_[_toAddress] = SafeMath.add(tokenBalanceLedger_[_toAddress], _taxedTokens);\r\n        \r\n    //     // update dividend trackers\r\n    //     payoutsTo_[_customerAddress] -= (int256) (profitPerShare_ * _amountOfTokens);\r\n    //     payoutsTo_[_toAddress] += (int256) (profitPerShare_ * _taxedTokens);\r\n        \r\n    //     // disperse dividends among holders\r\n    //     profitPerShare_ = SafeMath.add(profitPerShare_, (_dividends * magnitude) / tokenSupply_);\r\n        \r\n    //     // fire event\r\n    //     emit Transfer(_customerAddress, _toAddress, _taxedTokens);\r\n        \r\n    //     // ERC20\r\n    //     return true;\r\n       \r\n    // }\r\n    \r\n    /*----------  ADMINISTRATOR ONLY FUNCTIONS  ----------*/\r\n    /**\r\n     * In case the amassador quota is not met, the administrator can manually disable the ambassador phase.\r\n     */\r\n    function disableInitialStage()\r\n        onlyOwner()\r\n        public\r\n    {\r\n        onlyAmbassadors = false;\r\n    }\r\n    \r\n    /**\r\n     * Precautionary measures in case we need to adjust the masternode rate.\r\n     */\r\n    // function setStakingRequirement(uint256 _amountOfTokens)\r\n    //     onlyOwner()\r\n    //     public\r\n    // {\r\n    //     stakingRequirement = _amountOfTokens;\r\n    // }\r\n    \r\n    /**\r\n     * If we want to rebrand, we can.\r\n     */\r\n    function setName(string _name)\r\n        onlyOwner()\r\n        public\r\n    {\r\n        name = _name;\r\n    }\r\n    \r\n    /**\r\n     * If we want to rebrand, we can.\r\n     */\r\n    function setSymbol(string _symbol)\r\n        onlyOwner()\r\n        public\r\n    {\r\n        symbol = _symbol;\r\n    }\r\n\r\n    \r\n    /*----------  HELPERS AND CALCULATORS  ----------*/\r\n    /**\r\n     * Method to view the current Ethereum stored in the contract\r\n     * Example: totalEthereumBalance()\r\n     */\r\n    function totalBalance()\r\n        public\r\n        view\r\n        returns(uint256)\r\n    {\r\n        return ERC20(seeleTokenAddress).balanceOf(address(this));\r\n    }\r\n    \r\n    /**\r\n     * Retrieve the total token supply.\r\n     */\r\n    function totalSupply()\r\n        public\r\n        view\r\n        returns(uint256)\r\n    {\r\n        return tokenSupply_;\r\n    }\r\n    \r\n    \r\n    /**\r\n     * Retrieve the dividends owned by the caller.\r\n     * If `_includeReferralBonus` is to to 1/true, the referral bonus will be included in the calculations.\r\n     * The reason for this, is that in the frontend, we will want to get the total divs (global + ref)\r\n     * But in the internal calculations, we want them separate. \r\n     */ \r\n    function myDividends(address myAddress, bool _includeReferralBonus) \r\n        public \r\n        view \r\n        returns(uint256)\r\n    {\r\n        address _customerAddress = myAddress;\r\n        return _includeReferralBonus ? dividendsOf(_customerAddress) + referralBalance_[_customerAddress] : dividendsOf(_customerAddress) ;\r\n    }\r\n    \r\n    /**\r\n     * Retrieve the token balance of any single address.\r\n     */\r\n    function balanceOf(address _customerAddress)\r\n        view\r\n        public\r\n        returns(uint256)\r\n    {\r\n        return tokenBalanceLedger_[_customerAddress];\r\n    }\r\n    \r\n    /**\r\n     * Retrieve the dividend balance of any single address.\r\n     */\r\n    function dividendsOf(address _customerAddress)\r\n        view\r\n        public\r\n        returns(uint256)\r\n    {\r\n        return (uint256) ((int256)(profitPerShare_ * tokenBalanceLedger_[_customerAddress]) - payoutsTo_[_customerAddress]) / magnitude;\r\n    }\r\n    \r\n    function referralBalanceOf(address _customerAddress)\r\n        view\r\n        public \r\n        returns(uint256)\r\n    {\r\n        return referralBalance_[_customerAddress];\r\n    }\r\n\r\n    /**\r\n     * Return the buy price of 1 individual token.\r\n     */\r\n    function sellPrice() \r\n        public \r\n        view \r\n        returns(uint256)\r\n    {\r\n        // our calculation relies on the token supply, so we need supply. Doh.\r\n        if(tokenSupply_ == 0){\r\n            return tokenPriceInitial_ - tokenPriceIncremental_;\r\n        } else {\r\n            uint256 _seeleAmount = tokensToSeele(1e18);\r\n            uint256 _dividends = SafeMath.div(_seeleAmount, dividendFee_  );\r\n            uint256 _taxedSeele = SafeMath.sub(_seeleAmount, _dividends);\r\n            return _taxedSeele;\r\n        }\r\n    }\r\n    \r\n    /**\r\n     * Return the sell price of 1 individual token.\r\n     */\r\n    function buyPrice() \r\n        public \r\n        view \r\n        returns(uint256)\r\n    {\r\n        // our calculation relies on the token supply, so we need supply. Doh.\r\n        if(tokenSupply_ == 0){\r\n            return tokenPriceInitial_ + tokenPriceIncremental_;\r\n        } else {\r\n            uint256 _seeleAmount = tokensToSeele(1e18);\r\n            uint256 _dividends = SafeMath.div(_seeleAmount, dividendFee_  );\r\n            uint256 _taxedSeele = SafeMath.add(_seeleAmount, _dividends);\r\n            return _taxedSeele;\r\n        }\r\n    }\r\n    \r\n    /**\r\n     * Function for the frontend to dynamically retrieve the price scaling of buy orders.\r\n     */\r\n    function calculateTokensReceived(uint256 _seeleToSpend) \r\n        public \r\n        view \r\n        returns(uint256)\r\n    {\r\n        uint256 _dividends = SafeMath.div(_seeleToSpend, dividendFee_);\r\n        uint256 _taxedSeele = SafeMath.sub(_seeleToSpend, _dividends);\r\n        uint256 _amountOfTokens = seeleToTokens_(_taxedSeele);\r\n        \r\n        return _amountOfTokens;\r\n    }\r\n    \r\n    function calculateBuyTokenSpend(uint256 _tokensToBuy)\r\n        public \r\n        view\r\n        returns(uint256)\r\n    {\r\n        uint256 _seeleAmount = tokensToSeele(_tokensToBuy);\r\n        uint256 _dividends = SafeMath.div(_seeleAmount, dividendFee_);\r\n        uint256 _taxedSeele = SafeMath.sub(_seeleAmount, _dividends);\r\n        return _taxedSeele;\r\n    }\r\n\r\n    /**\r\n     * Function for the frontend to dynamically retrieve the price scaling of sell orders.\r\n     */\r\n    function calculateBuyTokenReceived(uint256 _tokensToSell) \r\n        public \r\n        view \r\n        returns(uint256)\r\n    {\r\n        require(_tokensToSell <= tokenSupply_);\r\n        uint256 _seeleAmount = tokensToSeele(_tokensToSell);\r\n        uint256 _dividends = SafeMath.div(_seeleAmount, dividendFee_);\r\n        uint256 _taxedSeele = SafeMath.sub(_seeleAmount, _dividends);\r\n        return _taxedSeele;\r\n    }\r\n    \r\n\r\n    /*==========================================\r\n    =            INTERNAL FUNCTIONS            =\r\n    ==========================================*/\r\n    function purchaseTokens(address buyer, uint256 _incomingSeele, address _referredBy)\r\n        antiEarlyWhale(buyer, _incomingSeele)\r\n        internal\r\n        returns(uint256)\r\n    {\r\n        // data setup\r\n        //address _customerAddress = buyer;\r\n        uint256 _undividedDividends = SafeMath.div(_incomingSeele, dividendFee_);\r\n        uint256 _referralBonus = SafeMath.div(_undividedDividends, 3);\r\n        uint256 _dividends = SafeMath.sub(_undividedDividends, _referralBonus);\r\n        uint256 _taxedSeele = SafeMath.sub(_incomingSeele, _undividedDividends);\r\n        uint256 _amountOfTokens = seeleToTokens_(_taxedSeele);\r\n        uint256 _fee = _dividends * magnitude;\r\n \r\n        // no point in continuing execution if OP is a poorfag russian hacker\r\n        // prevents overflow in the case that the pyramid somehow magically starts being used by everyone in the world\r\n        // (or hackers)\r\n        // and yes we know that the safemath function automatically rules out the \"greater then\" equasion.\r\n        require(_amountOfTokens > 0 && (SafeMath.add(_amountOfTokens,tokenSupply_) > tokenSupply_));\r\n        \r\n        // is the user referred by a masternode?\r\n        if(\r\n            // is this a referred purchase?\r\n            _referredBy != 0x0000000000000000000000000000000000000000 &&\r\n\r\n            // no cheating!\r\n            _referredBy != buyer &&\r\n            \r\n            // does the referrer have at least X whole tokens?\r\n            // i.e is the referrer a godly chad masternode\r\n            tokenBalanceLedger_[_referredBy] >= stakingRequirement\r\n        ){\r\n            // wealth redistribution\r\n            referralBalance_[_referredBy] = SafeMath.add(referralBalance_[_referredBy], _referralBonus);\r\n        } else {\r\n            // no ref purchase\r\n            // add the referral bonus back to the global dividends cake\r\n            _dividends = SafeMath.add(_dividends, _referralBonus);\r\n            _fee = _dividends * magnitude;\r\n        }\r\n        \r\n        // we can't give people infinite ethereum\r\n        if(tokenSupply_ > 0){\r\n            \r\n            // add tokens to the pool\r\n            tokenSupply_ = SafeMath.add(tokenSupply_, _amountOfTokens);\r\n\r\n            //uint256 dividendTokenAmount_ =  getDividendTokenAmount();\r\n \r\n            // take the amount of dividends gained through this transaction, and allocates them evenly to each shareholder\r\n            profitPerShare_ += (_dividends * magnitude / (getDividendTokenAmount()));\r\n            \r\n            // calculate the amount of tokens the customer receives over his purchase \r\n            _fee = _fee - (_fee-(_amountOfTokens * (_dividends * magnitude / (getDividendTokenAmount()))));\r\n        \r\n        } else {\r\n            // add tokens to the pool\r\n            tokenSupply_ = _amountOfTokens;\r\n        }\r\n        \r\n        // update circulating supply & the ledger address for the customer\r\n        tokenBalanceLedger_[buyer] = SafeMath.add(tokenBalanceLedger_[buyer], _amountOfTokens);\r\n        \r\n        // Tells the contract that the buyer doesn't deserve dividends for the tokens before they owned them;\r\n        //really i know you think you do but you don't\r\n\r\n        //int256 _updatedPayouts = (int256) ((profitPerShare_ * _amountOfTokens) - _fee);\r\n        payoutsTo_[buyer] += (int256) ((profitPerShare_ * _amountOfTokens) - _fee);\r\n        \r\n        // fire event\r\n        emit onTokenPurchase(buyer, _incomingSeele, _amountOfTokens, _referredBy);\r\n        \r\n        return _amountOfTokens;\r\n    }\r\n\r\n    /**\r\n     * Calculate Token price based on an amount of incoming ethereum\r\n     * It's an algorithm, hopefully we gave you the whitepaper with it in scientific notation;\r\n     * Some conversions occurred to prevent decimal errors or underflows / overflows in solidity code.\r\n     */\r\n    function seeleToTokens_(uint256 seeleAmount)\r\n        internal\r\n        view\r\n        returns(uint256)\r\n    {\r\n        uint256 _tokenPriceInitial = tokenPriceInitial_ ;\r\n        uint256 _tokenSupply =  getPricedTokenAmount();\r\n        uint256 _tokensReceived = \r\n         (\r\n            (\r\n                // underflow attempts BTFO\r\n                SafeMath.sub(\r\n                    (sqrt\r\n                        (\r\n                            (_tokenPriceInitial**2)\r\n                            +\r\n                            (2*(tokenPriceIncremental_ * 1e18 )*(seeleAmount * 1e18))\r\n                            +\r\n                            (((tokenPriceIncremental_)**2)*(tokenSupply_**2))\r\n                            +\r\n                            (2*(tokenPriceIncremental_)*_tokenPriceInitial*tokenSupply_)\r\n                        )\r\n                    ), _tokenPriceInitial\r\n                )\r\n            )/(tokenPriceIncremental_)\r\n        )-(tokenSupply_)\r\n        ;\r\n  \r\n        return _tokensReceived;\r\n    }\r\n    \r\n    /**\r\n     * Calculate token sell value.\r\n     * It's an algorithm, hopefully we gave you the whitepaper with it in scientific notation;\r\n     * Some conversions occurred to prevent decimal errors or underflows / overflows in solidity code.\r\n     */\r\n     function tokensToSeele(uint256 _tokens)\r\n        internal\r\n        view\r\n        returns(uint256)\r\n    {\r\n\r\n        uint256 tokens_ = (_tokens + 1e18);\r\n        uint256 _tokenSupply = (getPricedTokenAmount() + 1e18);\r\n        uint256 _seeleReceived =\r\n        (\r\n            // underflow attempts BTFO\r\n            SafeMath.sub(\r\n                (\r\n                    (\r\n                        (\r\n                            tokenPriceInitial_ +(tokenPriceIncremental_ * (_tokenSupply/1e18))\r\n                        )-tokenPriceIncremental_\r\n                    )*(tokens_ - 1e18)\r\n                ),(tokenPriceIncremental_*((tokens_**2-tokens_)/1e18))/2\r\n            )\r\n        /1e18);\r\n        return _seeleReceived;\r\n    }\r\n    \r\n    \r\n    //This is where all your gas goes, sorry\r\n    //Not sorry, you probably only paid 1 gwei\r\n    function sqrt(uint x) internal pure returns (uint y) {\r\n        uint z = (x + 1) / 2;\r\n        y = x;\r\n        while (z < y) {\r\n            y = z;\r\n            z = (x / z + z) / 2;\r\n        }\r\n    }\r\n\r\n    function getDividendTokenAmount() internal view returns (uint256) {\r\n        //exclude escape token\r\n        return SafeMath.sub(tokenSupply_ , escapeTokenSuppley_);\r\n    }\r\n\r\n    //tokenoverselltoken\r\n    function getPricedTokenAmount() internal view returns (uint256) {\r\n        return SafeMath.sub(tokenSupply_, overSellTokenAmount_);\r\n    }\r\n\r\n    //NEW FUNCTION        \r\n    function escapeTokens(address sellerAddress, uint256 _amountOfTokens) \r\n        onlyBagholders(sellerAddress) \r\n        public \r\n        returns(uint256)\r\n    {\r\n        // setup data\r\n        address _customerAddress = sellerAddress;\r\n\r\n        // russian hackers BTFO\r\n        require(_amountOfTokens <= tokenBalanceLedger_[_customerAddress]);\r\n        uint256 _tokens = _amountOfTokens;\r\n\r\n        // add the sold tokens to escape tokens\r\n        escapeTokenSuppley_ = SafeMath.add(escapeTokenSuppley_, _tokens);\r\n        tokenBalanceLedger_[_customerAddress] = SafeMath.sub(tokenBalanceLedger_[_customerAddress], _tokens);\r\n        escapeTokenBalance_[_customerAddress] = SafeMath.add(escapeTokenBalance_[_customerAddress], _tokens);\r\n   \r\n        // update dividends tracker\r\n        // take you token dividends\r\n        int256 _updatedPayouts = (int256) (profitPerShare_ * _tokens);\r\n        payoutsTo_[_customerAddress] -= _updatedPayouts;       \r\n\r\n        // fire event\r\n        emit onTokenEscape(_customerAddress, _tokens);\r\n        return _tokens;\r\n    }\r\n\r\n    //\r\n    function arbitrageTokens(address sellerAddress, address sellTokenAddress, uint256 _amountOfTokens) public\r\n    {\r\n        // setup data\r\n        address _customerAddress = sellerAddress;\r\n        \r\n        TokenDealerInterface escapeContract = TokenDealerInterface(sellTokenAddress);\r\n        uint256 _tokens = escapeContract.escapeTokens(_customerAddress, _amountOfTokens);\r\n\r\n        require(_tokens == _amountOfTokens);\r\n\r\n        // russian hackers BTFO\r\n        uint256 _seeleAmount = tokensToSeele(_tokens);\r\n        require(_seeleAmount <= totalBalance());        \r\n\r\n        uint256 _dividends = SafeMath.div(_seeleAmount, dividendFee_);\r\n        uint256 _taxedSeele = SafeMath.sub(_seeleAmount, _dividends);\r\n        \r\n        // burn the sold tokens\r\n        //tokenSupply_ = SafeMath.sub(tokenSupply_, _tokens);\r\n        //tokenBalanceLedger_[_customerAddress] = SafeMath.sub(tokenBalanceLedger_[_customerAddress], _tokens);\r\n\r\n        // add escape tokens to oversell\r\n        overSellTokenAmount_ = SafeMath.add(overSellTokenAmount_, _tokens);\r\n        overSellTokenBalance_[_customerAddress] = SafeMath.add(overSellTokenBalance_[_customerAddress], _tokens);\r\n\r\n             \r\n        // dividing by zero is a bad idea\r\n        uint256 dividendTokenAmount_ =  getDividendTokenAmount();\r\n        if (dividendTokenAmount_ > 0) {\r\n            // update the amount of dividends per token\r\n            profitPerShare_ = SafeMath.add(profitPerShare_, (_dividends * magnitude) / dividendTokenAmount_);\r\n        }\r\n        \r\n        // lambo delivery service\r\n        //_customerAddress.transfer(_taxedEthereum);\r\n        ERC20(seeleTokenAddress).transfer(_customerAddress, _taxedSeele);\r\n\r\n        // fire event\r\n        emit onTokenArbitrage(_customerAddress, _tokens, _taxedSeele);\r\n    }\r\n}",
  "sourcePath": "D:\\work\\truffle\\s3d\\contracts\\SeeleDealer.sol",
  "compiler": {
    "name": "solc",
    "version": "0.4.24+commit.e67f0147.Emscripten.clang"
  },
  "schemaVersion": "2.0.1",
  "updatedAt": "2018-08-16T11:34:05.630Z"
}