{
  "contractName": "TokenTimelock",
  "abi": [
    {
      "inputs": [
        {
          "name": "_token",
          "type": "address"
        },
        {
          "name": "_beneficiary",
          "type": "address"
        },
        {
          "name": "_releaseTime",
          "type": "uint256"
        }
      ],
      "payable": false,
      "stateMutability": "nonpayable",
      "type": "constructor"
    },
    {
      "constant": false,
      "inputs": [],
      "name": "claim",
      "outputs": [],
      "payable": false,
      "stateMutability": "nonpayable",
      "type": "function"
    }
  ],
  "bytecode": "0x608060405234801561001057600080fd5b506040516060806103f0833981018060405281019080805190602001909291908051906020019092919080519060200190929190505050428111151561005557600080fd5b826000806101000a81548173ffffffffffffffffffffffffffffffffffffffff021916908373ffffffffffffffffffffffffffffffffffffffff16021790555081600160006101000a81548173ffffffffffffffffffffffffffffffffffffffff021916908373ffffffffffffffffffffffffffffffffffffffff16021790555080600281905550505050610301806100ef6000396000f300608060405260043610610041576000357c0100000000000000000000000000000000000000000000000000000000900463ffffffff1680634e71d92d14610046575b600080fd5b34801561005257600080fd5b5061005b61005d565b005b6000600160009054906101000a900473ffffffffffffffffffffffffffffffffffffffff1673ffffffffffffffffffffffffffffffffffffffff163373ffffffffffffffffffffffffffffffffffffffff161415156100bb57600080fd5b60025442101515156100cc57600080fd5b6000809054906101000a900473ffffffffffffffffffffffffffffffffffffffff1673ffffffffffffffffffffffffffffffffffffffff166370a08231306040518263ffffffff167c0100000000000000000000000000000000000000000000000000000000028152600401808273ffffffffffffffffffffffffffffffffffffffff1673ffffffffffffffffffffffffffffffffffffffff168152602001915050602060405180830381600087803b15801561018857600080fd5b505af115801561019c573d6000803e3d6000fd5b505050506040513d60208110156101b257600080fd5b810190808051906020019092919050505090506000811115156101d457600080fd5b6000809054906101000a900473ffffffffffffffffffffffffffffffffffffffff1673ffffffffffffffffffffffffffffffffffffffff1663a9059cbb600160009054906101000a900473ffffffffffffffffffffffffffffffffffffffff16836040518363ffffffff167c0100000000000000000000000000000000000000000000000000000000028152600401808373ffffffffffffffffffffffffffffffffffffffff1673ffffffffffffffffffffffffffffffffffffffff16815260200182815260200192505050600060405180830381600087803b1580156102ba57600080fd5b505af11580156102ce573d6000803e3d6000fd5b50505050505600a165627a7a72305820bcaf62771f7f93a899e78bdc65e0d90b10144a6ac8e7087d34189e22917546140029",
  "source": "pragma solidity ^0.4.21;\r\n\r\n\r\n/**\r\n * Math operations with safety checks\r\n */\r\nlibrary SafeMath {\r\n  function mul(uint a, uint b) pure internal returns (uint) {\r\n    uint c = a * b;\r\n    assert(a == 0 || c / a == b);\r\n    return c;\r\n  }\r\n\r\n  function div(uint a, uint b) pure internal returns (uint) {\r\n    // assert(b > 0); // Solidity automatically throws when dividing by 0\r\n    uint c = a / b;\r\n    // assert(a == b * c + a % b); // There is no case in which this doesn't hold\r\n    return c;\r\n  }\r\n\r\n  function sub(uint a, uint b) pure internal returns (uint) {\r\n    assert(b <= a);\r\n    return a - b;\r\n  }\r\n\r\n  function add(uint a, uint b) pure internal returns (uint) {\r\n    uint c = a + b;\r\n    assert(c >= a);\r\n    return c;\r\n  }\r\n\r\n  function max64(uint64 a, uint64 b) pure internal  returns (uint64) {\r\n    return a >= b ? a : b;\r\n  }\r\n\r\n  function min64(uint64 a, uint64 b) internal pure returns (uint64) {\r\n    return a < b ? a : b;\r\n  }\r\n\r\n  function max256(uint256 a, uint256 b) internal pure returns (uint256) {\r\n    return a >= b ? a : b;\r\n  }\r\n\r\n  function min256(uint256 a, uint256 b) internal pure returns (uint256) {\r\n    return a < b ? a : b;\r\n  }\r\n\r\n}\r\n\r\n\r\n/**\r\n * @title ERC20Basic\r\n * @dev Simpler version of ERC20 interface\r\n * @dev see https://github.com/ethereum/EIPs/issues/20\r\n */\r\ncontract ERC20Basic {\r\n  uint public totalSupply;\r\n  function balanceOf(address who) public constant returns (uint);\r\n  function transfer(address to, uint value) public;\r\n  event Transfer(address indexed from, address indexed to, uint value);\r\n}\r\n\r\n\r\n/**\r\n * @title Basic token\r\n * @dev Basic version of StandardToken, with no allowances.\r\n */\r\ncontract BasicToken is ERC20Basic {\r\n  using SafeMath for uint;\r\n\r\n  mapping(address => uint) balances;\r\n\r\n  /**\r\n   * @dev Fix for the ERC20 short address attack.\r\n   */\r\n  modifier onlyPayloadSize(uint size) {\r\n     if(msg.data.length < size + 4) {\r\n       revert();\r\n     }\r\n     _;\r\n  }\r\n\r\n  /**\r\n  * @dev transfer token for a specified address\r\n  * @param _to The address to transfer to.\r\n  * @param _value The amount to be transferred.\r\n  */\r\n  function transfer(address _to, uint _value) public {\r\n    balances[msg.sender] = balances[msg.sender].sub(_value);\r\n    balances[_to] = balances[_to].add(_value);\r\n    emit Transfer(msg.sender, _to, _value);\r\n  }\r\n\r\n  /**\r\n  * @dev Gets the balance of the specified address.\r\n  * @param _owner The address to query the the balance of.\r\n  * @return An uint representing the amount owned by the passed address.\r\n  */\r\n  function balanceOf(address _owner) public constant returns (uint balance) {\r\n    return balances[_owner];\r\n  }\r\n\r\n}\r\n\r\n\r\n/**\r\n * @title ERC20 interface\r\n * @dev see https://github.com/ethereum/EIPs/issues/20\r\n */\r\ncontract ERC20 is ERC20Basic {\r\n  function allowance(address owner, address spender) public constant returns (uint);\r\n  function transferFrom(address from, address to, uint value) public;\r\n  function approve(address spender, uint value) public;\r\n  event Approval(address indexed owner, address indexed spender, uint value);\r\n}\r\n\r\n\r\n/**\r\n * @title Standard ERC20 token\r\n *\r\n * @dev Implemantation of the basic standart token.\r\n * @dev https://github.com/ethereum/EIPs/issues/20\r\n * @dev Based on code by FirstBlood: https://github.com/Firstbloodio/token/blob/master/smart_contract/FirstBloodToken.sol\r\n */\r\ncontract StandardToken is BasicToken, ERC20 {\r\n\r\n  mapping (address => mapping (address => uint)) allowed;\r\n\r\n\r\n  /**\r\n   * @dev Transfer tokens from one address to another\r\n   * @param _from address The address which you want to send tokens from\r\n   * @param _to address The address which you want to transfer to\r\n   * @param _value uint the amout of tokens to be transfered\r\n   */\r\n  function transferFrom(address _from, address _to, uint _value) public {\r\n    uint _allowance = allowed[_from][msg.sender];\r\n\r\n    // Check is not needed because sub(_allowance, _value) will already throw if this condition is not met\r\n    // if (_value > _allowance) throw;\r\n\r\n    balances[_to] = balances[_to].add(_value);\r\n    balances[_from] = balances[_from].sub(_value);\r\n    allowed[_from][msg.sender] = _allowance.sub(_value);\r\n    emit Transfer(_from, _to, _value);\r\n  }\r\n\r\n  /**\r\n   * @dev Aprove the passed address to spend the specified amount of tokens on beahlf of msg.sender.\r\n   * @param _spender The address which will spend the funds.\r\n   * @param _value The amount of tokens to be spent.\r\n   */\r\n  function approve(address _spender, uint _value) public{\r\n\r\n    // To change the approve amount you first have to reduce the addresses`\r\n    //  allowance to zero by calling `approve(_spender, 0)` if it is not\r\n    //  already 0 to mitigate the race condition described here:\r\n    //  https://github.com/ethereum/EIPs/issues/20#issuecomment-263524729\r\n    //if ((_value != 0) && (allowed[msg.sender][_spender] != 0)) revert();\r\n\r\n    allowed[msg.sender][_spender] = _value;\r\n    emit Approval(msg.sender, _spender, _value);\r\n  }\r\n\r\n  /**\r\n   * @dev Function to check the amount of tokens than an owner allowed to a spender.\r\n   * @param _owner address The address which owns the funds.\r\n   * @param _spender address The address which will spend the funds.\r\n   * @return A uint specifing the amount of tokens still avaible for the spender.\r\n   */\r\n  function allowance(address _owner, address _spender) public constant returns (uint remaining) {\r\n    return allowed[_owner][_spender];\r\n  }\r\n\r\n}\r\n\r\n\r\n/**\r\n * @title Ownable\r\n * @dev The Ownable contract has an owner address, and provides basic authorization control\r\n * functions, this simplifies the implementation of \"user permissions\".\r\n */\r\ncontract Ownable {\r\n  address public owner;\r\n\r\n\r\n  /**\r\n   * @dev The Ownable constructor sets the original `owner` of the contract to the sender\r\n   * account.\r\n   */\r\n  constructor() public{\r\n    owner = msg.sender;\r\n  }\r\n\r\n\r\n  /**\r\n   * @dev Throws if called by any account other than the owner.\r\n   */\r\n  modifier onlyOwner() {\r\n    if (msg.sender != owner) {\r\n      revert();\r\n    }\r\n    _;\r\n  }\r\n\r\n\r\n  /**\r\n   * @dev Allows the current owner to transfer control of the contract to a newOwner.\r\n   * @param newOwner The address to transfer ownership to.\r\n   */\r\n  function transferOwnership(address newOwner) onlyOwner public{\r\n    if (newOwner != address(0)) {\r\n      owner = newOwner;\r\n    }\r\n  }\r\n\r\n}\r\n\r\n\r\n/**\r\n * @title Mintable token\r\n * @dev Simple ERC20 Token example, with mintable token creation\r\n * @dev Issue: * https://github.com/OpenZeppelin/zeppelin-solidity/issues/120\r\n * Based on code by TokenMarketNet: https://github.com/TokenMarketNet/ico/blob/master/contracts/MintableToken.sol\r\n */\r\n\r\ncontract MintableToken is StandardToken, Ownable {\r\n  event Mint(address indexed to, uint value);\r\n  event MintFinished();\r\n\r\n  bool public mintingFinished = false;\r\n  uint public totalSupply = 0;\r\n\r\n\r\n  modifier canMint() {\r\n    if(mintingFinished) revert();\r\n    _;\r\n  }\r\n\r\n  /**\r\n   * @dev Function to mint tokens\r\n   * @param _to The address that will recieve the minted tokens.\r\n   * @param _amount The amount of tokens to mint.\r\n   * @return A boolean that indicates if the operation was successful.\r\n   */\r\n  function mint(address _to, uint _amount) onlyOwner canMint public returns (bool) {\r\n    totalSupply = totalSupply.add(_amount);\r\n    balances[_to] = balances[_to].add(_amount);\r\n    emit Mint(_to, _amount);\r\n    return true;\r\n  }\r\n\r\n  /**\r\n   * @dev Function to stop minting new tokens.\r\n   * @return True if the operation was successful.\r\n   */\r\n  function finishMinting() onlyOwner public returns (bool) {\r\n    mintingFinished = true;\r\n    emit MintFinished();\r\n    return true;\r\n  }\r\n}\r\n\r\n\r\n/**\r\n * @title Pausable\r\n * @dev Base contract which allows children to implement an emergency stop mechanism.\r\n */\r\ncontract Pausable is Ownable {\r\n  event Pause();\r\n  event Unpause();\r\n\r\n  bool public paused = false;\r\n\r\n\r\n  /**\r\n   * @dev modifier to allow actions only when the contract IS paused\r\n   */\r\n  modifier whenNotPaused() {\r\n    if (paused) revert();\r\n    _;\r\n  }\r\n\r\n  /**\r\n   * @dev modifier to allow actions only when the contract IS NOT paused\r\n   */\r\n  modifier whenPaused {\r\n    if (!paused) revert();\r\n    _;\r\n  }\r\n\r\n  /**\r\n   * @dev called by the owner to pause, triggers stopped state\r\n   */\r\n  function pause() onlyOwner whenNotPaused public returns (bool) {\r\n    paused = true;\r\n    emit Pause();\r\n    return true;\r\n  }\r\n\r\n  /**\r\n   * @dev called by the owner to unpause, returns to normal state\r\n   */\r\n  function unpause() onlyOwner whenPaused public returns (bool) {\r\n    paused = false;\r\n    emit Unpause();\r\n    return true;\r\n  }\r\n}\r\n\r\n\r\n/**\r\n * Pausable token\r\n *\r\n * Simple ERC20 Token example, with pausable token creation\r\n **/\r\n\r\ncontract PausableToken is StandardToken, Pausable {\r\n\r\n  function transfer(address _to, uint _value) public whenNotPaused {\r\n    super.transfer(_to, _value);\r\n  }\r\n\r\n  function transferFrom(address _from, address _to, uint _value) public  whenNotPaused {\r\n    super.transferFrom(_from, _to, _value);\r\n  }\r\n}\r\n\r\n\r\n/**\r\n * @title TokenTimelock\r\n * @dev TokenTimelock is a token holder contract that will allow a\r\n * beneficiary to extract the tokens after a time has passed\r\n */\r\ncontract TokenTimelock {\r\n\r\n  // ERC20 basic token contract being held\r\n  ERC20Basic token;\r\n\r\n  // beneficiary of tokens after they are released\r\n  address beneficiary;\r\n\r\n  // timestamp where token release is enabled\r\n  uint releaseTime;\r\n\r\n  constructor(ERC20Basic _token, address _beneficiary, uint _releaseTime) public{\r\n    require(_releaseTime > now);\r\n    token = _token;\r\n    beneficiary = _beneficiary;\r\n    releaseTime = _releaseTime;\r\n  }\r\n\r\n  /**\r\n   * @dev beneficiary claims tokens held by time lock\r\n   */\r\n  function claim() public{\r\n    require(msg.sender == beneficiary);\r\n    require(now >= releaseTime);\r\n\r\n    uint amount = token.balanceOf(this);\r\n    require(amount > 0);\r\n\r\n    token.transfer(beneficiary, amount);\r\n  }\r\n}\r\n\r\n\r\n/**\r\n * @title OMGToken\r\n * @dev Omise Go Token contract\r\n */\r\ncontract OMGToken is PausableToken, MintableToken {\r\n  using SafeMath for uint256;\r\n\r\n  string public name = \"OMGToken\";\r\n  string public symbol = \"OMG\";\r\n  uint public decimals = 18;\r\n\r\n  /**\r\n   * @dev mint timelocked tokens\r\n   */\r\n  function mintTimelocked(address _to, uint256 _amount, uint256 _releaseTime)\r\n    onlyOwner canMint public returns (TokenTimelock) {\r\n\r\n    TokenTimelock timelock = new TokenTimelock(this, _to, _releaseTime);\r\n    mint(timelock, _amount);\r\n\r\n    return timelock;\r\n  }\r\n\r\n}",
  "sourcePath": "D:\\work\\truffle\\s3d\\contracts\\OMGToken.sol",
  "compiler": {
    "name": "solc",
    "version": "0.4.24+commit.e67f0147.Emscripten.clang"
  },
  "schemaVersion": "2.0.1",
  "updatedAt": "2018-08-25T10:56:24.591Z"
}