{
  "contractName": "TokenDealerMapping",
  "abi": [
    {
      "constant": false,
      "inputs": [
        {
          "name": "self",
          "type": "TokenDealerMapping.itmap storage"
        },
        {
          "name": "key",
          "type": "string"
        },
        {
          "name": "value",
          "type": "address"
        }
      ],
      "name": "insert",
      "outputs": [
        {
          "name": "replaced",
          "type": "bool"
        }
      ],
      "payable": false,
      "stateMutability": "nonpayable",
      "type": "function"
    },
    {
      "constant": false,
      "inputs": [
        {
          "name": "self",
          "type": "TokenDealerMapping.itmap storage"
        },
        {
          "name": "key",
          "type": "string"
        }
      ],
      "name": "remove",
      "outputs": [
        {
          "name": "success",
          "type": "bool"
        }
      ],
      "payable": false,
      "stateMutability": "nonpayable",
      "type": "function"
    },
    {
      "constant": false,
      "inputs": [
        {
          "name": "self",
          "type": "TokenDealerMapping.itmap storage"
        },
        {
          "name": "key",
          "type": "string"
        }
      ],
      "name": "contains",
      "outputs": [
        {
          "name": "",
          "type": "bool"
        }
      ],
      "payable": false,
      "stateMutability": "nonpayable",
      "type": "function"
    },
    {
      "constant": false,
      "inputs": [
        {
          "name": "self",
          "type": "TokenDealerMapping.itmap storage"
        }
      ],
      "name": "iterate_start",
      "outputs": [
        {
          "name": "keyIndex",
          "type": "uint256"
        }
      ],
      "payable": false,
      "stateMutability": "nonpayable",
      "type": "function"
    },
    {
      "constant": false,
      "inputs": [
        {
          "name": "self",
          "type": "TokenDealerMapping.itmap storage"
        },
        {
          "name": "keyIndex",
          "type": "uint256"
        }
      ],
      "name": "iterate_valid",
      "outputs": [
        {
          "name": "",
          "type": "bool"
        }
      ],
      "payable": false,
      "stateMutability": "nonpayable",
      "type": "function"
    },
    {
      "constant": false,
      "inputs": [
        {
          "name": "self",
          "type": "TokenDealerMapping.itmap storage"
        },
        {
          "name": "keyIndex",
          "type": "uint256"
        }
      ],
      "name": "iterate_next",
      "outputs": [
        {
          "name": "r_keyIndex",
          "type": "uint256"
        }
      ],
      "payable": false,
      "stateMutability": "nonpayable",
      "type": "function"
    },
    {
      "constant": false,
      "inputs": [
        {
          "name": "self",
          "type": "TokenDealerMapping.itmap storage"
        },
        {
          "name": "keyIndex",
          "type": "uint256"
        }
      ],
      "name": "iterate_get",
      "outputs": [
        {
          "name": "key",
          "type": "string"
        },
        {
          "name": "value",
          "type": "address"
        }
      ],
      "payable": false,
      "stateMutability": "nonpayable",
      "type": "function"
    }
  ],
  "bytecode": "0x610bd4610030600b82828239805160001a6073146000811461002057610022565bfe5b5030600052607381538281f300730000000000000000000000000000000000000000301460806040526004361061009a576000357c0100000000000000000000000000000000000000000000000000000000900463ffffffff168063187ec9311461009f5780632dc131b21461012a5780634a84c3991461016b5780634ca10147146101b6578063c6ae820814610205578063d3a54b0a146102e8578063da0cf73f14610393575b600080fd5b8180156100ab57600080fd5b5061011060048036038101908080359060200190929190803590602001908201803590602001908080601f016020809104026020016040519081016040528093929190818152602001838380828437820191505050505050919291929050505061041e565b604051808215151515815260200191505060405180910390f35b81801561013657600080fd5b506101556004803603810190808035906020019092919050505061049b565b6040518082815260200191505060405180910390f35b81801561017757600080fd5b506101a060048036038101908080359060200190929190803590602001909291905050506104ce565b6040518082815260200191505060405180910390f35b8180156101c257600080fd5b506101eb6004803603810190808035906020019092919080359060200190929190505050610536565b604051808215151515815260200191505060405180910390f35b81801561021157600080fd5b5061023a600480360381019080803590602001909291908035906020019092919050505061054a565b60405180806020018373ffffffffffffffffffffffffffffffffffffffff1673ffffffffffffffffffffffffffffffffffffffff168152602001828103825284818151815260200191508051906020019080838360005b838110156102ac578082015181840152602081019050610291565b50505050905090810190601f1680156102d95780820380516001836020036101000a031916815260200191505b50935050505060405180910390f35b8180156102f457600080fd5b5061037960048036038101908080359060200190929190803590602001908201803590602001908080601f0160208091040260200160405190810160405280939291908181526020018383808284378201915050505050509192919290803573ffffffffffffffffffffffffffffffffffffffff1690602001909291905050506106a5565b604051808215151515815260200191505060405180910390f35b81801561039f57600080fd5b5061040460048036038101908080359060200190929190803590602001908201803590602001908080601f01602080910402602001604051908101604052809392919081815260200183838082843782019150505050505091929192905050506108c4565b604051808215151515815260200191505060405180910390f35b60008083600001836040518082805190602001908083835b60208310151561045b5780518252602082019150602081019050602083039250610436565b6001836020036101000a03801982511681845116808217855250505050505090500191505090815260200160405180910390206000015411905092915050565b60006104c7827fffffffffffffffffffffffffffffffffffffffffffffffffffffffffffffffff6104ce565b9050919050565b600081806001019250505b82600101805490508210801561051b575082600101828154811015156104fb57fe5b906000526020600020906002020160010160009054906101000a900460ff165b1561052d5781806001019250506104d9565b81905092915050565b600082600101805490508210905092915050565b60606000836001018381548110151561055f57fe5b90600052602060002090600202016000018054600181600116156101000203166002900480601f0160208091040260200160405190810160405280929190818152602001828054600181600116156101000203166002900480156106045780601f106105d957610100808354040283529160200191610604565b820191906000526020600020905b8154815290600101906020018083116105e757829003601f168201915b5050505050915083600001826040518082805190602001908083835b6020831015156106455780518252602082019150602081019050602083039250610620565b6001836020036101000a038019825116818451168082178552505050505050905001915050908152602001604051809103902060010160009054906101000a900473ffffffffffffffffffffffffffffffffffffffff1690509250929050565b60008084600001846040518082805190602001908083835b6020831015156106e257805182526020820191506020810190506020830392506106bd565b6001836020036101000a03801982511681845116808217855250505050505090500191505090815260200160405180910390206000015490508285600001856040518082805190602001908083835b6020831015156107565780518252602082019150602081019050602083039250610731565b6001836020036101000a038019825116818451168082178552505050505050905001915050908152602001604051809103902060010160006101000a81548173ffffffffffffffffffffffffffffffffffffffff021916908373ffffffffffffffffffffffffffffffffffffffff16021790555060008111156107dc57600191506108bc565b8460010180548091906001016107f29190610a46565b90506001810185600001856040518082805190602001908083835b602083101515610832578051825260208201915060208101905060208303925061080d565b6001836020036101000a03801982511681845116808217855250505050505090500191505090815260200160405180910390206000018190555083856001018281548110151561087e57fe5b906000526020600020906002020160000190805190602001906108a2929190610a78565b508460020160008154809291906001019190505550600091505b509392505050565b60008083600001836040518082805190602001908083835b60208310151561090157805182526020820191506020810190506020830392506108dc565b6001836020036101000a0380198251168184511680821785525050505050509050019150509081526020016040518091039020600001549050600081141561094c5760009150610a3f565b83600001836040518082805190602001908083835b6020831015156109865780518252602082019150602081019050602083039250610961565b6001836020036101000a03801982511681845116808217855250505050505090500191505090815260200160405180910390206000808201600090556001820160006101000a81549073ffffffffffffffffffffffffffffffffffffffff0219169055505060018460010160018303815481101515610a0157fe5b906000526020600020906002020160010160006101000a81548160ff0219169083151502179055508360020160008154809291906001900391905055505b5092915050565b815481835581811115610a7357600202816002028360005260206000209182019101610a729190610af8565b5b505050565b828054600181600116156101000203166002900490600052602060002090601f016020900481019282601f10610ab957805160ff1916838001178555610ae7565b82800160010185558215610ae7579182015b82811115610ae6578251825591602001919060010190610acb565b5b509050610af49190610b3b565b5090565b610b3891905b80821115610b345760008082016000610b179190610b60565b6001820160006101000a81549060ff021916905550600201610afe565b5090565b90565b610b5d91905b80821115610b59576000816000905550600101610b41565b5090565b90565b50805460018160011615610100020316600290046000825580601f10610b865750610ba5565b601f016020900490600052602060002090810190610ba49190610b3b565b5b505600a165627a7a723058200d7603bed32927fec606ceed9d320fb9cab84e86c42868ed056042385cf2ec750029",
  "source": "pragma solidity ^0.4.21;\r\n\r\n/// @dev Models a uint -> uint mapping where it is possible to iterate over all keys.\r\nlibrary TokenDealerMapping\r\n{\r\n    struct KeyFlag \r\n    { \r\n        string key;\r\n        bool deleted; \r\n    }\r\n\r\n    struct IndexValue \r\n    { \r\n        uint keyIndex; \r\n        address value; \r\n    }\r\n\r\n    struct itmap\r\n    {\r\n        mapping(string => IndexValue) data;\r\n        KeyFlag[] keys;\r\n        uint size;\r\n    }\r\n\r\n    function insert(itmap storage self, string key, address value) returns (bool replaced)\r\n    {\r\n        uint keyIndex = self.data[key].keyIndex;\r\n        self.data[key].value = value;\r\n        if (keyIndex > 0)\r\n            return true;\r\n        else\r\n        {\r\n            keyIndex = self.keys.length++;\r\n            self.data[key].keyIndex = keyIndex + 1;\r\n            self.keys[keyIndex].key = key;\r\n            self.size++;\r\n            return false;\r\n        }\r\n    }\r\n\r\n    function remove(itmap storage self, string key) returns (bool success)\r\n    {\r\n        uint keyIndex = self.data[key].keyIndex;\r\n        if (keyIndex == 0)\r\n            return false;\r\n        delete self.data[key];\r\n        self.keys[keyIndex - 1].deleted = true;\r\n        self.size --;\r\n    }\r\n\r\n    function contains(itmap storage self, string key) returns (bool)\r\n    {\r\n        return self.data[key].keyIndex > 0;\r\n    }\r\n\r\n    function iterate_start(itmap storage self) returns (uint keyIndex)\r\n    {\r\n        return iterate_next(self, uint(-1));\r\n    }\r\n\r\n    function iterate_valid(itmap storage self, uint keyIndex) returns (bool)\r\n    {\r\n        return keyIndex < self.keys.length;\r\n    }\r\n\r\n    function iterate_next(itmap storage self, uint keyIndex) returns (uint r_keyIndex)\r\n    {\r\n        keyIndex++;\r\n        while (keyIndex < self.keys.length && self.keys[keyIndex].deleted)\r\n            keyIndex++;\r\n        return keyIndex;\r\n    }\r\n\r\n    function iterate_get(itmap storage self, uint keyIndex) returns (string key, address value)\r\n    {\r\n        key = self.keys[keyIndex].key;\r\n        value = self.data[key].value;\r\n    }\r\n}\r\n",
  "sourcePath": "D:\\work\\truffle\\s3d\\contracts\\library\\TokenDealerMapping.sol",
  "compiler": {
    "name": "solc",
    "version": "0.4.24+commit.e67f0147.Emscripten.clang"
  },
  "schemaVersion": "2.0.1",
  "updatedAt": "2018-08-17T07:36:01.731Z"
}