{
  "contractName": "TokenRegistryImpl",
  "abi": [
    {
      "constant": false,
      "inputs": [],
      "name": "claimOwnership",
      "outputs": [],
      "payable": false,
      "stateMutability": "nonpayable",
      "type": "function"
    },
    {
      "constant": false,
      "inputs": [],
      "name": "renounceOwnership",
      "outputs": [],
      "payable": false,
      "stateMutability": "nonpayable",
      "type": "function"
    },
    {
      "constant": true,
      "inputs": [],
      "name": "owner",
      "outputs": [
        {
          "name": "",
          "type": "address"
        }
      ],
      "payable": false,
      "stateMutability": "view",
      "type": "function"
    },
    {
      "constant": true,
      "inputs": [],
      "name": "pendingOwner",
      "outputs": [
        {
          "name": "",
          "type": "address"
        }
      ],
      "payable": false,
      "stateMutability": "view",
      "type": "function"
    },
    {
      "constant": true,
      "inputs": [
        {
          "name": "",
          "type": "uint256"
        }
      ],
      "name": "addresses",
      "outputs": [
        {
          "name": "",
          "type": "address"
        }
      ],
      "payable": false,
      "stateMutability": "view",
      "type": "function"
    },
    {
      "constant": false,
      "inputs": [
        {
          "name": "newOwner",
          "type": "address"
        }
      ],
      "name": "transferOwnership",
      "outputs": [],
      "payable": false,
      "stateMutability": "nonpayable",
      "type": "function"
    },
    {
      "payable": true,
      "stateMutability": "payable",
      "type": "fallback"
    },
    {
      "anonymous": false,
      "inputs": [
        {
          "indexed": true,
          "name": "addr",
          "type": "address"
        },
        {
          "indexed": false,
          "name": "symbol",
          "type": "string"
        }
      ],
      "name": "TokenRegistered",
      "type": "event"
    },
    {
      "anonymous": false,
      "inputs": [
        {
          "indexed": true,
          "name": "addr",
          "type": "address"
        },
        {
          "indexed": false,
          "name": "symbol",
          "type": "string"
        }
      ],
      "name": "TokenUnregistered",
      "type": "event"
    },
    {
      "anonymous": false,
      "inputs": [
        {
          "indexed": true,
          "name": "previousOwner",
          "type": "address"
        }
      ],
      "name": "OwnershipRenounced",
      "type": "event"
    },
    {
      "anonymous": false,
      "inputs": [
        {
          "indexed": true,
          "name": "previousOwner",
          "type": "address"
        },
        {
          "indexed": true,
          "name": "newOwner",
          "type": "address"
        }
      ],
      "name": "OwnershipTransferred",
      "type": "event"
    },
    {
      "constant": false,
      "inputs": [
        {
          "name": "addr",
          "type": "address"
        },
        {
          "name": "symbol",
          "type": "string"
        }
      ],
      "name": "registerToken",
      "outputs": [],
      "payable": false,
      "stateMutability": "nonpayable",
      "type": "function"
    },
    {
      "constant": false,
      "inputs": [
        {
          "name": "addr",
          "type": "address"
        },
        {
          "name": "symbol",
          "type": "string"
        }
      ],
      "name": "unregisterToken",
      "outputs": [],
      "payable": false,
      "stateMutability": "nonpayable",
      "type": "function"
    },
    {
      "constant": true,
      "inputs": [
        {
          "name": "symbol",
          "type": "string"
        }
      ],
      "name": "getAddressBySymbol",
      "outputs": [
        {
          "name": "",
          "type": "address"
        }
      ],
      "payable": false,
      "stateMutability": "view",
      "type": "function"
    },
    {
      "constant": true,
      "inputs": [
        {
          "name": "symbol",
          "type": "string"
        }
      ],
      "name": "isTokenRegisteredBySymbol",
      "outputs": [
        {
          "name": "",
          "type": "bool"
        }
      ],
      "payable": false,
      "stateMutability": "view",
      "type": "function"
    },
    {
      "constant": true,
      "inputs": [
        {
          "name": "addr",
          "type": "address"
        }
      ],
      "name": "isTokenRegistered",
      "outputs": [
        {
          "name": "",
          "type": "bool"
        }
      ],
      "payable": false,
      "stateMutability": "view",
      "type": "function"
    },
    {
      "constant": true,
      "inputs": [
        {
          "name": "start",
          "type": "uint256"
        },
        {
          "name": "count",
          "type": "uint256"
        }
      ],
      "name": "getTokens",
      "outputs": [
        {
          "name": "addressList",
          "type": "address[]"
        }
      ],
      "payable": false,
      "stateMutability": "view",
      "type": "function"
    }
  ],
  "bytecode": "0x6080604052336000806101000a81548173ffffffffffffffffffffffffffffffffffffffff021916908373ffffffffffffffffffffffffffffffffffffffff160217905550611402806100536000396000f3006080604052600436106100ba576000357c0100000000000000000000000000000000000000000000000000000000900463ffffffff1680630b03ad11146100bf5780631605dd611461011a57806326aa101f14610195578063494cfc6c146101f05780634e71e0c81461027c578063715018a6146102935780638da5cb5b146102aa578063d4fbeb1914610301578063e30c39781461035c578063edf26d9b146103b3578063f2fde38b14610420578063fcd4580714610463575b600080fd5b3480156100cb57600080fd5b50610118600480360381019080803573ffffffffffffffffffffffffffffffffffffffff1690602001909291908035906020019082018035906020019190919293919293905050506104e4565b005b34801561012657600080fd5b5061015360048036038101908080359060200190820180359060200191909192939192939050505061087f565b604051808273ffffffffffffffffffffffffffffffffffffffff1673ffffffffffffffffffffffffffffffffffffffff16815260200191505060405180910390f35b3480156101a157600080fd5b506101d6600480360381019080803573ffffffffffffffffffffffffffffffffffffffff1690602001909291905050506108cf565b604051808215151515815260200191505060405180910390f35b3480156101fc57600080fd5b50610225600480360381019080803590602001909291908035906020019092919050505061091e565b6040518080602001828103825283818151815260200191508051906020019060200280838360005b8381101561026857808201518184015260208101905061024d565b505050509050019250505060405180910390f35b34801561028857600080fd5b50610291610a29565b005b34801561029f57600080fd5b506102a8610bc8565b005b3480156102b657600080fd5b506102bf610cca565b604051808273ffffffffffffffffffffffffffffffffffffffff1673ffffffffffffffffffffffffffffffffffffffff16815260200191505060405180910390f35b34801561030d57600080fd5b5061035a600480360381019080803573ffffffffffffffffffffffffffffffffffffffff169060200190929190803590602001908201803590602001919091929391929390505050610cef565b005b34801561036857600080fd5b50610371610d8b565b604051808273ffffffffffffffffffffffffffffffffffffffff1673ffffffffffffffffffffffffffffffffffffffff16815260200191505060405180910390f35b3480156103bf57600080fd5b506103de60048036038101908080359060200190929190505050610db1565b604051808273ffffffffffffffffffffffffffffffffffffffff1673ffffffffffffffffffffffffffffffffffffffff16815260200191505060405180910390f35b34801561042c57600080fd5b50610461600480360381019080803573ffffffffffffffffffffffffffffffffffffffff169060200190929190505050610def565b005b34801561046f57600080fd5b506104ca600480360381019080803590602001908201803590602001908080601f0160208091040260200160405190810160405280939291908181526020018383808284378201915050505050509192919290505050610e8e565b604051808215151515815260200191505060405180910390f35b6000806000809054906101000a900473ffffffffffffffffffffffffffffffffffffffff1673ffffffffffffffffffffffffffffffffffffffff163373ffffffffffffffffffffffffffffffffffffffff1614151561054257600080fd5b60008573ffffffffffffffffffffffffffffffffffffffff161415151561056857600080fd5b8473ffffffffffffffffffffffffffffffffffffffff166004858560405180838380828437820191505092505050908152602001604051809103902060009054906101000a900473ffffffffffffffffffffffffffffffffffffffff1673ffffffffffffffffffffffffffffffffffffffff161415156105e757600080fd5b6004848460405180838380828437820191505092505050908152602001604051809103902060006101000a81549073ffffffffffffffffffffffffffffffffffffffff0219169055600360008673ffffffffffffffffffffffffffffffffffffffff1673ffffffffffffffffffffffffffffffffffffffff1681526020019081526020016000206000015491506000821415151561068457600080fd5b600360008673ffffffffffffffffffffffffffffffffffffffff1673ffffffffffffffffffffffffffffffffffffffff1681526020019081526020016000206000808201600090556001820160006106dc91906112bd565b505060026001600280549050038154811015156106f557fe5b9060005260206000200160009054906101000a900473ffffffffffffffffffffffffffffffffffffffff1690508073ffffffffffffffffffffffffffffffffffffffff168573ffffffffffffffffffffffffffffffffffffffff161415156107fa578060026001840381548110151561076a57fe5b9060005260206000200160006101000a81548173ffffffffffffffffffffffffffffffffffffffff021916908373ffffffffffffffffffffffffffffffffffffffff16021790555081600360008373ffffffffffffffffffffffffffffffffffffffff1673ffffffffffffffffffffffffffffffffffffffff168152602001908152602001600020600001819055505b600280548091906001900361080f9190611305565b508473ffffffffffffffffffffffffffffffffffffffff167fee98311a96660ce4ab10cd82053f767653901305ec8acf91ec60311de919e28a8585604051808060200182810382528484828181526020019250808284378201915050935050505060405180910390a25050505050565b60006004838360405180838380828437820191505092505050908152602001604051809103902060009054906101000a900473ffffffffffffffffffffffffffffffffffffffff16905092915050565b600080600360008473ffffffffffffffffffffffffffffffffffffffff1673ffffffffffffffffffffffffffffffffffffffff1681526020019081526020016000206000015414159050919050565b606060008060006002805490509250828610151561093b57610a20565b84860191508282111561094c578291505b85820360405190808252806020026020018201604052801561097d5781602001602082028038833980820191505090505b5093508590505b81811015610a1f5760028181548110151561099b57fe5b9060005260206000200160009054906101000a900473ffffffffffffffffffffffffffffffffffffffff16848783038151811015156109d657fe5b9060200190602002019073ffffffffffffffffffffffffffffffffffffffff16908173ffffffffffffffffffffffffffffffffffffffff16815250508080600101915050610984565b5b50505092915050565b600160009054906101000a900473ffffffffffffffffffffffffffffffffffffffff1673ffffffffffffffffffffffffffffffffffffffff163373ffffffffffffffffffffffffffffffffffffffff16141515610a8557600080fd5b600160009054906101000a900473ffffffffffffffffffffffffffffffffffffffff1673ffffffffffffffffffffffffffffffffffffffff166000809054906101000a900473ffffffffffffffffffffffffffffffffffffffff1673ffffffffffffffffffffffffffffffffffffffff167f8be0079c531659141344cd1fd0a4f28419497f9722a3daafe3b4186f6b6457e060405160405180910390a3600160009054906101000a900473ffffffffffffffffffffffffffffffffffffffff166000806101000a81548173ffffffffffffffffffffffffffffffffffffffff021916908373ffffffffffffffffffffffffffffffffffffffff1602179055506000600160006101000a81548173ffffffffffffffffffffffffffffffffffffffff021916908373ffffffffffffffffffffffffffffffffffffffff160217905550565b6000809054906101000a900473ffffffffffffffffffffffffffffffffffffffff1673ffffffffffffffffffffffffffffffffffffffff163373ffffffffffffffffffffffffffffffffffffffff16141515610c2357600080fd5b6000809054906101000a900473ffffffffffffffffffffffffffffffffffffffff1673ffffffffffffffffffffffffffffffffffffffff167ff8df31144d9c2f0f6b59d69b8b98abd5459d07f2742c4df920b25aae33c6482060405160405180910390a260008060006101000a81548173ffffffffffffffffffffffffffffffffffffffff021916908373ffffffffffffffffffffffffffffffffffffffff160217905550565b6000809054906101000a900473ffffffffffffffffffffffffffffffffffffffff1681565b6000809054906101000a900473ffffffffffffffffffffffffffffffffffffffff1673ffffffffffffffffffffffffffffffffffffffff163373ffffffffffffffffffffffffffffffffffffffff16141515610d4a57600080fd5b610d868383838080601f016020809104026020016040519081016040528093929190818152602001838380828437820191505050505050610f3c565b505050565b600160009054906101000a900473ffffffffffffffffffffffffffffffffffffffff1681565b600281815481101515610dc057fe5b906000526020600020016000915054906101000a900473ffffffffffffffffffffffffffffffffffffffff1681565b6000809054906101000a900473ffffffffffffffffffffffffffffffffffffffff1673ffffffffffffffffffffffffffffffffffffffff163373ffffffffffffffffffffffffffffffffffffffff16141515610e4a57600080fd5b80600160006101000a81548173ffffffffffffffffffffffffffffffffffffffff021916908373ffffffffffffffffffffffffffffffffffffffff16021790555050565b6000806004836040518082805190602001908083835b602083101515610ec95780518252602082019150602081019050602083039250610ea4565b6001836020036101000a038019825116818451168082178552505050505050905001915050908152602001604051809103902060009054906101000a900473ffffffffffffffffffffffffffffffffffffffff1673ffffffffffffffffffffffffffffffffffffffff1614159050919050565b8173ffffffffffffffffffffffffffffffffffffffff16600014151515610f6257600080fd5b60008151111515610f7257600080fd5b6004816040518082805190602001908083835b602083101515610faa5780518252602082019150602081019050602083039250610f85565b6001836020036101000a038019825116818451168082178552505050505050905001915050908152602001604051809103902060009054906101000a900473ffffffffffffffffffffffffffffffffffffffff1673ffffffffffffffffffffffffffffffffffffffff16600014151561102257600080fd5b600360008373ffffffffffffffffffffffffffffffffffffffff1673ffffffffffffffffffffffffffffffffffffffff16815260200190815260200160002060000154600014151561107357600080fd5b60028290806001815401808255809150509060018203906000526020600020016000909192909190916101000a81548173ffffffffffffffffffffffffffffffffffffffff021916908373ffffffffffffffffffffffffffffffffffffffff16021790555050816004826040518082805190602001908083835b60208310151561111257805182526020820191506020810190506020830392506110ed565b6001836020036101000a038019825116818451168082178552505050505050905001915050908152602001604051809103902060006101000a81548173ffffffffffffffffffffffffffffffffffffffff021916908373ffffffffffffffffffffffffffffffffffffffff1602179055506040805190810160405280600280549050815260200182815250600360008473ffffffffffffffffffffffffffffffffffffffff1673ffffffffffffffffffffffffffffffffffffffff168152602001908152602001600020600082015181600001556020820151816001019080519060200190611202929190611331565b509050508173ffffffffffffffffffffffffffffffffffffffff167faaed15520cc86e95b7c2522d968096283afbef7858bdf194b2f60d28a1a8d63e826040518080602001828103825283818151815260200191508051906020019080838360005b8381101561127f578082015181840152602081019050611264565b50505050905090810190601f1680156112ac5780820380516001836020036101000a031916815260200191505b509250505060405180910390a25050565b50805460018160011615610100020316600290046000825580601f106112e35750611302565b601f01602090049060005260206000209081019061130191906113b1565b5b50565b81548183558181111561132c5781836000526020600020918201910161132b91906113b1565b5b505050565b828054600181600116156101000203166002900490600052602060002090601f016020900481019282601f1061137257805160ff19168380011785556113a0565b828001600101855582156113a0579182015b8281111561139f578251825591602001919060010190611384565b5b5090506113ad91906113b1565b5090565b6113d391905b808211156113cf5760008160009055506001016113b7565b5090565b905600a165627a7a72305820860344621088635f178efeccbcf67a0097e464ff15f0b8f2dda0efb5cc12aa690029",
  "source": "pragma solidity ^0.4.24;\r\n\r\nimport \"zeppelin-solidity/contracts/ownership/Claimable.sol\";\r\nimport \"./library/AddressUtil.sol\";\r\n\r\ncontract TokenRegistryImpl is Claimable {\r\n    event TokenRegistered(\r\n        address indexed addr,\r\n        string          symbol\r\n    );\r\n\r\n    event TokenUnregistered(\r\n        address indexed addr,\r\n        string          symbol\r\n    );\r\n\r\n    using AddressUtil for address;\r\n    address[] public addresses;\r\n    mapping (address => TokenInfo) addressMap;\r\n    mapping (string => address) symbolMap;\r\n    struct TokenInfo {\r\n        uint   pos;      // 0 mens unregistered; if > 0, pos + 1 is the\r\n                         // token's position in `addresses`.\r\n        string symbol;   // Symbol of the token\r\n    }\r\n    /// @dev Disable default function.\r\n    function ()\r\n        payable\r\n        public\r\n    {\r\n        revert();\r\n    }\r\n    function registerToken(\r\n        address addr,\r\n        string  symbol\r\n        )\r\n        external\r\n        onlyOwner\r\n    {\r\n        registerTokenInternal(addr, symbol);\r\n    }\r\n    function unregisterToken(\r\n        address addr,\r\n        string  symbol\r\n        )\r\n        external\r\n        onlyOwner\r\n    {\r\n        require(addr != 0x0);\r\n        require(symbolMap[symbol] == addr);\r\n        delete symbolMap[symbol];\r\n        uint pos = addressMap[addr].pos;\r\n        require(pos != 0);\r\n        delete addressMap[addr];\r\n        // We will replace the token we need to unregister with the last token\r\n        // Only the pos of the last token will need to be updated\r\n        address lastToken = addresses[addresses.length - 1];\r\n        // Don't do anything if the last token is the one we want to delete\r\n        if (addr != lastToken) {\r\n            // Swap with the last token and update the pos\r\n            addresses[pos - 1] = lastToken;\r\n            addressMap[lastToken].pos = pos;\r\n        }\r\n        addresses.length--;\r\n        emit TokenUnregistered(addr, symbol);\r\n    }\r\n\r\n    function getAddressBySymbol(\r\n        string symbol\r\n        )\r\n        external\r\n        view\r\n        returns (address)\r\n    {\r\n        return symbolMap[symbol];\r\n    }\r\n    function isTokenRegisteredBySymbol(\r\n        string symbol\r\n        )\r\n        public\r\n        view\r\n        returns (bool)\r\n    {\r\n        return symbolMap[symbol] != 0x0;\r\n    }\r\n    function isTokenRegistered(\r\n        address addr\r\n        )\r\n        public\r\n        view\r\n        returns (bool)\r\n    {\r\n        return addressMap[addr].pos != 0;\r\n    }\r\n    function getTokens(\r\n        uint start,\r\n        uint count\r\n        )\r\n        public\r\n        view\r\n        returns (address[] addressList)\r\n    {\r\n        uint num = addresses.length;\r\n        if (start >= num) {\r\n            return;\r\n        }\r\n        uint end = start + count;\r\n        if (end > num) {\r\n            end = num;\r\n        }\r\n        addressList = new address[](end - start);\r\n        for (uint i = start; i < end; i++) {\r\n            addressList[i - start] = addresses[i];\r\n        }\r\n    }\r\n    function registerTokenInternal(\r\n        address addr,\r\n        string  symbol\r\n        )\r\n        internal\r\n    {\r\n        require(0x0 != addr);\r\n        require(bytes(symbol).length > 0);\r\n        require(0x0 == symbolMap[symbol]);\r\n        require(0 == addressMap[addr].pos);\r\n        addresses.push(addr);\r\n        symbolMap[symbol] = addr;\r\n        addressMap[addr] = TokenInfo(addresses.length, symbol);\r\n        emit TokenRegistered(addr, symbol);\r\n    }\r\n}",
  "sourcePath": "D:\\work\\truffle\\s3d\\contracts\\TokenRegistryImpl.sol",
  "compiler": {
    "name": "solc",
    "version": "0.4.24+commit.e67f0147.Emscripten.clang"
  },
  "schemaVersion": "2.0.1",
  "updatedAt": "2018-08-14T10:44:16.644Z"
}