{
  "contractName": "User",
  "abi": [
    {
      "constant": false,
      "inputs": [
        {
          "name": "k",
          "type": "uint256"
        },
        {
          "name": "v",
          "type": "uint256"
        }
      ],
      "name": "insert",
      "outputs": [
        {
          "name": "size",
          "type": "uint256"
        }
      ],
      "payable": false,
      "stateMutability": "nonpayable",
      "type": "function"
    },
    {
      "constant": true,
      "inputs": [],
      "name": "sum",
      "outputs": [
        {
          "name": "s",
          "type": "uint256"
        }
      ],
      "payable": false,
      "stateMutability": "view",
      "type": "function"
    }
  ],
  "bytecode": "0x608060405234801561001057600080fd5b506104a0806100206000396000f30060806040526004361061004c576000357c0100000000000000000000000000000000000000000000000000000000900463ffffffff1680631d834a1b14610051578063853255cc1461009c575b600080fd5b34801561005d57600080fd5b5061008660048036038101908080359060200190929190803590602001909291905050506100c7565b6040518082815260200191505060405180910390f35b3480156100a857600080fd5b506100b161018f565b6040518082815260200191505060405180910390f35b600073__IterableMapping_______________________637e523645600085856040518463ffffffff167c010000000000000000000000000000000000000000000000000000000002815260040180848152602001838152602001828152602001935050505060206040518083038186803b15801561014557600080fd5b505af4158015610159573d6000803e3d6000fd5b505050506040513d602081101561016f57600080fd5b810190808051906020019092919050505050600060020154905092915050565b60008060008073__IterableMapping_______________________63a21ab71660006040518263ffffffff167c01000000000000000000000000000000000000000000000000000000000281526004018082815260200191505060206040518083038186803b15801561020157600080fd5b505af4158015610215573d6000803e3d6000fd5b505050506040513d602081101561022b57600080fd5b810190808051906020019092919050505092505b73__IterableMapping_______________________63c8fccc696000856040518363ffffffff167c0100000000000000000000000000000000000000000000000000000000028152600401808381526020018281526020019250505060206040518083038186803b1580156102b357600080fd5b505af41580156102c7573d6000803e3d6000fd5b505050506040513d60208110156102dd57600080fd5b81019080805190602001909291905050501561046e5773__IterableMapping_______________________6375a3e8e86000856040518363ffffffff167c01000000000000000000000000000000000000000000000000000000000281526004018083815260200182815260200192505050604080518083038186803b15801561036657600080fd5b505af415801561037a573d6000803e3d6000fd5b505050506040513d604081101561039057600080fd5b8101908080519060200190929190805190602001909291905050508092508193505050808401935073__IterableMapping_______________________6388d044376000856040518363ffffffff167c0100000000000000000000000000000000000000000000000000000000028152600401808381526020018281526020019250505060206040518083038186803b15801561042c57600080fd5b505af4158015610440573d6000803e3d6000fd5b505050506040513d602081101561045657600080fd5b8101908080519060200190929190505050925061023f565b505050905600a165627a7a72305820f1062ff4891f5e5aaa40193d48936c6699dd77cea50b5316f1bbedbf566905820029",
  "source": "pragma solidity ^0.4.21;\r\n\r\n/// @dev Models a uint -> uint mapping where it is possible to iterate over all keys.\r\nlibrary IterableMapping\r\n{\r\n    struct KeyFlag { \r\n        uint key;\r\n        bool deleted; \r\n    }\r\n\r\n  struct IndexValue { uint keyIndex; uint value; }\r\n\r\n  struct itmap\r\n  {\r\n    mapping(uint => IndexValue) data;\r\n    KeyFlag[] keys;\r\n    uint size;\r\n  }\r\n \r\n  function insert(itmap storage self, uint key, uint value) public returns (bool replaced)\r\n  {\r\n    uint keyIndex = self.data[key].keyIndex;\r\n    self.data[key].value = value;\r\n    if (keyIndex > 0)\r\n      return true;\r\n    else\r\n    {\r\n      keyIndex = self.keys.length++;\r\n      self.data[key].keyIndex = keyIndex + 1;\r\n      self.keys[keyIndex].key = key;\r\n      self.size++;\r\n      return false;\r\n    }\r\n  }\r\n  function remove(itmap storage self, uint key) public returns (bool success)\r\n  {\r\n    uint keyIndex = self.data[key].keyIndex;\r\n    if (keyIndex == 0)\r\n      return false;\r\n    delete self.data[key];\r\n    self.keys[keyIndex - 1].deleted = true;\r\n    self.size --;\r\n  }\r\n  function contains(itmap storage self, uint key) public view returns (bool)\r\n  {\r\n    return self.data[key].keyIndex > 0;\r\n  }\r\n  function iterate_start(itmap storage self) public view returns (uint keyIndex)\r\n  {\r\n    return iterate_next(self, uint(-1));\r\n  }\r\n  function iterate_valid(itmap storage self, uint keyIndex) public view returns (bool)\r\n  {\r\n    return keyIndex < self.keys.length;\r\n  }\r\n  function iterate_next(itmap storage self, uint keyIndex) public view returns (uint r_keyIndex)\r\n  {\r\n    keyIndex++;\r\n    while (keyIndex < self.keys.length && self.keys[keyIndex].deleted)\r\n      keyIndex++;\r\n    return keyIndex;\r\n  }\r\n  function iterate_get(itmap storage self, uint keyIndex) public view returns (uint key, uint value)\r\n  {\r\n    key = self.keys[keyIndex].key;\r\n    value = self.data[key].value;\r\n  }\r\n}\r\n\r\n// How to use it:\r\ncontract User\r\n{\r\n  // Just a struct holding our data.\r\n  IterableMapping.itmap data;\r\n  // Insert something\r\n  function insert(uint k, uint v) public returns (uint size)\r\n  {\r\n    // Actually calls itmap_impl.insert, auto-supplying the first parameter for us.\r\n    IterableMapping.insert(data, k, v);\r\n    // We can still access members of the struct - but we should take care not to mess with them.\r\n    return data.size;\r\n  }\r\n  // Computes the sum of all stored data.\r\n  function sum() public view returns (uint s)\r\n  {\r\n    for (uint i = IterableMapping.iterate_start(data); IterableMapping.iterate_valid(data, i); i = IterableMapping.iterate_next(data, i))\r\n    {\r\n        uint key;\r\n        uint value;\r\n        (key, value) = IterableMapping.iterate_get(data, i);\r\n        s += value;\r\n    }\r\n  }\r\n}",
  "sourcePath": "D:\\work\\truffle\\s3d\\contracts\\testMyContract.sol",
  "compiler": {
    "name": "solc",
    "version": "0.4.24+commit.e67f0147.Emscripten.clang"
  },
  "schemaVersion": "2.0.1",
  "updatedAt": "2018-08-14T11:14:13.154Z"
}