{
  "contractName": "ZRXDealer",
  "abi": [
    {
      "constant": true,
      "inputs": [
        {
          "name": "_customerAddress",
          "type": "address"
        }
      ],
      "name": "dividendsOf",
      "outputs": [
        {
          "name": "",
          "type": "uint256"
        }
      ],
      "payable": false,
      "stateMutability": "view",
      "type": "function"
    },
    {
      "constant": true,
      "inputs": [
        {
          "name": "_operator",
          "type": "address"
        },
        {
          "name": "_role",
          "type": "string"
        }
      ],
      "name": "checkRole",
      "outputs": [],
      "payable": false,
      "stateMutability": "view",
      "type": "function"
    },
    {
      "constant": true,
      "inputs": [
        {
          "name": "_buyTokenToSpend",
          "type": "uint256"
        }
      ],
      "name": "calculateTokensReceived",
      "outputs": [
        {
          "name": "",
          "type": "uint256"
        }
      ],
      "payable": false,
      "stateMutability": "view",
      "type": "function"
    },
    {
      "constant": true,
      "inputs": [
        {
          "name": "_tokensToBuy",
          "type": "uint256"
        }
      ],
      "name": "calculateBuyTokenSpend",
      "outputs": [
        {
          "name": "",
          "type": "uint256"
        }
      ],
      "payable": false,
      "stateMutability": "view",
      "type": "function"
    },
    {
      "constant": true,
      "inputs": [],
      "name": "totalSupply",
      "outputs": [
        {
          "name": "",
          "type": "uint256"
        }
      ],
      "payable": false,
      "stateMutability": "view",
      "type": "function"
    },
    {
      "constant": true,
      "inputs": [],
      "name": "ROLE_WHITELISTED",
      "outputs": [
        {
          "name": "",
          "type": "string"
        }
      ],
      "payable": false,
      "stateMutability": "view",
      "type": "function"
    },
    {
      "constant": true,
      "inputs": [
        {
          "name": "_operator",
          "type": "address"
        },
        {
          "name": "_role",
          "type": "string"
        }
      ],
      "name": "hasRole",
      "outputs": [
        {
          "name": "",
          "type": "bool"
        }
      ],
      "payable": false,
      "stateMutability": "view",
      "type": "function"
    },
    {
      "constant": false,
      "inputs": [
        {
          "name": "_operators",
          "type": "address[]"
        }
      ],
      "name": "removeAddressesFromWhitelist",
      "outputs": [],
      "payable": false,
      "stateMutability": "nonpayable",
      "type": "function"
    },
    {
      "constant": true,
      "inputs": [],
      "name": "onlyAmbassadors",
      "outputs": [
        {
          "name": "",
          "type": "bool"
        }
      ],
      "payable": false,
      "stateMutability": "view",
      "type": "function"
    },
    {
      "constant": false,
      "inputs": [
        {
          "name": "_operator",
          "type": "address"
        }
      ],
      "name": "removeAddressFromWhitelist",
      "outputs": [],
      "payable": false,
      "stateMutability": "nonpayable",
      "type": "function"
    },
    {
      "constant": true,
      "inputs": [
        {
          "name": "_customerAddress",
          "type": "address"
        }
      ],
      "name": "referralBalanceOf",
      "outputs": [
        {
          "name": "",
          "type": "uint256"
        }
      ],
      "payable": false,
      "stateMutability": "view",
      "type": "function"
    },
    {
      "constant": true,
      "inputs": [],
      "name": "sellPrice",
      "outputs": [
        {
          "name": "",
          "type": "uint256"
        }
      ],
      "payable": false,
      "stateMutability": "view",
      "type": "function"
    },
    {
      "constant": false,
      "inputs": [],
      "name": "claimOwnership",
      "outputs": [],
      "payable": false,
      "stateMutability": "nonpayable",
      "type": "function"
    },
    {
      "constant": true,
      "inputs": [
        {
          "name": "_customerAddress",
          "type": "address"
        }
      ],
      "name": "balanceOf",
      "outputs": [
        {
          "name": "",
          "type": "uint256"
        }
      ],
      "payable": false,
      "stateMutability": "view",
      "type": "function"
    },
    {
      "constant": false,
      "inputs": [],
      "name": "renounceOwnership",
      "outputs": [],
      "payable": false,
      "stateMutability": "nonpayable",
      "type": "function"
    },
    {
      "constant": false,
      "inputs": [
        {
          "name": "_operator",
          "type": "address"
        }
      ],
      "name": "addAddressToWhitelist",
      "outputs": [],
      "payable": false,
      "stateMutability": "nonpayable",
      "type": "function"
    },
    {
      "constant": true,
      "inputs": [],
      "name": "buyPrice",
      "outputs": [
        {
          "name": "",
          "type": "uint256"
        }
      ],
      "payable": false,
      "stateMutability": "view",
      "type": "function"
    },
    {
      "constant": true,
      "inputs": [],
      "name": "owner",
      "outputs": [
        {
          "name": "",
          "type": "address"
        }
      ],
      "payable": false,
      "stateMutability": "view",
      "type": "function"
    },
    {
      "constant": true,
      "inputs": [],
      "name": "zrxTokenAddress",
      "outputs": [
        {
          "name": "",
          "type": "address"
        }
      ],
      "payable": false,
      "stateMutability": "view",
      "type": "function"
    },
    {
      "constant": true,
      "inputs": [
        {
          "name": "_operator",
          "type": "address"
        }
      ],
      "name": "whitelist",
      "outputs": [
        {
          "name": "",
          "type": "bool"
        }
      ],
      "payable": false,
      "stateMutability": "view",
      "type": "function"
    },
    {
      "constant": true,
      "inputs": [
        {
          "name": "_tokensToSell",
          "type": "uint256"
        }
      ],
      "name": "calculateBuyTokenReceived",
      "outputs": [
        {
          "name": "",
          "type": "uint256"
        }
      ],
      "payable": false,
      "stateMutability": "view",
      "type": "function"
    },
    {
      "constant": false,
      "inputs": [
        {
          "name": "_operators",
          "type": "address[]"
        }
      ],
      "name": "addAddressesToWhitelist",
      "outputs": [],
      "payable": false,
      "stateMutability": "nonpayable",
      "type": "function"
    },
    {
      "constant": true,
      "inputs": [],
      "name": "pendingOwner",
      "outputs": [
        {
          "name": "",
          "type": "address"
        }
      ],
      "payable": false,
      "stateMutability": "view",
      "type": "function"
    },
    {
      "constant": false,
      "inputs": [
        {
          "name": "newOwner",
          "type": "address"
        }
      ],
      "name": "transferOwnership",
      "outputs": [],
      "payable": false,
      "stateMutability": "nonpayable",
      "type": "function"
    },
    {
      "inputs": [
        {
          "name": "_tokenAddress",
          "type": "address"
        }
      ],
      "payable": false,
      "stateMutability": "nonpayable",
      "type": "constructor"
    },
    {
      "anonymous": false,
      "inputs": [
        {
          "indexed": true,
          "name": "customerAddress",
          "type": "address"
        },
        {
          "indexed": false,
          "name": "incomingTokens",
          "type": "uint256"
        },
        {
          "indexed": false,
          "name": "s3dMinted",
          "type": "uint256"
        },
        {
          "indexed": true,
          "name": "referredBy",
          "type": "address"
        }
      ],
      "name": "onTokenPurchase",
      "type": "event"
    },
    {
      "anonymous": false,
      "inputs": [
        {
          "indexed": true,
          "name": "customerAddress",
          "type": "address"
        },
        {
          "indexed": false,
          "name": "s3dBurned",
          "type": "uint256"
        },
        {
          "indexed": false,
          "name": "tokenEarned",
          "type": "uint256"
        }
      ],
      "name": "onTokenSell",
      "type": "event"
    },
    {
      "anonymous": false,
      "inputs": [
        {
          "indexed": true,
          "name": "customerAddress",
          "type": "address"
        },
        {
          "indexed": false,
          "name": "tokenReinvested",
          "type": "uint256"
        },
        {
          "indexed": false,
          "name": "s3dMinted",
          "type": "uint256"
        }
      ],
      "name": "onReinvestment",
      "type": "event"
    },
    {
      "anonymous": false,
      "inputs": [
        {
          "indexed": true,
          "name": "customerAddress",
          "type": "address"
        },
        {
          "indexed": false,
          "name": "tokenWithdrawn",
          "type": "uint256"
        }
      ],
      "name": "onWithdraw",
      "type": "event"
    },
    {
      "anonymous": false,
      "inputs": [
        {
          "indexed": true,
          "name": "customerAddress",
          "type": "address"
        },
        {
          "indexed": false,
          "name": "s3dEscaped",
          "type": "uint256"
        }
      ],
      "name": "onTokenEscape",
      "type": "event"
    },
    {
      "anonymous": false,
      "inputs": [
        {
          "indexed": true,
          "name": "customerAddress",
          "type": "address"
        },
        {
          "indexed": false,
          "name": "s3dBurned",
          "type": "uint256"
        },
        {
          "indexed": false,
          "name": "tokenEarned",
          "type": "uint256"
        }
      ],
      "name": "onTokenArbitrage",
      "type": "event"
    },
    {
      "anonymous": false,
      "inputs": [
        {
          "indexed": true,
          "name": "operator",
          "type": "address"
        },
        {
          "indexed": false,
          "name": "role",
          "type": "string"
        }
      ],
      "name": "RoleAdded",
      "type": "event"
    },
    {
      "anonymous": false,
      "inputs": [
        {
          "indexed": true,
          "name": "operator",
          "type": "address"
        },
        {
          "indexed": false,
          "name": "role",
          "type": "string"
        }
      ],
      "name": "RoleRemoved",
      "type": "event"
    },
    {
      "anonymous": false,
      "inputs": [
        {
          "indexed": true,
          "name": "previousOwner",
          "type": "address"
        }
      ],
      "name": "OwnershipRenounced",
      "type": "event"
    },
    {
      "anonymous": false,
      "inputs": [
        {
          "indexed": true,
          "name": "previousOwner",
          "type": "address"
        },
        {
          "indexed": true,
          "name": "newOwner",
          "type": "address"
        }
      ],
      "name": "OwnershipTransferred",
      "type": "event"
    },
    {
      "constant": false,
      "inputs": [
        {
          "name": "_buyer",
          "type": "address"
        },
        {
          "name": "_zrxAmount",
          "type": "uint256"
        },
        {
          "name": "_referredBy",
          "type": "address"
        }
      ],
      "name": "buy",
      "outputs": [
        {
          "name": "",
          "type": "uint256"
        }
      ],
      "payable": true,
      "stateMutability": "payable",
      "type": "function"
    },
    {
      "constant": false,
      "inputs": [
        {
          "name": "_buyer",
          "type": "address"
        },
        {
          "name": "_buyAmount",
          "type": "uint256"
        }
      ],
      "name": "reinvest",
      "outputs": [],
      "payable": false,
      "stateMutability": "nonpayable",
      "type": "function"
    },
    {
      "constant": false,
      "inputs": [
        {
          "name": "_buyer",
          "type": "address"
        }
      ],
      "name": "exit",
      "outputs": [],
      "payable": false,
      "stateMutability": "nonpayable",
      "type": "function"
    },
    {
      "constant": false,
      "inputs": [
        {
          "name": "_buyer",
          "type": "address"
        }
      ],
      "name": "withdrawAll",
      "outputs": [],
      "payable": false,
      "stateMutability": "nonpayable",
      "type": "function"
    },
    {
      "constant": false,
      "inputs": [
        {
          "name": "_buyer",
          "type": "address"
        },
        {
          "name": "_withdrawAmount",
          "type": "uint256"
        }
      ],
      "name": "withdraw",
      "outputs": [],
      "payable": false,
      "stateMutability": "nonpayable",
      "type": "function"
    },
    {
      "constant": false,
      "inputs": [
        {
          "name": "_seller",
          "type": "address"
        },
        {
          "name": "_amountOfTokens",
          "type": "uint256"
        }
      ],
      "name": "sell",
      "outputs": [],
      "payable": false,
      "stateMutability": "nonpayable",
      "type": "function"
    },
    {
      "constant": false,
      "inputs": [],
      "name": "disableInitialStage",
      "outputs": [],
      "payable": false,
      "stateMutability": "nonpayable",
      "type": "function"
    },
    {
      "constant": true,
      "inputs": [],
      "name": "totalBalance",
      "outputs": [
        {
          "name": "",
          "type": "uint256"
        }
      ],
      "payable": false,
      "stateMutability": "view",
      "type": "function"
    },
    {
      "constant": false,
      "inputs": [
        {
          "name": "_sellerAddress",
          "type": "address"
        },
        {
          "name": "_amountOfTokens",
          "type": "uint256"
        }
      ],
      "name": "escapeTokens",
      "outputs": [
        {
          "name": "",
          "type": "uint256"
        }
      ],
      "payable": false,
      "stateMutability": "nonpayable",
      "type": "function"
    },
    {
      "constant": false,
      "inputs": [
        {
          "name": "_sellerAddress",
          "type": "address"
        },
        {
          "name": "_amountOfTokens",
          "type": "uint256"
        }
      ],
      "name": "arbitrageTokens",
      "outputs": [
        {
          "name": "",
          "type": "uint256"
        }
      ],
      "payable": false,
      "stateMutability": "nonpayable",
      "type": "function"
    }
  ],
  "bytecode": "0x608060405260006009556000600b556000600c5564174876e800600d556402540be400600e556001600f60006101000a81548160ff0219169083151502179055507347879ac781938cffd879392cd2164b9f7306188a601160006101000a81548173ffffffffffffffffffffffffffffffffffffffff021916908373ffffffffffffffffffffffffffffffffffffffff1602179055506001601160146101000a81548160ff0219169083151502179055503480156100bc57600080fd5b50604051602080613b6483398101806040528101908080519060200190929190505050336000806101000a81548173ffffffffffffffffffffffffffffffffffffffff021916908373ffffffffffffffffffffffffffffffffffffffff16021790555065246139ca8000600d819055506503a352944000600e8190555080601160006101000a81548173ffffffffffffffffffffffffffffffffffffffff021916908373ffffffffffffffffffffffffffffffffffffffff16021790555060016010600073cd16575a90ed9506bcf44c78845d93f1b647f48c73ffffffffffffffffffffffffffffffffffffffff1673ffffffffffffffffffffffffffffffffffffffff16815260200190815260200160002060006101000a81548160ff0219169083151502179055505061396e806101f66000396000f3006080604052600436106101ab576000357c0100000000000000000000000000000000000000000000000000000000900463ffffffff16806265318b146101b05780630988ca8c1461020757806310d0ffdd14610290578063150c95a8146102d157806318160ddd1461031257806318b919e91461033d578063217fe6c6146103cd57806324953eaa1461046e57806327defa1f146104d4578063286dd3f5146105035780633be8eb7e1461054657806346534649146105a75780634b750334146105fe5780634e71e0c8146106295780636c197ff51461064057806370a082311461068d578063715018a6146106e45780637b9417c8146106fb5780638620410b1461073e5780638da5cb5b14610769578063970f289e146107c05780639b19251a14610817578063a8e04f3414610872578063ad7a672f14610889578063b42652e9146108b4578063b73f34b4146108f7578063d3d6dce714610938578063d65a261714610999578063db61c76e146109e6578063e2ec6ec314610a5a578063e30c397814610ac0578063f2fde38b14610b17578063f3fef3a314610b5a578063fa09e63014610ba7575b600080fd5b3480156101bc57600080fd5b506101f1600480360381019080803573ffffffffffffffffffffffffffffffffffffffff169060200190929190505050610bea565b6040518082815260200191505060405180910390f35b34801561021357600080fd5b5061028e600480360381019080803573ffffffffffffffffffffffffffffffffffffffff169060200190929190803590602001908201803590602001908080601f0160208091040260200160405190810160405280939291908181526020018383808284378201915050505050509192919290505050610c8c565b005b34801561029c57600080fd5b506102bb60048036038101908080359060200190929190505050610d0d565b6040518082815260200191505060405180910390f35b3480156102dd57600080fd5b506102fc60048036038101908080359060200190929190505050610d45565b6040518082815260200191505060405180910390f35b34801561031e57600080fd5b50610327610d7d565b6040518082815260200191505060405180910390f35b34801561034957600080fd5b50610352610d87565b6040518080602001828103825283818151815260200191508051906020019080838360005b83811015610392578082015181840152602081019050610377565b50505050905090810190601f1680156103bf5780820380516001836020036101000a031916815260200191505b509250505060405180910390f35b3480156103d957600080fd5b50610454600480360381019080803573ffffffffffffffffffffffffffffffffffffffff169060200190929190803590602001908201803590602001908080601f0160208091040260200160405190810160405280939291908181526020018383808284378201915050505050509192919290505050610dc0565b604051808215151515815260200191505060405180910390f35b34801561047a57600080fd5b506104d260048036038101908080359060200190820180359060200190808060200260200160405190810160405280939291908181526020018383602002808284378201915050505050509192919290505050610e47565b005b3480156104e057600080fd5b506104e9610ee3565b604051808215151515815260200191505060405180910390f35b34801561050f57600080fd5b50610544600480360381019080803573ffffffffffffffffffffffffffffffffffffffff169060200190929190505050610ef6565b005b34801561055257600080fd5b50610591600480360381019080803573ffffffffffffffffffffffffffffffffffffffff16906020019092919080359060200190929190505050610f93565b6040518082815260200191505060405180910390f35b3480156105b357600080fd5b506105e8600480360381019080803573ffffffffffffffffffffffffffffffffffffffff169060200190929190505050611272565b6040518082815260200191505060405180910390f35b34801561060a57600080fd5b506106136112bb565b6040518082815260200191505060405180910390f35b34801561063557600080fd5b5061063e611318565b005b34801561064c57600080fd5b5061068b600480360381019080803573ffffffffffffffffffffffffffffffffffffffff169060200190929190803590602001909291905050506114b7565b005b34801561069957600080fd5b506106ce600480360381019080803573ffffffffffffffffffffffffffffffffffffffff169060200190929190505050611733565b6040518082815260200191505060405180910390f35b3480156106f057600080fd5b506106f961177c565b005b34801561070757600080fd5b5061073c600480360381019080803573ffffffffffffffffffffffffffffffffffffffff16906020019092919050505061187e565b005b34801561074a57600080fd5b5061075361191b565b6040518082815260200191505060405180910390f35b34801561077557600080fd5b5061077e611978565b604051808273ffffffffffffffffffffffffffffffffffffffff1673ffffffffffffffffffffffffffffffffffffffff16815260200191505060405180910390f35b3480156107cc57600080fd5b506107d561199d565b604051808273ffffffffffffffffffffffffffffffffffffffff1673ffffffffffffffffffffffffffffffffffffffff16815260200191505060405180910390f35b34801561082357600080fd5b50610858600480360381019080803573ffffffffffffffffffffffffffffffffffffffff1690602001909291905050506119c3565b604051808215151515815260200191505060405180910390f35b34801561087e57600080fd5b50610887611a0b565b005b34801561089557600080fd5b5061089e611a83565b6040518082815260200191505060405180910390f35b3480156108c057600080fd5b506108f5600480360381019080803573ffffffffffffffffffffffffffffffffffffffff169060200190929190505050611b82565b005b34801561090357600080fd5b5061092260048036038101908080359060200190929190505050611c2d565b6040518082815260200191505060405180910390f35b34801561094457600080fd5b50610983600480360381019080803573ffffffffffffffffffffffffffffffffffffffff16906020019092919080359060200190929190505050611c7b565b6040518082815260200191505060405180910390f35b3480156109a557600080fd5b506109e4600480360381019080803573ffffffffffffffffffffffffffffffffffffffff16906020019092919080359060200190929190505050611f19565b005b610a44600480360381019080803573ffffffffffffffffffffffffffffffffffffffff16906020019092919080359060200190929190803573ffffffffffffffffffffffffffffffffffffffff16906020019092919050505061219f565b6040518082815260200191505060405180910390f35b348015610a6657600080fd5b50610abe60048036038101908080359060200190820180359060200190808060200260200160405190810160405280939291908181526020018383602002808284378201915050505050509192919290505050612334565b005b348015610acc57600080fd5b50610ad56123d0565b604051808273ffffffffffffffffffffffffffffffffffffffff1673ffffffffffffffffffffffffffffffffffffffff16815260200191505060405180910390f35b348015610b2357600080fd5b50610b58600480360381019080803573ffffffffffffffffffffffffffffffffffffffff1690602001909291905050506123f6565b005b348015610b6657600080fd5b50610ba5600480360381019080803573ffffffffffffffffffffffffffffffffffffffff16906020019092919080359060200190929190505050612495565b005b348015610bb357600080fd5b50610be8600480360381019080803573ffffffffffffffffffffffffffffffffffffffff169060200190929190505050612803565b005b600068010000000000000000600560008473ffffffffffffffffffffffffffffffffffffffff1673ffffffffffffffffffffffffffffffffffffffff16815260200190815260200160002054600360008573ffffffffffffffffffffffffffffffffffffffff1673ffffffffffffffffffffffffffffffffffffffff16815260200190815260200160002054600a540203811515610c8457fe5b049050919050565b610d09826002836040518082805190602001908083835b602083101515610cc85780518252602082019150602081019050602083039250610ca3565b6001836020036101000a0380198251168184511680821785525050505050509050019150509081526020016040518091039020612aad90919063ffffffff16565b5050565b600080600080610d2185600a60ff16612ac6565b9250610d2d8584612adc565b9150610d3882612af5565b9050809350505050919050565b600080600080610d5485612b75565b9250610d6483600a60ff16612ac6565b9150610d708383612adc565b9050809350505050919050565b6000600954905090565b6040805190810160405280600981526020017f77686974656c697374000000000000000000000000000000000000000000000081525081565b6000610e3f836002846040518082805190602001908083835b602083101515610dfe5780518252602082019150602081019050602083039250610dd9565b6001836020036101000a0380198251168184511680821785525050505050509050019150509081526020016040518091039020612bf890919063ffffffff16565b905092915050565b60008060009054906101000a900473ffffffffffffffffffffffffffffffffffffffff1673ffffffffffffffffffffffffffffffffffffffff163373ffffffffffffffffffffffffffffffffffffffff16141515610ea457600080fd5b600090505b8151811015610edf57610ed28282815181101515610ec357fe5b90602001906020020151610ef6565b8080600101915050610ea9565b5050565b601160149054906101000a900460ff1681565b6000809054906101000a900473ffffffffffffffffffffffffffffffffffffffff1673ffffffffffffffffffffffffffffffffffffffff163373ffffffffffffffffffffffffffffffffffffffff16141515610f5157600080fd5b610f90816040805190810160405280600981526020017f77686974656c6973740000000000000000000000000000000000000000000000815250612c51565b50565b60008060008060008033610fdc816040805190810160405280600981526020017f77686974656c6973740000000000000000000000000000000000000000000000815250610c8c565b610fe4612d85565b8811151515610ff257600080fd5b889550610ffe88612da5565b9450611008611a83565b851115151561101657600080fd5b61102485600a60ff16612ac6565b93506110308585612adc565b925061103e600c5489612e49565b600c8190555061108d600860008873ffffffffffffffffffffffffffffffffffffffff1673ffffffffffffffffffffffffffffffffffffffff1681526020019081526020016000205489612e49565b600860008873ffffffffffffffffffffffffffffffffffffffff1673ffffffffffffffffffffffffffffffffffffffff168152602001908152602001600020819055506110d8612e65565b9150600082111561110c57611105600a54836801000000000000000087028115156110ff57fe5b04612e49565b600a819055505b601160009054906101000a900473ffffffffffffffffffffffffffffffffffffffff1673ffffffffffffffffffffffffffffffffffffffff1663a9059cbb87856040518363ffffffff167c0100000000000000000000000000000000000000000000000000000000028152600401808373ffffffffffffffffffffffffffffffffffffffff1673ffffffffffffffffffffffffffffffffffffffff16815260200182815260200192505050602060405180830381600087803b1580156111d157600080fd5b505af11580156111e5573d6000803e3d6000fd5b505050506040513d60208110156111fb57600080fd5b8101908080519060200190929190505050508573ffffffffffffffffffffffffffffffffffffffff167fe9d4fb0074327a194c752e06c8b2fce4a89cd86202090528bb81582a3f20fedd8985604051808381526020018281526020019250505060405180910390a282965050505050505092915050565b6000600460008373ffffffffffffffffffffffffffffffffffffffff1673ffffffffffffffffffffffffffffffffffffffff168152602001908152602001600020549050919050565b60008060008060006112cb612d85565b14156112df57600e54600d54039350611312565b6112f0670de0b6b3a7640000612da5565b925061130083600a60ff16612ac6565b915061130c8383612adc565b90508093505b50505090565b600160009054906101000a900473ffffffffffffffffffffffffffffffffffffffff1673ffffffffffffffffffffffffffffffffffffffff163373ffffffffffffffffffffffffffffffffffffffff1614151561137457600080fd5b600160009054906101000a900473ffffffffffffffffffffffffffffffffffffffff1673ffffffffffffffffffffffffffffffffffffffff166000809054906101000a900473ffffffffffffffffffffffffffffffffffffffff1673ffffffffffffffffffffffffffffffffffffffff167f8be0079c531659141344cd1fd0a4f28419497f9722a3daafe3b4186f6b6457e060405160405180910390a3600160009054906101000a900473ffffffffffffffffffffffffffffffffffffffff166000806101000a81548173ffffffffffffffffffffffffffffffffffffffff021916908373ffffffffffffffffffffffffffffffffffffffff1602179055506000600160006101000a81548173ffffffffffffffffffffffffffffffffffffffff021916908373ffffffffffffffffffffffffffffffffffffffff160217905550565b60008060008060008060008860006114ce82611733565b1115156114da57600080fd5b3361151a816040805190810160405280600981526020017f77686974656c6973740000000000000000000000000000000000000000000000815250610c8c565b8a9850600360008a73ffffffffffffffffffffffffffffffffffffffff1673ffffffffffffffffffffffffffffffffffffffff168152602001908152602001600020548a1115151561156b57600080fd5b89975061157788612da5565b965061158787600a60ff16612ac6565b95506115938787612adc565b94506115a160095489612adc565b6009819055506115f0600360008b73ffffffffffffffffffffffffffffffffffffffff1673ffffffffffffffffffffffffffffffffffffffff1681526020019081526020016000205489612adc565b600360008b73ffffffffffffffffffffffffffffffffffffffff1673ffffffffffffffffffffffffffffffffffffffff1681526020019081526020016000208190555068010000000000000000850288600a540201935083600560008b73ffffffffffffffffffffffffffffffffffffffff1673ffffffffffffffffffffffffffffffffffffffff1681526020019081526020016000206000828254039250508190555061169c612e65565b925060008311156116d0576116c9600a54846801000000000000000089028115156116c357fe5b04612e49565b600a819055505b8873ffffffffffffffffffffffffffffffffffffffff167fc4823739c5787d2ca17e404aa47d5569ae71dfb49cbf21b3f6152ed238a311398987604051808381526020018281526020019250505060405180910390a25050505050505050505050565b6000600360008373ffffffffffffffffffffffffffffffffffffffff1673ffffffffffffffffffffffffffffffffffffffff168152602001908152602001600020549050919050565b6000809054906101000a900473ffffffffffffffffffffffffffffffffffffffff1673ffffffffffffffffffffffffffffffffffffffff163373ffffffffffffffffffffffffffffffffffffffff161415156117d757600080fd5b6000809054906101000a900473ffffffffffffffffffffffffffffffffffffffff1673ffffffffffffffffffffffffffffffffffffffff167ff8df31144d9c2f0f6b59d69b8b98abd5459d07f2742c4df920b25aae33c6482060405160405180910390a260008060006101000a81548173ffffffffffffffffffffffffffffffffffffffff021916908373ffffffffffffffffffffffffffffffffffffffff160217905550565b6000809054906101000a900473ffffffffffffffffffffffffffffffffffffffff1673ffffffffffffffffffffffffffffffffffffffff163373ffffffffffffffffffffffffffffffffffffffff161415156118d957600080fd5b611918816040805190810160405280600981526020017f77686974656c6973740000000000000000000000000000000000000000000000815250612e6f565b50565b600080600080600061192b612d85565b141561193f57600e54600d54019350611972565b611950670de0b6b3a7640000612da5565b925061196083600a60ff16612ac6565b915061196c8383612e49565b90508093505b50505090565b6000809054906101000a900473ffffffffffffffffffffffffffffffffffffffff1681565b601160009054906101000a900473ffffffffffffffffffffffffffffffffffffffff1681565b6000611a04826040805190810160405280600981526020017f77686974656c6973740000000000000000000000000000000000000000000000815250610dc0565b9050919050565b6000809054906101000a900473ffffffffffffffffffffffffffffffffffffffff1673ffffffffffffffffffffffffffffffffffffffff163373ffffffffffffffffffffffffffffffffffffffff16141515611a6657600080fd5b6000601160146101000a81548160ff021916908315150217905550565b6000601160009054906101000a900473ffffffffffffffffffffffffffffffffffffffff1673ffffffffffffffffffffffffffffffffffffffff166370a08231306040518263ffffffff167c0100000000000000000000000000000000000000000000000000000000028152600401808273ffffffffffffffffffffffffffffffffffffffff1673ffffffffffffffffffffffffffffffffffffffff168152602001915050602060405180830381600087803b158015611b4257600080fd5b505af1158015611b56573d6000803e3d6000fd5b505050506040513d6020811015611b6c57600080fd5b8101908080519060200190929190505050905090565b60008033611bc5816040805190810160405280600981526020017f77686974656c6973740000000000000000000000000000000000000000000000815250610c8c565b839250600360008473ffffffffffffffffffffffffffffffffffffffff1673ffffffffffffffffffffffffffffffffffffffff1681526020019081526020016000205491506000821115611c1e57611c1d84836114b7565b5b611c2784612803565b50505050565b600080600080611c3b612d85565b8511151515611c4957600080fd5b611c5285612da5565b9250611c6283600a60ff16612ac6565b9150611c6e8383612adc565b9050809350505050919050565b600080600080856000611c8d82611733565b111515611c9957600080fd5b33611cd9816040805190810160405280600981526020017f77686974656c6973740000000000000000000000000000000000000000000000815250610c8c565b879450600360008673ffffffffffffffffffffffffffffffffffffffff1673ffffffffffffffffffffffffffffffffffffffff168152602001908152602001600020548711151515611d2a57600080fd5b869350611d3960095485612adc565b600981905550611d4b600b5485612e49565b600b81905550611d9a600360008773ffffffffffffffffffffffffffffffffffffffff1673ffffffffffffffffffffffffffffffffffffffff1681526020019081526020016000205485612adc565b600360008773ffffffffffffffffffffffffffffffffffffffff1673ffffffffffffffffffffffffffffffffffffffff16815260200190815260200160002081905550611e26600760008773ffffffffffffffffffffffffffffffffffffffff1673ffffffffffffffffffffffffffffffffffffffff1681526020019081526020016000205485612e49565b600760008773ffffffffffffffffffffffffffffffffffffffff1673ffffffffffffffffffffffffffffffffffffffff1681526020019081526020016000208190555083600a5402925082600560008773ffffffffffffffffffffffffffffffffffffffff1673ffffffffffffffffffffffffffffffffffffffff168152602001908152602001600020600082825403925050819055508473ffffffffffffffffffffffffffffffffffffffff167ff442d356b73f85e354ab3e2be58a493fbcbfc105e75bd7cef5c6d1882bd20715856040518082815260200191505060405180910390a2839550505050505092915050565b6000806000846000611f2a82611272565b611f3383610bea565b01111515611f4057600080fd5b33611f80816040805190810160405280600981526020017f77686974656c6973740000000000000000000000000000000000000000000000815250610c8c565b611f8987610bea565b9450600460008873ffffffffffffffffffffffffffffffffffffffff1673ffffffffffffffffffffffffffffffffffffffff1681526020019081526020016000205493508385018611151515611fde57600080fd5b848611151561204457680100000000000000008602600560008973ffffffffffffffffffffffffffffffffffffffff1673ffffffffffffffffffffffffffffffffffffffff16815260200190815260200160002060008282540192505081905550612132565b680100000000000000008502600560008973ffffffffffffffffffffffffffffffffffffffff1673ffffffffffffffffffffffffffffffffffffffff168152602001908152602001600020600082825401925050819055506120ee600460008973ffffffffffffffffffffffffffffffffffffffff1673ffffffffffffffffffffffffffffffffffffffff168152602001908152602001600020546120e98888612adc565b612adc565b600460008973ffffffffffffffffffffffffffffffffffffffff1673ffffffffffffffffffffffffffffffffffffffff168152602001908152602001600020819055505b61213e87876000612fa3565b92508673ffffffffffffffffffffffffffffffffffffffff167fbe339fc14b041c2b0e0f3dd2cd325d0c3668b78378001e53160eab36153264588785604051808381526020018281526020019250505060405180910390a250505050505050565b6000336121e1816040805190810160405280600981526020017f77686974656c6973740000000000000000000000000000000000000000000000815250610c8c565b601160009054906101000a900473ffffffffffffffffffffffffffffffffffffffff1673ffffffffffffffffffffffffffffffffffffffff166323b872dd8630876040518463ffffffff167c0100000000000000000000000000000000000000000000000000000000028152600401808473ffffffffffffffffffffffffffffffffffffffff1673ffffffffffffffffffffffffffffffffffffffff1681526020018373ffffffffffffffffffffffffffffffffffffffff1673ffffffffffffffffffffffffffffffffffffffff1681526020018281526020019350505050602060405180830381600087803b1580156122da57600080fd5b505af11580156122ee573d6000803e3d6000fd5b505050506040513d602081101561230457600080fd5b8101908080519060200190929190505050151561232057600080fd5b61232b858585612fa3565b50509392505050565b60008060009054906101000a900473ffffffffffffffffffffffffffffffffffffffff1673ffffffffffffffffffffffffffffffffffffffff163373ffffffffffffffffffffffffffffffffffffffff1614151561239157600080fd5b600090505b81518110156123cc576123bf82828151811015156123b057fe5b9060200190602002015161187e565b8080600101915050612396565b5050565b600160009054906101000a900473ffffffffffffffffffffffffffffffffffffffff1681565b6000809054906101000a900473ffffffffffffffffffffffffffffffffffffffff1673ffffffffffffffffffffffffffffffffffffffff163373ffffffffffffffffffffffffffffffffffffffff1614151561245157600080fd5b80600160006101000a81548173ffffffffffffffffffffffffffffffffffffffff021916908373ffffffffffffffffffffffffffffffffffffffff16021790555050565b6000808360006124a482611272565b6124ad83610bea565b011115156124ba57600080fd5b336124fa816040805190810160405280600981526020017f77686974656c6973740000000000000000000000000000000000000000000000815250610c8c565b61250386610bea565b9350600460008773ffffffffffffffffffffffffffffffffffffffff1673ffffffffffffffffffffffffffffffffffffffff168152602001908152602001600020549250828401851115151561255857600080fd5b83851115156125be57680100000000000000008502600560008873ffffffffffffffffffffffffffffffffffffffff1673ffffffffffffffffffffffffffffffffffffffff168152602001908152602001600020600082825401925050819055506126ac565b680100000000000000008402600560008873ffffffffffffffffffffffffffffffffffffffff1673ffffffffffffffffffffffffffffffffffffffff16815260200190815260200160002060008282540192505081905550612668600460008873ffffffffffffffffffffffffffffffffffffffff1673ffffffffffffffffffffffffffffffffffffffff168152602001908152602001600020546126638787612adc565b612adc565b600460008873ffffffffffffffffffffffffffffffffffffffff1673ffffffffffffffffffffffffffffffffffffffff168152602001908152602001600020819055505b601160009054906101000a900473ffffffffffffffffffffffffffffffffffffffff1673ffffffffffffffffffffffffffffffffffffffff1663a9059cbb87866040518363ffffffff167c0100000000000000000000000000000000000000000000000000000000028152600401808373ffffffffffffffffffffffffffffffffffffffff1673ffffffffffffffffffffffffffffffffffffffff16815260200182815260200192505050602060405180830381600087803b15801561277157600080fd5b505af1158015612785573d6000803e3d6000fd5b505050506040513d602081101561279b57600080fd5b8101908080519060200190929190505050508573ffffffffffffffffffffffffffffffffffffffff167fccad973dcd043c7d680389db4378bd6b9775db7124092e9e0422c9e46d7985dc866040518082815260200191505060405180910390a2505050505050565b60008082600061281282611272565b61281b83610bea565b0111151561282857600080fd5b33612868816040805190810160405280600981526020017f77686974656c6973740000000000000000000000000000000000000000000000815250610c8c565b84935061287484610bea565b9250680100000000000000008302600560008673ffffffffffffffffffffffffffffffffffffffff1673ffffffffffffffffffffffffffffffffffffffff16815260200190815260200160002060008282540192505081905550600460008573ffffffffffffffffffffffffffffffffffffffff1673ffffffffffffffffffffffffffffffffffffffff16815260200190815260200160002054830192506000600460008673ffffffffffffffffffffffffffffffffffffffff1673ffffffffffffffffffffffffffffffffffffffff16815260200190815260200160002081905550601160009054906101000a900473ffffffffffffffffffffffffffffffffffffffff1673ffffffffffffffffffffffffffffffffffffffff1663a9059cbb85856040518363ffffffff167c0100000000000000000000000000000000000000000000000000000000028152600401808373ffffffffffffffffffffffffffffffffffffffff1673ffffffffffffffffffffffffffffffffffffffff16815260200182815260200192505050602060405180830381600087803b158015612a1c57600080fd5b505af1158015612a30573d6000803e3d6000fd5b505050506040513d6020811015612a4657600080fd5b8101908080519060200190929190505050508373ffffffffffffffffffffffffffffffffffffffff167fccad973dcd043c7d680389db4378bd6b9775db7124092e9e0422c9e46d7985dc846040518082815260200191505060405180910390a25050505050565b612ab78282612bf8565b1515612ac257600080fd5b5050565b60008183811515612ad357fe5b04905092915050565b6000828211151515612aea57fe5b818303905092915050565b600080600080600d549250612b08612d85565b9150600954600e54612b5d612b5760095487600e54600202020260026009540a6002600e540a02670de0b6b3a76400008b02670de0b6b3a7640000600e54026002020260028a0a010101613803565b86612adc565b811515612b6657fe5b04039050809350505050919050565b6000806000806000670de0b6b3a7640000612b8e612d85565b019350670de0b6b3a7640000600954811515612ba657fe5b04600e5402600d54019250670de0b6b3a764000086811515612bc457fe5b04600e540283019150612bea612bda8484612e49565b612be5886002612ac6565b61384e565b905080945050505050919050565b60008260000160008373ffffffffffffffffffffffffffffffffffffffff1673ffffffffffffffffffffffffffffffffffffffff16815260200190815260200160002060009054906101000a900460ff16905092915050565b612cce826002836040518082805190602001908083835b602083101515612c8d5780518252602082019150602081019050602083039250612c68565b6001836020036101000a038019825116818451168082178552505050505050905001915050908152602001604051809103902061388690919063ffffffff16565b8173ffffffffffffffffffffffffffffffffffffffff167fd211483f91fc6eff862467f8de606587a30c8fc9981056f051b897a418df803a826040518080602001828103825283818151815260200191508051906020019080838360005b83811015612d47578082015181840152602081019050612d2c565b50505050905090810190601f168015612d745780820380516001836020036101000a031916815260200191505b509250505060405180910390a25050565b6000612da0612d98600954600b54612e49565b600c54612adc565b905090565b600080600080670de0b6b3a764000085019250670de0b6b3a7640000612dc9612d85565b019150670de0b6b3a7640000612e32670de0b6b3a76400008503600e54670de0b6b3a764000086811515612df957fe5b04600e5402600d540103026002670de0b6b3a7640000876002890a03811515612e1e57fe5b04600e5402811515612e2c57fe5b04612adc565b811515612e3b57fe5b049050809350505050919050565b60008183019050828110151515612e5c57fe5b80905092915050565b6000600954905090565b612eec826002836040518082805190602001908083835b602083101515612eab5780518252602082019150602081019050602083039250612e86565b6001836020036101000a03801982511681845116808217855250505050505090500191505090815260200160405180910390206138e490919063ffffffff16565b8173ffffffffffffffffffffffffffffffffffffffff167fbfec83d64eaa953f2708271a023ab9ee82057f8f3578d548c1a4ba0b5b700489826040518080602001828103825283818151815260200191508051906020019080838360005b83811015612f65578082015181840152602081019050612f4a565b50505050905090810190601f168015612f925780820380516001836020036101000a031916815260200191505b509250505060405180910390a25050565b600080600080600080600089896000829050601160149054906101000a900460ff168015612fdd575062030d4082612fd9611a83565b0311155b1561347c5760011515601060008373ffffffffffffffffffffffffffffffffffffffff1673ffffffffffffffffffffffffffffffffffffffff16815260200190815260200160002060009054906101000a900460ff161515148015613085575061271082600660008473ffffffffffffffffffffffffffffffffffffffff1673ffffffffffffffffffffffffffffffffffffffff168152602001908152602001600020540111155b151561309057600080fd5b6130d9600660008373ffffffffffffffffffffffffffffffffffffffff1673ffffffffffffffffffffffffffffffffffffffff1681526020019081526020016000205483612e49565b600660008373ffffffffffffffffffffffffffffffffffffffff1673ffffffffffffffffffffffffffffffffffffffff1681526020019081526020016000208190555061312a8c600a60ff16612ac6565b9850613137896003612ac6565b97506131438989612adc565b965061314f8c8a612adc565b955061315a86612af5565b94506801000000000000000087029350600085118015613186575060095461318486600954612e49565b115b151561319157600080fd5b600073ffffffffffffffffffffffffffffffffffffffff168b73ffffffffffffffffffffffffffffffffffffffff16141580156131fa57508c73ffffffffffffffffffffffffffffffffffffffff168b73ffffffffffffffffffffffffffffffffffffffff1614155b1561329057613248600460008d73ffffffffffffffffffffffffffffffffffffffff1673ffffffffffffffffffffffffffffffffffffffff1681526020019081526020016000205489612e49565b600460008d73ffffffffffffffffffffffffffffffffffffffff1673ffffffffffffffffffffffffffffffffffffffff168152602001908152602001600020819055506132ab565b61329a8789612e49565b965068010000000000000000870293505b60006009541115613320576132c260095486612e49565b6009819055506132d0612e65565b6801000000000000000088028115156132e557fe5b04600a600082825401925050819055506132fd612e65565b68010000000000000000880281151561331257fe5b048502840384039350613328565b846009819055505b613371600360008f73ffffffffffffffffffffffffffffffffffffffff1673ffffffffffffffffffffffffffffffffffffffff1681526020019081526020016000205486612e49565b600360008f73ffffffffffffffffffffffffffffffffffffffff1673ffffffffffffffffffffffffffffffffffffffff168152602001908152602001600020819055508385600a540203600560008f73ffffffffffffffffffffffffffffffffffffffff1673ffffffffffffffffffffffffffffffffffffffff168152602001908152602001600020600082825401925050819055508a73ffffffffffffffffffffffffffffffffffffffff168d73ffffffffffffffffffffffffffffffffffffffff167f022c0d992e4d873a3748436d960d5140c1f9721cf73f7ca5ec679d3d9f4fe2d58e88604051808381526020018281526020019250505060405180910390a38499506137f3565b6000601160146101000a81548160ff0219169083151502179055506134a58c600a60ff16612ac6565b98506134b2896003612ac6565b97506134be8989612adc565b96506134ca8c8a612adc565b95506134d586612af5565b9450680100000000000000008702935060008511801561350157506009546134ff86600954612e49565b115b151561350c57600080fd5b600073ffffffffffffffffffffffffffffffffffffffff168b73ffffffffffffffffffffffffffffffffffffffff161415801561357557508c73ffffffffffffffffffffffffffffffffffffffff168b73ffffffffffffffffffffffffffffffffffffffff1614155b1561360b576135c3600460008d73ffffffffffffffffffffffffffffffffffffffff1673ffffffffffffffffffffffffffffffffffffffff1681526020019081526020016000205489612e49565b600460008d73ffffffffffffffffffffffffffffffffffffffff1673ffffffffffffffffffffffffffffffffffffffff16815260200190815260200160002081905550613626565b6136158789612e49565b965068010000000000000000870293505b6000600954111561369b5761363d60095486612e49565b60098190555061364b612e65565b68010000000000000000880281151561366057fe5b04600a60008282540192505081905550613678612e65565b68010000000000000000880281151561368d57fe5b0485028403840393506136a3565b846009819055505b6136ec600360008f73ffffffffffffffffffffffffffffffffffffffff1673ffffffffffffffffffffffffffffffffffffffff1681526020019081526020016000205486612e49565b600360008f73ffffffffffffffffffffffffffffffffffffffff1673ffffffffffffffffffffffffffffffffffffffff168152602001908152602001600020819055508385600a540203600560008f73ffffffffffffffffffffffffffffffffffffffff1673ffffffffffffffffffffffffffffffffffffffff168152602001908152602001600020600082825401925050819055508a73ffffffffffffffffffffffffffffffffffffffff168d73ffffffffffffffffffffffffffffffffffffffff167f022c0d992e4d873a3748436d960d5140c1f9721cf73f7ca5ec679d3d9f4fe2d58e88604051808381526020018281526020019250505060405180910390a38499505b5050505050505050509392505050565b60008060026001840181151561381557fe5b0490508291505b8181101561384857809150600281828581151561383557fe5b040181151561384057fe5b04905061381c565b50919050565b6000808314156138615760009050613880565b818302905081838281151561387257fe5b0414151561387c57fe5b8090505b92915050565b60008260000160008373ffffffffffffffffffffffffffffffffffffffff1673ffffffffffffffffffffffffffffffffffffffff16815260200190815260200160002060006101000a81548160ff0219169083151502179055505050565b60018260000160008373ffffffffffffffffffffffffffffffffffffffff1673ffffffffffffffffffffffffffffffffffffffff16815260200190815260200160002060006101000a81548160ff02191690831515021790555050505600a165627a7a7230582046d661d633d689f617de063582ad58127bf20c7b8d9eae69a39fbb21c2c01b720029",
  "source": "pragma solidity ^0.4.21;\r\nimport \"zeppelin-solidity/contracts/math/SafeMath.sol\";\r\nimport \"zeppelin-solidity/contracts/ownership/Claimable.sol\";\r\nimport \"zeppelin-solidity/contracts/token/ERC20/ERC20.sol\";\r\nimport \"zeppelin-solidity/contracts/access/Whitelist.sol\";\r\nimport \"../contracts/interface/TokenDealerInterface.sol\";\r\nimport \"./S3Devents.sol\";\r\nimport \"./S3DTokenBase.sol\";\r\n\r\ncontract ZRXDealer is Claimable, Whitelist, S3DEvents, S3DTokenBase{ \r\n\r\n \r\n    // ensures that the first tokens in the contract will be equally distributed\r\n    // meaning, no divine dump will be ever possible\r\n    // result: healthy longevity.\r\n    modifier antiEarlyWhale(address _buyer, uint256 _amountOfEthereum){\r\n        address _customerAddress = _buyer;\r\n        \r\n        // are we still in the vulnerable phase?\r\n        // if so, enact anti early whale protocol \r\n        if( onlyAmbassadors && ((totalBalance() - _amountOfEthereum) <= ambassadorQuota )){\r\n            require(\r\n                // is the customer in the ambassador list?\r\n                ambassadors[_customerAddress] == true &&\r\n                \r\n                // does the customer purchase exceed the max ambassador quota?\r\n                (ambassadorAccumulatedQuota[_customerAddress] + _amountOfEthereum) <= ambassadorMaxPurchase\r\n                \r\n            );\r\n            \r\n            // updated the accumulated quota    \r\n            ambassadorAccumulatedQuota[_customerAddress] = SafeMath.add(ambassadorAccumulatedQuota[_customerAddress], _amountOfEthereum);\r\n        \r\n            // execute\r\n            _;\r\n        } else {\r\n            // in case the ether count drops low, the ambassador phase won't reinitiate\r\n            onlyAmbassadors = false;\r\n            _;    \r\n        }\r\n        \r\n    }\r\n    \r\n    /*=====================================\r\n    =            CONFIGURABLES            =\r\n    =====================================*/\r\n\r\n   \r\n    // ambassador program\r\n    mapping(address => bool) internal ambassadors;\r\n    uint256 constant internal ambassadorMaxPurchase = 10000;\r\n    uint256 constant internal ambassadorQuota = 200000;\r\n    \r\n    address public zrxTokenAddress = 0x47879ac781938CFfd879392Cd2164b9F7306188a;\r\n\r\n    // when this is set to true, only ambassadors can purchase tokens (this prevents a whale premine, it ensures a fairly distributed upper pyramid)\r\n    bool public onlyAmbassadors = true;\r\n\r\n    /*=======================================\r\n    =            PUBLIC FUNCTIONS            =\r\n    =======================================*/\r\n    /*\r\n    * -- APPLICATION ENTRY POINTS --  \r\n    */\r\n    function ZRXDealer(address _tokenAddress)\r\n        public\r\n    {\r\n        tokenPriceInitial = 0.00004000 * 1e18;\r\n        tokenPriceIncremental = 0.000004 * 1e18;\r\n\r\n        zrxTokenAddress = _tokenAddress;\r\n\r\n        // add the ambassadors here.\r\n        // mantso - lead solidity dev & lead web dev. \r\n        ambassadors[0xCd16575A90eD9506BCf44C78845d93F1b647F48C] = true;\r\n    }\r\n    \r\n    /**\r\n     * Converts all incoming ethereum to tokens for the caller, and passes down the referral addy (if any)\r\n     */\r\n    function buy(address _buyer, uint256 _zrxAmount, address _referredBy)\r\n        public\r\n        payable\r\n        onlyIfWhitelisted(msg.sender)\r\n        returns(uint256)\r\n    {\r\n        //transfer seele to contract\r\n        require(ERC20(zrxTokenAddress).transferFrom(_buyer, address(this), _zrxAmount));\r\n        purchaseTokens(_buyer, _zrxAmount, _referredBy);\r\n    }\r\n    \r\n    /*\r\n     * default fallback\r\n    */\r\n    // function()\r\n    //     payable\r\n    //     public\r\n    // {\r\n        \r\n    // }\r\n\r\n    /**\r\n     * Converts all of caller's dividends to tokens.\r\n     */\r\n    function reinvest(address _buyer, uint _buyAmount)\r\n        public\r\n        onlyStronghands(_buyer)\r\n        onlyIfWhitelisted(msg.sender)\r\n    {\r\n        // fetch dividends\r\n        uint256 _dividends = dividendsOf(_buyer); // retrieve ref. bonus later in the code\r\n        uint256 _referralBalance = referralBalance[_buyer];\r\n        require(_buyAmount <= (_dividends + _referralBalance));\r\n\r\n        if (_buyAmount <= _dividends) {\r\n            // pay out the dividends virtually\r\n            payoutsTo[_buyer] +=  (int256)(_buyAmount * magnitude);\r\n        } else {\r\n            payoutsTo[_buyer] +=  (int256) (_dividends * magnitude);\r\n            // retrieve ref. bonus\r\n            referralBalance[_buyer] = SafeMath.sub(referralBalance[_buyer], SafeMath.sub(_buyAmount,_dividends));\r\n        }\r\n                \r\n        // dispatch a buy order with the virtualized \"withdrawn dividends\"\r\n        uint256 _tokens = purchaseTokens(_buyer, _buyAmount, 0x0);\r\n        \r\n        // fire event\r\n        emit S3DEvents.onReinvestment(_buyer, _buyAmount, _tokens);\r\n    }\r\n\r\n    // function reinvest(address buyer)\r\n    //     onlyStronghands(buyer)\r\n    //     public\r\n    // {\r\n    //     // fetch dividends\r\n    //     uint256 _dividends = myDividends(buyer, false); // retrieve ref. bonus later in the code\r\n        \r\n    //     // pay out the dividends virtually\r\n    //     address _customerAddress = buyer;\r\n    //     payoutsTo_[_customerAddress] +=  (int256) (_dividends * magnitude);\r\n        \r\n    //     // retrieve ref. bonus\r\n    //     _dividends += referralBalance_[_customerAddress];\r\n    //     referralBalance_[_customerAddress] = 0;\r\n        \r\n    //     // dispatch a buy order with the virtualized \"withdrawn dividends\"\r\n    //     uint256 _tokens = purchaseTokens(_customerAddress, _dividends, 0x0);\r\n        \r\n    //     // fire event\r\n    //     emit onReinvestment(_customerAddress, _dividends, _tokens);\r\n    // }\r\n    \r\n    /**\r\n     * Alias of sell() and withdraw().\r\n     */\r\n    function exit(address _buyer)\r\n        public\r\n        onlyIfWhitelisted(msg.sender)\r\n    {\r\n        // get token count for caller & sell them all\r\n        address _customerAddress = _buyer;\r\n        uint256 _tokens = tokenBalanceLedger[_customerAddress];\r\n        if(_tokens > 0) \r\n            sell(_buyer, _tokens);\r\n        \r\n        // lambo delivery service\r\n        withdrawAll(_buyer);\r\n    }\r\n\r\n    /**\r\n     * Withdraws all of the callers earnings.\r\n     */\r\n    function withdrawAll(address _buyer)\r\n        public\r\n        onlyStronghands(_buyer)\r\n        onlyIfWhitelisted(msg.sender)\r\n    {\r\n        // setup data\r\n        address _customerAddress = _buyer;\r\n        uint256 _dividends = dividendsOf(_customerAddress); // get ref. bonus later in the code\r\n        \r\n        // update dividend tracker\r\n        payoutsTo[_customerAddress] +=  (int256) (_dividends * magnitude);\r\n        \r\n        // add ref. bonus\r\n        _dividends += referralBalance[_customerAddress];\r\n        referralBalance[_customerAddress] = 0;\r\n        \r\n        // lambo delivery service\r\n        //_customerAddress.transfer(_dividends);\r\n        ERC20(zrxTokenAddress).transfer(_customerAddress, _dividends);\r\n        \r\n        // fire event\r\n        emit S3DEvents.onWithdraw(_customerAddress, _dividends);\r\n    }\r\n\r\n    function withdraw(address _buyer, uint256 _withdrawAmount)\r\n        public\r\n        onlyStronghands(_buyer)\r\n        onlyIfWhitelisted(msg.sender)\r\n    {\r\n        // setup data\r\n        uint256 _dividends = dividendsOf(_buyer); // get ref. bonus later in the code\r\n        uint256 _referralBalance = referralBalance[_buyer];\r\n        require(_withdrawAmount <= (_dividends + _referralBalance));\r\n\r\n        if (_withdrawAmount <= _dividends) {\r\n            // pay out the dividends virtually\r\n            payoutsTo[_buyer] +=  (int256)(_withdrawAmount * magnitude);\r\n        } else {\r\n            // retrieve ref. bonus\r\n            payoutsTo[_buyer] +=  (int256) (_dividends * magnitude);\r\n            referralBalance[_buyer] = SafeMath.sub(referralBalance[_buyer], SafeMath.sub(_withdrawAmount, _dividends));\r\n        }\r\n        \r\n        \r\n        // lambo delivery service\r\n        //_customerAddress.transfer(withdrawAmount);\r\n        ERC20(zrxTokenAddress).transfer(_buyer, _dividends);\r\n        \r\n        // fire event\r\n        emit S3DEvents.onWithdraw(_buyer, _withdrawAmount);\r\n    }\r\n    \r\n    /**\r\n     * Liquifies tokens to ethereum.\r\n     */\r\n    function sell(address _seller, uint256 _amountOfTokens)\r\n        public\r\n        onlyBagholders(_seller)\r\n        onlyIfWhitelisted(msg.sender)\r\n    {\r\n        // setup data\r\n        address _customerAddress = _seller;\r\n        // russian hackers BTFO\r\n        require(_amountOfTokens <= tokenBalanceLedger[_customerAddress]);\r\n        uint256 _tokens = _amountOfTokens;\r\n        uint256 _zrxAmount = s3dToBuyTokens(_tokens);\r\n        uint256 _dividends = SafeMath.div(_zrxAmount, dividendFee);\r\n        uint256 _taxedZrx = SafeMath.sub(_zrxAmount, _dividends);\r\n        \r\n        // burn the sold tokens\r\n        tokenSupply = SafeMath.sub(tokenSupply, _tokens);\r\n        tokenBalanceLedger[_customerAddress] = SafeMath.sub(tokenBalanceLedger[_customerAddress], _tokens);\r\n        \r\n        // update dividends tracker\r\n        int256 _updatedPayouts = (int256) (profitPerShare * _tokens + (_taxedZrx * magnitude));\r\n        payoutsTo[_customerAddress] -= _updatedPayouts;       \r\n        \r\n        // dividing by zero is a bad idea\r\n        uint256 _dividendTokenAmount =  getDividendTokenAmount();\r\n        if (_dividendTokenAmount > 0) {\r\n            // update the amount of dividends per token\r\n            profitPerShare = SafeMath.add(profitPerShare, (_dividends * magnitude) / _dividendTokenAmount);\r\n        }\r\n        \r\n        // fire event\r\n        emit S3DEvents.onTokenSell(_customerAddress, _tokens, _taxedZrx);\r\n    }\r\n    \r\n    /**\r\n     * Transfer tokens from the caller to a new holder.\r\n     * Remember, there's a 10% fee here as well.\r\n     */\r\n    // function transfer(address _toAddress, uint256 _amountOfTokens)\r\n    //     onlyBagholders()\r\n    //     public\r\n    //     returns(bool)\r\n    // {\r\n    //     // setup\r\n    //     address _customerAddress = msg.sender;\r\n        \r\n    //     // make sure we have the requested tokens\r\n    //     // also disables transfers until ambassador phase is over\r\n    //     // ( we dont want whale premines )\r\n    //     require(!onlyAmbassadors && _amountOfTokens <= tokenBalanceLedger_[_customerAddress]);\r\n        \r\n    //     // withdraw all outstanding dividends first\r\n    //     if(myDividends(true) > 0) withdraw();\r\n        \r\n    //     // liquify 10% of the tokens that are transfered\r\n    //     // these are dispersed to shareholders\r\n    //     uint256 _tokenFee = SafeMath.div(_amountOfTokens, dividendFee_);\r\n    //     uint256 _taxedTokens = SafeMath.sub(_amountOfTokens, _tokenFee);\r\n    //     uint256 _dividends = tokensToSeele(_tokenFee);\r\n  \r\n    //     // burn the fee tokens\r\n    //     tokenSupply_ = SafeMath.sub(tokenSupply_, _tokenFee);\r\n\r\n    //     // exchange tokens\r\n    //     tokenBalanceLedger_[_customerAddress] = SafeMath.sub(tokenBalanceLedger_[_customerAddress], _amountOfTokens);\r\n    //     tokenBalanceLedger_[_toAddress] = SafeMath.add(tokenBalanceLedger_[_toAddress], _taxedTokens);\r\n        \r\n    //     // update dividend trackers\r\n    //     payoutsTo_[_customerAddress] -= (int256) (profitPerShare_ * _amountOfTokens);\r\n    //     payoutsTo_[_toAddress] += (int256) (profitPerShare_ * _taxedTokens);\r\n        \r\n    //     // disperse dividends among holders\r\n    //     profitPerShare_ = SafeMath.add(profitPerShare_, (_dividends * magnitude) / tokenSupply_);\r\n        \r\n    //     // fire event\r\n    //     emit Transfer(_customerAddress, _toAddress, _taxedTokens);\r\n        \r\n    //     // ERC20\r\n    //     return true;\r\n       \r\n    // }\r\n    \r\n    /*----------  ADMINISTRATOR ONLY FUNCTIONS  ----------*/\r\n    /**\r\n     * In case the amassador quota is not met, the administrator can manually disable the ambassador phase.\r\n     */\r\n    function disableInitialStage()\r\n        public\r\n        onlyOwner()\r\n    {\r\n        onlyAmbassadors = false;\r\n    }\r\n    \r\n    /**\r\n     * Precautionary measures in case we need to adjust the masternode rate.\r\n     */\r\n    // function setStakingRequirement(uint256 _amountOfTokens)\r\n    //     onlyOwner()\r\n    //     public\r\n    // {\r\n    //     stakingRequirement = _amountOfTokens;\r\n    // }\r\n    \r\n\r\n    \r\n    /*----------  HELPERS AND CALCULATORS  ----------*/\r\n    /**\r\n     * Method to view the current Ethereum stored in the contract\r\n     * Example: totalEthereumBalance()\r\n     */\r\n    function totalBalance()\r\n        public\r\n        view\r\n        returns(uint256)\r\n    {\r\n        return ERC20(zrxTokenAddress).balanceOf(address(this));\r\n    }\r\n    \r\n\r\n    /*==========================================\r\n    =            INTERNAL FUNCTIONS            =\r\n    ==========================================*/\r\n    function purchaseTokens(address _buyer, uint256 _incomingZrx, address _referredBy)\r\n        internal\r\n        antiEarlyWhale(_buyer, _incomingZrx)\r\n        returns(uint256)\r\n    {\r\n        // data setup\r\n        //address _customerAddress = buyer;\r\n        uint256 _undividedDividends = SafeMath.div(_incomingZrx, dividendFee);\r\n        uint256 _referralBonus = SafeMath.div(_undividedDividends, 3);\r\n        uint256 _dividends = SafeMath.sub(_undividedDividends, _referralBonus);\r\n        uint256 _taxedZrx = SafeMath.sub(_incomingZrx, _undividedDividends);\r\n        uint256 _amountOfTokens = buyTokensToS3d(_taxedZrx);\r\n        uint256 _fee = _dividends * magnitude;\r\n \r\n        // no point in continuing execution if OP is a poorfag russian hacker\r\n        // prevents overflow in the case that the pyramid somehow magically starts being used by everyone in the world\r\n        // (or hackers)\r\n        // and yes we know that the safemath function automatically rules out the \"greater then\" equasion.\r\n        require(_amountOfTokens > 0 && (SafeMath.add(_amountOfTokens,tokenSupply) > tokenSupply));\r\n        \r\n        // is the user referred by a masternode?\r\n        if(\r\n            // is this a referred purchase?\r\n            _referredBy != 0x0000000000000000000000000000000000000000 &&\r\n\r\n            // no cheating!\r\n            _referredBy != _buyer\r\n            \r\n            // does the referrer have at least X whole tokens?\r\n            // i.e is the referrer a godly chad masternode\r\n            //tokenBalanceLedger_[_referredBy] >= stakingRequirement\r\n        ){\r\n            // wealth redistribution\r\n            referralBalance[_referredBy] = SafeMath.add(referralBalance[_referredBy], _referralBonus);\r\n        } else {\r\n            // no ref purchase\r\n            // add the referral bonus back to the global dividends cake\r\n            _dividends = SafeMath.add(_dividends, _referralBonus);\r\n            _fee = _dividends * magnitude;\r\n        }\r\n        \r\n        // we can't give people infinite ethereum\r\n        if(tokenSupply > 0){\r\n            \r\n            // add tokens to the pool\r\n            tokenSupply = SafeMath.add(tokenSupply, _amountOfTokens);\r\n\r\n            //uint256 dividendTokenAmount_ =  getDividendTokenAmount();\r\n \r\n            // take the amount of dividends gained through this transaction, and allocates them evenly to each shareholder\r\n            profitPerShare += (_dividends * magnitude / (getDividendTokenAmount()));\r\n            \r\n            // calculate the amount of tokens the customer receives over his purchase \r\n            _fee = _fee - (_fee-(_amountOfTokens * (_dividends * magnitude / (getDividendTokenAmount()))));\r\n        \r\n        } else {\r\n            // add tokens to the pool\r\n            tokenSupply = _amountOfTokens;\r\n        }\r\n        \r\n        // update circulating supply & the ledger address for the customer\r\n        tokenBalanceLedger[_buyer] = SafeMath.add(tokenBalanceLedger[_buyer], _amountOfTokens);\r\n        \r\n        // Tells the contract that the buyer doesn't deserve dividends for the tokens before they owned them;\r\n        //really i know you think you do but you don't\r\n\r\n        //int256 _updatedPayouts = (int256) ((profitPerShare_ * _amountOfTokens) - _fee);\r\n        payoutsTo[_buyer] += (int256) ((profitPerShare * _amountOfTokens) - _fee);\r\n        \r\n        // fire event\r\n        emit S3DEvents.onTokenPurchase(_buyer, _incomingZrx, _amountOfTokens, _referredBy);\r\n        \r\n        return _amountOfTokens;\r\n    }\r\n\r\n    //NEW FUNCTION        \r\n    function escapeTokens(address _sellerAddress, uint256 _amountOfTokens) \r\n        public \r\n        onlyBagholders(_sellerAddress) \r\n        onlyIfWhitelisted(msg.sender)\r\n        returns(uint256)\r\n    {\r\n        // setup data\r\n        address _customerAddress = _sellerAddress;\r\n\r\n        // russian hackers BTFO\r\n        require(_amountOfTokens <= tokenBalanceLedger[_customerAddress]);\r\n        uint256 _tokens = _amountOfTokens;\r\n\r\n        // add the sold tokens to escape tokens\r\n        tokenSupply = SafeMath.sub(tokenSupply, _tokens);\r\n        escapeTokenSuppley = SafeMath.add(escapeTokenSuppley, _tokens);\r\n        tokenBalanceLedger[_customerAddress] = SafeMath.sub(tokenBalanceLedger[_customerAddress], _tokens);\r\n        escapeTokenBalance[_customerAddress] = SafeMath.add(escapeTokenBalance[_customerAddress], _tokens);\r\n   \r\n        // update dividends tracker\r\n        // take you token dividends\r\n        int256 _updatedPayouts = (int256) (profitPerShare * _tokens);\r\n        payoutsTo[_customerAddress] -= _updatedPayouts;       \r\n\r\n        // fire event\r\n        emit S3DEvents.onTokenEscape(_customerAddress, _tokens);\r\n        return _tokens;\r\n    }\r\n\r\n    //\r\n    function arbitrageTokens(address _sellerAddress,  uint256 _amountOfTokens) \r\n        public\r\n        onlyIfWhitelisted(msg.sender)\r\n        returns(uint256)\r\n    {\r\n        require(_amountOfTokens <= getPricedTokenAmount());\r\n        \r\n        // setup data\r\n        address _customerAddress = _sellerAddress;\r\n        \r\n        // TokenDealerInterface escapeContract = TokenDealerInterface(sellTokenAddress);\r\n        // uint256 _tokens = escapeContract.escapeTokens(_customerAddress, _amountOfTokens);\r\n        // require(_tokens == _amountOfTokens);\r\n\r\n        // russian hackers BTFO\r\n        uint256 _zrxAmount = s3dToBuyTokens(_amountOfTokens);\r\n        require(_zrxAmount <= totalBalance());        \r\n\r\n        uint256 _dividends = SafeMath.div(_zrxAmount, dividendFee);\r\n        uint256 _taxedZrx = SafeMath.sub(_zrxAmount, _dividends);\r\n        \r\n        // burn the sold tokens\r\n        //tokenSupply_ = SafeMath.sub(tokenSupply_, _tokens);\r\n        //tokenBalanceLedger_[_customerAddress] = SafeMath.sub(tokenBalanceLedger_[_customerAddress], _tokens);\r\n\r\n        // add escape tokens to oversell\r\n        overSellTokenAmount = SafeMath.add(overSellTokenAmount, _amountOfTokens);\r\n        overSellTokenBalance[_customerAddress] = SafeMath.add(overSellTokenBalance[_customerAddress], _amountOfTokens);\r\n\r\n             \r\n        // dividing by zero is a bad idea\r\n        uint256 _dividendTokenAmount =  getDividendTokenAmount();\r\n        if (_dividendTokenAmount > 0) {\r\n            // update the amount of dividends per token\r\n            profitPerShare = SafeMath.add(profitPerShare, (_dividends * magnitude) / _dividendTokenAmount);\r\n        }\r\n        \r\n        // lambo delivery service\r\n        //_customerAddress.transfer(_taxedEthereum);\r\n        ERC20(zrxTokenAddress).transfer(_customerAddress, _taxedZrx);\r\n\r\n        // fire event\r\n        emit S3DEvents.onTokenArbitrage(_customerAddress, _amountOfTokens, _taxedZrx);\r\n        return _taxedZrx;\r\n    }\r\n}",
  "sourcePath": "D:\\work\\truffle\\s3d - \\contracts\\ZRXDealer.sol",
  "compiler": {
    "name": "solc",
    "version": "0.4.24+commit.e67f0147.Emscripten.clang"
  },
  "schemaVersion": "2.0.1",
  "updatedAt": "2018-08-25T04:14:22.053Z"
}